:020000040000FA
:04000000B2EF15F056
:102B640004EE00F014EE00F0EE6AE550E150FCE1F2
:102B7400E250FAE13F6A3E6A000EF86E0001AAEFE5
:102B840017F00F0EC16E000EC26E000E926E000E94
:102B9400936E000E946E000E956E000E966E000EEF
:102BA400806E000E816E000E826E000E836E000E2B
:102BB400846E1200026E0250D8B4E3EF15F0E5EF14
:102BC40015F0E9EF15F08A808A92EDEF15F08A92FC
:102BD4008A82EDEF15F0000E956E8A9601C08CFF87
:102BE4008A8800D08A9800D08A908A9212001FEFB7
:102BF40016F00E50D8B401EF16F003EF16F00FEFF5
:102C040016F00FC003F00CC0F6FF0DC0F7FF08006C
:102C1400F55014EC17F01BEF16F00FC003F00CC0C6
:102C2400F6FF0DC0F7FF0800F55040EC18F01BEF5D
:102C340016F00C4A0D2A1FEF16F00CC0F6FF0DC05B
:102C4400F7FF0800F5500009D8A42BEF16F02DEF7C
:102C540016F0FBEF15F02FEF16F01200056E000EC4
:102C6400046E800E056039EF16F03BEF16F067EF47
:102C740016F0070E036441EF16F043EF16F047EF2A
:102C840016F067EF16F067EF16F005C03FF003C0CB
:102C94003EF03F0E056451EF16F053EF16F059EF76
:102CA40016F0400E055E010E046E59EF16F08A947C
:102CB40005504009016E0450DCEC15F00350B809CE
:102CC400016E0450DCEC15F08A841200066E000ECE
:102CD400836E8A9A210EE82EFED700F08A8A8A989B
:102CE4008A908A928A9400D0C00E016E000EDCECA9
:102CF40015F0C00E016E010EDCEC15F0400E016EF5
:102D0400000EDCEC15F0400E016E010EDCEC15F04B
:102D1400B80E016E000EDCEC15F0B80E016E010E5B
:102D2400DCEC15F00604D8A49AEF16F09CEF16F02C
:102D3400A8EF16F03F0E016E000EDCEC15F03F0E0E
:102D4400016E010EDCEC15F0B4EF16F03E0E016ED0
:102D5400000EDCEC15F03E0E016E010EDCEC15F0FD
:102D6400B4EF16F0000EB8EC16F01200036E000E6D
:102D7400056E070E0564C1EF16F0C3EF16F0C7EF3A
:102D840016F013EF17F013EF17F08A94400E016E4C
:102D9400000EDCEC15F0400E016E010EDCEC15F0BB
:102DA4000550B809016E000EDCEC15F00550B809A9
:102DB400016E010EDCEC15F08A84000E046E3F0EE9
:102DC4000464E7EF16F0E9EF16F0EDEF16F008EF04
:102DD40017F008EF17F00350010DF3500008016ECF
:102DE400000EDCEC15F00350010DF3500008016EE9
:102DF400010EDCEC15F0042A3F0E046404EF17F016
:102E040006EF17F0EDEF16F008EF17F0052A070E9E
:102E140005640FEF17F011EF17F0C7EF16F013EF7B
:102E240017F01200086E000E0B6E0A0E0818D8A4D4
:102E34001EEF17F020EF17F027EF17F0000E3F6E8C
:102E44003E2AA9EF17F0A9EF17F03F0E3F642DEFCC
:102E540017F02FEF17F036EF17F0010E0B6E3F50FF
:102E6400C00F096E3AEF17F03FC009F03AEF17F0C0
:102E74000850080DF3CF06F0F4CF07F0000E0A6EE9
:102E8400070E0A6448EF17F04AEF17F04EEF17F0F9
:102E9400A7EF17F0A7EF17F03F0E096454EF17F0F0
:102EA40056EF17F06AEF17F0400E095E010E0B6E35
:102EB4008A9409504009016E0B50DCEC15F03E5029
:102EC400B809016E0B50DCEC15F08A846AEF17F038
:102ED4000350D8B470EF17F072EF17F086EF17F0C5
:102EE4000A500624046E000E0720056E010E042409
:102EF400F66E6B0E0520F76E0800F5CF01F00B504F
:102F0400DCEC15F09BEF17F00A500624046E000E5B
:102F14000720056E010E0424F66E6B0E0520F76E75
:102F24000800F550FF0A016E0B50DCEC15F09BEF26
:102F340017F0092A0A2A070E0A64A3EF17F0A5EF6F
:102F440017F04EEF17F0A7EF17F0080E3F26120008
:102F5400000E846E000E3B6E000E3A6E000E3D6E47
:102F6400000E3C6EC3EC15F0010E68EC16F0010E79
:102F7400036E0A0E30EC16F0D30E0C6E7F0E0D6E3F
:102F8400010E0E6E010E0F6EF9EC15F0060E396E81
:102F9400130E386EAE0EE82EFED7382EFCD7392E1F
:102FA400FAD7030E036E1E0E30EC16F0F60E0C6EFE
:102FB4007F0E0D6E010E0E6E010E0F6EF9EC15F004
:102FC400050E036E0A0E30EC16F0340E386EF20E57
:102FD400E82EFED7382EFCD7C40E0C6E7F0E0D6E75
:102FE400010E0E6E010E0F6EF9EC15F0070E036E56
:102FF4001E0E30EC16F0EC0E0C6E7F0E0D6E010EF4
:103004000E6E010E0F6EF9EC15F0070E396E170EE9
:10301400386E6A0EE82EFED7382EFCD7392EFAD732
:1030240000D0000E68EC16F0010E68EC16F0040EE9
:10303400036E140E30EC16F0E10E0C6E7F0E0D6E66
:10304400010E0E6E010E0F6EF9EC15F0050E396EC1
:103054000F0E386EF10EE82EFED7382EFCD7392E1F
:10306400FAD700F0000E68EC16F0010E68EC16F0CA
:10307400E2EC18F03CEF18F000EF00F0076E000EE1
:10308400096E0A0E0718D8A44AEF18F04CEF18F08E
:1030940053EF18F0000E3F6E3E2AE1EF18F0E1EF17
:1030A40018F03F0E3F6459EF18F05BEF18F062EF31
:1030B40018F0010E096E3F50C00F066E66EF18F04F
:1030C4003FC006F066EF18F0200E075E000E086E93
:1030D400020E086470EF18F072EF18F076EF18F033
:1030E400DFEF18F0DFEF18F03F0E06647CEF18F006
:1030F4007EEF18F092EF18F0400E065E010E096E96
:103104008A9406504009016E0950DCEC15F03E50DB
:10311400B809016E0950DCEC15F08A8492EF18F0BE
:103124000350D8B498EF18F09AEF18F0B6EF18F0EF
:103134000750030D010E046E7F0E056EF350042636
:10314400F45005220850010DF3500426F4500522D2
:1031540004C0F6FF05C0F7FF0800F5CF01F00950E1
:10316400DCEC15F0D3EF18F00750030D010E046EDC
:103174007F0E056EF3500426F45005220850010D0D
:10318400F3500426F450052204C0F6FF05C0F7FFEF
:103194000800F550FF0A016E0950DCEC15F0D3EF7E
:1031A40018F0062A082A020E0864DBEF18F0DDEF97
:1031B40018F076EF18F0DFEF18F0050E3F26120036
:1031C400030E336EE80E326E000E2D6E050E2C6E5D
:1031D400000E376EFC0E366E000E2F6E7B0E2E6EBA
:1031E400000E316E850E306E000E126E000E116EE2
:1031F400000E146E000E136E000E166E000E156E89
:10320400000E186E000E176E000E1A6E000E196E68
:10321400000E1C6E000E1B6E000E276E000E266E36
:10322400010E356EA20E346E000E1E6E000E1D6E63
:10323400000E206E000E1F6E000E296E000E286E0A
:10324400000E226E000E216E000E2C24D96E040E88
:103254002D20DA6E3C0EDF6E010E2C24036E000E60
:103264002D20046E000E0324D96E040E0420DA6EA1
:10327400B40EDF6EFF0E056EFF0E066E2CC007F057
:103284002DC008F00550072606500822000E07241A
:10329400E16E040E0820E26EDFCFE7FF020E2C245D
:1032A400036E000E2D20046E000E0324D96E040E4E
:1032B4000420DA6ECA0EDF6EFE0E056EFF0E066E79
:1032C4002CC007F02DC008F0055007260650082230
:1032D400000E0724E16E040E0820E26EDFCFE7FF44
:1032E400030E2C24036E000E2D20046E000E032406
:1032F400D96E040E0420DA6E190EDF6EFD0E056E13
:10330400FF0E066E2CC007F02DC008F005500726EE
:1033140006500822000E0724E16E040E0820E26E17
:10332400DFCFE7FF000E3624D96E040E3720DA6EA5
:103334003C0EDF6E010E3624036E000E3720046E41
:10334400000E0324D96E040E0420DA6EB40EDF6E70
:10335400FF0E056EFF0E066E36C007F037C008F08C
:103364000550072606500822000E0724E16E040EBD
:103374000820E26EDFCFE7FF020E3624036E000E54
:103384003720046E000E0324D96E040E0420DA6E76
:10339400CA0EDF6EFE0E056EFF0E066E36C007F017
:1033A40037C008F00550072606500822000E0724EF
:1033B400E16E040E0820E26EDFCFE7FF030E362431
:1033C400036E000E3720046E000E0324D96E040E23
:1033D4000420DA6E190EDF6EFD0E056EFF0E066E0A
:1033E40036C007F037C008F00550072606500822FB
:1033F400000E0724E16E040E0820E26EDFCFE7FF23
:10340400000E2E24D96E040E2F20DA6E3C0EDF6ED1
:10341400010E2E24036E000E2F20046E000E0324D2
:10342400D96E040E0420DA6EB40EDF6EFF0E056E44
:10343400FF0E066E2EC007F02FC008F005500726B9
:1034440006500822000E0724E16E040E0820E26EE6
:10345400DFCFE7FF020E2E24036E000E2F20046E32
:10346400000E0324D96E040E0420DA6ECA0EDF6E39
:10347400FE0E056EFF0E066E2EC007F02FC008F07C
:103484000550072606500822000E0724E16E040E9C
:103494000820E26EDFCFE7FF030E2E24036E000E3A
:1034A4002F20046E000E0324D96E040E0420DA6E5D
:1034B400190EDF6EFD0E056EFF0E066E2EC007F0B0
:1034C4002FC008F00550072606500822000E0724D6
:1034D400E16E040E0820E26EDFCFE7FF000E302419
:1034E400D96E040E3120DA6E3C0EDF6E010E3024EC
:1034F400036E000E3120046E000E0324D96E040EF8
:103504000420DA6EB40EDF6EFF0E056EFF0E066E3B
:1035140030C007F031C008F00550072606500822D5
:10352400000E0724E16E040E0820E26EDFCFE7FFF1
:10353400020E3024036E000E3120046E000E0324AC
:10354400D96E040E0420DA6ECA0EDF6EFE0E056E0E
:10355400FF0E066E30C007F031C008F00550072694
:1035640006500822000E0724E16E040E0820E26EC5
:10357400DFCFE7FF030E3024036E000E3120046E0C
:10358400000E0324D96E040E0420DA6E190EDF6EC9
:10359400FD0E056EFF0E066E30C007F031C008F058
:1035A4000550072606500822000E0724E16E040E7B
:1035B4000820E26EDFCFE7FF000E3224D96E040E3E
:1035C4003320DA6EFF0EDF6E010E3224036E000E1E
:1035D4003320046E000E0324D96E040E0420DA6E28
:1035E400FC0EDF6EFF0E056EFF0E066E32C007F096
:1035F40033C008F00550072606500822000E0724A1
:10360400E16E040E0820E26EDFCFE7FF020E3224E3
:10361400036E000E3320046E000E0324D96E040ED4
:103624000420DA6EF00EDF6EFE0E056EFF0E066EDF
:1036340032C007F033C008F00550072606500822B0
:10364400000E0724E16E040E0820E26EDFCFE7FFD0
:103654002CEF1BF0000E106E000E0F6E000E246E89
:10366400070E246438EF1BF03AEF1BF03EEF1BF01B
:1036740093EF1BF093EF1BF0000E256E010E2564F3
:1036840046EF1BF048EF1BF04CEF1BF08AEF1BF0EA
:103694008AEF1BF08A94400E016E2550DCEC15F085
:1036A4002450B809016E2550DCEC15F08A84000E14
:1036B400236E3F0E236461EF1BF063EF1BF067EF93
:1036C4001BF07FEF1BF07FEF1BF0000E0F24D96E71
:1036D400040E1020DA6EDF50016E2550DCEC15F07C
:1036E4000F4A102A232A3F0E23647BEF1BF07DEF41
:1036F4001BF067EF1BF07FEF1BF0252A010E2564FA
:1037040086EF1BF088EF1BF04CEF1BF08AEF1BF0E9
:10371400242A070E246491EF1BF093EF1BF03EEF75
:103724001BF08A908A92BD0E30183110D8A49DEFF8
:103734001BF09FEF1BF0A5EF1BF0000E1A6E010E9D
:10374400196EA5EF1BF0840E30183110D8A4ADEF1C
:103754001BF0AFEF1BF0B5EF1BF0000E1A6E000E5E
:10376400196EB5EF1BF019501A10D8A4BCEF1BF05A
:10377400BEEF1BF09EEF1CF0030E3024036E000E10
:103784003120046E000E0324D96E040E0420DA6E78
:10379400040E3024056E000E3120066E000E052442
:1037A400E16E040E0620E26EDFCFE7FF020E302446
:1037B400036E000E3120046E000E0324D96E040E35
:1037C4000420DA6E030E3024056E000E3120066EDE
:1037D400000E0524E16E040E0620E26EDFCFE7FF43
:1037E400010E3024036E000E3120046E000E0324FB
:1037F400D96E040E0420DA6E020E3024056E000E1B
:103804003120066E000E0524E16E040E0620E26EE1
:10381400DFCFE7FF000E3024D96E040E3120DA6EBC
:10382400010E3024036E000E3120046E000E0324BA
:10383400E16E040E0420E26EDFCFE7FFFF0E036E9D
:10384400FF0E046E30C005F031C006F003500526AB
:1038540004500622000E0524D96E040E0620DA6EEA
:10386400000E3024E16E040E3120E26EDFCFE7FF5C
:10387400FE0E036EFF0E046E30C005F031C006F07C
:103884000350052604500622000E0524D96E040EAA
:103894000620DA6EFF0E076EFF0E086E30C009F0C8
:1038A40031C00AF00750092608500A22000E0924E4
:1038B400E16E040E0A20E26EDFCFE7FFFD0E036E19
:1038C400FF0E046E30C005F031C006F0035005262B
:1038D40004500622000E0524D96E040E0620DA6E6A
:1038E400FE0E076EFF0E086E30C009F031C00AF0FC
:1038F4000750092608500A22000E0924E16E040E1E
:103904000A20E26EDFCFE7FFFD0E036EFF0E046EAA
:1039140030C005F031C006F00350052604500622DD
:10392400000E0524D96E040E0620DA6E000EDF6E3A
:10393400304A312A85EF1DF0FD0E036EFF0E046E32
:1039440030C005F031C006F00350052604500622AD
:10395400000E0524D96E040E0620DA6EFC0E076EE6
:10396400FF0E086E30C009F031C00AF00750092676
:1039740008500A22000E0924E16E040E0A20E26EA9
:10398400DFCFE7FFFE0E036EFF0E046E30C005F0BE
:1039940031C006F00350052604500622000E05240B
:1039A400D96E040E0620DA6EFD0E076EFF0E086E49
:1039B40030C009F031C00AF00750092608500A2225
:1039C400000E0924E16E040E0A20E26EDFCFE7FF49
:1039D400FF0E036EFF0E046E30C005F031C006F01A
:1039E4000350052604500622000E0524D96E040E49
:1039F4000620DA6EFE0E076EFF0E086E30C009F068
:103A040031C00AF00750092608500A22000E092482
:103A1400E16E040E0A20E26EDFCFE7FF000E3024D1
:103A2400D96E040E3120DA6EFF0E036EFF0E046EA3
:103A340030C005F031C006F00350052604500622BC
:103A4400000E0524E16E040E0620E26EDFCFE7FFD0
:103A5400010E3024036E000E3120046E000E032488
:103A6400D96E040E0420DA6E000E3024E16E040ECA
:103A74003120E26EDFCFE7FF020E3024036E000E2A
:103A84003120046E000E0324D96E040E0420DA6E75
:103A9400010E3024056E000E3120066E000E052442
:103AA400E16E040E0620E26EDFCFE7FF030E302442
:103AB400036E000E3120046E000E0324D96E040E32
:103AC4000420DA6E020E3024056E000E3120066EDC
:103AD400000E0524E16E040E0620E26EDFCFE7FF40
:103AE400030E3024036E000E3120046E000E0324F6
:103AF400D96E040E0420DA6E000EDF6E3006D8A0F4
:103B0400310685EF1DF0440E2E182F10D8A48DEF2A
:103B14001DF08FEF1DF095EF1DF0000E186E010ED5
:103B2400176E95EF1DF07C0E2E182F10D8A49DEF64
:103B34001DF09FEF1DF0A5EF1DF0000E186E000E96
:103B4400176EA5EF1DF017041810D8A4ACEF1DF0E4
:103B5400AEEF1DF08EEF1EF0030E2E24036E000E4A
:103B64002F20046E000E0324D96E040E0420DA6E96
:103B7400040E2E24056E000E2F20066E000E052462
:103B8400E16E040E0620E26EDFCFE7FF020E2E2464
:103B9400036E000E2F20046E000E0324D96E040E53
:103BA4000420DA6E030E2E24056E000E2F20066EFE
:103BB400000E0524E16E040E0620E26EDFCFE7FF5F
:103BC400010E2E24036E000E2F20046E000E03241B
:103BD400D96E040E0420DA6E020E2E24056E000E39
:103BE4002F20066E000E0524E16E040E0620E26E00
:103BF400DFCFE7FF000E2E24D96E040E2F20DA6EDD
:103C0400010E2E24036E000E2F20046E000E0324DA
:103C1400E16E040E0420E26EDFCFE7FFFF0E036EB9
:103C2400FF0E046E2EC005F02FC006F003500526CB
:103C340004500622000E0524D96E040E0620DA6E06
:103C4400000E2E24E16E040E2F20E26EDFCFE7FF7C
:103C5400FE0E036EFF0E046E2EC005F02FC006F09C
:103C64000350052604500622000E0524D96E040EC6
:103C74000620DA6EFF0E076EFF0E086E2EC009F0E6
:103C84002FC00AF00750092608500A22000E092402
:103C9400E16E040E0A20E26EDFCFE7FFFD0E036E35
:103CA400FF0E046E2EC005F02FC006F0035005264B
:103CB40004500622000E0524D96E040E0620DA6E86
:103CC400FE0E076EFF0E086E2EC009F02FC00AF01C
:103CD4000750092608500A22000E0924E16E040E3A
:103CE4000A20E26EDFCFE7FFFD0E036EFF0E046EC7
:103CF4002EC005F02FC006F00350052604500622FE
:103D0400000E0524D96E040E0620DA6E000EDF6E56
:103D14002E4A2F2A75EF1FF0FD0E036EFF0E046E60
:103D24002EC005F02FC006F00350052604500622CD
:103D3400000E0524D96E040E0620DA6EFC0E076E02
:103D4400FF0E086E2EC009F02FC00AF00750092696
:103D540008500A22000E0924E16E040E0A20E26EC5
:103D6400DFCFE7FFFE0E036EFF0E046E2EC005F0DC
:103D74002FC006F00350052604500622000E052429
:103D8400D96E040E0620DA6EFD0E076EFF0E086E65
:103D94002EC009F02FC00AF00750092608500A2245
:103DA400000E0924E16E040E0A20E26EDFCFE7FF65
:103DB400FF0E036EFF0E046E2EC005F02FC006F03A
:103DC4000350052604500622000E0524D96E040E65
:103DD4000620DA6EFE0E076EFF0E086E2EC009F086
:103DE4002FC00AF00750092608500A22000E0924A1
:103DF400E16E040E0A20E26EDFCFE7FF000E2E24F0
:103E0400D96E040E2F20DA6EFF0E036EFF0E046EC1
:103E14002EC005F02FC006F00350052604500622DC
:103E2400000E0524E16E040E0620E26EDFCFE7FFEC
:103E3400010E2E24036E000E2F20046E000E0324A8
:103E4400D96E040E0420DA6E000E2E24E16E040EE8
:103E54002F20E26EDFCFE7FF020E2E24036E000E4A
:103E64002F20046E000E0324D96E040E0420DA6E93
:103E7400010E2E24056E000E2F20066E000E052462
:103E8400E16E040E0620E26EDFCFE7FF030E2E2460
:103E9400036E000E2F20046E000E0324D96E040E50
:103EA4000420DA6E020E2E24056E000E2F20066EFC
:103EB400000E0524E16E040E0620E26EDFCFE7FF5C
:103EC400030E2E24036E000E2F20046E000E032416
:103ED400D96E040E0420DA6E000EDF6E2E06D8A012
:103EE4002F0675EF1FF0C00E36183710D8A47DEFDB
:103EF4001FF07FEF1FF085EF1FF0000E166E010E0E
:103F0400156E85EF1FF0FC0E36183710D8A48DEF10
:103F14001FF08FEF1FF095EF1FF0000E166E000ECE
:103F2400156E95EF1FF015041610D8A49CEF1FF022
:103F34009EEF1FF07EEF20F0030E3624036E000E7A
:103F44003720046E000E0324D96E040E0420DA6EAA
:103F5400040E3624056E000E3720066E000E05246E
:103F6400E16E040E0620E26EDFCFE7FF020E362478
:103F7400036E000E3720046E000E0324D96E040E67
:103F84000420DA6E030E3624056E000E3720066E0A
:103F9400000E0524E16E040E0620E26EDFCFE7FF7B
:103FA400010E3624036E000E3720046E000E032427
:103FB400D96E040E0420DA6E020E3624056E000E4D
:103FC4003720066E000E0524E16E040E0620E26E14
:103FD400DFCFE7FF000E3624D96E040E3720DA6EE9
:103FE400010E3624036E000E3720046E000E0324E7
:103FF400E16E040E0420E26EDFCFE7FFFF0E036ED6
:10400400FF0E046E36C005F037C006F003500526D7
:1040140004500622000E0524D96E040E0620DA6E22
:10402400000E3624E16E040E3720E26EDFCFE7FF88
:10403400FE0E036EFF0E046E36C005F037C006F0A8
:104044000350052604500622000E0524D96E040EE2
:104054000620DA6EFF0E076EFF0E086E36C009F0FA
:1040640037C00AF00750092608500A22000E092416
:10407400E16E040E0A20E26EDFCFE7FFFD0E036E51
:10408400FF0E046E36C005F037C006F00350052657
:1040940004500622000E0524D96E040E0620DA6EA2
:1040A400FE0E076EFF0E086E36C009F037C00AF028
:1040B4000750092608500A22000E0924E16E040E56
:1040C4000A20E26EDFCFE7FFFD0E036EFF0E046EE3
:1040D40036C005F037C006F003500526045006220A
:1040E400000E0524D96E040E0620DA6E000EDF6E73
:1040F400364A372A65EF21F0FD0E036EFF0E046E7B
:1041040036C005F037C006F00350052604500622D9
:10411400000E0524D96E040E0620DA6EFC0E076E1E
:10412400FF0E086E36C009F037C00AF007500926A2
:1041340008500A22000E0924E16E040E0A20E26EE1
:10414400DFCFE7FFFE0E036EFF0E046E36C005F0F0
:1041540037C006F00350052604500622000E05243D
:10416400D96E040E0620DA6EFD0E076EFF0E086E81
:1041740036C009F037C00AF00750092608500A2251
:10418400000E0924E16E040E0A20E26EDFCFE7FF81
:10419400FF0E036EFF0E046E36C005F037C006F046
:1041A4000350052604500622000E0524D96E040E81
:1041B4000620DA6EFE0E076EFF0E086E36C009F09A
:1041C40037C00AF00750092608500A22000E0924B5
:1041D400E16E040E0A20E26EDFCFE7FF000E362404
:1041E400D96E040E3720DA6EFF0E036EFF0E046ED6
:1041F40036C005F037C006F00350052604500622E9
:10420400000E0524E16E040E0620E26EDFCFE7FF08
:10421400010E3624036E000E3720046E000E0324B4
:10422400D96E040E0420DA6E000E3624E16E040EFC
:104234003720E26EDFCFE7FF020E3624036E000E56
:104244003720046E000E0324D96E040E0420DA6EA7
:10425400010E3624056E000E3720066E000E05246E
:10426400E16E040E0620E26EDFCFE7FF030E362474
:10427400036E000E3720046E000E0324D96E040E64
:104284000420DA6E020E3624056E000E3720066E08
:10429400000E0524E16E040E0620E26EDFCFE7FF78
:1042A400030E3624036E000E3720046E000E032422
:1042B400D96E040E0420DA6E000EDF6E3606D8A026
:1042C400370665EF21F0400E2C182D10D8A46DEFA1
:1042D40021F06FEF21F075EF21F0000E126E010E48
:1042E400116E75EF21F0040E2C182D10D8A47DEF5B
:1042F40021F07FEF21F085EF21F0000E126E000E09
:10430400116E85EF21F011501210D8A48CEF21F01A
:104314008EEF21F06EEF22F0030E2C24036E000EBC
:104324002D20046E000E0324D96E040E0420DA6ED0
:10433400040E2C24056E000E2D20066E000E05249E
:10434400E16E040E0620E26EDFCFE7FF020E2C249E
:10435400036E000E2D20046E000E0324D96E040E8D
:104364000420DA6E030E2C24056E000E2D20066E3A
:10437400000E0524E16E040E0620E26EDFCFE7FF97
:10438400010E2C24036E000E2D20046E000E032457
:10439400D96E040E0420DA6E020E2C24056E000E73
:1043A4002D20066E000E0524E16E040E0620E26E3A
:1043B400DFCFE7FF000E2C24D96E040E2D20DA6E19
:1043C400010E2C24036E000E2D20046E000E032417
:1043D400E16E040E0420E26EDFCFE7FFFF0E036EF2
:1043E400FF0E046E2CC005F02DC006F00350052608
:1043F40004500622000E0524D96E040E0620DA6E3F
:10440400000E2C24E16E040E2D20E26EDFCFE7FFB8
:10441400FE0E036EFF0E046E2CC005F02DC006F0D8
:104424000350052604500622000E0524D96E040EFE
:104434000620DA6EFF0E076EFF0E086E2CC009F020
:104444002DC00AF00750092608500A22000E09243C
:10445400E16E040E0A20E26EDFCFE7FFFD0E036E6D
:10446400FF0E046E2CC005F02DC006F00350052687
:1044740004500622000E0524D96E040E0620DA6EBE
:10448400FE0E076EFF0E086E2CC009F02DC00AF058
:104494000750092608500A22000E0924E16E040E72
:1044A4000A20E26EDFCFE7FFFD0E036EFF0E046EFF
:1044B4002CC005F02DC006F003500526045006223A
:1044C400000E0524D96E040E0620DA6E000EDF6E8F
:1044D4002C4A2D2A55EF23F0FD0E036EFF0E046EB9
:1044E4002CC005F02DC006F003500526045006220A
:1044F400000E0524D96E040E0620DA6EFC0E076E3B
:10450400FF0E086E2CC009F02DC00AF007500926D2
:1045140008500A22000E0924E16E040E0A20E26EFD
:10452400DFCFE7FFFE0E036EFF0E046E2CC005F016
:104534002DC006F00350052604500622000E052463
:10454400D96E040E0620DA6EFD0E076EFF0E086E9D
:104554002CC009F02DC00AF00750092608500A2281
:10456400000E0924E16E040E0A20E26EDFCFE7FF9D
:10457400FF0E036EFF0E046E2CC005F02DC006F076
:104584000350052604500622000E0524D96E040E9D
:104594000620DA6EFE0E076EFF0E086E2CC009F0C0
:1045A4002DC00AF00750092608500A22000E0924DB
:1045B400E16E040E0A20E26EDFCFE7FF000E2C242A
:1045C400D96E040E2D20DA6EFF0E036EFF0E046EFC
:1045D4002CC005F02DC006F0035005260450062219
:1045E400000E0524E16E040E0620E26EDFCFE7FF25
:1045F400010E2C24036E000E2D20046E000E0324E5
:10460400D96E040E0420DA6E000E2C24E16E040E22
:104614002D20E26EDFCFE7FF020E2C24036E000E86
:104624002D20046E000E0324D96E040E0420DA6ECD
:10463400010E2C24056E000E2D20066E000E05249E
:10464400E16E040E0620E26EDFCFE7FF030E2C249A
:10465400036E000E2D20046E000E0324D96E040E8A
:104664000420DA6E020E2C24056E000E2D20066E38
:10467400000E0524E16E040E0620E26EDFCFE7FF94
:10468400030E2C24036E000E2D20046E000E032452
:10469400D96E040E0420DA6E000EDF6E2C06D8A04C
:1046A4002D0655EF23F0000E2C24D96E040E2D2078
:1046B400DA6EDF50D8A461EF23F063EF23F017EF35
:1046C40028F0030E2C24036E000E2D20046E000E21
:1046D4000324D96E040E0420DA6EDF50D8A475EFDB
:1046E40023F077EF23F017EF28F0020E2C24036E4B
:1046F400000E2D20046E000E0324D96E040E042037
:10470400DA6EDF50D8A489EF23F08BEF23F017EF94
:1047140028F0010E2C24036E000E2D20046E000ED2
:104724000324D96E040E0420DA6EDF50D8A49DEF62
:1047340023F09FEF23F017EF28F0FF0E036EFF0E18
:10474400046E2CC005F02DC006F00350052604505D
:104754000622000E0524D96E040E0620DA6EDF5000
:10476400D8A4B7EF23F0B9EF23F017EF28F0FE0E2B
:10477400036EFF0E046E2CC005F02DC006F003502E
:10478400052604500622000E0524D96E040E0620C8
:10479400DA6EDF50D8A4D1EF23F0D3EF23F017EF74
:1047A40028F0FD0E036EFF0E046E2CC005F02DC024
:1047B40006F00350052604500622000E0524D96E87
:1047C400040E0620DA6EDF50D8A4EBEF23F0EDEFF1
:1047D40023F017EF28F0000E3624D96E040E37208C
:1047E400DA6EDF50D8A4F9EF23F0FBEF23F017EFD4
:1047F40028F0030E3624036E000E3720046E000EDC
:104804000324D96E040E0420DA6EDF50D8A40DEF11
:1048140024F00FEF24F017EF28F0020E3624036E75
:10482400000E3720046E000E0324D96E040E0420FB
:10483400DA6EDF50D8A421EF24F023EF24F017EF31
:1048440028F0010E3624036E000E3720046E000E8D
:104854000324D96E040E0420DA6EDF50D8A435EF99
:1048640024F037EF24F017EF28F0FF0E036EFF0E4D
:10487400046E36C005F037C006F003500526045018
:104884000622000E0524D96E040E0620DA6EDF50CF
:10489400D8A44FEF24F051EF24F017EF28F0FE0EC8
:1048A400036EFF0E046E36C005F037C006F00350E9
:1048B400052604500622000E0524D96E040E062097
:1048C400DA6EDF50D8A469EF24F06BEF24F017EF11
:1048D40028F0FD0E036EFF0E046E36C005F037C0DF
:1048E40006F00350052604500622000E0524D96E56
:1048F400040E0620DA6EDF50D8A483EF24F085EF8F
:1049040024F017EF28F0000E2E24D96E040E2F2069
:10491400DA6EDF50D8A491EF24F093EF24F017EF70
:1049240028F0030E2E24036E000E2F20046E000EBA
:104934000324D96E040E0420DA6EDF50D8A4A5EF48
:1049440024F0A7EF24F017EF28F0020E2E24036EB4
:10495400000E2F20046E000E0324D96E040E0420D2
:10496400DA6EDF50D8A4B9EF24F0BBEF24F017EFD0
:1049740028F0010E2E24036E000E2F20046E000E6C
:104984000324D96E040E0420DA6EDF50D8A4CDEFD0
:1049940024F0CFEF24F017EF28F0FF0E036EFF0E84
:1049A400046E2EC005F02FC006F0035005260450F7
:1049B4000622000E0524D96E040E0620DA6EDF509E
:1049C400D8A4E7EF24F0E9EF24F017EF28F0FE0E67
:1049D400036EFF0E046E2EC005F02FC006F00350C8
:1049E400052604500622000E0524D96E040E062066
:1049F400DA6EDF50D8A401EF25F003EF25F017EFAE
:104A040028F0FD0E036EFF0E046E2EC005F02FC0BD
:104A140006F00350052604500622000E0524D96E24
:104A2400040E0620DA6EDF50D8A41BEF25F01DEF2C
:104A340025F017EF28F0000E3024D96E040E312033
:104A4400DA6EDF50D8A429EF25F02BEF25F017EF0D
:104A540028F0030E3024036E000E3120046E000E85
:104A64000324D96E040E0420DA6EDF50D8A43DEF7F
:104A740025F03FEF25F017EF28F0020E3024036EE7
:104A8400000E3120046E000E0324D96E040E04209F
:104A9400DA6EDF50D8A451EF25F053EF25F017EF6D
:104AA40028F0010E3024036E000E3120046E000E37
:104AB4000324D96E040E0420DA6EDF50D8A465EF07
:104AC40025F067EF25F017EF28F0FF0E036EFF0EB9
:104AD400046E30C005F031C006F0035005260450C2
:104AE4000622000E0524D96E040E0620DA6EDF506D
:104AF400D8A47FEF25F081EF25F017EF28F0FE0E04
:104B0400036EFF0E046E30C005F031C006F0035092
:104B1400052604500622000E0524D96E040E062034
:104B2400DA6EDF50D8A499EF25F09BEF25F017EF4C
:104B340028F0FD0E036EFF0E046E30C005F031C088
:104B440006F00350052604500622000E0524D96EF3
:104B5400040E0620DA6EDF50D8A4B3EF25F0B5EFCB
:104B640025F017EF28F0000E276E000E266E27BEE4
:104B7400C3EF25F0040E275CD8A0C3EF25F0C5EFE2
:104B840025F0C9EF25F0E1EF25F0E1EF25F0000E67
:104B94002624D96E040E2720DA6E000EDF6E264A14
:104BA400272A27BEDDEF25F0040E275CD8A0DDEF11
:104BB40025F0DFEF25F0C9EF25F0E1EF25F00E0E2B
:104BC4003424036E000E3520046E000E0324D96EC7
:104BD400040E0420DA6E1F0EDF6E070E3424056EF9
:104BE400000E3520066E000E0524E16E040E06202C
:104BF400E26EDFCFE7FF0D0E3424036E000E352086
:104C0400046E000E0324D96E040E0420DA6E200E06
:104C1400DF6E080E3424056E000E3520066E000E7D
:104C24000524E16E040E0620E26EDFCFE7FF0C0ED2
:104C34003424036E000E3520046E000E0324D96E56
:104C4400040E0420DA6E400EDF6E090E3424056E65
:104C5400000E3520066E000E0524E16E040E0620BB
:104C6400E26EDFCFE7FF0B0E3424036E000E352017
:104C7400046E000E0324D96E040E0420DA6E800E36
:104C8400DF6E0A0E3424056E000E3520066E000E0B
:104C94000524E16E040E0620E26EDFCFE7FF110E5D
:104CA4003424036E000E3520046E000E0324D96EE6
:104CB400040E0420DA6EFF0EDF6E100E3424056E2F
:104CC400000E3520066E000E0524E16E040E06204B
:104CD400E26EDFCFE7FF130E3424036E000E35209F
:104CE400046E000E0324D96E040E0420DA6EFF0E47
:104CF400DF6E170E3424036E000E3520046E000E92
:104D04000324D96E040E0420DA6E810EDF6E160EB3
:104D14003424056E000E3520066E000E0524E16E67
:104D2400040E0620E26EDFCFE7FF150E3424076E73
:104D3400000E3520086E000E0724D96E040E0820DC
:104D4400DA6EE7CFDFFF140E3424096E000E35202F
:104D54000A6E000E0924E16E040E0A20E26EDFCF13
:104D6400E7FF1F0E3424036E000E3520046E000E80
:104D74000324D96E040E0420DA6E010EDF6E1E0EBB
:104D84003424056E000E3520066E000E0524E16EF7
:104D9400040E0620E26EDFCFE7FF1D0E3424076EFB
:104DA400000E3520086E000E0724D96E040E08206C
:104DB400DA6EE7CFDFFF1B0E3424096E000E3520B8
:104DC4000A6E000E0924E16E040E0A20E26EDFCFA3
:104DD400E7FF1A0E34240B6E000E35200C6E000E05
:104DE4000B24D96E040E0C20DA6EE7CFDFFF190E08
:104DF40034240D6E000E35200E6E000E0D24E16E6F
:104E0400040E0E20E26EDFCFE7FF1C0E3424036E87
:104E1400000E3520046E000E0324D96E040E042007
:104E2400DA6EFF0EDF6E040E3424346E000E35206D
:104E3400356E230E3424036E000E3520046E000EEE
:104E44000324D96E040E0420DA6EFF0EDF6E1E0EEC
:104E54003424056E000E3520066E000E0524E16E26
:104E6400040E0620E26EDFCFE7FF220E3424036E29
:104E7400000E3520046E000E0324D96E040E0420A7
:104E8400DA6E810EDF6E210E3424056E000E35209D
:104E9400066E000E0524E16E040E0620E26EDFCFDE
:104EA400E7FF200E3424076E000E3520086E000E36
:104EB4000724D96E040E0820DA6EE7CFDFFF1F0E39
:104EC4003424096E000E35200A6E000E0924E16EAA
:104ED400040E0A20E26EDFCFE7FF020E3424346EA4
:104EE400000E3520356E250E3424036E000E352059
:104EF400046E000E0324D96E040E0420DA6EFF0E35
:104F0400DF6E240E3424056E000E3520066E000E6E
:104F14000524E16E040E0620E26EDFCFE7FF270EC4
:104F24003424036E000E3520046E000E0324D96E63
:104F3400040E0420DA6EFF0EDF6E280E3424036E96
:104F4400000E3520046E000E0324D96E040E0420D6
:104F5400DA6E110EDF6E290E3424036E000E352036
:104F6400046E000E0324D96E040E0420DA6E310E92
:104F7400DF6E2A0E3424036E000E3520046E000EFC
:104F84000324D96E040E0420DA6E4A0EDF6E2B0E53
:104F94003424036E000E3520046E000E0324D96EF3
:104FA400040E0420DA6E840EDF6E2D0E3424036E9C
:104FB400000E3520046E000E0324D96E040E042066
:104FC400DA6EFF0EDF6E300E3424036E000E3520D1
:104FD400046E000E0324D96E040E0420DA6E910EC2
:104FE400DF6E2F0E3424056E000E3520066E000E83
:104FF4000524E16E040E0620E26EDFCFE7FF2E0EDD
:105004003424076E000E3520086E000E0724D96E76
:10501400040E0820DA6EE7CFDFFF17EF28F017EF52
:1050240028F017EF28F017EF28F0640E1D181E1053
:10503400D8A41FEF28F021EF28F02FEF28F0000E5E
:10504400206E010E1F6E000E1E6E000E1D6E36C009
:1050540028F037C029F02FEF28F01D4A1E2A1F041C
:105064002010D8A438EF28F03AEF28F04FEF29F0B9
:10507400000E3624D96E040E3720DA6EDF50D8A421
:1050840046EF28F048EF28F0D6EF28F0030E362438
:10509400036E000E3720046E000E0324D96E040E36
:1050A4000420DA6EDF50D8A45AEF28F05CEF28F021
:1050B400D6EF28F0020E3624036E000E3720046E5D
:1050C400000E0324D96E040E0420DA6EDF50D8A437
:1050D4006EEF28F070EF28F0D6EF28F0010E36249A
:1050E400036E000E3720046E000E0324D96E040EE6
:1050F4000420DA6EDF50D8A482EF28F084EF28F081
:10510400D6EF28F0FF0E036EFF0E046E36C005F0D6
:1051140037C006F00350052604500622000E05246D
:10512400D96E040E0620DA6EDF50D8A49CEF28F066
:105134009EEF28F0D6EF28F0FE0E036EFF0E046EED
:1051440036C005F037C006F0035005260450062289
:10515400000E0524D96E040E0620DA6EDF50D8A4A2
:10516400B6EF28F0B8EF28F0D6EF28F0FD0E036E66
:10517400FF0E046E36C005F037C006F00350052656
:1051840004500622000E0524D96E040E0620DA6EA1
:10519400DF50D8A4D0EF28F0D2EF28F0D6EF28F0D3
:1051A4001FEF29F01FEF29F0800E2824036E000E54
:1051B4002920046E000E0324D96E040E0420DA6E36
:1051C400FF0EDF6E810E2824036E000E2920046E6C
:1051D400000E0324D96E040E0420DA6EFF0EDF6E77
:1051E40013041410D8A4F9EF28F0FBEF28F013EF00
:1051F40029F0000E2824D96E040E2920DA6E000E40
:10520400DF6E010E2824036E000E2920046E000EAA
:105214000324D96E040E0420DA6E000EDF6E13EF41
:1052240029F0000E146E010E136E800E2824286ED1
:10523400000E2920296E1FEF29F029BE2BEF29F03B
:10524400810E285C030E2958D8A02BEF29F02DEFEE
:1052540029F04FEF29F0000E2824D96E040E2920DE
:10526400DA6E000EDF6E010E2824036E000E292074
:10527400046E000E0324D96E040E0420DA6E000EB0
:10528400DF6E000E206E000E1F6E000E146E000EF8
:10529400136E4FEF29F04FEF29F081AC54EF29F052
:1052A40056EF29F060EF29F0000E1C6E010E1B6E04
:1052B40032C02AF033C02BF060EF29F01B041C101D
:1052C400D8A467EF29F069EF29F0B4EF30F02BBED2
:1052D40077EF29F02B5007E1810E2A5CD8B075EFE7
:1052E40029F077EF29F0A9EF29F0000E2A24D96ECE
:1052F400040E2B20DA6E000EDF6E010E2A24036EDC
:10530400000E2B20046E000E0324D96E040E04201C
:10531400DA6E000EDF6EFF0E036EFF0E046E2AC0FF
:1053240005F02BC006F00350052604500622000E9B
:105334000524D96E040E0620DA6E000EDF6E000E10
:105344001C6E000E1B6E000E226E000E216E800E6F
:10535400036EFF0E046E2AC005F02BC006F0035046
:10536400052604500622000E0524D96E040E0620DC
:10537400DA6EDF50D8A4C1EF29F0C3EF29F035EF7E
:105384002AF07F0E036EFF0E046E2AC005F02BC0B8
:1053940006F00350052604500622000E0524D96E9B
:1053A400040E0620DA6EDF50D8A4DBEF29F0DDEF1F
:1053B40029F035EF2AF0810E036EFF0E046E2AC029
:1053C40005F02BC006F00350052604500622000EFB
:1053D4000524D96E040E0620DA6EDF50D8A4F5EF4A
:1053E40029F0F7EF29F035EF2AF0800E036EFF0E57
:1053F400046E2AC005F02BC006F0035005260450A5
:105404000622000E0524D96E040E0620DA6EFF0E65
:10541400DF6E7F0E036EFF0E046E2AC005F02BC0F4
:1054240006F00350052604500622000E0524D96E0A
:10543400040E0620DA6EFF0EDF6E810E036EFF0E81
:10544400046E2AC005F02BC006F003500526045054
:105454000622000E0524D96E040E0620DA6EFF0E15
:10546400DF6E27EF30F0800E036EFF0E046E2AC04D
:1054740005F02BC006F00350052604500622000E4A
:105484000524D96E040E0620DA6EDE28D8A44DEF6A
:105494002AF04FEF2AF0EBEF2AF07F0E036EFF0E97
:1054A400046E2AC005F02BC006F0035005260450F4
:1054B4000622000E0524D96E040E0620DA6EDE28BC
:1054C400D8A467EF2AF069EF2AF0EBEF2AF0810EF7
:1054D400036EFF0E046E2AC005F02BC006F00350C5
:1054E400052604500622000E0524D96E040E06205B
:1054F400DA6EDE28D8A481EF2AF083EF2AF0EBEFEE
:105504002AF0800E036EFF0E046E2AC005F02BC035
:1055140006F00350052604500622000E0524D96E19
:10552400040E0620DA6E000EDF6E7F0E036EFF0E91
:10553400046E2AC005F02BC006F003500526045063
:105544000622000E0524D96E040E0620DA6E000E23
:10555400DF6E810E036EFF0E046E2AC005F02BC0B1
:1055640006F00350052604500622000E0524D96EC9
:10557400040E0620DA6E000EDF6E000E2A24D96EA9
:10558400040E2B20DA6E000EDF6E010E2A24036E49
:10559400000E2B20046E000E0324D96E040E04208A
:1055A400DA6E000EDF6EFF0E036EFF0E046E2AC06D
:1055B40005F02BC006F00350052604500622000E09
:1055C4000524D96E040E0620DA6E000EDF6E27EF76
:1055D40030F0800E036EFF0E046E2AC005F02BC05F
:1055E40006F00350052604500622030E2C24076EF1
:1055F400000E2D20086E0550075C0850800A096EC5
:105604000650800A0958D8A00AEF2BF00CEF2BF0B3
:1056140035EF2BF0FD0E036EFF0E046E2CC005F06B
:105624002DC006F00350052604500622800E076E96
:10563400FF0E086E2AC009F02BC00AF00750092695
:1056440008500A220550095C0A50800A0B6E065065
:10565400800A0B58D8B031EF2BF033EF2BF0C9EFA1
:105664002BF035EF2BF0810E036EFF0E046E2AC073
:1056740005F02BC006F00350052604500622030E45
:105684002C24076E000E2D20086E0550075C085070
:10569400800A096E0650800A0958D8A054EF2BF0EE
:1056A40056EF2BF07FEF2BF0FD0E036EFF0E046E12
:1056B4002CC005F02DC006F0035005260450062228
:1056C400810E076EFF0E086E2AC009F02BC00AF087
:1056D4000750092608500A220550095C0A50800A1E
:1056E4000B6E0650800A0B58D8B07BEF2BF07DEF81
:1056F4002BF0C9EF2BF07FEF2BF07F0E036EFF0E24
:10570400046E2AC005F02BC006F003500526045091
:105714000622030E2C24076E000E2D20086E055061
:10572400075C0850800A096E0650800A0958D8A000
:105734009EEF2BF0A0EF2BF039EF2CF0FD0E036E53
:10574400FF0E046E2CC005F02DC006F00350052694
:10575400045006227F0E076EFF0E086E2AC009F061
:105764002BC00AF00750092608500A220550095C8C
:105774000A50800A0B6E0650800A0B58D8A0C5EF59
:105784002BF0C7EF2BF039EF2CF0C9EF2BF0000E04
:105794002C24D96E040E2D20DA6E000EDF6E010E5D
:1057A4002C24036E000E2D20046E000E0324D96EEB
:1057B400040E0420DA6E000EDF6E020E2C24036E3B
:1057C400000E2D20046E000E0324D96E040E042056
:1057D400DA6E000EDF6E030E2C24036E000E2D20F5
:1057E400046E000E0324D96E040E0420DA6E000E3B
:1057F400DF6EFF0E036EFF0E046E2CC005F02DC08D
:1058040006F00350052604500622000E0524D96E26
:10581400040E0620DA6E000EDF6EFE0E036EFF0E1F
:10582400046E2CC005F02DC006F00350052604506C
:105834000622000E0524D96E040E0620DA6E000E30
:10584400DF6EFD0E036EFF0E046E2CC005F02DC03E
:1058540006F00350052604500622000E0524D96ED6
:10586400040E0620DA6E000EDF6E39EF2CF0800E87
:10587400036EFF0E046E2AC005F02BC006F0035021
:10588400052604500622030E3624076E000E372028
:10589400086E0550075C0850800A096E0650800A9D
:1058A4000958D8A058EF2CF05AEF2CF083EF2CF0C5
:1058B400FD0E036EFF0E046E36C005F037C006F011
:1058C4000350052604500622800E076EFF0E086E54
:1058D4002AC009F02BC00AF00750092608500A22F2
:1058E4000550095C0A50800A0B6E0650800A0B585A
:1058F400D8B07FEF2CF081EF2CF017EF2DF083EF71
:105904002CF0810E036EFF0E046E2AC005F02BC02E
:1059140006F00350052604500622030E3624076EB3
:10592400000E3720086E0550075C0850800A096E87
:105934000650800A0958D8A0A2EF2CF0A4EF2CF04E
:10594400CDEF2CF0FD0E036EFF0E046E36C005F095
:1059540037C006F00350052604500622810E076E58
:10596400FF0E086E2AC009F02BC00AF00750092662
:1059740008500A220550095C0A50800A0B6E065032
:10598400800A0B58D8B0C9EF2CF0CBEF2CF017EFEE
:105994002DF0CDEF2CF07F0E036EFF0E046E2AC0A7
:1059A40005F02BC006F00350052604500622030E12
:1059B4003624076E000E3720086E0550075C085029
:1059C400800A096E0650800A0958D8A0ECEF2CF022
:1059D400EEEF2CF087EF2DF0FD0E036EFF0E046E3C
:1059E40036C005F037C006F00350052604500622E1
:1059F4007F0E076EFF0E086E2AC009F02BC00AF056
:105A04000750092608500A220550095C0A50800AEA
:105A14000B6E0650800A0B58D8A013EF2DF015EF2B
:105A24002DF087EF2DF017EF2DF0000E3624D96EF0
:105A3400040E3720DA6E000EDF6E010E3624036E7C
:105A4400000E3720046E000E0324D96E040E0420C9
:105A5400DA6E000EDF6E020E3624036E000E37205F
:105A6400046E000E0324D96E040E0420DA6E000EB8
:105A7400DF6E030E3624036E000E3720046E000E14
:105A84000324D96E040E0420DA6E000EDF6EFF0EBE
:105A9400036EFF0E046E36C005F037C006F00350E7
:105AA400052604500622000E0524D96E040E062095
:105AB400DA6E000EDF6EFE0E036EFF0E046E36C04D
:105AC40005F037C006F00350052604500622000EE8
:105AD4000524D96E040E0620DA6E000EDF6EFD0E6C
:105AE400036EFF0E046E36C005F037C006F0035097
:105AF400052604500622000E0524D96E040E062045
:105B0400DA6E000EDF6E87EF2DF0800E036EFF0E4F
:105B1400046E2AC005F02BC006F00350052604507D
:105B24000622030E2E24076E000E2F20086E055049
:105B3400075C0850800A096E0650800A0958D8A0EC
:105B4400A6EF2DF0A8EF2DF0D1EF2DF0FD0E036E92
:105B5400FF0E046E2EC005F02FC006F0035005267C
:105B640004500622800E076EFF0E086E2AC009F04C
:105B74002BC00AF00750092608500A220550095C78
:105B84000A50800A0B6E0650800A0B58D8B0CDEF2D
:105B94002DF0CFEF2DF065EF2EF0D1EF2DF0810E2B
:105BA400036EFF0E046E2AC005F02BC006F00350EE
:105BB400052604500622030E2E24076E000E2F2005
:105BC400086E0550075C0850800A096E0650800A6A
:105BD4000958D8A0F0EF2DF0F2EF2DF01BEF2EF0C6
:105BE400FD0E036EFF0E046E2EC005F02FC006F0EE
:105BF4000350052604500622810E076EFF0E086E20
:105C04002AC009F02BC00AF00750092608500A22BE
:105C14000550095C0A50800A0B6E0650800A0B5826
:105C2400D8B017EF2EF019EF2EF065EF2EF01BEF22
:105C34002EF07F0E036EFF0E046E2AC005F02BC0FB
:105C440006F00350052604500622030E2E24076E88
:105C5400000E2F20086E0550075C0850800A096E5C
:105C64000650800A0958D8A03AEF2EF03CEF2EF0E7
:105C7400D5EF2EF0FD0E036EFF0E046E2EC005F060
:105C84002FC006F003500526045006227F0E076E2F
:105C9400FF0E086E2AC009F02BC00AF0075009262F
:105CA40008500A220550095C0A50800A0B6E0650FF
:105CB400800A0B58D8A061EF2EF063EF2EF0D5EFD9
:105CC4002EF065EF2EF0000E2E24D96E040E2F2038
:105CD400DA6E000EDF6E010E2E24036E000E2F20EE
:105CE400046E000E0324D96E040E0420DA6E000E36
:105CF400DF6E020E2E24036E000E2F20046E000EA3
:105D04000324D96E040E0420DA6E000EDF6E030E37
:105D14002E24036E000E2F20046E000E0324D96E71
:105D2400040E0420DA6E000EDF6EFF0E036EFF0E0B
:105D3400046E2EC005F02FC006F003500526045053
:105D44000622000E0524D96E040E0620DA6E000E1B
:105D5400DF6EFE0E036EFF0E046E2EC005F02FC024
:105D640006F00350052604500622000E0524D96EC1
:105D7400040E0620DA6E000EDF6EFD0E036EFF0EBB
:105D8400046E2EC005F02FC006F003500526045003
:105D94000622000E0524D96E040E0620DA6E000ECB
:105DA400DF6ED5EF2EF0800E036EFF0E046E2AC058
:105DB40005F02BC006F00350052604500622030EFE
:105DC4003024076E000E3120086E0550075C085021
:105DD400800A096E0650800A0958D8A0F4EF2EF004
:105DE400F6EF2EF01FEF2FF0FD0E036EFF0E046E84
:105DF40030C005F031C006F00350052604500622D9
:105E0400800E076EFF0E086E2AC009F02BC00AF040
:105E14000750092608500A220550095C0A50800AD6
:105E24000B6E0650800A0B58D8B01BEF2FF01DEFF5
:105E34002FF0B3EF2FF01FEF2FF0810E036EFF0E44
:105E4400046E2AC005F02BC006F00350052604504A
:105E54000622030E3024076E000E3120086E055012
:105E6400075C0850800A096E0650800A0958D8A0B9
:105E74003EEF2FF040EF2FF069EF2FF0FD0E036E91
:105E8400FF0E046E30C005F031C006F00350052645
:105E940004500622810E076EFF0E086E2AC009F018
:105EA4002BC00AF00750092608500A220550095C45
:105EB4000A50800A0B6E0650800A0B58D8B065EF62
:105EC4002FF067EF2FF0B3EF2FF069EF2FF07F0E75
:105ED400036EFF0E046E2AC005F02BC006F00350BB
:105EE400052604500622030E3024076E000E3120CE
:105EF400086E0550075C0850800A096E0650800A37
:105F04000958D8A088EF2FF08AEF2FF027EF30F050
:105F1400FD0E036EFF0E046E30C005F031C006F0B6
:105F240003500526045006227F0E076EFF0E086EEE
:105F34002AC009F02BC00AF00750092608500A228B
:105F44000550095C0A50800A0B6E0650800A0B58F3
:105F5400D8A0AFEF2FF0B1EF2FF027EF30F0B3EF71
:105F64002FF0000E3024D96E040E3120DA6E000EAC
:105F7400DF6E010E3024036E000E3120046E000E1D
:105F84000324D96E040E0420DA6E000EDF6E020EB6
:105F94003024036E000E3120046E000E0324D96EEB
:105FA400040E0420DA6E000EDF6E030E3024036E3E
:105FB400000E3120046E000E0324D96E040E04205A
:105FC400DA6E000EDF6EFF0E036EFF0E046E30C03D
:105FD40005F031C006F00350052604500622000ED9
:105FE4000524D96E040E0620DA6E000EDF6EFE0E56
:105FF400036EFF0E046E30C005F031C006F003508E
:10600400052604500622000E0524D96E040E06202F
:10601400DA6E000EDF6EFD0E036EFF0E046E30C0EE
:1060240005F031C006F00350052604500622000E88
:106034000524D96E040E0620DA6E000EDF6E27EFFB
:1060440030F027EF30F027EF30F021042210D8A4ED
:106054002EEF30F030EF30F05CEF30F0000E2A24F9
:10606400D96E040E2B20DA6E000EDF6E010E2A2488
:10607400036E000E2B20046E000E0324D96E040E52
:106084000420DA6E000EDF6EFF0E036EFF0E046E48
:106094002AC005F02BC006F0035005260450062242
:1060A400000E0524D96E040E0620DA6E000EDF6E93
:1060B4005CEF30F0000E226E010E216E800E2A2459
:1060C4002A6EFF0E2B202B6E000E3224D96E040E86
:1060D4003320DA6EFF0EDF6E010E3224036E000EE3
:1060E4003320046E000E0324D96E040E0420DA6EED
:1060F400FC0EDF6EFF0E056EFF0E066E32C007F05B
:1061040033C008F00550072606500822000E072465
:10611400E16E040E0820E26EDFCFE7FF020E3224A8
:10612400036E000E3320046E000E0324D96E040E99
:106134000420DA6EF00EDF6EFE0E056EFF0E066EA4
:1061440032C007F033C008F0055007260650082275
:10615400000E0724E16E040E0820E26EDFCFE7FF95
:10616400B4EF30F0000E3224D96E040E3320DA6E10
:10617400DF50D8B4C0EF30F0C2EF30F020EF31F090
:10618400FF0E036EFF0E046E32C005F033C006F03E
:106194000350052604500622000E0524D96E040E71
:1061A4000620DA6EDF50D8B4DAEF30F0DCEF30F0EE
:1061B40020EF31F0010E3224036E000E3320046E02
:1061C400000E0324D96E040E0420DA6EDF50D8B416
:1061D400EEEF30F0F0EF30F020EF31F0020E322429
:1061E400036E000E3320046E000E0324D96E040ED9
:1061F4000420DA6EDF50D8B402EF31F004EF31F04E
:1062040020EF31F0FE0E036EFF0E046E32C005F077
:1062140033C006F00350052604500622000E052460
:10622400D96E040E0620DA6EDF50D8A41CEF31F0CC
:106234001EEF31F0ACEF32F020EF31F0000E276E9C
:10624400000E266E27BE2EEF31F0040E275CD8A078
:106254002EEF31F030EF31F034EF31F04CEF31F01C
:106264004CEF31F0000E2624D96E040E2720DA6E8E
:10627400000EDF6E264A272A27BE48EF31F0040EAF
:10628400275CD8A048EF31F04AEF31F034EF31F019
:106294004CEF31F0070E3424036E000E3520046EEB
:1062A400000E0324D96E040E0420DA6EFF0EDF6E96
:1062B400090E3424036E000E3520046E000E0324F0
:1062C400D96E040E0420DA6E110EDF6E080E34242B
:1062D400056E000E3520066E000E0524E16E040ED8
:1062E4000620E26EDFCFE7FF0A0E3424036E000EB1
:1062F4003520046E000E0324D96E040E0420DA6ED9
:106304001F0EDF6E0E0E3424036E000E3520046E55
:10631400000E0324D96E040E0420DA6EFF0EDF6E25
:10632400110E3424036E000E3520046E000E032477
:10633400D96E040E0420DA6E910EDF6E100E342432
:10634400056E000E3520066E000E0524E16E040E67
:106354000620E26EDFCFE7FF0F0E3424076E000E37
:106364003520086E000E0724D96E040E0820DA6E5C
:10637400E7CFDFFF150E3424036E000E3520046EC4
:10638400000E0324D96E040E0420DA6EFF0EDF6EB5
:10639400160E3424036E000E3520046E000E032402
:1063A400D96E040E0420DA6E110EDF6E170E34243B
:1063B400036E000E3520046E000E0324D96E040E05
:1063C4000420DA6E310EDF6E180E3424036E000ED4
:1063D4003520046E000E0324D96E040E0420DA6EF8
:1063E4004A0EDF6E190E3424036E000E3520046E3F
:1063F400000E0324D96E040E0420DA6E840EDF6EC0
:106404001D0E3424036E000E3520046E000E03248A
:10641400D96E040E0420DA6EFF0EDF6E1E0E3424D5
:10642400036E000E3520046E000E0324D96E040E94
:106434000420DA6E420EDF6E1F0E3424036E000E4B
:106444003520046E000E0324D96E040E0420DA6E87
:10645400240EDF6E200E3424036E000E3520046EED
:10646400000E0324D96E040E0420DA6E180EDF6EBB
:106474002B0E3424036E000E3520046E000E03240C
:10648400D96E040E0420DA6E1F0EDF6E240E34243F
:10649400056E000E3520066E000E0524E16E040E16
:1064A4000620E26EDFCFE7FF2A0E3424036E000ECF
:1064B4003520046E000E0324D96E040E0420DA6E17
:1064C400200EDF6E250E3424056E000E3520066E78
:1064D400000E0524E16E040E0620E26EDFCFE7FF16
:1064E400290E3424036E000E3520046E000E03249E
:1064F400D96E040E0420DA6E400EDF6E260E3424AC
:10650400056E000E3520066E000E0524E16E040EA5
:106514000620E26EDFCFE7FF280E3424036E000E60
:106524003520046E000E0324D96E040E0420DA6EA6
:10653400800EDF6E270E3424056E000E3520066EA5
:10654400000E0524E16E040E0620E26EDFCFE7FFA5
:10655400ACEF32F084A0B1EF32F0B3EF32F065EF7C
:1065640033F033BEC1EF32F0FD0E325C030E33580C
:10657400D8B0BFEF32F0C1EF32F065EF33F0020E66
:106584003224036E000E3320046E000E0324D96EF1
:10659400040E0420DA6E030E3224056E000E33203E
:1065A400066E000E0524E16E040E0620E26EDFCFB7
:1065B400E7FF010E3224036E000E3320046E000E3A
:1065C4000324D96E040E0420DA6E020E3224056E02
:1065D400000E3320066E000E0524E16E040E062024
:1065E400E26EDFCFE7FF000E3224D96E040E3320B3
:1065F400DA6EFF0EDF6E010E3224036E000E3320BE
:10660400046E000E0324E16E040E0420E26EDFCF5C
:10661400E7FFFF0E036EFF0E046E32C005F033C0B9
:1066240006F00350052604500622000E0524D96EF8
:10663400040E0620DA6E000E3224E16E040E3320BE
:10664400E26EDFCFE7FFFE0E036EFF0E046E32C074
:1066540005F033C006F00350052604500622000E50
:106664000524D96E040E0620DA6EFF0E076EFF0EA7
:10667400086E32C009F033C00AF0075009260850EA
:106684000A22000E0924E16E040E0A20E26EDFCF16
:10669400E7FFFE0E036EFF0E046E32C005F033C03A
:1066A40006F00350052604500622000E0524D96E78
:1066B400040E0620DA6E000EDF6E324A332A65EFCE
:1066C40033F065EF33F084A26AEF33F06CEF33F00C
:1066D40025EF34F033BE78EF33F0810E325C030ED5
:1066E4003358D8A078EF33F07AEF33F025EF34F055
:1066F400FE0E036EFF0E046E32C005F033C006F0CA
:106704000350052604500622000E0524D96E040EFB
:106714000620DA6EFD0E076EFF0E086E32C009F019
:1067240033C00AF00750092608500A22000E092433
:10673400E16E040E0A20E26EDFCFE7FFFF0E036E68
:10674400FF0E046E32C005F033C006F00350052678
:1067540004500622000E0524D96E040E0620DA6EBB
:10676400FE0E076EFF0E086E32C009F033C00AF049
:106774000750092608500A22000E0924E16E040E6F
:106784000A20E26EDFCFE7FF000E3224D96E040E3A
:106794003320DA6EFF0EDF6EFF0E036EFF0E046E03
:1067A40032C005F033C006F003500526045006221B
:1067B400000E0524E16E040E0620E26EDFCFE7FF33
:1067C400010E3224036E000E3320046E000E0324E7
:1067D400D96E040E0420DA6E000E3224E16E040E2B
:1067E4003320E26EDFCFE7FF020E3224036E000E89
:1067F4003320046E000E0324D96E040E0420DA6ED6
:10680400010E3224056E000E3320066E000E0524A0
:10681400E16E040E0620E26EDFCFE7FF020E3224A3
:10682400036E000E3320046E000E0324D96E040E92
:106834000420DA6E000EDF6E3206D8A0330625EF90
:1068440034F025EF34F084A42AEF34F02CEF34F044
:10685400CFEF34F098EF34F098EF34F0000E322498
:10686400D96E040E3320DA6E010EDF6ECFEF34F0F2
:10687400000E3224D96E040E3320DA6E020EDF6E5F
:10688400CFEF34F0000E3224D96E040E3320DA6ECA
:10689400040EDF6ECFEF34F0000E3224D96E040EF6
:1068A4003320DA6E080EDF6ECFEF34F0000E3224A0
:1068B400D96E040E3320DA6E100EDF6ECFEF34F093
:1068C400000E3224D96E040E3320DA6E200EDF6EF1
:1068D400CFEF34F0000E3224D96E040E3320DA6E7A
:1068E400400EDF6ECFEF34F0000E3224D96E040E6A
:1068F4003320DA6E800EDF6E000E3224D96E040E61
:106904003320DA6E000EDF6E800E3224326E000EFB
:106914003320336E000E3224D96E040E3320DA6E27
:10692400010EDF6ECFEF34F0CFEF34F0000E3224DF
:10693400D96E040E3320DA6EDF50036E046A0450FD
:10694400000AD8B4A8EF34F0CFEF34F00350000AB3
:10695400D8B430EF34F0010AD8B43AEF34F0030A73
:10696400D8B444EF34F0060AD8B44EEF34F00C0A2D
:10697400D8B458EF34F0180AD8B462EF34F0300ABF
:10698400D8B46CEF34F0600AD8B476EF34F0C00AAF
:10699400D8B47EEF34F0CFEF34F081AED4EF34F0DE
:1069A400D6EF34F02CEF1BF042EF35F042EF35F028
:1069B400000E3224D96E040E3320DA6E800EDF6EA0
:1069C4002CEF1BF0000E3224D96E040E3320DA6E45
:1069D400400EDF6E2CEF1BF0000E3224D96E040E35
:1069E4003320DA6E200EDF6E2CEF1BF0000E322403
:1069F400D96E040E3320DA6E100EDF6E2CEF1BF00E
:106A0400000E3224D96E040E3320DA6E080EDF6EC7
:106A14002CEF1BF0000E3224D96E040E3320DA6EF4
:106A2400040EDF6E2CEF1BF0000E3224D96E040E20
:106A34003320DA6E020EDF6E2CEF1BF0000E3224D0
:106A4400D96E040E3320DA6E010EDF6E000E32248E
:106A5400D96E040E3320DA6E000EDF6E800E3224FF
:106A6400326EFF0E3320336E000E3224D96E040EC4
:106A74003320DA6E800EDF6E2CEF1BF02CEF1BF050
:106A8400000E3224D96E040E3320DA6EDF50036E0A
:106A9400046A0450000AD8B452EF35F02CEF1BF00E
:106AA4000350000AD8B4DAEF34F0010AD8B428EF5E
:106AB40035F0030AD8B420EF35F0060AD8B416EF3F
:106AC40035F00C0AD8B40CEF35F0180AD8B402EF3C
:106AD40035F0300AD8B4F8EF34F0600AD8B4EEEFE9
:106AE40034F0C00AD8B4E4EF34F02CEF1BF02CEFF0
:106AF4001BF02CEF1BF02CEF1BF012000000000029
:106B04000000000000000000000000000000000081
:106B14000000000000000000000000000000000071
:106B24000000000000000000000000000000000061
:106B34000000000000000000000000000000000051
:106B44000000000000000000000000000000000041
:106B54000000000000000000000000000000000031
:106B64000000000000000000000000000000000021
:106B74000000000000000000000000000000000011
:106B84000000000000000000000000000000000001
:106B940000000000000000000000000000000000F1
:106BA40000000000000000000000000000000000E1
:106BB40000000000000000000000000000000000D1
:106BC40000000000000000000000000000000000C1
:106BD40000000000000000000000000000000000B1
:106BE40000000000000000000000000000000000A1
:106BF4000000000000000000000000000000000091
:106C0400000000000000065F5F06000000000707A8
:106C14000007070000147F7F147F7F1400242E6B6D
:106C24006B3A120000466630180C666200307A4FE8
:106C34005D377A48000407030000000000001C3E92
:106C440063410000000041633E1C000000082A3E2E
:106C54001C1C3E2A0808083E3E080800000080E08C
:106C64006000000000080808080808000000006030
:106C740060000000006030180C060301003E7F71C4
:106C8400594D7F3E0040427F7F404000006273596F
:106C9400496F660000226349497F360000181C16BC
:106CA400537F7F5000276745457D3900003C7E4B6C
:106CB4004979300000030371790F070000367F49DA
:106CC400497F360000064F49693F1E0000000066F8
:106CD40066000000000080E66600000000081C3624
:106CE4006341000000242424242424000000416380
:106CF400361C080000020351590F0600003E7F4174
:106D04005D5D1F1E007C7E13137E7C0000417F7F2F
:106D140049497F36001C3E634141632200417F7F25
:106D240041633E1C00417F7F495D416300417F7F99
:106D3400491D0103001C3E6341517372007F7F08AB
:106D4400087F7F000000417F7F41000000307040D9
:106D5400417F3F0100417F7F081C776300417F7FB3
:106D640041406070007F7F0E1C0E7F7F007F7F0696
:106D74000C187F7F001C3E6341633E1C00417F7FF3
:106D840049090F06001E3F21717F5E0000417F7F8D
:106D940009197F6600266F4D597332000003417F45
:106DA4007F410300007F7F40407F7F00001F3F60E2
:106DB400603F1F00007F7F3018307F7F0043673CB7
:106DC400183C674300074F78784F0700004763710A
:106DD400594D677300007F7F4141000000010306A5
:106DE4000C183060000041417F7F000000080C0651
:106DF40003060C080080808080808080800000036F
:106E04000704000000207454543C784000417F3F44
:106E14004848783000387C44446C28000030784876
:106E2400493F7F4000387C54545C180000487E7F02
:106E3400490302000098BCA4A4F87C0400417F7FAD
:106E440008047C780000447D7D4000000060E08000
:106E540080FD7D0000417F7F10386C440000417F3D
:106E64007F400000007C7C18381C7C78007C7C040B
:106E7400047C780000387C44447C38000084FCF8AE
:106E8400A4243C1800183C24A4F8FC8400447C7816
:106E94004C041C1800485C54547424000000043E44
:106EA4007F442400003C7C40403C7C40001C3C600F
:106EB400603C1C00003C7C7038707C3C00446C38A6
:106EC40010386C44009CBCA0A0FC7C00004C647492
:106ED4005C4C64000008083E77414100000000005B
:106EE40077770000004141773E0808000002030163
:106EF400030203010070784C464C7870000E9F9199
:106F0400B1FB4A00003A7A40407A7A4000387C5417
:106F1400555D19000002237555557D7B422175543A
:106F2400547D794000217555547C78400020745775
:106F3400577C784000183CA4A4E4400000023B7D48
:106F440055555D1B02397D54545D190000397D553A
:106F5400545C18000001457C7C410100000203459B
:106F64007D7D43020001457D7C40000000797D1653
:106F740012167D790070782B2B78700000447C7C8D
:106F84005555450000207454547C7C54547C7E0B2D
:106F9400097F7F4900327B49497B320000327A48BD
:106FA400487A320000327A4A48783000003A7B410D
:106FB400417B7A40003A7A4240787840009ABAA0FD
:106FC400A0FA7A000001193C66663C19013D7D4037
:106FD400407D3D0000183C24E7E7242400687E7FC0
:106FE40049436620002B2FFCFC2F2B0000FFFF09D8
:106FF400092FF6F8A040C088FE7F090302207454CC
:10700400557D79400000447D7D4100000030784882
:107014004A7A320000387840427A7A40007A7A0A12
:107024000A7A7000007D7D19317D7D000000262FD5
:10703400292F2F280000262F292F26000030784DD5
:1070440045602000003838080808080000080808CF
:1070540008383800004F6F3018CCEEBB914F6F30BA
:10706400186C76FBF90000007B7B000000081C36DE
:1070740022081C362222361C0822361C08AA005577
:1070840000AA005500AA55AA55AA55AA55DDFFAA7B
:1070940077DDAAFF77000000FFFF0000001010104A
:1070A400FFFF000000141414FFFF0000001010FF85
:1070B400FF00FFFF001010F0F010F0F000141414A3
:1070C400FCFC0000001414F7F700FFFF000000FFB1
:1070D400FF00FFFF001414F4F404FCFC0014141764
:1070E40017101F1F0010101F1F101F1F001414144F
:1070F4001F1F000000101010F0F00000000000003E
:107104001F1F1010101010101F1F1010101010103F
:10711400F0F0101010000000FFFF101010101010FD
:107124001010101010101010FFFF101010000000AD
:10713400FFFF1414140000FFFF00FFFF1000001FE6
:107144001F101717140000FCFC04F4F41414141793
:1071540017101717141414F4F404F4F4140000FFB3
:10716400FF00F7F71414141414141414141414F75B
:10717400F700F7F714141414171714141410101F2D
:107184001F101F1F10141414F4F41414141010F00E
:10719400F010F0F01000001F1F101F1F100000005F
:1071A4001F1F141414000000FCFC1414140000F03D
:1071B400F010F0F0101010FFFF10FFFF1014141463
:1071C400FFFF1414141010101F1F00000000000013
:1071D400F0F0101010FFFFFFFFFFFFFFFFF0F0F0D3
:1071E400F0F0F0F0F0FFFFFFFF00000000000000EF
:1071F40000FFFFFFFF0F0F0F0F0F0F0F0F387C441F
:107204006C386C4400FCFE2A2A3E1400007E7E0288
:107214000206060000027E7E027E7E020063775D27
:107224004963630000387C447C3C04040080FE7E97
:1072340020203E1E000406027E7C06020099BDE763
:10724400E7BD9900001C3E6B496B3E1C004C7E73ED
:1072540001737E4C0030784A4F7D390000183C247D
:107264003C3C243C1898FC643C3E273D180000003C
:10727400000000000000000000000000000000000A
:1072840000000000000000000000000000000000FA
:1072940000000000000000000000000000000000EA
:1072A40000000000000000000000000000000000DA
:1072B40000000000000000000000000000000000CA
:1072C40000000000000000000000000000000000BA
:1072D40000000000000000000000000000000000AA
:1072E400000000000000000000000000000000009A
:1072F400000000000000000000000000000000008A
:107304000000000000000000000000000000000079
:107314000000000000000000000000000000000069
:107324000000000000000000000000000000000059
:10733400E0F0C8CCC4C2E2E2F2FEFEFEFCB0000003
:107344000000000000000000000000000000000039
:107354000000000000000000000000000000000029
:107364000000000000000000000000000000000019
:107374000000000000000000000000000000000009
:1073840000000000000000000000000000000000F9
:1073940000000000000000000000000000000000E9
:1073A4000000000000000000000000000000008356
:1073B400CF5F3F3F3F3F3F3F3F3F1F3F3F3F7F78D0
:1073C4008000000000000000000000000000000039
:1073D40000000000000000000000000000000000A9
:1073E4000000000000000000000000000000000099
:1073F4000000000000000000000000000000000089
:107404000000000000000000000000000000000078
:107414000000000000000000000000000000000068
:10742400000000000000000000000080C0884261ED
:10743400F042800008000060220008000000000004
:107444000103BC0080E0F0F8FCFCECF6F07838387E
:1074540018181808000000000000000000000000D8
:107464000000000000000000000000000000000018
:107474000000000000000000000000000000000008
:1074840000000000000000000000000000000000F8
:1074940000000000000000000000000000000000E8
:1074A400000000000000000000FC038382C6FAFA1A
:1074B400FCFCFAFFE20100000001000000000000F3
:1074C40000F00708FFFFFFFFFFFFFFDFCFCF8F0FA5
:1074D4000F0F0E1C18300000000000000000000018
:1074E4000000000000000000000000000000000098
:1074F4000000000000000000000000000000000088
:107504000000000000000000000000000000000077
:107514000000000000000000000000000000000067
:10752400000000000000608E01040F1F1F0F0F1FDA
:107534003F3F3F3F1F0300000000002000100008F1
:107544000808090A082B2B3337FF030303071F7F9F
:107554001000000000000000000000000000000017
:107564000000000000000000000000000000000017
:107574000000000000000000000000000000000007
:1075840000000000000000000000000000000000F7
:1075940000000000000000000000000000000000E7
:1075A4000000000000000007083060C080000000F8
:1075B4000000000000000000000040800000000007
:1075C40000008080C060341A050300000000000041
:1075D40000000000000000000000000000000000A7
:1075E4000000000000000000000000000000000097
:1075F4000000000000000000000000000000000087
:107604000000000000000000000000000000000076
:107614000000000000000000000000000000000066
:1076240000000000000000000000000000818286CD
:107634008C9C1428E8F8102040C0C0402011090593
:107644000505020100000000000000000000000029
:107654000000000000000000000000000000000026
:107664000000000000000000000000000000000016
:107674000000000000000000000000000000000006
:1076840000000000000000000000000000000000F6
:1076940000000000000000000000000000000000E6
:1076A40000000000000000000000000003020705C5
:1076B4000404050D0E1B3B6B476363263A12121C30
:1076C40000000000000000000000000000000000B6
:1076D40000000000000000000000000000000000A6
:1076E4000000000000000000000000000000000096
:1076F4000000000000000000000000000000000086
:107AF40000000000000000000000000000FFFFFF85
:107B0400FFFFFFFFFFFFFFFFFFFFFFFFFFFFFFFF81
:107B1400FFFFFFFFFFFFFFFFFFFFFFFFFFFFFFFF71
:107B2400FFFFFFFFFFFFFFFFFFFFFFFFFFFFFFFF61
:107B3400FFFFFFFFFFFFFFFFFFFFFFFFFFFFFFFF51
:107EE400FFFFFFFFFFFFFFFFFFFFFFFFFF0000009B
:107EF400000000000000000000000000000000007E
:107F0400005C000C000C7C287C7C447C24104828F9
:107F14005408000C0038440044380020100810387D
:107F24001080400010101000400020100838443821
:107F3400007C006454484454281C107C4C5424385D
:107F4400542004740C2854280854380050008050DD
:107F540000102844282828442810045408384C5C6D
:107F64007814787C54283844447C44387C54447CC9
:107F740014043844347C107C007C0020403C7C1089
:107F84006C7C40407C087C7C047C7C447C7C1408B5
:107F94003844787C1468485424047C047C407C3C39
:107FA400403C7C207C6C106C1C601C64544C7C44F5
:107FB40000081020447C0008040880808004080025
:107FC40044616E69656C2C4761627269656C00532B
:107FD4007061636520496E7661646572004C6574F6
:107FE400277320504C41590065742054686F6D61AB
:0B7FF40073004D61646520627900009D
:020000040020DA
:08000000FFFFFFFFFFFFFFFF00
:020000040030CA
:0E000000000C191EFF8381FF0FC00FE00F40A0
:00000001FF
