:020000040000FA
:0400000015EF11F0F7
:10222A0004EE00F014EE00F0EE6AE550E150FCE135
:10223A00E250FAE1516A506A4F6A4E6A000EF86E2D
:10224A0000010EEF13F00F0EC16E000EC26E000EEB
:10225A00926E000E936E9468000E956E000E966E46
:10226A00000E806E000E816E000E826E000E836E6E
:10227A00000E846E1200026E0250D8B447EF11F0BD
:10228A0049EF11F04DEF11F08A808A9251EF11F067
:10229A008A928A8251EF11F0000E956E8A9601C0D9
:1022AA008CFF8A8800D08A9800D08A908A9212007D
:1022BA0083EF11F00E50D8B465EF11F067EF11F00B
:1022CA0073EF11F00FC003F00CC0F6FF0DC0F7FF5B
:1022DA000800F55078EC12F07FEF11F00FC003F010
:1022EA000CC0F6FF0DC0F7FF0800F550A4EC13F080
:1022FA007FEF11F00C4A0D2A83EF11F00CC0F6FFA4
:10230A000DC0F7FF0800F5500009D8A48FEF11F0AF
:10231A0091EF11F05FEF11F093EF11F01200056EDB
:10232A00000E046E800E05609DEF11F09FEF11F014
:10233A00CBEF11F0070E0364A5EF11F0A7EF11F030
:10234A00ABEF11F0CBEF11F0CBEF11F005C051F06C
:10235A0003C050F03F0E0564B5EF11F0B7EF11F06E
:10236A00BDEF11F0400E055E010E046EBDEF11F0D7
:10237A008A9405504009016E045040EC11F0035054
:10238A00B809016E045040EC11F08A841200066EFE
:10239A00000E836E8A9A210EE82EFED700F08A8AF2
:1023AA008A988A908A928A9400D0C00E016E000E92
:1023BA0040EC11F0C00E016E010E40EC11F0400E1F
:1023CA00016E000E40EC11F0400E016E010E40EC61
:1023DA0011F0B80E016E000E40EC11F0B80E016E4D
:1023EA00010E40EC11F00604D8A4FEEF11F000EF44
:1023FA0012F00CEF12F03F0E016E000E40EC11F0DD
:10240A003F0E016E010E40EC11F018EF12F03E0E75
:10241A00016E000E40EC11F03E0E016E010E40EC12
:10242A0011F018EF12F0000E1CEC12F01200036EFD
:10243A00000E056E070E056425EF12F027EF12F065
:10244A002BEF12F077EF12F077EF12F08A94400E2A
:10245A00016E000E40EC11F0400E016E010E40ECD0
:10246A0011F00550B809016E000E40EC11F005504C
:10247A00B809016E010E40EC11F08A84000E046E58
:10248A003F0E04644BEF12F04DEF12F051EF12F0D1
:10249A006CEF12F06CEF12F00350010DF3500008CC
:1024AA00016E000E40EC11F00350010DF3500008CC
:1024BA00016E010E40EC11F0042A3F0E046468EF2D
:1024CA0012F06AEF12F051EF12F06CEF12F0052AD7
:1024DA00070E056473EF12F075EF12F02BEF12F08E
:1024EA0077EF12F01200086E000E0B6E0A0E081833
:1024FA00D8A482EF12F084EF12F08BEF12F0000EE4
:10250A00516E502A0DEF13F00DEF13F03F0E516488
:10251A0091EF12F093EF12F09AEF12F0010E0B6E98
:10252A005150C00F096E9EEF12F051C009F09EEF94
:10253A0012F00850080DF3CF06F0F4CF07F0000EA2
:10254A000A6E070E0A64ACEF12F0AEEF12F0B2EFA9
:10255A0012F00BEF13F00BEF13F03F0E0964B8EF14
:10256A0012F0BAEF12F0CEEF12F0400E095E010E31
:10257A000B6E8A9409504009016E0B5040EC11F021
:10258A005050B809016E0B5040EC11F08A84CEEF1E
:10259A0012F00350D8B4D4EF12F0D6EF12F0EAEFEB
:1025AA0012F00A500624046E000E0720056E010E72
:1025BA000424F66E6B0E0520F76E0800F5CF01F0C5
:1025CA000B5040EC11F0FFEF12F00A500624046E93
:1025DA00000E0720056E010E0424F66E6B0E052010
:1025EA00F76E0800F550FF0A016E0B5040EC11F02F
:1025FA00FFEF12F0092A0A2A070E0A6407EF13F0FE
:10260A0009EF13F0B2EF12F00BEF13F0080E512698
:10261A001200000E846E000E4B6E000E4A6E000E03
:10262A004D6E000E4C6E28EC11F0010ECCEC11F040
:10263A00010E036E0A0E94EC11F0D30E0C6E7F0E8F
:10264A000D6E010E0E6E010E0F6E5DEC11F0060E90
:10265A00496E130E486EAE0EE82EFED7482EFCD7F2
:10266A00492EFAD7030E036E1E0E94EC11F0F60EE5
:10267A000C6E7F0E0D6E010E0E6E010E0F6E5DEC6E
:10268A0011F0050E036E0A0E94EC11F0340E486E2A
:10269A00F20EE82EFED7482EFCD7C40E0C6E7F0E23
:1026AA000D6E010E0E6E010E0F6E5DEC11F0070E2F
:1026BA00036E1E0E94EC11F0EC0E0C6E7F0E0D6E76
:1026CA00010E0E6E010E0F6E5DEC11F0070E496ED3
:1026DA00170E486E6A0EE82EFED7482EFCD7492EF2
:1026EA00FAD700D0000ECCEC11F0010ECCEC11F0B0
:1026FA00040E036E140E94EC11F0E10E0C6E7F0EB4
:10270A000D6E010E0E6E010E0F6E5DEC11F0050ED0
:10271A00496E0F0E486EF10EE82EFED7482EFCD7F2
:10272A00492EFAD700F0000ECCEC11F0010ECCECD9
:10273A0011F046EC14F0A0EF13F000EF00F0076E72
:10274A00000E096E0A0E0718D8A4AEEF13F0B0EF08
:10275A0013F0B7EF13F0000E516E502A45EF14F044
:10276A0045EF14F03F0E5164BDEF13F0BFEF13F0C5
:10277A00C6EF13F0010E096E5150C00F066ECAEF74
:10278A0013F051C006F0CAEF13F0200E075E000ED8
:10279A00086E020E0864D4EF13F0D6EF13F0DAEFE6
:1027AA0013F043EF14F043EF14F03F0E0664E0EF2A
:1027BA0013F0E2EF13F0F6EF13F0400E065E010E8F
:1027CA00096E8A9406504009016E095040EC11F0D6
:1027DA005050B809016E095040EC11F08A84F6EFA6
:1027EA0013F00350D8B4FCEF13F0FEEF13F01AEF16
:1027FA0014F00750030D010E046E7F0E056EF350A0
:10280A000426F45005220850010DF3500426F45012
:10281A00052204C0F6FF05C0F7FF0800F5CF01F056
:10282A00095040EC11F037EF14F00750030D010E78
:10283A00046E7F0E056EF3500426F45005220850EC
:10284A00010DF3500426F450052204C0F6FF05C01A
:10285A00F7FF0800F550FF0A016E095040EC11F02D
:10286A0037EF14F0062A082A020E08643FEF14F024
:10287A0041EF14F0DAEF13F043EF14F0050E51268E
:10288A001200030E476EE80E466E000E3F6E050EEE
:10289A003E6E000E416EFC0E406E000E436E7B0EC5
:1028AA00426E000E456E850E446E000E2A6E000EB4
:1028BA00296E000E186E000E176E000E2D6E000E99
:1028CA002C6E000E1A6E000E196E000E1C6E000E93
:1028DA001B6E000E1E6E000E1D6E000E206E000E88
:1028EA001F6E000E146E000E136E010E3D6EA20EC8
:1028FA003C6E000E226E000E216E000E266E000E39
:10290A00256E000E376E000E366E000E396E000E02
:10291A00386E000E246E000E236E000E286E010E15
:10292A00276E000E346E010E336E000E2F6E010EEE
:10293A002E6E000E326E010E316E000E3E24D96EDE
:10294A00040E3F20DA6E3C0EDF6E010E3E24076E47
:10295A00000E3F20086E000E0724D96E040E0820D0
:10296A00DA6EB40EDF6EFF0E096EFF0E0A6E3EC0FF
:10297A000BF03FC00CF009500B260A500C22000E37
:10298A000B24E16E040E0C20E26EDFCFE7FF020E8D
:10299A003E24076E000E3F20086E000E0724D96EF3
:1029AA00040E0820DA6ECA0EDF6EFE0E096EFF0EE6
:1029BA000A6E3EC00BF03FC00CF009500B260A50BD
:1029CA000C22000E0B24E16E040E0C20E26EDFCF07
:1029DA00E7FF030E3E24076E000E3F20086E000E2E
:1029EA000724D96E040E0820DA6E190EDF6EFD0E6A
:1029FA00096EFF0E0A6E3EC00BF03FC00CF0095084
:102A0A000B260A500C22000E0B24E16E040E0C2039
:102A1A00E26EDFCFE7FF000E4024D96E040E41209C
:102A2A00DA6E3C0EDF6E010E4024076E000E412066
:102A3A00086E000E0724D96E040E0820DA6EB40E52
:102A4A00DF6EFF0E096EFF0E0A6E40C00BF041C02A
:102A5A000CF009500B260A500C22000E0B24E16ED2
:102A6A00040E0C20E26EDFCFE7FF020E4024076E51
:102A7A00000E4120086E000E0724D96E040E0820AD
:102A8A00DA6ECA0EDF6EFE0E096EFF0E0A6E40C0C7
:102A9A000BF041C00CF009500B260A500C22000E14
:102AAA000B24E16E040E0C20E26EDFCFE7FF030E6B
:102ABA004024076E000E4120086E000E0724D96ECE
:102ACA00040E0820DA6E190EDF6EFD0E096EFF0E77
:102ADA000A6E40C00BF041C00CF009500B260A5098
:102AEA000C22000E0B24E16E040E0C20E26EDFCFE6
:102AFA00E7FF000E4224D96E040E4320DA6E3C0E24
:102B0A00DF6E010E4224076E000E4320086E000E8F
:102B1A000724D96E040E0820DA6EB40EDF6EFF0E9B
:102B2A00096EFF0E0A6E42C00BF043C00CF009504A
:102B3A000B260A500C22000E0B24E16E040E0C2008
:102B4A00E26EDFCFE7FF020E4224076E000E43203B
:102B5A00086E000E0724D96E040E0820DA6ECA0E1B
:102B6A00DF6EFE0E096EFF0E0A6E42C00BF043C006
:102B7A000CF009500B260A500C22000E0B24E16EB1
:102B8A00040E0C20E26EDFCFE7FF030E4224076E2D
:102B9A00000E4320086E000E0724D96E040E08208A
:102BAA00DA6E190EDF6EFD0E096EFF0E0A6E42C056
:102BBA000BF043C00CF009500B260A500C22000EF1
:102BCA000B24E16E040E0C20E26EDFCFE7FF000E4D
:102BDA004424D96E040E4520DA6E3C0EDF6E010ED7
:102BEA004424076E000E4520086E000E0724D96E95
:102BFA00040E0820DA6EB40EDF6EFF0E096EFF0EA9
:102C0A000A6E44C00BF045C00CF009500B260A505E
:102C1A000C22000E0B24E16E040E0C20E26EDFCFB4
:102C2A00E7FF020E4424076E000E4520086E000ED0
:102C3A000724D96E040E0820DA6ECA0EDF6EFE0E65
:102C4A00096EFF0E0A6E44C00BF045C00CF0095025
:102C5A000B260A500C22000E0B24E16E040E0C20E7
:102C6A00E26EDFCFE7FF030E4424076E000E452015
:102C7A00086E000E0724D96E040E0820DA6E190EAB
:102C8A00DF6EFD0E096EFF0E0A6E44C00BF045C0E2
:102C9A000CF009500B260A500C22000E0B24E16E90
:102CAA00040E0C20E26EDFCFE7FF000E4624D96E39
:102CBA00040E4720DA6EFF0EDF6E010E4624076E01
:102CCA00000E4720086E000E0724D96E040E082055
:102CDA00DA6EFC0EDF6EFF0E096EFF0E0A6E46C03C
:102CEA000BF047C00CF009500B260A500C22000EBC
:102CFA000B24E16E040E0C20E26EDFCFE7FF020E1A
:102D0A004624076E000E4720086E000E0724D96E6F
:102D1A00040E0820DA6EF00EDF6EFE0E096EFF0E4C
:102D2A000A6E46C00BF047C00CF009500B260A5039
:102D3A000C22000E0B24E16E040E0C20E26EDFCF93
:102D4A00E7FFA8EF16F0000E166E000E156E000EC5
:102D5A00306E070E3064B4EF16F0B6EF16F0BAEF25
:102D6A0016F011EF17F011EF17F0000E356E010E85
:102D7A003564C2EF16F0C4EF16F0C8EF16F006EF8E
:102D8A0017F006EF17F08A94400E016E355040ECAA
:102D9A0011F03050B809016E355040EC11F08A84B8
:102DAA00000E2B6E3F0E2B64DDEF16F0DFEF16F0F0
:102DBA00E3EF16F0FBEF16F0FBEF16F0000E15240A
:102DCA00D96E040E1620DA6EDF50016E355040ECD3
:102DDA0011F0154A162A2B2A3F0E2B64F7EF16F02C
:102DEA00F9EF16F0E3EF16F0FBEF16F0352A010EB5
:102DFA00356402EF17F004EF17F0C8EF16F006EF8C
:102E0A0017F0302A070E30640DEF17F00FEF17F0A6
:102E1A00BAEF16F011EF17F04E044F10D8A418EFBE
:102E2A0017F01AEF17F01CEF17F01AEF17F08A9045
:102E3A008A9231503210D8B425EF17F027EF17F0E5
:102E4A0019EF19F0BD0E44184510D8A42FEF17F04A
:102E5A0031EF17F037EF17F0000E1E6E010E1D6EE0
:102E6A0037EF17F0840E44184510D8A43FEF17F037
:102E7A0041EF17F047EF17F0000E1E6E000E1D6EA1
:102E8A0047EF17F01D501E10D8A44EEF17F050EF61
:102E9A0017F030EF18F0030E4424076E000E452099
:102EAA00086E000E0724D96E040E0820DA6E040E8E
:102EBA004424096E000E45200A6E000E0924E16EB4
:102ECA00040E0A20E26EDFCFE7FF020E4424076EEB
:102EDA00000E4520086E000E0724D96E040E082045
:102EEA00DA6E030E4424096E000E45200A6E000EA7
:102EFA000924E16E040E0A20E26EDFCFE7FF010E1D
:102F0A004424076E000E4520086E000E0724D96E71
:102F1A00040E0820DA6E020E4424096E000E4520C3
:102F2A000A6E000E0924E16E040E0A20E26EDFCF5B
:102F3A00E7FF000E4424D96E040E4520DA6E010E16
:102F4A004424076E000E4520086E000E0724E16E29
:102F5A00040E0820E26EDFCFE7FFFF0E076EFF0EBA
:102F6A00086E44C009F045C00AF007500926085007
:102F7A000A22000E0924D96E040E0A20DA6E000E07
:102F8A004424E16E040E4520E26EDFCFE7FFFE0E19
:102F9A00076EFF0E086E44C009F045C00AF00750DC
:102FAA00092608500A22000E0924D96E040E0A20A6
:102FBA00DA6EFF0E0B6EFF0E0C6E44C00DF045C0AC
:102FCA000EF00B500D260C500E22000E0D24E16E51
:102FDA00040E0E20E26EDFCFE7FFFD0E076EFF0E36
:102FEA00086E44C009F045C00AF007500926085087
:102FFA000A22000E0924D96E040E0A20DA6EFE0E89
:10300A000B6EFF0E0C6E44C00DF045C00EF00B5057
:10301A000D260C500E22000E0D24E16E040E0E2019
:10302A00E26EDFCFE7FFFD0E076EFF0E086E44C0AB
:10303A0009F045C00AF00750092608500A22000E76
:10304A000924D96E040E0A20DA6E000EDF6E444A95
:10305A00452A19EF19F0FD0E076EFF0E086E44C0DF
:10306A0009F045C00AF00750092608500A22000E46
:10307A000924D96E040E0A20DA6EFC0E0B6EFF0EBE
:10308A000C6E44C00DF045C00EF00B500D260C50CE
:10309A000E22000E0D24E16E040E0E20E26EDFCF2A
:1030AA00E7FFFE0E076EFF0E086E44C009F045C02A
:1030BA000AF00750092608500A22000E0924D96E80
:1030CA00040E0A20DA6EFD0E0B6EFF0E0C6E44C063
:1030DA000DF045C00EF00B500D260C500E22000EBE
:1030EA000D24E16E040E0E20E26EDFCFE7FFFF0E25
:1030FA00076EFF0E086E44C009F045C00AF007507B
:10310A00092608500A22000E0924D96E040E0A2044
:10311A00DA6EFE0E0B6EFF0E0C6E44C00DF045C04B
:10312A000EF00B500D260C500E22000E0D24E16EEF
:10313A00040E0E20E26EDFCFE7FF000E4424D96EA4
:10314A00040E4520DA6EFF0E076EFF0E086E44C0AD
:10315A0009F045C00AF00750092608500A22000E55
:10316A000924E16E040E0A20E26EDFCFE7FF010EAA
:10317A004424076E000E4520086E000E0724D96EFF
:10318A00040E0820DA6E000E4424E16E040E452077
:10319A00E26EDFCFE7FF020E4424076E000E4520E1
:1031AA00086E000E0724D96E040E0820DA6E010E8E
:1031BA004424096E000E45200A6E000E0924E16EB1
:1031CA00040E0A20E26EDFCFE7FF030E4424076EE7
:1031DA00000E4520086E000E0724D96E040E082042
:1031EA00DA6E020E4424096E000E45200A6E000EA5
:1031FA000924E16E040E0A20E26EDFCFE7FF030E18
:10320A004424076E000E4520086E000E0724D96E6E
:10321A00040E0820DA6E000EDF6E4406D8A04506BA
:10322A0019EF19F019EF19F02E502F10D8B420EF1A
:10323A0019F022EF19F014EF1BF0440E4218431054
:10324A00D8A42AEF19F02CEF19F032EF19F0000E7A
:10325A001C6E010E1B6E32EF19F07C0E42184310E1
:10326A00D8A43AEF19F03CEF19F042EF19F0000E2A
:10327A001C6E000E1B6E42EF19F01B041C10D8A422
:10328A0049EF19F04BEF19F02BEF1AF0030E422415
:10329A00076E000E4320086E000E0724D96E040E36
:1032AA000820DA6E040E4224096E000E43200A6ECC
:1032BA00000E0924E16E040E0A20E26EDFCFE7FF5A
:1032CA00020E4224076E000E4320086E000E0724E9
:1032DA00D96E040E0820DA6E030E4224096E000E1F
:1032EA0043200A6E000E0924E16E040E0A20E26EE3
:1032FA00DFCFE7FF010E4224076E000E4320086E5F
:10330A00000E0724D96E040E0820DA6E020E42243B
:10331A00096E000E43200A6E000E0924E16E040EA7
:10332A000A20E26EDFCFE7FF000E4224D96E040EB8
:10333A004320DA6E010E4224076E000E4320086E07
:10334A00000E0724E16E040E0820E26EDFCFE7FFCD
:10335A00FF0E076EFF0E086E42C009F043C00AF066
:10336A000750092608500A22000E0924D96E040EB5
:10337A000A20DA6E000E4224E16E040E4320E26E49
:10338A00DFCFE7FFFE0E076EFF0E086E42C009F0A0
:10339A0043C00AF00750092608500A22000E0924E1
:1033AA00D96E040E0A20DA6EFF0E0B6EFF0E0C6E3B
:1033BA0042C00DF043C00EF00B500D260C500E22E9
:1033CA00000E0D24E16E040E0E20E26EDFCFE7FF41
:1033DA00FD0E076EFF0E086E42C009F043C00AF0E8
:1033EA000750092608500A22000E0924D96E040E35
:1033FA000A20DA6EFE0E0B6EFF0E0C6E42C00DF046
:10340A0043C00EF00B500D260C500E22000E0D2458
:10341A00E16E040E0E20E26EDFCFE7FFFD0E076EAF
:10342A00FF0E086E42C009F043C00AF00750092691
:10343A0008500A22000E0924D96E040E0A20DA6EF8
:10344A00000EDF6E424A432A14EF1BF0FD0E076E90
:10345A00FF0E086E42C009F043C00AF00750092661
:10346A0008500A22000E0924D96E040E0A20DA6EC8
:10347A00FC0E0B6EFF0E0C6E42C00DF043C00EF038
:10348A000B500D260C500E22000E0D24E16E040E78
:10349A000E20E26EDFCFE7FFFE0E076EFF0E086E0C
:1034AA0042C009F043C00AF00750092608500A2210
:1034BA00000E0924D96E040E0A20DA6EFD0E0B6E78
:1034CA00FF0E0C6E42C00DF043C00EF00B500D26DD
:1034DA000C500E22000E0D24E16E040E0E20E26E38
:1034EA00DFCFE7FFFF0E076EFF0E086E42C009F03E
:1034FA0043C00AF00750092608500A22000E092480
:10350A00D96E040E0A20DA6EFE0E0B6EFF0E0C6EDA
:10351A0042C00DF043C00EF00B500D260C500E2287
:10352A00000E0D24E16E040E0E20E26EDFCFE7FFDF
:10353A00000E4224D96E040E4320DA6EFF0E076E87
:10354A00FF0E086E42C009F043C00AF00750092670
:10355A0008500A22000E0924E16E040E0A20E26EC7
:10356A00DFCFE7FF010E4224076E000E4320086EEC
:10357A00000E0724D96E040E0820DA6E000E4224CB
:10358A00E16E040E4320E26EDFCFE7FF020E422413
:10359A00076E000E4320086E000E0724D96E040E33
:1035AA000820DA6E010E4224096E000E43200A6ECC
:1035BA00000E0924E16E040E0A20E26EDFCFE7FF57
:1035CA00030E4224076E000E4320086E000E0724E5
:1035DA00D96E040E0820DA6E020E4224096E000E1D
:1035EA0043200A6E000E0924E16E040E0A20E26EE0
:1035FA00DFCFE7FF030E4224076E000E4320086E5A
:10360A00000E0724D96E040E0820DA6E000EDF6E53
:10361A004206D8A0430614EF1BF014EF1BF03350F8
:10362A003410D8B41BEF1BF01DEF1BF00FEF1DF089
:10363A00C00E40184110D8A425EF1BF027EF1BF04D
:10364A002DEF1BF0000E1A6E010E196E2DEF1BF0F6
:10365A00FC0E40184110D8A435EF1BF037EF1BF0D1
:10366A003DEF1BF0000E1A6E000E196E3DEF1BF0B7
:10367A0019041A10D8A444EF1BF046EF1BF026EFEA
:10368A001CF0030E4024076E000E4120086E000E47
:10369A000724D96E040E0820DA6E040E4024096E3F
:1036AA00000E41200A6E000E0924E16E040E0A2063
:1036BA00E26EDFCFE7FF020E4024076E000E4120C4
:1036CA00086E000E0724D96E040E0820DA6E030E67
:1036DA004024096E000E41200A6E000E0924E16E94
:1036EA00040E0A20E26EDFCFE7FF010E4024076EC8
:1036FA00000E4120086E000E0724D96E040E082021
:10370A00DA6E020E4024096E000E41200A6E000E87
:10371A000924E16E040E0A20E26EDFCFE7FF000EF5
:10372A004024D96E040E4120DA6E010E4024076E41
:10373A00000E4120086E000E0724E16E040E0820D8
:10374A00E26EDFCFE7FFFF0E076EFF0E086E40C086
:10375A0009F041C00AF00750092608500A22000E53
:10376A000924D96E040E0A20DA6E000E4024E16E96
:10377A00040E4120E26EDFCFE7FFFE0E076EFF0E5A
:10378A00086E40C009F041C00AF0075009260850E7
:10379A000A22000E0924D96E040E0A20DA6EFF0EE0
:1037AA000B6EFF0E0C6E40C00DF041C00EF00B50B8
:1037BA000D260C500E22000E0D24E16E040E0E2072
:1037CA00E26EDFCFE7FFFD0E076EFF0E086E40C008
:1037DA0009F041C00AF00750092608500A22000ED3
:1037EA000924D96E040E0A20DA6EFE0E0B6EFF0E45
:1037FA000C6E40C00DF041C00EF00B500D260C505F
:10380A000E22000E0D24E16E040E0E20E26EDFCFB2
:10381A00E7FFFD0E076EFF0E086E40C009F041C0BB
:10382A000AF00750092608500A22000E0924D96E08
:10383A00040E0A20DA6E000EDF6E404A412A0FEFAC
:10384A001DF0FD0E076EFF0E086E40C009F041C064
:10385A000AF00750092608500A22000E0924D96ED8
:10386A00040E0A20DA6EFC0E0B6EFF0E0C6E40C0C0
:10387A000DF041C00EF00B500D260C500E22000E1A
:10388A000D24E16E040E0E20E26EDFCFE7FFFE0E7E
:10389A00076EFF0E086E40C009F041C00AF00750DB
:1038AA00092608500A22000E0924D96E040E0A209D
:1038BA00DA6EFD0E0B6EFF0E0C6E40C00DF041C0AD
:1038CA000EF00B500D260C500E22000E0D24E16E48
:1038DA00040E0E20E26EDFCFE7FFFF0E076EFF0E2B
:1038EA00086E40C009F041C00AF007500926085086
:1038FA000A22000E0924D96E040E0A20DA6EFE0E80
:10390A000B6EFF0E0C6E40C00DF041C00EF00B5056
:10391A000D260C500E22000E0D24E16E040E0E2010
:10392A00E26EDFCFE7FF000E4024D96E040E41207D
:10393A00DA6EFF0E076EFF0E086E40C009F041C036
:10394A000AF00750092608500A22000E0924E16EDF
:10395A00040E0A20E26EDFCFE7FF010E4024076E55
:10396A00000E4120086E000E0724D96E040E0820AE
:10397A00DA6E000E4024E16E040E4120E26EDFCFC3
:10398A00E7FF020E4024076E000E4120086E000E6B
:10399A000724D96E040E0820DA6E010E4024096E3F
:1039AA00000E41200A6E000E0924E16E040E0A2060
:1039BA00E26EDFCFE7FF030E4024076E000E4120C0
:1039CA00086E000E0724D96E040E0820DA6E020E65
:1039DA004024096E000E41200A6E000E0924E16E91
:1039EA00040E0A20E26EDFCFE7FF030E4024076EC3
:1039FA00000E4120086E000E0724D96E040E08201E
:103A0A00DA6E000EDF6E4006D8A041060FEF1DF0F9
:103A1A000FEF1DF027502810D8B416EF1DF018EF3D
:103A2A001DF00AEF1FF0400E3E183F10D8A420EFF9
:103A3A001DF022EF1DF028EF1DF0000E186E010E8A
:103A4A00176E28EF1DF0040E3E183F10D8A430EF71
:103A5A001DF032EF1DF038EF1DF0000E186E000E4B
:103A6A00176E38EF1DF017501810D8A43FEF1DF04D
:103A7A0041EF1DF021EF1EF0030E3E24076E000EEB
:103A8A003F20086E000E0724D96E040E0820DA6E55
:103A9A00040E3E24096E000E3F200A6E000E092411
:103AAA00E16E040E0A20E26EDFCFE7FF020E3E242B
:103ABA00076E000E3F20086E000E0724D96E040E12
:103ACA000820DA6E030E3E24096E000E3F200A6EAD
:103ADA00000E0924E16E040E0A20E26EDFCFE7FF32
:103AEA00010E3E24076E000E3F20086E000E0724CA
:103AFA00D96E040E0820DA6E020E3E24096E000EFC
:103B0A003F200A6E000E0924E16E040E0A20E26EBE
:103B1A00DFCFE7FF000E3E24D96E040E3F20DA6E97
:103B2A00010E3E24076E000E3F20086E000E072489
:103B3A00E16E040E0820E26EDFCFE7FFFF0E076E8C
:103B4A00FF0E086E3EC009F03FC00AF00750092672
:103B5A0008500A22000E0924D96E040E0A20DA6ED1
:103B6A00000E3E24E16E040E3F20E26EDFCFE7FF37
:103B7A00FE0E076EFF0E086E3EC009F03FC00AF047
:103B8A000750092608500A22000E0924D96E040E8D
:103B9A000A20DA6EFF0E0B6EFF0E0C6E3EC00DF0A1
:103BAA003FC00EF00B500D260C500E22000E0D24B5
:103BBA00E16E040E0E20E26EDFCFE7FFFD0E076E08
:103BCA00FF0E086E3EC009F03FC00AF007500926F2
:103BDA0008500A22000E0924D96E040E0A20DA6E51
:103BEA00FE0E0B6EFF0E0C6E3EC00DF03FC00EF0C7
:103BFA000B500D260C500E22000E0D24E16E040E01
:103C0A000E20E26EDFCFE7FFFD0E076EFF0E086E95
:103C1A003EC009F03FC00AF00750092608500A22A0
:103C2A00000E0924D96E040E0A20DA6E000EDF6E29
:103C3A003E4A3F2A0AEF1FF0FD0E076EFF0E086E7E
:103C4A003EC009F03FC00AF00750092608500A2270
:103C5A00000E0924D96E040E0A20DA6EFC0E0B6ED1
:103C6A00FF0E0C6E3EC00DF03FC00EF00B500D263D
:103C7A000C500E22000E0D24E16E040E0E20E26E90
:103C8A00DFCFE7FFFE0E076EFF0E086E3EC009F09B
:103C9A003FC00AF00750092608500A22000E0924DC
:103CAA00D96E040E0A20DA6EFD0E0B6EFF0E0C6E34
:103CBA003EC00DF03FC00EF00B500D260C500E22E8
:103CCA00000E0D24E16E040E0E20E26EDFCFE7FF38
:103CDA00FF0E076EFF0E086E3EC009F03FC00AF0E5
:103CEA000750092608500A22000E0924D96E040E2C
:103CFA000A20DA6EFE0E0B6EFF0E0C6E3EC00DF041
:103D0A003FC00EF00B500D260C500E22000E0D2453
:103D1A00E16E040E0E20E26EDFCFE7FF000E3E24B6
:103D2A00D96E040E3F20DA6EFF0E076EFF0E086E84
:103D3A003EC009F03FC00AF00750092608500A227F
:103D4A00000E0924E16E040E0A20E26EDFCFE7FFBF
:103D5A00010E3E24076E000E3F20086E000E072457
:103D6A00D96E040E0820DA6E000E3E24E16E040EAF
:103D7A003F20E26EDFCFE7FF020E3E24076E000E01
:103D8A003F20086E000E0724D96E040E0820DA6E52
:103D9A00010E3E24096E000E3F200A6E000E092411
:103DAA00E16E040E0A20E26EDFCFE7FF030E3E2427
:103DBA00076E000E3F20086E000E0724D96E040E0F
:103DCA000820DA6E020E3E24096E000E3F200A6EAB
:103DDA00000E0924E16E040E0A20E26EDFCFE7FF2F
:103DEA00030E3E24076E000E3F20086E000E0724C5
:103DFA00D96E040E0820DA6E000EDF6E3E06D8A0D9
:103E0A003F060AEF1FF00AEF1FF0000E3E24D96E9C
:103E1A00040E3F20DA6EDF50D8A416EF1FF018EF19
:103E2A001FF0DAEF25F0030E3E24076E000E3F2046
:103E3A00086E000E0724D96E040E0820DA6EDF50D1
:103E4A00D8A42AEF1FF02CEF1FF0DAEF25F0020EAC
:103E5A003E24076E000E3F20086E000E0724D96E1E
:103E6A00040E0820DA6EDF50D8A43EEF1FF040EFB0
:103E7A001FF0DAEF25F0010E3E24076E000E3F20F8
:103E8A00086E000E0724D96E040E0820DA6EDF5081
:103E9A00D8A452EF1FF054EF1FF0DAEF25F0FF0E0F
:103EAA00076EFF0E086E3EC009F03FC00AF00750C9
:103EBA00092608500A22000E0924D96E040E0A2087
:103ECA00DA6EDF50D8A46CEF1FF06EEF1FF0DAEF56
:103EDA0025F0FE0E076EFF0E086E3EC009F03FC0C9
:103EEA000AF00750092608500A22000E0924D96E42
:103EFA00040E0A20DA6EDF50D8A486EF1FF088EF8E
:103F0A001FF0DAEF25F0FD0E076EFF0E086E3EC0B9
:103F1A0009F03FC00AF00750092608500A22000E8D
:103F2A000924D96E040E0A20DA6EDF50D8A4A0EF55
:103F3A001FF0A2EF1FF0DAEF25F0000E4024D96E31
:103F4A00040E4120DA6EDF50D8A4AEEF1FF0B0EFB6
:103F5A001FF0DAEF25F0030E4024076E000E412011
:103F6A00086E000E0724D96E040E0820DA6EDF50A0
:103F7A00D8A4C2EF1FF0C4EF1FF0DAEF25F0020E4B
:103F8A004024076E000E4120086E000E0724D96EE9
:103F9A00040E0820DA6EDF50D8A4D6EF1FF0D8EF4F
:103FAA001FF0DAEF25F0010E4024076E000E4120C3
:103FBA00086E000E0724D96E040E0820DA6EDF5050
:103FCA00D8A4EAEF1FF0ECEF1FF0DAEF25F0FF0EAE
:103FDA00076EFF0E086E40C009F041C00AF0075094
:103FEA00092608500A22000E0924D96E040E0A2056
:103FFA00DA6EDF50D8A404EF20F006EF20F0DAEFF3
:10400A0025F0FE0E076EFF0E086E40C009F041C093
:10401A000AF00750092608500A22000E0924D96E10
:10402A00040E0A20DA6EDF50D8A41EEF20F020EF2B
:10403A0020F0DAEF25F0FD0E076EFF0E086E40C085
:10404A0009F041C00AF00750092608500A22000E5A
:10405A000924D96E040E0A20DA6EDF50D8A438EF8C
:10406A0020F03AEF20F0DAEF25F0000E4224D96E64
:10407A00040E4320DA6EDF50D8A446EF20F048EF52
:10408A0020F0DAEF25F0030E4224076E000E4320DB
:10409A00086E000E0724D96E040E0820DA6EDF506F
:1040AA00D8A45AEF20F05CEF20F0DAEF25F0020EE8
:1040BA004224076E000E4320086E000E0724D96EB4
:1040CA00040E0820DA6EDF50D8A46EEF20F070EFED
:1040DA0020F0DAEF25F0010E4224076E000E43208D
:1040EA00086E000E0724D96E040E0820DA6EDF501F
:1040FA00D8A482EF20F084EF20F0DAEF25F0FF0E4B
:10410A00076EFF0E086E42C009F043C00AF007505E
:10411A00092608500A22000E0924D96E040E0A2024
:10412A00DA6EDF50D8A49CEF20F09EEF20F0DAEF91
:10413A0025F0FE0E076EFF0E086E42C009F043C05E
:10414A000AF00750092608500A22000E0924D96EDF
:10415A00040E0A20DA6EDF50D8A4B6EF20F0B8EFCA
:10416A0020F0DAEF25F0FD0E076EFF0E086E42C052
:10417A0009F043C00AF00750092608500A22000E27
:10418A000924D96E040E0A20DA6EDF50D8A4D0EFC3
:10419A0020F0D2EF20F0DAEF25F0000E4424D96E99
:1041AA00040E4520DA6EDF50D8A4DEEF20F0E0EFEF
:1041BA0020F0DAEF25F0030E4424076E000E4520A6
:1041CA00086E000E0724D96E040E0820DA6EDF503E
:1041DA00D8A4F2EF20F0F4EF20F0DAEF25F0020E87
:1041EA004424076E000E4520086E000E0724D96E7F
:1041FA00040E0820DA6EDF50D8A406EF21F008EF8B
:10420A0021F0DAEF25F0010E4424076E000E452056
:10421A00086E000E0724D96E040E0820DA6EDF50ED
:10422A00D8A41AEF21F01CEF21F0DAEF25F0FF0EE7
:10423A00076EFF0E086E44C009F045C00AF0075029
:10424A00092608500A22000E0924D96E040E0A20F3
:10425A00DA6EDF50D8A434EF21F036EF21F0DAEF2E
:10426A0025F0FE0E076EFF0E086E44C009F045C029
:10427A000AF00750092608500A22000E0924D96EAE
:10428A00040E0A20DA6EDF50D8A44EEF21F050EF68
:10429A0021F0DAEF25F0FD0E076EFF0E086E44C01E
:1042AA0009F045C00AF00750092608500A22000EF4
:1042BA000924D96E040E0A20DA6EDF50D8A468EFFA
:1042CA0021F06AEF21F0DAEF25F0000E2A6E010ED6
:1042DA00296E29042A10D8A475EF21F077EF21F06E
:1042EA00DAEF25F04E044F10D8B47EEF21F080EFBC
:1042FA0021F0DAEF25F0000E4F6E010E4E6E000E21
:10430A00CCEC11F0010ECCEC11F0000E4624D96E63
:10431A00040E4720DA6E000EDF6E010E4624076E89
:10432A00000E4720086E000E0724D96E040E0820DE
:10433A00DA6E000EDF6EFF0E096EFF0E0A6E46C0C1
:10434A000BF047C00CF009500B260A500C22000E45
:10435A000B24E16E040E0C20E26EDFCFE7FF020EA3
:10436A004624076E000E4720086E000E0724D96EF9
:10437A00040E0820DA6E000EDF6EFE0E096EFF0EC6
:10438A000A6E46C00BF047C00CF009500B260A50C3
:10439A000C22000E0B24E16E040E0C20E26EDFCF1D
:1043AA00E7FF000E3E24D96E040E3F20DA6E000E9F
:1043BA00DF6E010E3E24076E000E3F20086E000ECF
:1043CA000724D96E040E0820DA6E000EDF6E020E84
:1043DA003E24076E000E3F20086E000E0724D96E99
:1043EA00040E0820DA6E000EDF6E030E3E24076EFE
:1043FA00000E3F20086E000E0724D96E040E082016
:10440A00DA6E000EDF6EFF0E076EFF0E086E3EC0FC
:10441A0009F03FC00AF00750092608500A22000E88
:10442A000924D96E040E0A20DA6E000EDF6EFE0E23
:10443A00076EFF0E086E3EC009F03FC00AF0075033
:10444A00092608500A22000E0924D96E040E0A20F1
:10445A00DA6E000EDF6EFD0E076EFF0E086E3EC0AE
:10446A0009F03FC00AF00750092608500A22000E38
:10447A000924D96E040E0A20DA6E000EDF6E000ED1
:10448A00346E000E336E000E4224D96E040E4320A1
:10449A00DA6E000EDF6E010E4224076E000E432014
:1044AA00086E000E0724D96E040E0820DA6E000E7C
:1044BA00DF6E020E4224076E000E4320086E000EC5
:1044CA000724D96E040E0820DA6E000EDF6E030E82
:1044DA004224076E000E4320086E000E0724D96E90
:1044EA00040E0820DA6E000EDF6EFF0E076EFF0E56
:1044FA00086E42C009F043C00AF007500926085066
:10450A000A22000E0924D96E040E0A20DA6E000E61
:10451A00DF6EFE0E076EFF0E086E42C009F043C042
:10452A000AF00750092608500A22000E0924D96EFB
:10453A00040E0A20DA6E000EDF6EFD0E076EFF0E05
:10454A00086E42C009F043C00AF007500926085015
:10455A000A22000E0924D96E040E0A20DA6E000E11
:10456A00DF6E000E2F6E000E2E6E000E4024D96EE6
:10457A00040E4120DA6E000EDF6E010E4024076E33
:10458A00000E4120086E000E0724D96E040E082082
:10459A00DA6E000EDF6E020E4024076E000E412016
:1045AA00086E000E0724D96E040E0820DA6E000E7B
:1045BA00DF6E030E4024076E000E4120086E000EC7
:1045CA000724D96E040E0820DA6E000EDF6EFF0E85
:1045DA00076EFF0E086E40C009F041C00AF007508E
:1045EA00092608500A22000E0924D96E040E0A2050
:1045FA00DA6E000EDF6EFE0E076EFF0E086E40C00A
:10460A0009F041C00AF00750092608500A22000E94
:10461A000924D96E040E0A20DA6E000EDF6EFD0E32
:10462A00076EFF0E086E40C009F041C00AF007503D
:10463A00092608500A22000E0924D96E040E0A20FF
:10464A00DA6E000EDF6E000E346E000E336E000E50
:10465A004424D96E040E4520DA6E000EDF6E010E78
:10466A004424076E000E4520086E000E0724D96EFA
:10467A00040E0820DA6E000EDF6E020E4424076E66
:10468A00000E4520086E000E0724D96E040E08207D
:10469A00DA6E000EDF6E030E4424076E000E45200C
:1046AA00086E000E0724D96E040E0820DA6E000E7A
:1046BA00DF6EFF0E076EFF0E086E44C009F045C09C
:1046CA000AF00750092608500A22000E0924D96E5A
:1046DA00040E0A20DA6E000EDF6EFE0E076EFF0E63
:1046EA00086E44C009F045C00AF007500926085070
:1046FA000A22000E0924D96E040E0A20DA6E000E70
:10470A00DF6EFD0E076EFF0E086E44C009F045C04D
:10471A000AF00750092608500A22000E0924D96E09
:10472A00040E0A20DA6E000EDF6E000E326E000EE4
:10473A00316E0E0E3C24076E000E3D20086E000EF0
:10474A000724D96E040E0820DA6E1F0EDF6E070EDC
:10475A003C24096E000E3D200A6E000E0924E16E0B
:10476A00040E0A20E26EDFCFE7FF0D0E3C24076E2F
:10477A00000E3D20086E000E0724D96E040E082094
:10478A00DA6E200EDF6E080E3C24096E000E3D2004
:10479A000A6E000E0924E16E040E0A20E26EDFCFD3
:1047AA00E7FF0C0E3C24076E000E3D20086E000E3B
:1047BA000724D96E040E0820DA6E400EDF6E090E49
:1047CA003C24096E000E3D200A6E000E0924E16E9B
:1047DA00040E0A20E26EDFCFE7FF0B0E3C24076EC1
:1047EA00000E3D20086E000E0724D96E040E082024
:1047FA00DA6E800EDF6E0A0E3C24096E000E3D2032
:10480A000A6E000E0924E16E040E0A20E26EDFCF62
:10481A00E7FF110E3C24076E000E3D20086E000EC5
:10482A000724D96E040E0820DA6EFF0EDF6E100E12
:10483A003C24096E000E3D200A6E000E0924E16E2A
:10484A00040E0A20E26EDFCFE7FF130E3C24076E48
:10485A00000E3D20086E000E0724D96E040E0820B3
:10486A00DA6EFF0EDF6E170E3C24076E000E3D2037
:10487A00086E000E0724D96E040E0820DA6E810E27
:10488A00DF6E160E3C24096E000E3D200A6E000EE5
:10489A000924E16E040E0A20E26EDFCFE7FF150E4F
:1048AA003C240B6E000E3D200C6E000E0B24D96EBC
:1048BA00040E0C20DA6EE7CFDFFF140E3C240D6ED7
:1048CA00000E3D200E6E000E0D24E16E040E0E2029
:1048DA00E26EDFCFE7FF1F0E3C24076E000E3D207D
:1048EA00086E000E0724D96E040E0820DA6E010E37
:1048FA00DF6E1E0E3C24096E000E3D200A6E000E6D
:10490A000924E16E040E0A20E26EDFCFE7FF1D0ED6
:10491A003C240B6E000E3D200C6E000E0B24D96E4B
:10492A00040E0C20DA6EE7CFDFFF1B0E3C240D6E5F
:10493A00000E3D200E6E000E0D24E16E040E0E20B8
:10494A00E26EDFCFE7FF1A0E3C240F6E000E3D2009
:10495A00106E000E0F24D96E040E1020DA6EE7CF07
:10496A00DFFF190E3C24116E000E3D20126E000E60
:10497A001124E16E040E1220E26EDFCFE7FF1C0E57
:10498A003C24076E000E3D20086E000E0724D96EE7
:10499A00040E0820DA6EFF0EDF6E040E3C243C6E15
:1049AA00000E3D203D6E230E3C24076E000E3D2076
:1049BA00086E000E0724D96E040E0820DA6EFF0E68
:1049CA00DF6E1E0E3C24096E000E3D200A6E000E9C
:1049DA000924E16E040E0A20E26EDFCFE7FF220E01
:1049EA003C24076E000E3D20086E000E0724D96E87
:1049FA00040E0820DA6E810EDF6E210E3C24096E49
:104A0A00000E3D200A6E000E0924E16E040E0A20F3
:104A1A00E26EDFCFE7FF200E3C240B6E000E3D2036
:104A2A000C6E000E0B24D96E040E0C20DA6EE7CF42
:104A3A00DFFF1F0E3C240D6E000E3D200E6E000E91
:104A4A000D24E16E040E0E20E26EDFCFE7FF020EA8
:104A5A003C243C6E000E3D203D6E250E3C24076E24
:104A6A00000E3D20086E000E0724D96E040E0820A1
:104A7A00DA6EFF0EDF6E240E3C24096E000E3D2016
:104A8A000A6E000E0924E16E040E0A20E26EDFCFE0
:104A9A00E7FF270E3C24076E000E3D20086E000E2D
:104AAA000724D96E040E0820DA6EFF0EDF6E280E78
:104ABA003C24076E000E3D20086E000E0724D96EB6
:104ACA00040E0820DA6E110EDF6E290E3C24076EE2
:104ADA00000E3D20086E000E0724D96E040E082031
:104AEA00DA6E310EDF6E2A0E3C24076E000E3D2070
:104AFA00086E000E0724D96E040E0820DA6E4A0EDC
:104B0A00DF6E2B0E3C24076E000E3D20086E000E51
:104B1A000724D96E040E0820DA6E840EDF6E2D0E7D
:104B2A003C24076E000E3D20086E000E0724D96E45
:104B3A00040E0820DA6EFF0EDF6E300E3C24076E7C
:104B4A00000E3D20086E000E0724D96E040E0820C0
:104B5A00DA6E910EDF6E2F0E3C24096E000E3D2098
:104B6A000A6E000E0924E16E040E0A20E26EDFCFFF
:104B7A00E7FF2E0E3C240B6E000E3D200C6E000E3D
:104B8A000B24D96E040E0C20DA6EE7CFDFFF000E7D
:104B9A004F6E010E4E6EDAEF25F0DAEF25F0DAEFFE
:104BAA0025F0DAEF25F0DAEF25F0640E211822104D
:104BBA00D8A4E2EF25F0E4EF25F040EF26F0000E4E
:104BCA00266E010E256E000E226E000E216E3350E7
:104BDA003410D8B4F3EF25F0F5EF25F0FBEF25F00C
:104BEA0040C036F041C037F015EF26F0335034108C
:104BFA00D8A402EF26F004EF26F015EF26F02E5087
:104C0A002F10D8B40BEF26F00DEF26F015EF26F093
:104C1A0042C036F043C037F015EF26F015EF26F004
:104C2A0031503210D8B41CEF26F01EEF26F024EFD4
:104C3A0026F044C038F045C039F040EF26F0315034
:104C4A003210D8A42BEF26F02DEF26F040EF26F0F5
:104C5A0027502810D8B434EF26F036EF26F040EF6C
:104C6A0026F03EC038F03FC039F040EF26F040EF62
:104C7A0026F040EF26F0214A222A25042610D8A43D
:104C8A0049EF26F04BEF26F031EF27F0800E38245B
:104C9A00076E000E3920086E000E0724D96E040E26
:104CAA000820DA6EFF0EDF6E810E3824076E000EC2
:104CBA003920086E000E0724D96E040E0820DA6E19
:104CCA00FF0EDF6E2C042D10D8A46EEF26F070EFC5
:104CDA0026F086EF26F0000E3824D96E040E39200D
:104CEA00DA6E000EDF6E010E3824076E000E3920D0
:104CFA00086E000E0724D96E040E0820DA6E000E24
:104D0A00DF6E800E3624076E000E3720086E000E06
:104D1A000724D96E040E0820DA6EFF0EDF6E810EAC
:104D2A003624076E000E3720086E000E0724D96E4F
:104D3A00040E0820DA6EFF0EDF6E2C042D10D8A4A4
:104D4A00A9EF26F0ABEF26F0C3EF26F0000E3624CB
:104D5A00D96E040E3720DA6E000EDF6E010E36248D
:104D6A00076E000E3720086E000E0724D96E040E57
:104D7A000820DA6E000EDF6EC3EF26F0000E2D6EED
:104D8A00010E2C6E800E3624366E000E3720376EDA
:104D9A00800E3824386E000E3920396E37BEDFEFA8
:104DAA0026F0810E365C030E3758D8A0DFEF26F0C6
:104DBA00E1EF26F001EF27F0000E3624D96E040E3B
:104DCA003720DA6E000EDF6E010E3624076E000EF3
:104DDA003720086E000E0724D96E040E0820DA6EFA
:104DEA00000EDF6E000E266E000E256E000E2D6E72
:104DFA00000E2C6E01EF27F039BE0DEF27F0810E61
:104E0A00385C030E3958D8A00DEF27F00FEF27F0C2
:104E1A0031EF27F0000E3824D96E040E3920DA6EED
:104E2A00000EDF6E010E3824076E000E3920086E60
:104E3A00000E0724D96E040E0820DA6E000EDF6E0B
:104E4A00000E266E000E256E000E2D6E000E2C6EC4
:104E5A0031EF27F031EF27F081AC36EF27F038EF4A
:104E6A0027F042EF27F0000E206E010E1F6E46C09B
:104E7A003AF047C03BF042EF27F01F042010D8A4B5
:104E8A0049EF27F04BEF27F0A6EF2EF03BBE59EF84
:104E9A0027F03B5007E1810E3A5CD8B057EF27F074
:104EAA0059EF27F08BEF27F0000E3A24D96E040E43
:104EBA003B20DA6E000EDF6E010E3A24076E000EFA
:104ECA003B20086E000E0724D96E040E0820DA6E05
:104EDA00000EDF6EFF0E076EFF0E086E3AC009F075
:104EEA003BC00AF00750092608500A22000E09247E
:104EFA00D96E040E0A20DA6E000EDF6E000E206EE6
:104F0A00000E1F6E000E246E000E236E800E076EBA
:104F1A00FF0E086E3AC009F03BC00AF00750092696
:104F2A0008500A22000E0924D96E040E0A20DA6EED
:104F3A00DF50D8A4A3EF27F0A5EF27F017EF28F04A
:104F4A007F0E076EFF0E086E3AC009F03BC00AF0EA
:104F5A000750092608500A22000E0924D96E040EA9
:104F6A000A20DA6EDF50D8A4BDEF27F0BFEF27F092
:104F7A0017EF28F0810E076EFF0E086E3AC009F08F
:104F8A003BC00AF00750092608500A22000E0924DD
:104F9A00D96E040E0A20DA6EDF50D8A4D7EF27F0B4
:104FAA00D9EF27F017EF28F0800E076EFF0E086E74
:104FBA003AC009F03BC00AF00750092608500A22F5
:104FCA00000E0924D96E040E0A20DA6EFF0EDF6E77
:104FDA007F0E076EFF0E086E3AC009F03BC00AF05A
:104FEA000750092608500A22000E0924D96E040E19
:104FFA000A20DA6EFF0EDF6E810E076EFF0E086E54
:10500A003AC009F03BC00AF00750092608500A22A4
:10501A00000E0924D96E040E0A20DA6EFF0EDF6E26
:10502A0019EF2EF0800E076EFF0E086E3AC009F0D7
:10503A003BC00AF00750092608500A22000E09242C
:10504A00D96E040E0A20DA6EDE28D8A42FEF28F0D3
:10505A0031EF28F0CDEF28F07F0E076EFF0E086EB5
:10506A003AC009F03BC00AF00750092608500A2244
:10507A00000E0924D96E040E0A20DA6EDE28D8A49E
:10508A0049EF28F04BEF28F0CDEF28F0810E076E9C
:10509A00FF0E086E3AC009F03BC00AF00750092615
:1050AA0008500A22000E0924D96E040E0A20DA6E6C
:1050BA00DE28D8A463EF28F065EF28F0CDEF28F0BA
:1050CA00800E076EFF0E086E3AC009F03BC00AF068
:1050DA000750092608500A22000E0924D96E040E28
:1050EA000A20DA6E000EDF6E7F0E076EFF0E086E64
:1050FA003AC009F03BC00AF00750092608500A22B4
:10510A00000E0924D96E040E0A20DA6E000EDF6E34
:10511A00810E076EFF0E086E3AC009F03BC00AF016
:10512A000750092608500A22000E0924D96E040ED7
:10513A000A20DA6E000EDF6E000E3A24D96E040ED3
:10514A003B20DA6E000EDF6E010E3A24076E000E67
:10515A003B20086E000E0724D96E040E0820DA6E72
:10516A00000EDF6EFF0E076EFF0E086E3AC009F0E2
:10517A003BC00AF00750092608500A22000E0924EB
:10518A00D96E040E0A20DA6E000EDF6E19EF2EF0C9
:10519A00800E076EFF0E086E3AC009F03BC00AF097
:1051AA000750092608500A22030E3E240B6E000EF1
:1051BA003F200C6E09500B5C0C50800A0D6E0A5091
:1051CA00800A0D58D8A0ECEF28F0EEEF28F017EF80
:1051DA0029F0FD0E076EFF0E086E3EC009F03FC0B3
:1051EA000AF00750092608500A22800E0B6EFF0E9D
:1051FA000C6E3AC00DF03BC00EF00B500D260C5051
:10520A000E2209500D5C0E50800A0F6E0A50800A59
:10521A000F58D8B013EF29F015EF29F0ABEF29F0AA
:10522A0017EF29F0810E076EFF0E086E3AC009F0DB
:10523A003BC00AF00750092608500A22030E3E24F2
:10524A000B6E000E3F200C6E09500B5C0C50800A4E
:10525A000D6E0A50800A0D58D8A036EF29F038EFA3
:10526A0029F061EF29F0FD0E076EFF0E086E3EC0B1
:10527A0009F03FC00AF00750092608500A22810E99
:10528A000B6EFF0E0C6E3AC00DF03BC00EF00B50C9
:10529A000D260C500E2209500D5C0E50800A0F6E1E
:1052AA000A50800A0F58D8B05DEF29F05FEF29F055
:1052BA00ABEF29F061EF29F07F0E076EFF0E086E43
:1052CA003AC009F03BC00AF00750092608500A22E2
:1052DA00030E3E240B6E000E3F200C6E09500B5C31
:1052EA000C50800A0D6E0A50800A0D58D8A080EF23
:1052FA0029F082EF29F01FEF2AF0FD0E076EFF0E4C
:10530A00086E3EC009F03FC00AF00750092608504F
:10531A000A227F0E0B6EFF0E0C6E3AC00DF03BC0D8
:10532A000EF00B500D260C500E2209500D5C0E503B
:10533A00800A0F6E0A50800A0F58D8A0A7EF29F0EA
:10534A00A9EF29F01FEF2AF0ABEF29F0000E3E2457
:10535A00D96E040E3F20DA6E000EDF6E010E3E2477
:10536A00076E000E3F20086E000E0724D96E040E49
:10537A000820DA6E000EDF6E020E3E24076E000E63
:10538A003F20086E000E0724D96E040E0820DA6E3C
:10539A00000EDF6E030E3E24076E000E3F20086EDD
:1053AA00000E0724D96E040E0820DA6E000EDF6E96
:1053BA00FF0E076EFF0E086E3EC009F03FC00AF0EE
:1053CA000750092608500A22000E0924D96E040E35
:1053DA000A20DA6E000EDF6EFE0E076EFF0E086EF2
:1053EA003EC009F03FC00AF00750092608500A22B9
:1053FA00000E0924D96E040E0A20DA6E000EDF6E42
:10540A00FD0E076EFF0E086E3EC009F03FC00AF09F
:10541A000750092608500A22000E0924D96E040EE4
:10542A000A20DA6E000EDF6E000E286E000E276E5E
:10543A001FEF2AF0800E076EFF0E086E3AC009F0C1
:10544A003BC00AF00750092608500A22030E4024DE
:10545A000B6E000E41200C6E09500B5C0C50800A3A
:10546A000D6E0A50800A0D58D8A03EEF2AF040EF80
:10547A002AF069EF2AF0FD0E076EFF0E086E40C093
:10548A0009F041C00AF00750092608500A22800E86
:10549A000B6EFF0E0C6E3AC00DF03BC00EF00B50B7
:1054AA000D260C500E2209500D5C0E50800A0F6E0C
:1054BA000A50800A0F58D8B065EF2AF067EF2AF031
:1054CA00FDEF2AF069EF2AF0810E076EFF0E086ED3
:1054DA003AC009F03BC00AF00750092608500A22D0
:1054EA00030E40240B6E000E41200C6E09500B5C1B
:1054FA000C50800A0D6E0A50800A0D58D8A088EF09
:10550A002AF08AEF2AF0B3EF2AF0FD0E076EFF0E9B
:10551A00086E40C009F041C00AF007500926085039
:10552A000A22810E0B6EFF0E0C6E3AC00DF03BC0C4
:10553A000EF00B500D260C500E2209500D5C0E5029
:10554A00800A0F6E0A50800A0F58D8B0AFEF2AF0BF
:10555A00B1EF2AF0FDEF2AF0B3EF2AF07F0E076EC3
:10556A00FF0E086E3AC009F03BC00AF00750092640
:10557A0008500A22030E40240B6E000E41200C6EC6
:10558A0009500B5C0C50800A0D6E0A50800A0D58A7
:10559A00D8A0D2EF2AF0D4EF2AF071EF2BF0FD0E4B
:1055AA00076EFF0E086E40C009F041C00AF00750AE
:1055BA00092608500A227F0E0B6EFF0E0C6E3AC0A7
:1055CA000DF03BC00EF00B500D260C500E22095068
:1055DA000D5C0E50800A0F6E0A50800A0F58D8A030
:1055EA00F9EF2AF0FBEF2AF071EF2BF0FDEF2AF02A
:1055FA00000E4024D96E040E4120DA6E000EDF6ED2
:10560A00010E4024076E000E4120086E000E07248A
:10561A00D96E040E0820DA6E000EDF6E020E4024E8
:10562A00076E000E4120086E000E0724D96E040E84
:10563A000820DA6E000EDF6E030E4024076E000E9D
:10564A004120086E000E0724D96E040E0820DA6E77
:10565A00000EDF6EFF0E076EFF0E086E40C009F0E7
:10566A0041C00AF00750092608500A22000E0924F0
:10567A00D96E040E0A20DA6E000EDF6EFE0E076E79
:10568A00FF0E086E40C009F041C00AF00750092613
:10569A0008500A22000E0924D96E040E0A20DA6E76
:1056AA00000EDF6EFD0E076EFF0E086E40C009F099
:1056BA0041C00AF00750092608500A22000E0924A0
:1056CA00D96E040E0A20DA6E000EDF6E000E346EFA
:1056DA00000E336E71EF2BF0800E076EFF0E086E10
:1056EA003AC009F03BC00AF00750092608500A22BE
:1056FA00030E42240B6E000E43200C6E09500B5C05
:10570A000C50800A0D6E0A50800A0D58D8A090EFEE
:10571A002BF092EF2BF0BBEF2BF0FD0E076EFF0E76
:10572A00086E42C009F043C00AF007500926085023
:10573A000A22800E0B6EFF0E0C6E3AC00DF03BC0B3
:10574A000EF00B500D260C500E2209500D5C0E5017
:10575A00800A0F6E0A50800A0F58D8B0B7EF2BF0A4
:10576A00B9EF2BF04FEF2CF0BBEF2BF0810E076E49
:10577A00FF0E086E3AC009F03BC00AF0075009262E
:10578A0008500A22030E42240B6E000E43200C6EB0
:10579A0009500B5C0C50800A0D6E0A50800A0D5895
:1057AA00D8A0DAEF2BF0DCEF2BF005EF2CF0FD0E92
:1057BA00076EFF0E086E42C009F043C00AF0075098
:1057CA00092608500A22810E0B6EFF0E0C6E3AC093
:1057DA000DF03BC00EF00B500D260C500E22095056
:1057EA000D5C0E50800A0F6E0A50800A0F58D8B00E
:1057FA0001EF2CF003EF2CF04FEF2CF005EF2CF01B
:10580A007F0E076EFF0E086E3AC009F03BC00AF021
:10581A000750092608500A22030E42240B6E000E76
:10582A0043200C6E09500B5C0C50800A0D6E0A5016
:10583A00800A0D58D8A024EF2CF026EF2CF0C3EFE5
:10584A002CF0FD0E076EFF0E086E42C009F043C031
:10585A000AF00750092608500A227F0E0B6EFF0E27
:10586A000C6E3AC00DF03BC00EF00B500D260C50DA
:10587A000E2209500D5C0E50800A0F6E0A50800AE3
:10588A000F58D8A04BEF2CF04DEF2CF0C3EF2CF0B3
:10589A004FEF2CF0000E4224D96E040E4320DA6E2C
:1058AA00000EDF6E010E4224076E000E4320086EC2
:1058BA00000E0724D96E040E0820DA6E000EDF6E81
:1058CA00020E4224076E000E4320086E000E0724C3
:1058DA00D96E040E0820DA6E000EDF6E030E422423
:1058EA00076E000E4320086E000E0724D96E040EC0
:1058FA000820DA6E000EDF6EFF0E076EFF0E086ECE
:10590A0042C009F043C00AF00750092608500A228B
:10591A00000E0924D96E040E0A20DA6E000EDF6E1C
:10592A00FE0E076EFF0E086E42C009F043C00AF071
:10593A000750092608500A22000E0924D96E040EBF
:10594A000A20DA6E000EDF6EFD0E076EFF0E086E7D
:10595A0042C009F043C00AF00750092608500A223B
:10596A00000E0924D96E040E0A20DA6E000EDF6ECC
:10597A00000E2F6E000E2E6EC3EF2CF0800E076EF7
:10598A00FF0E086E3AC009F03BC00AF0075009261C
:10599A0008500A22030E44240B6E000E45200C6E9A
:1059AA0009500B5C0C50800A0D6E0A50800A0D5883
:1059BA00D8A0E2EF2CF0E4EF2CF00DEF2DF0FD0E65
:1059CA00076EFF0E086E44C009F045C00AF0075082
:1059DA00092608500A22800E0B6EFF0E0C6E3AC082
:1059EA000DF03BC00EF00B500D260C500E22095044
:1059FA000D5C0E50800A0F6E0A50800A0F58D8B0FC
:105A0A0009EF2DF00BEF2DF0A1EF2DF00DEF2DF09A
:105A1A00810E076EFF0E086E3AC009F03BC00AF00D
:105A2A000750092608500A22030E44240B6E000E62
:105A3A0045200C6E09500B5C0C50800A0D6E0A5002
:105A4A00800A0D58D8A02CEF2DF02EEF2DF057EF2D
:105A5A002DF0FD0E076EFF0E086E44C009F045C01A
:105A6A000AF00750092608500A22810E0B6EFF0E13
:105A7A000C6E3AC00DF03BC00EF00B500D260C50C8
:105A8A000E2209500D5C0E50800A0F6E0A50800AD1
:105A9A000F58D8B053EF2DF055EF2DF0A1EF2DF0A0
:105AAA0057EF2DF07F0E076EFF0E086E3AC009F011
:105ABA003BC00AF00750092608500A22030E442464
:105ACA000B6E000E45200C6E09500B5C0C50800AC0
:105ADA000D6E0A50800A0D58D8A076EF2DF078EF97
:105AEA002DF019EF2EF0FD0E076EFF0E086E44C062
:105AFA0009F045C00AF00750092608500A227F0E0D
:105B0A000B6EFF0E0C6E3AC00DF03BC00EF00B5040
:105B1A000D260C500E2209500D5C0E50800A0F6E95
:105B2A000A50800A0F58D8A09DEF2DF09FEF2DF054
:105B3A0019EF2EF0A1EF2DF0000E4424D96E040EB9
:105B4A004520DA6E000EDF6E010E4424076E000E49
:105B5A004520086E000E0724D96E040E0820DA6E5E
:105B6A00000EDF6E020E4424076E000E4520086EFA
:105B7A00000E0724D96E040E0820DA6E000EDF6EBE
:105B8A00030E4424076E000E4520086E000E0724FB
:105B9A00D96E040E0820DA6E000EDF6EFF0E076E55
:105BAA00FF0E086E44C009F045C00AF007500926E6
:105BBA0008500A22000E0924D96E040E0A20DA6E51
:105BCA00000EDF6EFE0E076EFF0E086E44C009F06F
:105BDA0045C00AF00750092608500A22000E092477
:105BEA00D96E040E0A20DA6E000EDF6EFD0E076E05
:105BFA00FF0E086E44C009F045C00AF00750092696
:105C0A0008500A22000E0924D96E040E0A20DA6E00
:105C1A00000EDF6E000E326E000E316E19EF2EF09E
:105C2A0019EF2EF019EF2EF023042410D8A420EF38
:105C3A002EF022EF2EF04EEF2EF0000E3A24D96EFF
:105C4A00040E3B20DA6E000EDF6E010E3A24076E58
:105C5A00000E3B20086E000E0724D96E040E0820A1
:105C6A00DA6E000EDF6EFF0E076EFF0E086E3AC088
:105C7A0009F03BC00AF00750092608500A22000E14
:105C8A000924D96E040E0A20DA6E000EDF6E4EEF7A
:105C9A002EF0000E246E010E236E800E3A243A6E08
:105CAA00FF0E3B203B6E000E4624D96E040E4720A1
:105CBA00DA6EFF0EDF6E010E4624076E000E4720D5
:105CCA00086E000E0724D96E040E0820DA6EFC0E48
:105CDA00DF6EFF0E096EFF0E0A6E46C00BF047C05C
:105CEA000CF009500B260A500C22000E0B24E16E10
:105CFA00040E0C20E26EDFCFE7FF020E4624076E89
:105D0A00000E4720086E000E0724D96E040E0820E4
:105D1A00DA6EF00EDF6EFE0E096EFF0E0A6E46C0D8
:105D2A000BF047C00CF009500B260A500C22000E4B
:105D3A000B24E16E040E0C20E26EDFCFE7FFA6EF24
:105D4A002EF0000E4624D96E040E4720DA6EDF507C
:105D5A00D8B4B2EF2EF0B4EF2EF012EF2FF0FF0E00
:105D6A00076EFF0E086E46C009F047C00AF00750DA
:105D7A00092608500A22000E0924D96E040E0A20A8
:105D8A00DA6EDF50D8B4CCEF2EF0CEEF2EF012EF51
:105D9A002FF0010E4624076E000E4720086E000EF3
:105DAA000724D96E040E0820DA6EDF50D8B4E0EF6B
:105DBA002EF0E2EF2EF012EF2FF0020E4624076EBD
:105DCA00000E4720086E000E0724D96E040E082024
:105DDA00DA6EDF50D8B4F4EF2EF0F6EF2EF012EFB1
:105DEA002FF0FE0E076EFF0E086E46C009F047C080
:105DFA000AF00750092608500A22000E0924D96E13
:105E0A00040E0A20DA6EDF50D8A40EEF2FF010EF3E
:105E1A002FF0ACEF32F012EF2FF0000E2A6E020EC6
:105E2A00296E020E29182A10D8A41EEF2FF020EF8F
:105E3A002FF0ACEF32F04E044F10D8B427EF2FF00A
:105E4A0029EF2FF0ACEF32F0000E4F6E010E4E6EBE
:105E5A00000ECCEC11F0010ECCEC11F0000E1CEC93
:105E6A0012F0000E4624D96E040E4720DA6E000E98
:105E7A00DF6E010E4624076E000E4720086E000EE4
:105E8A000724D96E040E0820DA6E000EDF6EFF0EAC
:105E9A00096EFF0E0A6E46C00BF047C00CF009509F
:105EAA000B260A500C22000E0B24E16E040E0C2065
:105EBA00E26EDFCFE7FF020E4624076E000E472090
:105ECA00086E000E0724D96E040E0820DA6E000E42
:105EDA00DF6EFE0E096EFF0E0A6E46C00BF047C05B
:105EEA000CF009500B260A500C22000E0B24E16E0E
:105EFA00040E0C20E26EDFCFE7FF000E3E24D96EBF
:105F0A00040E3F20DA6E000EDF6E010E3E24076E8D
:105F1A00000E3F20086E000E0724D96E040E0820DA
:105F2A00DA6E000EDF6E020E3E24076E000E3F2070
:105F3A00086E000E0724D96E040E0820DA6E000ED1
:105F4A00DF6E030E3E24076E000E3F20086E000E21
:105F5A000724D96E040E0820DA6E000EDF6EFF0EDB
:105F6A00076EFF0E086E3EC009F03FC00AF00750E8
:105F7A00092608500A22000E0924D96E040E0A20A6
:105F8A00DA6E000EDF6EFE0E076EFF0E086E3EC062
:105F9A0009F03FC00AF00750092608500A22000EED
:105FAA000924D96E040E0A20DA6E000EDF6EFD0E89
:105FBA00076EFF0E086E3EC009F03FC00AF0075098
:105FCA00092608500A22000E0924D96E040E0A2056
:105FDA00DA6E000EDF6E000E346E000E336E000EA7
:105FEA004224D96E040E4320DA6E000EDF6E010ED3
:105FFA004224076E000E4320086E000E0724D96E55
:10600A00040E0820DA6E000EDF6E020E4224076EBE
:10601A00000E4320086E000E0724D96E040E0820D5
:10602A00DA6E000EDF6E030E4224076E000E432066
:10603A00086E000E0724D96E040E0820DA6E000ED0
:10604A00DF6EFF0E076EFF0E086E42C009F043C0F6
:10605A000AF00750092608500A22000E0924D96EB0
:10606A00040E0A20DA6E000EDF6EFE0E076EFF0EB9
:10607A00086E42C009F043C00AF0075009260850CA
:10608A000A22000E0924D96E040E0A20DA6E000EC6
:10609A00DF6EFD0E076EFF0E086E42C009F043C0A8
:1060AA000AF00750092608500A22000E0924D96E60
:1060BA00040E0A20DA6E000EDF6E000E2F6E000E3E
:1060CA002E6E000E4024D96E040E4120DA6E000EA8
:1060DA00DF6E010E4024076E000E4120086E000E8E
:1060EA000724D96E040E0820DA6E000EDF6E020E47
:1060FA004024076E000E4120086E000E0724D96E58
:10610A00040E0820DA6E000EDF6E030E4024076EBE
:10611A00000E4120086E000E0724D96E040E0820D6
:10612A00DA6E000EDF6EFF0E076EFF0E086E40C0BD
:10613A0009F041C00AF00750092608500A22000E49
:10614A000924D96E040E0A20DA6E000EDF6EFE0EE6
:10615A00076EFF0E086E40C009F041C00AF00750F2
:10616A00092608500A22000E0924D96E040E0A20B4
:10617A00DA6E000EDF6EFD0E076EFF0E086E40C06F
:10618A0009F041C00AF00750092608500A22000EF9
:10619A000924D96E040E0A20DA6E000EDF6E000E94
:1061AA00346E000E336E000E4424D96E040E452060
:1061BA00DA6E000EDF6E010E4424076E000E4520D3
:1061CA00086E000E0724D96E040E0820DA6E000E3F
:1061DA00DF6E020E4424076E000E4520086E000E84
:1061EA000724D96E040E0820DA6E000EDF6E030E45
:1061FA004424076E000E4520086E000E0724D96E4F
:10620A00040E0820DA6E000EDF6EFF0E076EFF0E18
:10621A00086E44C009F045C00AF007500926085024
:10622A000A22000E0924D96E040E0A20DA6E000E24
:10623A00DF6EFE0E076EFF0E086E44C009F045C001
:10624A000AF00750092608500A22000E0924D96EBE
:10625A00040E0A20DA6E000EDF6EFD0E076EFF0EC8
:10626A00086E44C009F045C00AF0075009260850D4
:10627A000A22000E0924D96E040E0A20DA6E000ED4
:10628A00DF6E000E326E000E316E070E3C24076E72
:10629A00000E3D20086E000E0724D96E040E082059
:1062AA00DA6EFF0EDF6E090E3C24076E000E3D20EB
:1062BA00086E000E0724D96E040E0820DA6E110E3D
:1062CA00DF6E080E3C24096E000E3D200A6E000E99
:1062DA000924E16E040E0A20E26EDFCFE7FF0A0E00
:1062EA003C24076E000E3D20086E000E0724D96E6E
:1062FA00040E0820DA6E1F0EDF6E0E0E3C24076EA7
:10630A00000E3D20086E000E0724D96E040E0820E8
:10631A00DA6EFF0EDF6E110E3C24076E000E3D2072
:10632A00086E000E0724D96E040E0820DA6E910E4C
:10633A00DF6E100E3C24096E000E3D200A6E000E20
:10634A000924E16E040E0A20E26EDFCFE7FF0F0E8A
:10635A003C240B6E000E3D200C6E000E0B24D96EF1
:10636A00040E0C20DA6EE7CFDFFF150E3C24076E11
:10637A00000E3D20086E000E0724D96E040E082078
:10638A00DA6EFF0EDF6E160E3C24076E000E3D20FD
:10639A00086E000E0724D96E040E0820DA6E110E5C
:1063AA00DF6E170E3C24076E000E3D20086E000EAD
:1063BA000724D96E040E0820DA6E310EDF6E180E2D
:1063CA003C24076E000E3D20086E000E0724D96E8D
:1063DA00040E0820DA6E4A0EDF6E190E3C24076E90
:1063EA00000E3D20086E000E0724D96E040E082008
:1063FA00DA6E840EDF6E1D0E3C24076E000E3D2001
:10640A00086E000E0724D96E040E0820DA6EFF0EFD
:10641A00DF6E1E0E3C24076E000E3D20086E000E35
:10642A000724D96E040E0820DA6E420EDF6E1F0EA4
:10643A003C24076E000E3D20086E000E0724D96E1C
:10644A00040E0820DA6E240EDF6E200E3C24076E3E
:10645A00000E3D20086E000E0724D96E040E082097
:10646A00DA6E180EDF6E2B0E3C24076E000E3D20EE
:10647A00086E000E0724D96E040E0820DA6E1F0E6D
:10648A00DF6E240E3C24096E000E3D200A6E000EBB
:10649A000924E16E040E0A20E26EDFCFE7FF2A0E1E
:1064AA003C24076E000E3D20086E000E0724D96EAC
:1064BA00040E0820DA6E200EDF6E250E3C24096ECB
:1064CA00000E3D200A6E000E0924E16E040E0A2019
:1064DA00E26EDFCFE7FF290E3C24076E000E3D2057
:1064EA00086E000E0724D96E040E0820DA6E400EDC
:1064FA00DF6E260E3C24096E000E3D200A6E000E49
:10650A000924E16E040E0A20E26EDFCFE7FF280EAF
:10651A003C24076E000E3D20086E000E0724D96E3B
:10652A00040E0820DA6E800EDF6E270E3C24096EF8
:10653A00000E3D200A6E000E0924E16E040E0A20A8
:10654A00E26EDFCFE7FFACEF32F0ACEF32F082A0C1
:10655A00B1EF32F0B3EF32F065EF33F047BEC1EF7F
:10656A0032F0FD0E465C030E4758D8B0BFEF32F04A
:10657A00C1EF32F065EF33F0020E4624076E000ECB
:10658A004720086E000E0724D96E040E0820DA6E22
:10659A00030E4624096E000E47200A6E000E0924D7
:1065AA00E16E040E0A20E26EDFCFE7FF010E4624F9
:1065BA00076E000E4720086E000E0724D96E040EDF
:1065CA000820DA6E020E4624096E000E47200A6E73
:1065DA00000E0924E16E040E0A20E26EDFCFE7FF07
:1065EA00000E4624D96E040E4720DA6EFF0EDF6EC7
:1065FA00010E4624076E000E4720086E000E07247F
:10660A00E16E040E0820E26EDFCFE7FFFF0E076E91
:10661A00FF0E086E46C009F047C00AF00750092667
:10662A0008500A22000E0924D96E040E0A20DA6ED6
:10663A00000E4624E16E040E4720E26EDFCFE7FF2C
:10664A00FE0E076EFF0E086E46C009F047C00AF03C
:10665A000750092608500A22000E0924D96E040E92
:10666A000A20DA6EFF0E0B6EFF0E0C6E46C00DF09E
:10667A0047C00EF00B500D260C500E22000E0D24B2
:10668A00E16E040E0E20E26EDFCFE7FFFE0E076E0C
:10669A00FF0E086E46C009F047C00AF007500926E7
:1066AA0008500A22000E0924D96E040E0A20DA6E56
:1066BA00000EDF6E464A472A65EF33F065EF33F086
:1066CA0082A26AEF33F06CEF33F025EF34F047BE65
:1066DA0078EF33F0810E465C030E4758D8A078EF66
:1066EA0033F07AEF33F025EF34F0FE0E076EFF0E2B
:1066FA00086E46C009F047C00AF00750092608503C
:10670A000A22000E0924D96E040E0A20DA6EFD0E42
:10671A000B6EFF0E0C6E46C00DF047C00EF00B500C
:10672A000D260C500E22000E0D24E16E040E0E20D2
:10673A00E26EDFCFE7FFFF0E076EFF0E086E46C060
:10674A0009F047C00AF00750092608500A22000E2D
:10675A000924D96E040E0A20DA6EFE0E0B6EFF0EA5
:10676A000C6E46C00DF047C00EF00B500D260C50B3
:10677A000E22000E0D24E16E040E0E20E26EDFCF13
:10678A00E7FF000E4624D96E040E4720DA6EFF0E8C
:10679A00DF6EFF0E076EFF0E086E46C009F047C097
:1067AA000AF00750092608500A22000E0924E16E51
:1067BA00040E0A20E26EDFCFE7FF010E4624076EC1
:1067CA00000E4720086E000E0724D96E040E08201A
:1067DA00DA6E000E4624E16E040E4720E26EDFCF29
:1067EA00E7FF020E4624076E000E4720086E000ED1
:1067FA000724D96E040E0820DA6E010E4624096EAB
:10680A00000E47200A6E000E0924E16E040E0A20CB
:10681A00E26EDFCFE7FF020E4624076E000E472026
:10682A00086E000E0724D96E040E0820DA6E000ED8
:10683A00DF6E4606D8A0470625EF34F025EF34F080
:10684A0082A42AEF34F02CEF34F0CFEF34F098EF33
:10685A0034F098EF34F0000E4624D96E040E472027
:10686A00DA6E010EDF6ECFEF34F0000E4624D96ED9
:10687A00040E4720DA6E020EDF6ECFEF34F0000E00
:10688A004624D96E040E4720DA6E040EDF6ECFEF6F
:10689A0034F0000E4624D96E040E4720DA6E080E34
:1068AA00DF6ECFEF34F0000E4624D96E040E472077
:1068BA00DA6E100EDF6ECFEF34F0000E4624D96E7A
:1068CA00040E4720DA6E200EDF6ECFEF34F0000E92
:1068DA004624D96E040E4720DA6E400EDF6ECFEFE3
:1068EA0034F0000E4624D96E040E4720DA6E800E6C
:1068FA00DF6E000E4624D96E040E4720DA6E000EB3
:10690A00DF6E800E4624466E000E4720476E000E4C
:10691A004624D96E040E4720DA6E010EDF6ECFEFE1
:10692A0034F0CFEF34F0000E4624D96E040E47201F
:10693A00DA6EDF50076E086A0850000AD8B4A8EF6A
:10694A0034F0CFEF34F00750000AD8B430EF34F007
:10695A00010AD8B43AEF34F0030AD8B444EF34F059
:10696A00060AD8B44EEF34F00C0AD8B458EF34F013
:10697A00180AD8B462EF34F0300AD8B46CEF34F0A5
:10698A00600AD8B476EF34F0C00AD8B47EEF34F097
:10699A00CFEF34F082AED4EF34F0D6EF34F0A8EF74
:1069AA0016F042EF35F042EF35F0000E4624D96E6C
:1069BA00040E4720DA6E800EDF6EA8EF16F0000E86
:1069CA004624D96E040E4720DA6E400EDF6EA8EF19
:1069DA0016F0000E4624D96E040E4720DA6E200EF9
:1069EA00DF6EA8EF16F0000E4624D96E040E47207B
:1069FA00DA6E100EDF6EA8EF16F0000E4624D96E7E
:106A0A00040E4720DA6E080EDF6EA8EF16F0000EAD
:106A1A004624D96E040E4720DA6E040EDF6EA8EF04
:106A2A0016F0000E4624D96E040E4720DA6E020EC6
:106A3A00DF6EA8EF16F0000E4624D96E040E47202A
:106A4A00DA6E010EDF6E000E4624D96E040E472060
:106A5A00DA6E000EDF6E800E4624466EFF0E472069
:106A6A00476E000E4624D96E040E4720DA6E800E59
:106A7A00DF6EA8EF16F0A8EF16F0000E4624D96EC6
:106A8A00040E4720DA6EDF50076E086A0850000AC3
:106A9A00D8B452EF35F0A8EF16F00750000AD8B470
:106AAA00DAEF34F0010AD8B428EF35F0030AD8B483
:106ABA0020EF35F0060AD8B416EF35F00C0AD8B430
:106ACA000CEF35F0180AD8B402EF35F0300AD8B412
:106ADA00F8EF34F0600AD8B4EEEF34F0C00AD8B454
:106AEA00E4EF34F0A8EF16F0A8EF16F0A8EF16F0CE
:106AFA00A8EF16F0120000000000000000000000DD
:106B0A00000000000000000000000000000000007B
:106B1A00000000000000000000000000000000006B
:106B2A00000000000000000000000000000000005B
:106B3A00000000000000000000000000000000004B
:106B4A00000000000000000000000000000000003B
:106B5A00000000000000000000000000000000002B
:106B6A00000000000000000000000000000000001B
:106B7A00000000000000000000000000000000000B
:106B8A0000000000000000000000000000000000FB
:106B9A0000000000000000000000000000000000EB
:106BAA0000000000000000000000000000000000DB
:106BBA0000000000000000000000000000000000CB
:106BCA0000000000000000000000000000000000BB
:106BDA0000000000000000000000000000000000AB
:106BEA00000000000000000000000000000000009B
:106BFA00000000000000000000000000000000008B
:106C0A00065F5F0600000000070700070700001480
:106C1A007F7F147F7F1400242E6B6B3A120000468C
:106C2A006630180C666200307A4F5D377A48000485
:106C3A0007030000000000001C3E63410000000042
:106C4A0041633E1C000000082A3E1C1C3E2A08081C
:106C5A00083E3E080800000080E0600000000008CE
:106C6A0008080808080000000060600000000060D2
:106C7A0030180C060301003E7F71594D7F3E0040DB
:106C8A00427F7F40400000627359496F66000022CC
:106C9A006349497F360000181C16537F7F5000272E
:106CAA006745457D3900003C7E4B49793000000339
:106CBA000371790F070000367F49497F36000006C5
:106CCA004F49693F1E000000006666000000000090
:106CDA0080E66600000000081C36634100000024BC
:106CEA0024242424240000004163361C08000002E6
:106CFA000351590F0600003E7F415D5D1F1E007C57
:106D0A007E13137E7C0000417F7F49497F36001C39
:106D1A003E634141632200417F7F41633E1C004143
:106D2A007F7F495D416300417F7F491D0103001C4C
:106D3A003E6341517372007F7F08087F7F00000025
:106D4A00417F7F41000000307040417F3F01004198
:106D5A007F7F081C776300417F7F41406070007F1E
:106D6A007F0E1C0E7F7F007F7F060C187F7F001C22
:106D7A003E6341633E1C00417F7F49090F06001EA6
:106D8A003F21717F5E0000417F7F09197F660026DF
:106D9A006F4D597332000003417F7F410300007F2A
:106DAA007F40407F7F00001F3F60603F1F00007FE1
:106DBA007F3018307F7F0043673C183C67430007E9
:106DCA004F78784F070000476371594D6773000089
:106DDA007F7F41410000000103060C18306000006B
:106DEA0041417F7F000000080C0603060C08008062
:106DFA0080808080808080000003070400000020DB
:106E0A007454543C784000417F3F484878300038F9
:106E1A007C44446C280000307848493F7F40003861
:106E2A007C54545C180000487E7F49030200009895
:106E3A00BCA4A4F87C0400417F7F08047C7800008D
:106E4A00447D7D4000000060E08080FD7D000041BF
:106E5A007F7F10386C440000417F7F400000007C37
:106E6A007C18381C7C78007C7C04047C7800003810
:106E7A007C44447C38000084FCF8A4243C180018A4
:106E8A003C24A4F8FC8400447C784C041C18004878
:106E9A005C54547424000000043E7F442400003CE7
:106EAA007C40403C7C40001C3C60603C1C00003C38
:106EBA007C7038707C3C00446C3810386C44009C00
:106ECA00BCA0A0FC7C00004C64745C4C640000080C
:106EDA00083E77414100000000007777000000413A
:106EEA0041773E0808000002030103020301007013
:106EFA00784C464C7870000E9F91B1FB4A00003ADC
:106F0A007A40407A7A4000387C54555D1900000274
:106F1A00237555557D7B42217554547D7940002156
:106F2A007555547C784000207457577C7840001877
:106F3A003CA4A4E4400000023B7D55555D1B023988
:106F4A007D54545D190000397D55545C18000001C8
:106F5A00457C7C410100000203457D7D430200011E
:106F6A00457D7C40000000797D1612167D790070FF
:106F7A00782B2B78700000447C7C55554500002006
:106F8A007454547C7C54547C7E0B097F7F490032B4
:106F9A007B49497B320000327A48487A3200003213
:106FAA007A4A48783000003A7B41417B7A40003A7D
:106FBA007A4240787840009ABAA0A0FA7A00000192
:106FCA00193C66663C19013D7D40407D3D00001834
:106FDA003C24E7E7242400687E7F49436620002B8F
:106FEA002FFCFC2F2B0000FFFF09092FF6F8A04009
:106FFA00C088FE7F090302207454557D7940000041
:10700A00447D7D410000003078484A7A32000038D9
:10701A007840427A7A40007A7A0A0A7A7000007DC9
:10702A007D19317D7D000000262F292F2F28000091
:10703A00262F292F26000030784D45602000003881
:10704A003808080808000008080808383800004FFF
:10705A006F3018CCEEBB914F6F30186C76FBF9008D
:10706A0000007B7B000000081C3622081C36222206
:10707A00361C0822361C08AA005500AA005500AA88
:10708A0055AA55AA55AA55DDFFAA77DDAAFF7700AA
:10709A000000FFFF000000101010FFFF00000014A6
:1070AA001414FFFF0000001010FFFF00FFFF001084
:1070BA0010F0F010F0F000141414FCFC000000149E
:1070CA0014F7F700FFFF000000FFFF00FFFF0014A6
:1070DA0014F4F404FCFC0014141717101F1F0010FA
:1070EA00101F1F101F1F001414141F1F0000001070
:1070FA001010F0F00000000000001F1F1010101008
:10710A0010101F1F101010101010F0F010101000A7
:10711A000000FFFF101010101010101010101010A7
:10712A001010FFFF101010000000FFFF14141400CD
:10713A0000FFFF00FFFF1000001F1F1017171400A9
:10714A0000FCFC04F4F41414141717101717141481
:10715A0014F4F404F4F4140000FFFF00F7F7141415
:10716A00141414141414141414F7F700F7F714145D
:10717A001414171714141410101F1F101F1F1014A3
:10718A001414F4F41414141010F0F010F0F01000A9
:10719A00001F1F101F1F100000001F1F14141400CF
:1071AA000000FCFC1414140000F0F010F0F01010B1
:1071BA0010FFFF10FFFF10141414FFFF1414141013
:1071CA0010101F1F000000000000F0F0101010FF48
:1071DA00FFFFFFFFFFFFFFF0F0F0F0F0F0F0F0FF2D
:1071EA00FFFFFF0000000000000000FFFFFFFF0F8D
:1071FA000F0F0F0F0F0F0F387C446C386C4400FCD4
:10720A00FE2A2A3E1400007E7E02020606000002C2
:10721A007E7E027E7E020063775D496363000038EA
:10722A007C447C3C04040080FE7E20203E1E000438
:10723A0006027E7C06020099BDE7E7BD9900001CA4
:10724A003E6B496B3E1C004C7E7301737E4C0030D2
:10725A00784A4F7D390000183C243C3C243C18985D
:10726A00FC643C3E273D18000000000000000000BE
:10727A000000000000000000000000000000000004
:10728A0000000000000000000000000000000000F4
:10729A0000000000000000000000000000000000E4
:1072AA0000000000000000000000000000000000D4
:1072BA0000000000000000000000000000000000C4
:1072CA0000000000000000000000000000000000B4
:1072DA0000000000000000000000000000000000A4
:1072EA000000000000000000000000000000000094
:1072FA000000000000000000000000000000000084
:10730A000000000000000000000000000000000073
:10731A000000000000000000000000000000000063
:10732A0000000000000000000000E0F0C8CCC4C269
:10733A00E2E2F2FEFEFEFCB00000000000000000E7
:10734A000000000000000000000000000000000033
:10735A000000000000000000000000000000000023
:10736A000000000000000000000000000000000013
:10737A000000000000000000000000000000000003
:10738A0000000000000000000000000000000000F3
:10739A0000000000000000000000000000000000E3
:1073AA0000000000000000000083CF5F3F3F3F3F26
:1073BA003F3F3F3F1F3F3F3F7F7880000000000074
:1073CA0000000000000000000000000000000000B3
:1073DA0000000000000000000000000000000000A3
:1073EA000000000000000000000000000000000093
:1073FA000000000000000000000000000000000083
:10740A000000000000000000000000000000000072
:10741A000000000000000000000000000000000062
:10742A00000000000080C0884261F042800008002D
:10743A00006022000800000000000103BC0080E098
:10744A00F0F8FCFCECF6F078383818181808000048
:10745A000000000000000000000000000000000022
:10746A000000000000000000000000000000000012
:10747A000000000000000000000000000000000002
:10748A0000000000000000000000000000000000F2
:10749A0000000000000000000000000000000000E2
:1074AA00000000FC038382C6FAFAFCFCFAFFE20140
:1074BA000000000100000000000000F00708FFFFC4
:1074CA00FFFFFFFFFFDFCFCF8F0F0F0F0E1C18300C
:1074DA0000000000000000000000000000000000A2
:1074EA000000000000000000000000000000000092
:1074FA000000000000000000000000000000000082
:10750A000000000000000000000000000000000071
:10751A000000000000000000000000000000000061
:10752A00608E01040F1F1F0F0F1F3F3F3F3F1F03B6
:10753A00000000000020001000080808090A082BB3
:10754A002B3337FF030303071F7F100000000000DF
:10755A000000000000000000000000000000000021
:10756A000000000000000000000000000000000011
:10757A000000000000000000000000000000000001
:10758A0000000000000000000000000000000000F1
:10759A0000000000000000000000000000000000E1
:1075AA000007083060C080000000000000000000F2
:1075BA000000000040800000000000008080C060E1
:1075CA00341A05030000000000000000000000005B
:1075DA0000000000000000000000000000000000A1
:1075EA000000000000000000000000000000000091
:1075FA000000000000000000000000000000000081
:10760A000000000000000000000000000000000070
:10761A000000000000000000000000000000000060
:10762A00000000000000008182868C9C1428E8F883
:10763A00102040C0C04020110905050502010000C4
:10764A000000000000000000000000000000000030
:10765A000000000000000000000000000000000020
:10766A000000000000000000000000000000000010
:10767A000000000000000000000000000000000000
:10768A0000000000000000000000000000000000F0
:10769A0000000000000000000000000000000000E0
:1076AA00000000000000030207050404050D0E1B7C
:1076BA003B6B476363263A12121C0000000000006D
:1076CA0000000000000000000000000000000000B0
:1076DA0000000000000000000000000000000000A0
:1076EA000000000000000000000000000000000090
:1076FA000000000000000000000000000000000080
:107AFA0000000000000000FFFFFFFFFFFFFFFFFF85
:107B0A00FFFFFFFFFFFFFFFFFFFFFFFFFFFFFFFF7B
:107B1A00FFFFFFFFFFFFFFFFFFFFFFFFFFFFFFFF6B
:107B2A00FFFFFFFFFFFFFFFFFFFFFFFFFFFFFFFF5B
:107B3A00FFFFFFFFFFFFFFFFFFFFFFFFFFFFFFFF4B
:107EEA00FFFFFFFFFFFFFF0000000000000000008F
:107EFA0000000000000000000000005C000C000C04
:107F0A007C287C7C447C241048285408000C0038C7
:107F1A004400443800201008103810804000101027
:107F2A0010004000201008384438007C006454488F
:107F3A004454281C107C4C542438542004740C28B3
:107F4A00542808543800500080500010284428282B
:107F5A0028442810045408384C5C7814787C542837
:107F6A003844447C44387C54447C14043844347C7B
:107F7A00107C007C0020403C7C106C7C40407C08DB
:107F8A007C7C047C7C447C7C14083844787C1468AF
:107F9A00485424047C047C407C3C403C7C207C6C1F
:107FAA00106C1C601C64544C7C4400081020447CF7
:107FBA000008040880808004080044616E69656CCA
:107FCA002C4761627269656C005370616365204970
:107FDA006E7661646572004C6574277320504C415B
:107FEA00590065742054686F6D6173004D61646552
:057FFA00206279000087
:020000040020DA
:08000000FFFFFFFFFFFFFFFF00
:020000040030CA
:0E000000000C191EFF8381FF0FC00FE00F40A0
:00000001FF
