:020000040000FA
:04000000DAEF1FF024
:103F9A00000E846EEBEC1FF0010E21EC20F0CDEC4C
:103FAA0020F0D6EF1FF000EF00F004EE00F014EE60
:103FBA0000F0EE6AE550E150FCE1E250FAE1396ABC
:103FCA00386A000EF86E0001CDEF1FF00F0EC16EB9
:103FDA00000EC26E000E926E000E936E000E946E6C
:103FEA00000E956E000E966E000E806E000E816EAB
:103FFA00000E826E000E836E000E846E1200026E38
:10400A000250D8B40BEF20F00DEF20F011EF20F0A2
:10401A008A808A9215EF20F08A928A8215EF20F020
:10402A00000E956E8A9601C08CFF8A8800D08A9805
:10403A0000D08A908A921200066E000E836E8A9AC7
:10404A00210EE82EFED700F08A8A8A988A908A92F0
:10405A008A9400D0C00E016E000E04EC20F0C00E4F
:10406A00016E010E04EC20F0400E016E000E04EC0D
:10407A0020F0400E016E010E04EC20F0B80E016E25
:10408A00000E04EC20F0B80E016E010E04EC20F0D4
:10409A000604D8A453EF20F055EF20F061EF20F08A
:1040AA003F0E016E000E04EC20F03F0E016E010E71
:1040BA0004EC20F06DEF20F03E0E016E000E04ECD1
:1040CA0020F03E0E016E010E04EC20F06DEF20F0A0
:1040DA00000E71EC20F01200036E000E056E070E42
:1040EA0005647AEF20F07CEF20F080EF20F0CCEF2F
:1040FA0020F0CCEF20F08A94400E016E000E04EC02
:10410A0020F0400E016E010E04EC20F00550B809B3
:10411A00016E000E04EC20F00550B809016E010E84
:10412A0004EC20F08A84000E046E3F0E0464A0EFB3
:10413A0020F0A2EF20F0A6EF20F0C1EF20F0C1EFAF
:10414A0020F00350010DF3500008016E000E04EC3C
:10415A0020F00350010DF3500008016E010E04EC2B
:10416A0020F0042A3F0E0464BDEF20F0BFEF20F0D8
:10417A00A6EF20F0C1EF20F0052A070E0564C8EF6C
:10418A0020F0CAEF20F080EF20F0CCEF20F01200F0
:10419A00030E376EE80E366E000E2F6E050E2E6E6B
:1041AA00000E356EFC0E346E000E316E7B0E306ED4
:1041BA00000E336E850E326E000E126E000E116EF8
:1041CA00000E146E000E136E000E166E000E156EA3
:1041DA00000E186E000E176E000E1A6E000E196E83
:1041EA00000E1C6E000E1B6E000E256E000E246E55
:1041FA00010E2D6EA20E2C6E000E1E6E000E1D6E8E
:10420A00000E206E000E1F6E000E296E000E286E24
:10421A00000E226E000E216E000E2E24D96E040EA0
:10422A002F20DA6E3C0EDF6E010E2E24036E000E76
:10423A002F20046E000E0324D96E040E0420DA6EB9
:10424A00B40EDF6EFF0E056EFF0E066E2EC007F06F
:10425A002FC008F00550072606500822000E072432
:10426A00E16E040E0820E26EDFCFE7FF020E2E2475
:10427A00036E000E2F20046E000E0324D96E040E66
:10428A000420DA6ECA0EDF6EFE0E056EFF0E066E93
:10429A002EC007F02FC008F0055007260650082246
:1042AA00000E0724E16E040E0820E26EDFCFE7FF5E
:1042BA00030E2E24036E000E2F20046E000E03241C
:1042CA00D96E040E0420DA6E190EDF6EFD0E056E2D
:1042DA00FF0E066E2EC007F02FC008F00550072605
:1042EA0006500822000E0724E16E040E0820E26E32
:1042FA00DFCFE7FF000E3424D96E040E3520DA6EC4
:10430A003C0EDF6E010E3424036E000E3520046E5F
:10431A00000E0324D96E040E0420DA6EB40EDF6E8A
:10432A00FF0E056EFF0E066E34C007F035C008F0AA
:10433A000550072606500822000E0724E16E040ED7
:10434A000820E26EDFCFE7FF020E3424036E000E70
:10435A003520046E000E0324D96E040E0420DA6E92
:10436A00CA0EDF6EFE0E056EFF0E066E34C007F033
:10437A0035C008F00550072606500822000E07240B
:10438A00E16E040E0820E26EDFCFE7FF030E34244D
:10439A00036E000E3520046E000E0324D96E040E3F
:1043AA000420DA6E190EDF6EFD0E056EFF0E066E24
:1043BA0034C007F035C008F0055007260650082219
:1043CA00000E0724E16E040E0820E26EDFCFE7FF3D
:1043DA00000E3024D96E040E3120DA6E3C0EDF6EE8
:1043EA00010E3024036E000E3120046E000E0324E9
:1043FA00D96E040E0420DA6EB40EDF6EFF0E056E5F
:10440A00FF0E066E30C007F031C008F005500726CF
:10441A0006500822000E0724E16E040E0820E26E00
:10442A00DFCFE7FF020E3024036E000E3120046E48
:10443A00000E0324D96E040E0420DA6ECA0EDF6E53
:10444A00FE0E056EFF0E066E30C007F031C008F092
:10445A000550072606500822000E0724E16E040EB6
:10446A000820E26EDFCFE7FF030E3024036E000E52
:10447A003120046E000E0324D96E040E0420DA6E75
:10448A00190EDF6EFD0E056EFF0E066E30C007F0C8
:10449A0031C008F00550072606500822000E0724EE
:1044AA00E16E040E0820E26EDFCFE7FF000E322431
:1044BA00D96E040E3320DA6E3C0EDF6E010E322402
:1044CA00036E000E3320046E000E0324D96E040E10
:1044DA000420DA6EB40EDF6EFF0E056EFF0E066E56
:1044EA0032C007F033C008F00550072606500822EC
:1044FA00000E0724E16E040E0820E26EDFCFE7FF0C
:10450A00020E3224036E000E3320046E000E0324C2
:10451A00D96E040E0420DA6ECA0EDF6EFE0E056E28
:10452A00FF0E066E32C007F033C008F005500726AA
:10453A0006500822000E0724E16E040E0820E26EDF
:10454A00DFCFE7FF030E3224036E000E3320046E22
:10455A00000E0324D96E040E0420DA6E190EDF6EE3
:10456A00FD0E056EFF0E066E32C007F033C008F06E
:10457A000550072606500822000E0724E16E040E95
:10458A000820E26EDFCFE7FF000E3624D96E040E54
:10459A003720DA6EFF0EDF6E010E3624036E000E30
:1045AA003720046E000E0324D96E040E0420DA6E3E
:1045BA00FC0EDF6EFF0E056EFF0E066E36C007F0AC
:1045CA0037C008F00550072606500822000E0724B7
:1045DA00E16E040E0820E26EDFCFE7FF020E3624FA
:1045EA00036E000E3720046E000E0324D96E040EEB
:1045FA000420DA6EF00EDF6EFE0E056EFF0E066EFA
:10460A0036C007F037C008F00550072606500822C2
:10461A00000E0724E16E040E0820E26EDFCFE7FFEA
:10462A0017EF23F0000E106E000E0F6E000E266EAE
:10463A00070E266423EF23F025EF23F029EF23F05A
:10464A007EEF23F07EEF23F0000E276E010E276423
:10465A0031EF23F033EF23F037EF23F075EF23F038
:10466A0075EF23F08A94400E016E275004EC20F077
:10467A002650B809016E275004EC20F08A84000EF7
:10468A00236E3F0E23644CEF23F04EEF23F052EFDC
:10469A0023F06AEF23F06AEF23F0000E0F24D96E9D
:1046AA00040E1020DA6EDF50016E275004EC20F061
:1046BA000F4A102A232A3F0E236466EF23F068EF7D
:1046CA0023F052EF23F06AEF23F0272A010E276422
:1046DA0071EF23F073EF23F037EF23F075EF23F038
:1046EA00262A070E26647CEF23F07EEF23F029EFBB
:1046FA0023F08A908A92BD0E32183310D8A488EF1C
:10470A0023F08AEF23F090EF23F0000E1A6E010EC9
:10471A00196E90EF23F0840E32183310D8A498EF54
:10472A0023F09AEF23F0A0EF23F0000E1A6E000E8A
:10473A00196EA0EF23F019501A10D8A4A7EF23F08E
:10474A00A9EF23F089EF24F0030E3224036E000E42
:10475A003320046E000E0324D96E040E0420DA6E90
:10476A00040E3224056E000E3320066E000E052458
:10477A00E16E040E0620E26EDFCFE7FF020E32245E
:10478A00036E000E3320046E000E0324D96E040E4D
:10479A000420DA6E030E3224056E000E3320066EF4
:1047AA00000E0524E16E040E0620E26EDFCFE7FF5D
:1047BA00010E3224036E000E3320046E000E032411
:1047CA00D96E040E0420DA6E020E3224056E000E33
:1047DA003320066E000E0524E16E040E0620E26EFA
:1047EA00DFCFE7FF000E3224D96E040E3320DA6ED3
:1047FA00010E3224036E000E3320046E000E0324D1
:10480A00E16E040E0420E26EDFCFE7FFFF0E036EB7
:10481A00FF0E046E32C005F033C006F003500526C1
:10482A0004500622000E0524D96E040E0620DA6E04
:10483A00000E3224E16E040E3320E26EDFCFE7FF72
:10484A00FE0E036EFF0E046E32C005F033C006F092
:10485A000350052604500622000E0524D96E040EC4
:10486A000620DA6EFF0E076EFF0E086E32C009F0E0
:10487A0033C00AF00750092608500A22000E0924FC
:10488A00E16E040E0A20E26EDFCFE7FFFD0E036E33
:10489A00FF0E046E32C005F033C006F00350052641
:1048AA0004500622000E0524D96E040E0620DA6E84
:1048BA00FE0E076EFF0E086E32C009F033C00AF012
:1048CA000750092608500A22000E0924E16E040E38
:1048DA000A20E26EDFCFE7FFFD0E036EFF0E046EC5
:1048EA0032C005F033C006F00350052604500622F4
:1048FA00000E0524D96E040E0620DA6E000EDF6E55
:10490A00324A332A70EF25F0FD0E036EFF0E046E55
:10491A0032C005F033C006F00350052604500622C3
:10492A00000E0524D96E040E0620DA6EFC0E076E00
:10493A00FF0E086E32C009F033C00AF0075009268C
:10494A0008500A22000E0924E16E040E0A20E26EC3
:10495A00DFCFE7FFFE0E036EFF0E046E32C005F0D6
:10496A0033C006F00350052604500622000E052423
:10497A00D96E040E0620DA6EFD0E076EFF0E086E63
:10498A0032C009F033C00AF00750092608500A223B
:10499A00000E0924E16E040E0A20E26EDFCFE7FF63
:1049AA00FF0E036EFF0E046E32C005F033C006F030
:1049BA000350052604500622000E0524D96E040E63
:1049CA000620DA6EFE0E076EFF0E086E32C009F080
:1049DA0033C00AF00750092608500A22000E09249B
:1049EA00E16E040E0A20E26EDFCFE7FF000E3224EA
:1049FA00D96E040E3320DA6EFF0E036EFF0E046EBC
:104A0A0032C005F033C006F00350052604500622D2
:104A1A00000E0524E16E040E0620E26EDFCFE7FFEA
:104A2A00010E3224036E000E3320046E000E03249E
:104A3A00D96E040E0420DA6E000E3224E16E040EE2
:104A4A003320E26EDFCFE7FF020E3224036E000E40
:104A5A003320046E000E0324D96E040E0420DA6E8D
:104A6A00010E3224056E000E3320066E000E052458
:104A7A00E16E040E0620E26EDFCFE7FF030E32245A
:104A8A00036E000E3320046E000E0324D96E040E4A
:104A9A000420DA6E020E3224056E000E3320066EF2
:104AAA00000E0524E16E040E0620E26EDFCFE7FF5A
:104ABA00030E3224036E000E3320046E000E03240C
:104ACA00D96E040E0420DA6E000EDF6E3206D8A00C
:104ADA00330670EF25F0440E30183110D8A478EF61
:104AEA0025F07AEF25F080EF25F0000E186E010E02
:104AFA00176E80EF25F07C0E30183110D8A488EF9D
:104B0A0025F08AEF25F090EF25F0000E186E000EC2
:104B1A00176E90EF25F017041810D8A497EF25F018
:104B2A0099EF25F079EF26F0030E3024036E000E7C
:104B3A003120046E000E0324D96E040E0420DA6EAE
:104B4A00040E3024056E000E3120066E000E052478
:104B5A00E16E040E0620E26EDFCFE7FF020E30247C
:104B6A00036E000E3120046E000E0324D96E040E6B
:104B7A000420DA6E030E3024056E000E3120066E14
:104B8A00000E0524E16E040E0620E26EDFCFE7FF79
:104B9A00010E3024036E000E3120046E000E032431
:104BAA00D96E040E0420DA6E020E3024056E000E51
:104BBA003120066E000E0524E16E040E0620E26E18
:104BCA00DFCFE7FF000E3024D96E040E3120DA6EF3
:104BDA00010E3024036E000E3120046E000E0324F1
:104BEA00E16E040E0420E26EDFCFE7FFFF0E036ED4
:104BFA00FF0E046E30C005F031C006F003500526E2
:104C0A0004500622000E0524D96E040E0620DA6E20
:104C1A00000E3024E16E040E3120E26EDFCFE7FF92
:104C2A00FE0E036EFF0E046E30C005F031C006F0B2
:104C3A000350052604500622000E0524D96E040EE0
:104C4A000620DA6EFF0E076EFF0E086E30C009F0FE
:104C5A0031C00AF00750092608500A22000E09241A
:104C6A00E16E040E0A20E26EDFCFE7FFFD0E036E4F
:104C7A00FF0E046E30C005F031C006F00350052661
:104C8A0004500622000E0524D96E040E0620DA6EA0
:104C9A00FE0E076EFF0E086E30C009F031C00AF032
:104CAA000750092608500A22000E0924E16E040E54
:104CBA000A20E26EDFCFE7FFFD0E036EFF0E046EE1
:104CCA0030C005F031C006F0035005260450062214
:104CDA00000E0524D96E040E0620DA6E000EDF6E71
:104CEA00304A312A60EF27F0FD0E036EFF0E046E84
:104CFA0030C005F031C006F00350052604500622E4
:104D0A00000E0524D96E040E0620DA6EFC0E076E1C
:104D1A00FF0E086E30C009F031C00AF007500926AC
:104D2A0008500A22000E0924E16E040E0A20E26EDF
:104D3A00DFCFE7FFFE0E036EFF0E046E30C005F0F4
:104D4A0031C006F00350052604500622000E052441
:104D5A00D96E040E0620DA6EFD0E076EFF0E086E7F
:104D6A0030C009F031C00AF00750092608500A225B
:104D7A00000E0924E16E040E0A20E26EDFCFE7FF7F
:104D8A00FF0E036EFF0E046E30C005F031C006F050
:104D9A000350052604500622000E0524D96E040E7F
:104DAA000620DA6EFE0E076EFF0E086E30C009F09E
:104DBA0031C00AF00750092608500A22000E0924B9
:104DCA00E16E040E0A20E26EDFCFE7FF000E302408
:104DDA00D96E040E3120DA6EFF0E036EFF0E046EDA
:104DEA0030C005F031C006F00350052604500622F3
:104DFA00000E0524E16E040E0620E26EDFCFE7FF07
:104E0A00010E3024036E000E3120046E000E0324BE
:104E1A00D96E040E0420DA6E000E3024E16E040E00
:104E2A003120E26EDFCFE7FF020E3024036E000E60
:104E3A003120046E000E0324D96E040E0420DA6EAB
:104E4A00010E3024056E000E3120066E000E052478
:104E5A00E16E040E0620E26EDFCFE7FF030E302478
:104E6A00036E000E3120046E000E0324D96E040E68
:104E7A000420DA6E020E3024056E000E3120066E12
:104E8A00000E0524E16E040E0620E26EDFCFE7FF76
:104E9A00030E3024036E000E3120046E000E03242C
:104EAA00D96E040E0420DA6E000EDF6E3006D8A02A
:104EBA00310660EF27F0C00E34183510D8A468EF19
:104ECA0027F06AEF27F070EF27F0000E166E010E3A
:104EDA00156E70EF27F0FC0E34183510D8A478EF51
:104EEA0027F07AEF27F080EF27F0000E166E000EFB
:104EFA00156E80EF27F015041610D8A487EF27F057
:104F0A0089EF27F069EF28F0030E3424036E000EB0
:104F1A003520046E000E0324D96E040E0420DA6EC6
:104F2A00040E3424056E000E3520066E000E05248C
:104F3A00E16E040E0620E26EDFCFE7FF020E342494
:104F4A00036E000E3520046E000E0324D96E040E83
:104F5A000420DA6E030E3424056E000E3520066E28
:104F6A00000E0524E16E040E0620E26EDFCFE7FF95
:104F7A00010E3424036E000E3520046E000E032445
:104F8A00D96E040E0420DA6E020E3424056E000E69
:104F9A003520066E000E0524E16E040E0620E26E30
:104FAA00DFCFE7FF000E3424D96E040E3520DA6E07
:104FBA00010E3424036E000E3520046E000E032405
:104FCA00E16E040E0420E26EDFCFE7FFFF0E036EF0
:104FDA00FF0E046E34C005F035C006F003500526F6
:104FEA0004500622000E0524D96E040E0620DA6E3D
:104FFA00000E3424E16E040E3520E26EDFCFE7FFA7
:10500A00FE0E036EFF0E046E34C005F035C006F0C6
:10501A000350052604500622000E0524D96E040EFC
:10502A000620DA6EFF0E076EFF0E086E34C009F016
:10503A0035C00AF00750092608500A22000E092432
:10504A00E16E040E0A20E26EDFCFE7FFFD0E036E6B
:10505A00FF0E046E34C005F035C006F00350052675
:10506A0004500622000E0524D96E040E0620DA6EBC
:10507A00FE0E076EFF0E086E34C009F035C00AF046
:10508A000750092608500A22000E0924E16E040E70
:10509A000A20E26EDFCFE7FFFD0E036EFF0E046EFD
:1050AA0034C005F035C006F0035005260450062228
:1050BA00000E0524D96E040E0620DA6E000EDF6E8D
:1050CA00344A352A50EF29F0FD0E036EFF0E046EA6
:1050DA0034C005F035C006F00350052604500622F8
:1050EA00000E0524D96E040E0620DA6EFC0E076E39
:1050FA00FF0E086E34C009F035C00AF007500926C1
:10510A0008500A22000E0924E16E040E0A20E26EFB
:10511A00DFCFE7FFFE0E036EFF0E046E34C005F00C
:10512A0035C006F00350052604500622000E052459
:10513A00D96E040E0620DA6EFD0E076EFF0E086E9B
:10514A0034C009F035C00AF00750092608500A226F
:10515A00000E0924E16E040E0A20E26EDFCFE7FF9B
:10516A00FF0E036EFF0E046E34C005F035C006F064
:10517A000350052604500622000E0524D96E040E9B
:10518A000620DA6EFE0E076EFF0E086E34C009F0B6
:10519A0035C00AF00750092608500A22000E0924D1
:1051AA00E16E040E0A20E26EDFCFE7FF000E342420
:1051BA00D96E040E3520DA6EFF0E036EFF0E046EF2
:1051CA0034C005F035C006F0035005260450062207
:1051DA00000E0524E16E040E0620E26EDFCFE7FF23
:1051EA00010E3424036E000E3520046E000E0324D3
:1051FA00D96E040E0420DA6E000E3424E16E040E19
:10520A003520E26EDFCFE7FF020E3424036E000E74
:10521A003520046E000E0324D96E040E0420DA6EC3
:10522A00010E3424056E000E3520066E000E05248C
:10523A00E16E040E0620E26EDFCFE7FF030E342490
:10524A00036E000E3520046E000E0324D96E040E80
:10525A000420DA6E020E3424056E000E3520066E26
:10526A00000E0524E16E040E0620E26EDFCFE7FF92
:10527A00030E3424036E000E3520046E000E032440
:10528A00D96E040E0420DA6E000EDF6E3406D8A042
:10529A00350650EF29F0400E2E182F10D8A458EFDB
:1052AA0029F05AEF29F060EF29F0000E126E010E74
:1052BA00116E60EF29F0040E2E182F10D8A468EF93
:1052CA0029F06AEF29F070EF29F0000E126E000E35
:1052DA00116E70EF29F011501210D8A477EF29F04F
:1052EA0079EF29F059EF2AF0030E2E24036E000EEF
:1052FA002F20046E000E0324D96E040E0420DA6EE9
:10530A00040E2E24056E000E2F20066E000E0524B4
:10531A00E16E040E0620E26EDFCFE7FF020E2E24B6
:10532A00036E000E2F20046E000E0324D96E040EA5
:10533A000420DA6E030E2E24056E000E2F20066E50
:10534A00000E0524E16E040E0620E26EDFCFE7FFB1
:10535A00010E2E24036E000E2F20046E000E03246D
:10536A00D96E040E0420DA6E020E2E24056E000E8B
:10537A002F20066E000E0524E16E040E0620E26E52
:10538A00DFCFE7FF000E2E24D96E040E2F20DA6E2F
:10539A00010E2E24036E000E2F20046E000E03242D
:1053AA00E16E040E0420E26EDFCFE7FFFF0E036E0C
:1053BA00FF0E046E2EC005F02FC006F0035005261E
:1053CA0004500622000E0524D96E040E0620DA6E59
:1053DA00000E2E24E16E040E2F20E26EDFCFE7FFCF
:1053EA00FE0E036EFF0E046E2EC005F02FC006F0EF
:1053FA000350052604500622000E0524D96E040E19
:10540A000620DA6EFF0E076EFF0E086E2EC009F038
:10541A002FC00AF00750092608500A22000E092454
:10542A00E16E040E0A20E26EDFCFE7FFFD0E036E87
:10543A00FF0E046E2EC005F02FC006F0035005269D
:10544A0004500622000E0524D96E040E0620DA6ED8
:10545A00FE0E076EFF0E086E2EC009F02FC00AF06E
:10546A000750092608500A22000E0924E16E040E8C
:10547A000A20E26EDFCFE7FFFD0E036EFF0E046E19
:10548A002EC005F02FC006F0035005260450062250
:10549A00000E0524D96E040E0620DA6E000EDF6EA9
:1054AA002E4A2F2A40EF2BF0FD0E036EFF0E046EDC
:1054BA002EC005F02FC006F0035005260450062220
:1054CA00000E0524D96E040E0620DA6EFC0E076E55
:1054DA00FF0E086E2EC009F02FC00AF007500926E9
:1054EA0008500A22000E0924E16E040E0A20E26E18
:1054FA00DFCFE7FFFE0E036EFF0E046E2EC005F02F
:10550A002FC006F00350052604500622000E05247B
:10551A00D96E040E0620DA6EFD0E076EFF0E086EB7
:10552A002EC009F02FC00AF00750092608500A2297
:10553A00000E0924E16E040E0A20E26EDFCFE7FFB7
:10554A00FF0E036EFF0E046E2EC005F02FC006F08C
:10555A000350052604500622000E0524D96E040EB7
:10556A000620DA6EFE0E076EFF0E086E2EC009F0D8
:10557A002FC00AF00750092608500A22000E0924F3
:10558A00E16E040E0A20E26EDFCFE7FF000E2E2442
:10559A00D96E040E2F20DA6EFF0E036EFF0E046E14
:1055AA002EC005F02FC006F003500526045006222F
:1055BA00000E0524E16E040E0620E26EDFCFE7FF3F
:1055CA00010E2E24036E000E2F20046E000E0324FB
:1055DA00D96E040E0420DA6E000E2E24E16E040E3B
:1055EA002F20E26EDFCFE7FF020E2E24036E000E9D
:1055FA002F20046E000E0324D96E040E0420DA6EE6
:10560A00010E2E24056E000E2F20066E000E0524B4
:10561A00E16E040E0620E26EDFCFE7FF030E2E24B2
:10562A00036E000E2F20046E000E0324D96E040EA2
:10563A000420DA6E020E2E24056E000E2F20066E4E
:10564A00000E0524E16E040E0620E26EDFCFE7FFAE
:10565A00030E2E24036E000E2F20046E000E032468
:10566A00D96E040E0420DA6E000EDF6E2E06D8A064
:10567A002F0640EF2BF0000E2E24D96E040E2F2099
:10568A00DA6EDF50D8A44CEF2BF04EEF2BF002EF7E
:10569A0030F0030E2E24036E000E2F20046E000E2F
:1056AA000324D96E040E0420DA6EDF50D8A460EF0A
:1056BA002BF062EF2BF002EF30F0020E2E24036E75
:1056CA00000E2F20046E000E0324D96E040E04204F
:1056DA00DA6EDF50D8A474EF2BF076EF2BF002EFDE
:1056EA0030F0010E2E24036E000E2F20046E000EE1
:1056FA000324D96E040E0420DA6EDF50D8A488EF92
:10570A002BF08AEF2BF002EF30F0FF0E036EFF0E44
:10571A00046E2EC005F02FC006F003500526045073
:10572A000622000E0524D96E040E0620DA6EDF501A
:10573A00D8A4A2EF2BF0A4EF2BF002EF30F0FE0E6C
:10574A00036EFF0E046E2EC005F02FC006F0035044
:10575A00052604500622000E0524D96E040E0620E2
:10576A00DA6EDF50D8A4BCEF2BF0BEEF2BF002EFBD
:10577A0030F0FD0E036EFF0E046E2EC005F02FC032
:10578A0006F00350052604500622000E0524D96EA1
:10579A00040E0620DA6EDF50D8A4D6EF2BF0D8EF2D
:1057AA002BF002EF30F0000E3424D96E040E3520AF
:1057BA00DA6EDF50D8A4E4EF2BF0E6EF2BF002EF1D
:1057CA0030F0030E3424036E000E3520046E000EF2
:1057DA000324D96E040E0420DA6EDF50D8A4F8EF41
:1057EA002BF0FAEF2BF002EF30F0020E3424036EA6
:1057FA00000E3520046E000E0324D96E040E042018
:10580A00DA6EDF50D8A40CEF2CF00EEF2CF002EF7A
:10581A0030F0010E3424036E000E3520046E000EA3
:10582A000324D96E040E0420DA6EDF50D8A420EFC8
:10583A002CF022EF2CF002EF30F0FF0E036EFF0E79
:10584A00046E34C005F035C006F003500526045036
:10585A000622000E0524D96E040E0620DA6EDF50E9
:10586A00D8A43AEF2CF03CEF2CF002EF30F0FE0E09
:10587A00036EFF0E046E34C005F035C006F0035007
:10588A00052604500622000E0524D96E040E0620B1
:10589A00DA6EDF50D8A454EF2CF056EF2CF002EF5A
:1058AA0030F0FD0E036EFF0E046E34C005F035C0F5
:1058BA0006F00350052604500622000E0524D96E70
:1058CA00040E0620DA6EDF50D8A46EEF2CF070EFCB
:1058DA002CF002EF30F0000E3024D96E040E312085
:1058EA00DA6EDF50D8A47CEF2CF07EEF2CF002EFBA
:1058FA0030F0030E3024036E000E3120046E000EC9
:10590A000324D96E040E0420DA6EDF50D8A490EF77
:10591A002CF092EF2CF002EF30F0020E3024036EDE
:10592A00000E3120046E000E0324D96E040E0420EA
:10593A00DA6EDF50D8A4A4EF2CF0A6EF2CF002EF19
:10594A0030F0010E3024036E000E3120046E000E7A
:10595A000324D96E040E0420DA6EDF50D8A4B8EFFF
:10596A002CF0BAEF2CF002EF30F0FF0E036EFF0EB0
:10597A00046E30C005F031C006F00350052604500D
:10598A000622000E0524D96E040E0620DA6EDF50B8
:10599A00D8A4D2EF2CF0D4EF2CF002EF30F0FE0EA8
:1059AA00036EFF0E046E30C005F031C006F00350DE
:1059BA00052604500622000E0524D96E040E062080
:1059CA00DA6EDF50D8A4ECEF2CF0EEEF2CF002EFF9
:1059DA0030F0FD0E036EFF0E046E30C005F031C0CC
:1059EA0006F00350052604500622000E0524D96E3F
:1059FA00040E0620DA6EDF50D8A406EF2DF008EF69
:105A0A002DF002EF30F0000E3224D96E040E33204E
:105A1A00DA6EDF50D8A414EF2DF016EF2DF002EF56
:105A2A0030F0030E3224036E000E3320046E000E93
:105A3A000324D96E040E0420DA6EDF50D8A428EFAE
:105A4A002DF02AEF2DF002EF30F0020E3224036E11
:105A5A00000E3320046E000E0324D96E040E0420B7
:105A6A00DA6EDF50D8A43CEF2DF03EEF2DF002EFB6
:105A7A0030F0010E3224036E000E3320046E000E45
:105A8A000324D96E040E0420DA6EDF50D8A450EF36
:105A9A002DF052EF2DF002EF30F0FF0E036EFF0EE5
:105AAA00046E32C005F033C006F0035005260450D8
:105ABA000622000E0524D96E040E0620DA6EDF5087
:105ACA00D8A46AEF2DF06CEF2DF002EF30F0FE0E45
:105ADA00036EFF0E046E32C005F033C006F00350A9
:105AEA00052604500622000E0524D96E040E06204F
:105AFA00DA6EDF50D8A484EF2DF086EF2DF002EF96
:105B0A0030F0FD0E036EFF0E046E32C005F033C096
:105B1A0006F00350052604500622000E0524D96E0D
:105B2A00040E0620DA6EDF50D8A49EEF2DF0A0EF07
:105B3A002DF002EF30F0000E256E000E246E25BE09
:105B4A00AEEF2DF0040E255CD8A0AEEF2DF0B0EF2D
:105B5A002DF0B4EF2DF0CCEF2DF0CCEF2DF0000EA0
:105B6A002424D96E040E2520DA6E000EDF6E244A34
:105B7A00252A25BEC8EF2DF0040E255CD8A0C8EF53
:105B8A002DF0CAEF2DF0B4EF2DF0CCEF2DF00E0E64
:105B9A002C24036E000E2D20046E000E0324D96EF1
:105BAA00040E0420DA6E1F0EDF6E070E2C24056E1B
:105BBA00000E2D20066E000E0524E16E040E06204E
:105BCA00E26EDFCFE7FF0D0E2C24036E000E2D20B0
:105BDA00046E000E0324D96E040E0420DA6E200E21
:105BEA00DF6E080E2C24056E000E2D20066E000EA8
:105BFA000524E16E040E0620E26EDFCFE7FF0C0EED
:105C0A002C24036E000E2D20046E000E0324D96E80
:105C1A00040E0420DA6E400EDF6E090E2C24056E87
:105C2A00000E2D20066E000E0524E16E040E0620DD
:105C3A00E26EDFCFE7FF0B0E2C24036E000E2D2041
:105C4A00046E000E0324D96E040E0420DA6E800E50
:105C5A00DF6E0A0E2C24056E000E2D20066E000E35
:105C6A000524E16E040E0620E26EDFCFE7FF110E77
:105C7A002C24036E000E2D20046E000E0324D96E10
:105C8A00040E0420DA6EFF0EDF6E100E2C24056E51
:105C9A00000E2D20066E000E0524E16E040E06206D
:105CAA00E26EDFCFE7FF130E2C24036E000E2D20C9
:105CBA00046E000E0324D96E040E0420DA6EFF0E61
:105CCA00DF6E170E2C24036E000E2D20046E000EBC
:105CDA000324D96E040E0420DA6E810EDF6E160ECE
:105CEA002C24056E000E2D20066E000E0524E16E92
:105CFA00040E0620E26EDFCFE7FF150E2C24076E96
:105D0A00000E2D20086E000E0724D96E040E0820FE
:105D1A00DA6EE7CFDFFF140E2C24096E000E2D2059
:105D2A000A6E000E0924E16E040E0A20E26EDFCF2D
:105D3A00E7FF1F0E2C24036E000E2D20046E000EAA
:105D4A000324D96E040E0420DA6E010EDF6E1E0ED5
:105D5A002C24056E000E2D20066E000E0524E16E21
:105D6A00040E0620E26EDFCFE7FF1D0E2C24076E1D
:105D7A00000E2D20086E000E0724D96E040E08208E
:105D8A00DA6EE7CFDFFF1B0E2C24096E000E2D20E2
:105D9A000A6E000E0924E16E040E0A20E26EDFCFBD
:105DAA00E7FF1A0E2C240B6E000E2D200C6E000E2F
:105DBA000B24D96E040E0C20DA6EE7CFDFFF190E22
:105DCA002C240D6E000E2D200E6E000E0D24E16E99
:105DDA00040E0E20E26EDFCFE7FF1C0E2C24036EAA
:105DEA00000E2D20046E000E0324D96E040E04202A
:105DFA00DA6EFF0EDF6E040E2C242C6E000E2D20A0
:105E0A002D6E230E2C24036E000E2D20046E000E20
:105E1A000324D96E040E0420DA6EFF0EDF6E1E0E06
:105E2A002C24056E000E2D20066E000E0524E16E50
:105E3A00040E0620E26EDFCFE7FF220E2C24036E4B
:105E4A00000E2D20046E000E0324D96E040E0420C9
:105E5A00DA6E810EDF6E210E2C24056E000E2D20C7
:105E6A00066E000E0524E16E040E0620E26EDFCFF8
:105E7A00E7FF200E2C24076E000E2D20086E000E60
:105E8A000724D96E040E0820DA6EE7CFDFFF1F0E53
:105E9A002C24096E000E2D200A6E000E0924E16ED4
:105EAA00040E0A20E26EDFCFE7FF020E2C242C6ECE
:105EBA00000E2D202D6E250E2C24036E000E2D2093
:105ECA00046E000E0324D96E040E0420DA6EFF0E4F
:105EDA00DF6E240E2C24056E000E2D20066E000E99
:105EEA000524E16E040E0620E26EDFCFE7FF270EDF
:105EFA002C24036E000E2D20046E000E0324D96E8E
:105F0A00040E0420DA6EFF0EDF6E280E2C24036EB8
:105F1A00000E2D20046E000E0324D96E040E0420F8
:105F2A00DA6E110EDF6E290E2C24036E000E2D2060
:105F3A00046E000E0324D96E040E0420DA6E310EAC
:105F4A00DF6E2A0E2C24036E000E2D20046E000E26
:105F5A000324D96E040E0420DA6E4A0EDF6E2B0E6D
:105F6A002C24036E000E2D20046E000E0324D96E1D
:105F7A00040E0420DA6E840EDF6E2D0E2C24036EBE
:105F8A00000E2D20046E000E0324D96E040E042088
:105F9A00DA6EFF0EDF6E300E2C24036E000E2D20FB
:105FAA00046E000E0324D96E040E0420DA6E910EDC
:105FBA00DF6E2F0E2C24056E000E2D20066E000EAD
:105FCA000524E16E040E0620E26EDFCFE7FF2E0EF7
:105FDA002C24076E000E2D20086E000E0724D96EA1
:105FEA00040E0820DA6EE7CFDFFF02EF30F002EF8F
:105FFA0030F002EF30F002EF30F0640E1D181E1080
:10600A00D8A40AEF30F00CEF30F01AEF30F0000E9F
:10601A00206E010E1F6E000E1E6E000E1D6E34C025
:10602A0028F035C029F01AEF30F01D4A1E2A1F0445
:10603A002010D8A423EF30F025EF30F03AEF31F0FA
:10604A00000E3424D96E040E3520DA6EDF50D8A43F
:10605A0031EF30F033EF30F0C1EF30F0030E34247B
:10606A00036E000E3520046E000E0324D96E040E52
:10607A000420DA6EDF50D8A445EF30F047EF30F055
:10608A00C1EF30F0020E3424036E000E3520046E88
:10609A00000E0324D96E040E0420DA6EDF50D8A451
:1060AA0059EF30F05BEF30F0C1EF30F0010E3424DD
:1060BA00036E000E3520046E000E0324D96E040E02
:1060CA000420DA6EDF50D8A46DEF30F06FEF30F0B5
:1060DA00C1EF30F0FF0E036EFF0E046E34C005F000
:1060EA0035C006F00350052604500622000E05248A
:1060FA00D96E040E0620DA6EDF50D8A487EF30F08E
:10610A0089EF30F0C1EF30F0FE0E036EFF0E046E21
:10611A0034C005F035C006F00350052604500622A7
:10612A00000E0524D96E040E0620DA6EDF50D8A4BC
:10613A00A1EF30F0A3EF30F0C1EF30F0FD0E036EA7
:10614A00FF0E046E34C005F035C006F00350052674
:10615A0004500622000E0524D96E040E0620DA6EBB
:10616A00DF50D8A4BBEF30F0BDEF30F0C1EF30F014
:10617A000AEF31F00AEF31F0800E2824036E000E88
:10618A002920046E000E0324D96E040E0420DA6E50
:10619A00FF0EDF6E810E2824036E000E2920046E86
:1061AA00000E0324D96E040E0420DA6EFF0EDF6E91
:1061BA0013041410D8A4E4EF30F0E6EF30F0FEEF49
:1061CA0030F0000E2824D96E040E2920DA6E000E53
:1061DA00DF6E010E2824036E000E2920046E000EC5
:1061EA000324D96E040E0420DA6E000EDF6EFEEF71
:1061FA0030F0000E146E010E136E800E2824286EE5
:10620A00000E2920296E0AEF31F029BE16EF31F06F
:10621A00810E285C030E2958D8A016EF31F018EF2A
:10622A0031F03AEF31F0000E2824D96E040E2920FD
:10623A00DA6E000EDF6E010E2824036E000E29208E
:10624A00046E000E0324D96E040E0420DA6E000ECA
:10625A00DF6E000E206E000E1F6E000E146E000E12
:10626A00136E3AEF31F03AEF31F081AC3FEF31F093
:10627A0041EF31F04BEF31F0000E1C6E010E1B6E38
:10628A0036C02AF037C02BF04BEF31F01B041C103C
:10629A00D8A452EF31F054EF31F0C9EF32F0800E4A
:1062AA00036EFF0E046E2AC005F02BC006F00350E1
:1062BA00052604500622000E0524D96E040E062077
:1062CA00DA6EFF0EDF6E7F0E036EFF0E046E2AC0BB
:1062DA0005F02BC006F00350052604500622000ED6
:1062EA000524D96E040E0620DA6EFF0EDF6E810ECB
:1062FA00036EFF0E046E2AC005F02BC006F0035091
:10630A00052604500622000E0524D96E040E062026
:10631A00DA6EFF0EDF6E820E036EFF0E046E2AC067
:10632A0005F02BC006F00350052604500622000E85
:10633A000524D96E040E0620DA6EFF0EDF6E7E0E7D
:10634A00036EFF0E046E2AC005F02BC006F0035040
:10635A00052604500622000E0524D96E040E0620D6
:10636A00DA6EFF0EDF6E21042210D8A4BFEF31F0DF
:10637A00C1EF31F00FEF32F0000E2A24D96E040E6D
:10638A002B20DA6E000EDF6E010E2A24036E000E39
:10639A002B20046E000E0324D96E040E0420DA6E3C
:1063AA00000EDF6EFF0E036EFF0E046E2AC005F0AC
:1063BA002BC006F00350052604500622000E0524C1
:1063CA00D96E040E0620DA6E000EDF6E020E2A2443
:1063DA00036E000E2B20046E000E0324D96E040EE9
:1063EA000420DA6E000EDF6EFE0E036EFF0E046EE0
:1063FA002AC005F02BC006F00350052604500622D9
:10640A00000E0524D96E040E0620DA6E000EDF6E29
:10641A000FEF32F0000E226E010E216E800E2A243A
:10642A002A6EFF0E2B202B6E2BBE27EF32F02B503D
:10643A0007E1810E2A5CD8B025EF32F027EF32F05F
:10644A007BEF32F0000E2A24D96E040E2B20DA6E6E
:10645A00000EDF6E010E2A24036E000E2B20046E3E
:10646A00000E0324D96E040E0420DA6E000EDF6ECD
:10647A00FF0E036EFF0E046E2AC005F02BC006F055
:10648A000350052604500622000E0524D96E040E78
:10649A000620DA6E000EDF6E020E2A24036E000E4C
:1064AA002B20046E000E0324D96E040E0420DA6E2B
:1064BA00000EDF6EFE0E036EFF0E046E2AC005F09C
:1064CA002BC006F00350052604500622000E0524B0
:1064DA00D96E040E0620DA6E000EDF6E000E1C6EF8
:1064EA00000E1B6E000E226E000E216E000E362468
:1064FA00D96E040E3720DA6EFF0EDF6E010E3624D7
:10650A00036E000E3720046E000E0324D96E040EAB
:10651A000420DA6EFC0EDF6EFF0E056EFF0E066EAD
:10652A0036C007F037C008F0055007260650082283
:10653A00000E0724E16E040E0820E26EDFCFE7FFAB
:10654A00020E3624036E000E3720046E000E03245A
:10655A00D96E040E0420DA6EF00EDF6EFE0E056EA2
:10656A00FF0E066E36C007F037C008F00550072642
:10657A0006500822000E0724E16E040E0820E26E7F
:10658A00DFCFE7FFC9EF32F084A0CEEF32F0D0EFD1
:10659A0032F082EF33F037BEDEEF32F0FD0E365CBA
:1065AA00030E3758D8B0DCEF32F0DEEF32F082EF6C
:1065BA0033F0020E3624036E000E3720046E000EEE
:1065CA000324D96E040E0420DA6E030E3624056EF7
:1065DA00000E3720066E000E0524E16E040E06201A
:1065EA00E26EDFCFE7FF010E3624036E000E37207E
:1065FA00046E000E0324D96E040E0420DA6E020E15
:10660A003624056E000E3720066E000E0524E16E54
:10661A00040E0620E26EDFCFE7FF000E3624D96EA5
:10662A00040E3720DA6EFF0EDF6E010E3624036E7B
:10663A00000E3720046E000E0324E16E040E0420BF
:10664A00E26EDFCFE7FFFF0E036EFF0E046E36C069
:10665A0005F037C006F00350052604500622000E46
:10666A000524D96E040E0620DA6E000E3624E16E79
:10667A00040E3720E26EDFCFE7FFFE0E036EFF0E39
:10668A00046E36C005F037C006F0035005260450E4
:10669A000622000E0524D96E040E0620DA6EFF0EBD
:1066AA00076EFF0E086E36C009F037C00AF00750B1
:1066BA00092608500A22000E0924E16E040E0A2057
:1066CA00E26EDFCFE7FFFE0E036EFF0E046E36C0EA
:1066DA0005F037C006F00350052604500622000EC6
:1066EA000524D96E040E0620DA6E000EDF6E364AD5
:1066FA00372A82EF33F082EF33F084A287EF33F048
:10670A0089EF33F042EF34F037BE95EF33F0810E64
:10671A00365C030E3758D8A095EF33F097EF33F075
:10672A0042EF34F0FE0E036EFF0E046E36C005F023
:10673A0037C006F00350052604500622000E052431
:10674A00D96E040E0620DA6EFD0E076EFF0E086E75
:10675A0036C009F037C00AF00750092608500A2245
:10676A00000E0924E16E040E0A20E26EDFCFE7FF75
:10677A00FF0E036EFF0E046E36C005F037C006F03A
:10678A000350052604500622000E0524D96E040E75
:10679A000620DA6EFE0E076EFF0E086E36C009F08E
:1067AA0037C00AF00750092608500A22000E0924A9
:1067BA00E16E040E0A20E26EDFCFE7FF000E3624F8
:1067CA00D96E040E3720DA6EFF0EDF6EFF0E036EEF
:1067DA00FF0E046E36C005F037C006F003500526DA
:1067EA0004500622000E0524E16E040E0620E26E15
:1067FA00DFCFE7FF010E3624036E000E3720046E4A
:10680A00000E0324D96E040E0420DA6E000E36241C
:10681A00E16E040E3720E26EDFCFE7FF020E362468
:10682A00036E000E3720046E000E0324D96E040E88
:10683A000420DA6E010E3624056E000E3720066E2D
:10684A00000E0524E16E040E0620E26EDFCFE7FF9C
:10685A00020E3624036E000E3720046E000E032447
:10686A00D96E040E0420DA6E000EDF6E3606D8A04A
:10687A00370642EF34F042EF34F084A447EF34F0A5
:10688A0049EF34F0ECEF34F0B5EF34F0B5EF34F013
:10689A00000E3624D96E040E3720DA6E010EDF6E32
:1068AA00ECEF34F0000E3624D96E040E3720DA6E7F
:1068BA00020EDF6EECEF34F0000E3624D96E040EB1
:1068CA003720DA6E040EDF6EECEF34F0000E362459
:1068DA00D96E040E3720DA6E080EDF6EECEF34F054
:1068EA00000E3624D96E040E3720DA6E100EDF6ED3
:1068FA00ECEF34F0000E3624D96E040E3720DA6E2F
:10690A00200EDF6EECEF34F0000E3624D96E040E42
:10691A003720DA6E400EDF6EECEF34F0000E3624CC
:10692A00D96E040E3720DA6E800EDF6E000E362422
:10693A00D96E040E3720DA6E000EDF6E800E362412
:10694A00366E000E3720376E000E3624D96E040ECE
:10695A003720DA6E010EDF6EECEF34F0ECEF34F034
:10696A00000E3624D96E040E3720DA6EDF50036E1D
:10697A00046A0450000AD8B4C5EF34F0ECEF34F0DE
:10698A000350000AD8B44DEF34F0010AD8B457EFD7
:10699A0034F0030AD8B461EF34F0060AD8B46BEFC6
:1069AA0034F00C0AD8B475EF34F0180AD8B47FEF73
:1069BA0034F0300AD8B489EF34F0600AD8B493EFCF
:1069CA0034F0C00AD8B49BEF34F0ECEF34F081AE67
:1069DA00F1EF34F0F3EF34F017EF23F05FEF35F017
:1069EA005FEF35F0000E3624D96E040E3720DA6ECA
:1069FA00800EDF6E17EF23F0000E3624D96E040ED8
:106A0A003720DA6E400EDF6E17EF23F0000E3624C1
:106A1A00D96E040E3720DA6E200EDF6E17EF23F0E0
:106A2A00000E3624D96E040E3720DA6E100EDF6E91
:106A3A0017EF23F0000E3624D96E040E3720DA6ED3
:106A4A00080EDF6E17EF23F0000E3624D96E040EFF
:106A5A003720DA6E040EDF6E17EF23F0000E3624AD
:106A6A00D96E040E3720DA6E020EDF6E17EF23F0AE
:106A7A00000E3624D96E040E3720DA6E010EDF6E50
:106A8A00000E3624D96E040E3720DA6E000EDF6E41
:106A9A00800E3624366EFF0E3720376E000E3624EF
:106AAA00D96E040E3720DA6E800EDF6E17EF23F0F0
:106ABA0017EF23F0000E3624D96E040E3720DA6E53
:106ACA00DF50036E046A0450000AD8B46FEF35F041
:106ADA0017EF23F00350000AD8B4F7EF34F0010A95
:106AEA00D8B445EF35F0030AD8B43DEF35F0060ABD
:106AFA00D8B433EF35F00C0AD8B429EF35F0180AB8
:106B0A00D8B41FEF35F0300AD8B415EF35F0600A63
:106B1A00D8B40BEF35F0C00AD8B401EF35F017EF4F
:106B2A0023F017EF23F017EF23F017EF23F01200EB
:106B3A00000000000000000000000000000000004B
:106B4A00000000000000000000000000000000003B
:106B5A00000000000000000000000000000000002B
:106B6A00000000000000000000000000000000001B
:106B7A00000000000000000000000000000000000B
:106B8A0000000000000000000000000000000000FB
:106B9A0000000000000000000000000000000000EB
:106BAA0000000000000000000000000000000000DB
:106BBA0000000000000000000000000000000000CB
:106BCA0000000000000000000000000000000000BB
:106BDA0000000000000000000000000000000000AB
:106BEA00000000000000000000000000000000009B
:106BFA00000000000000000000000000000000008B
:106C0A00000000000000000000000000000000007A
:106C1A00000000000000000000000000000000006A
:106C2A00000000000000000000000000000000005A
:106C3A0000000000000000000000065F5F06000080
:106C4A00000007070007070000147F7F147F7F14E6
:106C5A0000242E6B6B3A120000466630180C6662EE
:106C6A0000307A4F5D377A480004070300000000BD
:106C7A0000001C3E63410000000041633E1C00000E
:106C8A0000082A3E1C1C3E2A0808083E3E08080046
:106C9A00000080E0600000000008080808080800FA
:106CAA000000006060000000006030180C0603015C
:106CBA00003E7F71594D7F3E0040427F7F40400039
:106CCA0000627359496F660000226349497F3600A2
:106CDA0000181C16537F7F5000276745457D3900F1
:106CEA00003C7E4B4979300000030371790F07009D
:106CFA0000367F49497F360000064F49693F1E002A
:106D0A000000006666000000000080E666000000E1
:106D1A0000081C3663410000002424242424240093
:106D2A0000004163361C080000020351590F060097
:106D3A00003E7F415D5D1F1E007C7E13137E7C003A
:106D4A0000417F7F49497F36001C3E6341416322EF
:106D5A0000417F7F41633E1C00417F7F495D416363
:106D6A0000417F7F491D0103001C3E63415173723C
:106D7A00007F7F08087F7F000000417F7F4100007D
:106D8A0000307040417F3F0100417F7F081C7763DC
:106D9A0000417F7F41406070007F7F0E1C0E7F7F25
:106DAA00007F7F060C187F7F001C3E6341633E1CF8
:106DBA0000417F7F49090F06001E3F21717F5E0057
:106DCA0000417F7F09197F6600266F4D5973320093
:106DDA000003417F7F410300007F7F40407F7F00A7
:106DEA00001F3F60603F1F00007F7F3018307F7FA9
:106DFA000043673C183C674300074F78784F070009
:106E0A0000476371594D677300007F7F414100005D
:106E1A00000103060C183060000041417F7F00002A
:106E2A0000080C0603060C080080808080808080A1
:106E3A00800000030704000000207454543C78408A
:106E4A0000417F3F4848783000387C44446C280031
:106E5A0000307848493F7F4000387C54545C180021
:106E6A0000487E7F490302000098BCA4A4F87C0471
:106E7A0000417F7F08047C780000447D7D4000004B
:106E8A000060E08080FD7D0000417F7F10386C4407
:106E9A000000417F7F400000007C7C18381C7C7811
:106EAA00007C7C04047C780000387C44447C3800F4
:106EBA000084FCF8A4243C1800183C24A4F8FC84A0
:106ECA0000447C784C041C1800485C545474240018
:106EDA000000043E7F442400003C7C40403C7C404F
:106EEA00001C3C60603C1C00003C7C7038707C3CA0
:106EFA0000446C3810386C44009CBCA0A0FC7C0098
:106F0A00004C64745C4C64000008083E7741410000
:106F1A000000000077770000004141773E08080032
:106F2A0000020301030203010070784C464C78709A
:106F3A00000E9F91B1FB4A00003A7A40407A7A40AB
:106F4A0000387C54555D19000002237555557D7B28
:106F5A0042217554547D794000217555547C7840FE
:106F6A0000207457577C784000183CA4A4E44000E1
:106F7A0000023B7D55555D1B02397D54545D190055
:106F8A0000397D55545C18000001457C7C410100A4
:106F9A00000203457D7D43020001457D7C400000DF
:106FAA0000797D1612167D790070782B2B78700087
:106FBA0000447C7C5555450000207454547C7C5414
:106FCA00547C7E0B097F7F4900327B49497B320022
:106FDA0000327A48487A320000327A4A48783000D9
:106FEA00003A7B41417B7A40003A7A4240787840C5
:106FFA00009ABAA0A0FA7A000001193C66663C1908
:10700A00013D7D40407D3D0000183C24E7E72424F3
:10701A0000687E7F49436620002B2FFCFC2F2B0043
:10702A0000FFFF09092FF6F8A040C088FE7F090378
:10703A0002207454557D79400000447D7D41000052
:10704A00003078484A7A320000387840427A7A40EA
:10705A00007A7A0A0A7A7000007D7D19317D7D00F6
:10706A000000262F292F2F280000262F292F26003F
:10707A000030784D456020000038380808080800BC
:10708A000008080808383800004F6F3018CCEEBBEB
:10709A00914F6F30186C76FBF90000007B7B000083
:1070AA0000081C3622081C362222361C0822361CEE
:1070BA0008AA005500AA005500AA55AA55AA55AA19
:1070CA0055DDFFAA77DDAAFF77000000FFFF000069
:1070DA0000101010FFFF000000141414FFFF00003E
:1070EA00001010FFFF00FFFF001010F0F010F0F08A
:1070FA0000141414FCFC0000001414F7F700FFFF3E
:10710A00000000FFFF00FFFF001414F4F404FCFC6D
:10711A000014141717101F1F0010101F1F101F1F15
:10712A00001414141F1F000000101010F0F00000CB
:10713A00000000001F1F1010101010101F1F101049
:10714A0010101010F0F0101010000000FFFF1010C7
:10715A00101010101010101010101010FFFF101047
:10716A0010000000FFFF1414140000FFFF00FFFFCF
:10717A001000001F1F101717140000FCFC04F4F481
:10718A001414141717101717141414F4F404F4F43D
:10719A00140000FFFF00F7F7141414141414141445
:1071AA00141414F7F700F7F7141414141717141417
:1071BA001410101F1F101F1F10141414F4F41414A9
:1071CA00141010F0F010F0F01000001F1F101F1F15
:1071DA00100000001F1F141414000000FCFC1414FB
:1071EA00140000F0F010F0F0101010FFFF10FFFF75
:1071FA0010141414FFFF1414141010101F1F000091
:10720A0000000000F0F0101010FFFFFFFFFFFFFF6B
:10721A00FFF0F0F0F0F0F0F0F0FFFFFFFF000000E9
:10722A000000000000FFFFFFFF0F0F0F0F0F0F0FEF
:10723A000F387C446C386C4400FCFE2A2A3E140049
:10724A00007E7E020206060000027E7E027E7E022A
:10725A000063775D4963630000387C447C3C040426
:10726A000080FE7E20203E1E000406027E7C06026E
:10727A000099BDE7E7BD9900001C3E6B496B3E1CB7
:10728A00004C7E7301737E4C0030784A4F7D390082
:10729A0000183C243C3C243C1898FC643C3E273DA6
:1072AA0018000000000000000000000000000000BC
:1072BA0000000000000000000000000000000000C4
:1072CA0000000000000000000000000000000000B4
:1072DA0000000000000000000000000000000000A4
:1072EA000000000000000000000000000000000094
:1072FA000000000000000000000000000000000084
:10730A000000000000000000000000000000000073
:10731A000000000000000000000000000000000063
:10732A000000000000000000000000000000000053
:10733A000000000000000000000000000000000043
:10734A000000000000000000000000000000000033
:10735A000000000000000000000000000000000023
:10736A0000000000E0F0C8CCC4C2E2E2F2FEFEFE79
:10737A00FCB0000000000000000000000000000057
:10738A0000000000000000000000000000000000F3
:10739A0000000000000000000000000000000000E3
:1073AA0000000000000000000000000000000000D3
:1073BA0000000000000000000000000000000000C3
:1073CA0000000000000000000000000000000000B3
:1073DA0000000000000000000000000000000000A3
:1073EA0000000083CF5F3F3F3F3F3F3F3F3F1F3F8C
:1073FA003F3F7F788000000000000000000000008E
:10740A000000000000000000000000000000000072
:10741A000000000000000000000000000000000062
:10742A000000000000000000000000000000000052
:10743A000000000000000000000000000000000042
:10744A000000000000000000000000000000000032
:10745A0000000000000000000000000000000080A2
:10746A00C0884261F04280000800006022000800E3
:10747A00000000000103BC0080E0F0F8FCFCECF620
:10748A00F0783838181818080000000000000000CA
:10749A0000000000000000000000000000000000E2
:1074AA0000000000000000000000000000000000D2
:1074BA0000000000000000000000000000000000C2
:1074CA0000000000000000000000000000000000B2
:1074DA0000000000000000000000000000FC038320
:1074EA0082C6FAFAFCFCFAFFE20100000001000081
:1074FA000000000000F00708FFFFFFFFFFFFFFDFAB
:10750A00CFCF8F0F0F0F0E1C1830000000000000A5
:10751A000000000000000000000000000000000061
:10752A000000000000000000000000000000000051
:10753A000000000000000000000000000000000041
:10754A000000000000000000000000000000000031
:10755A0000000000000000000000608E01040F1F00
:10756A001F0F0F1F3F3F3F3F1F0300000000002077
:10757A00001000080808090A082B2B3337FF0303F9
:10758A0003071F7F10000000000000000000000039
:10759A0000000000000000000000000000000000E1
:1075AA0000000000000000000000000000000000D1
:1075BA0000000000000000000000000000000000C1
:1075CA0000000000000000000000000000000000B1
:1075DA00000000000000000000000007083060C042
:1075EA008000000000000000000000000000408051
:1075FA000000000000008080C060341A050300000B
:10760A000000000000000000000000000000000070
:10761A000000000000000000000000000000000060
:10762A000000000000000000000000000000000050
:10763A000000000000000000000000000000000040
:10764A000000000000000000000000000000000030
:10765A000000000000000000000000000000000020
:10766A00008182868C9C1428E8F8102040C0C04013
:10767A0020110905050502010000000000000000B4
:10768A0000000000000000000000000000000000F0
:10769A0000000000000000000000000000000000E0
:1076AA0000000000000000000000000000000000D0
:1076BA0000000000000000000000000000000000C0
:1076CA0000000000000000000000000000000000B0
:1076DA0000000000000000000000000000000000A0
:1076EA00030207050404050D0E1B3B6B4763632663
:1076FA003A12121C00000000000000000000000006
:10770A00000000000000000000000000000000006F
:10771A00000000000000000000000000000000005F
:10772A00000000000000000000000000000000004F
:10773A00000000000000000000000000000000003F
:107B3A0000FFFFFFFFFFFFFFFFFFFFFFFFFFFFFF4A
:107B4A00FFFFFFFFFFFFFFFFFFFFFFFFFFFFFFFF3B
:107B5A00FFFFFFFFFFFFFFFFFFFFFFFFFFFFFFFF2B
:107B6A00FFFFFFFFFFFFFFFFFFFFFFFFFFFFFFFF1B
:107B7A00FFFFFFFFFFFFFFFFFFFFFFFFFFFFFFFF0B
:107F2A00FF00000000000000000000000000000048
:107F3A0000000000005C000C000C7C287C7C447C67
:107F4A00241048285408000C003844004438002003
:107F5A001008103810804000101010004000201047
:107F6A0008384438007C006454484454281C107C67
:107F7A004C542438542004740C28542808543800CB
:107F8A0050008050001028442828284428100454FF
:107F9A0008384C5C7814787C54283844447C44383B
:107FAA007C54447C14043844347C107C007C0020CB
:107FBA00403C7C106C7C40407C087C7C047C7C448B
:107FCA007C7C14083844787C1468485424047C0463
:107FDA007C407C3C403C7C207C6C106C1C601C64AB
:107FEA00544C7C4400081020447C0008040880801B
:057FFA008004080000F6
:020000040020DA
:08000000FFFFFFFFFFFFFFFF00
:020000040030CA
:0E000000000C191EFF8381FF0FC00FE00F40A0
:00000001FF
