:020000040000FA
:0400000059EF19F0AB
:1032B20004EE00F014EE00F0EE6AE550E150FCE19D
:1032C200E250FAE1416A406A000EF86E00012AEF0C
:1032D2001AF00F0EC16E000EC26E000E926E000E3C
:1032E200936E000E946E000E956E000E966E000E9A
:1032F200806E000E816E000E826E000E836E000ED6
:10330200846E1200016E0150D8B48AEF19F08CEF6E
:1033120019F090EF19F08A808A9292EF19F08A924E
:103322008A8295688A868A8800D083CF02F08A983A
:1033320000D08A908A92025012000A6E0A50D8B4C3
:10334200A5EF19F0A7EF19F0ABEF19F08A808A9276
:10335200AFEF19F08A928A82AFEF19F0000E956EE4
:103362008A9609C08CFF8A8800D08A9800D08A90F9
:103372008A921200E1EF19F01650D8B4C3EF19F097
:10338200C5EF19F0D1EF19F017C00BF014C0F6FF1A
:1033920015C0F7FF0800F550FAEC1BF0DDEF19F04D
:1033A20017C00BF014C0F6FF15C0F7FF0800F55068
:1033B20090EC1CF0DDEF19F0144A152AE1EF19F038
:1033C20014C0F6FF15C0F7FF0800F5500009D8A495
:1033D200EDEF19F0EFEF19F0BDEF19F0F1EF19F081
:1033E20012000D6E000E0C6E800E0D60FBEF19F0D8
:1033F200FDEF19F029EF1AF0070E0B6403EF1AF034
:1034020005EF1AF009EF1AF029EF1AF029EF1AF076
:103412000DC041F00BC040F03F0E0D6413EF1AF0E7
:1034220015EF1AF01BEF1AF0400E0D5E010E0C6E36
:103432001BEF1AF08A940D504009096E0C509EEC55
:1034420019F00B50B809096E0C509EEC19F08A84E1
:103452001200000E846E6AEC19F0010E6BEC1AF089
:1034620032EC1DF0020E0B6EFF0E0C6E020E17EC0C
:103472001BF00A0E0B6E330EF2EC19F0E60E146E10
:103482007F0E156E010E166E010E176EBBEC19F053
:103492001E0E0B6E350EF2EC19F0F40E146E7F0E4A
:1034A200156E010E166E010E176EBBEC19F0320E80
:1034B2000B6E300EF2EC19F0C40E146E7F0E156E08
:1034C200010E166E010E176EBBEC19F067EF1AF0C3
:1034D20000EF00F00E6E000E836E8A9A210EE82E27
:1034E200FED700F08A8A8A988A908A928A9400D0BB
:1034F200C00E096E000E9EEC19F0C00E096E010E90
:103502009EEC19F0400E096E000E9EEC19F0400E72
:10351200096E010E9EEC19F0B80E096E000E9EECBB
:1035220019F0B80E096E010E9EEC19F00E04D8A423
:103532009DEF1AF09FEF1AF0ABEF1AF03F0E096EF3
:10354200000E9EEC19F03F0E096E010E9EEC19F072
:10355200B7EF1AF03E0E096E000E9EEC19F03E0E09
:10356200096E010E9EEC19F0B7EF1AF0000EBBECDB
:103572001AF012000B6E000E0D6E070E0D64C4EFF2
:103582001AF0C6EF1AF0CAEF1AF016EF1BF016EF98
:103592001BF08A94400E096E000E9EEC19F0400E4C
:1035A200096E010E9EEC19F00D50B809096E000E5D
:1035B2009EEC19F00D50B809096E010E9EEC19F03F
:1035C2008A84000E0C6E3F0E0C64EAEF1AF0ECEFE8
:1035D2001AF0F0EF1AF00BEF1BF00BEF1BF00B5091
:1035E200010DF3500008096E000E9EEC19F00B500D
:1035F200010DF3500008096E010E9EEC19F00C2A21
:103602003F0E0C6407EF1BF009EF1BF0F0EF1AF00E
:103612000BEF1BF00D2A070E0D6412EF1BF014EFD7
:103622001BF0CAEF1AF016EF1BF012000F6E000E1D
:10363200116E3F0E0F6420EF1BF022EF1BF028EFFC
:103642001BF0400E0F5E010E116E28EF1BF08A94E4
:103652000F9E0F8C0FC009F011509EEC19F00BC099
:1036620001F0026A000E046E080E036E84EC1BF079
:103672000150BF0BB809096E11509EEC19F08A84F3
:10368200115083EC19F0115083EC19F0106E8A94EA
:103692000FC009F011509EEC19F00C50D8B454EF41
:1036A2001BF056EF1BF069EF1BF00BC00DF0070E7D
:1036B2000D16010E0E6E0D2A61EF1BF0D8900E361C
:1036C2000D2E5FEF1BF00E501010106E7DEF1BF0F1
:1036D2000BC00DF0070E0D16010E0E6E0D2A74EFC3
:1036E2001BF0D8900E360D2E72EF1BF00E50FF0A13
:1036F2001014106E7DEF1BF08A8410C009F0115077
:103702009EEC19F01200000E066E04BE8DEF1BF047
:103712008BEF1BF095EF1BF0036C041ED8B0042A4C
:10372200010E066E95EF1BF002BE9CEF1BF09AEFA6
:103732001BF0A4EF1BF0016C021ED8B0022A010E8E
:10374200061AA4EF1BF0000E086E000E076E03505F
:103752000410D8B4AFEF1BF0B1EF1BF0E5EF1BF094
:10376200010E056EBBEF1BF0D89003360436052A16
:10377200BBEF1BF004AEC0EF1BF0C2EF1BF0B5EFC6
:103782001BF0C6EF1BF0C6EF1BF0D89007360836C9
:103792000350015C04500258D8A0D2EF1BF0D4EFC2
:1037A2001BF0DBEF1BF00350015E0450025A07804E
:1037B200DBEF1BF0D89004320332052EC6EF1BF06C
:1037C200E5EF1BF0E5EF1BF00650D8B4EBEF1BF072
:1037D200EDEF1BF0F3EF1BF0076C081ED8B0082AC0
:1037E200F3EF1BF007C001F008C002F0F9EF1BF085
:1037F2001200106E000E136E0A0E1018D8A404EFF9
:103802001CF006EF1CF00DEF1CF0000E416E402A7A
:103812008FEF1CF08FEF1CF03F0E416413EF1CF092
:1038220015EF1CF01CEF1CF0010E136E4150C00F7F
:10383200116E20EF1CF041C011F020EF1CF010506F
:10384200080DF3CF0EF0F4CF0FF0000E126E070E3C
:1038520012642EEF1CF030EF1CF034EF1CF08DEFF1
:103862001CF08DEF1CF03F0E11643AEF1CF03CEFA0
:103872001CF050EF1CF0400E115E010E136E8A9484
:1038820011504009096E13509EEC19F04050B809CE
:10389200096E13509EEC19F08A8450EF1CF00B5005
:1038A200D8B456EF1CF058EF1CF06CEF1CF012501D
:1038B2000E240C6E000E0F200D6E010E0C24F66EFF
:1038C2006B0E0D20F76E0800F5CF09F013509EEC39
:1038D20019F081EF1CF012500E240C6E000E0F2016
:1038E2000D6E010E0C24F66E6B0E0D20F76E0800A5
:1038F200F550FF0A096E13509EEC19F081EF1CF08F
:10390200112A122A070E126489EF1CF08BEF1CF0A9
:1039120034EF1CF08DEF1CF0080E412612000F6EE2
:10392200000E116E0A0E0F18D8A49AEF1CF09CEF2D
:103932001CF0A3EF1CF0000E416E402A31EF1DF087
:1039420031EF1DF03F0E4164A9EF1CF0ABEF1CF00C
:10395200B2EF1CF0010E116E4150C00F0E6EB6EFA9
:103962001CF041C00EF0B6EF1CF0200E0F5E000EF0
:10397200106E020E1064C0EF1CF0C2EF1CF0C6EF16
:103982001CF02FEF1DF02FEF1DF03F0E0E64CCEF59
:103992001CF0CEEF1CF0E2EF1CF0400E0E5E010EAA
:1039A200116E8A940E504009096E11509EEC19F066
:1039B2004050B809096E11509EEC19F08A84E2EF6A
:1039C2001CF00B50D8B4E8EF1CF0EAEF1CF006EF45
:1039D2001DF00F50030D010E0C6E7F0E0D6EF35095
:1039E2000C26F4500D221050010DF3500C26F45009
:1039F2000D220CC0F6FF0DC0F7FF0800F5CF09F04D
:103A020011509EEC19F023EF1DF00F50030D010E23
:103A12000C6E7F0E0D6EF3500C26F4500D221050DA
:103A2200010DF3500C26F4500D220CC0F6FF0DC010
:103A3200F7FF0800F550FF0A096E11509EEC19F0CD
:103A420023EF1DF00E2A102A020E10642BEF1DF038
:103A52002DEF1DF0C6EF1CF02FEF1DF0050E4126D5
:103A62001200030E3D6EE80E3C6E000E376E050E20
:103A7200366E000E3F6EFC0E3E6E000E396E7B0EF1
:103A8200386E000E3B6E850E3A6E000E1A6E000EF8
:103A9200196E000E1C6E000E1B6E000E1E6E000EC6
:103AA2001D6E000E206E000E1F6E000E226E000EA6
:103AB200216E000E246E000E236E000E2D6E000E7F
:103AC2002C6E010E356EA20E346E000E266E000EA6
:103AD200256E000E286E000E276E000E316E000E4F
:103AE200306E000E2A6E000E296E000E3624D96E3C
:103AF200040E3720DA6E3C0EDF6E010E36240B6E9A
:103B0200000E37200C6E000E0B24D96E040E0C2012
:103B1200DA6EB40EDF6EFF0E0D6EFF0E0E6E36C045
:103B22000FF037C010F00D500F260E501022000E6D
:103B32000F24E16E040E1020E26EDFCFE7FF020ECB
:103B420036240B6E000E37200C6E000E0B24D96E3D
:103B5200040E0C20DA6ECA0EDF6EFE0E0D6EFF0E24
:103B62000E6E36C00FF037C010F00D500F260E50FB
:103B72001022000E0F24E16E040E1020E26EDFCF41
:103B8200E7FF030E36240B6E000E37200C6E000E7C
:103B92000B24D96E040E0C20DA6E190EDF6EFD0EA8
:103BA2000D6EFF0E0E6E36C00FF037C010F00D50C6
:103BB2000F260E501022000E0F24E16E040E10206C
:103BC200E26EDFCFE7FF000E3E24D96E040E3F20E7
:103BD200DA6E3C0EDF6E010E3E240B6E000E3F20AD
:103BE2000C6E000E0B24D96E040E0C20DA6EB40E8D
:103BF200DF6EFF0E0D6EFF0E0E6E3EC00FF03FC069
:103C020010F00D500F260E501022000E0F24E16E00
:103C1200040E1020E26EDFCFE7FF020E3E240B6E91
:103C2200000E3F200C6E000E0B24D96E040E0C20E9
:103C3200DA6ECA0EDF6EFE0E0D6EFF0E0E6E3EC007
:103C42000FF03FC010F00D500F260E501022000E44
:103C52000F24E16E040E1020E26EDFCFE7FF030EA9
:103C62003E240B6E000E3F200C6E000E0B24D96E0C
:103C7200040E0C20DA6E190EDF6EFD0E0D6EFF0EB5
:103C82000E6E3EC00FF03FC010F00D500F260E50CA
:103C92001022000E0F24E16E040E1020E26EDFCF20
:103CA200E7FF000E3824D96E040E3920DA6E3C0E7E
:103CB200DF6E010E38240B6E000E39200C6E000EE2
:103CC2000B24D96E040E0C20DA6EB40EDF6EFF0EDA
:103CD2000D6EFF0E0E6E38C00FF039C010F00D5091
:103CE2000F260E501022000E0F24E16E040E10203B
:103CF200E26EDFCFE7FF020E38240B6E000E392092
:103D02000C6E000E0B24D96E040E0C20DA6ECA0E55
:103D1200DF6EFE0E0D6EFF0E0E6E38C00FF039C054
:103D220010F00D500F260E501022000E0F24E16EDF
:103D3200040E1020E26EDFCFE7FF030E38240B6E75
:103D4200000E39200C6E000E0B24D96E040E0C20CE
:103D5200DA6E190EDF6EFD0E0D6EFF0E0E6E38C09E
:103D62000FF039C010F00D500F260E501022000E29
:103D72000F24E16E040E1020E26EDFCFE7FF000E8B
:103D82003A24D96E040E3B20DA6E3C0EDF6E010E31
:103D92003A240B6E000E3B200C6E000E0B24D96EE3
:103DA200040E0C20DA6EB40EDF6EFF0E0D6EFF0EE7
:103DB2000E6E3AC00FF03BC010F00D500F260E50A1
:103DC2001022000E0F24E16E040E1020E26EDFCFEF
:103DD200E7FF020E3A240B6E000E3B200C6E000E23
:103DE2000B24D96E040E0C20DA6ECA0EDF6EFE0EA4
:103DF2000D6EFF0E0E6E3AC00FF03BC010F00D506C
:103E02000F260E501022000E0F24E16E040E102019
:103E1200E26EDFCFE7FF030E3A240B6E000E3B206B
:103E22000C6E000E0B24D96E040E0C20DA6E190EE5
:103E3200DF6EFD0E0D6EFF0E0E6E3AC00FF03BC030
:103E420010F00D500F260E501022000E0F24E16EBE
:103E5200040E1020E26EDFCFE7FF000E3C24D96E85
:103E6200040E3D20DA6EFF0EDF6E010E3C240B6E57
:103E7200000E3D200C6E000E0B24D96E040E0C2099
:103E8200DA6EFC0EDF6EFF0E0D6EFF0E0E6E3CC084
:103E92000FF03DC010F00D500F260E501022000EF4
:103EA2000F24E16E040E1020E26EDFCFE7FF020E58
:103EB2003C240B6E000E3D200C6E000E0B24D96EBE
:103EC200040E0C20DA6EF00EDF6EFE0E0D6EFF0E8B
:103ED2000E6E3CC00FF03DC010F00D500F260E507C
:103EE2001022000E0F24E16E040E1020E26EDFCFCE
:103EF200E7FF7CEF1FF0000E186E000E176E000E2B
:103F02002E6E070E2E6488EF1FF08AEF1FF08EEFE1
:103F12001FF0E3EF1FF0E3EF1FF0000E2F6E010E14
:103F22002F6496EF1FF098EF1FF09CEF1FF0DAEF6F
:103F32001FF0DAEF1FF08A94400E096E2F509EECAC
:103F420019F02E50B809096E2F509EEC19F08A8490
:103F5200000E2B6E3F0E2B64B1EF1FF0B3EF1FF07C
:103F6200B7EF1FF0CFEF1FF0CFEF1FF0000E1724B7
:103F7200D96E040E1820DA6EDF50096E2F509EECB7
:103F820019F0174A182A2B2A3F0E2B64CBEF1FF089
:103F9200CDEF1FF0B7EF1FF0CFEF1FF02F2A010E6A
:103FA2002F64D6EF1FF0D8EF1FF09CEF1FF0DAEF6F
:103FB2001FF02E2A070E2E64E1EF1FF0E3EF1FF031
:103FC2008EEF1FF08A908A92BD0E3A183B10D8A449
:103FD200EDEF1FF0EFEF1FF0F5EF1FF0000E226E76
:103FE200010E216EF5EF1FF0840E3A183B10D8A493
:103FF200FDEF1FF0FFEF1FF005EF20F0000E226E25
:10400200000E216E05EF20F021502210D8A40CEFF3
:1040120020F00EEF20F0EEEF20F0030E3A240B6EAC
:10402200000E3B200C6E000E0B24D96E040E0C20E9
:10403200DA6E040E3A240D6E000E3B200E6E000E58
:104042000D24E16E040E0E20E26EDFCFE7FF020EBA
:104052003A240B6E000E3B200C6E000E0B24D96E20
:10406200040E0C20DA6E030E3A240D6E000E3B2075
:104072000E6E000E0D24E16E040E0E20E26EDFCFF6
:10408200E7FF010E3A240B6E000E3B200C6E000E71
:104092000B24D96E040E0C20DA6E020E3A240D6E39
:1040A200000E3B200E6E000E0D24E16E040E0E205B
:1040B200E26EDFCFE7FF000E3A24D96E040E3B20FA
:1040C200DA6E010E3A240B6E000E3B200C6E000ECF
:1040D2000B24E16E040E0C20E26EDFCFE7FFFF0E31
:1040E2000B6EFF0E0C6E3AC00DF03BC00EF00B5083
:1040F2000D260C500E22000E0D24D96E040E0E2039
:10410200DA6E000E3A24E16E040E3B20E26EDFCF3F
:10411200E7FFFE0E0B6EFF0E0C6E3AC00DF03BC0B9
:104122000EF00B500D260C500E22000E0D24D96EEF
:10413200040E0E20DA6EFF0E0F6EFF0E106E3AC0E6
:1041420011F03BC012F00F50112610501222000E37
:104152001124E16E040E1220E26EDFCFE7FFFD0EA6
:104162000B6EFF0E0C6E3AC00DF03BC00EF00B5002
:104172000D260C500E22000E0D24D96E040E0E20B8
:10418200DA6EFE0E0F6EFF0E106E3AC011F03BC0DB
:1041920012F00F50112610501222000E1124E16E5F
:1041A200040E1220E26EDFCFE7FFFD0E0B6EFF0E54
:1041B2000C6E3AC00DF03BC00EF00B500D260C50A9
:1041C2000E22000E0D24D96E040E0E20DA6E000EA1
:1041D200DF6E3A4A3B2AD5EF21F0FD0E0B6EFF0E41
:1041E2000C6E3AC00DF03BC00EF00B500D260C5079
:1041F2000E22000E0D24D96E040E0E20DA6EFC0E75
:104202000F6EFF0E106E3AC011F03BC012F00F504D
:10421200112610501222000E1124E16E040E1220FB
:10422200E26EDFCFE7FFFE0E0B6EFF0E0C6E3AC0A2
:104232000DF03BC00EF00B500D260C500E22000E5E
:104242000D24D96E040E0E20DA6EFD0E0F6EFF0ED7
:10425200106E3AC011F03BC012F00F5011261050F0
:104262001222000E1124E16E040E1220E26EDFCF44
:10427200E7FFFF0E0B6EFF0E0C6E3AC00DF03BC057
:104282000EF00B500D260C500E22000E0D24D96E8E
:10429200040E0E20DA6EFE0E0F6EFF0E106E3AC086
:1042A20011F03BC012F00F50112610501222000ED6
:1042B2001124E16E040E1220E26EDFCFE7FF000E42
:1042C2003A24D96E040E3B20DA6EFF0E0B6EFF0EFF
:1042D2000C6E3AC00DF03BC00EF00B500D260C5088
:1042E2000E22000E0D24E16E040E0E20E26EDFCFD0
:1042F200E7FF010E3A240B6E000E3B200C6E000EFF
:104302000B24D96E040E0C20DA6E000E3A24E16EF4
:10431200040E3B20E26EDFCFE7FF020E3A240B6E63
:10432200000E3B200C6E000E0B24D96E040E0C20E6
:10433200DA6E010E3A240D6E000E3B200E6E000E58
:104342000D24E16E040E0E20E26EDFCFE7FF030EB6
:104352003A240B6E000E3B200C6E000E0B24D96E1D
:10436200040E0C20DA6E020E3A240D6E000E3B2073
:104372000E6E000E0D24E16E040E0E20E26EDFCFF3
:10438200E7FF030E3A240B6E000E3B200C6E000E6C
:104392000B24D96E040E0C20DA6E000EDF6E3A0684
:1043A200D8A03B06D5EF21F0440E38183910D8A416
:1043B200DDEF21F0DFEF21F0E5EF21F0000E206EBE
:1043C200010E1F6EE5EF21F07C0E38183910D8A4CB
:1043D200EDEF21F0EFEF21F0F5EF21F0000E206E6E
:1043E200000E1F6EF5EF21F01F042010D8A4FCEF81
:1043F20021F0FEEF21F0DEEF22F0030E38240B6EE7
:10440200000E39200C6E000E0B24D96E040E0C2007
:10441200DA6E040E38240D6E000E39200E6E000E78
:104422000D24E16E040E0E20E26EDFCFE7FF020ED6
:1044320038240B6E000E39200C6E000E0B24D96E40
:10444200040E0C20DA6E030E38240D6E000E392095
:104452000E6E000E0D24E16E040E0E20E26EDFCF12
:10446200E7FF010E38240B6E000E39200C6E000E91
:104472000B24D96E040E0C20DA6E020E38240D6E57
:10448200000E39200E6E000E0D24E16E040E0E2079
:10449200E26EDFCFE7FF000E3824D96E040E39201A
:1044A200DA6E010E38240B6E000E39200C6E000EEF
:1044B2000B24E16E040E0C20E26EDFCFE7FFFF0E4D
:1044C2000B6EFF0E0C6E38C00DF039C00EF00B50A3
:1044D2000D260C500E22000E0D24D96E040E0E2055
:1044E200DA6E000E3824E16E040E3920E26EDFCF60
:1044F200E7FFFE0E0B6EFF0E0C6E38C00DF039C0DA
:104502000EF00B500D260C500E22000E0D24D96E0B
:10451200040E0E20DA6EFF0E0F6EFF0E106E38C004
:1045220011F039C012F00F50112610501222000E55
:104532001124E16E040E1220E26EDFCFE7FFFD0EC2
:104542000B6EFF0E0C6E38C00DF039C00EF00B5022
:104552000D260C500E22000E0D24D96E040E0E20D4
:10456200DA6EFE0E0F6EFF0E106E38C011F039C0FB
:1045720012F00F50112610501222000E1124E16E7B
:10458200040E1220E26EDFCFE7FFFD0E0B6EFF0E70
:104592000C6E38C00DF039C00EF00B500D260C50C9
:1045A2000E22000E0D24D96E040E0E20DA6E000EBD
:1045B200DF6E384A392AC5EF23F0FD0E0B6EFF0E6F
:1045C2000C6E38C00DF039C00EF00B500D260C5099
:1045D2000E22000E0D24D96E040E0E20DA6EFC0E91
:1045E2000F6EFF0E106E38C011F039C012F00F506E
:1045F200112610501222000E1124E16E040E122018
:10460200E26EDFCFE7FFFE0E0B6EFF0E0C6E38C0C0
:104612000DF039C00EF00B500D260C500E22000E7C
:104622000D24D96E040E0E20DA6EFD0E0F6EFF0EF3
:10463200106E38C011F039C012F00F501126105010
:104642001222000E1124E16E040E1220E26EDFCF60
:10465200E7FFFF0E0B6EFF0E0C6E38C00DF039C077
:104662000EF00B500D260C500E22000E0D24D96EAA
:10467200040E0E20DA6EFE0E0F6EFF0E106E38C0A4
:1046820011F039C012F00F50112610501222000EF4
:104692001124E16E040E1220E26EDFCFE7FF000E5E
:1046A2003824D96E040E3920DA6EFF0E0B6EFF0E1F
:1046B2000C6E38C00DF039C00EF00B500D260C50A8
:1046C2000E22000E0D24E16E040E0E20E26EDFCFEC
:1046D200E7FF010E38240B6E000E39200C6E000E1F
:1046E2000B24D96E040E0C20DA6E000E3824E16E13
:1046F200040E3920E26EDFCFE7FF020E38240B6E84
:10470200000E39200C6E000E0B24D96E040E0C2004
:10471200DA6E010E38240D6E000E39200E6E000E78
:104722000D24E16E040E0E20E26EDFCFE7FF030ED2
:1047320038240B6E000E39200C6E000E0B24D96E3D
:10474200040E0C20DA6E020E38240D6E000E392093
:104752000E6E000E0D24E16E040E0E20E26EDFCF0F
:10476200E7FF030E38240B6E000E39200C6E000E8C
:104772000B24D96E040E0C20DA6E000EDF6E3806A2
:10478200D8A03906C5EF23F0C00E3E183F10D8A4BA
:10479200CDEF23F0CFEF23F0D5EF23F0000E1E6E06
:1047A200010E1D6ED5EF23F0FC0E3E183F10D8A46B
:1047B200DDEF23F0DFEF23F0E5EF23F0000E1E6EB6
:1047C200000E1D6EE5EF23F01D041E10D8A4ECEFC1
:1047D20023F0EEEF23F0CEEF24F0030E3E240B6E17
:1047E200000E3F200C6E000E0B24D96E040E0C201E
:1047F200DA6E040E3E240D6E000E3F200E6E000E89
:104802000D24E16E040E0E20E26EDFCFE7FF020EF2
:104812003E240B6E000E3F200C6E000E0B24D96E50
:10482200040E0C20DA6E030E3E240D6E000E3F20A5
:104832000E6E000E0D24E16E040E0E20E26EDFCF2E
:10484200E7FF010E3E240B6E000E3F200C6E000EA1
:104852000B24D96E040E0C20DA6E020E3E240D6E6D
:10486200000E3F200E6E000E0D24E16E040E0E208F
:10487200E26EDFCFE7FF000E3E24D96E040E3F202A
:10488200DA6E010E3E240B6E000E3F200C6E000EFF
:104892000B24E16E040E0C20E26EDFCFE7FFFF0E69
:1048A2000B6EFF0E0C6E3EC00DF03FC00EF00B50B3
:1048B2000D260C500E22000E0D24D96E040E0E2071
:1048C200DA6E000E3E24E16E040E3F20E26EDFCF70
:1048D200E7FFFE0E0B6EFF0E0C6E3EC00DF03FC0EA
:1048E2000EF00B500D260C500E22000E0D24D96E28
:1048F200040E0E20DA6EFF0E0F6EFF0E106E3EC01B
:1049020011F03FC012F00F50112610501222000E6B
:104912001124E16E040E1220E26EDFCFE7FFFD0EDE
:104922000B6EFF0E0C6E3EC00DF03FC00EF00B5032
:104932000D260C500E22000E0D24D96E040E0E20F0
:10494200DA6EFE0E0F6EFF0E106E3EC011F03FC00B
:1049520012F00F50112610501222000E1124E16E97
:10496200040E1220E26EDFCFE7FFFD0E0B6EFF0E8C
:104972000C6E3EC00DF03FC00EF00B500D260C50D9
:104982000E22000E0D24D96E040E0E20DA6E000ED9
:10499200DF6E3E4A3F2AB5EF25F0FD0E0B6EFF0E8D
:1049A2000C6E3EC00DF03FC00EF00B500D260C50A9
:1049B2000E22000E0D24D96E040E0E20DA6EFC0EAD
:1049C2000F6EFF0E106E3EC011F03FC012F00F507E
:1049D200112610501222000E1124E16E040E122034
:1049E200E26EDFCFE7FFFE0E0B6EFF0E0C6E3EC0D7
:1049F2000DF03FC00EF00B500D260C500E22000E93
:104A02000D24D96E040E0E20DA6EFD0E0F6EFF0E0F
:104A1200106E3EC011F03FC012F00F501126105020
:104A22001222000E1124E16E040E1220E26EDFCF7C
:104A3200E7FFFF0E0B6EFF0E0C6E3EC00DF03FC087
:104A42000EF00B500D260C500E22000E0D24D96EC6
:104A5200040E0E20DA6EFE0E0F6EFF0E106E3EC0BA
:104A620011F03FC012F00F50112610501222000E0A
:104A72001124E16E040E1220E26EDFCFE7FF000E7A
:104A82003E24D96E040E3F20DA6EFF0E0B6EFF0E2F
:104A92000C6E3EC00DF03FC00EF00B500D260C50B8
:104AA2000E22000E0D24E16E040E0E20E26EDFCF08
:104AB200E7FF010E3E240B6E000E3F200C6E000E2F
:104AC2000B24D96E040E0C20DA6E000E3E24E16E29
:104AD200040E3F20E26EDFCFE7FF020E3E240B6E94
:104AE200000E3F200C6E000E0B24D96E040E0C201B
:104AF200DA6E010E3E240D6E000E3F200E6E000E89
:104B02000D24E16E040E0E20E26EDFCFE7FF030EEE
:104B12003E240B6E000E3F200C6E000E0B24D96E4D
:104B2200040E0C20DA6E020E3E240D6E000E3F20A3
:104B32000E6E000E0D24E16E040E0E20E26EDFCF2B
:104B4200E7FF030E3E240B6E000E3F200C6E000E9C
:104B52000B24D96E040E0C20DA6E000EDF6E3E06B8
:104B6200D8A03F06B5EF25F0400E36183710D8A46E
:104B7200BDEF25F0BFEF25F0C5EF25F0000E1A6E50
:104B8200010E196EC5EF25F0040E36183710D8A4A1
:104B9200CDEF25F0CFEF25F0D5EF25F0000E1A6E00
:104BA200000E196ED5EF25F019501A10D8A4DCEFBB
:104BB20025F0DEEF25F0BEEF26F0030E36240B6E55
:104BC200000E37200C6E000E0B24D96E040E0C2042
:104BD200DA6E040E36240D6E000E37200E6E000EB5
:104BE2000D24E16E040E0E20E26EDFCFE7FF020E0F
:104BF20036240B6E000E37200C6E000E0B24D96E7D
:104C0200040E0C20DA6E030E36240D6E000E3720D1
:104C12000E6E000E0D24E16E040E0E20E26EDFCF4A
:104C2200E7FF010E36240B6E000E37200C6E000ECD
:104C32000B24D96E040E0C20DA6E020E36240D6E91
:104C4200000E37200E6E000E0D24E16E040E0E20B3
:104C5200E26EDFCFE7FF000E3624D96E040E372056
:104C6200DA6E010E36240B6E000E37200C6E000E2B
:104C72000B24E16E040E0C20E26EDFCFE7FFFF0E85
:104C82000B6EFF0E0C6E36C00DF037C00EF00B50DF
:104C92000D260C500E22000E0D24D96E040E0E208D
:104CA200DA6E000E3624E16E040E3720E26EDFCF9C
:104CB200E7FFFE0E0B6EFF0E0C6E36C00DF037C016
:104CC2000EF00B500D260C500E22000E0D24D96E44
:104CD200040E0E20DA6EFF0E0F6EFF0E106E36C03F
:104CE20011F037C012F00F50112610501222000E90
:104CF2001124E16E040E1220E26EDFCFE7FFFD0EFB
:104D02000B6EFF0E0C6E36C00DF037C00EF00B505E
:104D12000D260C500E22000E0D24D96E040E0E200C
:104D2200DA6EFE0E0F6EFF0E106E36C011F037C037
:104D320012F00F50112610501222000E1124E16EB3
:104D4200040E1220E26EDFCFE7FFFD0E0B6EFF0EA8
:104D52000C6E36C00DF037C00EF00B500D260C5005
:104D62000E22000E0D24D96E040E0E20DA6E000EF5
:104D7200DF6E364A372AA5EF27F0FD0E0B6EFF0EC7
:104D82000C6E36C00DF037C00EF00B500D260C50D5
:104D92000E22000E0D24D96E040E0E20DA6EFC0EC9
:104DA2000F6EFF0E106E36C011F037C012F00F50AA
:104DB200112610501222000E1124E16E040E122050
:104DC200E26EDFCFE7FFFE0E0B6EFF0E0C6E36C0FB
:104DD2000DF037C00EF00B500D260C500E22000EB7
:104DE2000D24D96E040E0E20DA6EFD0E0F6EFF0E2C
:104DF200106E36C011F037C012F00F50112610504D
:104E02001222000E1124E16E040E1220E26EDFCF98
:104E1200E7FFFF0E0B6EFF0E0C6E36C00DF037C0B3
:104E22000EF00B500D260C500E22000E0D24D96EE2
:104E3200040E0E20DA6EFE0E0F6EFF0E106E36C0DE
:104E420011F037C012F00F50112610501222000E2E
:104E52001124E16E040E1220E26EDFCFE7FF000E96
:104E62003624D96E040E3720DA6EFF0E0B6EFF0E5B
:104E72000C6E36C00DF037C00EF00B500D260C50E4
:104E82000E22000E0D24E16E040E0E20E26EDFCF24
:104E9200E7FF010E36240B6E000E37200C6E000E5B
:104EA2000B24D96E040E0C20DA6E000E3624E16E4D
:104EB200040E3720E26EDFCFE7FF020E36240B6EC0
:104EC200000E37200C6E000E0B24D96E040E0C203F
:104ED200DA6E010E36240D6E000E37200E6E000EB5
:104EE2000D24E16E040E0E20E26EDFCFE7FF030E0B
:104EF20036240B6E000E37200C6E000E0B24D96E7A
:104F0200040E0C20DA6E020E36240D6E000E3720CF
:104F12000E6E000E0D24E16E040E0E20E26EDFCF47
:104F2200E7FF030E36240B6E000E37200C6E000EC8
:104F32000B24D96E040E0C20DA6E000EDF6E3606DC
:104F4200D8A03706A5EF27F0000E3624D96E040E3E
:104F52003720DA6EDF50D8A4B1EF27F0B3EF27F095
:104F620067EF2CF0030E36240B6E000E37200C6E0A
:104F7200000E0B24D96E040E0C20DA6EDF50D8A47A
:104F8200C5EF27F0C7EF27F067EF2CF0020E3624AB
:104F92000B6E000E37200C6E000E0B24D96E040E21
:104FA2000C20DA6EDF50D8A4D9EF27F0DBEF27F020
:104FB20067EF2CF0010E36240B6E000E37200C6EBC
:104FC200000E0B24D96E040E0C20DA6EDF50D8A42A
:104FD200EDEF27F0EFEF27F067EF2CF0FF0E0B6EEF
:104FE200FF0E0C6E36C00DF037C00EF00B500D26C2
:104FF2000C500E22000E0D24D96E040E0E20DA6E15
:10500200DF50D8A407EF28F009EF28F067EF2CF063
:10501200FE0E0B6EFF0E0C6E36C00DF037C00EF09A
:105022000B500D260C500E22000E0D24D96E040ECC
:105032000E20DA6EDF50D8A421EF28F023EF28F0FB
:1050420067EF2CF0FD0E0B6EFF0E0C6E36C00DF0EE
:1050520037C00EF00B500D260C500E22000E0D2400
:10506200D96E040E0E20DA6EDF50D8A43BEF28F082
:105072003DEF28F067EF2CF0000E3E24D96E040EAF
:105082003F20DA6EDF50D8A449EF28F04BEF28F02A
:1050920067EF2CF0030E3E240B6E000E3F200C6EC9
:1050A200000E0B24D96E040E0C20DA6EDF50D8A449
:1050B2005DEF28F05FEF28F067EF2CF0020E3E2440
:1050C2000B6E000E3F200C6E000E0B24D96E040EE8
:1050D2000C20DA6EDF50D8A471EF28F073EF28F0BD
:1050E20067EF2CF0010E3E240B6E000E3F200C6E7B
:1050F200000E0B24D96E040E0C20DA6EDF50D8A4F9
:1051020085EF28F087EF28F067EF2CF0FF0E0B6E8B
:10511200FF0E0C6E3EC00DF03FC00EF00B500D2680
:105122000C500E22000E0D24D96E040E0E20DA6EE3
:10513200DF50D8A49FEF28F0A1EF28F067EF2CF002
:10514200FE0E0B6EFF0E0C6E3EC00DF03FC00EF059
:105152000B500D260C500E22000E0D24D96E040E9B
:105162000E20DA6EDF50D8A4B9EF28F0BBEF28F09A
:1051720067EF2CF0FD0E0B6EFF0E0C6E3EC00DF0B5
:105182003FC00EF00B500D260C500E22000E0D24C7
:10519200D96E040E0E20DA6EDF50D8A4D3EF28F0B9
:1051A200D5EF28F067EF2CF0000E3824D96E040EEC
:1051B2003920DA6EDF50D8A4E1EF28F0E3EF28F0CF
:1051C20067EF2CF0030E38240B6E000E39200C6EA4
:1051D200000E0B24D96E040E0C20DA6EDF50D8A418
:1051E200F5EF28F0F7EF28F067EF2CF0020E3824E5
:1051F2000B6E000E39200C6E000E0B24D96E040EBD
:105202000C20DA6EDF50D8A409EF29F00BEF29F059
:1052120067EF2CF0010E38240B6E000E39200C6E55
:10522200000E0B24D96E040E0C20DA6EDF50D8A4C7
:105232001DEF29F01FEF29F067EF2CF0FF0E0B6E28
:10524200FF0E0C6E38C00DF039C00EF00B500D265B
:105252000C500E22000E0D24D96E040E0E20DA6EB2
:10526200DF50D8A437EF29F039EF29F067EF2CF09F
:10527200FE0E0B6EFF0E0C6E38C00DF039C00EF034
:105282000B500D260C500E22000E0D24D96E040E6A
:105292000E20DA6EDF50D8A451EF29F053EF29F037
:1052A20067EF2CF0FD0E0B6EFF0E0C6E38C00DF08A
:1052B20039C00EF00B500D260C500E22000E0D249C
:1052C200D96E040E0E20DA6EDF50D8A46BEF29F0EF
:1052D2006DEF29F067EF2CF0000E3A24D96E040E20
:1052E2003B20DA6EDF50D8A479EF29F07BEF29F06A
:1052F20067EF2CF0030E3A240B6E000E3B200C6E6F
:10530200000E0B24D96E040E0C20DA6EDF50D8A4E6
:105312008DEF29F08FEF29F067EF2CF0020E3A247F
:105322000B6E000E3B200C6E000E0B24D96E040E89
:105332000C20DA6EDF50D8A4A1EF29F0A3EF29F0F8
:1053420067EF2CF0010E3A240B6E000E3B200C6E20
:10535200000E0B24D96E040E0C20DA6EDF50D8A496
:10536200B5EF29F0B7EF29F067EF2CF0FF0E0B6EC7
:10537200FF0E0C6E3AC00DF03BC00EF00B500D2626
:105382000C500E22000E0D24D96E040E0E20DA6E81
:10539200DF50D8A4CFEF29F0D1EF29F067EF2CF03E
:1053A200FE0E0B6EFF0E0C6E3AC00DF03BC00EF0FF
:1053B2000B500D260C500E22000E0D24D96E040E39
:1053C2000E20DA6EDF50D8A4E9EF29F0EBEF29F0D6
:1053D20067EF2CF0FD0E0B6EFF0E0C6E3AC00DF057
:1053E2003BC00EF00B500D260C500E22000E0D2469
:1053F200D96E040E0E20DA6EDF50D8A403EF2AF025
:1054020005EF2AF067EF2CF0000E2D6E000E2C6EC9
:105412002DBE13EF2AF0040E2D5CD8A013EF2AF054
:1054220015EF2AF019EF2AF031EF2AF031EF2AF0C6
:10543200000E2C24D96E040E2D20DA6E000EDF6EC3
:105442002C4A2D2A2DBE2DEF2AF0040E2D5CD8A059
:105452002DEF2AF02FEF2AF019EF2AF031EF2AF080
:105462000E0E34240B6E000E35200C6E000E0B2433
:10547200D96E040E0C20DA6E1F0EDF6E070E342476
:105482000D6E000E35200E6E000E0D24E16E040E20
:105492000E20E26EDFCFE7FF0D0E34240B6E000EFE
:1054A20035200C6E000E0B24D96E040E0C20DA6E21
:1054B200200EDF6E080E34240D6E000E35200E6EA7
:1054C200000E0D24E16E040E0E20E26EDFCFE7FF28
:1054D2000C0E34240B6E000E35200C6E000E0B24C5
:1054E200D96E040E0C20DA6E400EDF6E090E3424E3
:1054F2000D6E000E35200E6E000E0D24E16E040EB0
:105502000E20E26EDFCFE7FF0B0E34240B6E000E8F
:1055120035200C6E000E0B24D96E040E0C20DA6EB0
:10552200800EDF6E0A0E34240D6E000E35200E6ED4
:10553200000E0D24E16E040E0E20E26EDFCFE7FFB7
:10554200110E34240B6E000E35200C6E000E0B244F
:10555200D96E040E0C20DA6EFF0EDF6E100E3424AC
:105562000D6E000E35200E6E000E0D24E16E040E3F
:105572000E20E26EDFCFE7FF130E34240B6E000E17
:1055820035200C6E000E0B24D96E040E0C20DA6E40
:10559200FF0EDF6E170E34240B6E000E35200C6EDC
:1055A200000E0B24D96E040E0C20DA6E810EDF6E13
:1055B200160E34240D6E000E35200E6E000E0D24D4
:1055C200E16E040E0E20E26EDFCFE7FF150E3424EB
:1055D2000F6E000E3520106E000E0F24D96E040ED1
:1055E2001020DA6EE7CFDFFF140E3424116E000EA6
:1055F2003520126E000E1124E16E040E1220E26EAE
:10560200DFCFE7FF1F0E34240B6E000E35200C6E29
:10561200000E0B24D96E040E0C20DA6E010EDF6E22
:105622001E0E34240D6E000E35200E6E000E0D245B
:10563200E16E040E0E20E26EDFCFE7FF1D0E342472
:105642000F6E000E3520106E000E0F24D96E040E60
:105652001020DA6EE7CFDFFF1B0E3424116E000E2E
:105662003520126E000E1124E16E040E1220E26E3D
:10567200DFCFE7FF1A0E3424136E000E3520146EAE
:10568200000E1324D96E040E1420DA6EE7CFDFFF6A
:10569200190E3424156E000E3520166E000E1524D8
:1056A200E16E040E1620E26EDFCFE7FF1C0E3424FB
:1056B2000B6E000E35200C6E000E0B24D96E040EFC
:1056C2000C20DA6EFF0EDF6E040E3424346E000EF0
:1056D2003520356E230E34240B6E000E35200C6EF1
:1056E200000E0B24D96E040E0C20DA6EFF0EDF6E54
:1056F2001E0E34240D6E000E35200E6E000E0D248B
:10570200E16E040E0E20E26EDFCFE7FF220E34249C
:105712000B6E000E35200C6E000E0B24D96E040E9B
:105722000C20DA6E810EDF6E210E34240D6E000E17
:1057320035200E6E000E0D24E16E040E0E20E26E78
:10574200DFCFE7FF200E34240F6E000E3520106EDF
:10575200000E0F24D96E040E1020DA6EE7CFDFFFA1
:105762001F0E3424116E000E3520126E000E11240D
:10577200E16E040E1220E26EDFCFE7FF020E342448
:10578200346E000E3520356E250E34240B6E000E5D
:1057920035200C6E000E0B24D96E040E0C20DA6E2E
:1057A200FF0EDF6E240E34240D6E000E35200E6EB9
:1057B200000E0D24E16E040E0E20E26EDFCFE7FF35
:1057C200270E34240B6E000E35200C6E000E0B24B7
:1057D200D96E040E0C20DA6EFF0EDF6E280E342412
:1057E2000B6E000E35200C6E000E0B24D96E040ECB
:1057F2000C20DA6E110EDF6E290E34240B6E000EB1
:1058020035200C6E000E0B24D96E040E0C20DA6EBD
:10581200310EDF6E2A0E34240B6E000E35200C6E14
:10582200000E0B24D96E040E0C20DA6E4A0EDF6EC7
:105832002B0E34240B6E000E35200C6E000E0B2442
:10584200D96E040E0C20DA6E840EDF6E2D0E342417
:105852000B6E000E35200C6E000E0B24D96E040E5A
:105862000C20DA6EFF0EDF6E300E34240B6E000E4B
:1058720035200C6E000E0B24D96E040E0C20DA6E4D
:10588200910EDF6E2F0E34240D6E000E35200E6E3B
:10589200000E0D24E16E040E0E20E26EDFCFE7FF54
:1058A2002E0E34240F6E000E3520106E000E0F24C3
:1058B200D96E040E1020DA6EE7CFDFFF67EF2CF00F
:1058C20067EF2CF067EF2CF067EF2CF0640E2518D1
:1058D2002610D8A46FEF2CF071EF2CF07FEF2CF094
:1058E200000E286E010E276E000E266E000E256E2B
:1058F2003EC030F03FC031F07FEF2CF0254A262A1F
:1059020027042810D8A488EF2CF08AEF2CF09FEF00
:105912002DF0000E3E24D96E040E3F20DA6EDF50C9
:10592200D8A496EF2CF098EF2CF026EF2DF0030E72
:105932003E240B6E000E3F200C6E000E0B24D96E1F
:10594200040E0C20DA6EDF50D8A4AAEF2CF0ACEFD4
:105952002CF026EF2DF0020E3E240B6E000E3F209F
:105962000C6E000E0B24D96E040E0C20DA6EDF5082
:10597200D8A4BEEF2CF0C0EF2CF026EF2DF0010ED4
:105982003E240B6E000E3F200C6E000E0B24D96ECF
:10599200040E0C20DA6EDF50D8A4D2EF2CF0D4EF34
:1059A2002CF026EF2DF0FF0E0B6EFF0E0C6E3EC09C
:1059B2000DF03FC00EF00B500D260C500E22000EC3
:1059C2000D24D96E040E0E20DA6EDF50D8A4ECEF4F
:1059D2002CF0EEEF2CF026EF2DF0FE0E0B6EFF0EEC
:1059E2000C6E3EC00DF03FC00EF00B500D260C5059
:1059F2000E22000E0D24D96E040E0E20DA6EDF5038
:105A0200D8A406EF2DF008EF2DF026EF2DF0FD0EB5
:105A12000B6EFF0E0C6E3EC00DF03FC00EF00B5031
:105A22000D260C500E22000E0D24D96E040E0E20EF
:105A3200DA6EDF50D8A420EF2DF022EF2DF026EF02
:105A42002DF06FEF2DF06FEF2DF0800E30240B6EE6
:105A5200000E31200C6E000E0B24D96E040E0C20A9
:105A6200DA6EFF0EDF6E810E30240B6E000E3120D7
:105A72000C6E000E0B24D96E040E0C20DA6EFF0E93
:105A8200DF6E1B041C10D8A449EF2DF04BEF2DF054
:105A920063EF2DF0000E3024D96E040E3120DA6E41
:105AA200000EDF6E010E30240B6E000E31200C6EE4
:105AB200000E0B24D96E040E0C20DA6E000EDF6E7F
:105AC20063EF2DF0000E1C6E010E1B6E800E302453
:105AD200306E000E3120316E6FEF2DF031BE7BEF54
:105AE2002DF0810E305C030E3158D8A07BEF2DF0E3
:105AF2007DEF2DF09FEF2DF0000E3024D96E040EB5
:105B02003120DA6E000EDF6E010E30240B6E000EB5
:105B120031200C6E000E0B24D96E040E0C20DA6EAE
:105B2200000EDF6E000E286E000E276E000E1C6E39
:105B3200000E1B6E9FEF2DF09FEF2DF081ACA4EFB6
:105B42002DF0A6EF2DF0B0EF2DF0000E246E010E19
:105B5200236E3CC032F03DC033F0B0EF2DF0230491
:105B62002410D8A4B7EF2DF0B9EF2DF0ACEF32F03E
:105B720033BEC7EF2DF0335007E1810E325CD8B04F
:105B8200C5EF2DF0C7EF2DF0F9EF2DF0000E322406
:105B9200D96E040E3320DA6E000EDF6E010E32244F
:105BA2000B6E000E33200C6E000E0B24D96E040E09
:105BB2000C20DA6E000EDF6EFF0E0B6EFF0E0C6E07
:105BC20032C00DF033C00EF00B500D260C500E22D9
:105BD200000E0D24D96E040E0E20DA6E000EDF6E5A
:105BE200000E246E000E236E000E2A6E000E296E29
:105BF200800E0B6EFF0E0C6E32C00DF033C00EF035
:105C02000B500D260C500E22000E0D24D96E040EE0
:105C12000E20DA6EDF50D8A411EF2EF013EF2EF023
:105C220085EF2EF07F0E0B6EFF0E0C6E32C00DF064
:105C320033C00EF00B500D260C500E22000E0D2418
:105C4200D96E040E0E20DA6EDF50D8A42BEF2EF0A0
:105C52002DEF2EF085EF2EF0810E0B6EFF0E0C6EE7
:105C620032C00DF033C00EF00B500D260C500E2238
:105C7200000E0D24D96E040E0E20DA6EDF50D8A469
:105C820045EF2EF047EF2EF085EF2EF0800E0B6ED3
:105C9200FF0E0C6E32C00DF033C00EF00B500D260D
:105CA2000C500E22000E0D24D96E040E0E20DA6E58
:105CB200FF0EDF6E7F0E0B6EFF0E0C6E32C00DF00C
:105CC20033C00EF00B500D260C500E22000E0D2488
:105CD200D96E040E0E20DA6EFF0EDF6E810E0B6E91
:105CE200FF0E0C6E32C00DF033C00EF00B500D26BD
:105CF2000C500E22000E0D24D96E040E0E20DA6E08
:105D0200FF0EDF6E1FEF32F0800E0B6EFF0E0C6E79
:105D120032C00DF033C00EF00B500D260C500E2287
:105D2200000E0D24D96E040E0E20DA6EDE28D8A4E1
:105D32009DEF2EF09FEF2EF03BEF2FF07F0E0B6EBC
:105D4200FF0E0C6E32C00DF033C00EF00B500D265C
:105D52000C500E22000E0D24D96E040E0E20DA6EA7
:105D6200DE28D8A4B7EF2EF0B9EF2EF03BEF2FF0DC
:105D7200810E0B6EFF0E0C6E32C00DF033C00EF0B2
:105D82000B500D260C500E22000E0D24D96E040E5F
:105D92000E20DA6EDE28D8A4D1EF2EF0D3EF2EF04B
:105DA2003BEF2FF0800E0B6EFF0E0C6E32C00DF02B
:105DB20033C00EF00B500D260C500E22000E0D2497
:105DC200D96E040E0E20DA6E000EDF6E7F0E0B6EA1
:105DD200FF0E0C6E32C00DF033C00EF00B500D26CC
:105DE2000C500E22000E0D24D96E040E0E20DA6E17
:105DF200000EDF6E810E0B6EFF0E0C6E32C00DF0C8
:105E020033C00EF00B500D260C500E22000E0D2446
:105E1200D96E040E0E20DA6E000EDF6E000E3224F2
:105E2200D96E040E3320DA6E000EDF6E010E3224BC
:105E32000B6E000E33200C6E000E0B24D96E040E76
:105E42000C20DA6E000EDF6EFF0E0B6EFF0E0C6E74
:105E520032C00DF033C00EF00B500D260C500E2246
:105E6200000E0D24D96E040E0E20DA6E000EDF6EC7
:105E72001FEF32F0800E0B6EFF0E0C6E32C00DF073
:105E820033C00EF00B500D260C500E22030E36249A
:105E92000F6E000E3720106E0D500F5C1050800AEE
:105EA200116E0E50800A1158D8A05AEF2FF05CEFF5
:105EB2002FF0F3EF2FF0FD0E0B6EFF0E0C6E36C0BF
:105EC2000DF037C00EF00B500D260C500E22800E36
:105ED2000F6EFF0E106E32C011F033C012F00F5071
:105EE2001126105012220D50115C1250800A136EAE
:105EF2000E50800A1358D8A081EF2FF083EF2FF0B5
:105F0200F3EF2FF0000E3624D96E040E3720DA6E2E
:105F1200000EDF6E010E36240B6E000E37200C6E63
:105F2200000E0B24D96E040E0C20DA6E000EDF6E0A
:105F3200020E36240B6E000E37200C6E000E0B2460
:105F4200D96E040E0C20DA6E000EDF6E030E3624BC
:105F52000B6E000E37200C6E000E0B24D96E040E51
:105F62000C20DA6E000EDF6EFF0E0B6EFF0E0C6E53
:105F720036C00DF037C00EF00B500D260C500E221D
:105F8200000E0D24D96E040E0E20DA6E000EDF6EA6
:105F9200FE0E0B6EFF0E0C6E36C00DF037C00EF00B
:105FA2000B500D260C500E22000E0D24D96E040E3D
:105FB2000E20DA6E000EDF6EFD0E0B6EFF0E0C6E03
:105FC20036C00DF037C00EF00B500D260C500E22CD
:105FD200000E0D24D96E040E0E20DA6E000EDF6E56
:105FE200F3EF2FF0800E0B6EFF0E0C6E32C00DF031
:105FF20033C00EF00B500D260C500E22030E3E2421
:106002000F6E000E3F20106E0D500F5C1050800A74
:10601200116E0E50800A1158D8A012EF30F014EF12
:1060220030F0ABEF30F0FD0E0B6EFF0E0C6E3EC08B
:106032000DF03FC00EF00B500D260C500E22800EBC
:106042000F6EFF0E106E32C011F033C012F00F50FF
:106052001126105012220D50115C1250800A136E3C
:106062000E50800A1358D8A039EF30F03BEF30F0D1
:10607200ABEF30F0000E3E24D96E040E3F20DA6EF4
:10608200000EDF6E010E3E240B6E000E3F200C6EE2
:10609200000E0B24D96E040E0C20DA6E000EDF6E99
:1060A200020E3E240B6E000E3F200C6E000E0B24DF
:1060B200D96E040E0C20DA6E000EDF6E030E3E2443
:1060C2000B6E000E3F200C6E000E0B24D96E040ED8
:1060D2000C20DA6E000EDF6EFF0E0B6EFF0E0C6EE2
:1060E2003EC00DF03FC00EF00B500D260C500E229C
:1060F200000E0D24D96E040E0E20DA6E000EDF6E35
:10610200FE0E0B6EFF0E0C6E3EC00DF03FC00EF089
:106112000B500D260C500E22000E0D24D96E040ECB
:106122000E20DA6E000EDF6EFD0E0B6EFF0E0C6E91
:106132003EC00DF03FC00EF00B500D260C500E224B
:10614200000E0D24D96E040E0E20DA6E000EDF6EE4
:10615200ABEF30F0800E0B6EFF0E0C6E32C00DF006
:1061620033C00EF00B500D260C500E22030E3824B5
:106172000F6E000E3920106E0D500F5C1050800A09
:10618200116E0E50800A1158D8A0CAEF30F0CCEF31
:1061920030F063EF31F0FD0E0B6EFF0E0C6E38C067
:1061A2000DF039C00EF00B500D260C500E22800E51
:1061B2000F6EFF0E106E32C011F033C012F00F508E
:1061C2001126105012220D50115C1250800A136ECB
:1061D2000E50800A1358D8A0F1EF30F0F3EF30F0F0
:1061E20063EF31F0000E3824D96E040E3920DA6ED6
:1061F200000EDF6E010E38240B6E000E39200C6E7D
:10620200000E0B24D96E040E0C20DA6E000EDF6E27
:10621200020E38240B6E000E39200C6E000E0B2479
:10622200D96E040E0C20DA6E000EDF6E030E3824D7
:106232000B6E000E39200C6E000E0B24D96E040E6C
:106242000C20DA6E000EDF6EFF0E0B6EFF0E0C6E70
:1062520038C00DF039C00EF00B500D260C500E2236
:10626200000E0D24D96E040E0E20DA6E000EDF6EC3
:10627200FE0E0B6EFF0E0C6E38C00DF039C00EF024
:106282000B500D260C500E22000E0D24D96E040E5A
:106292000E20DA6E000EDF6EFD0E0B6EFF0E0C6E20
:1062A20038C00DF039C00EF00B500D260C500E22E6
:1062B200000E0D24D96E040E0E20DA6E000EDF6E73
:1062C20063EF31F0800E0B6EFF0E0C6E32C00DF0DC
:1062D20033C00EF00B500D260C500E22030E3A2442
:1062E2000F6E000E3B20106E0D500F5C1050800A96
:1062F200116E0E50800A1158D8A082EF31F084EF4F
:1063020031F01FEF32F0FD0E0B6EFF0E0C6E3AC035
:106312000DF03BC00EF00B500D260C500E22800EDD
:106322000F6EFF0E106E32C011F033C012F00F501C
:106332001126105012220D50115C1250800A136E59
:106342000E50800A1358D8A0A9EF31F0ABEF31F00C
:106352001FEF32F0000E3A24D96E040E3B20DA6EA3
:10636200000EDF6E010E3A240B6E000E3B200C6E07
:10637200000E0B24D96E040E0C20DA6E000EDF6EB6
:10638200020E3A240B6E000E3B200C6E000E0B2404
:10639200D96E040E0C20DA6E000EDF6E030E3A2464
:1063A2000B6E000E3B200C6E000E0B24D96E040EF9
:1063B2000C20DA6E000EDF6EFF0E0B6EFF0E0C6EFF
:1063C2003AC00DF03BC00EF00B500D260C500E22C1
:1063D200000E0D24D96E040E0E20DA6E000EDF6E52
:1063E200FE0E0B6EFF0E0C6E3AC00DF03BC00EF0AF
:1063F2000B500D260C500E22000E0D24D96E040EE9
:106402000E20DA6E000EDF6EFD0E0B6EFF0E0C6EAE
:106412003AC00DF03BC00EF00B500D260C500E2270
:10642200000E0D24D96E040E0E20DA6E000EDF6E01
:106432001FEF32F01FEF32F01FEF32F029042A1063
:10644200D8A426EF32F028EF32F054EF32F0000EEB
:106452003224D96E040E3320DA6E000EDF6E010E86
:1064620032240B6E000E33200C6E000E0B24D96EFC
:10647200040E0C20DA6E000EDF6EFF0E0B6EFF0EA6
:106482000C6E32C00DF033C00EF00B500D260C50C6
:106492000E22000E0D24D96E040E0E20DA6E000EAE
:1064A200DF6E54EF32F0000E2A6E010E296E800E5E
:1064B2003224326EFF0E3320336E000E3C24D96E2E
:1064C200040E3D20DA6EFF0EDF6E010E3C240B6ED1
:1064D200000E3D200C6E000E0B24D96E040E0C2013
:1064E200DA6EFC0EDF6EFF0E0D6EFF0E0E6E3CC0FE
:1064F2000FF03DC010F00D500F260E501022000E6E
:106502000F24E16E040E1020E26EDFCFE7FF020ED1
:106512003C240B6E000E3D200C6E000E0B24D96E37
:10652200040E0C20DA6EF00EDF6EFE0E0D6EFF0E04
:106532000E6E3CC00FF03DC010F00D500F260E50F5
:106542001022000E0F24E16E040E1020E26EDFCF47
:10655200E7FFACEF32F084A0B1EF32F0B3EF32F0EC
:1065620065EF33F03DBEC1EF32F0FD0E3C5C030E31
:106572003D58D8B0BFEF32F0C1EF32F065EF33F0E3
:10658200020E3C240B6E000E3D200C6E000E0B24FE
:10659200D96E040E0C20DA6E030E3C240D6E000E32
:1065A2003D200E6E000E0D24E16E040E0E20E26EF2
:1065B200DFCFE7FF010E3C240B6E000E3D200C6E78
:1065C200000E0B24D96E040E0C20DA6E020E3C244F
:1065D2000D6E000E3D200E6E000E0D24E16E040EB7
:1065E2000E20E26EDFCFE7FF000E3C24D96E040ED0
:1065F2003D20DA6EFF0EDF6E010E3C240B6E000EA4
:106602003D200C6E000E0B24E16E040E0C20E26E97
:10661200DFCFE7FFFF0E0B6EFF0E0C6E3CC00DF0DE
:106622003DC00EF00B500D260C500E22000E0D2414
:10663200D96E040E0E20DA6E000E3C24E16E040EBA
:106642003D20E26EDFCFE7FFFE0E0B6EFF0E0C6EFB
:106652003CC00DF03DC00EF00B500D260C500E222A
:10666200000E0D24D96E040E0E20DA6EFF0E0F6E90
:10667200FF0E106E3CC011F03DC012F00F501126FB
:1066820010501222000E1124E16E040E1220E26E4E
:10669200DFCFE7FFFE0E0B6EFF0E0C6E3CC00DF05F
:1066A2003DC00EF00B500D260C500E22000E0D2494
:1066B200D96E040E0E20DA6E000EDF6E3C4A3D2AC1
:1066C20065EF33F065EF33F084A26AEF33F06CEFDD
:1066D20033F025EF34F03DBE78EF33F0810E3C5CB1
:1066E200030E3D58D8A078EF33F07AEF33F025EF60
:1066F20034F0FE0E0B6EFF0E0C6E3CC00DF03DC072
:106702000EF00B500D260C500E22000E0D24D96EE9
:10671200040E0E20DA6EFD0E0F6EFF0E106E3CC0E0
:1067220011F03DC012F00F50112610501222000E2F
:106732001124E16E040E1220E26EDFCFE7FFFF0E9E
:106742000B6EFF0E0C6E3CC00DF03DC00EF00B50F8
:106752000D260C500E22000E0D24D96E040E0E20B2
:10676200DA6EFE0E0F6EFF0E106E3CC011F03DC0D1
:1067720012F00F50112610501222000E1124E16E59
:10678200040E1220E26EDFCFE7FF000E3C24D96E2A
:10679200040E3D20DA6EFF0EDF6EFF0E0B6EFF0E53
:1067A2000C6E3CC00DF03DC00EF00B500D260C508F
:1067B2000E22000E0D24E16E040E0E20E26EDFCFDB
:1067C200E7FF010E3C240B6E000E3D200C6E000E06
:1067D2000B24D96E040E0C20DA6E000E3C24E16EFE
:1067E200040E3D20E26EDFCFE7FF020E3C240B6E6B
:1067F200000E3D200C6E000E0B24D96E040E0C20F0
:10680200DA6E010E3C240D6E000E3D200E6E000E5F
:106812000D24E16E040E0E20E26EDFCFE7FF020EC2
:106822003C240B6E000E3D200C6E000E0B24D96E24
:10683200040E0C20DA6E000EDF6E3C06D8A03D0678
:1068420025EF34F025EF34F084A42AEF34F02CEF56
:1068520034F0CFEF34F098EF34F098EF34F0000ECC
:106862003C24D96E040E3D20DA6E010EDF6ECFEFAE
:1068720034F0000E3C24D96E040E3D20DA6E020E76
:10688200DF6ECFEF34F0000E3C24D96E040E3D20B3
:10689200DA6E040EDF6ECFEF34F0000E3C24D96EB8
:1068A200040E3D20DA6E080EDF6ECFEF34F0000EDC
:1068B2003C24D96E040E3D20DA6E100EDF6ECFEF4F
:1068C20034F0000E3C24D96E040E3D20DA6E200E08
:1068D200DF6ECFEF34F0000E3C24D96E040E3D2063
:1068E200DA6E400EDF6ECFEF34F0000E3C24D96E2C
:1068F200040E3D20DA6E800EDF6E000E3C24D96E4F
:10690200040E3D20DA6E000EDF6E800E3C243C6EDB
:10691200000E3D203D6E000E3C24D96E040E3D203B
:10692200DA6E010EDF6ECFEF34F0CFEF34F0000EEF
:106932003C24D96E040E3D20DA6EDF500B6E0C6AD9
:106942000C50000AD8B4A8EF34F0CFEF34F00B505B
:10695200000AD8B430EF34F0010AD8B43AEF34F078
:10696200030AD8B444EF34F0060AD8B44EEF34F038
:106972000C0AD8B458EF34F0180AD8B462EF34F0E5
:10698200300AD8B46CEF34F0600AD8B476EF34F041
:10699200C00AD8B47EEF34F0CFEF34F081AED4EF3A
:1069A20034F0D6EF34F07CEF1FF042EF35F042EFD7
:1069B20035F0000E3C24D96E040E3D20DA6E800EB6
:1069C200DF6E7CEF1FF0000E3C24D96E040E3D20DA
:1069D200DA6E400EDF6E7CEF1FF0000E3C24D96EA3
:1069E200040E3D20DA6E200EDF6E7CEF1FF0000EEB
:1069F2003C24D96E040E3D20DA6E100EDF6E7CEF61
:106A02001FF0000E3C24D96E040E3D20DA6E080EF3
:106A1200DF6E7CEF1FF0000E3C24D96E040E3D2089
:106A2200DA6E040EDF6E7CEF1FF0000E3C24D96E8E
:106A3200040E3D20DA6E020EDF6E7CEF1FF0000EB8
:106A42003C24D96E040E3D20DA6E010EDF6E000E7C
:106A52003C24D96E040E3D20DA6E000EDF6E800EED
:106A62003C243C6EFF0E3D203D6E000E3C24D96E50
:106A7200040E3D20DA6E800EDF6E7CEF1FF07CEF9D
:106A82001FF0000E3C24D96E040E3D20DA6EDF505A
:106A92000B6E0C6A0C50000AD8B452EF35F07CEF42
:106AA2001FF00B50000AD8B4DAEF34F0010AD8B460
:106AB20028EF35F0030AD8B420EF35F0060AD8B42F
:106AC20016EF35F00C0AD8B40CEF35F0180AD8B42A
:106AD20002EF35F0300AD8B4F8EF34F0600AD8B4D7
:106AE200EEEF34F0C00AD8B4E4EF34F07CEF1FF0DC
:106AF2007CEF1FF07CEF1FF07CEF1FF01200000014
:106B02000000000000000000000000000000000083
:106B12000000000000000000000000000000000073
:106B22000000000000000000000000000000000063
:106B32000000000000000000000000000000000053
:106B42000000000000000000000000000000000043
:106B52000000000000000000000000000000000033
:106B62000000000000000000000000000000000023
:106B72000000000000000000000000000000000013
:106B82000000000000000000000000000000000003
:106B920000000000000000000000000000000000F3
:106BA20000000000000000000000000000000000E3
:106BB20000000000000000000000000000000000D3
:106BC20000000000000000000000000000000000C3
:106BD20000000000000000000000000000000000B3
:106BE20000000000000000000000000000000000A3
:106BF2000000000000000000000000000000000093
:106C02000000000000000000065F5F0600000000B8
:106C120007070007070000147F7F147F7F140024FA
:106C22002E6B6B3A120000466630180C666200301A
:106C32007A4F5D377A480004070300000000000025
:106C42001C3E63410000000041633E1C000000083E
:106C52002A3E1C1C3E2A0808083E3E080800000086
:106C620080E0600000000008080808080800000032
:106C7200006060000000006030180C060301003E56
:106C82007F71594D7F3E0040427F7F40400000624D
:106C92007359496F660000226349497F3600001824
:106CA2001C16537F7F5000276745457D3900003C05
:106CB2007E4B4979300000030371790F07000036DB
:106CC2007F49497F360000064F49693F1E00000098
:106CD200006666000000000080E666000000000812
:106CE2001C366341000000242424242424000000D4
:106CF2004163361C080000020351590F0600003E92
:106D02007F415D5D1F1E007C7E13137E7C0000416F
:106D12007F7F49497F36001C3E6341416322004127
:106D22007F7F41633E1C00417F7F495D416300419B
:106D32007F7F491D0103001C3E6341517372007F36
:106D42007F08087F7F000000417F7F410000003004
:106D52007040417F3F0100417F7F081C7763004103
:106D62007F7F41406070007F7F0E1C0E7F7F007F1F
:106D72007F060C187F7F001C3E6341633E1C00416E
:106D82007F7F49090F06001E3F21717F5E0000418F
:106D92007F7F09197F6600266F4D59733200000309
:106DA200417F7F410300007F7F40407F7F00001FC3
:106DB2003F60603F1F00007F7F3018307F7F0043BD
:106DC200673C183C674300074F78784F070000473D
:106DD2006371594D677300007F7F414100000001DC
:106DE20003060C183060000041417F7F000000085C
:106DF2000C0603060C080080808080808080800062
:106E020000030704000000207454543C7840004101
:106E12007F3F4848783000387C44446C280000307A
:106E22007848493F7F4000387C54545C1800004841
:106E32007E7F490302000098BCA4A4F87C040041B0
:106E42007F7F08047C780000447D7D400000006064
:106E5200E08080FD7D0000417F7F10386C4400009F
:106E6200417F7F400000007C7C18381C7C78007CCD
:106E72007C04047C780000387C44447C3800008424
:106E8200FCF8A4243C1800183C24A4F8FC84004418
:106E92007C784C041C1800485C5454742400000094
:106EA200043E7F442400003C7C40403C7C40001C6B
:106EB2003C60603C1C00003C7C7038707C3C0044B0
:106EC2006C3810386C44009CBCA0A0FC7C00004CC8
:106ED20064745C4C64000008083E77414100000085
:106EE200000077770000004141773E080800000269
:106EF2000301030203010070784C464C7870000EC7
:106F02009F91B1FB4A00003A7A40407A7A400038B9
:106F12007C54555D19000002237555557D7B422135
:106F22007554547D794000217555547C7840002079
:106F32007457577C784000183CA4A4E44000000237
:106F42003B7D55555D1B02397D54545D1900003956
:106F52007D55545C18000001457C7C410100000213
:106F620003457D7D43020001457D7C4000000079A0
:106F72007D1612167D790070782B2B7870000044F4
:106F82007C7C5555450000207454547C7C54547CC0
:106F92007E0B097F7F4900327B49497B32000032F8
:106FA2007A48487A320000327A4A48783000003A09
:106FB2007B41417B7A40003A7A4240787840009A9D
:106FC200BAA0A0FA7A000001193C66663C19013D9C
:106FD2007D40407D3D0000183C24E7E72424006802
:106FE2007E7F49436620002B2FFCFC2F2B0000FFE5
:106FF200FF09092FF6F8A040C088FE7F090302208E
:107002007454557D79400000447D7D41000000307C
:1070120078484A7A320000387840427A7A40007AD8
:107022007A0A0A7A7000007D7D19317D7D000000A8
:10703200262F292F2F280000262F292F2600003047
:10704200784D45602000003838080808080000081C
:10705200080808383800004F6F3018CCEEBB914F4B
:107062006F30186C76FBF90000007B7B0000000893
:107072001C3622081C362222361C0822361C08AA7C
:10708200005500AA005500AA55AA55AA55AA55DDD1
:10709200FFAA77DDAAFF77000000FFFF00000010C3
:1070A2001010FFFF000000141414FFFF0000001076
:1070B20010FFFF00FFFF001010F0F010F0F00014BE
:1070C2001414FCFC0000001414F7F700FFFF00008A
:1070D20000FFFF00FFFF001414F4F404FCFC001492
:1070E200141717101F1F0010101F1F101F1F00144E
:1070F20014141F1F000000101010F0F00000000018
:1071020000001F1F1010101010101F1F1010101061
:107112001010F0F0101010000000FFFF10101010FF
:1071220010101010101010101010FFFF101010008F
:107132000000FFFF1414140000FFFF00FFFF100007
:10714200001F1F101717140000FCFC04F4F41414A1
:10715200141717101717141414F4F404F4F4140089
:1071620000FFFF00F7F71414141414141414141469
:1071720014F7F700F7F71414141417171414141053
:10718200101F1F101F1F10141414F4F414141410E1
:1071920010F0F010F0F01000001F1F101F1F100061
:1071A20000001F1F141414000000FCFC141414002F
:1071B20000F0F010F0F0101010FFFF10FFFF10149D
:1071C2001414FFFF1414141010101F1F00000000ED
:1071D2000000F0F0101010FFFFFFFFFFFFFFFFF0B5
:1071E200F0F0F0F0F0F0F0FFFFFFFF000000000011
:1071F200000000FFFFFFFF0F0F0F0F0F0F0F0F38E1
:107202007C446C386C4400FCFE2A2A3E1400007E4A
:107212007E020206060000027E7E027E7E0200637D
:10722200775D4963630000387C447C3C0404008041
:10723200FE7E20203E1E000406027E7C060200998D
:10724200BDE7E7BD9900001C3E6B496B3E1C004C3C
:107252007E7301737E4C0030784A4F7D39000018EE
:107262003C243C3C243C1898FC643C3E273D1800DE
:10727200000000000000000000000000000000000C
:1072820000000000000000000000000000000000FC
:1072920000000000000000000000000000000000EC
:1072A20000000000000000000000000000000000DC
:1072B20000000000000000000000000000000000CC
:1072C20000000000000000000000000000000000BC
:1072D20000000000000000000000000000000000AC
:1072E200000000000000000000000000000000009C
:1072F200000000000000000000000000000000008C
:10730200000000000000000000000000000000007B
:10731200000000000000000000000000000000006B
:10732200000000000000000000000000000000005B
:107332000000E0F0C8CCC4C2E2E2F2FEFEFEFCB005
:10734200000000000000000000000000000000003B
:10735200000000000000000000000000000000002B
:10736200000000000000000000000000000000001B
:10737200000000000000000000000000000000000B
:1073820000000000000000000000000000000000FB
:1073920000000000000000000000000000000000EB
:1073A20000000000000000000000000000000000DB
:1073B2000083CF5F3F3F3F3F3F3F3F3F1F3F3F3F46
:1073C2007F78800000000000000000000000000044
:1073D20000000000000000000000000000000000AB
:1073E200000000000000000000000000000000009B
:1073F200000000000000000000000000000000008B
:10740200000000000000000000000000000000007A
:10741200000000000000000000000000000000006A
:107422000000000000000000000000000080C08892
:107432004261F04280000800006022000800000063
:1074420000000103BC0080E0F0F8FCFCECF6F078F0
:10745200383818181808000000000000000000006A
:10746200000000000000000000000000000000001A
:10747200000000000000000000000000000000000A
:1074820000000000000000000000000000000000FA
:1074920000000000000000000000000000000000EA
:1074A2000000000000000000000000FC038382C610
:1074B200FAFAFCFCFAFFE201000000010000000001
:1074C200000000F00708FFFFFFFFFFFFFFDFCFCF45
:1074D2008F0F0F0F0E1C183000000000000000007C
:1074E200000000000000000000000000000000009A
:1074F200000000000000000000000000000000008A
:107502000000000000000000000000000000000079
:107512000000000000000000000000000000000069
:107522000000000000000000608E01040F1F1F0F0A
:107532000F1F3F3F3F3F1F030000000000200010CD
:1075420000080808090A082B2B3337FF0303030737
:107552001F7F10000000000000000000000000007B
:107562000000000000000000000000000000000019
:107572000000000000000000000000000000000009
:1075820000000000000000000000000000000000F9
:1075920000000000000000000000000000000000E9
:1075A20000000000000000000007083060C08000FA
:1075B2000000000000000000000000004080000009
:1075C200000000008080C060341A05030000000043
:1075D20000000000000000000000000000000000A9
:1075E2000000000000000000000000000000000099
:1075F2000000000000000000000000000000000089
:107602000000000000000000000000000000000078
:107612000000000000000000000000000000000068
:1076220000000000000000000000000000000081D7
:1076320082868C9C1428E8F8102040C0C04020119B
:10764200090505050201000000000000000000001D
:107652000000000000000000000000000000000028
:107662000000000000000000000000000000000018
:107672000000000000000000000000000000000008
:1076820000000000000000000000000000000000F8
:1076920000000000000000000000000000000000E8
:1076A20000000000000000000000000000000302D3
:1076B20007050404050D0E1B3B6B476363263A1254
:1076C200121C00000000000000000000000000008A
:1076D20000000000000000000000000000000000A8
:1076E2000000000000000000000000000000000098
:1076F2000000000000000000000000000000000088
:107702000000000000000000000000000000000077
:107AF200000000000000000000000000000000FF85
:107B0200FFFFFFFFFFFFFFFFFFFFFFFFFFFFFFFF83
:107B1200FFFFFFFFFFFFFFFFFFFFFFFFFFFFFFFF73
:107B2200FFFFFFFFFFFFFFFFFFFFFFFFFFFFFFFF63
:107B3200FFFFFFFFFFFFFFFFFFFFFFFFFFFFFFFF53
:107EE200FFFFFFFFFFFFFFFFFFFFFFFFFFFFFF009F
:107EF2000000000000000000000000000000000080
:107F02000000005C000C000C7C287C7C447C24106B
:107F120048285408000C0038440044380020100857
:107F22001038108040001010100040002010083857
:107F32004438007C006454484454281C107C4C543F
:107F42002438542004740C28542808543800500053
:107F52008050001028442828284428100454083847
:107F62004C5C7814787C54283844447C44387C54E3
:107F7200447C14043844347C107C007C0020403C57
:107F82007C106C7C40407C087C7C047C7C447C7C47
:107F920014083844787C1468485424047C047C40D7
:107FA2007C3C403C7C207C6C106C1C601C64544CFF
:107FB2007C4400081020447C00080408808080046F
:107FC20008004D6164652062792044616E69656CC8
:107FD2002C204761627269656C2065742054686F59
:107FE2006D617300537061636520496E76616465EB
:0E7FF20072004C6574277320504C41590000FA
:020000040020DA
:08000000FFFFFFFFFFFFFFFF00
:020000040030CA
:0E000000000C191EFF8381FF0FC00FE00F40A0
:00000001FF
