:020000040000FA
:0400000011EF15F0F7
:102A220004EE00F014EE00F0EE6AE550E150FCE135
:102A3200E250FAE14D6A4C6A4B6A4A6A000EF86E3D
:102A420000010BEF17F00F0EC16E000EC26E000EEA
:102A5200926E000E936E000E946E000E956E000E36
:102A6200966E000E806E000E816E000E826E000E5B
:102A7200836E000E846E1200026E0250D8B444EFD0
:102A820015F046EF15F04AEF15F08A808A924EEF64
:102A920015F08A928A824EEF15F0000E956E8A9694
:102AA20001C08CFF8A8800D08A9800D08A908A92CE
:102AB200120080EF15F00E50D8B462EF15F064EFFB
:102AC20015F070EF15F00FC003F00CC0F6FF0DC04B
:102AD200F7FF0800F55075EC16F07CEF15F00FC00B
:102AE20003F00CC0F6FF0DC0F7FF0800F550A1EC93
:102AF20017F07CEF15F00C4A0D2A80EF15F00CC090
:102B0200F6FF0DC0F7FF0800F5500009D8A48CEFBE
:102B120015F08EEF15F05CEF15F090EF15F0120046
:102B2200056E000E046E800E05609AEF15F09CEFA4
:102B320015F0C8EF15F0070E0364A2EF15F0A4EF2D
:102B420015F0A8EF15F0C8EF15F0C8EF15F005C0A5
:102B52004DF003C04CF03F0E0564B2EF15F0B4EF38
:102B620015F0BAEF15F0400E055E010E046EBAEFD5
:102B720015F08A9405504009016E04503DEC15F0A1
:102B82000350B809016E04503DEC15F08A8412001E
:102B9200066E000E836E8A9A210EE82EFED700F092
:102BA2008A8A8A988A908A928A9400D0C00E016E8C
:102BB200000E3DEC15F0C00E016E010E3DEC15F05D
:102BC200400E016E000E3DEC15F0400E016E010E3E
:102BD2003DEC15F0B80E016E000E3DEC15F0B80E8E
:102BE200016E010E3DEC15F00604D8A4FBEF15F0C2
:102BF200FDEF15F009EF16F03F0E016E000E3DECF1
:102C020015F03F0E016E010E3DEC15F015EF16F0BA
:102C12003E0E016E000E3DEC15F03E0E016E010EF1
:102C22003DEC15F015EF16F0000E19EC16F012003F
:102C3200036E000E056E070E056422EF16F024EFF8
:102C420016F028EF16F074EF16F074EF16F08A946F
:102C5200400E016E000E3DEC15F0400E016E010EAD
:102C62003DEC15F00550B809016E000E3DEC15F073
:102C72000550B809016E010E3DEC15F08A84000E74
:102C8200046E3F0E046448EF16F04AEF16F04EEF62
:102C920016F069EF16F069EF16F00350010DF350CC
:102CA2000008016E000E3DEC15F00350010DF350CB
:102CB2000008016E010E3DEC15F0042A3F0E04647B
:102CC20065EF16F067EF16F04EEF16F069EF16F0AB
:102CD200052A070E056470EF16F072EF16F028EF62
:102CE20016F074EF16F01200086E000E0B6E0A0E4C
:102CF2000818D8A47FEF16F081EF16F088EF16F0CF
:102D0200000E4D6E4C2A0AEF17F00AEF17F03F0E35
:102D12004D648EEF16F090EF16F097EF16F0010E5D
:102D22000B6E4D50C00F096E9BEF16F04DC009F0AF
:102D32009BEF16F00850080DF3CF06F0F4CF07F022
:102D4200000E0A6E070E0A64A9EF16F0ABEF16F03A
:102D5200AFEF16F008EF17F008EF17F03F0E096417
:102D6200B5EF16F0B7EF16F0CBEF16F0400E095E96
:102D7200010E0B6E8A9409504009016E0B503DEC16
:102D820015F04C50B809016E0B503DEC15F08A84D9
:102D9200CBEF16F00350D8B4D1EF16F0D3EF16F004
:102DA200E7EF16F00A500624046E000E0720056EA7
:102DB200010E0424F66E6B0E0520F76E0800F5CFA7
:102DC20001F00B503DEC15F0FCEF16F00A50062412
:102DD200046E000E0720056E010E0424F66E6B0EC3
:102DE2000520F76E0800F550FF0A016E0B503DEC0E
:102DF20015F0FCEF16F0092A0A2A070E0A6404EFFE
:102E020017F006EF17F0AFEF16F008EF17F0080E05
:102E12004D261200000E846E000E476E000E466EA6
:102E2200000E496E000E486E24EC15F0010EC9EC3E
:102E320015F0010E036E0A0E91EC15F0D30E0C6E16
:102E42007F0E0D6E010E0E6E010E0F6E5AEC15F016
:102E5200060E456E130E446EAE0EE82EFED7442EBD
:102E6200FCD7452EFAD7030E036E1E0E91EC15F019
:102E7200F60E0C6E7F0E0D6E010E0E6E010E0F6EB3
:102E82005AEC15F0050E036E0A0E91EC15F0340E95
:102E9200446EF20EE82EFED7442EFCD7C40E0C6E02
:102EA2007F0E0D6E010E0E6E010E0F6E5AEC15F0B6
:102EB200070E036E1E0E91EC15F0EC0E0C6E7F0EDB
:102EC2000D6E010E0E6E010E0F6E5AEC15F0070E0E
:102ED200456E170E446E6A0EE82EFED7442EFCD7BE
:102EE200452EFAD700D0000EC9EC15F0010EC9EC40
:102EF20015F0040E036E140E91EC15F0E10E0C6E3B
:102F02007F0E0D6E010E0E6E010E0F6E5AEC15F055
:102F1200050E456E0F0E446EF10EE82EFED7442EBE
:102F2200FCD7452EFAD700F0000EC9EC15F0010EC1
:102F3200C9EC15F043EC18F09DEF17F000EF00F02C
:102F4200076E000E096E0A0E0718D8A4ABEF17F031
:102F5200ADEF17F0B4EF17F0000E4D6E4C2A42EFB2
:102F620018F042EF18F03F0E4D64BAEF17F0BCEFC5
:102F720017F0C3EF17F0010E096E4D50C00F066E29
:102F8200C7EF17F04DC006F0C7EF17F0200E075E2F
:102F9200000E086E020E0864D1EF17F0D3EF17F09F
:102FA200D7EF17F040EF18F040EF18F03F0E06642D
:102FB200DDEF17F0DFEF17F0F3EF17F0400E065ECC
:102FC200010E096E8A9406504009016E09503DECCB
:102FD20015F04C50B809016E09503DEC15F08A8489
:102FE200F3EF17F00350D8B4F9EF17F0FBEF17F037
:102FF20017EF18F00750030D010E046E7F0E056ED9
:10300200F3500426F45005220850010DF350042613
:10301200F450052204C0F6FF05C0F7FF0800F5CF03
:1030220001F009503DEC15F034EF18F00750030D94
:10303200010E046E7F0E056EF3500426F450052235
:103042000850010DF3500426F450052204C0F6FF87
:1030520005C0F7FF0800F550FF0A016E09503DEC6C
:1030620015F034EF18F0062A082A020E08643CEF25
:1030720018F03EEF18F0D7EF17F040EF18F0050EFA
:103082004D261200030E416EE80E406E000E396EA0
:10309200050E386E000E3B6EFC0E3A6E000E3D6E53
:1030A2007B0E3C6E000E3F6E850E3E6E000E266E4F
:1030B200000E256E000E126E000E116E000E296EAD
:1030C200000E286E000E146E000E136E000E166EA9
:1030D200000E156E000E186E000E176E000E1A6EA0
:1030E200000E196E000E316E000E306E010E436E30
:1030F200A20E426E000E1C6E000E1B6E000E206EA3
:10310200000E1F6E000E336E000E326E000E356E14
:10311200000E346E000E1E6E000E1D6E000E226E2C
:10312200010E216E000E2B6E010E2A6E000E246E11
:10313200010E236E000E2D6E010E2C6E000E382431
:10314200D96E040E3920DA6E3C0EDF6E010E382481
:10315200036E000E3920046E000E0324D96E040E95
:103162000420DA6EB40EDF6EFF0E056EFF0E066EE1
:1031720038C007F039C008F005500726065008226B
:10318200000E0724E16E040E0820E26EDFCFE7FF97
:10319200020E3824036E000E3920046E000E032442
:1031A200D96E040E0420DA6ECA0EDF6EFE0E056EB4
:1031B200FF0E066E38C007F039C008F0055007262A
:1031C20006500822000E0724E16E040E0820E26E6B
:1031D200DFCFE7FF030E3824036E000E3920046EA2
:1031E200000E0324D96E040E0420DA6E190EDF6E6F
:1031F200FD0E056EFF0E066E38C007F039C008F0EE
:103202000550072606500822000E0724E16E040E20
:103212000820E26EDFCFE7FF000E3A24D96E040EDB
:103222003B20DA6E3C0EDF6E010E3A24036E000E76
:103232003B20046E000E0324D96E040E0420DA6EC5
:10324200B40EDF6EFF0E056EFF0E066E3AC007F07B
:103252003BC008F00550072606500822000E07243E
:10326200E16E040E0820E26EDFCFE7FF020E3A2481
:10327200036E000E3B20046E000E0324D96E040E72
:103282000420DA6ECA0EDF6EFE0E056EFF0E066EAB
:103292003AC007F03BC008F0055007260650082246
:1032A200000E0724E16E040E0820E26EDFCFE7FF76
:1032B200030E3A24036E000E3B20046E000E03241C
:1032C200D96E040E0420DA6E190EDF6EFD0E056E45
:1032D200FF0E066E3AC007F03BC008F00550072605
:1032E20006500822000E0724E16E040E0820E26E4A
:1032F200DFCFE7FF000E3C24D96E040E3D20DA6ECC
:103302003C0EDF6E010E3C24036E000E3D20046E67
:10331200000E0324D96E040E0420DA6EB40EDF6EA2
:10332200FF0E056EFF0E066E3CC007F03DC008F0B2
:103332000550072606500822000E0724E16E040EEF
:103342000820E26EDFCFE7FF020E3C24036E000E80
:103352003D20046E000E0324D96E040E0420DA6EA2
:10336200CA0EDF6EFE0E056EFF0E066E3CC007F043
:103372003DC008F00550072606500822000E07241B
:10338200E16E040E0820E26EDFCFE7FF030E3C245D
:10339200036E000E3D20046E000E0324D96E040E4F
:1033A2000420DA6E190EDF6EFD0E056EFF0E066E3C
:1033B2003CC007F03DC008F0055007260650082221
:1033C200000E0724E16E040E0820E26EDFCFE7FF55
:1033D200000E3E24D96E040E3F20DA6E3C0EDF6EE4
:1033E200010E3E24036E000E3F20046E000E0324E5
:1033F200D96E040E0420DA6EB40EDF6EFF0E056E77
:10340200FF0E066E3EC007F03FC008F005500726CB
:1034120006500822000E0724E16E040E0820E26E18
:10342200DFCFE7FF020E3E24036E000E3F20046E44
:10343200000E0324D96E040E0420DA6ECA0EDF6E6B
:10344200FE0E056EFF0E066E3EC007F03FC008F08E
:103452000550072606500822000E0724E16E040ECE
:103462000820E26EDFCFE7FF030E3E24036E000E5C
:103472003F20046E000E0324D96E040E0420DA6E7F
:10348200190EDF6EFD0E056EFF0E066E3EC007F0D2
:103492003FC008F00550072606500822000E0724F8
:1034A200E16E040E0820E26EDFCFE7FF000E40243B
:1034B200D96E040E4120DA6EFF0EDF6E010E40243B
:1034C200036E000E4120046E000E0324D96E040E1A
:1034D2000420DA6EFC0EDF6EFF0E056EFF0E066E26
:1034E20040C007F041C008F00550072606500822E8
:1034F200000E0724E16E040E0820E26EDFCFE7FF24
:10350200020E4024036E000E4120046E000E0324BE
:10351200D96E040E0420DA6EF00EDF6EFE0E056E1A
:10352200FF0E066E40C007F041C008F005500726A6
:1035320006500822000E0724E16E040E0820E26EF7
:10354200DFCFE7FFA5EF1AF0000E106E000E0F6E30
:10355200000E2E6E070E2E64B1EF1AF0B3EF1AF0C2
:10356200B7EF1AF00CEF1BF00CEF1BF0000E2F6EF2
:10357200010E2F64BFEF1AF0C1EF1AF0C5EF1AF077
:1035820003EF1BF003EF1BF08A94400E016E2F50E5
:103592003DEC15F02E50B809016E2F503DEC15F0A0
:1035A2008A84000E276E3F0E2764DAEF1AF0DCEFF2
:1035B2001AF0E0EF1AF0F8EF1AF0F8EF1AF0000E36
:1035C2000F24D96E040E1020DA6EDF50016E2F50D8
:1035D2003DEC15F00F4A102A272A3F0E2764F4EF1C
:1035E2001AF0F6EF1AF0E0EF1AF0F8EF1AF02F2ABD
:1035F200010E2F64FFEF1AF001EF1BF0C5EF1AF076
:1036020003EF1BF02E2A070E2E640AEF1BF00CEFBD
:103612001BF0B7EF1AF08A908A922C502D10D8B472
:1036220015EF1BF017EF1BF009EF1DF0BD0E3E1852
:103632003F10D8A41FEF1BF021EF1BF027EF1BF068
:10364200000E186E010E176E27EF1BF0840E3E1847
:103652003F10D8A42FEF1BF031EF1BF037EF1BF018
:10366200000E186E000E176E37EF1BF01750181071
:10367200D8A43EEF1BF040EF1BF020EF1CF0030E2E
:103682003E24036E000E3F20046E000E0324D96E0A
:10369200040E0420DA6E040E3E24056E000E3F2056
:1036A200066E000E0524E16E040E0620E26EDFCFE8
:1036B200E7FF020E3E24036E000E3F20046E000E52
:1036C2000324D96E040E0420DA6E030E3E24056E26
:1036D200000E3F20066E000E0524E16E040E062049
:1036E200E26EDFCFE7FF010E3E24036E000E3F20A5
:1036F200046E000E0324D96E040E0420DA6E020E4C
:103702003E24056E000E3F20066E000E0524E16E7B
:10371200040E0620E26EDFCFE7FF000E3E24D96ED4
:10372200040E3F20DA6E010E3E24036E000E3F208F
:10373200046E000E0324E16E040E0420E26EDFCF5D
:10374200E7FFFF0E036EFF0E046E3EC005F03FC0A2
:1037520006F00350052604500622000E0524D96EF9
:10376200040E0620DA6E000E3E24E16E040E3F20A7
:10377200E26EDFCFE7FFFE0E036EFF0E046E3EC069
:1037820005F03FC006F00350052604500622000E45
:103792000524D96E040E0620DA6EFF0E076EFF0EA8
:1037A200086E3EC009F03FC00AF0075009260850D3
:1037B2000A22000E0924E16E040E0A20E26EDFCF17
:1037C200E7FFFD0E036EFF0E046E3EC005F03FC024
:1037D20006F00350052604500622000E0524D96E79
:1037E200040E0620DA6EFE0E076EFF0E086E3EC055
:1037F20009F03FC00AF00750092608500A22000EBD
:103802000924E16E040E0A20E26EDFCFE7FFFD0E0F
:10381200036EFF0E046E3EC005F03FC006F003507B
:10382200052604500622000E0524D96E040E062039
:10383200DA6E000EDF6E3E4A3F2A09EF1DF0FD0EE2
:10384200036EFF0E046E3EC005F03FC006F003504B
:10385200052604500622000E0524D96E040E062009
:10386200DA6EFC0E076EFF0E086E3EC009F03FC016
:103872000AF00750092608500A22000E0924E16EB8
:10388200040E0A20E26EDFCFE7FFFE0E036EFF0E8C
:10389200046E3EC005F03FC006F0035005260450FA
:1038A2000622000E0524D96E040E0620DA6EFD0EE5
:1038B200076EFF0E086E3EC009F03FC00AF00750C7
:1038C200092608500A22000E0924E16E040E0A207D
:1038D200E26EDFCFE7FFFF0E036EFF0E046E3EC007
:1038E20005F03FC006F00350052604500622000EE4
:1038F2000524D96E040E0620DA6EFE0E076EFF0E48
:10390200086E3EC009F03FC00AF007500926085071
:103912000A22000E0924E16E040E0A20E26EDFCFB5
:10392200E7FF000E3E24D96E040E3F20DA6EFF0E32
:10393200036EFF0E046E3EC005F03FC006F003505A
:10394200052604500622000E0524E16E040E062010
:10395200E26EDFCFE7FF010E3E24036E000E3F2032
:10396200046E000E0324D96E040E0420DA6E000EDB
:103972003E24E16E040E3F20E26EDFCFE7FF020E2F
:103982003E24036E000E3F20046E000E0324D96E07
:10399200040E0420DA6E010E3E24056E000E3F2056
:1039A200066E000E0524E16E040E0620E26EDFCFE5
:1039B200E7FF030E3E24036E000E3F20046E000E4E
:1039C2000324D96E040E0420DA6E020E3E24056E24
:1039D200000E3F20066E000E0524E16E040E062046
:1039E200E26EDFCFE7FF030E3E24036E000E3F20A0
:1039F200046E000E0324D96E040E0420DA6E000E4B
:103A0200DF6E3E06D8A03F0609EF1DF009EF1DF05C
:103A120023502410D8B410EF1DF012EF1DF004EF64
:103A22001FF0440E3C183D10D8A41AEF1DF01CEFF5
:103A32001DF022EF1DF0000E166E010E156E22EF24
:103A42001DF07C0E3C183D10D8A42AEF1DF02CEF7F
:103A52001DF032EF1DF0000E166E000E156E32EFE5
:103A62001DF015041610D8A439EF1DF03BEF1DF020
:103A72001BEF1EF0030E3C24036E000E3D20046E6D
:103A8200000E0324D96E040E0420DA6E040E3C24C8
:103A9200056E000E3D20066E000E0524E16E040E3A
:103AA2000620E26EDFCFE7FF020E3C24036E000E1B
:103AB2003D20046E000E0324D96E040E0420DA6E3B
:103AC200030E3C24056E000E3D20066E000E0524FA
:103AD200E16E040E0620E26EDFCFE7FF010E3C240A
:103AE200036E000E3D20046E000E0324D96E040EF8
:103AF2000420DA6E020E3C24056E000E3D20066E96
:103B0200000E0524E16E040E0620E26EDFCFE7FF11
:103B1200000E3C24D96E040E3D20DA6E010E3C24C8
:103B2200036E000E3D20046E000E0324E16E040EAF
:103B32000420E26EDFCFE7FFFF0E036EFF0E046E7E
:103B42003CC005F03DC006F0035005260450062295
:103B5200000E0524D96E040E0620DA6E000E3C24F7
:103B6200E16E040E3D20E26EDFCFE7FFFE0E036E34
:103B7200FF0E046E3CC005F03DC006F00350052662
:103B820004500622000E0524D96E040E0620DA6EB9
:103B9200FF0E076EFF0E086E3CC009F03DC00AF032
:103BA2000750092608500A22000E0924E16E040E6D
:103BB2000A20E26EDFCFE7FFFD0E036EFF0E046EFA
:103BC2003CC005F03DC006F0035005260450062215
:103BD200000E0524D96E040E0620DA6EFE0E076E64
:103BE200FF0E086E3CC009F03DC00AF007500926DE
:103BF20008500A22000E0924E16E040E0A20E26E29
:103C0200DFCFE7FFFD0E036EFF0E046E3CC005F032
:103C12003DC006F00350052604500622000E05247E
:103C2200D96E040E0620DA6E000EDF6E3C4A3D2A83
:103C320004EF1FF0FD0E036EFF0E046E3CC005F094
:103C42003DC006F00350052604500622000E05244E
:103C5200D96E040E0620DA6EFC0E076EFF0E086E99
:103C62003CC009F03DC00AF00750092608500A225C
:103C7200000E0924E16E040E0A20E26EDFCFE7FF98
:103C8200FE0E036EFF0E046E3CC005F03DC006F052
:103C92000350052604500622000E0524D96E040E98
:103CA2000620DA6EFD0E076EFF0E086E3CC009F0AC
:103CB2003DC00AF00750092608500A22000E0924C6
:103CC200E16E040E0A20E26EDFCFE7FFFF0E036E05
:103CD200FF0E046E3CC005F03DC006F00350052601
:103CE20004500622000E0524D96E040E0620DA6E58
:103CF200FE0E076EFF0E086E3CC009F03DC00AF0D2
:103D02000750092608500A22000E0924E16E040E0B
:103D12000A20E26EDFCFE7FF000E3C24D96E040ECC
:103D22003D20DA6EFF0E036EFF0E046E3CC005F0FE
:103D32003DC006F00350052604500622000E05245D
:103D4200E16E040E0620E26EDFCFE7FF010E3C2497
:103D5200036E000E3D20046E000E0324D96E040E85
:103D62000420DA6E000E3C24E16E040E3D20E26E69
:103D7200DFCFE7FF020E3C24036E000E3D20046EEF
:103D8200000E0324D96E040E0420DA6E010E3C24C8
:103D9200056E000E3D20066E000E0524E16E040E37
:103DA2000620E26EDFCFE7FF030E3C24036E000E17
:103DB2003D20046E000E0324D96E040E0420DA6E38
:103DC200020E3C24056E000E3D20066E000E0524F8
:103DD200E16E040E0620E26EDFCFE7FF030E3C2405
:103DE200036E000E3D20046E000E0324D96E040EF5
:103DF2000420DA6E000EDF6E3C06D8A03D0604EF0A
:103E02001FF004EF1FF02A502B10D8B40BEF1FF055
:103E12000DEF1FF0FFEF20F0C00E3A183B10D8A4B0
:103E220015EF1FF017EF1FF01DEF1FF0000E146EBD
:103E3200010E136E1DEF1FF0FC0E3A183B10D8A4B2
:103E420025EF1FF027EF1FF02DEF1FF0000E146E6D
:103E5200000E136E2DEF1FF013041410D8A434EFCC
:103E62001FF036EF1FF016EF20F0030E3A24036E18
:103E7200000E3B20046E000E0324D96E040E0420B3
:103E8200DA6E040E3A24056E000E3B20066E000E1A
:103E92000524E16E040E0620E26EDFCFE7FF020E7C
:103EA2003A24036E000E3B20046E000E0324D96EEA
:103EB200040E0420DA6E030E3A24056E000E3B2037
:103EC200066E000E0524E16E040E0620E26EDFCFC0
:103ED200E7FF010E3A24036E000E3B20046E000E33
:103EE2000324D96E040E0420DA6E020E3A24056E03
:103EF200000E3B20066E000E0524E16E040E062025
:103F0200E26EDFCFE7FF000E3A24D96E040E3B20AB
:103F1200DA6E010E3A24036E000E3B20046E000E90
:103F22000324E16E040E0420E26EDFCFE7FFFF0EF2
:103F3200036EFF0E046E3AC005F03BC006F003505C
:103F4200052604500622000E0524D96E040E062012
:103F5200DA6E000E3A24E16E040E3B20E26EDFCFF1
:103F6200E7FFFE0E036EFF0E046E3AC005F03BC083
:103F720006F00350052604500622000E0524D96ED1
:103F8200040E0620DA6EFF0E076EFF0E086E3AC0B0
:103F920009F03BC00AF00750092608500A22000E19
:103FA2000924E16E040E0A20E26EDFCFE7FFFD0E68
:103FB200036EFF0E046E3AC005F03BC006F00350DC
:103FC200052604500622000E0524D96E040E062092
:103FD200DA6EFE0E076EFF0E086E3AC009F03BC0A5
:103FE2000AF00750092608500A22000E0924E16E41
:103FF200040E0A20E26EDFCFE7FFFD0E036EFF0E16
:10400200046E3AC005F03BC006F00350052604508A
:104012000622000E0524D96E040E0620DA6E000E6A
:10402200DF6E3A4A3B2AFFEF20F0FD0E036EFF0ED1
:10403200046E3AC005F03BC006F00350052604505A
:104042000622000E0524D96E040E0620DA6EFC0E3E
:10405200076EFF0E086E3AC009F03BC00AF0075027
:10406200092608500A22000E0924E16E040E0A20D5
:10407200E26EDFCFE7FFFE0E036EFF0E046E3AC064
:1040820005F03BC006F00350052604500622000E40
:104092000524D96E040E0620DA6EFD0E076EFF0EA1
:1040A200086E3AC009F03BC00AF0075009260850D2
:1040B2000A22000E0924E16E040E0A20E26EDFCF0E
:1040C200E7FFFF0E036EFF0E046E3AC005F03BC021
:1040D20006F00350052604500622000E0524D96E70
:1040E200040E0620DA6EFE0E076EFF0E086E3AC050
:1040F20009F03BC00AF00750092608500A22000EB8
:104102000924E16E040E0A20E26EDFCFE7FF000E03
:104112003A24D96E040E3B20DA6EFF0E036EFF0EB8
:10412200046E3AC005F03BC006F003500526045069
:104132000622000E0524E16E040E0620E26EDFCF99
:10414200E7FF010E3A24036E000E3B20046E000EC0
:104152000324D96E040E0420DA6E000E3A24E16EB6
:10416200040E3B20E26EDFCFE7FF020E3A24036E1D
:10417200000E3B20046E000E0324D96E040E0420B0
:10418200DA6E010E3A24056E000E3B20066E000E1A
:104192000524E16E040E0620E26EDFCFE7FF030E78
:1041A2003A24036E000E3B20046E000E0324D96EE7
:1041B200040E0420DA6E020E3A24056E000E3B2035
:1041C200066E000E0524E16E040E0620E26EDFCFBD
:1041D200E7FF030E3A24036E000E3B20046E000E2E
:1041E2000324D96E040E0420DA6E000EDF6E3A0646
:1041F200D8A03B06FFEF20F0FFEF20F02150221065
:10420200D8B406EF21F008EF21F0FAEF22F0400EC9
:1042120038183910D8A410EF21F012EF21F018EF5E
:1042220021F0000E126E010E116E18EF21F0040E35
:1042320038183910D8A420EF21F022EF21F028EF0E
:1042420021F0000E126E000E116E28EF21F01150B7
:104252001210D8A42FEF21F031EF21F011EF22F04C
:10426200030E3824036E000E3920046E000E032460
:10427200D96E040E0420DA6E040E3824056E000E88
:104282003920066E000E0524E16E040E0620E26E51
:10429200DFCFE7FF020E3824036E000E3920046ED2
:1042A200000E0324D96E040E0420DA6E030E3824A5
:1042B200056E000E3920066E000E0524E16E040E16
:1042C2000620E26EDFCFE7FF010E3824036E000EF8
:1042D2003920046E000E0324D96E040E0420DA6E17
:1042E200020E3824056E000E3920066E000E0524DB
:1042F200E16E040E0620E26EDFCFE7FF000E3824E7
:10430200D96E040E3920DA6E010E3824036E000EC7
:104312003920046E000E0324E16E040E0420E26EC6
:10432200DFCFE7FFFF0E036EFF0E046E38C005F00D
:1043320039C006F00350052604500622000E05245B
:10434200D96E040E0620DA6E000E3824E16E040ED9
:104352003920E26EDFCFE7FFFE0E036EFF0E046E22
:1043620038C005F039C006F0035005260450062275
:10437200000E0524D96E040E0620DA6EFF0E076EBB
:10438200FF0E086E38C009F039C00AF0075009263E
:1043920008500A22000E0924E16E040E0A20E26E81
:1043A200DFCFE7FFFD0E036EFF0E046E38C005F08F
:1043B20039C006F00350052604500622000E0524DB
:1043C200D96E040E0620DA6EFE0E076EFF0E086E20
:1043D20038C009F039C00AF00750092608500A22ED
:1043E200000E0924E16E040E0A20E26EDFCFE7FF21
:1043F200FD0E036EFF0E046E38C005F039C006F0E4
:104402000350052604500622000E0524D96E040E20
:104412000620DA6E000EDF6E384A392AFAEF22F0F1
:10442200FD0E036EFF0E046E38C005F039C006F0B3
:104432000350052604500622000E0524D96E040EF0
:104442000620DA6EFC0E076EFF0E086E38C009F009
:1044520039C00AF00750092608500A22000E092422
:10446200E16E040E0A20E26EDFCFE7FFFE0E036E5E
:10447200FF0E046E38C005F039C006F00350052661
:1044820004500622000E0524D96E040E0620DA6EB0
:10449200FD0E076EFF0E086E38C009F039C00AF033
:1044A2000750092608500A22000E0924E16E040E64
:1044B2000A20E26EDFCFE7FFFF0E036EFF0E046EEF
:1044C20038C005F039C006F0035005260450062214
:1044D200000E0524D96E040E0620DA6EFE0E076E5B
:1044E200FF0E086E38C009F039C00AF007500926DD
:1044F20008500A22000E0924E16E040E0A20E26E20
:10450200DFCFE7FF000E3824D96E040E3920DA6EB1
:10451200FF0E036EFF0E046E38C005F039C006F0C0
:104522000350052604500622000E0524E16E040EF7
:104532000620E26EDFCFE7FF010E3824036E000E85
:104542003920046E000E0324D96E040E0420DA6EA4
:10455200000E3824E16E040E3920E26EDFCFE7FF51
:10456200020E3824036E000E3920046E000E03245E
:10457200D96E040E0420DA6E010E3824056E000E88
:104582003920066E000E0524E16E040E0620E26E4E
:10459200DFCFE7FF030E3824036E000E3920046ECE
:1045A200000E0324D96E040E0420DA6E020E3824A3
:1045B200056E000E3920066E000E0524E16E040E13
:1045C2000620E26EDFCFE7FF030E3824036E000EF3
:1045D2003920046E000E0324D96E040E0420DA6E14
:1045E200000EDF6E3806D8A03906FAEF22F0FAEF95
:1045F20022F0000E3824D96E040E3920DA6EDF5014
:10460200D8A406EF23F008EF23F0CFEF27F0030E34
:104612003824036E000E3920046E000E0324D96E76
:10462200040E0420DA6EDF50D8A41AEF23F01CEF38
:1046320023F0CFEF27F0020E3824036E000E39204C
:10464200046E000E0324D96E040E0420DA6EDF50CD
:10465200D8A42EEF23F030EF23F0CFEF27F0010E96
:104662003824036E000E3920046E000E0324D96E26
:10467200040E0420DA6EDF50D8A442EF23F044EF98
:1046820023F0CFEF27F0FF0E036EFF0E046E38C04B
:1046920005F039C006F00350052604500622000E2C
:1046A2000524D96E040E0620DA6EDF50D8A45CEF22
:1046B20023F05EEF23F0CFEF27F0FE0E036EFF0E26
:1046C200046E38C005F039C006F0035005260450C8
:1046D2000622000E0524D96E040E0620DA6EDF5083
:1046E200D8A476EF23F078EF23F0CFEF27F0FD0E7A
:1046F200036EFF0E046E38C005F039C006F0035099
:10470200052604500622000E0524D96E040E06204A
:10471200DA6EDF50D8A490EF23F092EF23F0CFEFC0
:1047220027F0000E3A24D96E040E3B20DA6EDF50D9
:10473200D8A49EEF23F0A0EF23F0CFEF27F0030ED3
:104742003A24036E000E3B20046E000E0324D96E41
:10475200040E0420DA6EDF50D8A4B2EF23F0B4EFD7
:1047620023F0CFEF27F0020E3A24036E000E3B2017
:10477200046E000E0324D96E040E0420DA6EDF509C
:10478200D8A4C6EF23F0C8EF23F0CFEF27F0010E35
:104792003A24036E000E3B20046E000E0324D96EF1
:1047A200040E0420DA6EDF50D8A4DAEF23F0DCEF37
:1047B20023F0CFEF27F0FF0E036EFF0E046E3AC018
:1047C20005F03BC006F00350052604500622000EF9
:1047D2000524D96E040E0620DA6EDF50D8A4F4EF59
:1047E20023F0F6EF23F0CFEF27F0FE0E036EFF0E5D
:1047F200046E3AC005F03BC006F003500526045093
:104802000622000E0524D96E040E0620DA6EDF5051
:10481200D8A40EEF24F010EF24F0CFEF27F0FD0E16
:10482200036EFF0E046E3AC005F03BC006F0035063
:10483200052604500622000E0524D96E040E062019
:10484200DA6EDF50D8A428EF24F02AEF24F0CFEF5D
:1048520027F0000E3C24D96E040E3D20DA6EDF50A4
:10486200D8A436EF24F038EF24F0CFEF27F0030E70
:104872003C24036E000E3D20046E000E0324D96E0C
:10488200040E0420DA6EDF50D8A44AEF24F04CEF75
:1048920024F0CFEF27F0020E3C24036E000E3D20E1
:1048A200046E000E0324D96E040E0420DA6EDF506B
:1048B200D8A45EEF24F060EF24F0CFEF27F0010ED2
:1048C2003C24036E000E3D20046E000E0324D96EBC
:1048D200040E0420DA6EDF50D8A472EF24F074EFD5
:1048E20024F0CFEF27F0FF0E036EFF0E046E3CC0E4
:1048F20005F03DC006F00350052604500622000EC6
:104902000524D96E040E0620DA6EDF50D8A48CEF8F
:1049120024F08EEF24F0CFEF27F0FE0E036EFF0E91
:10492200046E3CC005F03DC006F00350052604505D
:104932000622000E0524D96E040E0620DA6EDF5020
:10494200D8A4A6EF24F0A8EF24F0CFEF27F0FD0EB5
:10495200036EFF0E046E3CC005F03DC006F003502E
:10496200052604500622000E0524D96E040E0620E8
:10497200DA6EDF50D8A4C0EF24F0C2EF24F0CFEFFC
:1049820027F0000E3E24D96E040E3F20DA6EDF506F
:10499200D8A4CEEF24F0D0EF24F0CFEF27F0030E0F
:1049A2003E24036E000E3F20046E000E0324D96ED7
:1049B200040E0420DA6EDF50D8A4E2EF24F0E4EF14
:1049C20024F0CFEF27F0020E3E24036E000E3F20AC
:1049D200046E000E0324D96E040E0420DA6EDF503A
:1049E200D8A4F6EF24F0F8EF24F0CFEF27F0010E71
:1049F2003E24036E000E3F20046E000E0324D96E87
:104A0200040E0420DA6EDF50D8A40AEF25F00CEF72
:104A120025F0CFEF27F0FF0E036EFF0E046E3EC0AF
:104A220005F03FC006F00350052604500622000E92
:104A32000524D96E040E0620DA6EDF50D8A424EFC6
:104A420025F026EF25F0CFEF27F0FE0E036EFF0EC6
:104A5200046E3EC005F03FC006F003500526045028
:104A62000622000E0524D96E040E0620DA6EDF50EF
:104A7200D8A43EEF25F040EF25F0CFEF27F0FD0E52
:104A8200036EFF0E046E3EC005F03FC006F00350F9
:104A9200052604500622000E0524D96E040E0620B7
:104AA200DA6EDF50D8A458EF25F05AEF25F0CFEF99
:104AB20027F0000E266E010E256E25042610D8A4BE
:104AC20065EF25F067EF25F0CFEF27F0000E316E8E
:104AD200000E306E31BE75EF25F0040E315CD8A0A9
:104AE20075EF25F077EF25F07BEF25F093EF25F0BA
:104AF20093EF25F0000E3024D96E040E3120DA6EC9
:104B0200000EDF6E304A312A31BE8FEF25F0040EDF
:104B1200315CD8A08FEF25F091EF25F07BEF25F0E7
:104B220093EF25F00E0E4224036E000E4320046E16
:104B3200000E0324D96E040E0420DA6E1F0EDF6EFF
:104B4200070E4224056E000E4320066E000E052459
:104B5200E16E040E0620E26EDFCFE7FF0D0E422467
:104B6200036E000E4320046E000E0324D96E040E61
:104B72000420DA6E200EDF6E080E4224056E000E4F
:104B82004320066E000E0524E16E040E0620E26E3E
:104B9200DFCFE7FF0C0E4224036E000E4320046EAB
:104BA200000E0324D96E040E0420DA6E400EDF6E6E
:104BB200090E4224056E000E4320066E000E0524E7
:104BC200E16E040E0620E26EDFCFE7FF0B0E4224F9
:104BD200036E000E4320046E000E0324D96E040EF1
:104BE2000420DA6E800EDF6E0A0E4224056E000E7D
:104BF2004320066E000E0524E16E040E0620E26ECE
:104C0200DFCFE7FF110E4224036E000E4320046E35
:104C1200000E0324D96E040E0420DA6EFF0EDF6E3E
:104C2200100E4224056E000E4320066E000E05246F
:104C3200E16E040E0620E26EDFCFE7FF130E422480
:104C4200036E000E4320046E000E0324D96E040E80
:104C52000420DA6EFF0EDF6E170E4224036E000E82
:104C62004320046E000E0324D96E040E0420DA6E73
:104C7200810EDF6E160E4224056E000E4320066E74
:104C8200000E0524E16E040E0620E26EDFCFE7FF80
:104C9200150E4224076E000E4320086E000E0724F4
:104CA200D96E040E0820DA6EE7CFDFFF140E42241D
:104CB200096E000E43200A6E000E0924E16E040EF6
:104CC2000A20E26EDFCFE7FF1F0E4224036E000EC2
:104CD2004320046E000E0324D96E040E0420DA6E03
:104CE200010EDF6E1E0E4224056E000E4320066E7C
:104CF200000E0524E16E040E0620E26EDFCFE7FF10
:104D02001D0E4224076E000E4320086E000E07247B
:104D1200D96E040E0820DA6EE7CFDFFF1B0E4224A5
:104D2200096E000E43200A6E000E0924E16E040E85
:104D32000A20E26EDFCFE7FF1A0E42240B6E000E4E
:104D420043200C6E000E0B24D96E040E0C20DA6E7A
:104D5200E7CFDFFF190E42240D6E000E43200E6EC8
:104D6200000E0D24E16E040E0E20E26EDFCFE7FF8F
:104D72001C0E4224036E000E4320046E000E032418
:104D8200D96E040E0420DA6EFF0EDF6E040E42248A
:104D9200426E000E4320436E230E4224036E000E29
:104DA2004320046E000E0324D96E040E0420DA6E32
:104DB200FF0EDF6E1E0E4224056E000E4320066EAD
:104DC200000E0524E16E040E0620E26EDFCFE7FF3F
:104DD200220E4224036E000E4320046E000E0324B2
:104DE200D96E040E0420DA6E810EDF6E210E42248B
:104DF200056E000E4320066E000E0524E16E040EC1
:104E02000620E26EDFCFE7FF200E4224076E000E7F
:104E12004320086E000E0724D96E040E0820DA6EB5
:104E2200E7CFDFFF1F0E4224096E000E43200A6EF9
:104E3200000E0924E16E040E0A20E26EDFCFE7FFC6
:104E4200020E4224426E000E4320436E250E42247F
:104E5200036E000E4320046E000E0324D96E040E6E
:104E62000420DA6EFF0EDF6E240E4224056E000E61
:104E72004320066E000E0524E16E040E0620E26E4B
:104E8200DFCFE7FF270E4224036E000E4320046E9D
:104E9200000E0324D96E040E0420DA6EFF0EDF6EBC
:104EA200280E4224036E000E4320046E000E0324DB
:104EB200D96E040E0420DA6E110EDF6E290E422422
:104EC200036E000E4320046E000E0324D96E040EFE
:104ED2000420DA6E310EDF6E2A0E4224036E000EBB
:104EE2004320046E000E0324D96E040E0420DA6EF1
:104EF2004A0EDF6E2B0E4224036E000E4320046E18
:104F0200000E0324D96E040E0420DA6E840EDF6EC6
:104F12002D0E4224036E000E4320046E000E032465
:104F2200D96E040E0420DA6EFF0EDF6E300E4224BC
:104F3200036E000E4320046E000E0324D96E040E8D
:104F42000420DA6E910EDF6E2F0E4224056E000EE3
:104F52004320066E000E0524E16E040E0620E26E6A
:104F6200DFCFE7FF2E0E4224076E000E4320086EAD
:104F7200000E0724D96E040E0820DA6EE7CFDFFF99
:104F8200000E4B6E010E4A6ECFEF27F0CFEF27F0E7
:104F9200CFEF27F0CFEF27F0CFEF27F0640E1B18EB
:104FA2001C10D8A4D7EF27F0D9EF27F035EF28F05F
:104FB200000E206E010E1F6E000E1C6E000E1B6E88
:104FC2002A502B10D8B4E8EF27F0EAEF27F0F0EFE1
:104FD20027F03AC032F03BC033F00AEF28F02A50F3
:104FE2002B10D8A4F7EF27F0F9EF27F00AEF28F0FB
:104FF20023502410D8B400EF28F002EF28F00AEF73
:1050020028F03CC032F03DC033F00AEF28F00AEF3E
:1050120028F02C502D10D8B411EF28F013EF28F0FF
:1050220019EF28F03EC034F03FC035F035EF28F0DC
:105032002C502D10D8A420EF28F022EF28F035EFC5
:1050420028F021502210D8B429EF28F02BEF28F0B5
:1050520035EF28F038C034F039C035F035EF28F09C
:1050620035EF28F035EF28F01B4A1C2A1F042010C8
:10507200D8A43EEF28F040EF28F026EF29F0800E6A
:105082003424036E000E3520046E000E0324D96E04
:10509200040E0420DA6EFF0EDF6E810E3424036EDE
:1050A200000E3520046E000E0324D96E040E042077
:1050B200DA6EFF0EDF6E28042910D8A463EF28F001
:1050C20065EF28F07BEF28F0000E3424D96E040E31
:1050D2003520DA6E000EDF6E010E3424036E000EF0
:1050E2003520046E000E0324D96E040E0420DA6EFD
:1050F200000EDF6E800E3224036E000E3320046E2B
:10510200000E0324D96E040E0420DA6EFF0EDF6E49
:10511200810E3224036E000E3320046E000E03242F
:10512200D96E040E0420DA6EFF0EDF6E28042910F9
:10513200D8A49EEF28F0A0EF28F0B8EF28F0000ED8
:105142003224D96E040E3320DA6E000EDF6E010EA9
:105152003224036E000E3320046E000E0324D96E37
:10516200040E0420DA6E000EDF6EB8EF28F0000E97
:10517200296E010E286E800E3224326E000E33200C
:10518200336E800E3424346E000E3520356E33BEFD
:10519200D4EF28F0810E325C030E3358D8A0D4EF3E
:1051A20028F0D6EF28F0F6EF28F0000E3224D96E60
:1051B200040E3320DA6E000EDF6E010E3224036E0F
:1051C200000E3320046E000E0324D96E040E042058
:1051D200DA6E000EDF6E000E206E000E1F6E000EE5
:1051E200296E000E286EF6EF28F035BE02EF29F088
:1051F200810E345C030E3558D8A002EF29F004EF7B
:1052020029F026EF29F0000E3424D96E040E352041
:10521200DA6E000EDF6E010E3424036E000E3520AE
:10522200046E000E0324D96E040E0420DA6E000E02
:10523200DF6E000E206E000E1F6E000E296E000E35
:10524200286E26EF29F026EF29F081AC2BEF29F00A
:105252002DEF29F037EF29F0000E1A6E010E196EAC
:1052620040C036F041C037F037EF29F019041A1068
:10527200D8A43EEF29F040EF29F09BEF30F037BE83
:105282004EEF29F0375007E1810E365CD8B04CEF73
:1052920029F04EEF29F080EF29F0000E3624D96E66
:1052A200040E3720DA6E000EDF6E010E3624036E16
:1052B200000E3720046E000E0324D96E040E042063
:1052C200DA6E000EDF6EFF0E036EFF0E046E36C046
:1052D20005F037C006F00350052604500622000EE2
:1052E2000524D96E040E0620DA6E000EDF6E000E63
:1052F2001A6E000E196E000E1E6E000E1D6E800ECE
:10530200036EFF0E046E36C005F037C006F0035080
:10531200052604500622000E0524D96E040E06202E
:10532200DA6EDF50D8A498EF29F09AEF29F00CEF4B
:105332002AF07F0E036EFF0E046E36C005F037C0F2
:1053420006F00350052604500622000E0524D96EED
:10535200040E0620DA6EDF50D8A4B2EF29F0B4EFC3
:1053620029F00CEF2AF0810E036EFF0E046E36C098
:1053720005F037C006F00350052604500622000E41
:105382000524D96E040E0620DA6EDF50D8A4CCEFC5
:1053920029F0CEEF29F00CEF2AF0800E036EFF0EFB
:1053A200046E36C005F037C006F0035005260450DF
:1053B2000622000E0524D96E040E0620DA6EFF0EB8
:1053C200DF6E7F0E036EFF0E046E36C005F037C02F
:1053D20006F00350052604500622000E0524D96E5D
:1053E200040E0620DA6EFF0EDF6E810E036EFF0ED4
:1053F200046E36C005F037C006F00350052604508F
:105402000622000E0524D96E040E0620DA6EFF0E67
:10541200DF6E0EEF30F0800E036EFF0E046E36C0AC
:1054220005F037C006F00350052604500622000E90
:105432000524D96E040E0620DA6EDE28D8A424EFE5
:105442002AF026EF2AF0C2EF2AF07F0E036EFF0E3B
:10545200046E36C005F037C006F00350052604502E
:105462000622000E0524D96E040E0620DA6EDE280E
:10547200D8A43EEF2AF040EF2AF0C2EF2AF0810EC4
:10548200036EFF0E046E36C005F037C006F00350FF
:10549200052604500622000E0524D96E040E0620AD
:1054A200DA6EDE28D8A458EF2AF05AEF2AF0C2EFBB
:1054B2002AF0800E036EFF0E046E36C005F037C070
:1054C20006F00350052604500622000E0524D96E6C
:1054D200040E0620DA6E000EDF6E7F0E036EFF0EE4
:1054E200046E36C005F037C006F00350052604509E
:1054F2000622000E0524D96E040E0620DA6E000E76
:10550200DF6E810E036EFF0E046E36C005F037C0EB
:1055120006F00350052604500622000E0524D96E1B
:10552200040E0620DA6E000EDF6E000E3624D96EEF
:10553200040E3720DA6E000EDF6E010E3624036E83
:10554200000E3720046E000E0324D96E040E0420D0
:10555200DA6E000EDF6EFF0E036EFF0E046E36C0B3
:1055620005F037C006F00350052604500622000E4F
:105572000524D96E040E0620DA6E000EDF6E0EEFE1
:1055820030F0800E036EFF0E046E36C005F037C099
:1055920006F00350052604500622030E3824076E37
:1055A200000E3920086E0550075C0850800A096E0B
:1055B2000650800A0958D8A0E1EF2AF0E3EF2AF05A
:1055C2000CEF2BF0FD0E036EFF0E046E38C005F0DB
:1055D20039C006F00350052604500622800E076EDD
:1055E200FF0E086E36C009F037C00AF007500926D0
:1055F20008500A220550095C0A50800A0B6E0650B8
:10560200800A0B58D8B008EF2BF00AEF2BF0A0EF6E
:105612002BF00CEF2BF0810E036EFF0E046E36C0E2
:1056220005F037C006F00350052604500622030E8B
:105632003824076E000E3920086E0550075C0850AA
:10564200800A096E0650800A0958D8A02BEF2BF069
:105652002DEF2BF056EF2BF0FD0E036EFF0E046EB6
:1056620038C005F039C006F0035005260450062262
:10567200810E076EFF0E086E36C009F037C00AF0C1
:105682000750092608500A220550095C0A50800A70
:105692000B6E0650800A0B58D8B052EF2BF054EF25
:1056A2002BF0A0EF2BF056EF2BF07F0E036EFF0EC8
:1056B200046E36C005F037C006F0035005260450CC
:1056C2000622030E3824076E000E3920086E05509C
:1056D200075C0850800A096E0650800A0958D8A053
:1056E20075EF2BF077EF2BF014EF2CF0FD0E036E1D
:1056F200FF0E046E38C005F039C006F003500526CF
:10570200045006227F0E076EFF0E086E36C009F0A7
:1057120037C00AF00750092608500A220550095CD2
:105722000A50800A0B6E0650800A0B58D8A09CEFD4
:105732002BF09EEF2BF014EF2CF0A0EF2BF0000ECD
:105742003824D96E040E3920DA6E000EDF6E010E97
:105752003824036E000E3920046E000E0324D96E25
:10576200040E0420DA6E000EDF6E020E3824036E81
:10577200000E3920046E000E0324D96E040E04209C
:10578200DA6E000EDF6E030E3824036E000E39202F
:10579200046E000E0324D96E040E0420DA6E000E8D
:1057A200DF6EFF0E036EFF0E046E38C005F039C0C7
:1057B20006F00350052604500622000E0524D96E79
:1057C200040E0620DA6E000EDF6EFE0E036EFF0E72
:1057D200046E38C005F039C006F0035005260450A7
:1057E2000622000E0524D96E040E0620DA6E000E83
:1057F200DF6EFD0E036EFF0E046E38C005F039C079
:1058020006F00350052604500622000E0524D96E28
:10581200040E0620DA6E000EDF6E000E226E000EFF
:10582200216E14EF2CF0800E036EFF0E046E36C054
:1058320005F037C006F00350052604500622030E79
:105842003A24076E000E3B20086E0550075C085094
:10585200800A096E0650800A0958D8A033EF2CF04E
:1058620035EF2CF05EEF2CF0FD0E036EFF0E046E92
:105872003AC005F03BC006F003500526045006224C
:10588200800E076EFF0E086E36C009F037C00AF0B0
:105892000750092608500A220550095C0A50800A5E
:1058A2000B6E0650800A0B58D8B05AEF2CF05CEF02
:1058B2002CF0F2EF2CF05EEF2CF0810E036EFF0E57
:1058C200046E36C005F037C006F0035005260450BA
:1058D2000622030E3A24076E000E3B20086E055086
:1058E200075C0850800A096E0650800A0958D8A041
:1058F2007DEF2CF07FEF2CF0A8EF2CF0FD0E036E65
:10590200FF0E046E3AC005F03BC006F003500526B8
:1059120004500622810E076EFF0E086E36C009F093
:1059220037C00AF00750092608500A220550095CC0
:105932000A50800A0B6E0650800A0B58D8B0A4EFAA
:105942002CF0A6EF2CF0F2EF2CF0A8EF2CF07F0E4B
:10595200036EFF0E046E36C005F037C006F003502A
:10596200052604500622030E3A24076E000E3B2041
:10597200086E0550075C0850800A096E0650800ABE
:105982000958D8A0C7EF2CF0C9EF2CF066EF2DF024
:10599200FD0E036EFF0E046E3AC005F03BC006F02A
:1059A20003500526045006227F0E076EFF0E086E76
:1059B20036C009F037C00AF00750092608500A22FB
:1059C2000550095C0A50800A0B6E0650800A0B587B
:1059D200D8A0EEEF2CF0F0EF2CF066EF2DF0F2EF06
:1059E2002CF0000E3A24D96E040E3B20DA6E000E23
:1059F200DF6E010E3A24036E000E3B20046E000E91
:105A02000324D96E040E0420DA6E000EDF6E020E3D
:105A12003A24036E000E3B20046E000E0324D96E5E
:105A2200040E0420DA6E000EDF6E030E3A24036EBB
:105A3200000E3B20046E000E0324D96E040E0420D7
:105A4200DA6E000EDF6EFF0E036EFF0E046E3AC0BA
:105A520005F03BC006F00350052604500622000E56
:105A62000524D96E040E0620DA6E000EDF6EFE0EDD
:105A7200036EFF0E046E3AC005F03BC006F0035001
:105A8200052604500622000E0524D96E040E0620B7
:105A9200DA6E000EDF6EFD0E036EFF0E046E3AC06C
:105AA20005F03BC006F00350052604500622000E06
:105AB2000524D96E040E0620DA6E000EDF6E000E8B
:105AC2002B6E000E2A6E66EF2DF0800E036EFF0E17
:105AD200046E36C005F037C006F0035005260450A8
:105AE2000622030E3C24076E000E3D20086E055070
:105AF200075C0850800A096E0650800A0958D8A02F
:105B020085EF2DF087EF2DF0B0EF2DF0FD0E036E37
:105B1200FF0E046E3CC005F03DC006F003500526A2
:105B220004500622800E076EFF0E086E36C009F082
:105B320037C00AF00750092608500A220550095CAE
:105B42000A50800A0B6E0650800A0B58D8B0ACEF90
:105B52002DF0AEEF2DF044EF2EF0B0EF2DF0810ED0
:105B6200036EFF0E046E36C005F037C006F0035018
:105B7200052604500622030E3C24076E000E3D202B
:105B8200086E0550075C0850800A096E0650800AAC
:105B92000958D8A0CFEF2DF0D1EF2DF0FAEF2DF06C
:105BA200FD0E036EFF0E046E3CC005F03DC006F014
:105BB2000350052604500622810E076EFF0E086E62
:105BC20036C009F037C00AF00750092608500A22E9
:105BD2000550095C0A50800A0B6E0650800A0B5869
:105BE200D8B0F6EF2DF0F8EF2DF044EF2EF0FAEFEB
:105BF2002DF07F0E036EFF0E046E36C005F037C027
:105C020006F00350052604500622030E3C24076EBC
:105C1200000E3D20086E0550075C0850800A096E90
:105C22000650800A0958D8A019EF2EF01BEF2EF06B
:105C3200B8EF2EF0FD0E036EFF0E046E3CC005F0B1
:105C42003DC006F003500526045006227F0E076E63
:105C5200FF0E086E36C009F037C00AF00750092659
:105C620008500A220550095C0A50800A0B6E065041
:105C7200800A0B58D8A040EF2EF042EF2EF0B8EF7A
:105C82002EF044EF2EF0000E3C24D96E040E3D207F
:105C9200DA6E000EDF6E010E3C24036E000E3D2014
:105CA200046E000E0324D96E040E0420DA6E000E78
:105CB200DF6E020E3C24036E000E3D20046E000EC9
:105CC2000324D96E040E0420DA6E000EDF6E030E7A
:105CD2003C24036E000E3D20046E000E0324D96E98
:105CE200040E0420DA6E000EDF6EFF0E036EFF0E4E
:105CF200046E3CC005F03DC006F00350052604507A
:105D02000622000E0524D96E040E0620DA6E000E5D
:105D1200DF6EFE0E036EFF0E046E3CC005F03DC04A
:105D220006F00350052604500622000E0524D96E03
:105D3200040E0620DA6E000EDF6EFD0E036EFF0EFD
:105D4200046E3CC005F03DC006F003500526045029
:105D52000622000E0524D96E040E0620DA6E000E0D
:105D6200DF6E000E246E000E236EB8EF2EF0800E52
:105D7200036EFF0E046E36C005F037C006F0035006
:105D8200052604500622030E3E24076E000E3F2015
:105D9200086E0550075C0850800A096E0650800A9A
:105DA2000958D8A0D7EF2EF0D9EF2EF002EF2FF03E
:105DB200FD0E036EFF0E046E3EC005F03FC006F0FE
:105DC2000350052604500622800E076EFF0E086E51
:105DD20036C009F037C00AF00750092608500A22D7
:105DE2000550095C0A50800A0B6E0650800A0B5857
:105DF200D8B0FEEF2EF000EF2FF096EF2FF002EF6B
:105E02002FF0810E036EFF0E046E36C005F037C010
:105E120006F00350052604500622030E3E24076EA8
:105E2200000E3F20086E0550075C0850800A096E7C
:105E32000650800A0958D8A021EF2FF023EF2FF047
:105E42004CEF2FF0FD0E036EFF0E046E3EC005F008
:105E52003FC006F00350052604500622810E076E4D
:105E6200FF0E086E36C009F037C00AF00750092647
:105E720008500A220550095C0A50800A0B6E06502F
:105E8200800A0B58D8B048EF2FF04AEF2FF096EF68
:105E92002FF04CEF2FF07F0E036EFF0E046E36C014
:105EA20005F037C006F00350052604500622030E03
:105EB2003E24076E000E3F20086E0550075C085016
:105EC200800A096E0650800A0958D8A06BEF2FF09D
:105ED2006DEF2FF00EEF30F0FD0E036EFF0E046E2D
:105EE2003EC005F03FC006F00350052604500622CE
:105EF2007F0E076EFF0E086E36C009F037C00AF03B
:105F02000750092608500A220550095C0A50800AE7
:105F12000B6E0650800A0B58D8A092EF2FF094EF28
:105F22002FF00EEF30F096EF2FF0000E3E24D96ED8
:105F3200040E3F20DA6E000EDF6E010E3E24036E69
:105F4200000E3F20046E000E0324D96E040E0420BE
:105F5200DA6E000EDF6E020E3E24036E000E3F204C
:105F6200046E000E0324D96E040E0420DA6E000EB5
:105F7200DF6E030E3E24036E000E3F20046E000E01
:105F82000324D96E040E0420DA6E000EDF6EFF0EBB
:105F9200036EFF0E046E3EC005F03FC006F00350D4
:105FA200052604500622000E0524D96E040E062092
:105FB200DA6E000EDF6EFE0E036EFF0E046E3EC042
:105FC20005F03FC006F00350052604500622000EDD
:105FD2000524D96E040E0620DA6E000EDF6EFD0E69
:105FE200036EFF0E046E3EC005F03FC006F0035084
:105FF200052604500622000E0524D96E040E062042
:10600200DA6E000EDF6E000E2D6E000E2C6E0EEF9D
:1060120030F00EEF30F00EEF30F01D041E10D8A459
:1060220015EF30F017EF30F043EF30F0000E36246A
:10603200D96E040E3720DA6E000EDF6E010E3624A2
:10604200036E000E3720046E000E0324D96E040E78
:106052000420DA6E000EDF6EFF0E036EFF0E046E7A
:1060620036C005F037C006F003500526045006225C
:10607200000E0524D96E040E0620DA6E000EDF6EC5
:1060820043EF30F0000E1E6E010E1D6E800E3624A0
:10609200366EFF0E3720376E000E4024D96E040E86
:1060A2004120DA6EFF0EDF6E010E4024036E000EF9
:1060B2004120046E000E0324D96E040E0420DA6E11
:1060C200FC0EDF6EFF0E056EFF0E066E40C007F07F
:1060D20041C008F00550072606500822000E07248A
:1060E200E16E040E0820E26EDFCFE7FF020E4024CD
:1060F200036E000E4120046E000E0324D96E040EBE
:106102000420DA6EF00EDF6EFE0E056EFF0E066ED6
:1061120040C007F041C008F005500726065008228B
:10612200000E0724E16E040E0820E26EDFCFE7FFC7
:106132009BEF30F0000E4024D96E040E4120DA6E3F
:10614200DF50D8B4A7EF30F0A9EF30F007EF31F00D
:10615200FF0E036EFF0E046E40C005F041C006F054
:106162000350052604500622000E0524D96E040EA3
:106172000620DA6EDF50D8B4C1EF30F0C3EF30F052
:1061820007EF31F0010E4024036E000E4120046E31
:10619200000E0324D96E040E0420DA6EDF50D8B448
:1061A200D5EF30F0D7EF30F007EF31F0020E402498
:1061B200036E000E4120046E000E0324D96E040EFD
:1061C2000420DA6EDF50D8B4E9EF30F0EBEF30F0B4
:1061D20007EF31F0FE0E036EFF0E046E40C005F0B5
:1061E20041C006F00350052604500622000E052485
:1061F200D96E040E0620DA6EDF50D8A403EF31F018
:1062020005EF31F0ACEF32F007EF31F0000E266E01
:10621200020E256E020E25182610D8A413EF31F0B7
:1062220015EF31F0ACEF32F04A044B10D8B41CEF4A
:1062320031F01EEF31F0ACEF32F0000E316E000E95
:10624200306E31BE2CEF31F0040E315CD8A02CEF51
:1062520031F02EEF31F032EF31F04AEF31F04AEF08
:1062620031F0000E3024D96E040E3120DA6E000EA9
:10627200DF6E304A312A31BE46EF31F0040E315C16
:10628200D8A046EF31F048EF31F032EF31F04AEF6B
:1062920031F0070E4224036E000E4320046E000EFE
:1062A2000324D96E040E0420DA6EFF0EDF6E090E8F
:1062B2004224036E000E4320046E000E0324D96EA6
:1062C200040E0420DA6E110EDF6E080E4224056EF3
:1062D200000E4320066E000E0524E16E040E062019
:1062E200E26EDFCFE7FF0A0E4224036E000E432068
:1062F200046E000E0324D96E040E0420DA6E1F0E03
:10630200DF6E0E0E4224036E000E4320046E000E5A
:106312000324D96E040E0420DA6EFF0EDF6E110E16
:106322004224036E000E4320046E000E0324D96E35
:10633200040E0420DA6E910EDF6E100E4224056EFA
:10634200000E4320066E000E0524E16E040E0620A8
:10635200E26EDFCFE7FF0F0E4224076E000E4320EE
:10636200086E000E0724D96E040E0820DA6EE7CFFD
:10637200DFFF150E4224036E000E4320046E000E52
:106382000324D96E040E0420DA6EFF0EDF6E160EA1
:106392004224036E000E4320046E000E0324D96EC5
:1063A200040E0420DA6E110EDF6E170E4224036E05
:1063B200000E4320046E000E0324D96E040E042046
:1063C200DA6E310EDF6E180E4224036E000E432089
:1063D200046E000E0324D96E040E0420DA6E4A0EF7
:1063E200DF6E190E4224036E000E4320046E000E6F
:1063F2000324D96E040E0420DA6E840EDF6E1D0EA5
:106402004224036E000E4320046E000E0324D96E54
:10641200040E0420DA6EFF0EDF6E1E0E4224036E9F
:10642200000E4320046E000E0324D96E040E0420D5
:10643200DA6E420EDF6E1F0E4224036E000E432000
:10644200046E000E0324D96E040E0420DA6E240EAC
:10645200DF6E200E4224036E000E4320046E000EF7
:106462000324D96E040E0420DA6E180EDF6E2B0E92
:106472004224036E000E4320046E000E0324D96EE4
:10648200040E0420DA6E1F0EDF6E240E4224056E07
:10649200000E4320066E000E0524E16E040E062057
:1064A200E26EDFCFE7FF2A0E4224036E000E432086
:1064B200046E000E0324D96E040E0420DA6E200E40
:1064C200DF6E250E4224056E000E4320066E000E7E
:1064D2000524E16E040E0620E26EDFCFE7FF290EEF
:1064E2004224036E000E4320046E000E0324D96E74
:1064F200040E0420DA6E400EDF6E260E4224056E74
:10650200000E4320066E000E0524E16E040E0620E6
:10651200E26EDFCFE7FF280E4224036E000E432017
:10652200046E000E0324D96E040E0420DA6E800E6F
:10653200DF6E270E4224056E000E4320066E000E0B
:106542000524E16E040E0620E26EDFCFE7FFACEF1A
:1065520032F0ACEF32F084A0B1EF32F0B3EF32F0B0
:1065620065EF33F041BEC1EF32F0FD0E405C030E29
:106572004158D8B0BFEF32F0C1EF32F065EF33F0DF
:10658200020E4024036E000E4120046E000E03240E
:10659200D96E040E0420DA6E030E4024056E000E3E
:1065A2004120066E000E0524E16E040E0620E26E06
:1065B200DFCFE7FF010E4024036E000E4120046E80
:1065C200000E0324D96E040E0420DA6E020E40245B
:1065D200056E000E4120066E000E0524E16E040ECB
:1065E2000620E26EDFCFE7FF000E4024D96E040ED4
:1065F2004120DA6EFF0EDF6E010E4024036E000EA4
:106602004120046E000E0324E16E040E0420E26EAB
:10661200DFCFE7FFFF0E036EFF0E046E40C005F0F2
:1066220041C006F00350052604500622000E052440
:10663200D96E040E0620DA6E000E4024E16E040EBE
:106642004120E26EDFCFE7FFFE0E036EFF0E046E07
:1066520040C005F041C006F0035005260450062252
:10666200000E0524D96E040E0620DA6EFF0E076EA8
:10667200FF0E086E40C009F041C00AF0075009261B
:1066820008500A22000E0924E16E040E0A20E26E6E
:10669200DFCFE7FFFE0E036EFF0E046E40C005F073
:1066A20041C006F00350052604500622000E0524C0
:1066B200D96E040E0620DA6E000EDF6E404A412AC1
:1066C20065EF33F065EF33F084A26AEF33F06CEFDD
:1066D20033F025EF34F041BE78EF33F0810E405CA9
:1066E200030E4158D8A078EF33F07AEF33F025EF5C
:1066F20034F0FE0E036EFF0E046E40C005F041C082
:1067020006F00350052604500622000E0524D96E19
:10671200040E0620DA6EFD0E076EFF0E086E40C0F4
:1067220009F041C00AF00750092608500A22000E5B
:106732000924E16E040E0A20E26EDFCFE7FFFF0EAE
:10674200036EFF0E046E40C005F041C006F0035018
:10675200052604500622000E0524D96E040E0620DA
:10676200DA6EFE0E076EFF0E086E40C009F041C0E1
:106772000AF00750092608500A22000E0924E16E89
:10678200040E0A20E26EDFCFE7FF000E4024D96E2E
:10679200040E4120DA6EFF0EDF6EFF0E036EFF0E57
:1067A200046E40C005F041C006F0035005260450B7
:1067B2000622000E0524E16E040E0620E26EDFCFF3
:1067C200E7FF010E4024036E000E4120046E000E0E
:1067D2000324D96E040E0420DA6E000E4024E16E0A
:1067E200040E4120E26EDFCFE7FF020E4024036E6B
:1067F200000E4120046E000E0324D96E040E042004
:10680200DA6E010E4024056E000E4120066E000E67
:106812000524E16E040E0620E26EDFCFE7FF020ED2
:106822004024036E000E4120046E000E0324D96E34
:10683200040E0420DA6E000EDF6E4006D8A0410678
:1068420025EF34F025EF34F084A42AEF34F02CEF56
:1068520034F0CFEF34F098EF34F098EF34F0000ECC
:106862004024D96E040E4120DA6E010EDF6ECFEFA6
:1068720034F0000E4024D96E040E4120DA6E020E6E
:10688200DF6ECFEF34F0000E4024D96E040E4120AB
:10689200DA6E040EDF6ECFEF34F0000E4024D96EB4
:1068A200040E4120DA6E080EDF6ECFEF34F0000ED8
:1068B2004024D96E040E4120DA6E100EDF6ECFEF47
:1068C20034F0000E4024D96E040E4120DA6E200E00
:1068D200DF6ECFEF34F0000E4024D96E040E41205B
:1068E200DA6E400EDF6ECFEF34F0000E4024D96E28
:1068F200040E4120DA6E800EDF6E000E4024D96E47
:10690200040E4120DA6E000EDF6E800E4024406ECF
:10691200000E4120416E000E4024D96E040E41202B
:10692200DA6E010EDF6ECFEF34F0CFEF34F0000EEF
:106932004024D96E040E4120DA6EDF50036E046AE1
:106942000450000AD8B4A8EF34F0CFEF34F003506B
:10695200000AD8B430EF34F0010AD8B43AEF34F078
:10696200030AD8B444EF34F0060AD8B44EEF34F038
:106972000C0AD8B458EF34F0180AD8B462EF34F0E5
:10698200300AD8B46CEF34F0600AD8B476EF34F041
:10699200C00AD8B47EEF34F0CFEF34F081AED4EF3A
:1069A20034F0D6EF34F0A5EF1AF042EF35F042EFB3
:1069B20035F0000E4024D96E040E4120DA6E800EAE
:1069C200DF6EA5EF1AF0000E4024D96E040E4120AE
:1069D200DA6E400EDF6EA5EF1AF0000E4024D96E7B
:1069E200040E4120DA6E200EDF6EA5EF1AF0000EC3
:1069F2004024D96E040E4120DA6E100EDF6EA5EF30
:106A02001AF0000E4024D96E040E4120DA6E080EF0
:106A1200DF6EA5EF1AF0000E4024D96E040E41205D
:106A2200DA6E040EDF6EA5EF1AF0000E4024D96E66
:106A3200040E4120DA6E020EDF6EA5EF1AF0000E90
:106A42004024D96E040E4120DA6E010EDF6E000E74
:106A52004024D96E040E4120DA6E000EDF6E800EE5
:106A62004024406EFF0E4120416E000E4024D96E3C
:106A7200040E4120DA6E800EDF6EA5EF1AF0A5EF4C
:106A82001AF0000E4024D96E040E4120DA6EDF5057
:106A9200036E046A0450000AD8B452EF35F0A5EF31
:106AA2001AF00350000AD8B4DAEF34F0010AD8B46D
:106AB20028EF35F0030AD8B420EF35F0060AD8B42F
:106AC20016EF35F00C0AD8B40CEF35F0180AD8B42A
:106AD20002EF35F0300AD8B4F8EF34F0600AD8B4D7
:106AE200EEEF34F0C00AD8B4E4EF34F0A5EF1AF0B8
:106AF200A5EF1AF0A5EF1AF0A5EF1AF012000000A8
:106B02000000000000000000000000000000000083
:106B12000000000000000000000000000000000073
:106B22000000000000000000000000000000000063
:106B32000000000000000000000000000000000053
:106B42000000000000000000000000000000000043
:106B52000000000000000000000000000000000033
:106B62000000000000000000000000000000000023
:106B72000000000000000000000000000000000013
:106B82000000000000000000000000000000000003
:106B920000000000000000000000000000000000F3
:106BA20000000000000000000000000000000000E3
:106BB20000000000000000000000000000000000D3
:106BC20000000000000000000000000000000000C3
:106BD20000000000000000000000000000000000B3
:106BE20000000000000000000000000000000000A3
:106BF2000000000000000000000000000000000093
:106C02000000000000000000065F5F0600000000B8
:106C120007070007070000147F7F147F7F140024FA
:106C22002E6B6B3A120000466630180C666200301A
:106C32007A4F5D377A480004070300000000000025
:106C42001C3E63410000000041633E1C000000083E
:106C52002A3E1C1C3E2A0808083E3E080800000086
:106C620080E0600000000008080808080800000032
:106C7200006060000000006030180C060301003E56
:106C82007F71594D7F3E0040427F7F40400000624D
:106C92007359496F660000226349497F3600001824
:106CA2001C16537F7F5000276745457D3900003C05
:106CB2007E4B4979300000030371790F07000036DB
:106CC2007F49497F360000064F49693F1E00000098
:106CD200006666000000000080E666000000000812
:106CE2001C366341000000242424242424000000D4
:106CF2004163361C080000020351590F0600003E92
:106D02007F415D5D1F1E007C7E13137E7C0000416F
:106D12007F7F49497F36001C3E6341416322004127
:106D22007F7F41633E1C00417F7F495D416300419B
:106D32007F7F491D0103001C3E6341517372007F36
:106D42007F08087F7F000000417F7F410000003004
:106D52007040417F3F0100417F7F081C7763004103
:106D62007F7F41406070007F7F0E1C0E7F7F007F1F
:106D72007F060C187F7F001C3E6341633E1C00416E
:106D82007F7F49090F06001E3F21717F5E0000418F
:106D92007F7F09197F6600266F4D59733200000309
:106DA200417F7F410300007F7F40407F7F00001FC3
:106DB2003F60603F1F00007F7F3018307F7F0043BD
:106DC200673C183C674300074F78784F070000473D
:106DD2006371594D677300007F7F414100000001DC
:106DE20003060C183060000041417F7F000000085C
:106DF2000C0603060C080080808080808080800062
:106E020000030704000000207454543C7840004101
:106E12007F3F4848783000387C44446C280000307A
:106E22007848493F7F4000387C54545C1800004841
:106E32007E7F490302000098BCA4A4F87C040041B0
:106E42007F7F08047C780000447D7D400000006064
:106E5200E08080FD7D0000417F7F10386C4400009F
:106E6200417F7F400000007C7C18381C7C78007CCD
:106E72007C04047C780000387C44447C3800008424
:106E8200FCF8A4243C1800183C24A4F8FC84004418
:106E92007C784C041C1800485C5454742400000094
:106EA200043E7F442400003C7C40403C7C40001C6B
:106EB2003C60603C1C00003C7C7038707C3C0044B0
:106EC2006C3810386C44009CBCA0A0FC7C00004CC8
:106ED20064745C4C64000008083E77414100000085
:106EE200000077770000004141773E080800000269
:106EF2000301030203010070784C464C7870000EC7
:106F02009F91B1FB4A00003A7A40407A7A400038B9
:106F12007C54555D19000002237555557D7B422135
:106F22007554547D794000217555547C7840002079
:106F32007457577C784000183CA4A4E44000000237
:106F42003B7D55555D1B02397D54545D1900003956
:106F52007D55545C18000001457C7C410100000213
:106F620003457D7D43020001457D7C4000000079A0
:106F72007D1612167D790070782B2B7870000044F4
:106F82007C7C5555450000207454547C7C54547CC0
:106F92007E0B097F7F4900327B49497B32000032F8
:106FA2007A48487A320000327A4A48783000003A09
:106FB2007B41417B7A40003A7A4240787840009A9D
:106FC200BAA0A0FA7A000001193C66663C19013D9C
:106FD2007D40407D3D0000183C24E7E72424006802
:106FE2007E7F49436620002B2FFCFC2F2B0000FFE5
:106FF200FF09092FF6F8A040C088FE7F090302208E
:107002007454557D79400000447D7D41000000307C
:1070120078484A7A320000387840427A7A40007AD8
:107022007A0A0A7A7000007D7D19317D7D000000A8
:10703200262F292F2F280000262F292F2600003047
:10704200784D45602000003838080808080000081C
:10705200080808383800004F6F3018CCEEBB914F4B
:107062006F30186C76FBF90000007B7B0000000893
:107072001C3622081C362222361C0822361C08AA7C
:10708200005500AA005500AA55AA55AA55AA55DDD1
:10709200FFAA77DDAAFF77000000FFFF00000010C3
:1070A2001010FFFF000000141414FFFF0000001076
:1070B20010FFFF00FFFF001010F0F010F0F00014BE
:1070C2001414FCFC0000001414F7F700FFFF00008A
:1070D20000FFFF00FFFF001414F4F404FCFC001492
:1070E200141717101F1F0010101F1F101F1F00144E
:1070F20014141F1F000000101010F0F00000000018
:1071020000001F1F1010101010101F1F1010101061
:107112001010F0F0101010000000FFFF10101010FF
:1071220010101010101010101010FFFF101010008F
:107132000000FFFF1414140000FFFF00FFFF100007
:10714200001F1F101717140000FCFC04F4F41414A1
:10715200141717101717141414F4F404F4F4140089
:1071620000FFFF00F7F71414141414141414141469
:1071720014F7F700F7F71414141417171414141053
:10718200101F1F101F1F10141414F4F414141410E1
:1071920010F0F010F0F01000001F1F101F1F100061
:1071A20000001F1F141414000000FCFC141414002F
:1071B20000F0F010F0F0101010FFFF10FFFF10149D
:1071C2001414FFFF1414141010101F1F00000000ED
:1071D2000000F0F0101010FFFFFFFFFFFFFFFFF0B5
:1071E200F0F0F0F0F0F0F0FFFFFFFF000000000011
:1071F200000000FFFFFFFF0F0F0F0F0F0F0F0F38E1
:107202007C446C386C4400FCFE2A2A3E1400007E4A
:107212007E020206060000027E7E027E7E0200637D
:10722200775D4963630000387C447C3C0404008041
:10723200FE7E20203E1E000406027E7C060200998D
:10724200BDE7E7BD9900001C3E6B496B3E1C004C3C
:107252007E7301737E4C0030784A4F7D39000018EE
:107262003C243C3C243C1898FC643C3E273D1800DE
:10727200000000000000000000000000000000000C
:1072820000000000000000000000000000000000FC
:1072920000000000000000000000000000000000EC
:1072A20000000000000000000000000000000000DC
:1072B20000000000000000000000000000000000CC
:1072C20000000000000000000000000000000000BC
:1072D20000000000000000000000000000000000AC
:1072E200000000000000000000000000000000009C
:1072F200000000000000000000000000000000008C
:10730200000000000000000000000000000000007B
:10731200000000000000000000000000000000006B
:10732200000000000000000000000000000000005B
:107332000000E0F0C8CCC4C2E2E2F2FEFEFEFCB005
:10734200000000000000000000000000000000003B
:10735200000000000000000000000000000000002B
:10736200000000000000000000000000000000001B
:10737200000000000000000000000000000000000B
:1073820000000000000000000000000000000000FB
:1073920000000000000000000000000000000000EB
:1073A20000000000000000000000000000000000DB
:1073B2000083CF5F3F3F3F3F3F3F3F3F1F3F3F3F46
:1073C2007F78800000000000000000000000000044
:1073D20000000000000000000000000000000000AB
:1073E200000000000000000000000000000000009B
:1073F200000000000000000000000000000000008B
:10740200000000000000000000000000000000007A
:10741200000000000000000000000000000000006A
:107422000000000000000000000000000080C08892
:107432004261F04280000800006022000800000063
:1074420000000103BC0080E0F0F8FCFCECF6F078F0
:10745200383818181808000000000000000000006A
:10746200000000000000000000000000000000001A
:10747200000000000000000000000000000000000A
:1074820000000000000000000000000000000000FA
:1074920000000000000000000000000000000000EA
:1074A2000000000000000000000000FC038382C610
:1074B200FAFAFCFCFAFFE201000000010000000001
:1074C200000000F00708FFFFFFFFFFFFFFDFCFCF45
:1074D2008F0F0F0F0E1C183000000000000000007C
:1074E200000000000000000000000000000000009A
:1074F200000000000000000000000000000000008A
:107502000000000000000000000000000000000079
:107512000000000000000000000000000000000069
:107522000000000000000000608E01040F1F1F0F0A
:107532000F1F3F3F3F3F1F030000000000200010CD
:1075420000080808090A082B2B3337FF0303030737
:107552001F7F10000000000000000000000000007B
:107562000000000000000000000000000000000019
:107572000000000000000000000000000000000009
:1075820000000000000000000000000000000000F9
:1075920000000000000000000000000000000000E9
:1075A20000000000000000000007083060C08000FA
:1075B2000000000000000000000000004080000009
:1075C200000000008080C060341A05030000000043
:1075D20000000000000000000000000000000000A9
:1075E2000000000000000000000000000000000099
:1075F2000000000000000000000000000000000089
:107602000000000000000000000000000000000078
:107612000000000000000000000000000000000068
:1076220000000000000000000000000000000081D7
:1076320082868C9C1428E8F8102040C0C04020119B
:10764200090505050201000000000000000000001D
:107652000000000000000000000000000000000028
:107662000000000000000000000000000000000018
:107672000000000000000000000000000000000008
:1076820000000000000000000000000000000000F8
:1076920000000000000000000000000000000000E8
:1076A20000000000000000000000000000000302D3
:1076B20007050404050D0E1B3B6B476363263A1254
:1076C200121C00000000000000000000000000008A
:1076D20000000000000000000000000000000000A8
:1076E2000000000000000000000000000000000098
:1076F2000000000000000000000000000000000088
:107702000000000000000000000000000000000077
:107AF200000000000000000000000000000000FF85
:107B0200FFFFFFFFFFFFFFFFFFFFFFFFFFFFFFFF83
:107B1200FFFFFFFFFFFFFFFFFFFFFFFFFFFFFFFF73
:107B2200FFFFFFFFFFFFFFFFFFFFFFFFFFFFFFFF63
:107B3200FFFFFFFFFFFFFFFFFFFFFFFFFFFFFFFF53
:107EE200FFFFFFFFFFFFFFFFFFFFFFFFFFFFFF009F
:107EF2000000000000000000000000000000000080
:107F02000000005C000C000C7C287C7C447C24106B
:107F120048285408000C0038440044380020100857
:107F22001038108040001010100040002010083857
:107F32004438007C006454484454281C107C4C543F
:107F42002438542004740C28542808543800500053
:107F52008050001028442828284428100454083847
:107F62004C5C7814787C54283844447C44387C54E3
:107F7200447C14043844347C107C007C0020403C57
:107F82007C106C7C40407C087C7C047C7C447C7C47
:107F920014083844787C1468485424047C047C40D7
:107FA2007C3C403C7C207C6C106C1C601C64544CFF
:107FB2007C4400081020447C00080408808080046F
:107FC200080044616E69656C2C4761627269656C78
:107FD20000537061636520496E7661646572004C7E
:107FE2006574277320504C41590065742054686FA2
:0D7FF2006D6173004D6164652062790000CF
:020000040020DA
:08000000FFFFFFFFFFFFFFFF00
:020000040030CA
:0E000000000C191EFF8381FF0FC00FE00F40A0
:00000001FF
