:020000040000FA
:04000000EDEF16F01A
:102DDA0004EE00F014EE00F0EE6AE550E150FCE17A
:102DEA00E250FAE1476A466A000EF86E00010EEFF9
:102DFA0018F00F0EC16E000EC26E000E926E000E1B
:102E0A00936E000E946E000E956E000E966E000E76
:102E1A00806E000E816E000E826E000E836E000EB2
:102E2A00846E1200016E0150D8B41EEF17F020EF25
:102E3A0017F024EF17F08A808A9226EF17F08A9209
:102E4A008A8295688A868A8800D083CF02F08A9817
:102E5A0000D08A908A92025012000A6E0A50D8B4A0
:102E6A0039EF17F03BEF17F03FEF17F08A808A929D
:102E7A0043EF17F08A928A8243EF17F0000E956E9D
:102E8A008A9609C08CFF8A8800D08A9800D08A90D6
:102E9A008A92120075EF17F01650D8B457EF17F050
:102EAA0059EF17F065EF17F017C00BF014C0F6FFD3
:102EBA0015C0F7FF0800F550A2EC19F071EF17F0F2
:102ECA0017C00BF014C0F6FF15C0F7FF0800F55045
:102EDA0038EC1AF071EF17F0144A152A75EF17F04B
:102EEA0014C0F6FF15C0F7FF0800F5500009D8A472
:102EFA0081EF17F083EF17F051EF17F085EF17F016
:102F0A0012000D6E000E0C6E800E0D608FEF17F022
:102F1A0091EF17F0BDEF17F0070E0B6497EF17F05C
:102F2A0099EF17F09DEF17F0BDEF17F0BDEF17F00F
:102F3A000DC047F00BC046F03F0E0D64A7EF17F027
:102F4A00A9EF17F0AFEF17F0400E0D5E010E0C6EF1
:102F5A00AFEF17F08A940D504009096E0C5032EC0D
:102F6A0017F00B50B809096E0C5032EC17F08A842E
:102F7A0012000E6E000E836E8A9A210EE82EFED77C
:102F8A0000F08A8A8A988A908A928A9400D0C00E1F
:102F9A00096E000E32EC17F0C00E096E010E32EC0B
:102FAA0017F0400E096E000E32EC17F0400E096E53
:102FBA00010E32EC17F0B80E096E000E32EC17F063
:102FCA00B80E096E010E32EC17F00E04D8A4F0EF19
:102FDA0017F0F2EF17F0FEEF17F03F0E096E000E32
:102FEA0032EC17F03F0E096E010E32EC17F00AEFC1
:102FFA0018F03E0E096E000E32EC17F03E0E096E06
:10300A00010E32EC17F00AEF18F0000E63EC18F01C
:10301A001200000E846E000E436E000E426E000E09
:10302A00456E000E446EFEEC16F0010EBEEC17F073
:10303A00020E0B6EFF0E0C6E020EBFEC18F00A0E9B
:10304A000B6E330E86EC17F0E60E146E7F0E156EBD
:10305A00010E166E010E176E4FEC17F01E0E0B6E58
:10306A00350E86EC17F0F40E146E7F0E156E010EF7
:10307A00166E010E176E4FEC17F0320E0B6E300EF5
:10308A0086EC17F0C40E146E7F0E156E010E166EC6
:10309A00010E176E4FEC17F01F0E416E710E406E47
:1030AA001E0EE82EFED7402EFCD7412EFAD700D0AE
:1030BA00DAEC1AF05FEF18F000EF00F00B6E000E7A
:1030CA000D6E070E0D646CEF18F06EEF18F072EFCC
:1030DA0018F0BEEF18F0BEEF18F08A94400E096E91
:1030EA00000E32EC17F0400E096E010E32EC17F0AA
:1030FA000D50B809096E000E32EC17F00D50B809E0
:10310A00096E010E32EC17F08A84000E0C6E3F0E27
:10311A000C6492EF18F094EF18F098EF18F0B3EFF0
:10312A0018F0B3EF18F00B50010DF3500008096EB8
:10313A00000E32EC17F00B50010DF3500008096E27
:10314A00010E32EC17F00C2A3F0E0C64AFEF18F0A8
:10315A00B1EF18F098EF18F0B3EF18F00D2A070E38
:10316A000D64BAEF18F0BCEF18F072EF18F0BEEF6A
:10317A0018F012000F6E000E116E3F0E0F64C8EFAA
:10318A0018F0CAEF18F0D0EF18F0400E0F5E010EDB
:10319A00116ED0EF18F08A940F9E0F8C0FC009F0B1
:1031AA00115032EC17F00BC001F0026A000E046EE7
:1031BA00080E036E2CEC19F00150BF0BB809096E0A
:1031CA00115032EC17F08A84115017EC17F0115095
:1031DA0017EC17F0106E8A940FC009F0115032ECF8
:1031EA0017F00C50D8B4FCEF18F0FEEF18F011EFFE
:1031FA0019F00BC00DF0070E0D16010E0E6E0D2AFA
:10320A0009EF19F0D8900E360D2E07EF19F00E506F
:10321A001010106E25EF19F00BC00DF0070E0D16E9
:10322A00010E0E6E0D2A1CEF19F0D8900E360D2ED7
:10323A001AEF19F00E50FF0A1014106E25EF19F04C
:10324A008A8410C009F0115032EC17F01200000EF7
:10325A00066E04BE35EF19F033EF19F03DEF19F0A1
:10326A00036C041ED8B0042A010E066E3DEF19F055
:10327A0002BE44EF19F042EF19F04CEF19F0016C5D
:10328A00021ED8B0022A010E061A4CEF19F0000EDF
:10329A00086E000E076E03500410D8B457EF19F0E9
:1032AA0059EF19F08DEF19F0010E056E63EF19F061
:1032BA00D89003360436052A63EF19F004AE68EF96
:1032CA0019F06AEF19F05DEF19F06EEF19F06EEF71
:1032DA0019F0D890073608360350015C045002589A
:1032EA00D8A07AEF19F07CEF19F083EF19F00350A8
:1032FA00015E0450025A078083EF19F0D890043215
:10330A000332052E6EEF19F08DEF19F08DEF19F0DB
:10331A000650D8B493EF19F095EF19F09BEF19F016
:10332A00076C081ED8B0082A9BEF19F007C001F0F5
:10333A0008C002F0A1EF19F01200106E000E136E11
:10334A000A0E1018D8A4ACEF19F0AEEF19F0B5EFC9
:10335A0019F0000E476E462A37EF1AF037EF1AF0C7
:10336A003F0E4764BBEF19F0BDEF19F0C4EF19F037
:10337A00010E136E4750C00F116EC8EF19F047C007
:10338A0011F0C8EF19F01050080DF3CF0EF0F4CF7A
:10339A000FF0000E126E070E1264D6EF19F0D8EF76
:1033AA0019F0DCEF19F035EF1AF035EF1AF03F0E8D
:1033BA001164E2EF19F0E4EF19F0F8EF19F0400E9A
:1033CA00115E010E136E8A9411504009096E135052
:1033DA0032EC17F04650B809096E135032EC17F068
:1033EA008A84F8EF19F00B50D8B4FEEF19F000EF09
:1033FA001AF014EF1AF012500E240C6E000E0F2061
:10340A000D6E010E0C24F66E6B0E0D20F76E080081
:10341A00F5CF09F0135032EC17F029EF1AF01250D9
:10342A000E240C6E000E0F200D6E010E0C24F66E8B
:10343A006B0E0D20F76E0800F550FF0A096E135047
:10344A0032EC17F029EF1AF0112A122A070E126429
:10345A0031EF1AF033EF1AF0DCEF19F035EF1AF00A
:10346A00080E472612000F6E000E116E0A0E0F1874
:10347A00D8A442EF1AF044EF1AF04BEF1AF0000EFC
:10348A00476E462AD9EF1AF0D9EF1AF03F0E476471
:10349A0051EF1AF053EF1AF05AEF1AF0010E116EAB
:1034AA004750C00F0E6E5EEF1AF047C00EF05EEF87
:1034BA001AF0200E0F5E000E106E020E106468EFF6
:1034CA001AF06AEF1AF06EEF1AF0D7EF1AF0D7EF88
:1034DA001AF03F0E0E6474EF1AF076EF1AF08AEFC4
:1034EA001AF0400E0E5E010E116E8A940E504009BB
:1034FA00096E115032EC17F04650B809096E115096
:10350A0032EC17F08A848AEF1AF00B50D8B490EF95
:10351A001AF092EF1AF0AEEF1AF00F50030D010EE7
:10352A000C6E7F0E0D6EF3500C26F4500D221050C7
:10353A00010DF3500C26F4500D220CC0F6FF0DC0FD
:10354A00F7FF0800F5CF09F0115032EC17F0CBEF76
:10355A001AF00F50030D010E0C6E7F0E0D6EF35014
:10356A000C26F4500D221050010DF3500C26F45085
:10357A000D220CC0F6FF0DC0F7FF0800F550FF0A38
:10358A00096E115032EC17F0CBEF1AF00E2A102AFE
:10359A00020E1064D3EF1AF0D5EF1AF06EEF1AF09C
:1035AA00D7EF1AF0050E47261200030E3D6EE80EFD
:1035BA003C6E000E376E050E366E000E3F6EFC0E28
:1035CA003E6E000E396E7B0E386E000E3B6E850E17
:1035DA003A6E000E1A6E000E196E000E1C6E000E68
:1035EA001B6E000E1E6E000E1D6E000E206E000E6B
:1035FA001F6E000E226E000E216E000E246E000E4B
:10360A00236E000E2D6E000E2C6E010E336EA20E6E
:10361A00326E000E266E000E256E000E286E000E0B
:10362A00276E000E316E000E306E000E2A6E000EEE
:10363A00296E000E3624D96E040E3720DA6E3C0E3F
:10364A00DF6E010E36240B6E000E37200C6E000E54
:10365A000B24D96E040E0C20DA6EB40EDF6EFF0E48
:10366A000D6EFF0E0E6E36C00FF037C010F00D5003
:10367A000F260E501022000E0F24E16E040E1020A9
:10368A00E26EDFCFE7FF020E36240B6E000E372004
:10369A000C6E000E0B24D96E040E0C20DA6ECA0EC4
:1036AA00DF6EFE0E0D6EFF0E0E6E36C00FF037C0C7
:1036BA0010F00D500F260E501022000E0F24E16E4E
:1036CA00040E1020E26EDFCFE7FF030E36240B6EE6
:1036DA00000E37200C6E000E0B24D96E040E0C203F
:1036EA00DA6E190EDF6EFD0E0D6EFF0E0E6E36C00F
:1036FA000FF037C010F00D500F260E501022000E9A
:10370A000F24E16E040E1020E26EDFCFE7FF000EF9
:10371A003E24D96E040E3F20DA6E3C0EDF6E010E97
:10372A003E240B6E000E3F200C6E000E0B24D96E49
:10373A00040E0C20DA6EB40EDF6EFF0E0D6EFF0E55
:10374A000E6E3EC00FF03FC010F00D500F260E5007
:10375A001022000E0F24E16E040E1020E26EDFCF5D
:10376A00E7FF020E3E240B6E000E3F200C6E000E89
:10377A000B24D96E040E0C20DA6ECA0EDF6EFE0E12
:10378A000D6EFF0E0E6E3EC00FF03FC010F00D50D2
:10379A000F260E501022000E0F24E16E040E102088
:1037AA00E26EDFCFE7FF030E3E240B6E000E3F20D2
:1037BA000C6E000E0B24D96E040E0C20DA6E190E54
:1037CA00DF6EFD0E0D6EFF0E0E6E3EC00FF03FC097
:1037DA0010F00D500F260E501022000E0F24E16E2D
:1037EA00040E1020E26EDFCFE7FF000E3824D96EF8
:1037FA00040E3920DA6E3C0EDF6E010E38240B6E91
:10380A00000E39200C6E000E0B24D96E040E0C200B
:10381A00DA6EB40EDF6EFF0E0D6EFF0E0E6E38C03E
:10382A000FF039C010F00D500F260E501022000E66
:10383A000F24E16E040E1020E26EDFCFE7FF020EC6
:10384A0038240B6E000E39200C6E000E0B24D96E34
:10385A00040E0C20DA6ECA0EDF6EFE0E0D6EFF0E1F
:10386A000E6E38C00FF039C010F00D500F260E50F2
:10387A001022000E0F24E16E040E1020E26EDFCF3C
:10388A00E7FF030E38240B6E000E39200C6E000E73
:10389A000B24D96E040E0C20DA6E190EDF6EFD0EA3
:1038AA000D6EFF0E0E6E38C00FF039C010F00D50BD
:1038BA000F260E501022000E0F24E16E040E102067
:1038CA00E26EDFCFE7FF000E3A24D96E040E3B20EA
:1038DA00DA6E3C0EDF6E010E3A240B6E000E3B20B0
:1038EA000C6E000E0B24D96E040E0C20DA6EB40E88
:1038FA00DF6EFF0E0D6EFF0E0E6E3AC00FF03BC06C
:10390A0010F00D500F260E501022000E0F24E16EFB
:10391A00040E1020E26EDFCFE7FF020E3A240B6E90
:10392A00000E3B200C6E000E0B24D96E040E0C20E8
:10393A00DA6ECA0EDF6EFE0E0D6EFF0E0E6E3AC006
:10394A000FF03BC010F00D500F260E501022000E43
:10395A000F24E16E040E1020E26EDFCFE7FF030EA4
:10396A003A240B6E000E3B200C6E000E0B24D96E0F
:10397A00040E0C20DA6E190EDF6EFD0E0D6EFF0EB0
:10398A000E6E3AC00FF03BC010F00D500F260E50CD
:10399A001022000E0F24E16E040E1020E26EDFCF1B
:1039AA00E7FF000E3C24D96E040E3D20DA6EFF0EAE
:1039BA00DF6E010E3C240B6E000E3D200C6E000ED5
:1039CA000B24D96E040E0C20DA6EFC0EDF6EFF0E8D
:1039DA000D6EFF0E0E6E3CC00FF03DC010F00D5084
:1039EA000F260E501022000E0F24E16E040E102036
:1039FA00E26EDFCFE7FF020E3C240B6E000E3D2085
:103A0A000C6E000E0B24D96E040E0C20DA6EF00E2A
:103A1A00DF6EFE0E0D6EFF0E0E6E3CC00FF03DC047
:103A2A0010F00D500F260E501022000E0F24E16EDA
:103A3A00040E1020E26EDFCFE7FF24EF1DF0000E28
:103A4A00186E000E176E000E2E6E070E2E6430EFE3
:103A5A001DF032EF1DF036EF1DF08BEF1DF08BEFEE
:103A6A001DF0000E2F6E010E2F643EEF1DF040EF89
:103A7A001DF044EF1DF082EF1DF082EF1DF08A94D5
:103A8A00400E096E2F5032EC17F02E50B809096E0D
:103A9A002F5032EC17F08A84000E2B6E3F0E2B64E7
:103AAA0059EF1DF05BEF1DF05FEF1DF077EF1DF092
:103ABA0077EF1DF0000E1724D96E040E1820DA6E67
:103ACA00DF50096E2F5032EC17F0174A182A2B2AAA
:103ADA003F0E2B6473EF1DF075EF1DF05FEF1DF0C5
:103AEA0077EF1DF02F2A010E2F647EEF1DF080EF75
:103AFA001DF044EF1DF082EF1DF02E2A070E2E64F2
:103B0A0089EF1DF08BEF1DF036EF1DF08A908A9237
:103B1A00BD0E3A183B10D8A495EF1DF097EF1DF093
:103B2A009DEF1DF0000E226E010E216E9DEF1DF01D
:103B3A00840E3A183B10D8A4A5EF1DF0A7EF1DF08C
:103B4A00ADEF1DF0000E226E000E216EADEF1DF0DE
:103B5A0021502210D8A4B4EF1DF0B6EF1DF096EF55
:103B6A001EF0030E3A240B6E000E3B200C6E000E64
:103B7A000B24D96E040E0C20DA6E040E3A240D6E54
:103B8A00000E3B200E6E000E0D24E16E040E0E2078
:103B9A00E26EDFCFE7FF020E3A240B6E000E3B20E7
:103BAA000C6E000E0B24D96E040E0C20DA6E030E76
:103BBA003A240D6E000E3B200E6E000E0D24E16EAF
:103BCA00040E0E20E26EDFCFE7FF010E3A240B6EE1
:103BDA00000E3B200C6E000E0B24D96E040E0C2036
:103BEA00DA6E020E3A240D6E000E3B200E6E000EA7
:103BFA000D24E16E040E0E20E26EDFCFE7FF000E09
:103C0A003A24D96E040E3B20DA6E010E3A240B6E6A
:103C1A00000E3B200C6E000E0B24E16E040E0C20ED
:103C2A00E26EDFCFE7FFFF0E0B6EFF0E0C6E3AC09F
:103C3A000DF03BC00EF00B500D260C500E22000E5C
:103C4A000D24D96E040E0E20DA6E000E3A24E16EAF
:103C5A00040E3B20E26EDFCFE7FFFE0E0B6EFF0E77
:103C6A000C6E3AC00DF03BC00EF00B500D260C50F6
:103C7A000E22000E0D24D96E040E0E20DA6EFF0EEF
:103C8A000F6EFF0E106E3AC011F03BC012F00F50CB
:103C9A00112610501222000E1124E16E040E122079
:103CAA00E26EDFCFE7FFFD0E0B6EFF0E0C6E3AC021
:103CBA000DF03BC00EF00B500D260C500E22000EDC
:103CCA000D24D96E040E0E20DA6EFE0E0F6EFF0E54
:103CDA00106E3AC011F03BC012F00F50112610506E
:103CEA001222000E1124E16E040E1220E26EDFCFC2
:103CFA00E7FFFD0E0B6EFF0E0C6E3AC00DF03BC0D7
:103D0A000EF00B500D260C500E22000E0D24D96E0B
:103D1A00040E0E20DA6E000EDF6E3A4A3B2A7DEF61
:103D2A001FF0FD0E0B6EFF0E0C6E3AC00DF03BC07D
:103D3A000EF00B500D260C500E22000E0D24D96EDB
:103D4A00040E0E20DA6EFC0E0F6EFF0E106E3AC0D5
:103D5A0011F03BC012F00F50112610501222000E23
:103D6A001124E16E040E1220E26EDFCFE7FFFE0E91
:103D7A000B6EFF0E0C6E3AC00DF03BC00EF00B50EE
:103D8A000D260C500E22000E0D24D96E040E0E20A4
:103D9A00DA6EFD0E0F6EFF0E106E3AC011F03BC0C8
:103DAA0012F00F50112610501222000E1124E16E4B
:103DBA00040E1220E26EDFCFE7FFFF0E0B6EFF0E3E
:103DCA000C6E3AC00DF03BC00EF00B500D260C5095
:103DDA000E22000E0D24D96E040E0E20DA6EFE0E8F
:103DEA000F6EFF0E106E3AC011F03BC012F00F506A
:103DFA00112610501222000E1124E16E040E122018
:103E0A00E26EDFCFE7FF000E3A24D96E040E3B20A4
:103E1A00DA6EFF0E0B6EFF0E0C6E3AC00DF03BC051
:103E2A000EF00B500D260C500E22000E0D24E16EE2
:103E3A00040E0E20E26EDFCFE7FF010E3A240B6E6E
:103E4A00000E3B200C6E000E0B24D96E040E0C20C3
:103E5A00DA6E000E3A24E16E040E3B20E26EDFCFEA
:103E6A00E7FF020E3A240B6E000E3B200C6E000E8A
:103E7A000B24D96E040E0C20DA6E010E3A240D6E54
:103E8A00000E3B200E6E000E0D24E16E040E0E2075
:103E9A00E26EDFCFE7FF030E3A240B6E000E3B20E3
:103EAA000C6E000E0B24D96E040E0C20DA6E020E74
:103EBA003A240D6E000E3B200E6E000E0D24E16EAC
:103ECA00040E0E20E26EDFCFE7FF030E3A240B6EDC
:103EDA00000E3B200C6E000E0B24D96E040E0C2033
:103EEA00DA6E000EDF6E3A06D8A03B067DEF1FF0B1
:103EFA00440E38183910D8A485EF1FF087EF1FF049
:103F0A008DEF1FF0000E206E010E1F6E8DEF1FF059
:103F1A007C0E38183910D8A495EF1FF097EF1FF0D0
:103F2A009DEF1FF0000E206E000E1F6E9DEF1FF01A
:103F3A001F042010D8A4A4EF1FF0A6EF1FF086EFED
:103F4A0020F0030E38240B6E000E39200C6E000E82
:103F5A000B24D96E040E0C20DA6E040E38240D6E72
:103F6A00000E39200E6E000E0D24E16E040E0E2096
:103F7A00E26EDFCFE7FF020E38240B6E000E392007
:103F8A000C6E000E0B24D96E040E0C20DA6E030E92
:103F9A0038240D6E000E39200E6E000E0D24E16ECF
:103FAA00040E0E20E26EDFCFE7FF010E38240B6EFF
:103FBA00000E39200C6E000E0B24D96E040E0C2054
:103FCA00DA6E020E38240D6E000E39200E6E000EC7
:103FDA000D24E16E040E0E20E26EDFCFE7FF000E25
:103FEA003824D96E040E3920DA6E010E38240B6E8D
:103FFA00000E39200C6E000E0B24E16E040E0C200C
:10400A00E26EDFCFE7FFFF0E0B6EFF0E0C6E38C0BD
:10401A000DF039C00EF00B500D260C500E22000E7A
:10402A000D24D96E040E0E20DA6E000E3824E16ECD
:10403A00040E3920E26EDFCFE7FFFE0E0B6EFF0E95
:10404A000C6E38C00DF039C00EF00B500D260C5016
:10405A000E22000E0D24D96E040E0E20DA6EFF0E0B
:10406A000F6EFF0E106E38C011F039C012F00F50EB
:10407A00112610501222000E1124E16E040E122095
:10408A00E26EDFCFE7FFFD0E0B6EFF0E0C6E38C03F
:10409A000DF039C00EF00B500D260C500E22000EFA
:1040AA000D24D96E040E0E20DA6EFE0E0F6EFF0E70
:1040BA00106E38C011F039C012F00F50112610508E
:1040CA001222000E1124E16E040E1220E26EDFCFDE
:1040DA00E7FFFD0E0B6EFF0E0C6E38C00DF039C0F7
:1040EA000EF00B500D260C500E22000E0D24D96E28
:1040FA00040E0E20DA6E000EDF6E384A392A6DEF92
:10410A0021F0FD0E0B6EFF0E0C6E38C00DF039C09B
:10411A000EF00B500D260C500E22000E0D24D96EF7
:10412A00040E0E20DA6EFC0E0F6EFF0E106E38C0F3
:10413A0011F039C012F00F50112610501222000E41
:10414A001124E16E040E1220E26EDFCFE7FFFE0EAD
:10415A000B6EFF0E0C6E38C00DF039C00EF00B500E
:10416A000D260C500E22000E0D24D96E040E0E20C0
:10417A00DA6EFD0E0F6EFF0E106E38C011F039C0E8
:10418A0012F00F50112610501222000E1124E16E67
:10419A00040E1220E26EDFCFE7FFFF0E0B6EFF0E5A
:1041AA000C6E38C00DF039C00EF00B500D260C50B5
:1041BA000E22000E0D24D96E040E0E20DA6EFE0EAB
:1041CA000F6EFF0E106E38C011F039C012F00F508A
:1041DA00112610501222000E1124E16E040E122034
:1041EA00E26EDFCFE7FF000E3824D96E040E3920C5
:1041FA00DA6EFF0E0B6EFF0E0C6E38C00DF039C072
:10420A000EF00B500D260C500E22000E0D24E16EFE
:10421A00040E0E20E26EDFCFE7FF010E38240B6E8C
:10422A00000E39200C6E000E0B24D96E040E0C20E1
:10423A00DA6E000E3824E16E040E3920E26EDFCF0A
:10424A00E7FF020E38240B6E000E39200C6E000EAA
:10425A000B24D96E040E0C20DA6E010E38240D6E72
:10426A00000E39200E6E000E0D24E16E040E0E2093
:10427A00E26EDFCFE7FF030E38240B6E000E392003
:10428A000C6E000E0B24D96E040E0C20DA6E020E90
:10429A0038240D6E000E39200E6E000E0D24E16ECC
:1042AA00040E0E20E26EDFCFE7FF030E38240B6EFA
:1042BA00000E39200C6E000E0B24D96E040E0C2051
:1042CA00DA6E000EDF6E3806D8A039066DEF21F0DF
:1042DA00C00E3E183F10D8A475EF21F077EF21F0F9
:1042EA007DEF21F0000E1E6E010E1D6E7DEF21F096
:1042FA00FC0E3E183F10D8A485EF21F087EF21F07D
:10430A008DEF21F0000E1E6E000E1D6E8DEF21F056
:10431A001D041E10D8A494EF21F096EF21F076EF39
:10432A0022F0030E3E240B6E000E3F200C6E000E90
:10433A000B24D96E040E0C20DA6E040E3E240D6E88
:10434A00000E3F200E6E000E0D24E16E040E0E20AC
:10435A00E26EDFCFE7FF020E3E240B6E000E3F2017
:10436A000C6E000E0B24D96E040E0C20DA6E030EAE
:10437A003E240D6E000E3F200E6E000E0D24E16EDF
:10438A00040E0E20E26EDFCFE7FF010E3E240B6E15
:10439A00000E3F200C6E000E0B24D96E040E0C206A
:1043AA00DA6E020E3E240D6E000E3F200E6E000ED7
:1043BA000D24E16E040E0E20E26EDFCFE7FF000E41
:1043CA003E24D96E040E3F20DA6E010E3E240B6E97
:1043DA00000E3F200C6E000E0B24E16E040E0C2022
:1043EA00E26EDFCFE7FFFF0E0B6EFF0E0C6E3EC0D4
:1043FA000DF03FC00EF00B500D260C500E22000E91
:10440A000D24D96E040E0E20DA6E000E3E24E16EE3
:10441A00040E3F20E26EDFCFE7FFFE0E0B6EFF0EAB
:10442A000C6E3EC00DF03FC00EF00B500D260C5026
:10443A000E22000E0D24D96E040E0E20DA6EFF0E27
:10444A000F6EFF0E106E3EC011F03FC012F00F50FB
:10445A00112610501222000E1124E16E040E1220B1
:10446A00E26EDFCFE7FFFD0E0B6EFF0E0C6E3EC055
:10447A000DF03FC00EF00B500D260C500E22000E10
:10448A000D24D96E040E0E20DA6EFE0E0F6EFF0E8C
:10449A00106E3EC011F03FC012F00F50112610509E
:1044AA001222000E1124E16E040E1220E26EDFCFFA
:1044BA00E7FFFD0E0B6EFF0E0C6E3EC00DF03FC007
:1044CA000EF00B500D260C500E22000E0D24D96E44
:1044DA00040E0E20DA6E000EDF6E3E4A3F2A5DEFB2
:1044EA0023F0FD0E0B6EFF0E0C6E3EC00DF03FC0AA
:1044FA000EF00B500D260C500E22000E0D24D96E14
:10450A00040E0E20DA6EFC0E0F6EFF0E106E3EC009
:10451A0011F03FC012F00F50112610501222000E57
:10452A001124E16E040E1220E26EDFCFE7FFFE0EC9
:10453A000B6EFF0E0C6E3EC00DF03FC00EF00B501E
:10454A000D260C500E22000E0D24D96E040E0E20DC
:10455A00DA6EFD0E0F6EFF0E106E3EC011F03FC0F8
:10456A0012F00F50112610501222000E1124E16E83
:10457A00040E1220E26EDFCFE7FFFF0E0B6EFF0E76
:10458A000C6E3EC00DF03FC00EF00B500D260C50C5
:10459A000E22000E0D24D96E040E0E20DA6EFE0EC7
:1045AA000F6EFF0E106E3EC011F03FC012F00F509A
:1045BA00112610501222000E1124E16E040E122050
:1045CA00E26EDFCFE7FF000E3E24D96E040E3F20D5
:1045DA00DA6EFF0E0B6EFF0E0C6E3EC00DF03FC082
:1045EA000EF00B500D260C500E22000E0D24E16E1B
:1045FA00040E0E20E26EDFCFE7FF010E3E240B6EA3
:10460A00000E3F200C6E000E0B24D96E040E0C20F7
:10461A00DA6E000E3E24E16E040E3F20E26EDFCF1A
:10462A00E7FF020E3E240B6E000E3F200C6E000EBA
:10463A000B24D96E040E0C20DA6E010E3E240D6E88
:10464A00000E3F200E6E000E0D24E16E040E0E20A9
:10465A00E26EDFCFE7FF030E3E240B6E000E3F2013
:10466A000C6E000E0B24D96E040E0C20DA6E020EAC
:10467A003E240D6E000E3F200E6E000E0D24E16EDC
:10468A00040E0E20E26EDFCFE7FF030E3E240B6E10
:10469A00000E3F200C6E000E0B24D96E040E0C2067
:1046AA00DA6E000EDF6E3E06D8A03F065DEF23F0FD
:1046BA00400E36183710D8A465EF23F067EF23F0C1
:1046CA006DEF23F0000E1A6E010E196E6DEF23F0D6
:1046DA00040E36183710D8A475EF23F077EF23F0BD
:1046EA007DEF23F0000E1A6E000E196E7DEF23F097
:1046FA0019501A10D8A484EF23F086EF23F066EF3E
:10470A0024F0030E36240B6E000E37200C6E000EBA
:10471A000B24D96E040E0C20DA6E040E36240D6EAC
:10472A00000E37200E6E000E0D24E16E040E0E20D0
:10473A00E26EDFCFE7FF020E36240B6E000E372043
:10474A000C6E000E0B24D96E040E0C20DA6E030ECA
:10475A0036240D6E000E37200E6E000E0D24E16E0B
:10476A00040E0E20E26EDFCFE7FF010E36240B6E39
:10477A00000E37200C6E000E0B24D96E040E0C208E
:10478A00DA6E020E36240D6E000E37200E6E000E03
:10479A000D24E16E040E0E20E26EDFCFE7FF000E5D
:1047AA003624D96E040E3720DA6E010E36240B6ECB
:1047BA00000E37200C6E000E0B24E16E040E0C2046
:1047CA00E26EDFCFE7FFFF0E0B6EFF0E0C6E36C0F8
:1047DA000DF037C00EF00B500D260C500E22000EB5
:1047EA000D24D96E040E0E20DA6E000E3624E16E08
:1047FA00040E3720E26EDFCFE7FFFE0E0B6EFF0ED0
:10480A000C6E36C00DF037C00EF00B500D260C5052
:10481A000E22000E0D24D96E040E0E20DA6EFF0E43
:10482A000F6EFF0E106E36C011F037C012F00F5027
:10483A00112610501222000E1124E16E040E1220CD
:10484A00E26EDFCFE7FFFD0E0B6EFF0E0C6E36C079
:10485A000DF037C00EF00B500D260C500E22000E34
:10486A000D24D96E040E0E20DA6EFE0E0F6EFF0EA8
:10487A00106E36C011F037C012F00F5011261050CA
:10488A001222000E1124E16E040E1220E26EDFCF16
:10489A00E7FFFD0E0B6EFF0E0C6E36C00DF037C033
:1048AA000EF00B500D260C500E22000E0D24D96E60
:1048BA00040E0E20DA6E000EDF6E364A372A4DEFEE
:1048CA0025F0FD0E0B6EFF0E0C6E36C00DF037C0D4
:1048DA000EF00B500D260C500E22000E0D24D96E30
:1048EA00040E0E20DA6EFC0E0F6EFF0E106E36C02E
:1048FA0011F037C012F00F50112610501222000E7C
:10490A001124E16E040E1220E26EDFCFE7FFFE0EE5
:10491A000B6EFF0E0C6E36C00DF037C00EF00B504A
:10492A000D260C500E22000E0D24D96E040E0E20F8
:10493A00DA6EFD0E0F6EFF0E106E36C011F037C024
:10494A0012F00F50112610501222000E1124E16E9F
:10495A00040E1220E26EDFCFE7FFFF0E0B6EFF0E92
:10496A000C6E36C00DF037C00EF00B500D260C50F1
:10497A000E22000E0D24D96E040E0E20DA6EFE0EE3
:10498A000F6EFF0E106E36C011F037C012F00F50C6
:10499A00112610501222000E1124E16E040E12206C
:1049AA00E26EDFCFE7FF000E3624D96E040E372001
:1049BA00DA6EFF0E0B6EFF0E0C6E36C00DF037C0AE
:1049CA000EF00B500D260C500E22000E0D24E16E37
:1049DA00040E0E20E26EDFCFE7FF010E36240B6EC7
:1049EA00000E37200C6E000E0B24D96E040E0C201C
:1049FA00DA6E000E3624E16E040E3720E26EDFCF47
:104A0A00E7FF020E36240B6E000E37200C6E000EE6
:104A1A000B24D96E040E0C20DA6E010E36240D6EAC
:104A2A00000E37200E6E000E0D24E16E040E0E20CD
:104A3A00E26EDFCFE7FF030E36240B6E000E37203F
:104A4A000C6E000E0B24D96E040E0C20DA6E020EC8
:104A5A0036240D6E000E37200E6E000E0D24E16E08
:104A6A00040E0E20E26EDFCFE7FF030E36240B6E34
:104A7A00000E37200C6E000E0B24D96E040E0C208B
:104A8A00DA6E000EDF6E3606D8A037064DEF25F037
:104A9A00000E3624D96E040E3720DA6EDF50D8A401
:104AAA0059EF25F05BEF25F00FEF2AF0030E3624BD
:104ABA000B6E000E37200C6E000E0B24D96E040EFE
:104ACA000C20DA6EDF50D8A46DEF25F06FEF25F0D9
:104ADA000FEF2AF0020E36240B6E000E37200C6EF2
:104AEA00000E0B24D96E040E0C20DA6EDF50D8A407
:104AFA0081EF25F083EF25F00FEF2AF0010E36241F
:104B0A000B6E000E37200C6E000E0B24D96E040EAD
:104B1A000C20DA6EDF50D8A495EF25F097EF25F038
:104B2A000FEF2AF0FF0E0B6EFF0E0C6E36C00DF063
:104B3A0037C00EF00B500D260C500E22000E0D241D
:104B4A00D96E040E0E20DA6EDF50D8A4AFEF25F02E
:104B5A00B1EF25F00FEF2AF0FE0E0B6EFF0E0C6E72
:104B6A0036C00DF037C00EF00B500D260C500E2239
:104B7A00000E0D24D96E040E0E20DA6EDF50D8A472
:104B8A00C9EF25F0CBEF25F00FEF2AF0FD0E0B6EE3
:104B9A00FF0E0C6E36C00DF037C00EF00B500D260E
:104BAA000C500E22000E0D24D96E040E0E20DA6E61
:104BBA00DF50D8A4E3EF25F0E5EF25F00FEF2AF058
:104BCA00000E3E24D96E040E3F20DA6EDF50D8A4C0
:104BDA00F1EF25F0F3EF25F00FEF2AF0030E3E2454
:104BEA000B6E000E3F200C6E000E0B24D96E040EC5
:104BFA000C20DA6EDF50D8A405EF26F007EF26F076
:104C0A000FEF2AF0020E3E240B6E000E3F200C6EB0
:104C1A00000E0B24D96E040E0C20DA6EDF50D8A4D5
:104C2A0019EF26F01BEF26F00FEF2AF0010E3E24B3
:104C3A000B6E000E3F200C6E000E0B24D96E040E74
:104C4A000C20DA6EDF50D8A42DEF26F02FEF26F0D5
:104C5A000FEF2AF0FF0E0B6EFF0E0C6E3EC00DF02A
:104C6A003FC00EF00B500D260C500E22000E0D24E4
:104C7A00D96E040E0E20DA6EDF50D8A447EF26F064
:104C8A0049EF26F00FEF2AF0FE0E0B6EFF0E0C6EA8
:104C9A003EC00DF03FC00EF00B500D260C500E22F8
:104CAA00000E0D24D96E040E0E20DA6EDF50D8A441
:104CBA0061EF26F063EF26F00FEF2AF0FD0E0B6E80
:104CCA00FF0E0C6E3EC00DF03FC00EF00B500D26CD
:104CDA000C500E22000E0D24D96E040E0E20DA6E30
:104CEA00DF50D8A47BEF26F07DEF26F00FEF2AF0F5
:104CFA00000E3824D96E040E3920DA6EDF50D8A49B
:104D0A0089EF26F08BEF26F00FEF2AF0030E3824F6
:104D1A000B6E000E39200C6E000E0B24D96E040E99
:104D2A000C20DA6EDF50D8A49DEF26F09FEF26F014
:104D3A000FEF2AF0020E38240B6E000E39200C6E8B
:104D4A00000E0B24D96E040E0C20DA6EDF50D8A4A4
:104D5A00B1EF26F0B3EF26F00FEF2AF0010E382458
:104D6A000B6E000E39200C6E000E0B24D96E040E49
:104D7A000C20DA6EDF50D8A4C5EF26F0C7EF26F074
:104D8A000FEF2AF0FF0E0B6EFF0E0C6E38C00DF0FF
:104D9A0039C00EF00B500D260C500E22000E0D24B9
:104DAA00D96E040E0E20DA6EDF50D8A4DFEF26F09B
:104DBA00E1EF26F00FEF2AF0FE0E0B6EFF0E0C6EDF
:104DCA0038C00DF039C00EF00B500D260C500E22D3
:104DDA00000E0D24D96E040E0E20DA6EDF50D8A410
:104DEA00F9EF26F0FBEF26F00FEF2AF0FD0E0B6E1F
:104DFA00FF0E0C6E38C00DF039C00EF00B500D26A8
:104E0A000C500E22000E0D24D96E040E0E20DA6EFE
:104E1A00DF50D8A413EF27F015EF27F00FEF2AF091
:104E2A00000E3A24D96E040E3B20DA6EDF50D8A465
:104E3A0021EF27F023EF27F00FEF2AF0030E3A2491
:104E4A000B6E000E3B200C6E000E0B24D96E040E66
:104E5A000C20DA6EDF50D8A435EF27F037EF27F0B1
:104E6A000FEF2AF0020E3A240B6E000E3B200C6E56
:104E7A00000E0B24D96E040E0C20DA6EDF50D8A473
:104E8A0049EF27F04BEF27F00FEF2AF0010E3A24F3
:104E9A000B6E000E3B200C6E000E0B24D96E040E16
:104EAA000C20DA6EDF50D8A45DEF27F05FEF27F011
:104EBA000FEF2AF0FF0E0B6EFF0E0C6E3AC00DF0CC
:104ECA003BC00EF00B500D260C500E22000E0D2486
:104EDA00D96E040E0E20DA6EDF50D8A477EF27F0D1
:104EEA0079EF27F00FEF2AF0FE0E0B6EFF0E0C6E15
:104EFA003AC00DF03BC00EF00B500D260C500E229E
:104F0A00000E0D24D96E040E0E20DA6EDF50D8A4DE
:104F1A0091EF27F093EF27F00FEF2AF0FD0E0B6EBB
:104F2A00FF0E0C6E3AC00DF03BC00EF00B500D2672
:104F3A000C500E22000E0D24D96E040E0E20DA6ECD
:104F4A00DF50D8A4ABEF27F0ADEF27F00FEF2AF030
:104F5A00000E2D6E000E2C6E2DBEBBEF27F0040E38
:104F6A002D5CD8A0BBEF27F0BDEF27F0C1EF27F0EB
:104F7A00D9EF27F0D9EF27F0000E2C24D96E040EB2
:104F8A002D20DA6E000EDF6E2C4A2D2A2DBED5EFAB
:104F9A0027F0040E2D5CD8A0D5EF27F0D7EF27F025
:104FAA00C1EF27F0D9EF27F00E0E32240B6E000E58
:104FBA0033200C6E000E0B24D96E040E0C20DA6E10
:104FCA001F0EDF6E070E32240D6E000E33200E6E9A
:104FDA00000E0D24E16E040E0E20E26EDFCFE7FF15
:104FEA000D0E32240B6E000E33200C6E000E0B24B5
:104FFA00D96E040E0C20DA6E200EDF6E080E3224F3
:10500A000D6E000E33200E6E000E0D24E16E040E9E
:10501A000E20E26EDFCFE7FF0C0E32240B6E000E7D
:10502A0033200C6E000E0B24D96E040E0C20DA6E9F
:10503A00400EDF6E090E32240D6E000E33200E6E06
:10504A00000E0D24E16E040E0E20E26EDFCFE7FFA4
:10505A000B0E32240B6E000E33200C6E000E0B2446
:10506A00D96E040E0C20DA6E800EDF6E0A0E322420
:10507A000D6E000E33200E6E000E0D24E16E040E2E
:10508A000E20E26EDFCFE7FF110E32240B6E000E08
:10509A0033200C6E000E0B24D96E040E0C20DA6E2F
:1050AA00FF0EDF6E100E32240D6E000E33200E6ED0
:1050BA00000E0D24E16E040E0E20E26EDFCFE7FF34
:1050CA00130E32240B6E000E33200C6E000E0B24CE
:1050DA00D96E040E0C20DA6EFF0EDF6E170E322424
:1050EA000B6E000E33200C6E000E0B24D96E040ECC
:1050FA000C20DA6E810EDF6E160E32240D6E000E53
:10510A0033200E6E000E0D24E16E040E0E20E26EA8
:10511A00DFCFE7FF150E32240F6E000E3320106E1C
:10512A00000E0F24D96E040E1020DA6EE7CFDFFFCF
:10513A00140E3224116E000E3320126E000E11244A
:10514A00E16E040E1220E26EDFCFE7FF1F0E32245B
:10515A000B6E000E33200C6E000E0B24D96E040E5B
:10516A000C20DA6E010EDF6E1E0E32240D6E000E5A
:10517A0033200E6E000E0D24E16E040E0E20E26E38
:10518A00DFCFE7FF1D0E32240F6E000E3320106EA4
:10519A00000E0F24D96E040E1020DA6EE7CFDFFF5F
:1051AA001B0E3224116E000E3320126E000E1124D3
:1051BA00E16E040E1220E26EDFCFE7FF1A0E3224F0
:1051CA00136E000E3320146E000E1324D96E040ED3
:1051DA001420DA6EE7CFDFFF190E3224156E000EA7
:1051EA003320166E000E1524E16E040E1620E26EB0
:1051FA00DFCFE7FF1C0E32240B6E000E33200C6E3D
:10520A00000E0B24D96E040E0C20DA6EFF0EDF6E30
:10521A00040E3224326E000E3320336E230E3224F3
:10522A000B6E000E33200C6E000E0B24D96E040E8A
:10523A000C20DA6EFF0EDF6E1E0E32240D6E000E8B
:10524A0033200E6E000E0D24E16E040E0E20E26E67
:10525A00DFCFE7FF220E32240B6E000E33200C6ED6
:10526A00000E0B24D96E040E0C20DA6E810EDF6E4E
:10527A00210E32240D6E000E33200E6E000E0D2408
:10528A00E16E040E0E20E26EDFCFE7FF200E32241D
:10529A000F6E000E3320106E000E0F24D96E040E0E
:1052AA001020DA6EE7CFDFFF1F0E3224116E000ED8
:1052BA003320126E000E1124E16E040E1220E26EEB
:1052CA00DFCFE7FF020E3224326E000E3320336E38
:1052DA00250E32240B6E000E33200C6E000E0B24AA
:1052EA00D96E040E0C20DA6EFF0EDF6E240E322405
:1052FA000D6E000E33200E6E000E0D24E16E040EAC
:10530A000E20E26EDFCFE7FF270E32240B6E000E6F
:10531A0033200C6E000E0B24D96E040E0C20DA6EAC
:10532A00FF0EDF6E280E32240B6E000E33200C6E39
:10533A00000E0B24D96E040E0C20DA6E110EDF6EED
:10534A00290E32240B6E000E33200C6E000E0B2435
:10535A00D96E040E0C20DA6E310EDF6E2A0E32245C
:10536A000B6E000E33200C6E000E0B24D96E040E49
:10537A000C20DA6E4A0EDF6E2B0E32240B6E000EF4
:10538A0033200C6E000E0B24D96E040E0C20DA6E3C
:10539A00840EDF6E2D0E32240B6E000E33200C6E3F
:1053AA00000E0B24D96E040E0C20DA6EFF0EDF6E8F
:1053BA00300E32240B6E000E33200C6E000E0B24BE
:1053CA00D96E040E0C20DA6E910EDF6E2F0E322487
:1053DA000D6E000E33200E6E000E0D24E16E040ECB
:1053EA000E20E26EDFCFE7FF2E0E32240F6E000E84
:1053FA003320106E000E0F24D96E040E1020DA6EC0
:10540A00E7CFDFFF0FEF2AF00FEF2AF00FEF2AF0B6
:10541A000FEF2AF0640E25182610D8A417EF2AF0E9
:10542A0019EF2AF027EF2AF0000E286E010E276ED8
:10543A00000E266E000E256E3EC030F03FC031F0E1
:10544A0027EF2AF0254A262A27042810D8A430EF65
:10545A002AF032EF2AF047EF2BF0000E3E24D96EE5
:10546A00040E3F20DA6EDF50D8A43EEF2AF040EF58
:10547A002AF0CEEF2AF0030E3E240B6E000E3F20D8
:10548A000C6E000E0B24D96E040E0C20DA6EDF505F
:10549A00D8A452EF2AF054EF2AF0CEEF2AF0020EE7
:1054AA003E240B6E000E3F200C6E000E0B24D96EAC
:1054BA00040E0C20DA6EDF50D8A466EF2AF068EFEB
:1054CA002AF0CEEF2AF0010E3E240B6E000E3F208A
:1054DA000C6E000E0B24D96E040E0C20DA6EDF500F
:1054EA00D8A47AEF2AF07CEF2AF0CEEF2AF0FF0E4A
:1054FA000B6EFF0E0C6E3EC00DF03FC00EF00B504F
:10550A000D260C500E22000E0D24D96E040E0E200C
:10551A00DA6EDF50D8A494EF2AF096EF2AF0CEEF95
:10552A002AF0FE0E0B6EFF0E0C6E3EC00DF03FC051
:10553A000EF00B500D260C500E22000E0D24D96EC3
:10554A00040E0E20DA6EDF50D8A4AEEF2AF0B0EFC8
:10555A002AF0CEEF2AF0FD0E0B6EFF0E0C6E3EC047
:10556A000DF03FC00EF00B500D260C500E22000E0F
:10557A000D24D96E040E0E20DA6EDF50D8A4C8EFBF
:10558A002AF0CAEF2AF0CEEF2AF017EF2BF017EF26
:10559A002BF0800E30240B6E000E31200C6E000EA4
:1055AA000B24D96E040E0C20DA6EFF0EDF6E810E0C
:1055BA0030240B6E000E31200C6E000E0B24D96EB7
:1055CA00040E0C20DA6EFF0EDF6E1B041C10D8A42A
:1055DA00F1EF2AF0F3EF2AF00BEF2BF0000E302454
:1055EA00D96E040E3120DA6E000EDF6E010E302401
:1055FA000B6E000E31200C6E000E0B24D96E040EB9
:10560A000C20DA6E000EDF6E0BEF2BF0000E1C6E14
:10561A00010E1B6E800E3024306E000E3120316E6A
:10562A0017EF2BF031BE23EF2BF0810E305C030E07
:10563A003158D8A023EF2BF025EF2BF047EF2BF0B2
:10564A00000E3024D96E040E3120DA6E000EDF6EA1
:10565A00010E30240B6E000E31200C6E000E0B244E
:10566A00D96E040E0C20DA6E000EDF6E000E286E64
:10567A00000E276E000E1C6E000E1B6E47EF2BF0FD
:10568A0047EF2BF081AC4CEF2BF04EEF2BF058EF9D
:10569A002BF0000E246E010E236E3CC034F03DC088
:1056AA0035F058EF2BF023042410D8A45FEF2BF029
:1056BA0061EF2BF0ACEF32F035BE6FEF2BF03550C7
:1056CA0007E1810E345CD8B06DEF2BF06FEF2BF051
:1056DA00A1EF2BF0000E3424D96E040E3520DA6EB9
:1056EA00000EDF6E010E34240B6E000E35200C6E98
:1056FA00000E0B24D96E040E0C20DA6E000EDF6E3B
:10570A00FF0E0B6EFF0E0C6E34C00DF035C00EF09E
:10571A000B500D260C500E22000E0D24D96E040ECD
:10572A000E20DA6E000EDF6E000E246E000E236E5F
:10573A00000E2A6E000E296E800E0B6EFF0E0C6E86
:10574A0034C00DF035C00EF00B500D260C500E2251
:10575A00000E0D24D96E040E0E20DA6EDF50D8A486
:10576A00B9EF2BF0BBEF2BF02DEF2CF07F0E0B6E69
:10577A00FF0E0C6E34C00DF035C00EF00B500D2626
:10578A000C500E22000E0D24D96E040E0E20DA6E75
:10579A00DF50D8A4D3EF2BF0D5EF2BF02DEF2CF060
:1057AA00810E0B6EFF0E0C6E34C00DF035C00EF07C
:1057BA000B500D260C500E22000E0D24D96E040E2D
:1057CA000E20DA6EDF50D8A4EDEF2BF0EFEF2BF0BE
:1057DA002DEF2CF0800E0B6EFF0E0C6E34C00DF008
:1057EA0035C00EF00B500D260C500E22000E0D2463
:1057FA00D96E040E0E20DA6EFF0EDF6E7F0E0B6E70
:10580A00FF0E0C6E34C00DF035C00EF00B500D2695
:10581A000C500E22000E0D24D96E040E0E20DA6EE4
:10582A00FF0EDF6E810E0B6EFF0E0C6E34C00DF094
:10583A0035C00EF00B500D260C500E22000E0D2412
:10584A00D96E040E0E20DA6EFF0EDF6E1FEF32F0F5
:10585A00800E0B6EFF0E0C6E34C00DF035C00EF0CC
:10586A000B500D260C500E22000E0D24D96E040E7C
:10587A000E20DA6EDE28D8A445EF2CF047EF2CF084
:10588A00E3EF2CF07F0E0B6EFF0E0C6E34C00DF0A2
:10589A0035C00EF00B500D260C500E22000E0D24B2
:1058AA00D96E040E0E20DA6EDE28D8A45FEF2CF033
:1058BA0061EF2CF0E3EF2CF0810E0B6EFF0E0C6EF5
:1058CA0034C00DF035C00EF00B500D260C500E22D0
:1058DA00000E0D24D96E040E0E20DA6EDE28D8A42E
:1058EA0079EF2CF07BEF2CF0E3EF2CF0800E0B6EAF
:1058FA00FF0E0C6E34C00DF035C00EF00B500D26A5
:10590A000C500E22000E0D24D96E040E0E20DA6EF3
:10591A00000EDF6E7F0E0B6EFF0E0C6E34C00DF0A4
:10592A0035C00EF00B500D260C500E22000E0D2421
:10593A00D96E040E0E20DA6E000EDF6E810E0B6E2B
:10594A00FF0E0C6E34C00DF035C00EF00B500D2654
:10595A000C500E22000E0D24D96E040E0E20DA6EA3
:10596A00000EDF6E000E3424D96E040E3520DA6E76
:10597A00000EDF6E010E34240B6E000E35200C6E05
:10598A00000E0B24D96E040E0C20DA6E000EDF6EA8
:10599A00FF0E0B6EFF0E0C6E34C00DF035C00EF00C
:1059AA000B500D260C500E22000E0D24D96E040E3B
:1059BA000E20DA6E000EDF6E1FEF32F0800E0B6ED5
:1059CA00FF0E0C6E34C00DF035C00EF00B500D26D4
:1059DA000C500E22030E36240F6E000E3720106E66
:1059EA000D500F5C1050800A116E0E50800A11582B
:1059FA00D8A002EF2DF004EF2DF02DEF2DF0FD0EC3
:105A0A000B6EFF0E0C6E36C00DF037C00EF00B5049
:105A1A000D260C500E22800E0F6EFF0E106E34C033
:105A2A0011F035C012F00F501126105012220D50ED
:105A3A00115C1250800A136E0E50800A1358D8B0A7
:105A4A0029EF2DF02BEF2DF0C1EF2DF02DEF2DF0DA
:105A5A00810E0B6EFF0E0C6E34C00DF035C00EF0C9
:105A6A000B500D260C500E22030E36240F6E000E1C
:105A7A003720106E0D500F5C1050800A116E0E50B8
:105A8A00800A1158D8A04CEF2DF04EEF2DF077EF89
:105A9A002DF0FD0E0B6EFF0E0C6E36C00DF037C0EA
:105AAA000EF00B500D260C500E22810E0F6EFF0EBB
:105ABA00106E34C011F035C012F00F50112610507C
:105ACA0012220D50115C1250800A136E0E50800A79
:105ADA001358D8B073EF2DF075EF2DF0C1EF2DF0FC
:105AEA0077EF2DF07F0E0B6EFF0E0C6E34C00DF0AB
:105AFA0035C00EF00B500D260C500E22030E362424
:105B0A000F6E000E3720106E0D500F5C1050800A79
:105B1A00116E0E50800A1158D8A096EF2DF098EF0A
:105B2A002DF031EF2EF0FD0E0B6EFF0E0C6E36C00F
:105B3A000DF037C00EF00B500D260C500E227F0EC2
:105B4A000F6EFF0E106E34C011F035C012F00F50F8
:105B5A001126105012220D50115C1250800A136E39
:105B6A000E50800A1358D8A0BDEF2DF0BFEF2DF0CC
:105B7A0031EF2EF0C1EF2DF0000E3624D96E040E4F
:105B8A003720DA6E000EDF6E010E36240B6E000E21
:105B9A0037200C6E000E0B24D96E040E0C20DA6E20
:105BAA00000EDF6E020E36240B6E000E37200C6ECE
:105BBA00000E0B24D96E040E0C20DA6E000EDF6E76
:105BCA00030E36240B6E000E37200C6E000E0B24CB
:105BDA00D96E040E0C20DA6E000EDF6EFF0E0B6E0D
:105BEA00FF0E0C6E36C00DF037C00EF00B500D26AE
:105BFA000C500E22000E0D24D96E040E0E20DA6E01
:105C0A00000EDF6EFE0E0B6EFF0E0C6E36C00DF030
:105C1A0037C00EF00B500D260C500E22000E0D242C
:105C2A00D96E040E0E20DA6E000EDF6EFD0E0B6EBC
:105C3A00FF0E0C6E36C00DF037C00EF00B500D265D
:105C4A000C500E22000E0D24D96E040E0E20DA6EB0
:105C5A00000EDF6E31EF2EF0800E0B6EFF0E0C6E13
:105C6A0034C00DF035C00EF00B500D260C500E222C
:105C7A00030E3E240F6E000E3F20106E0D500F5C77
:105C8A001050800A116E0E50800A1158D8A050EF99
:105C9A002EF052EF2EF07BEF2EF0FD0E0B6EFF0E64
:105CAA000C6E3EC00DF03FC00EF00B500D260C508E
:105CBA000E22800E0F6EFF0E106E34C011F035C02A
:105CCA0012F00F501126105012220D50115C125072
:105CDA00800A136E0E50800A1358D8B077EF2EF050
:105CEA0079EF2EF00FEF2FF07BEF2EF0810E0B6E77
:105CFA00FF0E0C6E34C00DF035C00EF00B500D26A1
:105D0A000C500E22030E3E240F6E000E3F20106E22
:105D1A000D500F5C1050800A116E0E50800A1158F7
:105D2A00D8A09AEF2EF09CEF2EF0C5EF2EF0FD0EC4
:105D3A000B6EFF0E0C6E3EC00DF03FC00EF00B5006
:105D4A000D260C500E22810E0F6EFF0E106E34C0FF
:105D5A0011F035C012F00F501126105012220D50BA
:105D6A00115C1250800A136E0E50800A1358D8B074
:105D7A00C1EF2EF0C3EF2EF00FEF2FF0C5EF2EF08C
:105D8A007F0E0B6EFF0E0C6E34C00DF035C00EF098
:105D9A000B500D260C500E22030E3E240F6E000EE1
:105DAA003F20106E0D500F5C1050800A116E0E507D
:105DBA00800A1158D8A0E4EF2EF0E6EF2EF07FEF1C
:105DCA002FF0FD0E0B6EFF0E0C6E3EC00DF03FC0A5
:105DDA000EF00B500D260C500E227F0E0F6EFF0E8A
:105DEA00106E34C011F035C012F00F501126105049
:105DFA0012220D50115C1250800A136E0E50800A46
:105E0A001358D8A00BEF2FF00DEF2FF07FEF2FF0E4
:105E1A000FEF2FF0000E3E24D96E040E3F20DA6EEB
:105E2A00000EDF6E010E3E240B6E000E3F200C6E3C
:105E3A00000E0B24D96E040E0C20DA6E000EDF6EF3
:105E4A00020E3E240B6E000E3F200C6E000E0B2439
:105E5A00D96E040E0C20DA6E000EDF6E030E3E249D
:105E6A000B6E000E3F200C6E000E0B24D96E040E32
:105E7A000C20DA6E000EDF6EFF0E0B6EFF0E0C6E3C
:105E8A003EC00DF03FC00EF00B500D260C500E22F6
:105E9A00000E0D24D96E040E0E20DA6E000EDF6E8F
:105EAA00FE0E0B6EFF0E0C6E3EC00DF03FC00EF0E4
:105EBA000B500D260C500E22000E0D24D96E040E26
:105ECA000E20DA6E000EDF6EFD0E0B6EFF0E0C6EEC
:105EDA003EC00DF03FC00EF00B500D260C500E22A6
:105EEA00000E0D24D96E040E0E20DA6E000EDF6E3F
:105EFA007FEF2FF0800E0B6EFF0E0C6E34C00DF08C
:105F0A0035C00EF00B500D260C500E22030E38240D
:105F1A000F6E000E3920106E0D500F5C1050800A63
:105F2A00116E0E50800A1158D8A09EEF2FF0A0EFE4
:105F3A002FF0C9EF2FF0FD0E0B6EFF0E0C6E38C05E
:105F4A000DF039C00EF00B500D260C500E22800EAB
:105F5A000F6EFF0E106E34C011F035C012F00F50E4
:105F6A001126105012220D50115C1250800A136E25
:105F7A000E50800A1358D8B0C5EF2FF0C7EF2FF094
:105F8A005DEF30F0C9EF2FF0810E0B6EFF0E0C6E35
:105F9A0034C00DF035C00EF00B500D260C500E22F9
:105FAA00030E38240F6E000E3920106E0D500F5C50
:105FBA001050800A116E0E50800A1158D8A0E8EFCE
:105FCA002FF0EAEF2FF013EF30F0FD0E0B6EFF0EFD
:105FDA000C6E38C00DF039C00EF00B500D260C5067
:105FEA000E22810E0F6EFF0E106E34C011F035C0F6
:105FFA0012F00F501126105012220D50115C12503F
:10600A00800A136E0E50800A1358D8B00FEF30F082
:10601A0011EF30F05DEF30F013EF30F07F0E0B6EC2
:10602A00FF0E0C6E34C00DF035C00EF00B500D266D
:10603A000C500E22030E38240F6E000E3920106EFB
:10604A000D500F5C1050800A116E0E50800A1158C4
:10605A00D8A032EF30F034EF30F0CDEF30F0FD0E53
:10606A000B6EFF0E0C6E38C00DF039C00EF00B50DF
:10607A000D260C500E227F0E0F6EFF0E106E34C0CE
:10608A0011F035C012F00F501126105012220D5087
:10609A00115C1250800A136E0E50800A1358D8A051
:1060AA0059EF30F05BEF30F0CDEF30F05DEF30F0CC
:1060BA00000E3824D96E040E3920DA6E000EDF6E17
:1060CA00010E38240B6E000E39200C6E000E0B24C4
:1060DA00D96E040E0C20DA6E000EDF6E020E382422
:1060EA000B6E000E39200C6E000E0B24D96E040EB6
:1060FA000C20DA6E000EDF6E030E38240B6E000ED3
:10610A0039200C6E000E0B24D96E040E0C20DA6EA8
:10611A00000EDF6EFF0E0B6EFF0E0C6E38C00DF018
:10612A0039C00EF00B500D260C500E22000E0D2415
:10613A00D96E040E0E20DA6E000EDF6EFE0E0B6EA6
:10614A00FF0E0C6E38C00DF039C00EF00B500D2644
:10615A000C500E22000E0D24D96E040E0E20DA6E9B
:10616A00000EDF6EFD0E0B6EFF0E0C6E38C00DF0CA
:10617A0039C00EF00B500D260C500E22000E0D24C5
:10618A00D96E040E0E20DA6E000EDF6ECDEF30F0FF
:10619A00800E0B6EFF0E0C6E34C00DF035C00EF083
:1061AA000B500D260C500E22030E3A240F6E000ED1
:1061BA003B20106E0D500F5C1050800A116E0E506D
:1061CA00800A1158D8A0ECEF30F0EEEF30F017EF5C
:1061DA0031F0FD0E0B6EFF0E0C6E3AC00DF03BC097
:1061EA000EF00B500D260C500E22800E0F6EFF0E75
:1061FA00106E34C011F035C012F00F501126105035
:10620A0012220D50115C1250800A136E0E50800A31
:10621A001358D8B013EF31F015EF31F0ABEF31F07E
:10622A0017EF31F0810E0B6EFF0E0C6E34C00DF0BD
:10623A0035C00EF00B500D260C500E22030E3A24D8
:10624A000F6E000E3B20106E0D500F5C1050800A2E
:10625A00116E0E50800A1158D8A036EF31F038EF7F
:10626A0031F061EF31F0FD0E0B6EFF0E0C6E3AC08D
:10627A000DF03BC00EF00B500D260C500E22810E75
:10628A000F6EFF0E106E34C011F035C012F00F50B1
:10629A001126105012220D50115C1250800A136EF2
:1062AA000E50800A1358D8B05DEF31F05FEF31F02D
:1062BA00ABEF31F061EF31F07F0E0B6EFF0E0C6E1B
:1062CA0034C00DF035C00EF00B500D260C500E22C6
:1062DA00030E3A240F6E000E3B20106E0D500F5C19
:1062EA001050800A116E0E50800A1158D8A080EF03
:1062FA0031F082EF31F01FEF32F0FD0E0B6EFF0E20
:10630A000C6E3AC00DF03BC00EF00B500D260C502F
:10631A000E227F0E0F6EFF0E106E34C011F035C0C4
:10632A0012F00F501126105012220D50115C12500B
:10633A00800A136E0E50800A1358D8A0A7EF31F0C6
:10634A00A9EF31F01FEF32F0ABEF31F0000E3A2433
:10635A00D96E040E3B20DA6E000EDF6E010E3A246F
:10636A000B6E000E3B200C6E000E0B24D96E040E31
:10637A000C20DA6E000EDF6E020E3A240B6E000E4F
:10638A003B200C6E000E0B24D96E040E0C20DA6E24
:10639A00000EDF6E030E3A240B6E000E3B200C6ECD
:1063AA00000E0B24D96E040E0C20DA6E000EDF6E7E
:1063BA00FF0E0B6EFF0E0C6E3AC00DF03BC00EF0D6
:1063CA000B500D260C500E22000E0D24D96E040E11
:1063DA000E20DA6E000EDF6EFE0E0B6EFF0E0C6ED6
:1063EA003AC00DF03BC00EF00B500D260C500E2299
:1063FA00000E0D24D96E040E0E20DA6E000EDF6E2A
:10640A00FD0E0B6EFF0E0C6E3AC00DF03BC00EF087
:10641A000B500D260C500E22000E0D24D96E040EC0
:10642A000E20DA6E000EDF6E1FEF32F01FEF32F031
:10643A001FEF32F029042A10D8A426EF32F028EFF1
:10644A0032F054EF32F0000E3424D96E040E3520A7
:10645A00DA6E000EDF6E010E34240B6E000E35204C
:10646A000C6E000E0B24D96E040E0C20DA6E000E90
:10647A00DF6EFF0E0B6EFF0E0C6E34C00DF035C0D2
:10648A000EF00B500D260C500E22000E0D24D96E64
:10649A00040E0E20DA6E000EDF6E54EF32F0000E9C
:1064AA002A6E010E296E800E3424346EFF0E3520BA
:1064BA00356E000E3C24D96E040E3D20DA6EFF0EB6
:1064CA00DF6E010E3C240B6E000E3D200C6E000E9A
:1064DA000B24D96E040E0C20DA6EFC0EDF6EFF0E52
:1064EA000D6EFF0E0E6E3CC00FF03DC010F00D5049
:1064FA000F260E501022000E0F24E16E040E1020FB
:10650A00E26EDFCFE7FF020E3C240B6E000E3D2049
:10651A000C6E000E0B24D96E040E0C20DA6EF00EEF
:10652A00DF6EFE0E0D6EFF0E0E6E3CC00FF03DC00C
:10653A0010F00D500F260E501022000E0F24E16E9F
:10654A00040E1020E26EDFCFE7FFACEF32F084A03A
:10655A00B1EF32F0B3EF32F065EF33F03DBEC1EF89
:10656A0032F0FD0E3C5C030E3D58D8B0BFEF32F05E
:10657A00C1EF32F065EF33F0020E3C240B6E000ED1
:10658A003D200C6E000E0B24D96E040E0C20DA6E20
:10659A00030E3C240D6E000E3D200E6E000E0D24DF
:1065AA00E16E040E0E20E26EDFCFE7FF010E3C24FF
:1065BA000B6E000E3D200C6E000E0B24D96E040EDD
:1065CA000C20DA6E020E3C240D6E000E3D200E6E7B
:1065DA00000E0D24E16E040E0E20E26EDFCFE7FFFF
:1065EA00000E3C24D96E040E3D20DA6EFF0EDF6EDB
:1065FA00010E3C240B6E000E3D200C6E000E0B2487
:10660A00E16E040E0C20E26EDFCFE7FFFF0E0B6E89
:10661A00FF0E0C6E3CC00DF03DC00EF00B500D2667
:10662A000C500E22000E0D24D96E040E0E20DA6EC6
:10663A00000E3C24E16E040E3D20E26EDFCFE7FF40
:10664A00FE0E0B6EFF0E0C6E3CC00DF03DC00EF040
:10665A000B500D260C500E22000E0D24D96E040E7E
:10666A000E20DA6EFF0E0F6EFF0E106E3CC011F098
:10667A003DC012F00F50112610501222000E1124A4
:10668A00E16E040E1220E26EDFCFE7FFFE0E0B6E04
:10669A00FF0E0C6E3CC00DF03DC00EF00B500D26E7
:1066AA000C500E22000E0D24D96E040E0E20DA6E46
:1066BA00000EDF6E3C4A3D2A65EF33F065EF33F09A
:1066CA0084A26AEF33F06CEF33F025EF34F03DBE6D
:1066DA0078EF33F0810E3C5C030E3D58D8A078EF7A
:1066EA0033F07AEF33F025EF34F0FE0E0B6EFF0E27
:1066FA000C6E3CC00DF03DC00EF00B500D260C5038
:10670A000E22000E0D24D96E040E0E20DA6EFD0E36
:10671A000F6EFF0E106E3CC011F03DC012F00F500C
:10672A00112610501222000E1124E16E040E1220BE
:10673A00E26EDFCFE7FFFF0E0B6EFF0E0C6E3CC062
:10674A000DF03DC00EF00B500D260C500E22000E1F
:10675A000D24D96E040E0E20DA6EFE0E0F6EFF0E99
:10676A00106E3CC011F03DC012F00F5011261050AF
:10677A001222000E1124E16E040E1220E26EDFCF07
:10678A00E7FF000E3C24D96E040E3D20DA6EFF0EA0
:10679A00DF6EFF0E0B6EFF0E0C6E3CC00DF03DC09F
:1067AA000EF00B500D260C500E22000E0D24E16E39
:1067BA00040E0E20E26EDFCFE7FF010E3C240B6EC3
:1067CA00000E3D200C6E000E0B24D96E040E0C2018
:1067DA00DA6E000E3C24E16E040E3D20E26EDFCF3D
:1067EA00E7FF020E3C240B6E000E3D200C6E000EDD
:1067FA000B24D96E040E0C20DA6E010E3C240D6EA9
:10680A00000E3D200E6E000E0D24E16E040E0E20C9
:10681A00E26EDFCFE7FF020E3C240B6E000E3D2036
:10682A000C6E000E0B24D96E040E0C20DA6E000ECC
:10683A00DF6E3C06D8A03D0625EF34F025EF34F094
:10684A0084A42AEF34F02CEF34F0CFEF34F098EF31
:10685A0034F098EF34F0000E3C24D96E040E3D203B
:10686A00DA6E010EDF6ECFEF34F0000E3C24D96EE3
:10687A00040E3D20DA6E020EDF6ECFEF34F0000E0A
:10688A003C24D96E040E3D20DA6E040EDF6ECFEF83
:10689A0034F0000E3C24D96E040E3D20DA6E080E48
:1068AA00DF6ECFEF34F0000E3C24D96E040E3D208B
:1068BA00DA6E100EDF6ECFEF34F0000E3C24D96E84
:1068CA00040E3D20DA6E200EDF6ECFEF34F0000E9C
:1068DA003C24D96E040E3D20DA6E400EDF6ECFEFF7
:1068EA0034F0000E3C24D96E040E3D20DA6E800E80
:1068FA00DF6E000E3C24D96E040E3D20DA6E000EC7
:10690A00DF6E800E3C243C6E000E3D203D6E000E74
:10691A003C24D96E040E3D20DA6E010EDF6ECFEFF5
:10692A0034F0CFEF34F0000E3C24D96E040E3D2033
:10693A00DA6EDF500B6E0C6A0C50000AD8B4A8EF5E
:10694A0034F0CFEF34F00B50000AD8B430EF34F003
:10695A00010AD8B43AEF34F0030AD8B444EF34F059
:10696A00060AD8B44EEF34F00C0AD8B458EF34F013
:10697A00180AD8B462EF34F0300AD8B46CEF34F0A5
:10698A00600AD8B476EF34F0C00AD8B47EEF34F097
:10699A00CFEF34F081AED4EF34F0D6EF34F024EFF9
:1069AA001DF042EF35F042EF35F0000E3C24D96E6F
:1069BA00040E3D20DA6E800EDF6E24EF1DF0000E0D
:1069CA003C24D96E040E3D20DA6E400EDF6E24EFB1
:1069DA001DF0000E3C24D96E040E3D20DA6E200E06
:1069EA00DF6E24EF1DF0000E3C24D96E040E3D200C
:1069FA00DA6E100EDF6E24EF1DF0000E3C24D96E05
:106A0A00040E3D20DA6E080EDF6E24EF1DF0000E34
:106A1A003C24D96E040E3D20DA6E040EDF6E24EF9C
:106A2A001DF0000E3C24D96E040E3D20DA6E020ED3
:106A3A00DF6E24EF1DF0000E3C24D96E040E3D20BB
:106A4A00DA6E010EDF6E000E3C24D96E040E3D2074
:106A5A00DA6E000EDF6E800E3C243C6EFF0E3D2087
:106A6A003D6E000E3C24D96E040E3D20DA6E800E77
:106A7A00DF6E24EF1DF024EF1DF0000E3C24D96ECA
:106A8A00040E3D20DA6EDF500B6E0C6A0C50000AC1
:106A9A00D8B452EF35F024EF1DF00B50000AD8B4E9
:106AAA00DAEF34F0010AD8B428EF35F0030AD8B483
:106ABA0020EF35F0060AD8B416EF35F00C0AD8B430
:106ACA000CEF35F0180AD8B402EF35F0300AD8B412
:106ADA00F8EF34F0600AD8B4EEEF34F0C00AD8B454
:106AEA00E4EF34F024EF1DF024EF1DF024EF1DF045
:106AFA0024EF1DF01200000000000000000000005A
:106B0A00000000000000000000000000000000007B
:106B1A00000000000000000000000000000000006B
:106B2A00000000000000000000000000000000005B
:106B3A00000000000000000000000000000000004B
:106B4A00000000000000000000000000000000003B
:106B5A00000000000000000000000000000000002B
:106B6A00000000000000000000000000000000001B
:106B7A00000000000000000000000000000000000B
:106B8A0000000000000000000000000000000000FB
:106B9A0000000000000000000000000000000000EB
:106BAA0000000000000000000000000000000000DB
:106BBA0000000000000000000000000000000000CB
:106BCA0000000000000000000000000000000000BB
:106BDA0000000000000000000000000000000000AB
:106BEA00000000000000000000000000000000009B
:106BFA00000000000000000000000000000000008B
:106C0A00065F5F0600000000070700070700001480
:106C1A007F7F147F7F1400242E6B6B3A120000468C
:106C2A006630180C666200307A4F5D377A48000485
:106C3A0007030000000000001C3E63410000000042
:106C4A0041633E1C000000082A3E1C1C3E2A08081C
:106C5A00083E3E080800000080E0600000000008CE
:106C6A0008080808080000000060600000000060D2
:106C7A0030180C060301003E7F71594D7F3E0040DB
:106C8A00427F7F40400000627359496F66000022CC
:106C9A006349497F360000181C16537F7F5000272E
:106CAA006745457D3900003C7E4B49793000000339
:106CBA000371790F070000367F49497F36000006C5
:106CCA004F49693F1E000000006666000000000090
:106CDA0080E66600000000081C36634100000024BC
:106CEA0024242424240000004163361C08000002E6
:106CFA000351590F0600003E7F415D5D1F1E007C57
:106D0A007E13137E7C0000417F7F49497F36001C39
:106D1A003E634141632200417F7F41633E1C004143
:106D2A007F7F495D416300417F7F491D0103001C4C
:106D3A003E6341517372007F7F08087F7F00000025
:106D4A00417F7F41000000307040417F3F01004198
:106D5A007F7F081C776300417F7F41406070007F1E
:106D6A007F0E1C0E7F7F007F7F060C187F7F001C22
:106D7A003E6341633E1C00417F7F49090F06001EA6
:106D8A003F21717F5E0000417F7F09197F660026DF
:106D9A006F4D597332000003417F7F410300007F2A
:106DAA007F40407F7F00001F3F60603F1F00007FE1
:106DBA007F3018307F7F0043673C183C67430007E9
:106DCA004F78784F070000476371594D6773000089
:106DDA007F7F41410000000103060C18306000006B
:106DEA0041417F7F000000080C0603060C08008062
:106DFA0080808080808080000003070400000020DB
:106E0A007454543C784000417F3F484878300038F9
:106E1A007C44446C280000307848493F7F40003861
:106E2A007C54545C180000487E7F49030200009895
:106E3A00BCA4A4F87C0400417F7F08047C7800008D
:106E4A00447D7D4000000060E08080FD7D000041BF
:106E5A007F7F10386C440000417F7F400000007C37
:106E6A007C18381C7C78007C7C04047C7800003810
:106E7A007C44447C38000084FCF8A4243C180018A4
:106E8A003C24A4F8FC8400447C784C041C18004878
:106E9A005C54547424000000043E7F442400003CE7
:106EAA007C40403C7C40001C3C60603C1C00003C38
:106EBA007C7038707C3C00446C3810386C44009C00
:106ECA00BCA0A0FC7C00004C64745C4C640000080C
:106EDA00083E77414100000000007777000000413A
:106EEA0041773E0808000002030103020301007013
:106EFA00784C464C7870000E9F91B1FB4A00003ADC
:106F0A007A40407A7A4000387C54555D1900000274
:106F1A00237555557D7B42217554547D7940002156
:106F2A007555547C784000207457577C7840001877
:106F3A003CA4A4E4400000023B7D55555D1B023988
:106F4A007D54545D190000397D55545C18000001C8
:106F5A00457C7C410100000203457D7D430200011E
:106F6A00457D7C40000000797D1612167D790070FF
:106F7A00782B2B78700000447C7C55554500002006
:106F8A007454547C7C54547C7E0B097F7F490032B4
:106F9A007B49497B320000327A48487A3200003213
:106FAA007A4A48783000003A7B41417B7A40003A7D
:106FBA007A4240787840009ABAA0A0FA7A00000192
:106FCA00193C66663C19013D7D40407D3D00001834
:106FDA003C24E7E7242400687E7F49436620002B8F
:106FEA002FFCFC2F2B0000FFFF09092FF6F8A04009
:106FFA00C088FE7F090302207454557D7940000041
:10700A00447D7D410000003078484A7A32000038D9
:10701A007840427A7A40007A7A0A0A7A7000007DC9
:10702A007D19317D7D000000262F292F2F28000091
:10703A00262F292F26000030784D45602000003881
:10704A003808080808000008080808383800004FFF
:10705A006F3018CCEEBB914F6F30186C76FBF9008D
:10706A0000007B7B000000081C3622081C36222206
:10707A00361C0822361C08AA005500AA005500AA88
:10708A0055AA55AA55AA55DDFFAA77DDAAFF7700AA
:10709A000000FFFF000000101010FFFF00000014A6
:1070AA001414FFFF0000001010FFFF00FFFF001084
:1070BA0010F0F010F0F000141414FCFC000000149E
:1070CA0014F7F700FFFF000000FFFF00FFFF0014A6
:1070DA0014F4F404FCFC0014141717101F1F0010FA
:1070EA00101F1F101F1F001414141F1F0000001070
:1070FA001010F0F00000000000001F1F1010101008
:10710A0010101F1F101010101010F0F010101000A7
:10711A000000FFFF101010101010101010101010A7
:10712A001010FFFF101010000000FFFF14141400CD
:10713A0000FFFF00FFFF1000001F1F1017171400A9
:10714A0000FCFC04F4F41414141717101717141481
:10715A0014F4F404F4F4140000FFFF00F7F7141415
:10716A00141414141414141414F7F700F7F714145D
:10717A001414171714141410101F1F101F1F1014A3
:10718A001414F4F41414141010F0F010F0F01000A9
:10719A00001F1F101F1F100000001F1F14141400CF
:1071AA000000FCFC1414140000F0F010F0F01010B1
:1071BA0010FFFF10FFFF10141414FFFF1414141013
:1071CA0010101F1F000000000000F0F0101010FF48
:1071DA00FFFFFFFFFFFFFFF0F0F0F0F0F0F0F0FF2D
:1071EA00FFFFFF0000000000000000FFFFFFFF0F8D
:1071FA000F0F0F0F0F0F0F387C446C386C4400FCD4
:10720A00FE2A2A3E1400007E7E02020606000002C2
:10721A007E7E027E7E020063775D496363000038EA
:10722A007C447C3C04040080FE7E20203E1E000438
:10723A0006027E7C06020099BDE7E7BD9900001CA4
:10724A003E6B496B3E1C004C7E7301737E4C0030D2
:10725A00784A4F7D390000183C243C3C243C18985D
:10726A00FC643C3E273D18000000000000000000BE
:10727A000000000000000000000000000000000004
:10728A0000000000000000000000000000000000F4
:10729A0000000000000000000000000000000000E4
:1072AA0000000000000000000000000000000000D4
:1072BA0000000000000000000000000000000000C4
:1072CA0000000000000000000000000000000000B4
:1072DA0000000000000000000000000000000000A4
:1072EA000000000000000000000000000000000094
:1072FA000000000000000000000000000000000084
:10730A000000000000000000000000000000000073
:10731A000000000000000000000000000000000063
:10732A0000000000000000000000E0F0C8CCC4C269
:10733A00E2E2F2FEFEFEFCB00000000000000000E7
:10734A000000000000000000000000000000000033
:10735A000000000000000000000000000000000023
:10736A000000000000000000000000000000000013
:10737A000000000000000000000000000000000003
:10738A0000000000000000000000000000000000F3
:10739A0000000000000000000000000000000000E3
:1073AA0000000000000000000083CF5F3F3F3F3F26
:1073BA003F3F3F3F1F3F3F3F7F7880000000000074
:1073CA0000000000000000000000000000000000B3
:1073DA0000000000000000000000000000000000A3
:1073EA000000000000000000000000000000000093
:1073FA000000000000000000000000000000000083
:10740A000000000000000000000000000000000072
:10741A000000000000000000000000000000000062
:10742A00000000000080C0884261F042800008002D
:10743A00006022000800000000000103BC0080E098
:10744A00F0F8FCFCECF6F078383818181808000048
:10745A000000000000000000000000000000000022
:10746A000000000000000000000000000000000012
:10747A000000000000000000000000000000000002
:10748A0000000000000000000000000000000000F2
:10749A0000000000000000000000000000000000E2
:1074AA00000000FC038382C6FAFAFCFCFAFFE20140
:1074BA000000000100000000000000F00708FFFFC4
:1074CA00FFFFFFFFFFDFCFCF8F0F0F0F0E1C18300C
:1074DA0000000000000000000000000000000000A2
:1074EA000000000000000000000000000000000092
:1074FA000000000000000000000000000000000082
:10750A000000000000000000000000000000000071
:10751A000000000000000000000000000000000061
:10752A00608E01040F1F1F0F0F1F3F3F3F3F1F03B6
:10753A00000000000020001000080808090A082BB3
:10754A002B3337FF030303071F7F100000000000DF
:10755A000000000000000000000000000000000021
:10756A000000000000000000000000000000000011
:10757A000000000000000000000000000000000001
:10758A0000000000000000000000000000000000F1
:10759A0000000000000000000000000000000000E1
:1075AA000007083060C080000000000000000000F2
:1075BA000000000040800000000000008080C060E1
:1075CA00341A05030000000000000000000000005B
:1075DA0000000000000000000000000000000000A1
:1075EA000000000000000000000000000000000091
:1075FA000000000000000000000000000000000081
:10760A000000000000000000000000000000000070
:10761A000000000000000000000000000000000060
:10762A00000000000000008182868C9C1428E8F883
:10763A00102040C0C04020110905050502010000C4
:10764A000000000000000000000000000000000030
:10765A000000000000000000000000000000000020
:10766A000000000000000000000000000000000010
:10767A000000000000000000000000000000000000
:10768A0000000000000000000000000000000000F0
:10769A0000000000000000000000000000000000E0
:1076AA00000000000000030207050404050D0E1B7C
:1076BA003B6B476363263A12121C0000000000006D
:1076CA0000000000000000000000000000000000B0
:1076DA0000000000000000000000000000000000A0
:1076EA000000000000000000000000000000000090
:1076FA000000000000000000000000000000000080
:107AFA0000000000000000FFFFFFFFFFFFFFFFFF85
:107B0A00FFFFFFFFFFFFFFFFFFFFFFFFFFFFFFFF7B
:107B1A00FFFFFFFFFFFFFFFFFFFFFFFFFFFFFFFF6B
:107B2A00FFFFFFFFFFFFFFFFFFFFFFFFFFFFFFFF5B
:107B3A00FFFFFFFFFFFFFFFFFFFFFFFFFFFFFFFF4B
:107EEA00FFFFFFFFFFFFFF0000000000000000008F
:107EFA0000000000000000000000005C000C000C04
:107F0A007C287C7C447C241048285408000C0038C7
:107F1A004400443800201008103810804000101027
:107F2A0010004000201008384438007C006454488F
:107F3A004454281C107C4C542438542004740C28B3
:107F4A00542808543800500080500010284428282B
:107F5A0028442810045408384C5C7814787C542837
:107F6A003844447C44387C54447C14043844347C7B
:107F7A00107C007C0020403C7C106C7C40407C08DB
:107F8A007C7C047C7C447C7C14083844787C1468AF
:107F9A00485424047C047C407C3C403C7C207C6C1F
:107FAA00106C1C601C64544C7C4400081020447CF7
:107FBA00000804088080800408004D61646520621E
:107FCA00792044616E69656C2C204761627269652B
:107FDA006C2065742054686F6D617300537061631F
:107FEA006520496E7661646572004C65742773205A
:067FFA00504C415900004B
:020000040020DA
:08000000FFFFFFFFFFFFFFFF00
:020000040030CA
:0E000000000C191EFF8381FF0FC00FE00F40A0
:00000001FF
