:020000040000FA
:040000006AEF14F09F
:1028D40004EE00F014EE00F0EE6AE550E150FCE185
:1028E400E250FAE14B6A4A6A000EF86E000162EFA8
:1028F40016F00F0EC16E000EC26E000E926E000E28
:10290400936E000E946E000E956E000E966E000E81
:10291400806E000E816E000E826E000E836E000EBD
:10292400846E1200026E0250D8B49BEF14F09DEF37
:1029340014F0A1EF14F08A808A92A5EF14F08A9221
:102944008A82A5EF14F0000E956E8A9601C08CFF62
:102954008A8800D08A9800D08A908A921200D7EF91
:1029640014F00E50D8B4B9EF14F0BBEF14F0C7EF65
:1029740014F00FC003F00CC0F6FF0DC0F7FF080001
:10298400F550CCEC15F0D3EF14F00FC003F00CC0ED
:10299400F6FF0DC0F7FF0800F550F8EC16F0D3EF82
:1029A40014F00C4A0D2AD7EF14F00CC0F6FF0DC03A
:1029B400F7FF0800F5500009D8A4E3EF14F0E5EFA1
:1029C40014F0B3EF14F0E7EF14F01200056E000EEC
:1029D400046E800E0560F1EF14F0F3EF14F01FEFB6
:1029E40015F0070E0364F9EF14F0FBEF14F0FFEF9A
:1029F40014F01FEF15F01FEF15F005C04BF003C0E6
:102A04004AF03F0E056409EF15F00BEF15F011EFD6
:102A140015F0400E055E010E046E11EF15F08A9458
:102A240005504009016E045094EC14F00350B809A9
:102A3400016E045094EC14F08A841200066E000EA9
:102A4400836E8A9A210EE82EFED700F08A8A8A982D
:102A54008A908A928A9400D0C00E016E000E94EC83
:102A640014F0C00E016E010E94EC14F0400E016ED1
:102A7400000E94EC14F0400E016E010E94EC14F070
:102A8400B80E016E000E94EC14F0B80E016E010E37
:102A940094EC14F00604D8A452EF15F054EF15F09A
:102AA40060EF15F03F0E016E000E94EC14F03F0E33
:102AB400016E010E94EC14F06CEF15F03E0E016EF5
:102AC400000E94EC14F03E0E016E010E94EC14F022
:102AD4006CEF15F0000E70EC15F01200036E000E92
:102AE400056E070E056479EF15F07BEF15F07FEFA7
:102AF40015F0CBEF15F0CBEF15F08A94400E016E74
:102B0400000E94EC14F0400E016E010E94EC14F0DF
:102B14000550B809016E000E94EC14F00550B80984
:102B2400016E010E94EC14F08A84000E046E3F0EC4
:102B340004649FEF15F0A1EF15F0A5EF15F0C0EFB9
:102B440015F0C0EF15F00350010DF3500008016EAD
:102B5400000E94EC14F00350010DF3500008016EC4
:102B6400010E94EC14F0042A3F0E0464BCEF15F03B
:102B7400BEEF15F0A5EF15F0C0EF15F0052A070E0E
:102B84000564C7EF15F0C9EF15F07FEF15F0CBEF33
:102B940015F01200086E000E0B6E0A0E0818D8A469
:102BA400D6EF15F0D8EF15F0DFEF15F0000E4B6EF1
:102BB4004A2A61EF16F061EF16F03F0E4B64E5EF21
:102BC40015F0E7EF15F0EEEF15F0010E0B6E4B501C
:102BD400C00F096EF2EF15F04BC009F0F2EF15F0DB
:102BE4000850080DF3CF06F0F4CF07F0000E0A6E7C
:102BF400070E0A6400EF16F002EF16F006EF16F067
:102C04005FEF16F05FEF16F03F0E09640CEF16F05D
:102C14000EEF16F022EF16F0400E095E010E0B6E59
:102C24008A9409504009016E0B5094EC14F04A50F8
:102C3400B809016E0B5094EC14F08A8422EF16F05C
:102C44000350D8B428EF16F02AEF16F03EEF16F032
:102C54000A500624046E000E0720056E010E04249B
:102C6400F66E6B0E0520F76E0800F5CF01F00B50E1
:102C740094EC14F053EF16F00A500624046E000E80
:102C84000720056E010E0424F66E6B0E0520F76E08
:102C94000800F550FF0A016E0B5094EC14F053EF4A
:102CA40016F0092A0A2A070E0A645BEF16F05DEF94
:102CB40016F006EF16F05FEF16F0080E4B26120022
:102CC400000E846E000E476E000E466E000E496EB6
:102CD400000E486E7BEC14F0010E20EC15F0010E92
:102CE400036E0A0EE8EC14F0D30E0C6E7F0E0D6E1C
:102CF400010E0E6E010E0F6EB1EC14F0060E456E51
:102D0400130E446EAE0EE82EFED7442EFCD7452E8D
:102D1400FAD7030E036E1E0EE8EC14F0F60E0C6EDA
:102D24007F0E0D6E010E0E6E010E0F6EB1EC14F0DF
:102D3400050E036E0A0EE8EC14F0340E446EF20E27
:102D4400E82EFED7442EFCD7C40E0C6E7F0E0D6EFB
:102D5400010E0E6E010E0F6EB1EC14F0070E036E31
:102D64001E0EE8EC14F0EC0E0C6E7F0E0D6E010ED0
:102D74000E6E010E0F6EB1EC14F0070E456E170EB9
:102D8400446E6A0EE82EFED7442EFCD7452EFAD7A1
:102D940000D0000E20EC15F0010E20EC15F0040E0E
:102DA400036E140EE8EC14F0E10E0C6E7F0E0D6E43
:102DB400010E0E6E010E0F6EB1EC14F0050E456E91
:102DC4000F0E446EF10EE82EFED7442EFCD7452E8E
:102DD400FAD700F0000E20EC15F0010E20EC15F0EF
:102DE4009AEC17F0F4EF16F000EF00F0076E000E07
:102DF400096E0A0E0718D8A402EF17F004EF17F0B3
:102E04000BEF17F0000E4B6E4A2A99EF17F099EF6B
:102E140017F03F0E4B6411EF17F013EF17F01AEF92
:102E240017F0010E096E4B50C00F066E1EEF17F01F
:102E34004BC006F01EEF17F0200E075E000E086E62
:102E4400020E086428EF17F02AEF17F02EEF17F0A0
:102E540097EF17F097EF17F03F0E066434EF17F073
:102E640036EF17F04AEF17F0400E065E010E096EBA
:102E74008A9406504009016E095094EC14F04A50AB
:102E8400B809016E095094EC14F08A844AEF17F0E3
:102E94000350D8B450EF17F052EF17F06EEF17F05D
:102EA4000750030D010E046E7F0E056EF3500426C9
:102EB400F45005220850010DF3500426F450052265
:102EC40004C0F6FF05C0F7FF0800F5CF01F0095074
:102ED40094EC14F08BEF17F00750030D010E046E01
:102EE4007F0E056EF3500426F45005220850010DA0
:102EF400F3500426F450052204C0F6FF05C0F7FF82
:102F04000800F550FF0A016E095094EC14F08BEFA1
:102F140017F0062A082A020E086493EF17F095EFBB
:102F240017F02EEF17F097EF17F0050E4B2612004F
:102F3400030E3D6EE80E3C6E000E396E050E386EC3
:102F4400000E416EFC0E406E000E3B6E7B0E3A6E20
:102F5400000E436E850E426E000E1A6E000E196E40
:102F6400000E2D6E000E2C6E000E1C6E000E1B6EDD
:102F7400000E1E6E000E1D6E000E206E000E1F6EE3
:102F8400000E226E000E216E000E316E000E306EA9
:102F9400010E3F6EA20E3E6E000E2B6E000E2A6EC8
:102FA400000E246E000E236E000E266E000E256E9B
:102FB400000E106E000E0F6E000E126E000E116EDB
:102FC400000E356E000E346E000E336E000E326E3F
:102FD400000E146E000E136E000E166E000E156EAB
:102FE400000E286E000E276E000E3824D96E040ED3
:102FF4003920DA6E3C0EDF6E010E3824036E000EAB
:103004003920046E000E0324D96E040E0420DA6EF7
:10301400B40EDF6EFF0E056EFF0E066E38C007F0AD
:1030240039C008F00550072606500822000E072470
:10303400E16E040E0820E26EDFCFE7FF020E3824B3
:10304400036E000E3920046E000E0324D96E040EA4
:103054000420DA6ECA0EDF6EFE0E056EFF0E066EDB
:1030640038C007F039C008F005500726065008227A
:10307400000E0724E16E040E0820E26EDFCFE7FFA6
:10308400030E3824036E000E3920046E000E032450
:10309400D96E040E0420DA6E190EDF6EFD0E056E75
:1030A400FF0E066E38C007F039C008F00550072639
:1030B40006500822000E0724E16E040E0820E26E7A
:1030C400DFCFE7FF000E4024D96E040E4120DA6EF4
:1030D4003C0EDF6E010E4024036E000E4120046E90
:1030E400000E0324D96E040E0420DA6EB40EDF6ED3
:1030F400FF0E056EFF0E066E40C007F041C008F0DB
:103104000550072606500822000E0724E16E040E1F
:103114000820E26EDFCFE7FF020E4024036E000EAC
:103124004120046E000E0324D96E040E0420DA6ECE
:10313400CA0EDF6EFE0E056EFF0E066E40C007F06F
:1031440041C008F00550072606500822000E072447
:10315400E16E040E0820E26EDFCFE7FF030E402489
:10316400036E000E4120046E000E0324D96E040E7B
:103174000420DA6E190EDF6EFD0E056EFF0E066E6C
:1031840040C007F041C008F0055007260650082249
:10319400000E0724E16E040E0820E26EDFCFE7FF85
:1031A400000E3A24D96E040E3B20DA6E3C0EDF6E1C
:1031B400010E3A24036E000E3B20046E000E03241D
:1031C400D96E040E0420DA6EB40EDF6EFF0E056EA7
:1031D400FF0E066E3AC007F03BC008F00550072604
:1031E40006500822000E0724E16E040E0820E26E49
:1031F400DFCFE7FF020E3A24036E000E3B20046E7D
:10320400000E0324D96E040E0420DA6ECA0EDF6E9B
:10321400FE0E056EFF0E066E3AC007F03BC008F0C6
:103224000550072606500822000E0724E16E040EFE
:103234000820E26EDFCFE7FF030E3A24036E000E90
:103244003B20046E000E0324D96E040E0420DA6EB3
:10325400190EDF6EFD0E056EFF0E066E3AC007F006
:103264003BC008F00550072606500822000E07242C
:10327400E16E040E0820E26EDFCFE7FF000E422469
:10328400D96E040E4320DA6E3C0EDF6E010E42242A
:10329400036E000E4320046E000E0324D96E040E48
:1032A4000420DA6EB40EDF6EFF0E056EFF0E066E9E
:1032B40042C007F043C008F0055007260650082214
:1032C400000E0724E16E040E0820E26EDFCFE7FF54
:1032D400020E4224036E000E4320046E000E0324EB
:1032E400D96E040E0420DA6ECA0EDF6EFE0E056E71
:1032F400FF0E066E42C007F043C008F005500726D3
:1033040006500822000E0724E16E040E0820E26E27
:10331400DFCFE7FF030E4224036E000E4320046E4A
:10332400000E0324D96E040E0420DA6E190EDF6E2B
:10333400FD0E056EFF0E066E42C007F043C008F096
:103344000550072606500822000E0724E16E040EDD
:103354000820E26EDFCFE7FF000E3C24D96E040E96
:103364003D20DA6EFF0EDF6E010E3C24036E000E6C
:103374003D20046E000E0324D96E040E0420DA6E80
:10338400FC0EDF6EFF0E056EFF0E066E3CC007F0EE
:103394003DC008F00550072606500822000E0724F9
:1033A400E16E040E0820E26EDFCFE7FF020E3C243C
:1033B400036E000E3D20046E000E0324D96E040E2D
:1033C4000420DA6EF00EDF6EFE0E056EFF0E066E42
:1033D4003CC007F03DC008F00550072606500822FF
:1033E400000E0724E16E040E0820E26EDFCFE7FF33
:1033F400FCEF19F0000E186E000E176E000E2E6E04
:10340400070E2E6408EF1AF00AEF1AF00EEF1AF006
:1034140063EF1AF063EF1AF0000E2F6E010E2F64A3
:1034240016EF1AF018EF1AF01CEF1AF05AEF1AF010
:103434005AEF1AF08A94400E016E2F5094EC14F057
:103444002E50B809016E2F5094EC14F08A84000EAB
:10345400296E3F0E296431EF1AF033EF1AF037EF7B
:103464001AF04FEF1AF04FEF1AF0000E1724D96E2E
:10347400040E1820DA6EDF50016E2F5094EC14F015
:10348400174A182A292A3F0E29644BEF1AF04DEFE8
:103494001AF037EF1AF04FEF1AF02F2A010E2F64AB
:1034A40056EF1AF058EF1AF01CEF1AF05AEF1AF010
:1034B4002E2A070E2E6461EF1AF063EF1AF00EEF56
:1034C4001AF08A908A92BD0E42184310D8A46DEF68
:1034D4001AF06FEF1AF075EF1AF0000E206E010E5D
:1034E4001F6E75EF1AF0840E42184310D8A47DEFB6
:1034F4001AF07FEF1AF085EF1AF0000E206E000E1E
:103504001F6E85EF1AF01F502010D8A48CEF1AF00C
:103514008EEF1AF06EEF1BF0030E4224036E000EC2
:103524004320046E000E0324D96E040E0420DA6EC8
:10353400040E4224056E000E4320066E000E052480
:10354400E16E040E0620E26EDFCFE7FF020E422496
:10355400036E000E4320046E000E0324D96E040E85
:103564000420DA6E030E4224056E000E4320066E1C
:10357400000E0524E16E040E0620E26EDFCFE7FFA5
:10358400010E4224036E000E4320046E000E032439
:10359400D96E040E0420DA6E020E4224056E000E6B
:1035A4004320066E000E0524E16E040E0620E26E32
:1035B400DFCFE7FF000E4224D96E040E4320DA6EFB
:1035C400010E4224036E000E4320046E000E0324F9
:1035D400E16E040E0420E26EDFCFE7FFFF0E036E00
:1035E400FF0E046E42C005F043C006F003500526EA
:1035F40004500622000E0524D96E040E0620DA6E4D
:10360400000E4224E16E040E4320E26EDFCFE7FF9A
:10361400FE0E036EFF0E046E42C005F043C006F0BA
:103624000350052604500622000E0524D96E040E0C
:103634000620DA6EFF0E076EFF0E086E42C009F018
:1036440043C00AF00750092608500A22000E092434
:10365400E16E040E0A20E26EDFCFE7FFFD0E036E7B
:10366400FF0E046E42C005F043C006F00350052669
:1036740004500622000E0524D96E040E0620DA6ECC
:10368400FE0E076EFF0E086E42C009F043C00AF03A
:103694000750092608500A22000E0924E16E040E80
:1036A4000A20E26EDFCFE7FFFD0E036EFF0E046E0D
:1036B40042C005F043C006F003500526045006221C
:1036C400000E0524D96E040E0620DA6E000EDF6E9D
:1036D400424A432A55EF1CF0FD0E036EFF0E046EA2
:1036E40042C005F043C006F00350052604500622EC
:1036F400000E0524D96E040E0620DA6EFC0E076E49
:10370400FF0E086E42C009F043C00AF007500926B4
:1037140008500A22000E0924E16E040E0A20E26E0B
:10372400DFCFE7FFFE0E036EFF0E046E42C005F00E
:1037340043C006F00350052604500622000E05245B
:10374400D96E040E0620DA6EFD0E076EFF0E086EAB
:1037540042C009F043C00AF00750092608500A2263
:10376400000E0924E16E040E0A20E26EDFCFE7FFAB
:10377400FF0E036EFF0E046E42C005F043C006F058
:103784000350052604500622000E0524D96E040EAB
:103794000620DA6EFE0E076EFF0E086E42C009F0B8
:1037A40043C00AF00750092608500A22000E0924D3
:1037B400E16E040E0A20E26EDFCFE7FF000E422422
:1037C400D96E040E4320DA6EFF0E036EFF0E046EF4
:1037D40042C005F043C006F00350052604500622FB
:1037E400000E0524E16E040E0620E26EDFCFE7FF33
:1037F400010E4224036E000E4320046E000E0324C7
:10380400D96E040E0420DA6E000E4224E16E040E1A
:103814004320E26EDFCFE7FF020E4224036E000E68
:103824004320046E000E0324D96E040E0420DA6EC5
:10383400010E4224056E000E4320066E000E052480
:10384400E16E040E0620E26EDFCFE7FF030E422492
:10385400036E000E4320046E000E0324D96E040E82
:103864000420DA6E020E4224056E000E4320066E1A
:10387400000E0524E16E040E0620E26EDFCFE7FFA2
:10388400030E4224036E000E4320046E000E032434
:10389400D96E040E0420DA6E000EDF6E4206D8A044
:1038A400430655EF1CF0440E3A183B10D8A45DEFC4
:1038B4001CF05FEF1CF065EF1CF0000E1E6E010E95
:1038C4001D6E65EF1CF07C0E3A183B10D8A46DEF0A
:1038D4001CF06FEF1CF075EF1CF0000E1E6E000E56
:1038E4001D6E75EF1CF01D041E10D8A47CEF1CF097
:1038F4007EEF1CF05EEF1DF0030E3A24036E000E03
:103904003B20046E000E0324D96E040E0420DA6EEC
:10391400040E3A24056E000E3B20066E000E0524AC
:10392400E16E040E0620E26EDFCFE7FF020E3A24BA
:10393400036E000E3B20046E000E0324D96E040EA9
:103944000420DA6E030E3A24056E000E3B20066E48
:10395400000E0524E16E040E0620E26EDFCFE7FFC1
:10396400010E3A24036E000E3B20046E000E032465
:10397400D96E040E0420DA6E020E3A24056E000E8F
:103984003B20066E000E0524E16E040E0620E26E56
:10399400DFCFE7FF000E3A24D96E040E3B20DA6E27
:1039A400010E3A24036E000E3B20046E000E032425
:1039B400E16E040E0420E26EDFCFE7FFFF0E036E1C
:1039C400FF0E046E3AC005F03BC006F00350052616
:1039D40004500622000E0524D96E040E0620DA6E69
:1039E400000E3A24E16E040E3B20E26EDFCFE7FFC7
:1039F400FE0E036EFF0E046E3AC005F03BC006F0E7
:103A04000350052604500622000E0524D96E040E28
:103A14000620DA6EFF0E076EFF0E086E3AC009F03C
:103A24003BC00AF00750092608500A22000E092458
:103A3400E16E040E0A20E26EDFCFE7FFFD0E036E97
:103A4400FF0E046E3AC005F03BC006F00350052695
:103A540004500622000E0524D96E040E0620DA6EE8
:103A6400FE0E076EFF0E086E3AC009F03BC00AF066
:103A74000750092608500A22000E0924E16E040E9C
:103A84000A20E26EDFCFE7FFFD0E036EFF0E046E29
:103A94003AC005F03BC006F0035005260450062248
:103AA400000E0524D96E040E0620DA6E000EDF6EB9
:103AB4003A4A3B2A45EF1EF0FD0E036EFF0E046EDC
:103AC4003AC005F03BC006F0035005260450062218
:103AD400000E0524D96E040E0620DA6EFC0E076E65
:103AE400FF0E086E3AC009F03BC00AF007500926E1
:103AF40008500A22000E0924E16E040E0A20E26E28
:103B0400DFCFE7FFFE0E036EFF0E046E3AC005F032
:103B14003BC006F00350052604500622000E05247F
:103B2400D96E040E0620DA6EFD0E076EFF0E086EC7
:103B34003AC009F03BC00AF00750092608500A228F
:103B4400000E0924E16E040E0A20E26EDFCFE7FFC7
:103B5400FF0E036EFF0E046E3AC005F03BC006F084
:103B64000350052604500622000E0524D96E040EC7
:103B74000620DA6EFE0E076EFF0E086E3AC009F0DC
:103B84003BC00AF00750092608500A22000E0924F7
:103B9400E16E040E0A20E26EDFCFE7FF000E3A2446
:103BA400D96E040E3B20DA6EFF0E036EFF0E046E18
:103BB4003AC005F03BC006F0035005260450062227
:103BC400000E0524E16E040E0620E26EDFCFE7FF4F
:103BD400010E3A24036E000E3B20046E000E0324F3
:103BE400D96E040E0420DA6E000E3A24E16E040E3F
:103BF4003B20E26EDFCFE7FF020E3A24036E000E95
:103C04003B20046E000E0324D96E040E0420DA6EE9
:103C1400010E3A24056E000E3B20066E000E0524AC
:103C2400E16E040E0620E26EDFCFE7FF030E3A24B6
:103C3400036E000E3B20046E000E0324D96E040EA6
:103C44000420DA6E020E3A24056E000E3B20066E46
:103C5400000E0524E16E040E0620E26EDFCFE7FFBE
:103C6400030E3A24036E000E3B20046E000E032460
:103C7400D96E040E0420DA6E000EDF6E3A06D8A068
:103C84003B0645EF1EF0C00E40184110D8A44DEF7E
:103C94001EF04FEF1EF055EF1EF0000E1C6E010ECD
:103CA4001B6E55EF1EF0FC0E40184110D8A45DEFBA
:103CB4001EF05FEF1EF065EF1EF0000E1C6E000E8E
:103CC4001B6E65EF1EF01B041C10D8A46CEF1EF0D5
:103CD4006EEF1EF04EEF1FF0030E4024036E000E35
:103CE4004120046E000E0324D96E040E0420DA6E03
:103CF400040E4024056E000E4120066E000E0524BD
:103D0400E16E040E0620E26EDFCFE7FF020E4024D0
:103D1400036E000E4120046E000E0324D96E040EBF
:103D24000420DA6E030E4024056E000E4120066E58
:103D3400000E0524E16E040E0620E26EDFCFE7FFDD
:103D4400010E4024036E000E4120046E000E032475
:103D5400D96E040E0420DA6E020E4024056E000EA5
:103D64004120066E000E0524E16E040E0620E26E6C
:103D7400DFCFE7FF000E4024D96E040E4120DA6E37
:103D8400010E4024036E000E4120046E000E032435
:103D9400E16E040E0420E26EDFCFE7FFFF0E036E38
:103DA400FF0E046E40C005F041C006F00350052626
:103DB40004500622000E0524D96E040E0620DA6E85
:103DC400000E4024E16E040E4120E26EDFCFE7FFD7
:103DD400FE0E036EFF0E046E40C005F041C006F0F7
:103DE4000350052604500622000E0524D96E040E45
:103DF4000620DA6EFF0E076EFF0E086E40C009F053
:103E040041C00AF00750092608500A22000E09246E
:103E1400E16E040E0A20E26EDFCFE7FFFD0E036EB3
:103E2400FF0E046E40C005F041C006F003500526A5
:103E340004500622000E0524D96E040E0620DA6E04
:103E4400FE0E076EFF0E086E40C009F041C00AF076
:103E54000750092608500A22000E0924E16E040EB8
:103E64000A20E26EDFCFE7FFFD0E036EFF0E046E45
:103E740040C005F041C006F0035005260450062258
:103E8400000E0524D96E040E0620DA6E000EDF6ED5
:103E9400404A412A35EF20F0FD0E036EFF0E046EFA
:103EA40040C005F041C006F0035005260450062228
:103EB400000E0524D96E040E0620DA6EFC0E076E81
:103EC400FF0E086E40C009F041C00AF007500926F1
:103ED40008500A22000E0924E16E040E0A20E26E44
:103EE400DFCFE7FFFE0E036EFF0E046E40C005F049
:103EF40041C006F00350052604500622000E052496
:103F0400D96E040E0620DA6EFD0E076EFF0E086EE3
:103F140040C009F041C00AF00750092608500A229F
:103F2400000E0924E16E040E0A20E26EDFCFE7FFE3
:103F3400FF0E036EFF0E046E40C005F041C006F094
:103F44000350052604500622000E0524D96E040EE3
:103F54000620DA6EFE0E076EFF0E086E40C009F0F2
:103F640041C00AF00750092608500A22000E09240D
:103F7400E16E040E0A20E26EDFCFE7FF000E40245C
:103F8400D96E040E4120DA6EFF0E036EFF0E046E2E
:103F940040C005F041C006F0035005260450062237
:103FA400000E0524E16E040E0620E26EDFCFE7FF6B
:103FB400010E4024036E000E4120046E000E032403
:103FC400D96E040E0420DA6E000E4024E16E040E55
:103FD4004120E26EDFCFE7FF020E4024036E000EA5
:103FE4004120046E000E0324D96E040E0420DA6E00
:103FF400010E4024056E000E4120066E000E0524BD
:10400400E16E040E0620E26EDFCFE7FF030E4024CC
:10401400036E000E4120046E000E0324D96E040EBC
:104024000420DA6E020E4024056E000E4120066E56
:10403400000E0524E16E040E0620E26EDFCFE7FFDA
:10404400030E4024036E000E4120046E000E032470
:10405400D96E040E0420DA6E000EDF6E4006D8A07E
:10406400410635EF20F0400E38183910D8A43DEF42
:1040740020F03FEF20F045EF20F0000E1A6E010E05
:10408400196E45EF20F0040E38183910D8A44DEFFE
:1040940020F04FEF20F055EF20F0000E1A6E000EC6
:1040A400196E55EF20F019501A10D8A45CEF20F0C7
:1040B4005EEF20F03EEF21F0030E3824036E000E75
:1040C4003920046E000E0324D96E040E0420DA6E27
:1040D400040E3824056E000E3920066E000E0524E9
:1040E400E16E040E0620E26EDFCFE7FF020E3824F5
:1040F400036E000E3920046E000E0324D96E040EE4
:104104000420DA6E030E3824056E000E3920066E84
:10411400000E0524E16E040E0620E26EDFCFE7FFF9
:10412400010E3824036E000E3920046E000E0324A1
:10413400D96E040E0420DA6E020E3824056E000EC9
:104144003920066E000E0524E16E040E0620E26E90
:10415400DFCFE7FF000E3824D96E040E3920DA6E63
:10416400010E3824036E000E3920046E000E032461
:10417400E16E040E0420E26EDFCFE7FFFF0E036E54
:10418400FF0E046E38C005F039C006F00350052652
:1041940004500622000E0524D96E040E0620DA6EA1
:1041A400000E3824E16E040E3920E26EDFCFE7FF03
:1041B400FE0E036EFF0E046E38C005F039C006F023
:1041C4000350052604500622000E0524D96E040E61
:1041D4000620DA6EFF0E076EFF0E086E38C009F077
:1041E40039C00AF00750092608500A22000E092493
:1041F400E16E040E0A20E26EDFCFE7FFFD0E036ED0
:10420400FF0E046E38C005F039C006F003500526D1
:1042140004500622000E0524D96E040E0620DA6E20
:10422400FE0E076EFF0E086E38C009F039C00AF0A2
:104234000750092608500A22000E0924E16E040ED4
:104244000A20E26EDFCFE7FFFD0E036EFF0E046E61
:1042540038C005F039C006F0035005260450062284
:10426400000E0524D96E040E0620DA6E000EDF6EF1
:10427400384A392A25EF22F0FD0E036EFF0E046E34
:1042840038C005F039C006F0035005260450062254
:10429400000E0524D96E040E0620DA6EFC0E076E9D
:1042A400FF0E086E38C009F039C00AF0075009261D
:1042B40008500A22000E0924E16E040E0A20E26E60
:1042C400DFCFE7FFFE0E036EFF0E046E38C005F06D
:1042D40039C006F00350052604500622000E0524BA
:1042E400D96E040E0620DA6EFD0E076EFF0E086E00
:1042F40038C009F039C00AF00750092608500A22CC
:10430400000E0924E16E040E0A20E26EDFCFE7FFFF
:10431400FF0E036EFF0E046E38C005F039C006F0C0
:104324000350052604500622000E0524D96E040EFF
:104334000620DA6EFE0E076EFF0E086E38C009F016
:1043440039C00AF00750092608500A22000E092431
:10435400E16E040E0A20E26EDFCFE7FF000E382480
:10436400D96E040E3920DA6EFF0E036EFF0E046E52
:1043740038C005F039C006F0035005260450062263
:10438400000E0524E16E040E0620E26EDFCFE7FF87
:10439400010E3824036E000E3920046E000E03242F
:1043A400D96E040E0420DA6E000E3824E16E040E79
:1043B4003920E26EDFCFE7FF020E3824036E000ED1
:1043C4003920046E000E0324D96E040E0420DA6E24
:1043D400010E3824056E000E3920066E000E0524E9
:1043E400E16E040E0620E26EDFCFE7FF030E3824F1
:1043F400036E000E3920046E000E0324D96E040EE1
:104404000420DA6E020E3824056E000E3920066E82
:10441400000E0524E16E040E0620E26EDFCFE7FFF6
:10442400030E3824036E000E3920046E000E03249C
:10443400D96E040E0420DA6E000EDF6E3806D8A0A2
:10444400390625EF22F0000E3824D96E040E3920E7
:10445400DA6EDF50D8A431EF22F033EF22F0E7EF29
:1044640026F0030E3824036E000E3920046E000E6D
:104474000324D96E040E0420DA6EDF50D8A445EF6D
:1044840022F047EF22F0E7EF26F0020E3824036E05
:10449400000E3920046E000E0324D96E040E04208D
:1044A400DA6EDF50D8A459EF22F05BEF22F0E7EF89
:1044B40026F0010E3824036E000E3920046E000E1F
:1044C4000324D96E040E0420DA6EDF50D8A46DEFF5
:1044D40022F06FEF22F0E7EF26F0FF0E036EFF0EDF
:1044E400046E38C005F039C006F0035005260450A8
:1044F4000622000E0524D96E040E0620DA6EDF5063
:10450400D8A487EF22F089EF22F0E7EF26F0FE0E21
:10451400036EFF0E046E38C005F039C006F0035078
:10452400052604500622000E0524D96E040E06202A
:10453400DA6EDF50D8A4A1EF22F0A3EF22F0E7EF68
:1045440026F0FD0E036EFF0E046E38C005F039C070
:1045540006F00350052604500622000E0524D96EE9
:10456400040E0620DA6EDF50D8A4BBEF22F0BDEFB4
:1045740022F0E7EF26F0000E4024D96E040E41200D
:10458400DA6EDF50D8A4C9EF22F0CBEF22F0E7EFC8
:1045940026F0030E4024036E000E4120046E000E2C
:1045A4000324D96E040E0420DA6EDF50D8A4DDEFA4
:1045B40022F0DFEF22F0E7EF26F0020E4024036E34
:1045C400000E4120046E000E0324D96E040E042054
:1045D400DA6EDF50D8A4F1EF22F0F3EF22F0E7EF28
:1045E40026F0010E4024036E000E4120046E000EDE
:1045F4000324D96E040E0420DA6EDF50D8A405EF2C
:1046040023F007EF23F0E7EF26F0FF0E036EFF0E13
:10461400046E40C005F041C006F003500526045066
:104624000622000E0524D96E040E0620DA6EDF5031
:10463400D8A41FEF23F021EF23F0E7EF26F0FE0EBE
:10464400036EFF0E046E40C005F041C006F0035037
:10465400052604500622000E0524D96E040E0620F9
:10466400DA6EDF50D8A439EF23F03BEF23F0E7EF05
:1046740026F0FD0E036EFF0E046E40C005F041C02F
:1046840006F00350052604500622000E0524D96EB8
:10469400040E0620DA6EDF50D8A453EF23F055EF52
:1046A40023F0E7EF26F0000E3A24D96E040E3B20E7
:1046B400DA6EDF50D8A461EF23F063EF23F0E7EF65
:1046C40026F0030E3A24036E000E3B20046E000E07
:1046D4000324D96E040E0420DA6EDF50D8A475EFDB
:1046E40023F077EF23F0E7EF26F0020E3A24036E6F
:1046F400000E3B20046E000E0324D96E040E042029
:10470400DA6EDF50D8A489EF23F08BEF23F0E7EFC4
:1047140026F0010E3A24036E000E3B20046E000EB8
:104724000324D96E040E0420DA6EDF50D8A49DEF62
:1047340023F09FEF23F0E7EF26F0FF0E036EFF0E4A
:10474400046E3AC005F03BC006F003500526045041
:104754000622000E0524D96E040E0620DA6EDF5000
:10476400D8A4B7EF23F0B9EF23F0E7EF26F0FE0E5D
:10477400036EFF0E046E3AC005F03BC006F0035012
:10478400052604500622000E0524D96E040E0620C8
:10479400DA6EDF50D8A4D1EF23F0D3EF23F0E7EFA4
:1047A40026F0FD0E036EFF0E046E3AC005F03BC00A
:1047B40006F00350052604500622000E0524D96E87
:1047C400040E0620DA6EDF50D8A4EBEF23F0EDEFF1
:1047D40023F0E7EF26F0000E4224D96E040E4320A6
:1047E400DA6EDF50D8A4F9EF23F0FBEF23F0E7EF04
:1047F40026F0030E4224036E000E4320046E000EC6
:104804000324D96E040E0420DA6EDF50D8A40DEF11
:1048140024F00FEF24F0E7EF26F0020E4224036E9B
:10482400000E4320046E000E0324D96E040E0420EF
:10483400DA6EDF50D8A421EF24F023EF24F0E7EF61
:1048440026F0010E4224036E000E4320046E000E77
:104854000324D96E040E0420DA6EDF50D8A435EF99
:1048640024F037EF24F0E7EF26F0FF0E036EFF0E7F
:10487400046E42C005F043C006F003500526045000
:104884000622000E0524D96E040E0620DA6EDF50CF
:10489400D8A44FEF24F051EF24F0E7EF26F0FE0EFA
:1048A400036EFF0E046E42C005F043C006F00350D1
:1048B400052604500622000E0524D96E040E062097
:1048C400DA6EDF50D8A469EF24F06BEF24F0E7EF41
:1048D40026F0FD0E036EFF0E046E42C005F043C0C9
:1048E40006F00350052604500622000E0524D96E56
:1048F400040E0620DA6EDF50D8A483EF24F085EF8F
:1049040024F0E7EF26F0000E316E000E306E31BE5B
:1049140093EF24F0040E315CD8A093EF24F095EFCC
:1049240024F099EF24F0B1EF24F0B1EF24F0000E5D
:104934003024D96E040E3120DA6E000EDF6E304A58
:10494400312A31BEADEF24F0040E315CD8A0ADEFB6
:1049540024F0AFEF24F099EF24F0B1EF24F00E0E21
:104964003E24036E000E3F20046E000E0324D96E15
:10497400040E0420DA6E1F0EDF6E070E3E24056E51
:10498400000E3F20066E000E0524E16E040E062084
:10499400E26EDFCFE7FF0D0E3E24036E000E3F20D4
:1049A400046E000E0324D96E040E0420DA6E200E69
:1049B400DF6E080E3E24056E000E3F20066E000ECC
:1049C4000524E16E040E0620E26EDFCFE7FF0C0E35
:1049D4003E24036E000E3F20046E000E0324D96EA5
:1049E400040E0420DA6E400EDF6E090E3E24056EBE
:1049F400000E3F20066E000E0524E16E040E062014
:104A0400E26EDFCFE7FF0B0E3E24036E000E3F2065
:104A1400046E000E0324D96E040E0420DA6E800E98
:104A2400DF6E0A0E3E24056E000E3F20066E000E59
:104A34000524E16E040E0620E26EDFCFE7FF110EBF
:104A44003E24036E000E3F20046E000E0324D96E34
:104A5400040E0420DA6EFF0EDF6E100E3E24056E87
:104A6400000E3F20066E000E0524E16E040E0620A3
:104A7400E26EDFCFE7FF130E3E24036E000E3F20ED
:104A8400046E000E0324D96E040E0420DA6EFF0EA9
:104A9400DF6E170E3E24036E000E3F20046E000EE0
:104AA4000324D96E040E0420DA6E810EDF6E160E16
:104AB4003E24056E000E3F20066E000E0524E16EB6
:104AC400040E0620E26EDFCFE7FF150E3E24076ECC
:104AD400000E3F20086E000E0724D96E040E082035
:104AE400DA6EE7CFDFFF140E3E24096E000E3F207E
:104AF4000A6E000E0924E16E040E0A20E26EDFCF76
:104B0400E7FF1F0E3E24036E000E3F20046E000ECE
:104B14000324D96E040E0420DA6E010EDF6E1E0E1D
:104B24003E24056E000E3F20066E000E0524E16E45
:104B3400040E0620E26EDFCFE7FF1D0E3E24076E53
:104B4400000E3F20086E000E0724D96E040E0820C4
:104B5400DA6EE7CFDFFF1B0E3E24096E000E3F2006
:104B64000A6E000E0924E16E040E0A20E26EDFCF05
:104B7400E7FF1A0E3E240B6E000E3F200C6E000E53
:104B84000B24D96E040E0C20DA6EE7CFDFFF190E6A
:104B94003E240D6E000E3F200E6E000E0D24E16EBD
:104BA400040E0E20E26EDFCFE7FF1C0E3E24036EE0
:104BB400000E3F20046E000E0324D96E040E042060
:104BC400DA6EFF0EDF6E040E3E243E6E000E3F20B2
:104BD4003F6E230E3E24036E000E3F20046E000E33
:104BE4000324D96E040E0420DA6EFF0EDF6E1E0E4F
:104BF4003E24056E000E3F20066E000E0524E16E75
:104C0400040E0620E26EDFCFE7FF220E3E24036E81
:104C1400000E3F20046E000E0324D96E040E0420FF
:104C2400DA6E810EDF6E210E3E24056E000E3F20EB
:104C3400066E000E0524E16E040E0620E26EDFCF40
:104C4400E7FF200E3E24076E000E3F20086E000E84
:104C54000724D96E040E0820DA6EE7CFDFFF1F0E9B
:104C64003E24096E000E3F200A6E000E0924E16EF8
:104C7400040E0A20E26EDFCFE7FF020E3E243E6EF2
:104C8400000E3F203F6E250E3E24036E000E3F2093
:104C9400046E000E0324D96E040E0420DA6EFF0E97
:104CA400DF6E240E3E24056E000E3F20066E000EBD
:104CB4000524E16E040E0620E26EDFCFE7FF270E27
:104CC4003E24036E000E3F20046E000E0324D96EB2
:104CD400040E0420DA6EFF0EDF6E280E3E24036EEF
:104CE400000E3F20046E000E0324D96E040E04202F
:104CF400DA6E110EDF6E290E3E24036E000E3F2085
:104D0400046E000E0324D96E040E0420DA6E310EF4
:104D1400DF6E2A0E3E24036E000E3F20046E000E4A
:104D24000324D96E040E0420DA6E4A0EDF6E2B0EB5
:104D34003E24036E000E3F20046E000E0324D96E41
:104D4400040E0420DA6E840EDF6E2D0E3E24036EF4
:104D5400000E3F20046E000E0324D96E040E0420BE
:104D6400DA6EFF0EDF6E300E3E24036E000E3F201F
:104D7400046E000E0324D96E040E0420DA6E910E24
:104D8400DF6E2F0E3E24056E000E3F20066E000ED1
:104D94000524E16E040E0620E26EDFCFE7FF2E0E3F
:104DA4003E24076E000E3F20086E000E0724D96EC5
:104DB400040E0820DA6EE7CFDFFFE7EF26F0E7EF17
:104DC40026F0E7EF26F0E7EF26F04B0E2A182B101B
:104DD400D8A4EFEF26F0F1EF26F0FFEF26F0000E57
:104DE400266E010E256E000E2B6E000E2A6E42C03A
:104DF40032F043C033F0FFEF26F025042610D8A488
:104E040006EF27F008EF27F017EF28F0000E4224F2
:104E1400D96E040E4320DA6EDF50D8A414EF27F0C5
:104E240016EF27F09EEF27F0030E4224036E000EC8
:104E34004320046E000E0324D96E040E0420DA6E9F
:104E4400DF50D8A428EF27F02AEF27F09EEF27F0B1
:104E5400020E4224036E000E4320046E000E03244F
:104E6400D96E040E0420DA6EDF50D8A43CEF27F08C
:104E74003EEF27F09EEF27F0000E4224D96E040E79
:104E84004320DA6EDF50D8A44AEF27F04CEF27F026
:104E94009EEF27F0FF0E036EFF0E046E42C005F076
:104EA40043C006F00350052604500622000E0524D4
:104EB400D96E040E0620DA6EDF50D8A464EF27F012
:104EC40066EF27F09EEF27F0FE0E036EFF0E046ED2
:104ED40042C005F043C006F00350052604500622E4
:104EE400000E0524D96E040E0620DA6EDF50D8A415
:104EF4007EEF27F080EF27F09EEF27F0FD0E036E84
:104F0400FF0E046E42C005F043C006F003500526B0
:104F140004500622000E0524D96E040E0620DA6E13
:104F2400DF50D8A498EF27F09AEF27F09EEF27F0F0
:104F3400E7EF27F0E7EF27F0800E3224036E000E30
:104F44003320046E000E0324D96E040E0420DA6E9E
:104F5400FF0EDF6E810E3224036E000E3320046ECA
:104F6400000E0324D96E040E0420DA6EFF0EDF6EE9
:104F74002C042D10D8A4C1EF27F0C3EF27F0DBEFEA
:104F840027F0000E3224D96E040E3320DA6E000EA0
:104F9400DF6E010E3224036E000E3320046E000E09
:104FA4000324D96E040E0420DA6E000EDF6EDBEFEC
:104FB40027F0000E2D6E010E2C6E800E3224346EFE
:104FC400000E3320356EE7EF27F033BEF3EF27F002
:104FD400810E325C030E3358D8A0F3EF27F0F5EFBF
:104FE40027F017EF28F0000E3224D96E040E332078
:104FF400DA6E000EDF6E010E3224036E000E3320D3
:10500400046E000E0324D96E040E0420DA6E000E22
:10501400DF6E000E266E000E256E000E2D6E000E45
:105024002C6E17EF28F017EF28F0640E2A182B10B7
:10503400D8A41FEF28F021EF28F02FEF28F0000E5E
:10504400246E010E236E000E2B6E000E2A6E40C0DD
:1050540034F041C035F02FEF28F02A4A2B2A2304DC
:105064002410D8A438EF28F03AEF28F04FEF29F0B5
:10507400000E4024D96E040E4120DA6EDF50D8A40D
:1050840046EF28F048EF28F0D6EF28F0030E40242E
:10509400036E000E4120046E000E0324D96E040E2C
:1050A4000420DA6EDF50D8A45AEF28F05CEF28F021
:1050B400D6EF28F0020E4024036E000E4120046E49
:1050C400000E0324D96E040E0420DA6EDF50D8A437
:1050D4006EEF28F070EF28F0D6EF28F0010E402490
:1050E400036E000E4120046E000E0324D96E040EDC
:1050F4000420DA6EDF50D8A482EF28F084EF28F081
:10510400D6EF28F0FF0E036EFF0E046E40C005F0CC
:1051140041C006F00350052604500622000E052463
:10512400D96E040E0620DA6EDF50D8A49CEF28F066
:105134009EEF28F0D6EF28F0FE0E036EFF0E046EED
:1051440040C005F041C006F0035005260450062275
:10515400000E0524D96E040E0620DA6EDF50D8A4A2
:10516400B6EF28F0B8EF28F0D6EF28F0FD0E036E66
:10517400FF0E046E40C005F041C006F00350052642
:1051840004500622000E0524D96E040E0620DA6EA1
:10519400DF50D8A4D0EF28F0D2EF28F0D6EF28F0D3
:1051A4001FEF29F01FEF29F0800E3424036E000E48
:1051B4003520046E000E0324D96E040E0420DA6E2A
:1051C400FF0EDF6E810E3424036E000E3520046E54
:1051D400000E0324D96E040E0420DA6EFF0EDF6E77
:1051E4002C042D10D8A4F9EF28F0FBEF28F013EFCE
:1051F40029F0000E3424D96E040E3520DA6E000E28
:10520400DF6E010E3424036E000E3520046E000E92
:105214000324D96E040E0420DA6E000EDF6E13EF41
:1052240029F0000E2D6E010E2C6E800E3424346E87
:10523400000E3520356E1FEF29F035BE2BEF29F017
:10524400810E345C030E3558D8A02BEF29F02DEFD6
:1052540029F04FEF29F0000E3424D96E040E3520C6
:10526400DA6E000EDF6E010E3424036E000E35205C
:10527400046E000E0324D96E040E0420DA6E000EB0
:10528400DF6E000E246E000E236E000E2D6E000ED7
:105294002C6E4FEF29F04FEF29F081AC54EF29F039
:1052A40056EF29F060EF29F0000E226E010E216EF8
:1052B4003CC036F03DC037F060EF29F021042210E5
:1052C400D8A467EF29F069EF29F0B4EF30F037BEC6
:1052D40077EF29F0375007E1810E365CD8B075EFCF
:1052E40029F077EF29F0A9EF29F0000E3624D96EC2
:1052F400040E3720DA6E000EDF6E010E3624036EC4
:10530400000E3720046E000E0324D96E040E042010
:10531400DA6E000EDF6EFF0E036EFF0E046E36C0F3
:1053240005F037C006F00350052604500622000E8F
:105334000524D96E040E0620DA6E000EDF6E000E10
:10534400226E000E216E000E286E000E276E800E57
:10535400036EFF0E046E36C005F037C006F003502E
:10536400052604500622000E0524D96E040E0620DC
:10537400DA6EDF50D8A4C1EF29F0C3EF29F035EF7E
:105384002AF07F0E036EFF0E046E36C005F037C0A0
:1053940006F00350052604500622000E0524D96E9B
:1053A400040E0620DA6EDF50D8A4DBEF29F0DDEF1F
:1053B40029F035EF2AF0810E036EFF0E046E36C01D
:1053C40005F037C006F00350052604500622000EEF
:1053D4000524D96E040E0620DA6EDF50D8A4F5EF4A
:1053E40029F0F7EF29F035EF2AF0800E036EFF0E57
:1053F400046E36C005F037C006F00350052604508D
:105404000622000E0524D96E040E0620DA6EFF0E65
:10541400DF6E7F0E036EFF0E046E36C005F037C0DC
:1054240006F00350052604500622000E0524D96E0A
:10543400040E0620DA6EFF0EDF6E810E036EFF0E81
:10544400046E36C005F037C006F00350052604503C
:105454000622000E0524D96E040E0620DA6EFF0E15
:10546400DF6E27EF30F0800E036EFF0E046E36C041
:1054740005F037C006F00350052604500622000E3E
:105484000524D96E040E0620DA6EDE28D8A44DEF6A
:105494002AF04FEF2AF0EBEF2AF07F0E036EFF0E97
:1054A400046E36C005F037C006F0035005260450DC
:1054B4000622000E0524D96E040E0620DA6EDE28BC
:1054C400D8A467EF2AF069EF2AF0EBEF2AF0810EF7
:1054D400036EFF0E046E36C005F037C006F00350AD
:1054E400052604500622000E0524D96E040E06205B
:1054F400DA6EDE28D8A481EF2AF083EF2AF0EBEFEE
:105504002AF0800E036EFF0E046E36C005F037C01D
:1055140006F00350052604500622000E0524D96E19
:10552400040E0620DA6E000EDF6E7F0E036EFF0E91
:10553400046E36C005F037C006F00350052604504B
:105544000622000E0524D96E040E0620DA6E000E23
:10555400DF6E810E036EFF0E046E36C005F037C099
:1055640006F00350052604500622000E0524D96EC9
:10557400040E0620DA6E000EDF6E000E3624D96E9D
:10558400040E3720DA6E000EDF6E010E3624036E31
:10559400000E3720046E000E0324D96E040E04207E
:1055A400DA6E000EDF6EFF0E036EFF0E046E36C061
:1055B40005F037C006F00350052604500622000EFD
:1055C4000524D96E040E0620DA6E000EDF6E27EF76
:1055D40030F0800E036EFF0E046E36C005F037C047
:1055E40006F00350052604500622030E3824076EE5
:1055F400000E3920086E0550075C0850800A096EB9
:105604000650800A0958D8A00AEF2BF00CEF2BF0B3
:1056140035EF2BF0FD0E036EFF0E046E38C005F05F
:1056240039C006F00350052604500622800E076E8A
:10563400FF0E086E36C009F037C00AF0075009267D
:1056440008500A220550095C0A50800A0B6E065065
:10565400800A0B58D8B031EF2BF033EF2BF0C9EFA1
:105664002BF035EF2BF0810E036EFF0E046E36C067
:1056740005F037C006F00350052604500622030E39
:105684003824076E000E3920086E0550075C085058
:10569400800A096E0650800A0958D8A054EF2BF0EE
:1056A40056EF2BF07FEF2BF0FD0E036EFF0E046E12
:1056B40038C005F039C006F0035005260450062210
:1056C400810E076EFF0E086E36C009F037C00AF06F
:1056D4000750092608500A220550095C0A50800A1E
:1056E4000B6E0650800A0B58D8B07BEF2BF07DEF81
:1056F4002BF0C9EF2BF07FEF2BF07F0E036EFF0E24
:10570400046E36C005F037C006F003500526045079
:105714000622030E3824076E000E3920086E055049
:10572400075C0850800A096E0650800A0958D8A000
:105734009EEF2BF0A0EF2BF039EF2CF0FD0E036E53
:10574400FF0E046E38C005F039C006F0035005267C
:10575400045006227F0E076EFF0E086E36C009F055
:1057640037C00AF00750092608500A220550095C80
:105774000A50800A0B6E0650800A0B58D8A0C5EF59
:105784002BF0C7EF2BF039EF2CF0C9EF2BF0000E04
:105794003824D96E040E3920DA6E000EDF6E010E45
:1057A4003824036E000E3920046E000E0324D96ED3
:1057B400040E0420DA6E000EDF6E020E3824036E2F
:1057C400000E3920046E000E0324D96E040E04204A
:1057D400DA6E000EDF6E030E3824036E000E3920DD
:1057E400046E000E0324D96E040E0420DA6E000E3B
:1057F400DF6EFF0E036EFF0E046E38C005F039C075
:1058040006F00350052604500622000E0524D96E26
:10581400040E0620DA6E000EDF6EFE0E036EFF0E1F
:10582400046E38C005F039C006F003500526045054
:105834000622000E0524D96E040E0620DA6E000E30
:10584400DF6EFD0E036EFF0E046E38C005F039C026
:1058540006F00350052604500622000E0524D96ED6
:10586400040E0620DA6E000EDF6E39EF2CF0800E87
:10587400036EFF0E046E36C005F037C006F0035009
:10588400052604500622030E4024076E000E412014
:10589400086E0550075C0850800A096E0650800A9D
:1058A4000958D8A058EF2CF05AEF2CF083EF2CF0C5
:1058B400FD0E036EFF0E046E40C005F041C006F0FD
:1058C4000350052604500622800E076EFF0E086E54
:1058D40036C009F037C00AF00750092608500A22DA
:1058E4000550095C0A50800A0B6E0650800A0B585A
:1058F400D8B07FEF2CF081EF2CF017EF2DF083EF71
:105904002CF0810E036EFF0E046E36C005F037C016
:1059140006F00350052604500622030E4024076EA9
:10592400000E4120086E0550075C0850800A096E7D
:105934000650800A0958D8A0A2EF2CF0A4EF2CF04E
:10594400CDEF2CF0FD0E036EFF0E046E40C005F08B
:1059540041C006F00350052604500622810E076E4E
:10596400FF0E086E36C009F037C00AF0075009264A
:1059740008500A220550095C0A50800A0B6E065032
:10598400800A0B58D8B0C9EF2CF0CBEF2CF017EFEE
:105994002DF0CDEF2CF07F0E036EFF0E046E36C09B
:1059A40005F037C006F00350052604500622030E06
:1059B4004024076E000E4120086E0550075C085015
:1059C400800A096E0650800A0958D8A0ECEF2CF022
:1059D400EEEF2CF087EF2DF0FD0E036EFF0E046E3C
:1059E40040C005F041C006F00350052604500622CD
:1059F4007F0E076EFF0E086E36C009F037C00AF03E
:105A04000750092608500A220550095C0A50800AEA
:105A14000B6E0650800A0B58D8A013EF2DF015EF2B
:105A24002DF087EF2DF017EF2DF0000E4024D96EE6
:105A3400040E4120DA6E000EDF6E010E4024036E68
:105A4400000E4120046E000E0324D96E040E0420BF
:105A5400DA6E000EDF6E020E4024036E000E41204B
:105A6400046E000E0324D96E040E0420DA6E000EB8
:105A7400DF6E030E4024036E000E4120046E000E00
:105A84000324D96E040E0420DA6E000EDF6EFF0EBE
:105A9400036EFF0E046E40C005F041C006F00350D3
:105AA400052604500622000E0524D96E040E062095
:105AB400DA6E000EDF6EFE0E036EFF0E046E40C043
:105AC40005F041C006F00350052604500622000EDE
:105AD4000524D96E040E0620DA6E000EDF6EFD0E6C
:105AE400036EFF0E046E40C005F041C006F0035083
:105AF400052604500622000E0524D96E040E062045
:105B0400DA6E000EDF6E87EF2DF0800E036EFF0E4F
:105B1400046E36C005F037C006F003500526045065
:105B24000622030E3A24076E000E3B20086E055031
:105B3400075C0850800A096E0650800A0958D8A0EC
:105B4400A6EF2DF0A8EF2DF0D1EF2DF0FD0E036E92
:105B5400FF0E046E3AC005F03BC006F00350052664
:105B640004500622800E076EFF0E086E36C009F040
:105B740037C00AF00750092608500A220550095C6C
:105B84000A50800A0B6E0650800A0B58D8B0CDEF2D
:105B94002DF0CFEF2DF065EF2EF0D1EF2DF0810E2B
:105BA400036EFF0E046E36C005F037C006F00350D6
:105BB400052604500622030E3A24076E000E3B20ED
:105BC400086E0550075C0850800A096E0650800A6A
:105BD4000958D8A0F0EF2DF0F2EF2DF01BEF2EF0C6
:105BE400FD0E036EFF0E046E3AC005F03BC006F0D6
:105BF4000350052604500622810E076EFF0E086E20
:105C040036C009F037C00AF00750092608500A22A6
:105C14000550095C0A50800A0B6E0650800A0B5826
:105C2400D8B017EF2EF019EF2EF065EF2EF01BEF22
:105C34002EF07F0E036EFF0E046E36C005F037C0E3
:105C440006F00350052604500622030E3A24076E7C
:105C5400000E3B20086E0550075C0850800A096E50
:105C64000650800A0958D8A03AEF2EF03CEF2EF0E7
:105C7400D5EF2EF0FD0E036EFF0E046E3AC005F054
:105C84003BC006F003500526045006227F0E076E23
:105C9400FF0E086E36C009F037C00AF00750092617
:105CA40008500A220550095C0A50800A0B6E0650FF
:105CB400800A0B58D8A061EF2EF063EF2EF0D5EFD9
:105CC4002EF065EF2EF0000E3A24D96E040E3B2020
:105CD400DA6E000EDF6E010E3A24036E000E3B20D6
:105CE400046E000E0324D96E040E0420DA6E000E36
:105CF400DF6E020E3A24036E000E3B20046E000E8B
:105D04000324D96E040E0420DA6E000EDF6E030E37
:105D14003A24036E000E3B20046E000E0324D96E59
:105D2400040E0420DA6E000EDF6EFF0E036EFF0E0B
:105D3400046E3AC005F03BC006F00350052604503B
:105D44000622000E0524D96E040E0620DA6E000E1B
:105D5400DF6EFE0E036EFF0E046E3AC005F03BC00C
:105D640006F00350052604500622000E0524D96EC1
:105D7400040E0620DA6E000EDF6EFD0E036EFF0EBB
:105D8400046E3AC005F03BC006F0035005260450EB
:105D94000622000E0524D96E040E0620DA6E000ECB
:105DA400DF6ED5EF2EF0800E036EFF0E046E36C04C
:105DB40005F037C006F00350052604500622030EF2
:105DC4004224076E000E4320086E0550075C0850FD
:105DD400800A096E0650800A0958D8A0F4EF2EF004
:105DE400F6EF2EF01FEF2FF0FD0E036EFF0E046E84
:105DF40042C005F043C006F00350052604500622B5
:105E0400800E076EFF0E086E36C009F037C00AF028
:105E14000750092608500A220550095C0A50800AD6
:105E24000B6E0650800A0B58D8B01BEF2FF01DEFF5
:105E34002FF0B3EF2FF01FEF2FF0810E036EFF0E44
:105E4400046E36C005F037C006F003500526045032
:105E54000622030E4224076E000E4320086E0550EE
:105E6400075C0850800A096E0650800A0958D8A0B9
:105E74003EEF2FF040EF2FF069EF2FF0FD0E036E91
:105E8400FF0E046E42C005F043C006F00350052621
:105E940004500622810E076EFF0E086E36C009F00C
:105EA40037C00AF00750092608500A220550095C39
:105EB4000A50800A0B6E0650800A0B58D8B065EF62
:105EC4002FF067EF2FF0B3EF2FF069EF2FF07F0E75
:105ED400036EFF0E046E36C005F037C006F00350A3
:105EE400052604500622030E4224076E000E4320AA
:105EF400086E0550075C0850800A096E0650800A37
:105F04000958D8A088EF2FF08AEF2FF027EF30F050
:105F1400FD0E036EFF0E046E42C005F043C006F092
:105F240003500526045006227F0E076EFF0E086EEE
:105F340036C009F037C00AF00750092608500A2273
:105F44000550095C0A50800A0B6E0650800A0B58F3
:105F5400D8A0AFEF2FF0B1EF2FF027EF30F0B3EF71
:105F64002FF0000E4224D96E040E4320DA6E000E88
:105F7400DF6E010E4224036E000E4320046E000EF9
:105F84000324D96E040E0420DA6E000EDF6E020EB6
:105F94004224036E000E4320046E000E0324D96EC7
:105FA400040E0420DA6E000EDF6E030E4224036E2C
:105FB400000E4320046E000E0324D96E040E042048
:105FC400DA6E000EDF6EFF0E036EFF0E046E42C02B
:105FD40005F043C006F00350052604500622000EC7
:105FE4000524D96E040E0620DA6E000EDF6EFE0E56
:105FF400036EFF0E046E42C005F043C006F003506A
:10600400052604500622000E0524D96E040E06202F
:10601400DA6E000EDF6EFD0E036EFF0E046E42C0DC
:1060240005F043C006F00350052604500622000E76
:106034000524D96E040E0620DA6E000EDF6E27EFFB
:1060440030F027EF30F027EF30F027042810D8A4E1
:106054002EEF30F030EF30F05CEF30F0000E3624ED
:10606400D96E040E3720DA6E000EDF6E010E362470
:10607400036E000E3720046E000E0324D96E040E46
:106084000420DA6E000EDF6EFF0E036EFF0E046E48
:1060940036C005F037C006F003500526045006222A
:1060A400000E0524D96E040E0620DA6E000EDF6E93
:1060B4005CEF30F0000E286E010E276E800E362441
:1060C400366EFF0E3720376E000E3C24D96E040E58
:1060D4003D20DA6EFF0EDF6E010E3C24036E000ECF
:1060E4003D20046E000E0324D96E040E0420DA6EE3
:1060F400FC0EDF6EFF0E056EFF0E066E3CC007F051
:106104003DC008F00550072606500822000E07245B
:10611400E16E040E0820E26EDFCFE7FF020E3C249E
:10612400036E000E3D20046E000E0324D96E040E8F
:106134000420DA6EF00EDF6EFE0E056EFF0E066EA4
:106144003CC007F03DC008F0055007260650082261
:10615400000E0724E16E040E0820E26EDFCFE7FF95
:10616400B4EF30F0000E3C24D96E040E3D20DA6EFC
:10617400DF50D8B4C0EF30F0C2EF30F020EF31F090
:10618400FF0E036EFF0E046E3CC005F03DC006F02A
:106194000350052604500622000E0524D96E040E71
:1061A4000620DA6EDF50D8B4DAEF30F0DCEF30F0EE
:1061B40020EF31F0010E3C24036E000E3D20046EEE
:1061C400000E0324D96E040E0420DA6EDF50D8B416
:1061D400EEEF30F0F0EF30F020EF31F0020E3C241F
:1061E400036E000E3D20046E000E0324D96E040ECF
:1061F4000420DA6EDF50D8B402EF31F004EF31F04E
:1062040020EF31F0FE0E036EFF0E046E3CC005F06D
:106214003DC006F00350052604500622000E052456
:10622400D96E040E0620DA6EDF50D8A41CEF31F0CC
:106234001EEF31F0ACEF32F020EF31F0000E316E92
:10624400000E306E31BE2EEF31F0040E315CD8A05A
:106254002EEF31F030EF31F034EF31F04CEF31F01C
:106264004CEF31F0000E3024D96E040E3120DA6E7A
:10627400000EDF6E304A312A31BE48EF31F0040E91
:10628400315CD8A048EF31F04AEF31F034EF31F00F
:106294004CEF31F0070E3E24036E000E3F20046ED7
:1062A400000E0324D96E040E0420DA6EFF0EDF6E96
:1062B400090E3E24036E000E3F20046E000E0324DC
:1062C400D96E040E0420DA6E110EDF6E080E3E2421
:1062D400056E000E3F20066E000E0524E16E040ECE
:1062E4000620E26EDFCFE7FF0A0E3E24036E000EA7
:1062F4003F20046E000E0324D96E040E0420DA6ECF
:106304001F0EDF6E0E0E3E24036E000E3F20046E41
:10631400000E0324D96E040E0420DA6EFF0EDF6E25
:10632400110E3E24036E000E3F20046E000E032463
:10633400D96E040E0420DA6E910EDF6E100E3E2428
:10634400056E000E3F20066E000E0524E16E040E5D
:106354000620E26EDFCFE7FF0F0E3E24076E000E2D
:106364003F20086E000E0724D96E040E0820DA6E52
:10637400E7CFDFFF150E3E24036E000E3F20046EB0
:10638400000E0324D96E040E0420DA6EFF0EDF6EB5
:10639400160E3E24036E000E3F20046E000E0324EE
:1063A400D96E040E0420DA6E110EDF6E170E3E2431
:1063B400036E000E3F20046E000E0324D96E040EFB
:1063C4000420DA6E310EDF6E180E3E24036E000ECA
:1063D4003F20046E000E0324D96E040E0420DA6EEE
:1063E4004A0EDF6E190E3E24036E000E3F20046E2B
:1063F400000E0324D96E040E0420DA6E840EDF6EC0
:106404001D0E3E24036E000E3F20046E000E032476
:10641400D96E040E0420DA6EFF0EDF6E1E0E3E24CB
:10642400036E000E3F20046E000E0324D96E040E8A
:106434000420DA6E420EDF6E1F0E3E24036E000E41
:106444003F20046E000E0324D96E040E0420DA6E7D
:10645400240EDF6E200E3E24036E000E3F20046ED9
:10646400000E0324D96E040E0420DA6E180EDF6EBB
:106474002B0E3E24036E000E3F20046E000E0324F8
:10648400D96E040E0420DA6E1F0EDF6E240E3E2435
:10649400056E000E3F20066E000E0524E16E040E0C
:1064A4000620E26EDFCFE7FF2A0E3E24036E000EC5
:1064B4003F20046E000E0324D96E040E0420DA6E0D
:1064C400200EDF6E250E3E24056E000E3F20066E64
:1064D400000E0524E16E040E0620E26EDFCFE7FF16
:1064E400290E3E24036E000E3F20046E000E03248A
:1064F400D96E040E0420DA6E400EDF6E260E3E24A2
:10650400056E000E3F20066E000E0524E16E040E9B
:106514000620E26EDFCFE7FF280E3E24036E000E56
:106524003F20046E000E0324D96E040E0420DA6E9C
:10653400800EDF6E270E3E24056E000E3F20066E91
:10654400000E0524E16E040E0620E26EDFCFE7FFA5
:10655400ACEF32F084A0B1EF32F0B3EF32F065EF7C
:1065640033F03DBEC1EF32F0FD0E3C5C030E3D58EE
:10657400D8B0BFEF32F0C1EF32F065EF33F0020E66
:106584003C24036E000E3D20046E000E0324D96EDD
:10659400040E0420DA6E030E3C24056E000E3D202A
:1065A400066E000E0524E16E040E0620E26EDFCFB7
:1065B400E7FF010E3C24036E000E3D20046E000E26
:1065C4000324D96E040E0420DA6E020E3C24056EF8
:1065D400000E3D20066E000E0524E16E040E06201A
:1065E400E26EDFCFE7FF000E3C24D96E040E3D209F
:1065F400DA6EFF0EDF6E010E3C24036E000E3D20AA
:10660400046E000E0324E16E040E0420E26EDFCF5C
:10661400E7FFFF0E036EFF0E046E3CC005F03DC0A5
:1066240006F00350052604500622000E0524D96EF8
:10663400040E0620DA6E000E3C24E16E040E3D20AA
:10664400E26EDFCFE7FFFE0E036EFF0E046E3CC06A
:1066540005F03DC006F00350052604500622000E46
:106664000524D96E040E0620DA6EFF0E076EFF0EA7
:10667400086E3CC009F03DC00AF0075009260850D6
:106684000A22000E0924E16E040E0A20E26EDFCF16
:10669400E7FFFE0E036EFF0E046E3CC005F03DC026
:1066A40006F00350052604500622000E0524D96E78
:1066B400040E0620DA6E000EDF6E3C4A3D2A65EFBA
:1066C40033F065EF33F084A26AEF33F06CEF33F00C
:1066D40025EF34F03DBE78EF33F0810E3C5C030EC1
:1066E4003D58D8A078EF33F07AEF33F025EF34F04B
:1066F400FE0E036EFF0E046E3CC005F03DC006F0B6
:106704000350052604500622000E0524D96E040EFB
:106714000620DA6EFD0E076EFF0E086E3CC009F00F
:106724003DC00AF00750092608500A22000E092429
:10673400E16E040E0A20E26EDFCFE7FFFF0E036E68
:10674400FF0E046E3CC005F03DC006F00350052664
:1067540004500622000E0524D96E040E0620DA6EBB
:10676400FE0E076EFF0E086E3CC009F03DC00AF035
:106774000750092608500A22000E0924E16E040E6F
:106784000A20E26EDFCFE7FF000E3C24D96E040E30
:106794003D20DA6EFF0EDF6EFF0E036EFF0E046EF9
:1067A4003CC005F03DC006F0035005260450062207
:1067B400000E0524E16E040E0620E26EDFCFE7FF33
:1067C400010E3C24036E000E3D20046E000E0324D3
:1067D400D96E040E0420DA6E000E3C24E16E040E21
:1067E4003D20E26EDFCFE7FF020E3C24036E000E75
:1067F4003D20046E000E0324D96E040E0420DA6ECC
:10680400010E3C24056E000E3D20066E000E05248C
:10681400E16E040E0620E26EDFCFE7FF020E3C2499
:10682400036E000E3D20046E000E0324D96E040E88
:106834000420DA6E000EDF6E3C06D8A03D0625EF7C
:1068440034F025EF34F084A42AEF34F02CEF34F044
:10685400CFEF34F098EF34F098EF34F0000E3C248E
:10686400D96E040E3D20DA6E010EDF6ECFEF34F0E8
:10687400000E3C24D96E040E3D20DA6E020EDF6E4B
:10688400CFEF34F0000E3C24D96E040E3D20DA6EB6
:10689400040EDF6ECFEF34F0000E3C24D96E040EEC
:1068A4003D20DA6E080EDF6ECFEF34F0000E3C248C
:1068B400D96E040E3D20DA6E100EDF6ECFEF34F089
:1068C400000E3C24D96E040E3D20DA6E200EDF6EDD
:1068D400CFEF34F0000E3C24D96E040E3D20DA6E66
:1068E400400EDF6ECFEF34F0000E3C24D96E040E60
:1068F4003D20DA6E800EDF6E000E3C24D96E040E4D
:106904003D20DA6E000EDF6E800E3C243C6E000EDD
:106914003D203D6E000E3C24D96E040E3D20DA6EFF
:10692400010EDF6ECFEF34F0CFEF34F0000E3C24D5
:10693400D96E040E3D20DA6EDF50036E046A0450F3
:10694400000AD8B4A8EF34F0CFEF34F00350000AB3
:10695400D8B430EF34F0010AD8B43AEF34F0030A73
:10696400D8B444EF34F0060AD8B44EEF34F00C0A2D
:10697400D8B458EF34F0180AD8B462EF34F0300ABF
:10698400D8B46CEF34F0600AD8B476EF34F0C00AAF
:10699400D8B47EEF34F0CFEF34F081AED4EF34F0DE
:1069A400D6EF34F0FCEF19F042EF35F042EF35F05A
:1069B400000E3C24D96E040E3D20DA6E800EDF6E8C
:1069C400FCEF19F0000E3C24D96E040E3D20DA6E63
:1069D400400EDF6EFCEF19F0000E3C24D96E040E5D
:1069E4003D20DA6E200EDF6EFCEF19F0000E3C2421
:1069F400D96E040E3D20DA6E100EDF6EFCEF19F036
:106A0400000E3C24D96E040E3D20DA6E080EDF6EB3
:106A1400FCEF19F0000E3C24D96E040E3D20DA6E12
:106A2400040EDF6EFCEF19F0000E3C24D96E040E48
:106A34003D20DA6E020EDF6EFCEF19F0000E3C24EE
:106A4400D96E040E3D20DA6E010EDF6E000E3C247A
:106A5400D96E040E3D20DA6E000EDF6E800E3C24EB
:106A64003C6EFF0E3D203D6E000E3C24D96E040E9C
:106A74003D20DA6E800EDF6EFCEF19F0FCEF19F0AA
:106A8400000E3C24D96E040E3D20DA6EDF50036EF6
:106A9400046A0450000AD8B452EF35F0FCEF19F040
:106AA4000350000AD8B4DAEF34F0010AD8B428EF5E
:106AB40035F0030AD8B420EF35F0060AD8B416EF3F
:106AC40035F00C0AD8B40CEF35F0180AD8B402EF3C
:106AD40035F0300AD8B4F8EF34F0600AD8B4EEEFE9
:106AE40034F0C00AD8B4E4EF34F0FCEF19F0FCEF52
:106AF40019F0FCEF19F0FCEF19F01200000000008F
:106B04000000000000000000000000000000000081
:106B14000000000000000000000000000000000071
:106B24000000000000000000000000000000000061
:106B34000000000000000000000000000000000051
:106B44000000000000000000000000000000000041
:106B54000000000000000000000000000000000031
:106B64000000000000000000000000000000000021
:106B74000000000000000000000000000000000011
:106B84000000000000000000000000000000000001
:106B940000000000000000000000000000000000F1
:106BA40000000000000000000000000000000000E1
:106BB40000000000000000000000000000000000D1
:106BC40000000000000000000000000000000000C1
:106BD40000000000000000000000000000000000B1
:106BE40000000000000000000000000000000000A1
:106BF4000000000000000000000000000000000091
:106C0400000000000000065F5F06000000000707A8
:106C14000007070000147F7F147F7F1400242E6B6D
:106C24006B3A120000466630180C666200307A4FE8
:106C34005D377A48000407030000000000001C3E92
:106C440063410000000041633E1C000000082A3E2E
:106C54001C1C3E2A0808083E3E080800000080E08C
:106C64006000000000080808080808000000006030
:106C740060000000006030180C060301003E7F71C4
:106C8400594D7F3E0040427F7F404000006273596F
:106C9400496F660000226349497F360000181C16BC
:106CA400537F7F5000276745457D3900003C7E4B6C
:106CB4004979300000030371790F070000367F49DA
:106CC400497F360000064F49693F1E0000000066F8
:106CD40066000000000080E66600000000081C3624
:106CE4006341000000242424242424000000416380
:106CF400361C080000020351590F0600003E7F4174
:106D04005D5D1F1E007C7E13137E7C0000417F7F2F
:106D140049497F36001C3E634141632200417F7F25
:106D240041633E1C00417F7F495D416300417F7F99
:106D3400491D0103001C3E6341517372007F7F08AB
:106D4400087F7F000000417F7F41000000307040D9
:106D5400417F3F0100417F7F081C776300417F7FB3
:106D640041406070007F7F0E1C0E7F7F007F7F0696
:106D74000C187F7F001C3E6341633E1C00417F7FF3
:106D840049090F06001E3F21717F5E0000417F7F8D
:106D940009197F6600266F4D597332000003417F45
:106DA4007F410300007F7F40407F7F00001F3F60E2
:106DB400603F1F00007F7F3018307F7F0043673CB7
:106DC400183C674300074F78784F0700004763710A
:106DD400594D677300007F7F4141000000010306A5
:106DE4000C183060000041417F7F000000080C0651
:106DF40003060C080080808080808080800000036F
:106E04000704000000207454543C784000417F3F44
:106E14004848783000387C44446C28000030784876
:106E2400493F7F4000387C54545C180000487E7F02
:106E3400490302000098BCA4A4F87C0400417F7FAD
:106E440008047C780000447D7D4000000060E08000
:106E540080FD7D0000417F7F10386C440000417F3D
:106E64007F400000007C7C18381C7C78007C7C040B
:106E7400047C780000387C44447C38000084FCF8AE
:106E8400A4243C1800183C24A4F8FC8400447C7816
:106E94004C041C1800485C54547424000000043E44
:106EA4007F442400003C7C40403C7C40001C3C600F
:106EB400603C1C00003C7C7038707C3C00446C38A6
:106EC40010386C44009CBCA0A0FC7C00004C647492
:106ED4005C4C64000008083E77414100000000005B
:106EE40077770000004141773E0808000002030163
:106EF400030203010070784C464C7870000E9F9199
:106F0400B1FB4A00003A7A40407A7A4000387C5417
:106F1400555D19000002237555557D7B422175543A
:106F2400547D794000217555547C78400020745775
:106F3400577C784000183CA4A4E4400000023B7D48
:106F440055555D1B02397D54545D190000397D553A
:106F5400545C18000001457C7C410100000203459B
:106F64007D7D43020001457D7C40000000797D1653
:106F740012167D790070782B2B78700000447C7C8D
:106F84005555450000207454547C7C54547C7E0B2D
:106F9400097F7F4900327B49497B320000327A48BD
:106FA400487A320000327A4A48783000003A7B410D
:106FB400417B7A40003A7A4240787840009ABAA0FD
:106FC400A0FA7A000001193C66663C19013D7D4037
:106FD400407D3D0000183C24E7E7242400687E7FC0
:106FE40049436620002B2FFCFC2F2B0000FFFF09D8
:106FF400092FF6F8A040C088FE7F090302207454CC
:10700400557D79400000447D7D4100000030784882
:107014004A7A320000387840427A7A40007A7A0A12
:107024000A7A7000007D7D19317D7D000000262FD5
:10703400292F2F280000262F292F26000030784DD5
:1070440045602000003838080808080000080808CF
:1070540008383800004F6F3018CCEEBB914F6F30BA
:10706400186C76FBF90000007B7B000000081C36DE
:1070740022081C362222361C0822361C08AA005577
:1070840000AA005500AA55AA55AA55AA55DDFFAA7B
:1070940077DDAAFF77000000FFFF0000001010104A
:1070A400FFFF000000141414FFFF0000001010FF85
:1070B400FF00FFFF001010F0F010F0F000141414A3
:1070C400FCFC0000001414F7F700FFFF000000FFB1
:1070D400FF00FFFF001414F4F404FCFC0014141764
:1070E40017101F1F0010101F1F101F1F001414144F
:1070F4001F1F000000101010F0F00000000000003E
:107104001F1F1010101010101F1F1010101010103F
:10711400F0F0101010000000FFFF101010101010FD
:107124001010101010101010FFFF101010000000AD
:10713400FFFF1414140000FFFF00FFFF1000001FE6
:107144001F101717140000FCFC04F4F41414141793
:1071540017101717141414F4F404F4F4140000FFB3
:10716400FF00F7F71414141414141414141414F75B
:10717400F700F7F714141414171714141410101F2D
:107184001F101F1F10141414F4F41414141010F00E
:10719400F010F0F01000001F1F101F1F100000005F
:1071A4001F1F141414000000FCFC1414140000F03D
:1071B400F010F0F0101010FFFF10FFFF1014141463
:1071C400FFFF1414141010101F1F00000000000013
:1071D400F0F0101010FFFFFFFFFFFFFFFFF0F0F0D3
:1071E400F0F0F0F0F0FFFFFFFF00000000000000EF
:1071F40000FFFFFFFF0F0F0F0F0F0F0F0F387C441F
:107204006C386C4400FCFE2A2A3E1400007E7E0288
:107214000206060000027E7E027E7E020063775D27
:107224004963630000387C447C3C04040080FE7E97
:1072340020203E1E000406027E7C06020099BDE763
:10724400E7BD9900001C3E6B496B3E1C004C7E73ED
:1072540001737E4C0030784A4F7D390000183C247D
:107264003C3C243C1898FC643C3E273D180000003C
:10727400000000000000000000000000000000000A
:1072840000000000000000000000000000000000FA
:1072940000000000000000000000000000000000EA
:1072A40000000000000000000000000000000000DA
:1072B40000000000000000000000000000000000CA
:1072C40000000000000000000000000000000000BA
:1072D40000000000000000000000000000000000AA
:1072E400000000000000000000000000000000009A
:1072F400000000000000000000000000000000008A
:107304000000000000000000000000000000000079
:107314000000000000000000000000000000000069
:107324000000000000000000000000000000000059
:10733400E0F0C8CCC4C2E2E2F2FEFEFEFCB0000003
:107344000000000000000000000000000000000039
:107354000000000000000000000000000000000029
:107364000000000000000000000000000000000019
:107374000000000000000000000000000000000009
:1073840000000000000000000000000000000000F9
:1073940000000000000000000000000000000000E9
:1073A4000000000000000000000000000000008356
:1073B400CF5F3F3F3F3F3F3F3F3F1F3F3F3F7F78D0
:1073C4008000000000000000000000000000000039
:1073D40000000000000000000000000000000000A9
:1073E4000000000000000000000000000000000099
:1073F4000000000000000000000000000000000089
:107404000000000000000000000000000000000078
:107414000000000000000000000000000000000068
:10742400000000000000000000000080C0884261ED
:10743400F042800008000060220008000000000004
:107444000103BC0080E0F0F8FCFCECF6F07838387E
:1074540018181808000000000000000000000000D8
:107464000000000000000000000000000000000018
:107474000000000000000000000000000000000008
:1074840000000000000000000000000000000000F8
:1074940000000000000000000000000000000000E8
:1074A400000000000000000000FC038382C6FAFA1A
:1074B400FCFCFAFFE20100000001000000000000F3
:1074C40000F00708FFFFFFFFFFFFFFDFCFCF8F0FA5
:1074D4000F0F0E1C18300000000000000000000018
:1074E4000000000000000000000000000000000098
:1074F4000000000000000000000000000000000088
:107504000000000000000000000000000000000077
:107514000000000000000000000000000000000067
:10752400000000000000608E01040F1F1F0F0F1FDA
:107534003F3F3F3F1F0300000000002000100008F1
:107544000808090A082B2B3337FF030303071F7F9F
:107554001000000000000000000000000000000017
:107564000000000000000000000000000000000017
:107574000000000000000000000000000000000007
:1075840000000000000000000000000000000000F7
:1075940000000000000000000000000000000000E7
:1075A4000000000000000007083060C080000000F8
:1075B4000000000000000000000040800000000007
:1075C40000008080C060341A050300000000000041
:1075D40000000000000000000000000000000000A7
:1075E4000000000000000000000000000000000097
:1075F4000000000000000000000000000000000087
:107604000000000000000000000000000000000076
:107614000000000000000000000000000000000066
:1076240000000000000000000000000000818286CD
:107634008C9C1428E8F8102040C0C0402011090593
:107644000505020100000000000000000000000029
:107654000000000000000000000000000000000026
:107664000000000000000000000000000000000016
:107674000000000000000000000000000000000006
:1076840000000000000000000000000000000000F6
:1076940000000000000000000000000000000000E6
:1076A40000000000000000000000000003020705C5
:1076B4000404050D0E1B3B6B476363263A12121C30
:1076C40000000000000000000000000000000000B6
:1076D40000000000000000000000000000000000A6
:1076E4000000000000000000000000000000000096
:1076F4000000000000000000000000000000000086
:107AF40000000000000000000000000000FFFFFF85
:107B0400FFFFFFFFFFFFFFFFFFFFFFFFFFFFFFFF81
:107B1400FFFFFFFFFFFFFFFFFFFFFFFFFFFFFFFF71
:107B2400FFFFFFFFFFFFFFFFFFFFFFFFFFFFFFFF61
:107B3400FFFFFFFFFFFFFFFFFFFFFFFFFFFFFFFF51
:107EE400FFFFFFFFFFFFFFFFFFFFFFFFFF0000009B
:107EF400000000000000000000000000000000007E
:107F0400005C000C000C7C287C7C447C24104828F9
:107F14005408000C0038440044380020100810387D
:107F24001080400010101000400020100838443821
:107F3400007C006454484454281C107C4C5424385D
:107F4400542004740C2854280854380050008050DD
:107F540000102844282828442810045408384C5C6D
:107F64007814787C54283844447C44387C54447CC9
:107F740014043844347C107C007C0020403C7C1089
:107F84006C7C40407C087C7C047C7C447C7C1408B5
:107F94003844787C1468485424047C047C407C3C39
:107FA400403C7C207C6C106C1C601C64544C7C44F5
:107FB40000081020447C0008040880808004080025
:107FC40044616E69656C2C4761627269656C00532B
:107FD4007061636520496E7661646572004C6574F6
:107FE400277320504C41590065742054686F6D61AB
:0B7FF40073004D61646520627900009D
:020000040020DA
:08000000FFFFFFFFFFFFFFFF00
:020000040030CA
:0E000000000C191EFF8381FF0FC00FE00F40A0
:00000001FF
