:020000040000FA
:040000000DEF17F0F9
:102E1A0004EE00F014EE00F0EE6AE550E150FCE139
:102E2A00E250FAE1476A466A000EF86E0001DEEFE8
:102E3A0017F00F0EC16E000EC26E000E926E000EDB
:102E4A00936E000E946E000E956E000E966E000E36
:102E5A00806E000E816E000E826E000E836E000E72
:102E6A00846E1200016E0150D8B43EEF17F040EFA5
:102E7A0017F044EF17F08A808A9246EF17F08A9289
:102E8A008A8295688A868A8800D083CF02F08A98D7
:102E9A0000D08A908A92025012000A6E0A50D8B460
:102EAA0059EF17F05BEF17F05FEF17F08A808A92FD
:102EBA0063EF17F08A928A8263EF17F0000E956E1D
:102ECA008A9609C08CFF8A8800D08A9800D08A9096
:102EDA008A92120095EF17F01650D8B477EF17F0D0
:102EEA0079EF17F085EF17F017C00BF014C0F6FF53
:102EFA0015C0F7FF0800F550B8EC19F091EF17F07C
:102F0A0017C00BF014C0F6FF15C0F7FF0800F55004
:102F1A004EEC1AF091EF17F0144A152A95EF17F0B4
:102F2A0014C0F6FF15C0F7FF0800F5500009D8A431
:102F3A00A1EF17F0A3EF17F071EF17F0A5EF17F055
:102F4A0012000D6E000E0C6E800E0D60AFEF17F0C2
:102F5A00B1EF17F0DDEF17F0070E0B64B7EF17F0BC
:102F6A00B9EF17F0BDEF17F0DDEF17F0DDEF17F04F
:102F7A000DC047F00BC046F03F0E0D64C7EF17F0C7
:102F8A00C9EF17F0CFEF17F0400E0D5E010E0C6E71
:102F9A00CFEF17F08A940D504009096E0C5052EC8D
:102FAA0017F00B50B809096E0C5052EC17F08A84CE
:102FBA001200000E846E000E436E000E426E000E6A
:102FCA00456E000E446E1EEC17F0010E29EC18F047
:102FDA00020E0B6EFF0E0C6E020ED5EC18F00A0EE6
:102FEA000B6E0A0EA6EC17F0F80E146E7F0E156E15
:102FFA00010E166E010E176E6FEC17F0030E0B6EB4
:10300A000A0EA6EC17F0F00E146E7F0E156E010E66
:10301A00166E010E176E6FEC17F01E0E0B6E350E44
:10302A00A6EC17F01F0E416E710E406E1E0EE82EB2
:10303A00FED7402EFCD7412EFAD700D0F0EC1AF07A
:10304A0025EF18F000EF00F00E6E000E836E8A9ADC
:10305A00210EE82EFED700F08A8A8A988A908A92F0
:10306A008A9400D0C00E096E000E52EC17F0C00E02
:10307A00096E010E52EC17F0400E096E000E52EC6A
:10308A0017F0400E096E010E52EC17F0B80E096ED9
:10309A00000E52EC17F0B80E096E010E52EC17F042
:1030AA000E04D8A45BEF18F05DEF18F069EF18F082
:1030BA003F0E096E000E52EC17F03F0E096E010E1C
:1030CA0052EC17F075EF18F03E0E096E000E52EC36
:1030DA0017F03E0E096E010E52EC17F075EF18F05C
:1030EA00000E79EC18F012000B6E000E0D6E070E32
:1030FA000D6482EF18F084EF18F088EF18F0D4EF1F
:10310A0018F0D4EF18F08A94400E096E000E52ECB3
:10311A0017F0400E096E010E52EC17F00D50B80967
:10312A00096E000E52EC17F00D50B809096E010E27
:10313A0052EC17F08A84000E0C6E3F0E0C64A8EF56
:10314A0018F0AAEF18F0AEEF18F0C9EF18F0C9EFAF
:10315A0018F00B50010DF3500008096E000E52ECE6
:10316A0017F00B50010DF3500008096E010E52ECD6
:10317A0017F00C2A3F0E0C64C5EF18F0C7EF18F0D1
:10318A00AEEF18F0C9EF18F00D2A070E0D64D0EF54
:10319A0018F0D2EF18F088EF18F0D4EF18F01200F8
:1031AA000F6E000E116E3F0E0F64DEEF18F0E0EFA7
:1031BA0018F0E6EF18F0400E0F5E010E116EE6EF02
:1031CA0018F08A940F9E0F8C0FC009F0115052EC20
:1031DA0017F00BC001F0026A000E046E080E036EAF
:1031EA0042EC19F00150BF0BB809096E115052ECAC
:1031FA0017F08A84115037EC17F0115037EC17F09A
:10320A00106E8A940FC009F0115052EC17F00C504E
:10321A00D8B412EF19F014EF19F027EF19F00BC018
:10322A000DF0070E0D16010E0E6E0D2A1FEF19F086
:10323A00D8900E360D2E1DEF19F00E501010106E8C
:10324A003BEF19F00BC00DF0070E0D16010E0E6EB6
:10325A000D2A32EF19F0D8900E360D2E30EF19F0F4
:10326A000E50FF0A1014106E3BEF19F08A8410C03A
:10327A0009F0115052EC17F01200000E066E04BE4F
:10328A004BEF19F049EF19F053EF19F0036C041ED4
:10329A00D8B0042A010E066E53EF19F002BE5AEF97
:1032AA0019F058EF19F062EF19F0016C021ED8B04C
:1032BA00022A010E061A62EF19F0000E086E000EBD
:1032CA00076E03500410D8B46DEF19F06FEF19F0C0
:1032DA00A3EF19F0010E056E79EF19F0D8900336B5
:1032EA000436052A79EF19F004AE7EEF19F080EF63
:1032FA0019F073EF19F084EF19F084EF19F0D890F0
:10330A00073608360350015C04500258D8A090EFE3
:10331A0019F092EF19F099EF19F00350015E045079
:10332A00025A078099EF19F0D89004320332052E19
:10333A0084EF19F0A3EF19F0A3EF19F00650D8B4EF
:10334A00A9EF19F0ABEF19F0B1EF19F0076C081EED
:10335A00D8B0082AB1EF19F007C001F008C002F08E
:10336A00B7EF19F01200106E000E136E0A0E101845
:10337A00D8A4C2EF19F0C4EF19F0CBEF19F0000E80
:10338A00476E462A4DEF1AF04DEF1AF03F0E47648A
:10339A00D1EF19F0D3EF19F0DAEF19F0010E136E2D
:1033AA004750C00F116EDEEF19F047C011F0DEEF83
:1033BA0019F01050080DF3CF0EF0F4CF0FF0000EF5
:1033CA00126E070E1264ECEF19F0EEEF19F0F2EF3D
:1033DA0019F04BEF1AF04BEF1AF03F0E1164F8EFA9
:1033EA0019F0FAEF19F00EEF1AF0400E115E010E05
:1033FA00136E8A9411504009096E135052EC17F05B
:10340A004650B809096E135052EC17F08A840EEF31
:10341A001AF00B50D8B414EF1AF016EF1AF02AEF7C
:10342A001AF012500E240C6E000E0F200D6E2D0E87
:10343A000C24F66E6B0E0D20F76E0800F5CF09F01E
:10344A00135052EC17F03FEF1AF012500E240C6E84
:10345A00000E0F200D6E2D0E0C24F66E6B0E0D2035
:10346A00F76E0800F550FF0A096E135052EC17F078
:10347A003FEF1AF0112A122A070E126447EF1AF0C8
:10348A0049EF1AF0F2EF19F04BEF1AF0080E47263F
:10349A0012000F6E000E116E0A0E0F18D8A458EF04
:1034AA001AF05AEF1AF061EF1AF0000E476E462A28
:1034BA00EFEF1AF0EFEF1AF03F0E476467EF1AF0DA
:1034CA0069EF1AF070EF1AF0010E116E4750C00F33
:1034DA000E6E74EF1AF047C00EF074EF1AF0200E59
:1034EA000F5E000E106E020E10647EEF1AF080EF6F
:1034FA001AF084EF1AF0EDEF1AF0EDEF1AF03F0E22
:10350A000E648AEF1AF08CEF1AF0A0EF1AF0400E50
:10351A000E5E010E116E8A940E504009096E11500A
:10352A0052EC17F04650B809096E115052EC17F0D8
:10353A008A84A0EF1AF00B50D8B4A6EF1AF0A8EFBD
:10354A001AF0C4EF1AF00F50030D2D0E0C6E7F0EF9
:10355A000D6EF3500C26F4500D221050010DF3504D
:10356A000C26F4500D220CC0F6FF0DC0F7FF080020
:10357A00F5CF09F0115052EC17F0E1EF1AF00F50A5
:10358A00030D2D0E0C6E7F0E0D6EF3500C26F450AB
:10359A000D221050010DF3500C26F4500D220CC0D0
:1035AA00F6FF0DC0F7FF0800F550FF0A096E11502B
:1035BA0052EC17F0E1EF1AF00E2A102A020E1064EC
:1035CA00E9EF1AF0EBEF1AF084EF1AF0EDEF1AF0C8
:1035DA00050E47261200030E3D6EE80E3C6E000EE5
:1035EA00376E050E366E000E3F6EFC0E3E6E000EF6
:1035FA00396E7B0E386E000E3B6E850E3A6E000EEB
:10360A001A6E000E196E000E1C6E000E1B6E000E56
:10361A001E6E000E1D6E000E206E000E1F6E000E36
:10362A00226E000E216E000E246E000E236E000E16
:10363A002D6E000E2C6E010E336EA20E326E000E2F
:10364A00266E000E256E000E286E000E276E000EE6
:10365A00316E000E306E000E2A6E000E296E000EBC
:10366A003624D96E040E3720DA6E3C0EDF6E010E58
:10367A0036240B6E000E37200C6E000E0B24D96E0A
:10368A00040E0C20DA6EB40EDF6EFF0E0D6EFF0E06
:10369A000E6E36C00FF037C010F00D500F260E50C8
:1036AA001022000E0F24E16E040E1020E26EDFCF0E
:1036BA00E7FF020E36240B6E000E37200C6E000E4A
:1036CA000B24D96E040E0C20DA6ECA0EDF6EFE0EC3
:1036DA000D6EFF0E0E6E36C00FF037C010F00D5093
:1036EA000F260E501022000E0F24E16E040E102039
:1036FA00E26EDFCFE7FF030E36240B6E000E372093
:10370A000C6E000E0B24D96E040E0C20DA6E190E04
:10371A00DF6EFD0E0D6EFF0E0E6E36C00FF037C057
:10372A0010F00D500F260E501022000E0F24E16EDD
:10373A00040E1020E26EDFCFE7FF000E3E24D96EA2
:10374A00040E3F20DA6E3C0EDF6E010E3E240B6E35
:10375A00000E3F200C6E000E0B24D96E040E0C20B6
:10376A00DA6EB40EDF6EFF0E0D6EFF0E0E6E3EC0E9
:10377A000FF03FC010F00D500F260E501022000E11
:10378A000F24E16E040E1020E26EDFCFE7FF020E77
:10379A003E240B6E000E3F200C6E000E0B24D96ED9
:1037AA00040E0C20DA6ECA0EDF6EFE0E0D6EFF0ED0
:1037BA000E6E3EC00FF03FC010F00D500F260E5097
:1037CA001022000E0F24E16E040E1020E26EDFCFED
:1037DA00E7FF030E3E240B6E000E3F200C6E000E18
:1037EA000B24D96E040E0C20DA6E190EDF6EFD0E54
:1037FA000D6EFF0E0E6E3EC00FF03FC010F00D5062
:10380A000F260E501022000E0F24E16E040E102017
:10381A00E26EDFCFE7FF000E3824D96E040E39209E
:10382A00DA6E3C0EDF6E010E38240B6E000E392064
:10383A000C6E000E0B24D96E040E0C20DA6EB40E38
:10384A00DF6EFF0E0D6EFF0E0E6E38C00FF039C020
:10385A0010F00D500F260E501022000E0F24E16EAC
:10386A00040E1020E26EDFCFE7FF020E38240B6E43
:10387A00000E39200C6E000E0B24D96E040E0C209B
:10388A00DA6ECA0EDF6EFE0E0D6EFF0E0E6E38C0B9
:10389A000FF039C010F00D500F260E501022000EF6
:1038AA000F24E16E040E1020E26EDFCFE7FF030E55
:1038BA0038240B6E000E39200C6E000E0B24D96EC4
:1038CA00040E0C20DA6E190EDF6EFD0E0D6EFF0E61
:1038DA000E6E38C00FF039C010F00D500F260E5082
:1038EA001022000E0F24E16E040E1020E26EDFCFCC
:1038FA00E7FF000E3A24D96E040E3B20DA6E3C0E26
:10390A00DF6E010E3A240B6E000E3B200C6E000E89
:10391A000B24D96E040E0C20DA6EB40EDF6EFF0E85
:10392A000D6EFF0E0E6E3AC00FF03BC010F00D5038
:10393A000F260E501022000E0F24E16E040E1020E6
:10394A00E26EDFCFE7FF020E3A240B6E000E3B2039
:10395A000C6E000E0B24D96E040E0C20DA6ECA0E01
:10396A00DF6EFE0E0D6EFF0E0E6E3AC00FF03BC0FC
:10397A0010F00D500F260E501022000E0F24E16E8B
:10398A00040E1020E26EDFCFE7FF030E3A240B6E1F
:10399A00000E3B200C6E000E0B24D96E040E0C2078
:1039AA00DA6E190EDF6EFD0E0D6EFF0E0E6E3AC048
:1039BA000FF03BC010F00D500F260E501022000ED3
:1039CA000F24E16E040E1020E26EDFCFE7FF000E37
:1039DA003C24D96E040E3D20DA6EFF0EDF6E010E16
:1039EA003C240B6E000E3D200C6E000E0B24D96E8B
:1039FA00040E0C20DA6EFC0EDF6EFF0E0D6EFF0E4B
:103A0A000E6E3CC00FF03DC010F00D500F260E5048
:103A1A001022000E0F24E16E040E1020E26EDFCF9A
:103A2A00E7FF020E3C240B6E000E3D200C6E000ECA
:103A3A000B24D96E040E0C20DA6EF00EDF6EFE0E29
:103A4A000D6EFF0E0E6E3CC00FF03DC010F00D5013
:103A5A000F260E501022000E0F24E16E040E1020C5
:103A6A00E26EDFCFE7FF3AEF1DF0000E186E000E90
:103A7A00176E000E2E6E070E2E6446EF1DF048EFED
:103A8A001DF04CEF1DF0A1EF1DF0A1EF1DF0000E8F
:103A9A002F6E010E2F6454EF1DF056EF1DF05AEFF2
:103AAA001DF098EF1DF098EF1DF08A94400E096EF4
:103ABA002F5052EC17F02E50B809096E2F5052ECC5
:103ACA0017F08A84000E2B6E3F0E2B646FEF1DF0E9
:103ADA0071EF1DF075EF1DF08DEF1DF08DEF1DF0EC
:103AEA00000E1724D96E040E1820DA6EDF50096E04
:103AFA002F5052EC17F0174A182A2B2A3F0E2B6424
:103B0A0089EF1DF08BEF1DF075EF1DF08DEF1DF0A5
:103B1A002F2A010E2F6494EF1DF096EF1DF05AEF35
:103B2A001DF098EF1DF02E2A070E2E649FEF1DF050
:103B3A00A1EF1DF04CEF1DF08A908A92BD0E3A1843
:103B4A003B10D8A4ABEF1DF0ADEF1DF0B3EF1DF0A5
:103B5A00000E226E010E216EB3EF1DF0840E3A188C
:103B6A003B10D8A4BBEF1DF0BDEF1DF0C3EF1DF055
:103B7A00000E226E000E216EC3EF1DF0215022109E
:103B8A00D8A4CAEF1DF0CCEF1DF0ACEF1EF0030E67
:103B9A003A240B6E000E3B200C6E000E0B24D96EDD
:103BAA00040E0C20DA6E040E3A240D6E000E3B2031
:103BBA000E6E000E0D24E16E040E0E20E26EDFCFB3
:103BCA00E7FF020E3A240B6E000E3B200C6E000E2D
:103BDA000B24D96E040E0C20DA6E030E3A240D6EF5
:103BEA00000E3B200E6E000E0D24E16E040E0E2018
:103BFA00E26EDFCFE7FF010E3A240B6E000E3B2088
:103C0A000C6E000E0B24D96E040E0C20DA6E020E16
:103C1A003A240D6E000E3B200E6E000E0D24E16E4E
:103C2A00040E0E20E26EDFCFE7FF000E3A24D96EB3
:103C3A00040E3B20DA6E010E3A240B6E000E3B2076
:103C4A000C6E000E0B24E16E040E0C20E26EDFCF28
:103C5A00E7FFFF0E0B6EFF0E0C6E3AC00DF03BC075
:103C6A000EF00B500D260C500E22000E0D24D96EAC
:103C7A00040E0E20DA6E000E3A24E16E040E3B208A
:103C8A00E26EDFCFE7FFFE0E0B6EFF0E0C6E3AC040
:103C9A000DF03BC00EF00B500D260C500E22000EFC
:103CAA000D24D96E040E0E20DA6EFF0E0F6EFF0E73
:103CBA00106E3AC011F03BC012F00F50112610508E
:103CCA001222000E1124E16E040E1220E26EDFCFE2
:103CDA00E7FFFD0E0B6EFF0E0C6E3AC00DF03BC0F7
:103CEA000EF00B500D260C500E22000E0D24D96E2C
:103CFA00040E0E20DA6EFE0E0F6EFF0E106E3AC024
:103D0A0011F03BC012F00F50112610501222000E73
:103D1A001124E16E040E1220E26EDFCFE7FFFD0EE2
:103D2A000B6EFF0E0C6E3AC00DF03BC00EF00B503E
:103D3A000D260C500E22000E0D24D96E040E0E20F4
:103D4A00DA6E000EDF6E3A4A3B2A93EF1FF0FD0E41
:103D5A000B6EFF0E0C6E3AC00DF03BC00EF00B500E
:103D6A000D260C500E22000E0D24D96E040E0E20C4
:103D7A00DA6EFC0E0F6EFF0E106E3AC011F03BC0E9
:103D8A0012F00F50112610501222000E1124E16E6B
:103D9A00040E1220E26EDFCFE7FFFE0E0B6EFF0E5F
:103DAA000C6E3AC00DF03BC00EF00B500D260C50B5
:103DBA000E22000E0D24D96E040E0E20DA6EFD0EB0
:103DCA000F6EFF0E106E3AC011F03BC012F00F508A
:103DDA00112610501222000E1124E16E040E122038
:103DEA00E26EDFCFE7FFFF0E0B6EFF0E0C6E3AC0DE
:103DFA000DF03BC00EF00B500D260C500E22000E9B
:103E0A000D24D96E040E0E20DA6EFE0E0F6EFF0E12
:103E1A00106E3AC011F03BC012F00F50112610502C
:103E2A001222000E1124E16E040E1220E26EDFCF80
:103E3A00E7FF000E3A24D96E040E3B20DA6EFF0E1D
:103E4A000B6EFF0E0C6E3AC00DF03BC00EF00B501D
:103E5A000D260C500E22000E0D24E16E040E0E20CB
:103E6A00E26EDFCFE7FF010E3A240B6E000E3B2015
:103E7A000C6E000E0B24D96E040E0C20DA6E000EA6
:103E8A003A24E16E040E3B20E26EDFCFE7FF020E1A
:103E9A003A240B6E000E3B200C6E000E0B24D96EDA
:103EAA00040E0C20DA6E010E3A240D6E000E3B2031
:103EBA000E6E000E0D24E16E040E0E20E26EDFCFB0
:103ECA00E7FF030E3A240B6E000E3B200C6E000E29
:103EDA000B24D96E040E0C20DA6E020E3A240D6EF3
:103EEA00000E3B200E6E000E0D24E16E040E0E2015
:103EFA00E26EDFCFE7FF030E3A240B6E000E3B2083
:103F0A000C6E000E0B24D96E040E0C20DA6E000E15
:103F1A00DF6E3A06D8A03B0693EF1FF0440E38181E
:103F2A003910D8A49BEF1FF09DEF1FF0A3EF1FF0ED
:103F3A00000E206E010E1F6EA3EF1FF07C0E3818C4
:103F4A003910D8A4ABEF1FF0ADEF1FF0B3EF1FF09D
:103F5A00000E206E000E1F6EB3EF1FF01F0420101C
:103F6A00D8A4BAEF1FF0BCEF1FF09CEF20F0030EAD
:103F7A0038240B6E000E39200C6E000E0B24D96EFD
:103F8A00040E0C20DA6E040E38240D6E000E392051
:103F9A000E6E000E0D24E16E040E0E20E26EDFCFCF
:103FAA00E7FF020E38240B6E000E39200C6E000E4D
:103FBA000B24D96E040E0C20DA6E030E38240D6E13
:103FCA00000E39200E6E000E0D24E16E040E0E2036
:103FDA00E26EDFCFE7FF010E38240B6E000E3920A8
:103FEA000C6E000E0B24D96E040E0C20DA6E020E33
:103FFA0038240D6E000E39200E6E000E0D24E16E6F
:10400A00040E0E20E26EDFCFE7FF000E3824D96ED1
:10401A00040E3920DA6E010E38240B6E000E392098
:10402A000C6E000E0B24E16E040E0C20E26EDFCF44
:10403A00E7FFFF0E0B6EFF0E0C6E38C00DF039C095
:10404A000EF00B500D260C500E22000E0D24D96EC8
:10405A00040E0E20DA6E000E3824E16E040E3920AA
:10406A00E26EDFCFE7FFFE0E0B6EFF0E0C6E38C05E
:10407A000DF039C00EF00B500D260C500E22000E1A
:10408A000D24D96E040E0E20DA6EFF0E0F6EFF0E8F
:10409A00106E38C011F039C012F00F5011261050AE
:1040AA001222000E1124E16E040E1220E26EDFCFFE
:1040BA00E7FFFD0E0B6EFF0E0C6E38C00DF039C017
:1040CA000EF00B500D260C500E22000E0D24D96E48
:1040DA00040E0E20DA6EFE0E0F6EFF0E106E38C042
:1040EA0011F039C012F00F50112610501222000E92
:1040FA001124E16E040E1220E26EDFCFE7FFFD0EFF
:10410A000B6EFF0E0C6E38C00DF039C00EF00B505E
:10411A000D260C500E22000E0D24D96E040E0E2010
:10412A00DA6E000EDF6E384A392A83EF21F0FD0E6F
:10413A000B6EFF0E0C6E38C00DF039C00EF00B502E
:10414A000D260C500E22000E0D24D96E040E0E20E0
:10415A00DA6EFC0E0F6EFF0E106E38C011F039C009
:10416A0012F00F50112610501222000E1124E16E87
:10417A00040E1220E26EDFCFE7FFFE0E0B6EFF0E7B
:10418A000C6E38C00DF039C00EF00B500D260C50D5
:10419A000E22000E0D24D96E040E0E20DA6EFD0ECC
:1041AA000F6EFF0E106E38C011F039C012F00F50AA
:1041BA00112610501222000E1124E16E040E122054
:1041CA00E26EDFCFE7FFFF0E0B6EFF0E0C6E38C0FC
:1041DA000DF039C00EF00B500D260C500E22000EB9
:1041EA000D24D96E040E0E20DA6EFE0E0F6EFF0E2F
:1041FA00106E38C011F039C012F00F50112610504D
:10420A001222000E1124E16E040E1220E26EDFCF9C
:10421A00E7FF000E3824D96E040E3920DA6EFF0E3D
:10422A000B6EFF0E0C6E38C00DF039C00EF00B503D
:10423A000D260C500E22000E0D24E16E040E0E20E7
:10424A00E26EDFCFE7FF010E38240B6E000E392035
:10425A000C6E000E0B24D96E040E0C20DA6E000EC2
:10426A003824E16E040E3920E26EDFCFE7FF020E3A
:10427A0038240B6E000E39200C6E000E0B24D96EFA
:10428A00040E0C20DA6E010E38240D6E000E392051
:10429A000E6E000E0D24E16E040E0E20E26EDFCFCC
:1042AA00E7FF030E38240B6E000E39200C6E000E49
:1042BA000B24D96E040E0C20DA6E020E38240D6E11
:1042CA00000E39200E6E000E0D24E16E040E0E2033
:1042DA00E26EDFCFE7FF030E38240B6E000E3920A3
:1042EA000C6E000E0B24D96E040E0C20DA6E000E32
:1042FA00DF6E3806D8A0390683EF21F0C00E3E18CB
:10430A003F10D8A48BEF21F08DEF21F093EF21F02D
:10431A00000E1E6E010E1D6E93EF21F0FC0E3E186C
:10432A003F10D8A49BEF21F09DEF21F0A3EF21F0DD
:10433A00000E1E6E000E1D6EA3EF21F01D041E104E
:10434A00D8A4AAEF21F0ACEF21F08CEF22F0030EF3
:10435A003E240B6E000E3F200C6E000E0B24D96E0D
:10436A00040E0C20DA6E040E3E240D6E000E3F2061
:10437A000E6E000E0D24E16E040E0E20E26EDFCFEB
:10438A00E7FF020E3E240B6E000E3F200C6E000E5D
:10439A000B24D96E040E0C20DA6E030E3E240D6E29
:1043AA00000E3F200E6E000E0D24E16E040E0E204C
:1043BA00E26EDFCFE7FF010E3E240B6E000E3F20B8
:1043CA000C6E000E0B24D96E040E0C20DA6E020E4F
:1043DA003E240D6E000E3F200E6E000E0D24E16E7F
:1043EA00040E0E20E26EDFCFE7FF000E3E24D96EE8
:1043FA00040E3F20DA6E010E3E240B6E000E3F20A3
:10440A000C6E000E0B24E16E040E0C20E26EDFCF60
:10441A00E7FFFF0E0B6EFF0E0C6E3EC00DF03FC0A5
:10442A000EF00B500D260C500E22000E0D24D96EE4
:10443A00040E0E20DA6E000E3E24E16E040E3F20BA
:10444A00E26EDFCFE7FFFE0E0B6EFF0E0C6E3EC074
:10445A000DF03FC00EF00B500D260C500E22000E30
:10446A000D24D96E040E0E20DA6EFF0E0F6EFF0EAB
:10447A00106E3EC011F03FC012F00F5011261050BE
:10448A001222000E1124E16E040E1220E26EDFCF1A
:10449A00E7FFFD0E0B6EFF0E0C6E3EC00DF03FC027
:1044AA000EF00B500D260C500E22000E0D24D96E64
:1044BA00040E0E20DA6EFE0E0F6EFF0E106E3EC058
:1044CA0011F03FC012F00F50112610501222000EA8
:1044DA001124E16E040E1220E26EDFCFE7FFFD0E1B
:1044EA000B6EFF0E0C6E3EC00DF03FC00EF00B506F
:1044FA000D260C500E22000E0D24D96E040E0E202D
:10450A00DA6E000EDF6E3E4A3F2A73EF23F0FD0E8D
:10451A000B6EFF0E0C6E3EC00DF03FC00EF00B503E
:10452A000D260C500E22000E0D24D96E040E0E20FC
:10453A00DA6EFC0E0F6EFF0E106E3EC011F03FC019
:10454A0012F00F50112610501222000E1124E16EA3
:10455A00040E1220E26EDFCFE7FFFE0E0B6EFF0E97
:10456A000C6E3EC00DF03FC00EF00B500D260C50E5
:10457A000E22000E0D24D96E040E0E20DA6EFD0EE8
:10458A000F6EFF0E106E3EC011F03FC012F00F50BA
:10459A00112610501222000E1124E16E040E122070
:1045AA00E26EDFCFE7FFFF0E0B6EFF0E0C6E3EC012
:1045BA000DF03FC00EF00B500D260C500E22000ECF
:1045CA000D24D96E040E0E20DA6EFE0E0F6EFF0E4B
:1045DA00106E3EC011F03FC012F00F50112610505D
:1045EA001222000E1124E16E040E1220E26EDFCFB9
:1045FA00E7FF000E3E24D96E040E3F20DA6EFF0E4E
:10460A000B6EFF0E0C6E3EC00DF03FC00EF00B504D
:10461A000D260C500E22000E0D24E16E040E0E2003
:10462A00E26EDFCFE7FF010E3E240B6E000E3F2045
:10463A000C6E000E0B24D96E040E0C20DA6E000EDE
:10464A003E24E16E040E3F20E26EDFCFE7FF020E4A
:10465A003E240B6E000E3F200C6E000E0B24D96E0A
:10466A00040E0C20DA6E010E3E240D6E000E3F2061
:10467A000E6E000E0D24E16E040E0E20E26EDFCFE8
:10468A00E7FF030E3E240B6E000E3F200C6E000E59
:10469A000B24D96E040E0C20DA6E020E3E240D6E27
:1046AA00000E3F200E6E000E0D24E16E040E0E2049
:1046BA00E26EDFCFE7FF030E3E240B6E000E3F20B3
:1046CA000C6E000E0B24D96E040E0C20DA6E000E4E
:1046DA00DF6E3E06D8A03F0673EF23F0400E361871
:1046EA003710D8A47BEF23F07DEF23F083EF23F07C
:1046FA00000E1A6E010E196E83EF23F0040E36189F
:10470A003710D8A48BEF23F08DEF23F093EF23F02B
:10471A00000E1A6E000E196E93EF23F019501A103C
:10472A00D8A49AEF23F09CEF23F07CEF24F0030E39
:10473A0036240B6E000E37200C6E000E0B24D96E39
:10474A00040E0C20DA6E040E36240D6E000E37208D
:10475A000E6E000E0D24E16E040E0E20E26EDFCF07
:10476A00E7FF020E36240B6E000E37200C6E000E89
:10477A000B24D96E040E0C20DA6E030E36240D6E4D
:10478A00000E37200E6E000E0D24E16E040E0E2070
:10479A00E26EDFCFE7FF010E36240B6E000E3720E4
:1047AA000C6E000E0B24D96E040E0C20DA6E020E6B
:1047BA0036240D6E000E37200E6E000E0D24E16EAB
:1047CA00040E0E20E26EDFCFE7FF000E3624D96E0C
:1047DA00040E3720DA6E010E36240B6E000E3720D7
:1047EA000C6E000E0B24E16E040E0C20E26EDFCF7D
:1047FA00E7FFFF0E0B6EFF0E0C6E36C00DF037C0D2
:10480A000EF00B500D260C500E22000E0D24D96E00
:10481A00040E0E20DA6E000E3624E16E040E3720E6
:10482A00E26EDFCFE7FFFE0E0B6EFF0E0C6E36C098
:10483A000DF037C00EF00B500D260C500E22000E54
:10484A000D24D96E040E0E20DA6EFF0E0F6EFF0EC7
:10485A00106E36C011F037C012F00F5011261050EA
:10486A001222000E1124E16E040E1220E26EDFCF36
:10487A00E7FFFD0E0B6EFF0E0C6E36C00DF037C053
:10488A000EF00B500D260C500E22000E0D24D96E80
:10489A00040E0E20DA6EFE0E0F6EFF0E106E36C07C
:1048AA0011F037C012F00F50112610501222000ECC
:1048BA001124E16E040E1220E26EDFCFE7FFFD0E37
:1048CA000B6EFF0E0C6E36C00DF037C00EF00B509B
:1048DA000D260C500E22000E0D24D96E040E0E2049
:1048EA00DA6E000EDF6E364A372A63EF25F0FD0EC8
:1048FA000B6EFF0E0C6E36C00DF037C00EF00B506B
:10490A000D260C500E22000E0D24D96E040E0E2018
:10491A00DA6EFC0E0F6EFF0E106E36C011F037C045
:10492A0012F00F50112610501222000E1124E16EBF
:10493A00040E1220E26EDFCFE7FFFE0E0B6EFF0EB3
:10494A000C6E36C00DF037C00EF00B500D260C5011
:10495A000E22000E0D24D96E040E0E20DA6EFD0E04
:10496A000F6EFF0E106E36C011F037C012F00F50E6
:10497A00112610501222000E1124E16E040E12208C
:10498A00E26EDFCFE7FFFF0E0B6EFF0E0C6E36C036
:10499A000DF037C00EF00B500D260C500E22000EF3
:1049AA000D24D96E040E0E20DA6EFE0E0F6EFF0E67
:1049BA00106E36C011F037C012F00F501126105089
:1049CA001222000E1124E16E040E1220E26EDFCFD5
:1049DA00E7FF000E3624D96E040E3720DA6EFF0E7A
:1049EA000B6EFF0E0C6E36C00DF037C00EF00B507A
:1049FA000D260C500E22000E0D24E16E040E0E2020
:104A0A00E26EDFCFE7FF010E36240B6E000E372071
:104A1A000C6E000E0B24D96E040E0C20DA6E000EFA
:104A2A003624E16E040E3720E26EDFCFE7FF020E76
:104A3A0036240B6E000E37200C6E000E0B24D96E36
:104A4A00040E0C20DA6E010E36240D6E000E37208D
:104A5A000E6E000E0D24E16E040E0E20E26EDFCF04
:104A6A00E7FF030E36240B6E000E37200C6E000E85
:104A7A000B24D96E040E0C20DA6E020E36240D6E4B
:104A8A00000E37200E6E000E0D24E16E040E0E206D
:104A9A00E26EDFCFE7FF030E36240B6E000E3720DF
:104AAA000C6E000E0B24D96E040E0C20DA6E000E6A
:104ABA00DF6E3606D8A0370663EF25F0000E3624DF
:104ACA00D96E040E3720DA6EDF50D8A46FEF25F0C6
:104ADA0071EF25F025EF2AF0030E36240B6E000E37
:104AEA0037200C6E000E0B24D96E040E0C20DA6EE1
:104AFA00DF50D8A483EF25F085EF25F025EF2AF0C3
:104B0A00020E36240B6E000E37200C6E000E0B249C
:104B1A00D96E040E0C20DA6EDF50D8A497EF25F078
:104B2A0099EF25F025EF2AF0010E36240B6E000EC0
:104B3A0037200C6E000E0B24D96E040E0C20DA6E90
:104B4A00DF50D8A4ABEF25F0ADEF25F025EF2AF022
:104B5A00FF0E0B6EFF0E0C6E36C00DF037C00EF056
:104B6A000B500D260C500E22000E0D24D96E040E89
:104B7A000E20DA6EDF50D8A4C5EF25F0C7EF25F076
:104B8A0025EF2AF0FE0E0B6EFF0E0C6E36C00DF0EE
:104B9A0037C00EF00B500D260C500E22000E0D24BD
:104BAA00D96E040E0E20DA6EDF50D8A4DFEF25F09E
:104BBA00E1EF25F025EF2AF0FD0E0B6EFF0E0C6ECD
:104BCA0036C00DF037C00EF00B500D260C500E22D9
:104BDA00000E0D24D96E040E0E20DA6EDF50D8A412
:104BEA00F9EF25F0FBEF25F025EF2AF0000E3E2421
:104BFA00D96E040E3F20DA6EDF50D8A407EF26F0F4
:104C0A0009EF26F025EF2AF0030E3E240B6E000E64
:104C1A003F200C6E000E0B24D96E040E0C20DA6EA7
:104C2A00DF50D8A41BEF26F01DEF26F025EF2AF05F
:104C3A00020E3E240B6E000E3F200C6E000E0B245B
:104C4A00D96E040E0C20DA6EDF50D8A42FEF26F0AE
:104C5A0031EF26F025EF2AF0010E3E240B6E000EEE
:104C6A003F200C6E000E0B24D96E040E0C20DA6E57
:104C7A00DF50D8A443EF26F045EF26F025EF2AF0BF
:104C8A00FF0E0B6EFF0E0C6E3EC00DF03FC00EF015
:104C9A000B500D260C500E22000E0D24D96E040E58
:104CAA000E20DA6EDF50D8A45DEF26F05FEF26F013
:104CBA0025EF2AF0FE0E0B6EFF0E0C6E3EC00DF0B5
:104CCA003FC00EF00B500D260C500E22000E0D2484
:104CDA00D96E040E0E20DA6EDF50D8A477EF26F0D4
:104CEA0079EF26F025EF2AF0FD0E0B6EFF0E0C6E03
:104CFA003EC00DF03FC00EF00B500D260C500E2298
:104D0A00000E0D24D96E040E0E20DA6EDF50D8A4E0
:104D1A0091EF26F093EF26F025EF2AF0000E3824C3
:104D2A00D96E040E3920DA6EDF50D8A49FEF26F030
:104D3A00A1EF26F025EF2AF0030E38240B6E000EA1
:104D4A0039200C6E000E0B24D96E040E0C20DA6E7C
:104D5A00DF50D8A4B3EF26F0B5EF26F025EF2AF0FE
:104D6A00020E38240B6E000E39200C6E000E0B2436
:104D7A00D96E040E0C20DA6EDF50D8A4C7EF26F0E5
:104D8A00C9EF26F025EF2AF0010E38240B6E000E2B
:104D9A0039200C6E000E0B24D96E040E0C20DA6E2C
:104DAA00DF50D8A4DBEF26F0DDEF26F025EF2AF05E
:104DBA00FF0E0B6EFF0E0C6E38C00DF039C00EF0F0
:104DCA000B500D260C500E22000E0D24D96E040E27
:104DDA000E20DA6EDF50D8A4F5EF26F0F7EF26F0B2
:104DEA0025EF2AF0FE0E0B6EFF0E0C6E38C00DF08A
:104DFA0039C00EF00B500D260C500E22000E0D2459
:104E0A00D96E040E0E20DA6EDF50D8A40FEF27F009
:104E1A0011EF27F025EF2AF0FD0E0B6EFF0E0C6E38
:104E2A0038C00DF039C00EF00B500D260C500E2272
:104E3A00000E0D24D96E040E0E20DA6EDF50D8A4AF
:104E4A0029EF27F02BEF27F025EF2AF0000E3A245E
:104E5A00D96E040E3B20DA6EDF50D8A437EF27F064
:104E6A0039EF27F025EF2AF0030E3A240B6E000ED5
:104E7A003B200C6E000E0B24D96E040E0C20DA6E49
:104E8A00DF50D8A44BEF27F04DEF27F025EF2AF09B
:104E9A00020E3A240B6E000E3B200C6E000E0B2401
:104EAA00D96E040E0C20DA6EDF50D8A45FEF27F01B
:104EBA0061EF27F025EF2AF0010E3A240B6E000E5F
:104ECA003B200C6E000E0B24D96E040E0C20DA6EF9
:104EDA00DF50D8A473EF27F075EF27F025EF2AF0FB
:104EEA00FF0E0B6EFF0E0C6E3AC00DF03BC00EF0BB
:104EFA000B500D260C500E22000E0D24D96E040EF6
:104F0A000E20DA6EDF50D8A48DEF27F08FEF27F04E
:104F1A0025EF2AF0FE0E0B6EFF0E0C6E3AC00DF056
:104F2A003BC00EF00B500D260C500E22000E0D2425
:104F3A00D96E040E0E20DA6EDF50D8A4A7EF27F040
:104F4A00A9EF27F025EF2AF0FD0E0B6EFF0E0C6E6F
:104F5A003AC00DF03BC00EF00B500D260C500E223D
:104F6A00000E0D24D96E040E0E20DA6EDF50D8A47E
:104F7A00C1EF27F0C3EF27F025EF2AF0000E2D6EC0
:104F8A00000E2C6E2DBED1EF27F0040E2D5CD8A09A
:104F9A00D1EF27F0D3EF27F0D7EF27F0EFEF27F085
:104FAA00EFEF27F0000E2C24D96E040E2D20DA6EB6
:104FBA00000EDF6E2C4A2D2A2DBEEBEF27F0040ED1
:104FCA002D5CD8A0EBEF27F0EDEF27F0D7EF27F015
:104FDA00EFEF27F00E0E32240B6E000E33200C6E0C
:104FEA00000E0B24D96E040E0C20DA6E1F0EDF6E33
:104FFA00070E32240D6E000E33200E6E000E0D24A5
:10500A00E16E040E0E20E26EDFCFE7FF0D0E3224B2
:10501A000B6E000E33200C6E000E0B24D96E040E9C
:10502A000C20DA6E200EDF6E080E32240D6E000E92
:10503A0033200E6E000E0D24E16E040E0E20E26E79
:10504A00DFCFE7FF0C0E32240B6E000E33200C6EFE
:10505A00000E0B24D96E040E0C20DA6E400EDF6EA1
:10506A00090E32240D6E000E33200E6E000E0D2432
:10507A00E16E040E0E20E26EDFCFE7FF0B0E322444
:10508A000B6E000E33200C6E000E0B24D96E040E2C
:10509A000C20DA6E800EDF6E0A0E32240D6E000EC0
:1050AA0033200E6E000E0D24E16E040E0E20E26E09
:1050BA00DFCFE7FF110E32240B6E000E33200C6E89
:1050CA00000E0B24D96E040E0C20DA6EFF0EDF6E72
:1050DA00100E32240D6E000E33200E6E000E0D24BB
:1050EA00E16E040E0E20E26EDFCFE7FF130E3224CC
:1050FA000B6E000E33200C6E000E0B24D96E040EBC
:10510A000C20DA6EFF0EDF6E170E32240B6E000EC5
:10511A0033200C6E000E0B24D96E040E0C20DA6EAE
:10512A00810EDF6E160E32240D6E000E33200E6EC7
:10513A00000E0D24E16E040E0E20E26EDFCFE7FFB3
:10514A00150E32240F6E000E3320106E000E0F243F
:10515A00D96E040E1020DA6EE7CFDFFF140E322468
:10516A00116E000E3320126E000E1124E16E040E31
:10517A001220E26EDFCFE7FF1F0E32240B6E000E05
:10518A0033200C6E000E0B24D96E040E0C20DA6E3E
:10519A00010EDF6E1E0E32240D6E000E33200E6ECF
:1051AA00000E0D24E16E040E0E20E26EDFCFE7FF43
:1051BA001D0E32240F6E000E3320106E000E0F24C7
:1051CA00D96E040E1020DA6EE7CFDFFF1B0E3224F1
:1051DA00116E000E3320126E000E1124E16E040EC1
:1051EA001220E26EDFCFE7FF1A0E3224136E000E92
:1051FA003320146E000E1324D96E040E1420DA6EB6
:10520A00E7CFDFFF190E3224156E000E3320166E1B
:10521A00000E1524E16E040E1620E26EDFCFE7FFC2
:10522A001C0E32240B6E000E33200C6E000E0B2463
:10523A00D96E040E0C20DA6EFF0EDF6E040E3224D5
:10524A00326E000E3320336E230E32240B6E000EA4
:10525A0033200C6E000E0B24D96E040E0C20DA6E6D
:10526A00FF0EDF6E1E0E32240D6E000E33200E6E00
:10527A00000E0D24E16E040E0E20E26EDFCFE7FF72
:10528A00220E32240B6E000E33200C6E000E0B24FD
:10529A00D96E040E0C20DA6E810EDF6E210E3224D6
:1052AA000D6E000E33200E6E000E0D24E16E040EFC
:1052BA000E20E26EDFCFE7FF200E32240F6E000EC3
:1052CA003320106E000E0F24D96E040E1020DA6EF1
:1052DA00E7CFDFFF1F0E3224116E000E3320126E4D
:1052EA00000E1124E16E040E1220E26EDFCFE7FFFA
:1052FA00020E3224326E000E3320336E250E322413
:10530A000B6E000E33200C6E000E0B24D96E040EA9
:10531A000C20DA6EFF0EDF6E240E32240D6E000EA4
:10532A0033200E6E000E0D24E16E040E0E20E26E86
:10533A00DFCFE7FF270E32240B6E000E33200C6EF0
:10534A00000E0B24D96E040E0C20DA6EFF0EDF6EEF
:10535A00280E32240B6E000E33200C6E000E0B2426
:10536A00D96E040E0C20DA6E110EDF6E290E32246D
:10537A000B6E000E33200C6E000E0B24D96E040E39
:10538A000C20DA6E310EDF6E2A0E32240B6E000EFE
:10539A0033200C6E000E0B24D96E040E0C20DA6E2C
:1053AA004A0EDF6E2B0E32240B6E000E33200C6E6B
:1053BA00000E0B24D96E040E0C20DA6E840EDF6EFA
:1053CA002D0E32240B6E000E33200C6E000E0B24B1
:1053DA00D96E040E0C20DA6EFF0EDF6E300E322408
:1053EA000B6E000E33200C6E000E0B24D96E040EC9
:1053FA000C20DA6E910EDF6E2F0E32240D6E000E27
:10540A0033200E6E000E0D24E16E040E0E20E26EA5
:10541A00DFCFE7FF2E0E32240F6E000E3320106E00
:10542A00000E0F24D96E040E1020DA6EE7CFDFFFCC
:10543A0025EF2AF025EF2AF025EF2AF025EF2AF0AA
:10544A00640E25182610D8A42DEF2AF02FEF2AF083
:10545A003DEF2AF0000E286E010E276E000E266E12
:10546A00000E256E3EC030F03FC031F03DEF2AF00D
:10547A00254A262A27042810D8A446EF2AF048EFFE
:10548A002AF05DEF2BF0000E3E24D96E040E3F2069
:10549A00DA6EDF50D8A454EF2AF056EF2AF0E4EF80
:1054AA002AF0030E3E240B6E000E3F200C6E000EF7
:1054BA000B24D96E040E0C20DA6EDF50D8A468EFE4
:1054CA002AF06AEF2AF0E4EF2AF0020E3E240B6E6D
:1054DA00000E3F200C6E000E0B24D96E040E0C2019
:1054EA00DA6EDF50D8A47CEF2AF07EEF2AF0E4EFE0
:1054FA002AF0010E3E240B6E000E3F200C6E000EA9
:10550A000B24D96E040E0C20DA6EDF50D8A490EF6B
:10551A002AF092EF2AF0E4EF2AF0FF0E0B6EFF0E4C
:10552A000C6E3EC00DF03FC00EF00B500D260C5015
:10553A000E22000E0D24D96E040E0E20DA6EDF50F4
:10554A00D8A4AAEF2AF0ACEF2AF0E4EF2AF0FE0E74
:10555A000B6EFF0E0C6E3EC00DF03FC00EF00B50EE
:10556A000D260C500E22000E0D24D96E040E0E20AC
:10557A00DA6EDF50D8A4C4EF2AF0C6EF2AF0E4EFBF
:10558A002AF0FD0E0B6EFF0E0C6E3EC00DF03FC0F2
:10559A000EF00B500D260C500E22000E0D24D96E63
:1055AA00040E0E20DA6EDF50D8A4DEEF2AF0E0EF08
:1055BA002AF0E4EF2AF02DEF2BF02DEF2BF0800EDE
:1055CA0030240B6E000E31200C6E000E0B24D96EA7
:1055DA00040E0C20DA6EFF0EDF6E810E30240B6E85
:1055EA00000E31200C6E000E0B24D96E040E0C2016
:1055FA00DA6EFF0EDF6E1B041C10D8A407EF2BF027
:10560A0009EF2BF021EF2BF0000E3024D96E040E97
:10561A003120DA6E000EDF6E010E30240B6E000EA2
:10562A0031200C6E000E0B24D96E040E0C20DA6E9B
:10563A00000EDF6E21EF2BF0000E1C6E010E1B6EAA
:10564A00800E3024306E000E3120316E2DEF2BF09B
:10565A0031BE39EF2BF0810E305C030E3158D8A0E1
:10566A0039EF2BF03BEF2BF05DEF2BF0000E3024DF
:10567A00D96E040E3120DA6E000EDF6E010E302470
:10568A000B6E000E31200C6E000E0B24D96E040E28
:10569A000C20DA6E000EDF6E000E286E000E276EEA
:1056AA00000E1C6E000E1B6E5DEF2BF05DEF2BF0F3
:1056BA0081AC62EF2BF064EF2BF06EEF2BF0000E53
:1056CA00246E010E236E3CC034F03DC035F06EEFFF
:1056DA002BF023042410D8A475EF2BF077EF2BF0CE
:1056EA00C2EF32F035BE85EF2BF0355007E1810E5F
:1056FA00345CD8B083EF2BF085EF2BF0B7EF2BF0AB
:10570A00000E3424D96E040E3520DA6E000EDF6ED8
:10571A00010E34240B6E000E35200C6E000E0B2485
:10572A00D96E040E0C20DA6E000EDF6EFF0E0B6EC1
:10573A00FF0E0C6E34C00DF035C00EF00B500D2666
:10574A000C500E22000E0D24D96E040E0E20DA6EB5
:10575A00000EDF6E000E246E000E236E000E2A6EFF
:10576A00000E296E800E0B6EFF0E0C6E34C00DF00B
:10577A0035C00EF00B500D260C500E22000E0D24D3
:10578A00D96E040E0E20DA6EDF50D8A4CFEF2BF0BC
:10579A00D1EF2BF043EF2CF07F0E0B6EFF0E0C6E49
:1057AA0034C00DF035C00EF00B500D260C500E22F1
:1057BA00000E0D24D96E040E0E20DA6EDF50D8A426
:1057CA00E9EF2BF0EBEF2BF043EF2CF0810E0B6E91
:1057DA00FF0E0C6E34C00DF035C00EF00B500D26C6
:1057EA000C500E22000E0D24D96E040E0E20DA6E15
:1057FA00DF50D8A403EF2CF005EF2CF043EF2CF088
:10580A00800E0B6EFF0E0C6E34C00DF035C00EF01C
:10581A000B500D260C500E22000E0D24D96E040ECC
:10582A000E20DA6EFF0EDF6E7F0E0B6EFF0E0C6E11
:10583A0034C00DF035C00EF00B500D260C500E2260
:10584A00000E0D24D96E040E0E20DA6EFF0EDF6EE6
:10585A00810E0B6EFF0E0C6E34C00DF035C00EF0CB
:10586A000B500D260C500E22000E0D24D96E040E7C
:10587A000E20DA6EFF0EDF6E35EF32F0800E0B6E01
:10588A00FF0E0C6E34C00DF035C00EF00B500D2615
:10589A000C500E22000E0D24D96E040E0E20DA6E64
:1058AA00DE28D8A45BEF2CF05DEF2CF0F9EF2CF09A
:1058BA007F0E0B6EFF0E0C6E34C00DF035C00EF06D
:1058CA000B500D260C500E22000E0D24D96E040E1C
:1058DA000E20DA6EDE28D8A475EF2CF077EF2CF0C4
:1058EA00F9EF2CF0810E0B6EFF0E0C6E34C00DF02A
:1058FA0035C00EF00B500D260C500E22000E0D2452
:10590A00D96E040E0E20DA6EDE28D8A48FEF2CF0A2
:10591A0091EF2CF0F9EF2CF0800E0B6EFF0E0C6E4F
:10592A0034C00DF035C00EF00B500D260C500E226F
:10593A00000E0D24D96E040E0E20DA6E000EDF6EF4
:10594A007F0E0B6EFF0E0C6E34C00DF035C00EF0DC
:10595A000B500D260C500E22000E0D24D96E040E8B
:10596A000E20DA6E000EDF6E810E0B6EFF0E0C6ECD
:10597A0034C00DF035C00EF00B500D260C500E221F
:10598A00000E0D24D96E040E0E20DA6E000EDF6EA4
:10599A00000E3424D96E040E3520DA6E000EDF6E46
:1059AA00010E34240B6E000E35200C6E000E0B24F3
:1059BA00D96E040E0C20DA6E000EDF6EFF0E0B6E2F
:1059CA00FF0E0C6E34C00DF035C00EF00B500D26D4
:1059DA000C500E22000E0D24D96E040E0E20DA6E23
:1059EA00000EDF6E35EF32F0800E0B6EFF0E0C6E7E
:1059FA0034C00DF035C00EF00B500D260C500E229F
:105A0A00030E36240F6E000E3720106E0D500F5CF9
:105A1A001050800A116E0E50800A1158D8A018EF43
:105A2A002DF01AEF2DF043EF2DF0FD0E0B6EFF0E49
:105A3A000C6E36C00DF037C00EF00B500D260C5010
:105A4A000E22800E0F6EFF0E106E34C011F035C09C
:105A5A0012F00F501126105012220D50115C1250E4
:105A6A00800A136E0E50800A1358D8B03FEF2DF0FB
:105A7A0041EF2DF0D7EF2DF043EF2DF0810E0B6E95
:105A8A00FF0E0C6E34C00DF035C00EF00B500D2613
:105A9A000C500E22030E36240F6E000E3720106EA5
:105AAA000D500F5C1050800A116E0E50800A11586A
:105ABA00D8A062EF2DF064EF2DF08DEF2DF0FD0EE2
:105ACA000B6EFF0E0C6E36C00DF037C00EF00B5089
:105ADA000D260C500E22810E0F6EFF0E106E34C072
:105AEA0011F035C012F00F501126105012220D502D
:105AFA00115C1250800A136E0E50800A1358D8B0E7
:105B0A0089EF2DF08BEF2DF0D7EF2DF08DEF2DF0E3
:105B1A007F0E0B6EFF0E0C6E34C00DF035C00EF00A
:105B2A000B500D260C500E22030E36240F6E000E5B
:105B3A003720106E0D500F5C1050800A116E0E50F7
:105B4A00800A1158D8A0ACEF2DF0AEEF2DF047EF38
:105B5A002EF0FD0E0B6EFF0E0C6E36C00DF037C028
:105B6A000EF00B500D260C500E227F0E0F6EFF0EFC
:105B7A00106E34C011F035C012F00F5011261050BB
:105B8A0012220D50115C1250800A136E0E50800AB8
:105B9A001358D8A0D3EF2DF0D5EF2DF047EF2EF004
:105BAA00D7EF2DF0000E3624D96E040E3720DA6EA8
:105BBA00000EDF6E010E36240B6E000E37200C6EBF
:105BCA00000E0B24D96E040E0C20DA6E000EDF6E66
:105BDA00020E36240B6E000E37200C6E000E0B24BC
:105BEA00D96E040E0C20DA6E000EDF6E030E362418
:105BFA000B6E000E37200C6E000E0B24D96E040EAD
:105C0A000C20DA6E000EDF6EFF0E0B6EFF0E0C6EAE
:105C1A0036C00DF037C00EF00B500D260C500E2278
:105C2A00000E0D24D96E040E0E20DA6E000EDF6E01
:105C3A00FE0E0B6EFF0E0C6E36C00DF037C00EF066
:105C4A000B500D260C500E22000E0D24D96E040E98
:105C5A000E20DA6E000EDF6EFD0E0B6EFF0E0C6E5E
:105C6A0036C00DF037C00EF00B500D260C500E2228
:105C7A00000E0D24D96E040E0E20DA6E000EDF6EB1
:105C8A0047EF2EF0800E0B6EFF0E0C6E34C00DF037
:105C9A0035C00EF00B500D260C500E22030E3E247A
:105CAA000F6E000E3F20106E0D500F5C1050800AD0
:105CBA00116E0E50800A1158D8A066EF2EF068EFC8
:105CCA002EF091EF2EF0FD0E0B6EFF0E0C6E3EC005
:105CDA000DF03FC00EF00B500D260C500E22800E18
:105CEA000F6EFF0E106E34C011F035C012F00F5057
:105CFA001126105012220D50115C1250800A136E98
:105D0A000E50800A1358D8B08DEF2EF08FEF2EF078
:105D1A0025EF2FF091EF2EF0810E0B6EFF0E0C6E19
:105D2A0034C00DF035C00EF00B500D260C500E226B
:105D3A00030E3E240F6E000E3F20106E0D500F5CB6
:105D4A001050800A116E0E50800A1158D8A0B0EF78
:105D5A002EF0B2EF2EF0DBEF2EF0FD0E0B6EFF0EE3
:105D6A000C6E3EC00DF03FC00EF00B500D260C50CD
:105D7A000E22810E0F6EFF0E106E34C011F035C068
:105D8A0012F00F501126105012220D50115C1250B1
:105D9A00800A136E0E50800A1358D8B0D7EF2EF02F
:105DAA00D9EF2EF025EF2FF0DBEF2EF07F0E0B6EE2
:105DBA00FF0E0C6E34C00DF035C00EF00B500D26E0
:105DCA000C500E22030E3E240F6E000E3F20106E62
:105DDA000D500F5C1050800A116E0E50800A115837
:105DEA00D8A0FAEF2EF0FCEF2EF095EF2FF0FD0E73
:105DFA000B6EFF0E0C6E3EC00DF03FC00EF00B5046
:105E0A000D260C500E227F0E0F6EFF0E106E34C040
:105E1A0011F035C012F00F501126105012220D50F9
:105E2A00115C1250800A136E0E50800A1358D8A0C3
:105E3A0021EF2FF023EF2FF095EF2FF025EF2FF022
:105E4A00000E3E24D96E040E3F20DA6E000EDF6E7D
:105E5A00010E3E240B6E000E3F200C6E000E0B242A
:105E6A00D96E040E0C20DA6E000EDF6E020E3E248E
:105E7A000B6E000E3F200C6E000E0B24D96E040E22
:105E8A000C20DA6E000EDF6E030E3E240B6E000E3F
:105E9A003F200C6E000E0B24D96E040E0C20DA6E15
:105EAA00000EDF6EFF0E0B6EFF0E0C6E3EC00DF085
:105EBA003FC00EF00B500D260C500E22000E0D2482
:105ECA00D96E040E0E20DA6E000EDF6EFE0E0B6E19
:105EDA00FF0E0C6E3EC00DF03FC00EF00B500D26AB
:105EEA000C500E22000E0D24D96E040E0E20DA6E0E
:105EFA00000EDF6EFD0E0B6EFF0E0C6E3EC00DF037
:105F0A003FC00EF00B500D260C500E22000E0D2431
:105F1A00D96E040E0E20DA6E000EDF6E95EF2FF0AA
:105F2A00800E0B6EFF0E0C6E34C00DF035C00EF0F5
:105F3A000B500D260C500E22030E38240F6E000E45
:105F4A003920106E0D500F5C1050800A116E0E50E1
:105F5A00800A1158D8A0B4EF2FF0B6EF2FF0DFEF78
:105F6A002FF0FD0E0B6EFF0E0C6E38C00DF039C00F
:105F7A000EF00B500D260C500E22800E0F6EFF0EE7
:105F8A00106E34C011F035C012F00F5011261050A7
:105F9A0012220D50115C1250800A136E0E50800AA4
:105FAA001358D8B0DBEF2FF0DDEF2FF073EF30F09E
:105FBA00DFEF2FF0810E0B6EFF0E0C6E34C00DF06A
:105FCA0035C00EF00B500D260C500E22030E38244D
:105FDA000F6E000E3920106E0D500F5C1050800AA3
:105FEA00116E0E50800A1158D8A0FEEF2FF000EF64
:105FFA0030F029EF30F0FD0E0B6EFF0E0C6E38C03C
:10600A000DF039C00EF00B500D260C500E22810EE9
:10601A000F6EFF0E106E34C011F035C012F00F5023
:10602A001126105012220D50115C1250800A136E64
:10603A000E50800A1358D8B025EF30F027EF30F011
:10604A0073EF30F029EF30F07F0E0B6EFF0E0C6EFF
:10605A0034C00DF035C00EF00B500D260C500E2238
:10606A00030E38240F6E000E3920106E0D500F5C8F
:10607A001050800A116E0E50800A1158D8A048EFAD
:10608A0030F04AEF30F0E3EF30F0FD0E0B6EFF0E0A
:10609A000C6E38C00DF039C00EF00B500D260C50A6
:1060AA000E227F0E0F6EFF0E106E34C011F035C037
:1060BA0012F00F501126105012220D50115C12507E
:1060CA00800A136E0E50800A1358D8A06FEF30F072
:1060DA0071EF30F0E3EF30F073EF30F0000E382458
:1060EA00D96E040E3920DA6E000EDF6E010E3824E6
:1060FA000B6E000E39200C6E000E0B24D96E040EA6
:10610A000C20DA6E000EDF6E020E38240B6E000EC3
:10611A0039200C6E000E0B24D96E040E0C20DA6E98
:10612A00000EDF6E030E38240B6E000E39200C6E43
:10613A00000E0B24D96E040E0C20DA6E000EDF6EF0
:10614A00FF0E0B6EFF0E0C6E38C00DF039C00EF04C
:10615A000B500D260C500E22000E0D24D96E040E83
:10616A000E20DA6E000EDF6EFE0E0B6EFF0E0C6E48
:10617A0038C00DF039C00EF00B500D260C500E220F
:10618A00000E0D24D96E040E0E20DA6E000EDF6E9C
:10619A00FD0E0B6EFF0E0C6E38C00DF039C00EF0FE
:1061AA000B500D260C500E22000E0D24D96E040E33
:1061BA000E20DA6E000EDF6EE3EF30F0800E0B6E0B
:1061CA00FF0E0C6E34C00DF035C00EF00B500D26CC
:1061DA000C500E22030E3A240F6E000E3B20106E56
:1061EA000D500F5C1050800A116E0E50800A115823
:1061FA00D8A002EF31F004EF31F02DEF31F0FD0EAF
:10620A000B6EFF0E0C6E3AC00DF03BC00EF00B5039
:10621A000D260C500E22800E0F6EFF0E106E34C02B
:10622A0011F035C012F00F501126105012220D50E5
:10623A00115C1250800A136E0E50800A1358D8B09F
:10624A0029EF31F02BEF31F0C1EF31F02DEF31F0C2
:10625A00810E0B6EFF0E0C6E34C00DF035C00EF0C1
:10626A000B500D260C500E22030E3A240F6E000E10
:10627A003B20106E0D500F5C1050800A116E0E50AC
:10628A00800A1158D8A04CEF31F04EEF31F077EF79
:10629A0031F0FD0E0B6EFF0E0C6E3AC00DF03BC0D6
:1062AA000EF00B500D260C500E22810E0F6EFF0EB3
:1062BA00106E34C011F035C012F00F501126105074
:1062CA0012220D50115C1250800A136E0E50800A71
:1062DA001358D8B073EF31F075EF31F0C1EF31F0E8
:1062EA0077EF31F07F0E0B6EFF0E0C6E34C00DF09F
:1062FA0035C00EF00B500D260C500E22030E3A2418
:10630A000F6E000E3B20106E0D500F5C1050800A6D
:10631A00116E0E50800A1158D8A096EF31F098EFFE
:10632A0031F035EF32F0FD0E0B6EFF0E0C6E3AC0F7
:10633A000DF03BC00EF00B500D260C500E227F0EB6
:10634A000F6EFF0E106E34C011F035C012F00F50F0
:10635A001126105012220D50115C1250800A136E31
:10636A000E50800A1358D8A0BDEF31F0BFEF31F0BC
:10637A0035EF32F0C1EF31F0000E3A24D96E040E37
:10638A003B20DA6E000EDF6E010E3A240B6E000E11
:10639A003B200C6E000E0B24D96E040E0C20DA6E14
:1063AA00000EDF6E020E3A240B6E000E3B200C6EBE
:1063BA00000E0B24D96E040E0C20DA6E000EDF6E6E
:1063CA00030E3A240B6E000E3B200C6E000E0B24BB
:1063DA00D96E040E0C20DA6E000EDF6EFF0E0B6E05
:1063EA00FF0E0C6E3AC00DF03BC00EF00B500D269E
:1063FA000C500E22000E0D24D96E040E0E20DA6EF9
:10640A00000EDF6EFE0E0B6EFF0E0C6E3AC00DF024
:10641A003BC00EF00B500D260C500E22000E0D2420
:10642A00D96E040E0E20DA6E000EDF6EFD0E0B6EB4
:10643A00FF0E0C6E3AC00DF03BC00EF00B500D264D
:10644A000C500E22000E0D24D96E040E0E20DA6EA8
:10645A00000EDF6E35EF32F035EF32F035EF32F005
:10646A0029042A10D8A43CEF32F03EEF32F06AEF4A
:10647A0032F0000E3424D96E040E3520DA6E000E86
:10648A00DF6E010E34240B6E000E35200C6E000EEA
:10649A000B24D96E040E0C20DA6E000EDF6EFF0E8E
:1064AA000B6EFF0E0C6E34C00DF035C00EF00B50A3
:1064BA000D260C500E22000E0D24D96E040E0E204D
:1064CA00DA6E000EDF6E6AEF32F0000E2A6E010EEF
:1064DA00296E800E3424346EFF0E3520356E000E80
:1064EA003C24D96E040E3D20DA6EFF0EDF6E010EDB
:1064FA003C240B6E000E3D200C6E000E0B24D96E50
:10650A00040E0C20DA6EFC0EDF6EFF0E0D6EFF0E0F
:10651A000E6E3CC00FF03DC010F00D500F260E500D
:10652A001022000E0F24E16E040E1020E26EDFCF5F
:10653A00E7FF020E3C240B6E000E3D200C6E000E8F
:10654A000B24D96E040E0C20DA6EF00EDF6EFE0EEE
:10655A000D6EFF0E0E6E3CC00FF03DC010F00D50D8
:10656A000F260E501022000E0F24E16E040E10208A
:10657A00E26EDFCFE7FFC2EF32F084A0C7EF32F05E
:10658A00C9EF32F07BEF33F03DBED7EF32F0FD0EAC
:10659A003C5C030E3D58D8B0D5EF32F0D7EF32F05D
:1065AA007BEF33F0020E3C240B6E000E3D200C6E86
:1065BA00000E0B24D96E040E0C20DA6E030E3C2456
:1065CA000D6E000E3D200E6E000E0D24E16E040EBF
:1065DA000E20E26EDFCFE7FF010E3C240B6E000EA9
:1065EA003D200C6E000E0B24D96E040E0C20DA6EC0
:1065FA00020E3C240D6E000E3D200E6E000E0D2480
:10660A00E16E040E0E20E26EDFCFE7FF000E3C249F
:10661A00D96E040E3D20DA6EFF0EDF6E010E3C24A9
:10662A000B6E000E3D200C6E000E0B24E16E040E64
:10663A000C20E26EDFCFE7FFFF0E0B6EFF0E0C6E33
:10664A003CC00DF03DC00EF00B500D260C500E2232
:10665A00000E0D24D96E040E0E20DA6E000E3C24B4
:10666A00E16E040E3D20E26EDFCFE7FFFE0E0B6EF9
:10667A00FF0E0C6E3CC00DF03DC00EF00B500D2607
:10668A000C500E22000E0D24D96E040E0E20DA6E66
:10669A00FF0E0F6EFF0E106E3CC011F03DC012F0DF
:1066AA000F50112610501222000E1124E16E040E12
:1066BA001220E26EDFCFE7FFFE0E0B6EFF0E0C6EAE
:1066CA003CC00DF03DC00EF00B500D260C500E22B2
:1066DA00000E0D24D96E040E0E20DA6E000EDF6E47
:1066EA003C4A3D2A7BEF33F07BEF33F084A280EF04
:1066FA0033F082EF33F03BEF34F03DBE8EEF33F0F0
:10670A00810E3C5C030E3D58D8A08EEF33F090EF1B
:10671A0033F03BEF34F0FE0E0B6EFF0E0C6E3CC0F6
:10672A000DF03DC00EF00B500D260C500E22000E3F
:10673A000D24D96E040E0E20DA6EFD0E0F6EFF0EBA
:10674A00106E3CC011F03DC012F00F5011261050CF
:10675A001222000E1124E16E040E1220E26EDFCF27
:10676A00E7FFFF0E0B6EFF0E0C6E3CC00DF03DC036
:10677A000EF00B500D260C500E22000E0D24D96E71
:10678A00040E0E20DA6EFE0E0F6EFF0E106E3CC067
:10679A0011F03DC012F00F50112610501222000EB7
:1067AA001124E16E040E1220E26EDFCFE7FF000E25
:1067BA003C24D96E040E3D20DA6EFF0EDF6EFF0E0A
:1067CA000B6EFF0E0C6E3CC00DF03DC00EF00B5070
:1067DA000D260C500E22000E0D24E16E040E0E2022
:1067EA00E26EDFCFE7FF010E3C240B6E000E3D2068
:1067FA000C6E000E0B24D96E040E0C20DA6E000EFD
:10680A003C24E16E040E3D20E26EDFCFE7FF020E6C
:10681A003C240B6E000E3D200C6E000E0B24D96E2C
:10682A00040E0C20DA6E010E3C240D6E000E3D2083
:10683A000E6E000E0D24E16E040E0E20E26EDFCF06
:10684A00E7FF020E3C240B6E000E3D200C6E000E7C
:10685A000B24D96E040E0C20DA6E000EDF6E3C0695
:10686A00D8A03D063BEF34F03BEF34F084A440EF70
:10687A0034F042EF34F0E5EF34F0AEEF34F0AEEF3F
:10688A0034F0000E3C24D96E040E3D20DA6E010E5F
:10689A00DF6EE5EF34F0000E3C24D96E040E3D2085
:1068AA00DA6E020EDF6EE5EF34F0000E3C24D96E8C
:1068BA00040E3D20DA6E040EDF6EE5EF34F0000EB2
:1068CA003C24D96E040E3D20DA6E080EDF6EE5EF29
:1068DA0034F0000E3C24D96E040E3D20DA6E100E00
:1068EA00DF6EE5EF34F0000E3C24D96E040E3D2035
:1068FA00DA6E200EDF6EE5EF34F0000E3C24D96E1E
:10690A00040E3D20DA6E400EDF6EE5EF34F0000E25
:10691A003C24D96E040E3D20DA6E800EDF6E000E26
:10692A003C24D96E040E3D20DA6E000EDF6E800E16
:10693A003C243C6E000E3D203D6E000E3C24D96E78
:10694A00040E3D20DA6E010EDF6EE5EF34F0E5EF5E
:10695A0034F0000E3C24D96E040E3D20DA6EDF506E
:10696A000B6E0C6A0C50000AD8B4BEEF34F0E5EF97
:10697A0034F00B50000AD8B446EF34F0010AD8B408
:10698A0050EF34F0030AD8B45AEF34F0060AD8B4F8
:10699A0064EF34F00C0AD8B46EEF34F0180AD8B4A5
:1069AA0078EF34F0300AD8B482EF34F0600AD8B401
:1069BA008CEF34F0C00AD8B494EF34F0E5EF34F039
:1069CA0081AEEAEF34F0ECEF34F03AEF1DF058EF15
:1069DA0035F058EF35F0000E3C24D96E040E3D20F8
:1069EA00DA6E800EDF6E3AEF1DF0000E3C24D96E8F
:1069FA00040E3D20DA6E400EDF6E3AEF1DF0000EF7
:106A0A003C24D96E040E3D20DA6E200EDF6E3AEF7A
:106A1A001DF0000E3C24D96E040E3D20DA6E100ED5
:106A2A00DF6E3AEF1DF0000E3C24D96E040E3D20B5
:106A3A00DA6E080EDF6E3AEF1DF0000E3C24D96EB6
:106A4A00040E3D20DA6E040EDF6E3AEF1DF0000EE2
:106A5A003C24D96E040E3D20DA6E020EDF6E3AEF48
:106A6A001DF0000E3C24D96E040E3D20DA6E010E94
:106A7A00DF6E000E3C24D96E040E3D20DA6E000E45
:106A8A00DF6E800E3C243C6EFF0E3D203D6E000EF4
:106A9A003C24D96E040E3D20DA6E800EDF6E3AEF8A
:106AAA001DF03AEF1DF0000E3C24D96E040E3D2075
:106ABA00DA6EDF500B6E0C6A0C50000AD8B468EF1D
:106ACA0035F03AEF1DF00B50000AD8B4F0EF34F06D
:106ADA00010AD8B43EEF35F0030AD8B436EF35F0E0
:106AEA00060AD8B42CEF35F00C0AD8B422EF35F0E8
:106AFA00180AD8B418EF35F0300AD8B40EEF35F0CA
:106B0A00600AD8B404EF35F0C00AD8B4FAEF34F00A
:106B1A003AEF1DF03AEF1DF03AEF1DF03AEF1DF093
:106B2A001200000000000000000000000000000049
:106B3A00000000000000000000000000000000004B
:106B4A00000000000000000000000000000000003B
:106B5A00000000000000000000000000000000002B
:106B6A00000000000000000000000000000000001B
:106B7A00000000000000000000000000000000000B
:106B8A0000000000000000000000000000000000FB
:106B9A0000000000000000000000000000000000EB
:106BAA0000000000000000000000000000000000DB
:106BBA0000000000000000000000000000000000CB
:106BCA0000000000000000000000000000000000BB
:106BDA0000000000000000000000000000000000AB
:106BEA00000000000000000000000000000000009B
:106BFA00000000000000000000000000000000008B
:106C0A00000000000000000000000000000000007A
:106C1A00000000000000000000000000000000006A
:106C2A00000000000000000000000000065F5F0690
:106C3A000000000007070007070000147F7F147F89
:106C4A007F1400242E6B6B3A120000466630180C33
:106C5A00666200307A4F5D377A4800040703000005
:106C6A00000000001C3E63410000000041633E1C1E
:106C7A00000000082A3E1C1C3E2A0808083E3E085E
:106C8A000800000080E0600000000008080808080A
:106C9A0008000000006060000000006030180C0668
:106CAA000301003E7F71594D7F3E0040427F7F4085
:106CBA00400000627359496F660000226349497FA8
:106CCA00360000181C16537F7F5000276745457D04
:106CDA003900003C7E4B4979300000030371790F7B
:106CEA00070000367F49497F360000064F49693F51
:106CFA001E000000006666000000000080E66600D4
:106D0A00000000081C3663410000002424242424C7
:106D1A00240000004163361C080000020351590F89
:106D2A000600003E7F415D5D1F1E007C7E13137EC0
:106D3A007C0000417F7F49497F36001C3E63414108
:106D4A00632200417F7F41633E1C00417F7F495D92
:106D5A00416300417F7F491D0103001C3E6341518D
:106D6A007372007F7F08087F7F000000417F7F41A8
:106D7A00000000307040417F3F0100417F7F081CC6
:106D8A00776300417F7F41406070007F7F0E1C0E59
:106D9A007F7F007F7F060C187F7F001C3E63416364
:106DAA003E1C00417F7F49090F06001E3F21717F6B
:106DBA005E0000417F7F09197F6600266F4D597377
:106DCA0032000003417F7F410300007F7F40407F04
:106DDA007F00001F3F60603F1F00007F7F30183038
:106DEA007F7F0043673C183C674300074F78784F22
:106DFA00070000476371594D677300007F7F414167
:106E0A000000000103060C183060000041417F7F3A
:106E1A00000000080C0603060C08008080808080B1
:106E2A008080800000030704000000207454543C52
:106E3A00784000417F3F4848783000387C44446CB1
:106E4A00280000307848493F7F4000387C54545C21
:106E5A00180000487E7F490302000098BCA4A4F8E9
:106E6A007C0400417F7F08047C780000447D7D40DB
:106E7A0000000060E08080FD7D0000417F7F1038C7
:106E8A006C440000417F7F400000007C7C18381C65
:106E9A007C78007C7C04047C780000387C44447C48
:106EAA0038000084FCF8A4243C1800183C24A4F8F8
:106EBA00FC8400447C784C041C1800485C545474CC
:106ECA0024000000043E7F442400003C7C40403CF7
:106EDA007C40001C3C60603C1C00003C7C703870AC
:106EEA007C3C00446C3810386C44009CBCA0A0FC6C
:106EFA007C00004C64745C4C64000008083E7741D6
:106F0A0041000000000077770000004141773E0809
:106F1A00080000020301030203010070784C464C8A
:106F2A007870000E9F91B1FB4A00003A7A40407A8D
:106F3A007A4000387C54555D190000022375555576
:106F4A007D7B42217554547D794000217555547CCE
:106F5A00784000207457577C784000183CA4A4E479
:106F6A00400000023B7D55555D1B02397D54545D3E
:106F7A00190000397D55545C18000001457C7C419C
:106F8A000100000203457D7D43020001457D7C40EE
:106F9A00000000797D1612167D790070782B2B7807
:106FAA00700000447C7C5555450000207454547C84
:106FBA007C54547C7E0B097F7F4900327B49497B94
:106FCA00320000327A48487A320000327A4A4878E7
:106FDA003000003A7B41417B7A40003A7A4240785D
:106FEA007840009ABAA0A0FA7A000001193C6666B5
:106FFA003C19013D7D40407D3D0000183C24E7E7F7
:10700A00242400687E7F49436620002B2FFCFC2F36
:10701A002B0000FFFF09092FF6F8A040C088FE7F69
:10702A00090302207454557D79400000447D7D4156
:10703A000000003078484A7A320000387840427AB4
:10704A007A40007A7A0A0A7A7000007D7D19317DC9
:10705A007D000000262F292F2F280000262F292FF8
:10706A0026000030784D45602000003838080808AE
:10707A0008000008080808383800004F6F3018CC9C
:10708A00EEBB914F6F30186C76FBF90000007B7BEA
:10709A00000000081C3622081C362222361C082250
:1070AA00361C08AA005500AA005500AA55AA55AAD6
:1070BA0055AA55DDFFAA77DDAAFF77000000FFFF7A
:1070CA00000000101010FFFF000000141414FFFF4E
:1070DA000000001010FFFF00FFFF001010F0F0107A
:1070EA00F0F000141414FCFC0000001414F7F7006C
:1070FA00FFFF000000FFFF00FFFF001414F4F40478
:10710A00FCFC0014141717101F1F0010101F1F106B
:10711A001F1F001414141F1F000000101010F0F09D
:10712A000000000000001F1F1010101010101F1F79
:10713A00101010101010F0F0101010000000FFFFD7
:10714A001010101010101010101010101010FFFF57
:10715A00101010000000FFFF1414140000FFFF00BD
:10716A00FFFF1000001F1F101717140000FCFC047B
:10717A00F4F41414141717101717141414F4F4044D
:10718A00F4F4140000FFFF00F7F714141414141495
:10719A001414141414F7F700F7F714141414171727
:1071AA0014141410101F1F101F1F10141414F4F4B9
:1071BA001414141010F0F010F0F01000001F1F103B
:1071CA001F1F100000001F1F141414000000FCFCF5
:1071DA001414140000F0F010F0F0101010FFFF105B
:1071EA00FFFF10141414FFFF1414141010101F1FA3
:1071FA00000000000000F0F0101010FFFFFFFFFF7A
:10720A00FFFFFFF0F0F0F0F0F0F0F0FFFFFFFF00FB
:10721A0000000000000000FFFFFFFF0F0F0F0F0F1D
:10722A000F0F0F387C446C386C4400FCFE2A2A3E4F
:10723A001400007E7E020206060000027E7E027EA6
:10724A007E020063775D4963630000387C447C3CBE
:10725A0004040080FE7E20203E1E000406027E7C7E
:10726A0006020099BDE7E7BD9900001C3E6B496B19
:10727A003E1C004C7E7301737E4C0030784A4F7D71
:10728A00390000183C243C3C243C1898FC643C3EE1
:10729A00273D180000000000000000000000000068
:1072AA0000000000000000000000000000000000D4
:1072BA0000000000000000000000000000000000C4
:1072CA0000000000000000000000000000000000B4
:1072DA0000000000000000000000000000000000A4
:1072EA000000000000000000000000000000000094
:1072FA000000000000000000000000000000000084
:10730A000000000000000000000000000000000073
:10731A000000000000000000000000000000000063
:10732A000000000000000000000000000000000053
:10733A000000000000000000000000000000000043
:10734A000000000000000000000000000000000033
:10735A00000000000000E0F0C8CCC4C2E2E2F2FE85
:10736A00FEFEFCB00000000000000000000000006B
:10737A000000000000000000000000000000000003
:10738A0000000000000000000000000000000000F3
:10739A0000000000000000000000000000000000E3
:1073AA0000000000000000000000000000000000D3
:1073BA0000000000000000000000000000000000C3
:1073CA0000000000000000000000000000000000B3
:1073DA00000000000083CF5F3F3F3F3F3F3F3F3FFA
:1073EA001F3F3F3F7F788000000000000000000040
:1073FA000000000000000000000000000000000083
:10740A000000000000000000000000000000000072
:10741A000000000000000000000000000000000062
:10742A000000000000000000000000000000000052
:10743A000000000000000000000000000000000042
:10744A000000000000000000000000000000000032
:10745A000080C0884261F04280000800006022007B
:10746A000800000000000103BC0080E0F0F8FCFC0A
:10747A00ECF6F078383818181808000000000000F8
:10748A0000000000000000000000000000000000F2
:10749A0000000000000000000000000000000000E2
:1074AA0000000000000000000000000000000000D2
:1074BA0000000000000000000000000000000000C2
:1074CA00000000000000000000000000000000FCB6
:1074DA00038382C6FAFAFCFCFAFFE201000000010B
:1074EA0000000000000000F00708FFFFFFFFFFFF99
:1074FA00FFDFCFCF8F0F0F0F0E1C183000000000D8
:10750A000000000000000000000000000000000071
:10751A000000000000000000000000000000000061
:10752A000000000000000000000000000000000051
:10753A000000000000000000000000000000000041
:10754A00000000000000000000000000608E01043E
:10755A000F1F1F0F0F1F3F3F3F3F1F030000000079
:10756A000020001000080808090A082B2B3337FFEF
:10757A00030303071F7F1000000000000000000043
:10758A0000000000000000000000000000000000F1
:10759A0000000000000000000000000000000000E1
:1075AA0000000000000000000000000000000000D1
:1075BA0000000000000000000000000000000000C1
:1075CA000000000000000000000000000007083072
:1075DA0060C0800000000000000000000000000001
:1075EA0040800000000000008080C060341A05035B
:1075FA000000000000000000000000000000000081
:10760A000000000000000000000000000000000070
:10761A000000000000000000000000000000000060
:10762A000000000000000000000000000000000050
:10763A000000000000000000000000000000000040
:10764A000000000000000000000000000000000030
:10765A000000008182868C9C1428E8F8102040C023
:10766A00C0402011090505050201000000000000C4
:10767A000000000000000000000000000000000000
:10768A0000000000000000000000000000000000F0
:10769A0000000000000000000000000000000000E0
:1076AA0000000000000000000000000000000000D0
:1076BA0000000000000000000000000000000000C0
:1076CA0000000000000000000000000000000000B0
:1076DA000000030207050404050D0E1B3B6B4763FC
:1076EA0063263A12121C000000000000000000008D
:1076FA000000000000000000000000000000000080
:10770A00000000000000000000000000000000006F
:10771A00000000000000000000000000000000005F
:10772A00000000000000000000000000000000004F
:107B2A00000000FFFFFFFFFFFFFFFFFFFFFFFFFF58
:107B3A00FFFFFFFFFFFFFFFFFFFFFFFFFFFFFFFF4B
:107B4A00FFFFFFFFFFFFFFFFFFFFFFFFFFFFFFFF3B
:107B5A00FFFFFFFFFFFFFFFFFFFFFFFFFFFFFFFF2B
:107B6A00FFFFFFFFFFFFFFFFFFFFFFFFFFFFFFFF1B
:107F1A00FFFFFF000000000000000000000000005A
:107F2A00000000000000005C000C000C7C287C7C37
:107F3A00447C241048285408000C00384400443873
:107F4A000020100810381080400010101000400067
:107F5A00201008384438007C006454484454281CD3
:107F6A00107C4C542438542004740C285428085487
:107F7A00380050008050001028442828284428102F
:107F8A00045408384C5C7814787C54283844447C6F
:107F9A0044387C54447C14043844347C107C007C7F
:107FAA000020403C7C106C7C40407C087C7C047C3B
:107FBA007C447C7C14083844787C14684854240433
:107FCA007C047C407C3C403C7C207C6C106C1C60BB
:107FDA001C64544C7C4400081020447C00080408AB
:107FEA00808080040800496E76616465720053706F
:057FFA00616365000059
:020000040020DA
:08000000FFFFFFFFFFFFFFFF00
:020000040030CA
:0E000000000C191EFF8381FF0FC00FE00F40A0
:00000001FF
