:020000040000FA
:0400000043EF15F0C5
:102A860004EE00F014EE00F0EE6AE550E150FCE1D1
:102A9600E250FAE1496A486A000EF86E00013BEF1F
:102AA60017F00F0EC16E000EC26E000E926E000E73
:102AB600936E000E946E000E956E000E966E000ECE
:102AC600806E000E816E000E826E000E836E000E0A
:102AD600846E1200026E0250D8B474EF15F076EFD1
:102AE60015F07AEF15F08A808A927EEF15F08A92B9
:102AF6008A827EEF15F0000E956E8A9601C08CFFD5
:102B06008A8800D08A9800D08A908A921200B0EF04
:102B160015F00E50D8B492EF15F094EF15F0A0EF23
:102B260015F00FC003F00CC0F6FF0DC0F7FF08004C
:102B3600F550A5EC16F0ACEF15F00FC003F00CC085
:102B4600F6FF0DC0F7FF0800F550D1EC17F0ACEF1B
:102B560015F00C4A0D2AB0EF15F00CC0F6FF0DC0AB
:102B6600F7FF0800F5500009D8A4BCEF15F0BEEF3A
:102B760015F08CEF15F0C0EF15F01200056E000E83
:102B8600046E800E0560CAEF15F0CCEF15F0F8EF75
:102B960015F0070E0364D2EF15F0D4EF15F0D8EF59
:102BA60015F0F8EF15F0F8EF15F005C049F003C081
:102BB60048F03F0E0564E2EF15F0E4EF15F0EAEF9A
:102BC60015F0400E055E010E046EEAEF15F08A94CC
:102BD60005504009016E04506DEC15F00350B8091C
:102BE600016E04506DEC15F08A841200066E000E1C
:102BF600836E8A9A210EE82EFED700F08A8A8A987A
:102C06008A908A928A9400D0C00E016E000E6DECF6
:102C160015F0C00E016E010E6DEC15F0400E016E42
:102C2600000E6DEC15F0400E016E010E6DEC15F008
:102C3600B80E016E000E6DEC15F0B80E016E010EA9
:102C46006DEC15F00604D8A42BEF16F02DEF16F058
:102C560039EF16F03F0E016E000E6DEC15F03F0ECB
:102C6600016E010E6DEC15F045EF16F03E0E016E8D
:102C7600000E6DEC15F03E0E016E010E6DEC15F0BA
:102C860045EF16F0000E49EC16F01200036E000E2A
:102C9600056E070E056452EF16F054EF16F058EF66
:102CA60016F0A4EF16F0A4EF16F08A94400E016E0B
:102CB600000E6DEC15F0400E016E010E6DEC15F078
:102CC6000550B809016E000E6DEC15F00550B809F7
:102CD600016E010E6DEC15F08A84000E046E3F0E37
:102CE600046478EF16F07AEF16F07EEF16F099EF9F
:102CF60016F099EF16F00350010DF3500008016E1F
:102D0600000E6DEC15F00350010DF3500008016E36
:102D1600010E6DEC15F0042A3F0E046495EF16F0D3
:102D260097EF16F07EEF16F099EF16F0052A070ECC
:102D36000564A0EF16F0A2EF16F058EF16F0A4EF18
:102D460016F01200086E000E0B6E0A0E0818D8A4B4
:102D5600AFEF16F0B1EF16F0B8EF16F0000E496EB1
:102D6600482A3AEF17F03AEF17F03F0E4964BEEFE4
:102D760016F0C0EF16F0C7EF16F0010E0B6E4950B5
:102D8600C00F096ECBEF16F049C009F0CBEF16F075
:102D96000850080DF3CF06F0F4CF07F0000E0A6EC8
:102DA600070E0A64D9EF16F0DBEF16F0DFEF16F028
:102DB60038EF17F038EF17F03F0E0964E5EF16F01D
:102DC600E7EF16F0FBEF16F0400E095E010E0B6EF4
:102DD6008A9409504009016E0B506DEC15F048506D
:102DE600B809016E0B506DEC15F08A84FBEF16F0F6
:102DF6000350D8B401EF17F003EF17F017EF17F0F1
:102E06000A500624046E000E0720056E010E0424E7
:102E1600F66E6B0E0520F76E0800F5CF01F00B502D
:102E26006DEC15F02CEF17F00A500624046E000E18
:102E36000720056E010E0424F66E6B0E0520F76E54
:102E46000800F550FF0A016E0B506DEC15F02CEFE3
:102E560017F0092A0A2A070E0A6434EF17F036EF2C
:102E660017F0DFEF16F038EF17F0080E49261200BC
:102E7600000E846E000E456E000E446E000E476E08
:102E8600000E466E54EC15F0010EF9EC15F0010E2D
:102E9600036E0A0EC1EC15F0D30E0C6E7F0E0D6E8E
:102EA600010E0E6E010E0F6E8AEC15F0060E436EC5
:102EB600130E426EAE0EE82EFED7422EFCD7432EE0
:102EC600FAD7030E036E1E0EC1EC15F0F60E0C6E4D
:102ED6007F0E0D6E010E0E6E010E0F6E8AEC15F052
:102EE600050E036E0A0EC1EC15F0340E426EF20E9C
:102EF600E82EFED7422EFCD7C40E0C6E7F0E0D6E4A
:102F0600010E0E6E010E0F6E8AEC15F0070E036EA3
:102F16001E0EC1EC15F0EC0E0C6E7F0E0D6E010E42
:102F26000E6E010E0F6E8AEC15F0070E436E170E2D
:102F3600426E6A0EE82EFED7422EFCD7432EFAD7F3
:102F460000D0000EF9EC15F0010EF9EC15F0040EA8
:102F5600036E140EC1EC15F0E10E0C6E7F0E0D6EB5
:102F6600010E0E6E010E0F6E8AEC15F0050E436E05
:102F76000F0E426EF10EE82EFED7422EFCD7432EE0
:102F8600FAD700F0000EF9EC15F0010EF9EC15F089
:102F960073EC18F0CDEF17F000EF00F0076E000E9F
:102FA600096E0A0E0718D8A4DBEF17F0DDEF17F04D
:102FB600E4EF17F0000E496E482A72EF18F072EF30
:102FC60018F03F0E4964EAEF17F0ECEF17F0F3EF55
:102FD60017F0010E096E4950C00F066EF7EF17F095
:102FE60049C006F0F7EF17F0200E075E000E086ED8
:102FF600020E086401EF18F003EF18F007EF18F05F
:1030060070EF18F070EF18F03F0E06640DEF18F031
:103016000FEF18F023EF18F0400E065E010E096E52
:103026008A9406504009016E09506DEC15F048501F
:10303600B809016E09506DEC15F08A8423EF18F07B
:103046000350D8B429EF18F02BEF18F047EF18F01B
:103056000750030D010E046E7F0E056EF350042615
:10306600F45005220850010DF3500426F4500522B1
:1030760004C0F6FF05C0F7FF0800F5CF01F00950C0
:103086006DEC15F064EF18F00750030D010E046E99
:103096007F0E056EF3500426F45005220850010DEC
:1030A600F3500426F450052204C0F6FF05C0F7FFCE
:1030B6000800F550FF0A016E09506DEC15F064EF3B
:1030C60018F0062A082A020E08646CEF18F06EEF54
:1030D60018F007EF18F070EF18F0050E49261200E9
:1030E600030E3F6EE80E3E6E000E376E050E366E10
:1030F600000E396EFC0E386E000E3B6E7B0E3A6E7D
:10310600000E3D6E850E3C6E000E126E000E116EA8
:10311600000E276E000E266E000E146E000E136E45
:10312600000E166E000E156E000E186E000E176E4F
:10313600000E1A6E000E196E000E2F6E000E2E6E09
:10314600010E416EA20E406E000E1C6E000E1B6E2E
:10315600000E206E000E1F6E000E316E000E306ED9
:10316600000E336E000E326E000E1E6E000E1D6EC9
:10317600000E226E010E216E000E296E010E286EC3
:10318600000E246E010E236E000E2B6E010E2A6EAB
:10319600000E3624D96E040E3720DA6E3C0EDF6E32
:1031A600010E3624036E000E3720046E000E032433
:1031B600D96E040E0420DA6EB40EDF6EFF0E056EB5
:1031C600FF0E066E36C007F037C008F0055007261A
:1031D60006500822000E0724E16E040E0820E26E57
:1031E600DFCFE7FF020E3624036E000E3720046E93
:1031F600000E0324D96E040E0420DA6ECA0EDF6EAA
:10320600FE0E056EFF0E066E36C007F037C008F0DC
:103216000550072606500822000E0724E16E040E0C
:103226000820E26EDFCFE7FF030E3624036E000EA2
:103236003720046E000E0324D96E040E0420DA6EC5
:10324600190EDF6EFD0E056EFF0E066E36C007F018
:1032560037C008F00550072606500822000E07243E
:10326600E16E040E0820E26EDFCFE7FF000E382481
:10327600D96E040E3920DA6E3C0EDF6E010E38244C
:10328600036E000E3920046E000E0324D96E040E60
:103296000420DA6EB40EDF6EFF0E056EFF0E066EAC
:1032A60038C007F039C008F0055007260650082236
:1032B600000E0724E16E040E0820E26EDFCFE7FF62
:1032C600020E3824036E000E3920046E000E03240D
:1032D600D96E040E0420DA6ECA0EDF6EFE0E056E7F
:1032E600FF0E066E38C007F039C008F005500726F5
:1032F60006500822000E0724E16E040E0820E26E36
:10330600DFCFE7FF030E3824036E000E3920046E6C
:10331600000E0324D96E040E0420DA6E190EDF6E39
:10332600FD0E056EFF0E066E38C007F039C008F0B8
:103336000550072606500822000E0724E16E040EEB
:103346000820E26EDFCFE7FF000E3A24D96E040EA6
:103356003B20DA6E3C0EDF6E010E3A24036E000E41
:103366003B20046E000E0324D96E040E0420DA6E90
:10337600B40EDF6EFF0E056EFF0E066E3AC007F046
:103386003BC008F00550072606500822000E072409
:10339600E16E040E0820E26EDFCFE7FF020E3A244C
:1033A600036E000E3B20046E000E0324D96E040E3D
:1033B6000420DA6ECA0EDF6EFE0E056EFF0E066E76
:1033C6003AC007F03BC008F0055007260650082211
:1033D600000E0724E16E040E0820E26EDFCFE7FF41
:1033E600030E3A24036E000E3B20046E000E0324E7
:1033F600D96E040E0420DA6E190EDF6EFD0E056E10
:10340600FF0E066E3AC007F03BC008F005500726CF
:1034160006500822000E0724E16E040E0820E26E14
:10342600DFCFE7FF000E3C24D96E040E3D20DA6E96
:103436003C0EDF6E010E3C24036E000E3D20046E32
:10344600000E0324D96E040E0420DA6EB40EDF6E6D
:10345600FF0E056EFF0E066E3CC007F03DC008F07D
:103466000550072606500822000E0724E16E040EBA
:103476000820E26EDFCFE7FF020E3C24036E000E4B
:103486003D20046E000E0324D96E040E0420DA6E6D
:10349600CA0EDF6EFE0E056EFF0E066E3CC007F00E
:1034A6003DC008F00550072606500822000E0724E6
:1034B600E16E040E0820E26EDFCFE7FF030E3C2428
:1034C600036E000E3D20046E000E0324D96E040E1A
:1034D6000420DA6E190EDF6EFD0E056EFF0E066E07
:1034E6003CC007F03DC008F00550072606500822EC
:1034F600000E0724E16E040E0820E26EDFCFE7FF20
:10350600000E3E24D96E040E3F20DA6EFF0EDF6EEB
:10351600010E3E24036E000E3F20046E000E0324AF
:10352600D96E040E0420DA6EFC0EDF6EFF0E056EF9
:10353600FF0E066E3EC007F03FC008F00550072696
:1035460006500822000E0724E16E040E0820E26EE3
:10355600DFCFE7FF020E3E24036E000E3F20046E0F
:10356600000E0324D96E040E0420DA6EF00EDF6E10
:10357600FE0E056EFF0E066E3EC007F03FC008F059
:103586000550072606500822000E0724E16E040E99
:103596000820E26EDFCFE7FFD1EF1AF0000E106EC3
:1035A600000E0F6E000E2C6E070E2C64DDEF1AF067
:1035B600DFEF1AF0E3EF1AF038EF1BF038EF1BF0ED
:1035C600000E2D6E010E2D64EBEF1AF0EDEF1AF0E2
:1035D600F1EF1AF02FEF1BF02FEF1BF08A94400E3D
:1035E600016E2D506DEC15F02C50B809016E2D5062
:1035F6006DEC15F08A84000E256E3F0E256406EFED
:103606001BF008EF1BF00CEF1BF024EF1BF024EF70
:103616001BF0000E0F24D96E040E1020DA6EDF5058
:10362600016E2D506DEC15F00F4A102A252A3F0E1B
:10363600256420EF1BF022EF1BF00CEF1BF024EFAC
:103646001BF02D2A010E2D642BEF1BF02DEF1BF026
:10365600F1EF1AF02FEF1BF02C2A070E2C6436EF31
:103666001BF038EF1BF0E3EF1AF08A908A922A508B
:103676002B10D8B441EF1BF043EF1BF035EF1DF0D4
:10368600BD0E3C183D10D8A44BEF1BF04DEF1BF0C0
:1036960053EF1BF0000E186E010E176E53EF1BF062
:1036A600840E3C183D10D8A45BEF1BF05DEF1BF0B9
:1036B60063EF1BF0000E186E000E176E63EF1BF023
:1036C60017501810D8A46AEF1BF06CEF1BF04CEFE4
:1036D6001CF0030E3C24036E000E3D20046E000E0B
:1036E6000324D96E040E0420DA6E040E3C24056E03
:1036F600000E3D20066E000E0524E16E040E062027
:10370600E26EDFCFE7FF020E3C24036E000E3D2083
:10371600046E000E0324D96E040E0420DA6E030E26
:103726003C24056E000E3D20066E000E0524E16E5B
:10373600040E0620E26EDFCFE7FF010E3C24036E87
:10374600000E3D20046E000E0324D96E040E0420E4
:10375600DA6E020E3C24056E000E3D20066E000E4B
:103766000524E16E040E0620E26EDFCFE7FF000EB1
:103776003C24D96E040E3D20DA6E010E3C24036E05
:10378600000E3D20046E000E0324E16E040E04209C
:10379600E26EDFCFE7FFFF0E036EFF0E046E3CC046
:1037A60005F03DC006F00350052604500622000E23
:1037B6000524D96E040E0620DA6E000E3C24E16E56
:1037C600040E3D20E26EDFCFE7FFFE0E036EFF0E16
:1037D600046E3CC005F03DC006F0035005260450BB
:1037E6000622000E0524D96E040E0620DA6EFF0EA0
:1037F600076EFF0E086E3CC009F03DC00AF0075088
:10380600092608500A22000E0924E16E040E0A2039
:10381600E26EDFCFE7FFFD0E036EFF0E046E3CC0C7
:1038260005F03DC006F00350052604500622000EA2
:103836000524D96E040E0620DA6EFE0E076EFF0E04
:10384600086E3CC009F03DC00AF007500926085032
:103856000A22000E0924E16E040E0A20E26EDFCF72
:10386600E7FFFD0E036EFF0E046E3CC005F03DC083
:1038760006F00350052604500622000E0524D96ED4
:10388600040E0620DA6E000EDF6E3C4A3D2A35EF46
:103896001DF0FD0E036EFF0E046E3CC005F03DC02C
:1038A60006F00350052604500622000E0524D96EA4
:1038B600040E0620DA6EFC0E076EFF0E086E3CC084
:1038C60009F03DC00AF00750092608500A22000EEA
:1038D6000924E16E040E0A20E26EDFCFE7FFFE0E3A
:1038E600036EFF0E046E3CC005F03DC006F00350AB
:1038F600052604500622000E0524D96E040E062065
:10390600DA6EFD0E076EFF0E086E3CC009F03DC074
:103916000AF00750092608500A22000E0924E16E13
:10392600040E0A20E26EDFCFE7FFFF0E036EFF0EE6
:10393600046E3CC005F03DC006F003500526045059
:103946000622000E0524D96E040E0620DA6EFE0E3F
:10395600076EFF0E086E3CC009F03DC00AF0075026
:10396600092608500A22000E0924E16E040E0A20D8
:10397600E26EDFCFE7FF000E3C24D96E040E3D2039
:10398600DA6EFF0E036EFF0E046E3CC005F03DC0FE
:1039960006F00350052604500622000E0524E16EAB
:1039A600040E0620E26EDFCFE7FF010E3C24036E15
:1039B600000E3D20046E000E0324D96E040E042072
:1039C600DA6E000E3C24E16E040E3D20E26EDFCF7F
:1039D600E7FF020E3C24036E000E3D20046E000E2F
:1039E6000324D96E040E0420DA6E010E3C24056E03
:1039F600000E3D20066E000E0524E16E040E062024
:103A0600E26EDFCFE7FF030E3C24036E000E3D207F
:103A1600046E000E0324D96E040E0420DA6E020E24
:103A26003C24056E000E3D20066E000E0524E16E58
:103A3600040E0620E26EDFCFE7FF030E3C24036E82
:103A4600000E3D20046E000E0324D96E040E0420E1
:103A5600DA6E000EDF6E3C06D8A03D0635EF1DF08F
:103A660035EF1DF023502410D8B43CEF1DF03EEF87
:103A76001DF030EF1FF0440E3A183B10D8A446EF65
:103A86001DF048EF1DF04EEF1DF0000E166E010EF4
:103A9600156E4EEF1DF07C0E3A183B10D8A456EF6B
:103AA6001DF058EF1DF05EEF1DF0000E166E000EB5
:103AB600156E5EEF1DF015041610D8A465EF1DF007
:103AC60067EF1DF047EF1EF0030E3A24036E000E5B
:103AD6003B20046E000E0324D96E040E0420DA6E19
:103AE600040E3A24056E000E3B20066E000E0524D9
:103AF600E16E040E0620E26EDFCFE7FF020E3A24E7
:103B0600036E000E3B20046E000E0324D96E040ED5
:103B16000420DA6E030E3A24056E000E3B20066E74
:103B2600000E0524E16E040E0620E26EDFCFE7FFED
:103B3600010E3A24036E000E3B20046E000E032491
:103B4600D96E040E0420DA6E020E3A24056E000EBB
:103B56003B20066E000E0524E16E040E0620E26E82
:103B6600DFCFE7FF000E3A24D96E040E3B20DA6E53
:103B7600010E3A24036E000E3B20046E000E032451
:103B8600E16E040E0420E26EDFCFE7FFFF0E036E48
:103B9600FF0E046E3AC005F03BC006F00350052642
:103BA60004500622000E0524D96E040E0620DA6E95
:103BB600000E3A24E16E040E3B20E26EDFCFE7FFF3
:103BC600FE0E036EFF0E046E3AC005F03BC006F013
:103BD6000350052604500622000E0524D96E040E55
:103BE6000620DA6EFF0E076EFF0E086E3AC009F069
:103BF6003BC00AF00750092608500A22000E092485
:103C0600E16E040E0A20E26EDFCFE7FFFD0E036EC3
:103C1600FF0E046E3AC005F03BC006F003500526C1
:103C260004500622000E0524D96E040E0620DA6E14
:103C3600FE0E076EFF0E086E3AC009F03BC00AF092
:103C46000750092608500A22000E0924E16E040EC8
:103C56000A20E26EDFCFE7FFFD0E036EFF0E046E55
:103C66003AC005F03BC006F0035005260450062274
:103C7600000E0524D96E040E0620DA6E000EDF6EE5
:103C86003A4A3B2A30EF1FF0FD0E036EFF0E046E1C
:103C96003AC005F03BC006F0035005260450062244
:103CA600000E0524D96E040E0620DA6EFC0E076E91
:103CB600FF0E086E3AC009F03BC00AF0075009260D
:103CC60008500A22000E0924E16E040E0A20E26E54
:103CD600DFCFE7FFFE0E036EFF0E046E3AC005F05F
:103CE6003BC006F00350052604500622000E0524AC
:103CF600D96E040E0620DA6EFD0E076EFF0E086EF4
:103D06003AC009F03BC00AF00750092608500A22BB
:103D1600000E0924E16E040E0A20E26EDFCFE7FFF3
:103D2600FF0E036EFF0E046E3AC005F03BC006F0B0
:103D36000350052604500622000E0524D96E040EF3
:103D46000620DA6EFE0E076EFF0E086E3AC009F008
:103D56003BC00AF00750092608500A22000E092423
:103D6600E16E040E0A20E26EDFCFE7FF000E3A2472
:103D7600D96E040E3B20DA6EFF0E036EFF0E046E44
:103D86003AC005F03BC006F0035005260450062253
:103D9600000E0524E16E040E0620E26EDFCFE7FF7B
:103DA600010E3A24036E000E3B20046E000E03241F
:103DB600D96E040E0420DA6E000E3A24E16E040E6B
:103DC6003B20E26EDFCFE7FF020E3A24036E000EC1
:103DD6003B20046E000E0324D96E040E0420DA6E16
:103DE600010E3A24056E000E3B20066E000E0524D9
:103DF600E16E040E0620E26EDFCFE7FF030E3A24E3
:103E0600036E000E3B20046E000E0324D96E040ED2
:103E16000420DA6E020E3A24056E000E3B20066E72
:103E2600000E0524E16E040E0620E26EDFCFE7FFEA
:103E3600030E3A24036E000E3B20046E000E03248C
:103E4600D96E040E0420DA6E000EDF6E3A06D8A094
:103E56003B0630EF1FF030EF1FF028502910D8B482
:103E660037EF1FF039EF1FF02BEF21F0C00E381897
:103E76003910D8A441EF1FF043EF1FF049EF1FF0B0
:103E8600000E146E010E136E49EF1FF0FC0E38186B
:103E96003910D8A451EF1FF053EF1FF059EF1FF060
:103EA600000E146E000E136E59EF1FF0130414105B
:103EB600D8A460EF1FF062EF1FF042EF20F0030E70
:103EC6003824036E000E3920046E000E0324D96ECA
:103ED600040E0420DA6E040E3824056E000E392016
:103EE600066E000E0524E16E040E0620E26EDFCF9C
:103EF600E7FF020E3824036E000E3920046E000E12
:103F06000324D96E040E0420DA6E030E3824056EDF
:103F1600000E3920066E000E0524E16E040E062002
:103F2600E26EDFCFE7FF010E3824036E000E392064
:103F3600046E000E0324D96E040E0420DA6E020EFF
:103F46003824056E000E3920066E000E0524E16E3B
:103F5600040E0620E26EDFCFE7FF000E3824D96E8E
:103F6600040E3920DA6E010E3824036E000E392055
:103F7600046E000E0324E16E040E0420E26EDFCF11
:103F8600E7FFFF0E036EFF0E046E38C005F039C062
:103F960006F00350052604500622000E0524D96EAD
:103FA600040E0620DA6E000E3824E16E040E392067
:103FB600E26EDFCFE7FFFE0E036EFF0E046E38C023
:103FC60005F039C006F00350052604500622000EFF
:103FD6000524D96E040E0620DA6EFF0E076EFF0E5C
:103FE600086E38C009F039C00AF007500926085093
:103FF6000A22000E0924E16E040E0A20E26EDFCFCB
:10400600E7FFFD0E036EFF0E046E38C005F039C0E3
:1040160006F00350052604500622000E0524D96E2C
:10402600040E0620DA6EFE0E076EFF0E086E38C00E
:1040360009F039C00AF00750092608500A22000E76
:104046000924E16E040E0A20E26EDFCFE7FFFD0EC3
:10405600036EFF0E046E38C005F039C006F003503B
:10406600052604500622000E0524D96E040E0620ED
:10407600DA6E000EDF6E384A392A2BEF21F0FD0E7C
:10408600036EFF0E046E38C005F039C006F003500B
:10409600052604500622000E0524D96E040E0620BD
:1040A600DA6EFC0E076EFF0E086E38C009F039C0D6
:1040B6000AF00750092608500A22000E0924E16E6C
:1040C600040E0A20E26EDFCFE7FFFE0E036EFF0E40
:1040D600046E38C005F039C006F0035005260450BA
:1040E6000622000E0524D96E040E0620DA6EFD0E99
:1040F600076EFF0E086E38C009F039C00AF0075087
:10410600092608500A22000E0924E16E040E0A2030
:10411600E26EDFCFE7FFFF0E036EFF0E046E38C0C0
:1041260005F039C006F00350052604500622000E9D
:104136000524D96E040E0620DA6EFE0E076EFF0EFB
:10414600086E38C009F039C00AF007500926085031
:104156000A22000E0924E16E040E0A20E26EDFCF69
:10416600E7FF000E3824D96E040E3920DA6EFF0EF2
:10417600036EFF0E046E38C005F039C006F003501A
:10418600052604500622000E0524E16E040E0620C4
:10419600E26EDFCFE7FF010E3824036E000E3920F2
:1041A600046E000E0324D96E040E0420DA6E000E8F
:1041B6003824E16E040E3920E26EDFCFE7FF020EEF
:1041C6003824036E000E3920046E000E0324D96EC7
:1041D600040E0420DA6E010E3824056E000E392016
:1041E600066E000E0524E16E040E0620E26EDFCF99
:1041F600E7FF030E3824036E000E3920046E000E0E
:104206000324D96E040E0420DA6E020E3824056EDD
:10421600000E3920066E000E0524E16E040E0620FF
:10422600E26EDFCFE7FF030E3824036E000E39205F
:10423600046E000E0324D96E040E0420DA6E000EFE
:10424600DF6E3806D8A039062BEF21F02BEF21F0D0
:1042560021502210D8B432EF21F034EF21F026EFAE
:1042660023F0400E36183710D8A43CEF21F03EEF6D
:1042760021F044EF21F0000E126E010E116E44EF94
:1042860021F0040E36183710D8A44CEF21F04EEF6B
:1042960021F054EF21F0000E126E000E116E54EF55
:1042A60021F011501210D8A45BEF21F05DEF21F040
:1042B6003DEF22F0030E3624036E000E3720046E07
:1042C600000E0324D96E040E0420DA6E040E362482
:1042D600056E000E3720066E000E0524E16E040EF4
:1042E6000620E26EDFCFE7FF020E3624036E000ED5
:1042F6003720046E000E0324D96E040E0420DA6EF5
:10430600030E3624056E000E3720066E000E0524B9
:10431600E16E040E0620E26EDFCFE7FF010E3624C3
:10432600036E000E3720046E000E0324D96E040EB1
:104336000420DA6E020E3624056E000E3720066E55
:10434600000E0524E16E040E0620E26EDFCFE7FFC5
:10435600000E3624D96E040E3720DA6E010E36248E
:10436600036E000E3720046E000E0324E16E040E69
:104376000420E26EDFCFE7FFFF0E036EFF0E046E32
:1043860036C005F037C006F0035005260450062255
:10439600000E0524D96E040E0620DA6E000E3624B1
:1043A600E16E040E3720E26EDFCFE7FFFE0E036EEE
:1043B600FF0E046E36C005F037C006F00350052622
:1043C60004500622000E0524D96E040E0620DA6E6D
:1043D600FF0E076EFF0E086E36C009F037C00AF0F2
:1043E6000750092608500A22000E0924E16E040E21
:1043F6000A20E26EDFCFE7FFFD0E036EFF0E046EAE
:1044060036C005F037C006F00350052604500622D4
:10441600000E0524D96E040E0620DA6EFE0E076E17
:10442600FF0E086E36C009F037C00AF0075009269D
:1044360008500A22000E0924E16E040E0A20E26EDC
:10444600DFCFE7FFFD0E036EFF0E046E36C005F0EC
:1044560037C006F00350052604500622000E052438
:10446600D96E040E0620DA6E000EDF6E364A372A43
:1044760026EF23F0FD0E036EFF0E046E36C005F028
:1044860037C006F00350052604500622000E052408
:10449600D96E040E0620DA6EFC0E076EFF0E086E4D
:1044A60036C009F037C00AF00750092608500A221C
:1044B600000E0924E16E040E0A20E26EDFCFE7FF4C
:1044C600FE0E036EFF0E046E36C005F037C006F012
:1044D6000350052604500622000E0524D96E040E4C
:1044E6000620DA6EFD0E076EFF0E086E36C009F066
:1044F60037C00AF00750092608500A22000E092480
:10450600E16E040E0A20E26EDFCFE7FFFF0E036EB8
:10451600FF0E046E36C005F037C006F003500526C0
:1045260004500622000E0524D96E040E0620DA6E0B
:10453600FE0E076EFF0E086E36C009F037C00AF091
:104546000750092608500A22000E0924E16E040EBF
:104556000A20E26EDFCFE7FF000E3624D96E040E86
:104566003720DA6EFF0E036EFF0E046E36C005F0BE
:1045760037C006F00350052604500622000E052417
:10458600E16E040E0620E26EDFCFE7FF010E362451
:10459600036E000E3720046E000E0324D96E040E3F
:1045A6000420DA6E000E3624E16E040E3720E26E29
:1045B600DFCFE7FF020E3624036E000E3720046EAF
:1045C600000E0324D96E040E0420DA6E010E362482
:1045D600056E000E3720066E000E0524E16E040EF1
:1045E6000620E26EDFCFE7FF030E3624036E000ED1
:1045F6003720046E000E0324D96E040E0420DA6EF2
:10460600020E3624056E000E3720066E000E0524B7
:10461600E16E040E0620E26EDFCFE7FF030E3624BE
:10462600036E000E3720046E000E0324D96E040EAE
:104636000420DA6E000EDF6E3606D8A0370626EFA7
:1046460023F026EF23F0000E3624D96E040E372011
:10465600DA6EDF50D8A432EF23F034EF23F0E8EF20
:1046660027F0030E3624036E000E3720046E000E6C
:104676000324D96E040E0420DA6EDF50D8A446EF68
:1046860023F048EF23F0E8EF27F0020E3624036EFE
:10469600000E3720046E000E0324D96E040E04208B
:1046A600DA6EDF50D8A45AEF23F05CEF23F0E8EF80
:1046B60027F0010E3624036E000E3720046E000E1E
:1046C6000324D96E040E0420DA6EDF50D8A46EEFF0
:1046D60023F070EF23F0E8EF27F0FF0E036EFF0ED6
:1046E600046E36C005F037C006F0035005260450A8
:1046F6000622000E0524D96E040E0620DA6EDF505F
:10470600D8A488EF23F08AEF23F0E8EF27F0FE0E17
:10471600036EFF0E046E36C005F037C006F0035078
:10472600052604500622000E0524D96E040E062026
:10473600DA6EDF50D8A4A2EF23F0A4EF23F0E8EF5F
:1047460027F0FD0E036EFF0E046E36C005F037C06F
:1047560006F00350052604500622000E0524D96EE5
:10476600040E0620DA6EDF50D8A4BCEF23F0BEEFAD
:1047760023F0E8EF27F0000E3824D96E040E392016
:10478600DA6EDF50D8A4CAEF23F0CCEF23F0E8EFBF
:1047960027F0030E3824036E000E3920046E000E37
:1047A6000324D96E040E0420DA6EDF50D8A4DEEF9F
:1047B60023F0E0EF23F0E8EF27F0020E3824036E33
:1047C600000E3920046E000E0324D96E040E042058
:1047D600DA6EDF50D8A4F2EF23F0F4EF23F0E8EF1F
:1047E60027F0010E3824036E000E3920046E000EE9
:1047F6000324D96E040E0420DA6EDF50D8A406EF27
:1048060024F008EF24F0E8EF27F0FF0E036EFF0E0A
:10481600046E38C005F039C006F003500526045072
:104826000622000E0524D96E040E0620DA6EDF502D
:10483600D8A420EF24F022EF24F0E8EF27F0FE0EB4
:10484600036EFF0E046E38C005F039C006F0035043
:10485600052604500622000E0524D96E040E0620F5
:10486600DA6EDF50D8A43AEF24F03CEF24F0E8EFFC
:1048760027F0FD0E036EFF0E046E38C005F039C03A
:1048860006F00350052604500622000E0524D96EB4
:10489600040E0620DA6EDF50D8A454EF24F056EF4B
:1048A60024F0E8EF27F0000E3A24D96E040E3B20E0
:1048B600DA6EDF50D8A462EF24F064EF24F0E8EF5C
:1048C60027F0030E3A24036E000E3B20046E000E02
:1048D6000324D96E040E0420DA6EDF50D8A476EFD6
:1048E60024F078EF24F0E8EF27F0020E3A24036E66
:1048F600000E3B20046E000E0324D96E040E042025
:10490600DA6EDF50D8A48AEF24F08CEF24F0E8EFBB
:1049160027F0010E3A24036E000E3B20046E000EB3
:104926000324D96E040E0420DA6EDF50D8A49EEF5D
:1049360024F0A0EF24F0E8EF27F0FF0E036EFF0E41
:10494600046E3AC005F03BC006F00350052604503D
:104956000622000E0524D96E040E0620DA6EDF50FC
:10496600D8A4B8EF24F0BAEF24F0E8EF27F0FE0E53
:10497600036EFF0E046E3AC005F03BC006F003500E
:10498600052604500622000E0524D96E040E0620C4
:10499600DA6EDF50D8A4D2EF24F0D4EF24F0E8EF9B
:1049A60027F0FD0E036EFF0E046E3AC005F03BC005
:1049B60006F00350052604500622000E0524D96E83
:1049C600040E0620DA6EDF50D8A4ECEF24F0EEEFEA
:1049D60024F0E8EF27F0000E3C24D96E040E3D20AB
:1049E600DA6EDF50D8A4FAEF24F0FCEF24F0E8EFFB
:1049F60027F0030E3C24036E000E3D20046E000ECD
:104A06000324D96E040E0420DA6EDF50D8A40EEF0C
:104A160025F010EF25F0E8EF27F0020E3C24036E98
:104A2600000E3D20046E000E0324D96E040E0420F1
:104A3600DA6EDF50D8A422EF25F024EF25F0E8EF58
:104A460027F0010E3C24036E000E3D20046E000E7E
:104A56000324D96E040E0420DA6EDF50D8A436EF94
:104A660025F038EF25F0E8EF27F0FF0E036EFF0E76
:104A7600046E3CC005F03DC006F003500526045008
:104A86000622000E0524D96E040E0620DA6EDF50CB
:104A9600D8A450EF25F052EF25F0E8EF27F0FE0EF0
:104AA600036EFF0E046E3CC005F03DC006F00350D9
:104AB600052604500622000E0524D96E040E062093
:104AC600DA6EDF50D8A46AEF25F06CEF25F0E8EF38
:104AD60027F0FD0E036EFF0E046E3CC005F03DC0D0
:104AE60006F00350052604500622000E0524D96E52
:104AF600040E0620DA6EDF50D8A484EF25F086EF88
:104B060025F0E8EF27F0000E2F6E000E2E6E2FBE5A
:104B160094EF25F0040E2F5CD8A094EF25F096EFC5
:104B260025F09AEF25F0B2EF25F0B2EF25F0000E52
:104B36002E24D96E040E2F20DA6E000EDF6E2E4A5A
:104B46002F2A2FBEAEEF25F0040E2F5CD8A0AEEFB5
:104B560025F0B0EF25F09AEF25F0B2EF25F00E0E16
:104B66004024036E000E4120046E000E0324D96E0D
:104B7600040E0420DA6E1F0EDF6E070E4024056E4B
:104B8600000E4120066E000E0524E16E040E06207E
:104B9600E26EDFCFE7FF0D0E4024036E000E4120CC
:104BA600046E000E0324D96E040E0420DA6E200E65
:104BB600DF6E080E4024056E000E4120066E000EC4
:104BC6000524E16E040E0620E26EDFCFE7FF0C0E31
:104BD6004024036E000E4120046E000E0324D96E9D
:104BE600040E0420DA6E400EDF6E090E4024056EB8
:104BF600000E4120066E000E0524E16E040E06200E
:104C0600E26EDFCFE7FF0B0E4024036E000E41205D
:104C1600046E000E0324D96E040E0420DA6E800E94
:104C2600DF6E0A0E4024056E000E4120066E000E51
:104C36000524E16E040E0620E26EDFCFE7FF110EBB
:104C46004024036E000E4120046E000E0324D96E2C
:104C5600040E0420DA6EFF0EDF6E100E4024056E81
:104C6600000E4120066E000E0524E16E040E06209D
:104C7600E26EDFCFE7FF130E4024036E000E4120E5
:104C8600046E000E0324D96E040E0420DA6EFF0EA5
:104C9600DF6E170E4024036E000E4120046E000ED8
:104CA6000324D96E040E0420DA6E810EDF6E160E12
:104CB6004024056E000E4120066E000E0524E16EAE
:104CC600040E0620E26EDFCFE7FF150E4024076EC6
:104CD600000E4120086E000E0724D96E040E08202F
:104CE600DA6EE7CFDFFF140E4024096E000E412076
:104CF6000A6E000E0924E16E040E0A20E26EDFCF72
:104D0600E7FF1F0E4024036E000E4120046E000EC6
:104D16000324D96E040E0420DA6E010EDF6E1E0E19
:104D26004024056E000E4120066E000E0524E16E3D
:104D3600040E0620E26EDFCFE7FF1D0E4024076E4D
:104D4600000E4120086E000E0724D96E040E0820BE
:104D5600DA6EE7CFDFFF1B0E4024096E000E4120FE
:104D66000A6E000E0924E16E040E0A20E26EDFCF01
:104D7600E7FF1A0E40240B6E000E41200C6E000E4B
:104D86000B24D96E040E0C20DA6EE7CFDFFF190E66
:104D960040240D6E000E41200E6E000E0D24E16EB5
:104DA600040E0E20E26EDFCFE7FF1C0E4024036EDA
:104DB600000E4120046E000E0324D96E040E04205A
:104DC600DA6EFF0EDF6E040E4024406E000E4120A8
:104DD600416E230E4024036E000E4120046E000E29
:104DE6000324D96E040E0420DA6EFF0EDF6E1E0E4B
:104DF6004024056E000E4120066E000E0524E16E6D
:104E0600040E0620E26EDFCFE7FF220E4024036E7B
:104E1600000E4120046E000E0324D96E040E0420F9
:104E2600DA6E810EDF6E210E4024056E000E4120E3
:104E3600066E000E0524E16E040E0620E26EDFCF3C
:104E4600E7FF200E4024076E000E4120086E000E7C
:104E56000724D96E040E0820DA6EE7CFDFFF1F0E97
:104E66004024096E000E41200A6E000E0924E16EF0
:104E7600040E0A20E26EDFCFE7FF020E4024406EEA
:104E8600000E4120416E250E4024036E000E412087
:104E9600046E000E0324D96E040E0420DA6EFF0E93
:104EA600DF6E240E4024056E000E4120066E000EB5
:104EB6000524E16E040E0620E26EDFCFE7FF270E23
:104EC6004024036E000E4120046E000E0324D96EAA
:104ED600040E0420DA6EFF0EDF6E280E4024036EE9
:104EE600000E4120046E000E0324D96E040E042029
:104EF600DA6E110EDF6E290E4024036E000E41207D
:104F0600046E000E0324D96E040E0420DA6E310EF0
:104F1600DF6E2A0E4024036E000E4120046E000E42
:104F26000324D96E040E0420DA6E4A0EDF6E2B0EB1
:104F36004024036E000E4120046E000E0324D96E39
:104F4600040E0420DA6E840EDF6E2D0E4024036EEE
:104F5600000E4120046E000E0324D96E040E0420B8
:104F6600DA6EFF0EDF6E300E4024036E000E412017
:104F7600046E000E0324D96E040E0420DA6E910E20
:104F8600DF6E2F0E4024056E000E4120066E000EC9
:104F96000524E16E040E0620E26EDFCFE7FF2E0E3B
:104FA6004024076E000E4120086E000E0724D96EBD
:104FB600040E0820DA6EE7CFDFFFE8EF27F0E8EF10
:104FC60027F0E8EF27F0E8EF27F0640E1B181C1017
:104FD600D8A4F0EF27F0F2EF27F04EEF28F0000EFE
:104FE600206E010E1F6E000E1C6E000E1B6E2850EA
:104FF6002910D8B401EF28F003EF28F009EF28F0C4
:1050060038C030F039C031F023EF28F0285029108D
:10501600D8A410EF28F012EF28F023EF28F0235041
:105026002410D8B419EF28F01BEF28F023EF28F04E
:105036003AC030F03BC031F023EF28F023EF28F0E0
:105046002A502B10D8B42AEF28F02CEF28F032EF94
:1050560028F03CC032F03DC033F04EEF28F02A5025
:105066002B10D8A439EF28F03BEF28F04EEF28F0AC
:1050760021502210D8B442EF28F044EF28F04EEF2A
:1050860028F036C032F037C033F04EEF28F04EEF3E
:1050960028F04EEF28F01B4A1C2A1F042010D8A423
:1050A60057EF28F059EF28F03FEF29F0800E322411
:1050B600036E000E3320046E000E0324D96E040E18
:1050C6000420DA6EFF0EDF6E810E3224036E000EB0
:1050D6003320046E000E0324D96E040E0420DA6E0B
:1050E600FF0EDF6E26042710D8A47CEF28F07EEF93
:1050F60028F094EF28F0000E3224D96E040E3320E7
:10510600DA6E000EDF6E010E3224036E000E3320BF
:10511600046E000E0324D96E040E0420DA6E000E0F
:10512600DF6E800E3024036E000E3120046E000EFA
:105136000324D96E040E0420DA6EFF0EDF6E810E94
:105146003024036E000E3120046E000E0324D96E47
:10515600040E0420DA6EFF0EDF6E26042710D8A494
:10516600B7EF28F0B9EF28F0D1EF28F0000E302481
:10517600D96E040E3120DA6E000EDF6E010E302479
:10518600036E000E3120046E000E0324D96E040E49
:105196000420DA6E000EDF6ED1EF28F0000E276EC7
:1051A600010E266E800E3024306E000E3120316ED8
:1051B600800E3224326E000E3320336E31BEEDEF98
:1051C60028F0810E305C030E3158D8A0EDEF28F0A0
:1051D600EFEF28F00FEF29F0000E3024D96E040E01
:1051E6003120DA6E000EDF6E010E3024036E000EE3
:1051F6003120046E000E0324D96E040E0420DA6EEC
:10520600000EDF6E000E206E000E1F6E000E276E63
:10521600000E266E0FEF29F033BE1BEF29F0810E2C
:10522600325C030E3358D8A01BEF29F01DEF29F08E
:105236003FEF29F0000E3224D96E040E3320DA6EC9
:10524600000EDF6E010E3224036E000E3320046E54
:10525600000E0324D96E040E0420DA6E000EDF6EF3
:10526600000E206E000E1F6E000E276E000E266EBC
:105276003FEF29F03FEF29F081AC44EF29F046EFEC
:1052860029F050EF29F0000E1A6E010E196E3EC07D
:1052960034F03FC035F050EF29F019041A10D8A4A5
:1052A60057EF29F059EF29F0B4EF30F035BE67EF2C
:1052B60029F0355007E1810E345CD8B065EF29F04E
:1052C60067EF29F099EF29F0000E3424D96E040E09
:1052D6003520DA6E000EDF6E010E3424036E000EEA
:1052E6003520046E000E0324D96E040E0420DA6EF7
:1052F600000EDF6EFF0E036EFF0E046E34C005F067
:1053060035C006F00350052604500622000E05247B
:10531600D96E040E0620DA6E000EDF6E000E1A6ECF
:10532600000E196E000E1E6E000E1D6E800E036EB0
:10533600FF0E046E34C005F035C006F00350052696
:1053460004500622000E0524D96E040E0620DA6EDD
:10535600DF50D8A4B1EF29F0B3EF29F025EF2AF0FA
:105366007F0E036EFF0E046E34C005F035C006F0E6
:105376000350052604500622000E0524D96E040E9D
:105386000620DA6EDF50D8A4CBEF29F0CDEF29F056
:1053960025EF2AF0810E036EFF0E046E34C005F071
:1053A60035C006F00350052604500622000E0524DB
:1053B600D96E040E0620DA6EDF50D8A4E5EF29F088
:1053C600E7EF29F025EF2AF0800E036EFF0E046E3C
:1053D60034C005F035C006F00350052604500622F9
:1053E600000E0524D96E040E0620DA6EFF0EDF6E5F
:1053F6007F0E036EFF0E046E34C005F035C006F056
:105406000350052604500622000E0524D96E040E0C
:105416000620DA6EFF0EDF6E810E036EFF0E046E3F
:1054260034C005F035C006F00350052604500622A8
:10543600000E0524D96E040E0620DA6EFF0EDF6E0E
:1054460027EF30F0800E036EFF0E046E34C005F0B9
:1054560035C006F00350052604500622000E05242A
:10546600D96E040E0620DA6EDE28D8A43DEF2AF0A7
:105476003FEF2AF0DBEF2AF07F0E036EFF0E046E7D
:1054860034C005F035C006F0035005260450062248
:10549600000E0524D96E040E0620DA6EDE28D8A486
:1054A60057EF2AF059EF2AF0DBEF2AF0810E036E50
:1054B600FF0E046E34C005F035C006F00350052615
:1054C60004500622000E0524D96E040E0620DA6E5C
:1054D600DE28D8A471EF2AF073EF2AF0DBEF2AF06A
:1054E600800E036EFF0E046E34C005F035C006F064
:1054F6000350052604500622000E0524D96E040E1C
:105506000620DA6E000EDF6E7F0E036EFF0E046E4F
:1055160034C005F035C006F00350052604500622B7
:10552600000E0524D96E040E0620DA6E000EDF6E1C
:10553600810E036EFF0E046E34C005F035C006F012
:105546000350052604500622000E0524D96E040ECB
:105556000620DA6E000EDF6E000E3424D96E040EBD
:105566003520DA6E000EDF6E010E3424036E000E57
:105576003520046E000E0324D96E040E0420DA6E64
:10558600000EDF6EFF0E036EFF0E046E34C005F0D4
:1055960035C006F00350052604500622000E0524E9
:1055A600D96E040E0620DA6E000EDF6E27EF30F09D
:1055B600800E036EFF0E046E34C005F035C006F093
:1055C6000350052604500622030E3624076E000EED
:1055D6003720086E0550075C0850800A096E065091
:1055E600800A0958D8A0FAEF2AF0FCEF2AF025EF36
:1055F6002BF0FD0E036EFF0E046E36C005F037C0AD
:1056060006F00350052604500622800E076EFF0E94
:10561600086E34C009F035C00AF007500926085054
:105626000A220550095C0A50800A0B6E0650800A51
:105636000B58D8B021EF2BF023EF2BF0B9EF2BF05E
:1056460025EF2BF0810E036EFF0E046E34C005F0BD
:1056560035C006F00350052604500622030E3624F4
:10566600076E000E3720086E0550075C0850800A4A
:10567600096E0650800A0958D8A044EF2BF046EF71
:105686002BF06FEF2BF0FD0E036EFF0E046E36C08F
:1056960005F037C006F00350052604500622810E99
:1056A600076EFF0E086E34C009F035C00AF00750C9
:1056B600092608500A220550095C0A50800A0B6E1A
:1056C6000650800A0B58D8B06BEF2BF06DEF2BF01D
:1056D600B9EF2BF06FEF2BF07F0E036EFF0E046E0B
:1056E60034C005F035C006F00350052604500622E6
:1056F600030E3624076E000E3720086E0550075C31
:105706000850800A096E0650800A0958D8A08EEF04
:105716002BF090EF2BF02DEF2CF0FD0E036EFF0E0D
:10572600046E36C005F037C006F003500526045057
:1057360006227F0E076EFF0E086E34C009F035C0D4
:105746000AF00750092608500A220550095C0A503B
:10575600800A0B6E0650800A0B58D8A0B5EF2BF0C6
:10576600B7EF2BF02DEF2CF0B9EF2BF0000E36240F
:10577600D96E040E3720DA6E000EDF6E010E362467
:10578600036E000E3720046E000E0324D96E040E3D
:105796000420DA6E000EDF6E020E3624036E000E53
:1057A6003720046E000E0324D96E040E0420DA6E30
:1057B600000EDF6E030E3624036E000E3720046ED5
:1057C600000E0324D96E040E0420DA6E000EDF6E7E
:1057D600FF0E036EFF0E046E36C005F037C006F0EE
:1057E6000350052604500622000E0524D96E040E29
:1057F6000620DA6E000EDF6EFE0E036EFF0E046EDE
:1058060036C005F037C006F00350052604500622C0
:10581600000E0524D96E040E0620DA6E000EDF6E29
:10582600FD0E036EFF0E046E36C005F037C006F09F
:105836000350052604500622000E0524D96E040ED8
:105846000620DA6E000EDF6E000E226E000E216E4E
:105856002DEF2CF0800E036EFF0E046E34C005F0A3
:1058660035C006F00350052604500622030E3824E0
:10587600076E000E3920086E0550075C0850800A36
:10588600096E0650800A0958D8A04CEF2CF04EEF4E
:105896002CF077EF2CF0FD0E036EFF0E046E38C071
:1058A60005F039C006F00350052604500622800E86
:1058B600076EFF0E086E34C009F035C00AF00750B7
:1058C600092608500A220550095C0A50800A0B6E08
:1058D6000650800A0B58D8B073EF2CF075EF2CF0F9
:1058E6000BEF2DF077EF2CF0810E036EFF0E046E9A
:1058F60034C005F035C006F00350052604500622D4
:10590600030E3824076E000E3920086E0550075C1A
:105916000850800A096E0650800A0958D8A096EFEA
:105926002CF098EF2CF0C1EF2CF0FD0E036EFF0E5D
:10593600046E38C005F039C006F003500526045041
:105946000622810E076EFF0E086E34C009F035C0C0
:105956000AF00750092608500A220550095C0A5029
:10596600800A0B6E0650800A0B58D8B0BDEF2CF09B
:10597600BFEF2CF00BEF2DF0C1EF2CF07F0E036E76
:10598600FF0E046E34C005F035C006F00350052640
:1059960004500622030E3824076E000E3920086EC6
:1059A6000550075C0850800A096E0650800A09589F
:1059B600D8A0E0EF2CF0E2EF2CF07FEF2DF0FD0EFB
:1059C600036EFF0E046E38C005F039C006F00350B2
:1059D6000526045006227F0E076EFF0E086E34C0A1
:1059E60009F035C00AF00750092608500A2205506A
:1059F600095C0A50800A0B6E0650800A0B58D8A024
:105A060007EF2DF009EF2DF07FEF2DF00BEF2DF0C6
:105A1600000E3824D96E040E3920DA6E000EDF6EC1
:105A2600010E3824036E000E3920046E000E032486
:105A3600D96E040E0420DA6E000EDF6E020E3824D4
:105A4600036E000E3920046E000E0324D96E040E78
:105A56000420DA6E000EDF6E030E3824036E000E8D
:105A66003920046E000E0324D96E040E0420DA6E6B
:105A7600000EDF6EFF0E036EFF0E046E38C005F0DB
:105A860039C006F00350052604500622000E0524F0
:105A9600D96E040E0620DA6E000EDF6EFE0E036E61
:105AA600FF0E046E38C005F039C006F00350052617
:105AB60004500622000E0524D96E040E0620DA6E66
:105AC600000EDF6EFD0E036EFF0E046E38C005F08D
:105AD60039C006F00350052604500622000E0524A0
:105AE600D96E040E0620DA6E000EDF6E000E296EE9
:105AF600000E286E7FEF2DF0800E036EFF0E046EF3
:105B060034C005F035C006F00350052604500622C1
:105B1600030E3A24076E000E3B20086E0550075C04
:105B26000850800A096E0650800A0958D8A09EEFD0
:105B36002DF0A0EF2DF0C9EF2DF0FD0E036EFF0E38
:105B4600046E3AC005F03BC006F00350052604502B
:105B56000622800E076EFF0E086E34C009F035C0AF
:105B66000AF00750092608500A220550095C0A5017
:105B7600800A0B6E0650800A0B58D8B0C5EF2DF080
:105B8600C7EF2DF05DEF2EF0C9EF2DF0810E036EFD
:105B9600FF0E046E34C005F035C006F0035005262E
:105BA60004500622030E3A24076E000E3B20086EB0
:105BB6000550075C0850800A096E0650800A09588D
:105BC600D8A0E8EF2DF0EAEF2DF013EF2EF0FD0E42
:105BD600036EFF0E046E3AC005F03BC006F003509C
:105BE600052604500622810E076EFF0E086E34C08D
:105BF60009F035C00AF00750092608500A22055058
:105C0600095C0A50800A0B6E0650800A0B58D8B001
:105C16000FEF2EF011EF2EF05DEF2EF013EF2EF0BA
:105C26007F0E036EFF0E046E34C005F035C006F01D
:105C36000350052604500622030E3A24076E000E72
:105C46003B20086E0550075C0850800A096E065016
:105C5600800A0958D8A032EF2EF034EF2EF0D1EF9B
:105C66002EF0FD0E036EFF0E046E3AC005F03BC02B
:105C760006F003500526045006227F0E076EFF0E1F
:105C8600086E34C009F035C00AF0075009260850DE
:105C96000A220550095C0A50800A0B6E0650800ADB
:105CA6000B58D8A059EF2EF05BEF2EF0D1EF2EF067
:105CB6005DEF2EF0000E3A24D96E040E3B20DA6E0C
:105CC600000EDF6E010E3A24036E000E3B20046EBA
:105CD600000E0324D96E040E0420DA6E000EDF6E69
:105CE600020E3A24036E000E3B20046E000E0324BF
:105CF600D96E040E0420DA6E000EDF6E030E3A240F
:105D0600036E000E3B20046E000E0324D96E040EB3
:105D16000420DA6E000EDF6EFF0E036EFF0E046EB9
:105D26003AC005F03BC006F0035005260450062293
:105D3600000E0524D96E040E0620DA6E000EDF6E04
:105D4600FE0E036EFF0E046E3AC005F03BC006F071
:105D56000350052604500622000E0524D96E040EB3
:105D66000620DA6E000EDF6EFD0E036EFF0E046E69
:105D76003AC005F03BC006F0035005260450062243
:105D8600000E0524D96E040E0620DA6E000EDF6EB4
:105D9600000E246E000E236ED1EF2EF0800E036EE1
:105DA600FF0E046E34C005F035C006F0035005261C
:105DB60004500622030E3C24076E000E3D20086E9A
:105DC6000550075C0850800A096E0650800A09587B
:105DD600D8A0F0EF2EF0F2EF2EF01BEF2FF0FD0E15
:105DE600036EFF0E046E3CC005F03DC006F0035086
:105DF600052604500622800E076EFF0E086E34C07C
:105E060009F035C00AF00750092608500A22055045
:105E1600095C0A50800A0B6E0650800A0B58D8B0EF
:105E260017EF2FF019EF2FF0AFEF2FF01BEF2FF03A
:105E3600810E036EFF0E046E34C005F035C006F009
:105E46000350052604500622030E3C24076E000E5E
:105E56003D20086E0550075C0850800A096E065002
:105E6600800A0958D8A03AEF2FF03CEF2FF065EFE3
:105E76002FF0FD0E036EFF0E046E3CC005F03DC014
:105E860006F00350052604500622810E076EFF0E0B
:105E9600086E34C009F035C00AF0075009260850CC
:105EA6000A220550095C0A50800A0B6E0650800AC9
:105EB6000B58D8B061EF2FF063EF2FF0AFEF2FF054
:105EC60065EF2FF07F0E036EFF0E046E34C005F0F3
:105ED60035C006F00350052604500622030E3C2466
:105EE600076E000E3D20086E0550075C0850800ABC
:105EF600096E0650800A0958D8A084EF2FF086EF65
:105F06002FF027EF30F0FD0E036EFF0E046E3CC03F
:105F160005F03DC006F003500526045006227F0E0C
:105F2600076EFF0E086E34C009F035C00AF0075040
:105F3600092608500A220550095C0A50800A0B6E91
:105F46000650800A0B58D8A0ABEF2FF0ADEF2FF01C
:105F560027EF30F0AFEF2FF0000E3C24D96E040E81
:105F66003D20DA6E000EDF6E010E3C24036E000E3D
:105F76003D20046E000E0324D96E040E0420DA6E52
:105F8600000EDF6E020E3C24036E000E3D20046EF2
:105F9600000E0324D96E040E0420DA6E000EDF6EA6
:105FA600030E3C24036E000E3D20046E000E0324F7
:105FB600D96E040E0420DA6E000EDF6EFF0E036E3D
:105FC600FF0E046E3CC005F03DC006F003500526EA
:105FD60004500622000E0524D96E040E0620DA6E41
:105FE600000EDF6EFE0E036EFF0E046E3CC005F063
:105FF6003DC006F00350052604500622000E052477
:10600600D96E040E0620DA6E000EDF6EFD0E036EEC
:10601600FF0E046E3CC005F03DC006F00350052699
:1060260004500622000E0524D96E040E0620DA6EF0
:10603600000EDF6E000E2B6E000E2A6E27EF30F07C
:1060460027EF30F027EF30F01D041E10D8A42EEFF6
:1060560030F030EF30F05CEF30F0000E3424D96EC3
:10606600040E3520DA6E000EDF6E010E3424036E48
:10607600000E3520046E000E0324D96E040E042093
:10608600DA6E000EDF6EFF0E036EFF0E046E34C076
:1060960005F035C006F00350052604500622000E12
:1060A6000524D96E040E0620DA6E000EDF6E5CEF54
:1060B60030F0000E1E6E010E1D6E800E3424346EFE
:1060C600FF0E3520356E000E3E24D96E040E3F209D
:1060D600DA6EFF0EDF6E010E3E24036E000E3F20C9
:1060E600046E000E0324D96E040E0420DA6EFC0E34
:1060F600DF6EFF0E056EFF0E066E3EC007F03FC058
:1061060008F00550072606500822000E0724E16E07
:10611600040E0820E26EDFCFE7FF020E3E24036E78
:10612600000E3F20046E000E0324D96E040E0420D8
:10613600DA6EF00EDF6EFE0E056EFF0E066E3EC0C8
:1061460007F03FC008F00550072606500822000E4B
:106156000724E16E040E0820E26EDFCFE7FFB4EFFE
:1061660030F0000E3E24D96E040E3F20DA6EDF506A
:10617600D8B4C0EF30F0C2EF30F020EF31F0FF0EB0
:10618600036EFF0E046E3EC005F03FC006F00350DE
:10619600052604500622000E0524D96E040E06209C
:1061A600DA6EDF50D8B4DAEF30F0DCEF30F020EF03
:1061B60031F0010E3E24036E000E3F20046E000EE9
:1061C6000324D96E040E0420DA6EDF50D8B4EEEF45
:1061D60030F0F0EF30F020EF31F0020E3E24036E87
:1061E600000E3F20046E000E0324D96E040E042018
:1061F600DA6EDF50D8B402EF31F004EF31F020EF61
:1062060031F0FE0E036EFF0E046E3EC005F03FC079
:1062160006F00350052604500622000E0524D96E0A
:10622600040E0620DA6EDF50D8A41CEF31F01EEF04
:1062360031F0ACEF32F020EF31F0000E2F6E000E91
:106246002E6E2FBE2EEF31F0040E2F5CD8A02EEF4F
:1062560031F030EF31F034EF31F04CEF31F04CEFFC
:1062660031F0000E2E24D96E040E2F20DA6E000EA9
:10627600DF6E2E4A2F2A2FBE48EF31F0040E2F5C18
:10628600D8A048EF31F04AEF31F034EF31F04CEF5F
:1062960031F0070E4024036E000E4120046E000EFE
:1062A6000324D96E040E0420DA6EFF0EDF6E090E8B
:1062B6004024036E000E4120046E000E0324D96EA6
:1062C600040E0420DA6E110EDF6E080E4024056EF1
:1062D600000E4120066E000E0524E16E040E062017
:1062E600E26EDFCFE7FF0A0E4024036E000E412068
:1062F600046E000E0324D96E040E0420DA6E1F0EFF
:10630600DF6E0E0E4024036E000E4120046E000E5A
:106316000324D96E040E0420DA6EFF0EDF6E110E12
:106326004024036E000E4120046E000E0324D96E35
:10633600040E0420DA6E910EDF6E100E4024056EF8
:10634600000E4120066E000E0524E16E040E0620A6
:10635600E26EDFCFE7FF0F0E4024076E000E4120EE
:10636600086E000E0724D96E040E0820DA6EE7CFF9
:10637600DFFF150E4024036E000E4120046E000E52
:106386000324D96E040E0420DA6EFF0EDF6E160E9D
:106396004024036E000E4120046E000E0324D96EC5
:1063A600040E0420DA6E110EDF6E170E4024036E03
:1063B600000E4120046E000E0324D96E040E042044
:1063C600DA6E310EDF6E180E4024036E000E412089
:1063D600046E000E0324D96E040E0420DA6E4A0EF3
:1063E600DF6E190E4024036E000E4120046E000E6F
:1063F6000324D96E040E0420DA6E840EDF6E1D0EA1
:106406004024036E000E4120046E000E0324D96E54
:10641600040E0420DA6EFF0EDF6E1E0E4024036E9D
:10642600000E4120046E000E0324D96E040E0420D3
:10643600DA6E420EDF6E1F0E4024036E000E412000
:10644600046E000E0324D96E040E0420DA6E240EA8
:10645600DF6E200E4024036E000E4120046E000EF7
:106466000324D96E040E0420DA6E180EDF6E2B0E8E
:106476004024036E000E4120046E000E0324D96EE4
:10648600040E0420DA6E1F0EDF6E240E4024056E05
:10649600000E4120066E000E0524E16E040E062055
:1064A600E26EDFCFE7FF2A0E4024036E000E412086
:1064B600046E000E0324D96E040E0420DA6E200E3C
:1064C600DF6E250E4024056E000E4120066E000E7E
:1064D6000524E16E040E0620E26EDFCFE7FF290EEB
:1064E6004024036E000E4120046E000E0324D96E74
:1064F600040E0420DA6E400EDF6E260E4024056E72
:10650600000E4120066E000E0524E16E040E0620E4
:10651600E26EDFCFE7FF280E4024036E000E412017
:10652600046E000E0324D96E040E0420DA6E800E6B
:10653600DF6E270E4024056E000E4120066E000E0B
:106546000524E16E040E0620E26EDFCFE7FFACEF16
:1065560032F084A0B1EF32F0B3EF32F065EF33F0F2
:106566003FBEC1EF32F0FD0E3E5C030E3F58D8B081
:10657600BFEF32F0C1EF32F065EF33F0020E3E248A
:10658600036E000E3F20046E000E0324D96E040E27
:106596000420DA6E030E3E24056E000E3F20066EC2
:1065A600000E0524E16E040E0620E26EDFCFE7FF43
:1065B600010E3E24036E000E3F20046E000E0324DF
:1065C600D96E040E0420DA6E020E3E24056E000E0D
:1065D6003F20066E000E0524E16E040E0620E26ED4
:1065E600DFCFE7FF000E3E24D96E040E3F20DA6EA1
:1065F600FF0EDF6E010E3E24036E000E3F20046E7A
:10660600000E0324E16E040E0420E26EDFCFE7FFE6
:10661600FF0E036EFF0E046E3EC005F03FC006F08F
:106626000350052604500622000E0524D96E040EDA
:106636000620DA6E000E3E24E16E040E3F20E26E66
:10664600DFCFE7FFFE0E036EFF0E046E3EC005F0C1
:106656003FC006F00350052604500622000E05240E
:10666600D96E040E0620DA6EFF0E076EFF0E086E58
:106676003EC009F03FC00AF00750092608500A221A
:10668600000E0924E16E040E0A20E26EDFCFE7FF5A
:10669600FE0E036EFF0E046E3EC005F03FC006F010
:1066A6000350052604500622000E0524D96E040E5A
:1066B6000620DA6E000EDF6E3E4A3F2A65EF33F0A3
:1066C60065EF33F084A26AEF33F06CEF33F025EF19
:1066D60034F03FBE78EF33F0810E3E5C030E3F5838
:1066E600D8A078EF33F07AEF33F025EF34F0FE0ED2
:1066F600036EFF0E046E3EC005F03FC006F0035069
:10670600052604500622000E0524D96E040E062026
:10671600DA6EFD0E076EFF0E086E3EC009F03FC032
:106726000AF00750092608500A22000E0924E16ED5
:10673600040E0A20E26EDFCFE7FFFF0E036EFF0EA8
:10674600046E3EC005F03FC006F003500526045017
:106756000622000E0524D96E040E0620DA6EFE0E01
:10676600076EFF0E086E3EC009F03FC00AF00750E4
:10677600092608500A22000E0924E16E040E0A209A
:10678600E26EDFCFE7FF000E3E24D96E040E3F20F7
:10679600DA6EFF0EDF6EFF0E036EFF0E046E3EC056
:1067A60005F03FC006F00350052604500622000EF1
:1067B6000524E16E040E0620E26EDFCFE7FF010E30
:1067C6003E24036E000E3F20046E000E0324D96E95
:1067D600040E0420DA6E000E3E24E16E040E3F2005
:1067E600E26EDFCFE7FF020E3E24036E000E3F206F
:1067F600046E000E0324D96E040E0420DA6E010E18
:106806003E24056E000E3F20066E000E0524E16E46
:10681600040E0620E26EDFCFE7FF020E3E24036E73
:10682600000E3F20046E000E0324D96E040E0420D1
:10683600DA6E000EDF6E3E06D8A03F0625EF34F076
:1068460025EF34F084A42AEF34F02CEF34F0CFEFA8
:1068560034F098EF34F098EF34F0000E3E24D96E01
:10686600040E3F20DA6E010EDF6ECFEF34F0000E1D
:106876003E24D96E040E3F20DA6E020EDF6ECFEF95
:1068860034F0000E3E24D96E040E3F20DA6E040E5C
:10689600DF6ECFEF34F0000E3E24D96E040E3F209B
:1068A600DA6E080EDF6ECFEF34F0000E3E24D96E9E
:1068B600040E3F20DA6E100EDF6ECFEF34F0000EBE
:1068C6003E24D96E040E3F20DA6E200EDF6ECFEF27
:1068D60034F0000E3E24D96E040E3F20DA6E400ED0
:1068E600DF6ECFEF34F0000E3E24D96E040E3F204B
:1068F600DA6E800EDF6E000E3E24D96E040E3F2047
:10690600DA6E000EDF6E800E3E243E6E000E3F20D5
:106916003F6E000E3E24D96E040E3F20DA6E010E45
:10692600DF6ECFEF34F0CFEF34F0000E3E24D96E99
:10693600040E3F20DA6EDF50036E046A0450000A2C
:10694600D8B4A8EF34F0CFEF34F00350000AD8B42F
:1069560030EF34F0010AD8B43AEF34F0030AD8B471
:1069660044EF34F0060AD8B44EEF34F00C0AD8B42B
:1069760058EF34F0180AD8B462EF34F0300AD8B4BD
:106986006CEF34F0600AD8B476EF34F0C00AD8B4AD
:106996007EEF34F0CFEF34F081AED4EF34F0D6EFA3
:1069A60034F0D1EF1AF042EF35F042EF35F0000E39
:1069B6003E24D96E040E3F20DA6E800EDF6ED1EFD4
:1069C6001AF0000E3E24D96E040E3F20DA6E400EF9
:1069D600DF6ED1EF1AF0000E3E24D96E040E3F2072
:1069E600DA6E200EDF6ED1EF1AF0000E3E24D96E5D
:1069F600040E3F20DA6E100EDF6ED1EF1AF0000E95
:106A06003E24D96E040E3F20DA6E080EDF6ED1EFFB
:106A16001AF0000E3E24D96E040E3F20DA6E040EE4
:106A2600DF6ED1EF1AF0000E3E24D96E040E3F2021
:106A3600DA6E020EDF6ED1EF1AF0000E3E24D96E2A
:106A4600040E3F20DA6E010EDF6E000E3E24D96E74
:106A5600040E3F20DA6E000EDF6E800E3E243E6E80
:106A6600FF0E3F203F6E000E3E24D96E040E3F20DF
:106A7600DA6E800EDF6ED1EF1AF0D1EF1AF0000E4B
:106A86003E24D96E040E3F20DA6EDF50036E046A90
:106A96000450000AD8B452EF35F0D1EF1AF0035083
:106AA600000AD8B4DAEF34F0010AD8B428EF35F08A
:106AB600030AD8B420EF35F0060AD8B416EF35F03D
:106AC6000C0AD8B40CEF35F0180AD8B402EF35F03A
:106AD600300AD8B4F8EF34F0600AD8B4EEEF34F0E8
:106AE600C00AD8B4E4EF34F0D1EF1AF0D1EF1AF0BF
:106AF600D1EF1AF0D1EF1AF01200000000000000EA
:106B0600000000000000000000000000000000007F
:106B1600000000000000000000000000000000006F
:106B2600000000000000000000000000000000005F
:106B3600000000000000000000000000000000004F
:106B4600000000000000000000000000000000003F
:106B5600000000000000000000000000000000002F
:106B6600000000000000000000000000000000001F
:106B7600000000000000000000000000000000000F
:106B860000000000000000000000000000000000FF
:106B960000000000000000000000000000000000EF
:106BA60000000000000000000000000000000000DF
:106BB60000000000000000000000000000000000CF
:106BC60000000000000000000000000000000000BF
:106BD60000000000000000000000000000000000AF
:106BE600000000000000000000000000000000009F
:106BF600000000000000000000000000000000008F
:106C060000000000065F5F0600000000070700079F
:106C1600070000147F7F147F7F1400242E6B6B3ACD
:106C2600120000466630180C666200307A4F5D37F7
:106C36007A48000407030000000000001C3E634180
:106C46000000000041633E1C000000082A3E1C1C98
:106C56003E2A0808083E3E080800000080E0600062
:106C6600000000080808080808000000006060002E
:106C76000000006030180C060301003E7F71594D7C
:106C86007F3E0040427F7F40400000627359496F5B
:106C9600660000226349497F360000181C16537FA0
:106CA6007F5000276745457D3900003C7E4B49797A
:106CB600300000030371790F070000367F49497FD2
:106CC600360000064F49693F1E0000000066660058
:106CD6000000000080E66600000000081C366341E4
:106CE6000000002424242424240000004163361CD0
:106CF600080000020351590F0600003E7F415D5D0A
:106D06001F1E007C7E13137E7C0000417F7F494955
:106D16007F36001C3E634141632200417F7F416311
:106D26003E1C00417F7F495D416300417F7F491DD5
:106D36000103001C3E6341517372007F7F08087F88
:106D46007F000000417F7F41000000307040417F9E
:106D56003F0100417F7F081C776300417F7F4140F0
:106D66006070007F7F0E1C0E7F7F007F7F060C18F1
:106D76007F7F001C3E6341633E1C00417F7F4909C3
:106D86000F06001E3F21717F5E0000417F7F0919BB
:106D96007F6600266F4D597332000003417F7F41A5
:106DA6000300007F7F40407F7F00001F3F60603F01
:106DB6001F00007F7F3018307F7F0043673C183C00
:106DC600674300074F78784F070000476371594DB6
:106DD600677300007F7F41410000000103060C1825
:106DE6003060000041417F7F000000080C0603066A
:106DF6000C0800808080808080808000000307046B
:106E0600000000207454543C784000417F3F4848BD
:106E1600783000387C44446C280000307848493F7C
:106E26007F4000387C54545C180000487E7F49033C
:106E360002000098BCA4A4F87C0400417F7F0804EB
:106E46007C780000447D7D4000000060E08080FD8D
:106E56007D0000417F7F10386C440000417F7F40F9
:106E66000000007C7C18381C7C78007C7C04047C48
:106E7600780000387C44447C38000084FCF8A42464
:106E86003C1800183C24A4F8FC8400447C784C048C
:106E96001C1800485C54547424000000043E7F44CF
:106EA6002400003C7C40403C7C40001C3C60603C34
:106EB6001C00003C7C7038707C3C00446C381038F8
:106EC6006C44009CBCA0A0FC7C00004C64745C4C30
:106ED60064000008083E7741410000000000777713
:106EE6000000004141773E0808000002030103024A
:106EF60003010070784C464C7870000E9F91B1FBF0
:106F06004A00003A7A40407A7A4000387C54555D0F
:106F160019000002237555557D7B42217554547D19
:106F2600794000217555547C784000207457577C71
:106F3600784000183CA4A4E4400000023B7D55556F
:106F46005D1B02397D54545D190000397D55545C32
:106F560018000001457C7C410100000203457D7D4F
:106F660043020001457D7C40000000797D16121623
:106F76007D790070782B2B78700000447C7C555509
:106F8600450000207454547C7C54547C7E0B097F4D
:106F96007F4900327B49497B320000327A48487A81
:106FA600320000327A4A48783000003A7B41417B11
:106FB6007A40003A7A4240787840009ABAA0A0FA1D
:106FC6007A000001193C66663C19013D7D40407D12
:106FD6003D0000183C24E7E7242400687E7F4943EF
:106FE6006620002B2FFCFC2F2B0000FFFF09092F2A
:106FF600F6F8A040C088FE7F090302207454557D30
:1070060079400000447D7D410000003078484A7A8E
:10701600320000387840427A7A40007A7A0A0A7A50
:107026007000007D7D19317D7D000000262F292FFF
:107036002F280000262F292F26000030784D456086
:107046002000003838080808080000080808083832
:107056003800004F6F3018CCEEBB914F6F30186C74
:1070660076FBF90000007B7B000000081C36220836
:107076001C362222361C0822361C08AA005500AAF5
:10708600005500AA55AA55AA55AA55DDFFAA77DDCF
:10709600AAFF77000000FFFF000000101010FFFF9E
:1070A600000000141414FFFF0000001010FFFF0082
:1070B600FFFF001010F0F010F0F000141414FCFCA8
:1070C6000000001414F7F700FFFF000000FFFF00A8
:1070D600FFFF001414F4F404FCFC0014141717103A
:1070E6001F1F0010101F1F101F1F001414141F1F36
:1070F600000000101010F0F00000000000001F1F3C
:107106001010101010101F1F101010101010F0F09B
:10711600101010000000FFFF1010101010101010BB
:10712600101010101010FFFF101010000000FFFFCD
:107136001414140000FFFF00FFFF1000001F1F10B3
:107146001717140000FCFC04F4F414141417171099
:107156001717141414F4F404F4F4140000FFFF00D9
:10716600F7F71414141414141414141414F7F70061
:10717600F7F714141414171714141410101F1F10F3
:107186001F1F10141414F4F41414141010F0F0103B
:10719600F0F01000001F1F101F1F100000001F1F1F
:1071A600141414000000FCFC1414140000F0F01079
:1071B600F0F0101010FFFF10FFFF10141414FFFF63
:1071C6001414141010101F1F000000000000F0F02F
:1071D600101010FFFFFFFFFFFFFFFFF0F0F0F0F0D1
:1071E600F0F0F0FFFFFFFF0000000000000000FFCE
:1071F600FFFFFF0F0F0F0F0F0F0F0F387C446C3878
:107206006C4400FCFE2A2A3E1400007E7E02020622
:10721600060000027E7E027E7E020063775D496381
:10722600630000387C447C3C04040080FE7E202001
:107236003E1E000406027E7C06020099BDE7E7BDFD
:107246009900001C3E6B496B3E1C004C7E7301731B
:107256007E4C0030784A4F7D390000183C243C3C77
:10726600243C1898FC643C3E273D180000000000B2
:107276000000000000000000000000000000000008
:1072860000000000000000000000000000000000F8
:1072960000000000000000000000000000000000E8
:1072A60000000000000000000000000000000000D8
:1072B60000000000000000000000000000000000C8
:1072C60000000000000000000000000000000000B8
:1072D60000000000000000000000000000000000A8
:1072E6000000000000000000000000000000000098
:1072F6000000000000000000000000000000000088
:107306000000000000000000000000000000000077
:107316000000000000000000000000000000000067
:107326000000000000000000000000000000E0F087
:10733600C8CCC4C2E2E2F2FEFEFEFCB000000000D1
:107346000000000000000000000000000000000037
:107356000000000000000000000000000000000027
:107366000000000000000000000000000000000017
:107376000000000000000000000000000000000007
:1073860000000000000000000000000000000000F7
:1073960000000000000000000000000000000000E7
:1073A6000000000000000000000000000083CF5F26
:1073B6003F3F3F3F3F3F3F3F1F3F3F3F7F7880007C
:1073C60000000000000000000000000000000000B7
:1073D60000000000000000000000000000000000A7
:1073E6000000000000000000000000000000000097
:1073F6000000000000000000000000000000000087
:107406000000000000000000000000000000000076
:107416000000000000000000000000000000000066
:1074260000000000000000000080C0884261F042B9
:107436008000080000602200080000000000010330
:10744600BC0080E0F0F8FCFCECF6F0783838181850
:107456001808000000000000000000000000000006
:107466000000000000000000000000000000000016
:107476000000000000000000000000000000000006
:1074860000000000000000000000000000000000F6
:1074960000000000000000000000000000000000E6
:1074A60000000000000000FC038382C6FAFAFCFC20
:1074B600FAFFE2010000000100000000000000F0F9
:1074C6000708FFFFFFFFFFFFFFDFCFCF8F0F0F0F75
:1074D6000E1C183000000000000000000000000034
:1074E6000000000000000000000000000000000096
:1074F6000000000000000000000000000000000086
:107506000000000000000000000000000000000075
:107516000000000000000000000000000000000065
:1075260000000000608E01040F1F1F0F0F1F3F3F5A
:107536003F3F1F030000000000200010000808085D
:10754600090A082B2B3337FF030303071F7F10009D
:107556000000000000000000000000000000000025
:107566000000000000000000000000000000000015
:107576000000000000000000000000000000000005
:1075860000000000000000000000000000000000F5
:1075960000000000000000000000000000000000E5
:1075A600000000000007083060C0800000000000F6
:1075B6000000000000000000408000000000000005
:1075C6008080C060341A050300000000000000003F
:1075D60000000000000000000000000000000000A5
:1075E6000000000000000000000000000000000095
:1075F6000000000000000000000000000000000085
:107606000000000000000000000000000000000074
:107616000000000000000000000000000000000064
:1076260000000000000000000000008182868C9CA3
:107636001428E8F8102040C0C040201109050505AF
:107646000201000000000000000000000000000031
:107656000000000000000000000000000000000024
:107666000000000000000000000000000000000014
:107676000000000000000000000000000000000004
:1076860000000000000000000000000000000000F4
:1076960000000000000000000000000000000000E4
:1076A60000000000000000000000030207050404BB
:1076B600050D0E1B3B6B476363263A12121C000036
:1076C60000000000000000000000000000000000B4
:1076D60000000000000000000000000000000000A4
:1076E6000000000000000000000000000000000094
:1076F6000000000000000000000000000000000084
:107AF6000000000000000000000000FFFFFFFFFF85
:107B0600FFFFFFFFFFFFFFFFFFFFFFFFFFFFFFFF7F
:107B1600FFFFFFFFFFFFFFFFFFFFFFFFFFFFFFFF6F
:107B2600FFFFFFFFFFFFFFFFFFFFFFFFFFFFFFFF5F
:107B3600FFFFFFFFFFFFFFFFFFFFFFFFFFFFFFFF4F
:107EE600FFFFFFFFFFFFFFFFFFFFFF000000000097
:107EF6000000000000000000000000000000005C20
:107F0600000C000C7C287C7C447C241048285408F7
:107F1600000C003844004438002010081038108047
:107F26004000101010004000201008384438007C33
:107F3600006454484454281C107C4C542438542063
:107F460004740C285428085438005000805000103F
:107F56002844282828442810045408384C5C7814EF
:107F6600787C54283844447C44387C54447C14043B
:107F76003844347C107C007C0020403C7C106C7CB7
:107F860040407C087C7C047C7C447C7C140838441F
:107F9600787C1468485424047C047C407C3C403C37
:107FA6007C207C6C106C1C601C64544C7C44000867
:107FB6001020447C00080408808080040800446186
:107FC6006E69656C2C4761627269656C00537061FD
:107FD600636520496E7661646572004C657427732B
:107FE60020504C41590065742054686F6D617300D0
:097FF6004D616465206279000010
:020000040020DA
:08000000FFFFFFFFFFFFFFFF00
:020000040030CA
:0E000000000C191EFF8381FF0FC00FE00F40A0
:00000001FF
