:0400000078EF22F083
:1044DC00000E846E9EEC22F0010EEEEC22F036EC17
:1044EC0023F0FFD704EE00F014EE00F0EE6AE55076
:1044FC00E150FCE1E250FAE1476A466A000EF86EC0
:10450C0000016EEF22F0026E0250D8B403D08A8004
:10451C008A9202D08A928A82000E956E8A9601C087
:10452C008CFF8A8800D08A9800D08A908A921200D8
:10453C000F0EC16E000EC26E000E926E000E936EC8
:10454C00000E946E000E956E000E966E000E806E30
:10455C00000E816E000E826E000E836E000E846E55
:10456C001200036E000E056E070E056401D01200DA
:10457C008A94400E016E000E89EC22F0400E016E02
:10458C00010E89EC22F00550B809016E000E89EC81
:10459C0022F00550B809016E010E89EC22F08A84D4
:1045AC00000E046E3F0E046401D010D00350FF0DBA
:1045BC00F3CF01F0000E89EC22F00350FF0DF3CF86
:1045CC0001F0010E89EC22F0042AECD7052ACCD795
:1045DC00066E000E836E8A9A210EE82EFED700F02E
:1045EC008A8A8A988A908A928A9400D0C00E016E28
:1045FC00000E89EC22F0C00E016E010E89EC22F047
:10460C00400E016E000E89EC22F0400E016E010E80
:10461C0089EC22F0B80E016E000E89EC22F0B80E77
:10462C00016E010E89EC22F00604D8A40BD03F0ECB
:10463C00016E000E89EC22F03F0E016E010E89EC2A
:10464C0022F00AD03E0E016E000E89EC22F03E0ED6
:10465C00016E010E89EC22F0000EB7EC22F0120074
:10466C00030E456EE80E446E000E3D6E050E3C6E5C
:10467C00000E436EFC0E426E000E3F6E7B0E3E6EC5
:10468C00000E416E850E406E000E246E000E236EE1
:10469C00000E266E000E256E000E286E000E276E84
:1046AC00000E2A6E000E296E000E2C6E000E2B6E64
:1046BC00000E336E000E326E010E3B6EA20E3A6E81
:1046CC00000E2E6E000E2D6E000E306E000E2F6E34
:1046DC00000E376E000E366E000E3C24D96E040EA2
:1046EC003D20DA6E3C0EDF6E010E3C24036E000E94
:1046FC003D20046E000E0324D96E040E0420DA6EE5
:10470C00B40EDF6EFF0E056EFF0E066E3CC007F09A
:10471C003DC008F00550072606500822000E07245D
:10472C00E16E040E0820E26EDFCFE7FF020E3C24A0
:10473C00036E000E3D20046E000E0324D96E040E91
:10474C000420DA6ECA0EDF6EFE0E056EFF0E066ECC
:10475C003CC007F03DC008F0055007260650082263
:10476C00000E0724E16E040E0820E26EDFCFE7FF97
:10477C00030E3C24036E000E3D20046E000E032439
:10478C00D96E040E0420DA6E190EDF6EFD0E056E66
:10479C00FF0E066E3CC007F03DC008F00550072622
:1047AC0006500822000E0724E16E040E0820E26E6B
:1047BC00DFCFE7FF000E4224D96E040E4320DA6EE1
:1047CC003C0EDF6E010E4224036E000E4320046E7D
:1047DC00000E0324D96E040E0420DA6EB40EDF6EC4
:1047EC00FF0E056EFF0E066E42C007F043C008F0C8
:1047FC000550072606500822000E0724E16E040E11
:10480C000820E26EDFCFE7FF020E4224036E000E9B
:10481C004320046E000E0324D96E040E0420DA6EBD
:10482C00CA0EDF6EFE0E056EFF0E066E42C007F05E
:10483C0043C008F00550072606500822000E072436
:10484C00E16E040E0820E26EDFCFE7FF030E422478
:10485C00036E000E4320046E000E0324D96E040E6A
:10486C000420DA6E190EDF6EFD0E056EFF0E066E5D
:10487C0042C007F043C008F0055007260650082236
:10488C00000E0724E16E040E0820E26EDFCFE7FF76
:10489C00000E3E24D96E040E3F20DA6E3C0EDF6E05
:1048AC00010E3E24036E000E3F20046E000E032406
:1048BC00D96E040E0420DA6EB40EDF6EFF0E056E98
:1048CC00FF0E066E3EC007F03FC008F005500726ED
:1048DC0006500822000E0724E16E040E0820E26E3A
:1048EC00DFCFE7FF020E3E24036E000E3F20046E66
:1048FC00000E0324D96E040E0420DA6ECA0EDF6E8D
:10490C00FE0E056EFF0E066E3EC007F03FC008F0AF
:10491C000550072606500822000E0724E16E040EEF
:10492C000820E26EDFCFE7FF030E3E24036E000E7D
:10493C003F20046E000E0324D96E040E0420DA6EA0
:10494C00190EDF6EFD0E056EFF0E066E3EC007F0F3
:10495C003FC008F00550072606500822000E072419
:10496C00E16E040E0820E26EDFCFE7FF000E40245C
:10497C00D96E040E4120DA6E3C0EDF6E010E40241F
:10498C00036E000E4120046E000E0324D96E040E3B
:10499C000420DA6EB40EDF6EFF0E056EFF0E066E8F
:1049AC0040C007F041C008F0055007260650082209
:1049BC00000E0724E16E040E0820E26EDFCFE7FF45
:1049CC00020E4024036E000E4120046E000E0324E0
:1049DC00D96E040E0420DA6ECA0EDF6EFE0E056E62
:1049EC00FF0E066E40C007F041C008F005500726C8
:1049FC0006500822000E0724E16E040E0820E26E19
:104A0C00DFCFE7FF030E4024036E000E4120046E3F
:104A1C00000E0324D96E040E0420DA6E190EDF6E1C
:104A2C00FD0E056EFF0E066E40C007F041C008F08B
:104A3C000550072606500822000E0724E16E040ECE
:104A4C000820E26EDFCFE7FF000E4424D96E040E7F
:104A5C004520DA6EFF0EDF6E010E4424036E000E4D
:104A6C004520046E000E0324D96E040E0420DA6E69
:104A7C00FC0EDF6EFF0E056EFF0E066E44C007F0D7
:104A8C0045C008F00550072606500822000E0724E2
:104A9C00E16E040E0820E26EDFCFE7FF020E442425
:104AAC00036E000E4520046E000E0324D96E040E16
:104ABC000420DA6EF00EDF6EFE0E056EFF0E066E33
:104ACC0044C007F045C008F00550072606500822E0
:104ADC00000E0724E16E040E0820E26EDFCFE7FF24
:104AEC00000E226E000E216E000E346E070E346422
:104AFC0001D02CD0000E356E010E356401D024D0BF
:104B0C008A94400E016E355089EC22F03450B8096D
:104B1C00016E355089EC22F08A84000E316E3F0E06
:104B2C00316401D00FD0000E2124D96E040E222046
:104B3C00DA6EDF50016E355089EC22F0214A222AC0
:104B4C00312AEDD7352AD8D7342AD0D78A908A92F1
:104B5C00BD0E40184110D8A404D0000E2A6E010ED0
:104B6C00296E840E40184110D8A404D0000E2A6E71
:104B7C00000E296E29502A10D8A4DFD0030E402431
:104B8C00036E000E4120046E000E0324D96E040E39
:104B9C000420DA6E040E4024056E000E4120066ED1
:104BAC00000E0524E16E040E0620E26EDFCFE7FF57
:104BBC00020E4024036E000E4120046E000E0324EE
:104BCC00D96E040E0420DA6E030E4024056E000E1E
:104BDC004120066E000E0524E16E040E0620E26EE6
:104BEC00DFCFE7FF010E4024036E000E4120046E60
:104BFC00000E0324D96E040E0420DA6E020E40243B
:104C0C00056E000E4120066E000E0524E16E040EAA
:104C1C000620E26EDFCFE7FF000E4024D96E040EB3
:104C2C004120DA6E010E4024036E000E4120046E0A
:104C3C00000E0324E16E040E0420E26EDFCFE7FFCA
:104C4C00FF0E036EFF0E046E40C005F041C006F06F
:104C5C000350052604500622000E0524D96E040EBE
:104C6C000620DA6E000E4024E16E040E4120E26E46
:104C7C00DFCFE7FFFE0E036EFF0E046E40C005F0A3
:104C8C0041C006F00350052604500622000E0524F0
:104C9C00D96E040E0620DA6EFF0E076EFF0E086E3C
:104CAC0040C009F041C00AF00750092608500A22FA
:104CBC00000E0924E16E040E0A20E26EDFCFE7FF3E
:104CCC00FD0E036EFF0E046E40C005F041C006F0F1
:104CDC000350052604500622000E0524D96E040E3E
:104CEC000620DA6EFE0E076EFF0E086E40C009F04D
:104CFC0041C00AF00750092608500A22000E092468
:104D0C00E16E040E0A20E26EDFCFE7FFFD0E036EAC
:104D1C00FF0E046E40C005F041C006F0035005269E
:104D2C0004500622000E0524D96E040E0620DA6EFD
:104D3C00000EDF6E404A412AE5D0FD0E036EFF0ED9
:104D4C00046E40C005F041C006F003500526045027
:104D5C000622000E0524D96E040E0620DA6EFC0E17
:104D6C00076EFF0E086E40C009F041C00AF00750F4
:104D7C00092608500A22000E0924E16E040E0A20AE
:104D8C00E26EDFCFE7FFFE0E036EFF0E046E40C037
:104D9C0005F041C006F00350052604500622000E13
:104DAC000524D96E040E0620DA6EFD0E076EFF0E7A
:104DBC00086E40C009F041C00AF00750092608509F
:104DCC000A22000E0924E16E040E0A20E26EDFCFE7
:104DDC00E7FFFF0E036EFF0E046E40C005F041C0EE
:104DEC0006F00350052604500622000E0524D96E49
:104DFC00040E0620DA6EFE0E076EFF0E086E40C023
:104E0C0009F041C00AF00750092608500A22000E8A
:104E1C000924E16E040E0A20E26EDFCFE7FF000EDC
:104E2C004024D96E040E4120DA6EFF0E036EFF0E85
:104E3C00046E40C005F041C006F003500526045036
:104E4C000622000E0524E16E040E0620E26EDFCF72
:104E5C00E7FF010E4024036E000E4120046E000E8D
:104E6C000324D96E040E0420DA6E000E4024E16E89
:104E7C00040E4120E26EDFCFE7FF020E4024036EEA
:104E8C00000E4120046E000E0324D96E040E042083
:104E9C00DA6E010E4024056E000E4120066E000EE7
:104EAC000524E16E040E0620E26EDFCFE7FF030E51
:104EBC004024036E000E4120046E000E0324D96EB4
:104ECC00040E0420DA6E020E4024056E000E412002
:104EDC00066E000E0524E16E040E0620E26EDFCF96
:104EEC00E7FF030E4024036E000E4120046E000EFB
:104EFC000324D96E040E0420DA6E000EDF6E400619
:104F0C00D8A04106440E3E183F10D8A404D0000E81
:104F1C00286E010E276E7C0E3E183F10D8A404D0CC
:104F2C00000E286E000E276E27042810D8A4DFD0A0
:104F3C00030E3E24036E000E3F20046E000E03246D
:104F4C00D96E040E0420DA6E040E3E24056E000E9B
:104F5C003F20066E000E0524E16E040E0620E26E64
:104F6C00DFCFE7FF020E3E24036E000E3F20046EDF
:104F7C00000E0324D96E040E0420DA6E030E3E24B8
:104F8C00056E000E3F20066E000E0524E16E040E29
:104F9C000620E26EDFCFE7FF010E3E24036E000E0B
:104FAC003F20046E000E0324D96E040E0420DA6E2A
:104FBC00020E3E24056E000E3F20066E000E0524E8
:104FCC00E16E040E0620E26EDFCFE7FF000E3E24FA
:104FDC00D96E040E3F20DA6E010E3E24036E000ED5
:104FEC003F20046E000E0324E16E040E0420E26EDA
:104FFC00DFCFE7FFFF0E036EFF0E046E3EC005F021
:10500C003FC006F00350052604500622000E05246E
:10501C00D96E040E0620DA6E000E3E24E16E040EEC
:10502C003F20E26EDFCFE7FFFE0E036EFF0E046E35
:10503C003EC005F03FC006F0035005260450062282
:10504C00000E0524D96E040E0620DA6EFF0E076ED4
:10505C00FF0E086E3EC009F03FC00AF0075009264B
:10506C0008500A22000E0924E16E040E0A20E26E9A
:10507C00DFCFE7FFFD0E036EFF0E046E3EC005F0A2
:10508C003FC006F00350052604500622000E0524EE
:10509C00D96E040E0620DA6EFE0E076EFF0E086E39
:1050AC003EC009F03FC00AF00750092608500A22FA
:1050BC00000E0924E16E040E0A20E26EDFCFE7FF3A
:1050CC00FD0E036EFF0E046E3EC005F03FC006F0F1
:1050DC000350052604500622000E0524D96E040E3A
:1050EC000620DA6E000EDF6E3E4A3F2AE5D0FD0E3A
:1050FC00036EFF0E046E3EC005F03FC006F0035079
:10510C00052604500622000E0524D96E040E062036
:10511C00DA6EFC0E076EFF0E086E3EC009F03FC043
:10512C000AF00750092608500A22000E0924E16EE5
:10513C00040E0A20E26EDFCFE7FFFE0E036EFF0EB9
:10514C00046E3EC005F03FC006F003500526045027
:10515C000622000E0524D96E040E0620DA6EFD0E12
:10516C00076EFF0E086E3EC009F03FC00AF00750F4
:10517C00092608500A22000E0924E16E040E0A20AA
:10518C00E26EDFCFE7FFFF0E036EFF0E046E3EC034
:10519C0005F03FC006F00350052604500622000E11
:1051AC000524D96E040E0620DA6EFE0E076EFF0E75
:1051BC00086E3EC009F03FC00AF00750092608509F
:1051CC000A22000E0924E16E040E0A20E26EDFCFE3
:1051DC00E7FF000E3E24D96E040E3F20DA6EFF0E60
:1051EC00036EFF0E046E3EC005F03FC006F0035088
:1051FC00052604500622000E0524E16E040E06203E
:10520C00E26EDFCFE7FF010E3E24036E000E3F205F
:10521C00046E000E0324D96E040E0420DA6E000E08
:10522C003E24E16E040E3F20E26EDFCFE7FF020E5C
:10523C003E24036E000E3F20046E000E0324D96E34
:10524C00040E0420DA6E010E3E24056E000E3F2083
:10525C00066E000E0524E16E040E0620E26EDFCF12
:10526C00E7FF030E3E24036E000E3F20046E000E7B
:10527C000324D96E040E0420DA6E020E3E24056E51
:10528C00000E3F20066E000E0524E16E040E062073
:10529C00E26EDFCFE7FF030E3E24036E000E3F20CD
:1052AC00046E000E0324D96E040E0420DA6E000E78
:1052BC00DF6E3E06D8A03F06C00E42184310D8A49D
:1052CC0004D0000E266E010E256EFC0E4218431003
:1052DC00D8A404D0000E266E000E256E25042610D0
:1052EC00D8A4DFD0030E4224036E000E4320046EBC
:1052FC00000E0324D96E040E0420DA6E040E422430
:10530C00056E000E4320066E000E0524E16E040EA1
:10531C000620E26EDFCFE7FF020E4224036E000E82
:10532C004320046E000E0324D96E040E0420DA6EA2
:10533C00030E4224056E000E4320066E000E05245B
:10534C00E16E040E0620E26EDFCFE7FF010E422471
:10535C00036E000E4320046E000E0324D96E040E5F
:10536C000420DA6E020E4224056E000E4320066EF7
:10537C00000E0524E16E040E0620E26EDFCFE7FF7F
:10538C00000E4224D96E040E4320DA6E010E422424
:10539C00036E000E4320046E000E0324E16E040E17
:1053AC000420E26EDFCFE7FFFF0E036EFF0E046EEC
:1053BC0042C005F043C006F00350052604500622F7
:1053CC00000E0524D96E040E0620DA6E000E42245F
:1053DC00E16E040E4320E26EDFCFE7FFFE0E036E9C
:1053EC00FF0E046E42C005F043C006F003500526C4
:1053FC0004500622000E0524D96E040E0620DA6E27
:10540C00FF0E076EFF0E086E42C009F043C00AF093
:10541C000750092608500A22000E0924E16E040EDA
:10542C000A20E26EDFCFE7FFFD0E036EFF0E046E67
:10543C0042C005F043C006F0035005260450062276
:10544C00000E0524D96E040E0620DA6EFE0E076ED1
:10545C00FF0E086E42C009F043C00AF0075009263F
:10546C0008500A22000E0924E16E040E0A20E26E96
:10547C00DFCFE7FFFD0E036EFF0E046E42C005F09A
:10548C0043C006F00350052604500622000E0524E6
:10549C00D96E040E0620DA6E000EDF6E424A432AE5
:1054AC00E5D0FD0E036EFF0E046E42C005F043C046
:1054BC0006F00350052604500622000E0524D96E72
:1054CC00040E0620DA6EFC0E076EFF0E086E42C04C
:1054DC0009F043C00AF00750092608500A22000EB2
:1054EC000924E16E040E0A20E26EDFCFE7FFFE0E08
:1054FC00036EFF0E046E42C005F043C006F003506D
:10550C00052604500622000E0524D96E040E062032
:10551C00DA6EFD0E076EFF0E086E42C009F043C036
:10552C000AF00750092608500A22000E0924E16EE1
:10553C00040E0A20E26EDFCFE7FFFF0E036EFF0EB4
:10554C00046E42C005F043C006F00350052604501B
:10555C000622000E0524D96E040E0620DA6EFE0E0D
:10556C00076EFF0E086E42C009F043C00AF00750E8
:10557C00092608500A22000E0924E16E040E0A20A6
:10558C00E26EDFCFE7FF000E4224D96E040E4320FB
:10559C00DA6EFF0E036EFF0E046E42C005F043C0C0
:1055AC0006F00350052604500622000E0524E16E79
:1055BC00040E0620E26EDFCFE7FF010E4224036EDD
:1055CC00000E4320046E000E0324D96E040E04203A
:1055DC00DA6E000E4224E16E040E4320E26EDFCF41
:1055EC00E7FF020E4224036E000E4320046E000EF1
:1055FC000324D96E040E0420DA6E010E4224056ECB
:10560C00000E4320066E000E0524E16E040E0620EB
:10561C00E26EDFCFE7FF030E4224036E000E432041
:10562C00046E000E0324D96E040E0420DA6E020EF2
:10563C004224056E000E4320066E000E0524E16E1A
:10564C00040E0620E26EDFCFE7FF030E4224036E4A
:10565C00000E4320046E000E0324D96E040E0420A9
:10566C00DA6E000EDF6E4206D8A04306400E3C18E0
:10567C003D10D8A404D0000E246E010E236E040E2F
:10568C003C183D10D8A404D0000E246E000E236EDE
:10569C0023502410D8A4DFD0030E3C24036E000E3C
:1056AC003D20046E000E0324D96E040E0420DA6E25
:1056BC00040E3C24056E000E3D20066E000E0524E3
:1056CC00E16E040E0620E26EDFCFE7FF020E3C24F3
:1056DC00036E000E3D20046E000E0324D96E040EE2
:1056EC000420DA6E030E3C24056E000E3D20066E7F
:1056FC00000E0524E16E040E0620E26EDFCFE7FFFC
:10570C00010E3C24036E000E3D20046E000E03249B
:10571C00D96E040E0420DA6E020E3C24056E000EC7
:10572C003D20066E000E0524E16E040E0620E26E8E
:10573C00DFCFE7FF000E3C24D96E040E3D20DA6E5D
:10574C00010E3C24036E000E3D20046E000E03245B
:10575C00E16E040E0420E26EDFCFE7FFFF0E036E56
:10576C00FF0E046E3CC005F03DC006F0035005264C
:10577C0004500622000E0524D96E040E0620DA6EA3
:10578C00000E3C24E16E040E3D20E26EDFCFE7FFFD
:10579C00FE0E036EFF0E046E3CC005F03DC006F01D
:1057AC000350052604500622000E0524D96E040E63
:1057BC000620DA6EFF0E076EFF0E086E3CC009F075
:1057CC003DC00AF00750092608500A22000E092491
:1057DC00E16E040E0A20E26EDFCFE7FFFD0E036ED2
:1057EC00FF0E046E3CC005F03DC006F003500526CC
:1057FC0004500622000E0524D96E040E0620DA6E23
:10580C00FE0E076EFF0E086E3CC009F03DC00AF09C
:10581C000750092608500A22000E0924E16E040ED6
:10582C000A20E26EDFCFE7FFFD0E036EFF0E046E63
:10583C003CC005F03DC006F003500526045006227E
:10584C00000E0524D96E040E0620DA6E000EDF6EF3
:10585C003C4A3D2AE5D0FD0E036EFF0E046E3CC0A3
:10586C0005F03DC006F00350052604500622000E3C
:10587C000524D96E040E0620DA6EFC0E076EFF0EA0
:10588C00086E3CC009F03DC00AF0075009260850CC
:10589C000A22000E0924E16E040E0A20E26EDFCF0C
:1058AC00E7FFFE0E036EFF0E046E3CC005F03DC01C
:1058BC0006F00350052604500622000E0524D96E6E
:1058CC00040E0620DA6EFD0E076EFF0E086E3CC04D
:1058DC0009F03DC00AF00750092608500A22000EB4
:1058EC000924E16E040E0A20E26EDFCFE7FFFF0E03
:1058FC00036EFF0E046E3CC005F03DC006F0035075
:10590C00052604500622000E0524D96E040E06202E
:10591C00DA6EFE0E076EFF0E086E3CC009F03DC03D
:10592C000AF00750092608500A22000E0924E16EDD
:10593C00040E0A20E26EDFCFE7FF000E3C24D96E86
:10594C00040E3D20DA6EFF0E036EFF0E046E3CC09B
:10595C0005F03DC006F00350052604500622000E4B
:10596C000524E16E040E0620E26EDFCFE7FF010E88
:10597C003C24036E000E3D20046E000E0324D96EF1
:10598C00040E0420DA6E000E3C24E16E040E3D2061
:10599C00E26EDFCFE7FF020E3C24036E000E3D20CB
:1059AC00046E000E0324D96E040E0420DA6E010E70
:1059BC003C24056E000E3D20066E000E0524E16EA3
:1059CC00040E0620E26EDFCFE7FF030E3C24036ECD
:1059DC00000E3D20046E000E0324D96E040E04202C
:1059EC00DA6E020E3C24056E000E3D20066E000E93
:1059FC000524E16E040E0620E26EDFCFE7FF030EF6
:105A0C003C24036E000E3D20046E000E0324D96E60
:105A1C00040E0420DA6E000EDF6E3C06D8A03D06A4
:105A2C00000E3C24D96E040E3D20DA6EDF50D8A453
:105A3C007EEF31F0030E3C24036E000E3D20046E0D
:105A4C00000E0324D96E040E0420DA6EDF50D8A4A5
:105A5C007EEF31F0020E3C24036E000E3D20046EEE
:105A6C00000E0324D96E040E0420DA6EDF50D8A485
:105A7C007EEF31F0010E3C24036E000E3D20046ECF
:105A8C00000E0324D96E040E0420DA6EDF50D8A465
:105A9C007EEF31F0FF0E036EFF0E046E3CC005F07E
:105AAC003DC006F00350052604500622000E0524C6
:105ABC00D96E040E0620DA6EDF50D8A47EEF31F0DA
:105ACC00FE0E036EFF0E046E3CC005F03DC006F0EA
:105ADC000350052604500622000E0524D96E040E30
:105AEC000620DA6EDF50D8A47EEF31F0FD0E036E87
:105AFC00FF0E046E3CC005F03DC006F003500526B9
:105B0C0004500622000E0524D96E040E0620DA6E0F
:105B1C00DF50D8A4EDD3FD0E036EFF0E046E42C011
:105B2C0005F043C006F00350052604500622000E73
:105B3C000524D96E040E0620DA6EFE0E086EFF0EDA
:105B4C00096E42C00AF043C00BF008500A260950F7
:105B5C000B22000E0A24E16E040E0B20E26E000EE6
:105B6C004224E96E040E4320EA6EEF500D6E030ED4
:105B7C0042240E6E000E43200F6E000E0E24E96EB2
:105B8C00040E0F20EA6EEE500D18D8A403D0116A43
:105B9C00112A01D0116A020E4224126E000E43200B
:105BAC00136E000E1224E96E040E1320EA6EEE50F2
:105BBC001118D8A403D0156A152A01D0156A010E44
:105BCC004224166E000E4320176E000E1624E96E4A
:105BDC00040E1720EA6EEE501518D8A403D0196ADB
:105BEC00192A01D0196AFF0E1A6EFF0E1B6E42C0E5
:105BFC001CF043C01DF01A501C261B501D22000E19
:105C0C001C24E96E040E1D20EA6EEE501918D8A45F
:105C1C0003D01F6A1F2A01D01F6AE6501F18D8A490
:105C2C0003D0206A202A01D0206ADE502018D8B474
:105C3C005FD3FD0E036EFF0E046E3EC005F03FC039
:105C4C0006F00350052604500622000E0524D96EDA
:105C5C00040E0620DA6EFE0E086EFF0E096E3EC0B4
:105C6C000AF03FC00BF008500A2609500B22000E18
:105C7C000A24E16E040E0B20E26E000E3E24E96E47
:105C8C00040E3F20EA6EEF500D6E030E3E240E6E96
:105C9C00000E3F200F6E000E0E24E96E040E0F2036
:105CAC00EA6EEE500D18D8A403D0116A112A01D057
:105CBC00116A020E3E24126E000E3F20136E000E6F
:105CCC001224E96E040E1320EA6EEE501118D8A4BB
:105CDC0003D0156A152A01D0156A010E3E24166EE2
:105CEC00000E3F20176E000E1624E96E040E1720CE
:105CFC00EA6EEE501518D8A403D0196A192A01D0EF
:105D0C00196AFF0E1A6EFF0E1B6E3EC01CF03FC0D0
:105D1C001DF01A501C261B501D22000E1C24E96E6F
:105D2C00040E1D20EA6EEE501918D8A403D01F6A79
:105D3C001F2A01D01F6AE6501F18D8A403D0206A6E
:105D4C00202A01D0206ADE502018D8B4D1D2FD0E02
:105D5C00036EFF0E046E40C005F041C006F0035008
:105D6C00052604500622000E0524D96E040E0620CA
:105D7C00DA6EFE0E086EFF0E096E40C00AF041C0CE
:105D8C000BF008500A2609500B22000E0A24E16E73
:105D9C00040E0B20E26E000E4024E96E040E41202E
:105DAC00EA6EEF500D6E030E40240E6E000E412075
:105DBC000F6E000E0E24E96E040E0F20EA6EEE50EC
:105DCC000D18D8A403D0116A112A01D0116A020E41
:105DDC004024126E000E4120136E000E1224E96E48
:105DEC00040E1320EA6EEE501118D8A403D0156AD5
:105DFC00152A01D0156A010E4024166E000E4120A2
:105E0C00176E000E1624E96E040E1720EA6EEE5083
:105E1C001518D8A403D0196A192A01D0196AFF0ED3
:105E2C001A6EFF0E1B6E40C01CF041C01DF01A50C4
:105E3C001C261B501D22000E1C24E96E040E1D2076
:105E4C00EA6EEE501918D8A403D01F6A1F2A01D08D
:105E5C001F6AE6501F18D8A403D0206A202A01D04C
:105E6C00206ADE502018D8B443D2000E336E000ED8
:105E7C00326E33BE04D0040E335CD8B00BD0000E9F
:105E8C003224D96E040E3320DA6E000EDF6E324AE5
:105E9C00332AEFD70E0E3A24036E000E3B20046E0D
:105EAC00000E0324D96E040E0420DA6E1F0EDF6E72
:105EBC00070E3A24056E000E3B20066E000E0524DC
:105ECC00E16E040E0620E26EDFCFE7FF0D0E3A24E2
:105EDC00036E000E3B20046E000E0324D96E040EDC
:105EEC000420DA6E200EDF6E080E3A24056E000ECA
:105EFC003B20066E000E0524E16E040E0620E26EB9
:105F0C00DFCFE7FF0C0E3A24036E000E3B20046E2D
:105F1C00000E0324D96E040E0420DA6E400EDF6EE0
:105F2C00090E3A24056E000E3B20066E000E052469
:105F3C00E16E040E0620E26EDFCFE7FF0B0E3A2473
:105F4C00036E000E3B20046E000E0324D96E040E6B
:105F5C000420DA6E800EDF6E0A0E3A24056E000EF7
:105F6C003B20066E000E0524E16E040E0620E26E48
:105F7C00DFCFE7FF110E3A24036E000E3B20046EB8
:105F8C00000E0324D96E040E0420DA6EFF0EDF6EB1
:105F9C00100E3A24056E000E3B20066E000E0524F2
:105FAC00E16E040E0620E26EDFCFE7FF130E3A24FB
:105FBC00036E000E3B20046E000E0324D96E040EFB
:105FCC000420DA6EFF0EDF6E170E3A24036E000EFD
:105FDC003B20046E000E0324D96E040E0420DA6EEE
:105FEC00810EDF6E160E3A24056E000E3B20066EF7
:105FFC00000E0524E16E040E0620E26EDFCFE7FFF3
:10600C00150E3A24076E000E3B20086E000E072476
:10601C00D96E040E0820DA6EE7CFDFFF140E3A2497
:10602C00096E000E3B200A6E000E0924E16E040E70
:10603C000A20E26EDFCFE7FF1F0E3A24036E000E3C
:10604C003B20046E000E0324D96E040E0420DA6E7D
:10605C00010EDF6E1E0E3A24056E000E3B20066EFE
:10606C00000E0524E16E040E0620E26EDFCFE7FF82
:10607C001D0E3A24076E000E3B20086E000E0724FE
:10608C00D96E040E0820DA6EE7CFDFFF1B0E3A2420
:10609C00096E000E3B200A6E000E0924E16E040E00
:1060AC000A20E26EDFCFE7FF1A0E3A240B6E000EC9
:1060BC003B200C6E000E0B24D96E040E0C20DA6EF5
:1060CC00E7CFDFFF190E3A240D6E000E3B200E6E4B
:1060DC00000E0D24E16E040E0E20E26EDFCFE7FF02
:1060EC001C0E3A24036E000E3B20046E000E03249B
:1060FC00D96E040E0420DA6EFF0EDF6E040E3A2405
:10610C003A6E000E3B203B6E230E3A24036E000EBB
:10611C003B20046E000E0324D96E040E0420DA6EAC
:10612C00FF0EDF6E1E0E3A24056E000E3B20066E2F
:10613C00000E0524E16E040E0620E26EDFCFE7FFB1
:10614C00220E3A24036E000E3B20046E000E032434
:10615C00D96E040E0420DA6E810EDF6E210E3A2405
:10616C00056E000E3B20066E000E0524E16E040E3B
:10617C000620E26EDFCFE7FF200E3A24076E000EFA
:10618C003B20086E000E0724D96E040E0820DA6E30
:10619C00E7CFDFFF1F0E3A24096E000E3B200A6E7C
:1061AC00000E0924E16E040E0A20E26EDFCFE7FF39
:1061BC00020E3A243A6E000E3B203B6E250E3A241A
:1061CC00036E000E3B20046E000E0324D96E040EE9
:1061DC000420DA6EFF0EDF6E240E3A24056E000EDC
:1061EC003B20066E000E0524E16E040E0620E26EC6
:1061FC00DFCFE7FF270E3A24036E000E3B20046E20
:10620C00000E0324D96E040E0420DA6EFF0EDF6E2E
:10621C00280E3A24036E000E3B20046E000E03245D
:10622C00D96E040E0420DA6E110EDF6E290E3A249C
:10623C00036E000E3B20046E000E0324D96E040E78
:10624C000420DA6E310EDF6E2A0E3A24036E000E35
:10625C003B20046E000E0324D96E040E0420DA6E6B
:10626C004A0EDF6E2B0E3A24036E000E3B20046E9A
:10627C00000E0324D96E040E0420DA6E840EDF6E39
:10628C002D0E3A24036E000E3B20046E000E0324E8
:10629C00D96E040E0420DA6EFF0EDF6E300E3A2437
:1062AC00036E000E3B20046E000E0324D96E040E08
:1062BC000420DA6E910EDF6E2F0E3A24056E000E5E
:1062CC003B20066E000E0524E16E040E0620E26EE5
:1062DC00DFCFE7FF2E0E3A24076E000E3B20086E30
:1062EC00000E0724D96E040E0820DA6EE7CFDFFF0C
:1062FC000A0E2D182E10D8A40CD0000E306E010EE4
:10630C002F6E000E2E6E000E2D6E42C036F043C066
:10631C0037F02D4A2E2A2F043010D8A45AD0800ED4
:10632C003624036E000E3720046E000E0324D96E43
:10633C00040E0420DA6EFF0EDF6E810E3624036E1F
:10634C00000E3720046E000E0324D96E040E0420B8
:10635C00DA6EFF0EDF6E000E3624D96E040E372077
:10636C00DA6E000EDF6E010E3624036E000E37203F
:10637C00046E000E0324D96E040E0420DA6E000E97
:10638C00DF6E800E3624366E000E3720376E37BE29
:10639C0020D0810E365C030E3758D8A01AD0000ED0
:1063AC003624D96E040E3720DA6E000EDF6E010E25
:1063BC003624036E000E3720046E000E0324D96EB3
:1063CC00040E0420DA6E000EDF6E000E306E000E2E
:1063DC002F6E81AC08D0000E2C6E010E2B6E44C0BB
:1063EC0038F045C039F02B042C10D8A45AD1800EAB
:1063FC00036EFF0E046E38C005F039C006F0035072
:10640C00052604500622000E0524D96E040E062023
:10641C00DA6EFF0EDF6E7F0E036EFF0E046E38C059
:10642C0005F039C006F00350052604500622000E74
:10643C000524D96E040E0620DA6EFF0EDF6E810E77
:10644C00036EFF0E046E38C005F039C006F0035021
:10645C00052604500622000E0524D96E040E0620D3
:10646C00DA6EFF0EDF6E820E036EFF0E046E38C006
:10647C0005F039C006F00350052604500622000E24
:10648C000524D96E040E0620DA6EFF0EDF6E7E0E2A
:10649C00036EFF0E046E38C005F039C006F00350D1
:1064AC00052604500622000E0524D96E040E062083
:1064BC00DA6EFF0EDF6E000E3824D96E040E392012
:1064CC00DA6E000EDF6E010E3824036E000E3920DA
:1064DC00046E000E0324D96E040E0420DA6E000E36
:1064EC00DF6EFF0E036EFF0E046E38C005F039C070
:1064FC0006F00350052604500622000E0524D96E22
:10650C00040E0620DA6E000EDF6E020E3824036EC7
:10651C00000E3920046E000E0324D96E040E0420E4
:10652C00DA6E000EDF6EFE0E036EFF0E046E38C0C8
:10653C0005F039C006F00350052604500622000E63
:10654C000524D96E040E0620DA6E000EDF6E800E66
:10655C003824386EFF0E3920396E39BE06D03950CA
:10656C0054E1810E385CD8B050D0000E3824D96E6E
:10657C00040E3920DA6E000EDF6E010E3824036E25
:10658C00000E3920046E000E0324D96E040E042074
:10659C00DA6E000EDF6EFF0E036EFF0E046E38C057
:1065AC0005F039C006F00350052604500622000EF3
:1065BC000524D96E040E0620DA6E000EDF6E020E74
:1065CC003824036E000E3920046E000E0324D96E9D
:1065DC00040E0420DA6E000EDF6EFE0E036EFF0E4C
:1065EC00046E38C005F039C006F00350052604507F
:1065FC000622000E0524D96E040E0620DA6E000E5B
:10660C00DF6E000E2C6E000E2B6E000E4424D96E25
:10661C00040E4520DA6EFF0EDF6E010E4424036E6D
:10662C00000E4520046E000E0324D96E040E0420C7
:10663C00DA6EFC0EDF6EFF0E056EFF0E066E44C0AA
:10664C0007F045C008F00550072606500822000E3A
:10665C000724E16E040E0820E26EDFCFE7FF020E86
:10666C004424036E000E4520046E000E0324D96EE4
:10667C00040E0420DA6EF00EDF6EFE0E056EFF0EB9
:10668C00066E44C007F045C008F0055007260650BA
:10669C000822000E0724E16E040E0820E26EDFCF04
:1066AC00E7FF84A0A8D045BE06D0FD0E445C030EC7
:1066BC004558D8B0A0D0020E4424036E000E4520DD
:1066CC00046E000E0324D96E040E0420DA6E030E41
:1066DC004424056E000E4520066E000E0524E16E66
:1066EC00040E0620E26EDFCFE7FF010E4424036E9A
:1066FC00000E4520046E000E0324D96E040E0420F7
:10670C00DA6E020E4424056E000E4520066E000E55
:10671C000524E16E040E0620E26EDFCFE7FF000ECB
:10672C004424D96E040E4520DA6EFF0EDF6E010E86
:10673C004424036E000E4520046E000E0324E16E0B
:10674C00040E0420E26EDFCFE7FFFF0E036EFF0E98
:10675C00046E44C005F045C006F0035005260450F5
:10676C000622000E0524D96E040E0620DA6E000EE9
:10677C004424E16E040E4520E26EDFCFE7FFFE0EEF
:10678C00036EFF0E046E44C005F045C006F00350C6
:10679C00052604500622000E0524D96E040E062090
:1067AC00DA6EFF0E076EFF0E086E44C009F045C08E
:1067BC000AF00750092608500A22000E0924E16E3F
:1067CC00040E0A20E26EDFCFE7FFFE0E036EFF0E13
:1067DC00046E44C005F045C006F003500526045075
:1067EC000622000E0524D96E040E0620DA6E000E69
:1067FC00DF6E444A452A84B245BEADD0810E445C5E
:10680C00030E4558D8A0A7D0FE0E036EFF0E046EE3
:10681C0044C005F045C006F003500526045006227E
:10682C00000E0524D96E040E0620DA6EFD0E076EDE
:10683C00FF0E086E44C009F045C00AF00750092647
:10684C0008500A22000E0924E16E040E0A20E26EA2
:10685C00DFCFE7FFFF0E036EFF0E046E44C005F0A2
:10686C0045C006F00350052604500622000E0524F0
:10687C00D96E040E0620DA6EFE0E076EFF0E086E41
:10688C0044C009F045C00AF00750092608500A22F6
:10689C00000E0924E16E040E0A20E26EDFCFE7FF42
:1068AC00000E4424D96E040E4520DA6EFF0EDF6E06
:1068BC00FF0E036EFF0E046E44C005F045C006F0DB
:1068CC000350052604500622000E0524E16E040E2A
:1068DC000620E26EDFCFE7FF010E4424036E000EAC
:1068EC004520046E000E0324D96E040E0420DA6ECB
:1068FC00000E4424E16E040E4520E26EDFCFE7FF6C
:10690C00020E4424036E000E4520046E000E032478
:10691C00D96E040E0420DA6E010E4424056E000EAE
:10692C004520066E000E0524E16E040E0620E26E74
:10693C00DFCFE7FF020E4424036E000E4520046EE9
:10694C00000E0324D96E040E0420DA6E000EDF6EE6
:10695C004406D8A0450684B450D071D0000E44240F
:10696C00D96E040E4520DA6E020E45D0000E44247A
:10697C00D96E040E4520DA6E040E3DD0000E442470
:10698C00D96E040E4520DA6E080E35D0000E442464
:10699C00D96E040E4520DA6E100E2DD0000E442454
:1069AC00D96E040E4520DA6E200E25D0000E44243C
:1069BC00D96E040E4520DA6E400E1DD0000E442414
:1069CC00D96E040E4520DA6E800EDF6E000E442464
:1069DC00D96E040E4520DA6E000EDF6E800E442454
:1069EC00446E000E4520456E000E4424D96E040EF4
:1069FC004520DA6E010EDF6E22D0000E4424D96ED3
:106A0C00040E4520DA6EDF50000AD8B4EDD7010A27
:106A1C00D8B4A4D7030AD8B4A9D7060AD8B4AED729
:106A2C000C0AD8B4B3D7180AD8B4B8D7300AD8B42B
:106A3C00BDD7600AD8B4C2D7C00AD8B4C7D781BEF4
:106A4C0052D076EF25F0000E4424D96E040E45206A
:106A5C00DA6E400E45D0000E4424D96E040E45204B
:106A6C00DA6E200E3DD0000E4424D96E040E452063
:106A7C00DA6E100E35D0000E4424D96E040E45206B
:106A8C00DA6E080E2DD0000E4424D96E040E45206B
:106A9C00DA6E040E25D0000E4424D96E040E452067
:106AAC00DA6E020E1DD0000E4424D96E040E452061
:106ABC00DA6E010EDF6E000E4424D96E040E4520F2
:106ACC00DA6E000EDF6E800E4424446EFF0E4520FD
:106ADC00456E000E4424D96E040E4520DA6E800EED
:106AEC00DF6E76EF25F0000E4424D96E040E45209F
:106AFC00DA6EDF50000AD8B4ECD7010AD8B4DBD771
:106B0C00030AD8B4D0D7060AD8B4C5D70C0AD8B45F
:106B1C00BAD7180AD8B4AFD7300AD8B4A4D7600AF9
:106B2C00D8B499D7C00AD8B48ED776EF25F0000028
:106B3C000000000000000000000000000000000049
:106B4C000000000000000000000000000000000039
:106B5C000000000000000000000000000000000029
:106B6C000000000000000000000000000000000019
:106B7C000000000000000000000000000000000009
:106B8C0000000000000000000000000000000000F9
:106B9C0000000000000000000000000000000000E9
:106BAC0000000000000000000000000000000000D9
:106BBC0000000000000000000000000000000000C9
:106BCC0000000000000000000000000000000000B9
:106BDC0000000000000000000000000000000000A9
:106BEC000000000000000000000000000000000099
:106BFC000000000000000000000000000000000089
:106C0C000000000000000000000000000000000078
:106C1C000000000000000000000000000000000068
:106C2C000000000000000000000000000000000058
:106C3C000000000000000000065F5F06000000007E
:106C4C0007070007070000147F7F147F7F140024C0
:106C5C002E6B6B3A120000466630180C66620030E0
:106C6C007A4F5D377A4800040703000000000000EB
:106C7C001C3E63410000000041633E1C0000000804
:106C8C002A3E1C1C3E2A0808083E3E08080000004C
:106C9C0080E06000000000080808080808000000F8
:106CAC00006060000000006030180C060301003E1C
:106CBC007F71594D7F3E0040427F7F404000006213
:106CCC007359496F660000226349497F36000018EA
:106CDC001C16537F7F5000276745457D3900003CCB
:106CEC007E4B4979300000030371790F07000036A1
:106CFC007F49497F360000064F49693F1E0000005E
:106D0C00006666000000000080E6660000000008D7
:106D1C001C36634100000024242424242400000099
:106D2C004163361C080000020351590F0600003E57
:106D3C007F415D5D1F1E007C7E13137E7C00004135
:106D4C007F7F49497F36001C3E63414163220041ED
:106D5C007F7F41633E1C00417F7F495D4163004161
:106D6C007F7F491D0103001C3E6341517372007FFC
:106D7C007F08087F7F000000417F7F4100000030CA
:106D8C007040417F3F0100417F7F081C77630041C9
:106D9C007F7F41406070007F7F0E1C0E7F7F007FE5
:106DAC007F060C187F7F001C3E6341633E1C004134
:106DBC007F7F49090F06001E3F21717F5E00004155
:106DCC007F7F09197F6600266F4D597332000003CF
:106DDC00417F7F410300007F7F40407F7F00001F89
:106DEC003F60603F1F00007F7F3018307F7F004383
:106DFC00673C183C674300074F78784F0700004703
:106E0C006371594D677300007F7F414100000001A1
:106E1C0003060C183060000041417F7F0000000821
:106E2C000C0603060C080080808080808080800027
:106E3C0000030704000000207454543C78400041C7
:106E4C007F3F4848783000387C44446C2800003040
:106E5C007848493F7F4000387C54545C1800004807
:106E6C007E7F490302000098BCA4A4F87C04004176
:106E7C007F7F08047C780000447D7D40000000602A
:106E8C00E08080FD7D0000417F7F10386C44000065
:106E9C00417F7F400000007C7C18381C7C78007C93
:106EAC007C04047C780000387C44447C38000084EA
:106EBC00FCF8A4243C1800183C24A4F8FC840044DE
:106ECC007C784C041C1800485C545474240000005A
:106EDC00043E7F442400003C7C40403C7C40001C31
:106EEC003C60603C1C00003C7C7038707C3C004476
:106EFC006C3810386C44009CBCA0A0FC7C00004C8E
:106F0C0064745C4C64000008083E7741410000004A
:106F1C00000077770000004141773E08080000022E
:106F2C000301030203010070784C464C7870000E8C
:106F3C009F91B1FB4A00003A7A40407A7A4000387F
:106F4C007C54555D19000002237555557D7B4221FB
:106F5C007554547D794000217555547C784000203F
:106F6C007457577C784000183CA4A4E440000002FD
:106F7C003B7D55555D1B02397D54545D190000391C
:106F8C007D55545C18000001457C7C4101000002D9
:106F9C0003457D7D43020001457D7C400000007966
:106FAC007D1612167D790070782B2B7870000044BA
:106FBC007C7C5555450000207454547C7C54547C86
:106FCC007E0B097F7F4900327B49497B32000032BE
:106FDC007A48487A320000327A4A48783000003ACF
:106FEC007B41417B7A40003A7A4240787840009A63
:106FFC00BAA0A0FA7A000001193C66663C19013D62
:10700C007D40407D3D0000183C24E7E724240068C7
:10701C007E7F49436620002B2FFCFC2F2B0000FFAA
:10702C00FF09092FF6F8A040C088FE7F0903022053
:10703C007454557D79400000447D7D410000003042
:10704C0078484A7A320000387840427A7A40007A9E
:10705C007A0A0A7A7000007D7D19317D7D0000006E
:10706C00262F292F2F280000262F292F260000300D
:10707C00784D4560200000383808080808000008E2
:10708C00080808383800004F6F3018CCEEBB914F11
:10709C006F30186C76FBF90000007B7B0000000859
:1070AC001C3622081C362222361C0822361C08AA42
:1070BC00005500AA005500AA55AA55AA55AA55DD97
:1070CC00FFAA77DDAAFF77000000FFFF0000001089
:1070DC001010FFFF000000141414FFFF000000103C
:1070EC0010FFFF00FFFF001010F0F010F0F0001484
:1070FC001414FCFC0000001414F7F700FFFF000050
:10710C0000FFFF00FFFF001414F4F404FCFC001457
:10711C00141717101F1F0010101F1F101F1F001413
:10712C0014141F1F000000101010F0F000000000DD
:10713C0000001F1F1010101010101F1F1010101027
:10714C001010F0F0101010000000FFFF10101010C5
:10715C0010101010101010101010FFFF1010100055
:10716C000000FFFF1414140000FFFF00FFFF1000CD
:10717C00001F1F101717140000FCFC04F4F4141467
:10718C00141717101717141414F4F404F4F414004F
:10719C0000FFFF00F7F7141414141414141414142F
:1071AC0014F7F700F7F71414141417171414141019
:1071BC00101F1F101F1F10141414F4F414141410A7
:1071CC0010F0F010F0F01000001F1F101F1F100027
:1071DC0000001F1F141414000000FCFC14141400F5
:1071EC0000F0F010F0F0101010FFFF10FFFF101463
:1071FC001414FFFF1414141010101F1F00000000B3
:10720C000000F0F0101010FFFFFFFFFFFFFFFFF07A
:10721C00F0F0F0F0F0F0F0FFFFFFFF0000000000D6
:10722C00000000FFFFFFFF0F0F0F0F0F0F0F0F38A6
:10723C007C446C386C4400FCFE2A2A3E1400007E10
:10724C007E020206060000027E7E027E7E02006343
:10725C00775D4963630000387C447C3C0404008007
:10726C00FE7E20203E1E000406027E7C0602009953
:10727C00BDE7E7BD9900001C3E6B496B3E1C004C02
:10728C007E7301737E4C0030784A4F7D39000018B4
:10729C003C243C3C243C1898FC643C3E273D1800A4
:1072AC0000000000000000000000000000000000D2
:1072BC0000000000000000000000000000000000C2
:1072CC0000000000000000000000000000000000B2
:1072DC0000000000000000000000000000000000A2
:1072EC000000000000000000000000000000000092
:1072FC000000000000000000000000000000000082
:10730C000000000000000000000000000000000071
:10731C000000000000000000000000000000000061
:10732C000000000000000000000000000000000051
:10733C000000000000000000000000000000000041
:10734C000000000000000000000000000000000031
:10735C000000000000000000000000000000000021
:10736C000000E0F0C8CCC4C2E2E2F2FEFEFEFCB0CB
:10737C000000000000000000000000000000000001
:10738C0000000000000000000000000000000000F1
:10739C0000000000000000000000000000000000E1
:1073AC0000000000000000000000000000000000D1
:1073BC0000000000000000000000000000000000C1
:1073CC0000000000000000000000000000000000B1
:1073DC0000000000000000000000000000000000A1
:1073EC000083CF5F3F3F3F3F3F3F3F3F1F3F3F3F0C
:1073FC007F7880000000000000000000000000000A
:10740C000000000000000000000000000000000070
:10741C000000000000000000000000000000000060
:10742C000000000000000000000000000000000050
:10743C000000000000000000000000000000000040
:10744C000000000000000000000000000000000030
:10745C000000000000000000000000000080C08858
:10746C004261F04280000800006022000800000029
:10747C0000000103BC0080E0F0F8FCFCECF6F078B6
:10748C003838181818080000000000000000000030
:10749C0000000000000000000000000000000000E0
:1074AC0000000000000000000000000000000000D0
:1074BC0000000000000000000000000000000000C0
:1074CC0000000000000000000000000000000000B0
:1074DC000000000000000000000000FC038382C6D6
:1074EC00FAFAFCFCFAFFE2010000000100000000C7
:1074FC00000000F00708FFFFFFFFFFFFFFDFCFCF0B
:10750C008F0F0F0F0E1C1830000000000000000041
:10751C00000000000000000000000000000000005F
:10752C00000000000000000000000000000000004F
:10753C00000000000000000000000000000000003F
:10754C00000000000000000000000000000000002F
:10755C000000000000000000608E01040F1F1F0FD0
:10756C000F1F3F3F3F3F1F03000000000020001093
:10757C0000080808090A082B2B3337FF03030307FD
:10758C001F7F100000000000000000000000000041
:10759C0000000000000000000000000000000000DF
:1075AC0000000000000000000000000000000000CF
:1075BC0000000000000000000000000000000000BF
:1075CC0000000000000000000000000000000000AF
:1075DC0000000000000000000007083060C08000C0
:1075EC0000000000000000000000000040800000CF
:1075FC00000000008080C060341A05030000000009
:10760C00000000000000000000000000000000006E
:10761C00000000000000000000000000000000005E
:10762C00000000000000000000000000000000004E
:10763C00000000000000000000000000000000003E
:10764C00000000000000000000000000000000002E
:10765C00000000000000000000000000000000819D
:10766C0082868C9C1428E8F8102040C0C040201161
:10767C0009050505020100000000000000000000E3
:10768C0000000000000000000000000000000000EE
:10769C0000000000000000000000000000000000DE
:1076AC0000000000000000000000000000000000CE
:1076BC0000000000000000000000000000000000BE
:1076CC0000000000000000000000000000000000AE
:1076DC000000000000000000000000000000030299
:1076EC0007050404050D0E1B3B6B476363263A121A
:1076FC00121C000000000000000000000000000050
:10770C00000000000000000000000000000000006D
:10771C00000000000000000000000000000000005D
:10772C00000000000000000000000000000000004D
:10773C00000000000000000000000000000000003D
:107B2C00000000000000000000000000000000FF4A
:107B3C00FFFFFFFFFFFFFFFFFFFFFFFFFFFFFFFF49
:107B4C00FFFFFFFFFFFFFFFFFFFFFFFFFFFFFFFF39
:107B5C00FFFFFFFFFFFFFFFFFFFFFFFFFFFFFFFF29
:107B6C00FFFFFFFFFFFFFFFFFFFFFFFFFFFFFFFF19
:107F1C00FFFFFFFFFFFFFFFFFFFFFFFFFFFFFF0064
:107F2C000000000000000000000000000000000045
:107F3C000000005C000C000C7C287C7C447C241031
:107F4C0048285408000C003844004438002010081D
:107F5C00103810804000101010004000201008381D
:107F6C004438007C006454484454281C107C4C5405
:107F7C002438542004740C28542808543800500019
:107F8C00805000102844282828442810045408380D
:107F9C004C5C7814787C54283844447C44387C54A9
:107FAC00447C14043844347C107C007C0020403C1D
:107FBC007C106C7C40407C087C7C047C7C447C7C0D
:107FCC0014083844787C1468485424047C047C409D
:107FDC007C3C403C7C207C6C106C1C601C64544CC5
:107FEC007C4400081020447C000804088080800435
:037FFC000800007A
:020000040020DA
:08000000FFFFFFFFFFFFFFFF00
:020000040030CA
:0E000000000C191EFF8381FF0FC00FE00F40A0
:00000001FF
