:020000040000FA
:0400000000EF18F005
:1030000004EE00F014EE00F0EE6AE550E150FCE151
:10301000E250FAE13F6A3E6A000EF86E000106EFE8
:1030200019F00F0EC16E000EC26E000E926E000EF1
:10303000936E000E946E000E956E000E966E000E4E
:10304000806E000E816E000E826E000E836E000E8A
:10305000846E1200026E0250D8B431EF18F033EFD4
:1030600018F037EF18F08A808A923BEF18F08A92B6
:103070008A823BEF18F0000E956E8A9601C08CFF95
:103080008A8800D08A9800D08A908A9212006DEFC8
:1030900018F00E50D8B44FEF18F051EF18F05DEF64
:1030A00018F00FC003F00CC0F6FF0DC0F7FF0800CA
:1030B000F550B3EC19F069EF18F00FC003F00CC035
:1030C000F6FF0DC0F7FF0800F55049EC1AF069EF64
:1030D00018F00C4A0D2A6DEF18F00CC0F6FF0DC069
:1030E000F7FF0800F5500009D8A479EF18F07BEF3E
:1030F00018F049EF18F07DEF18F01200056E000E81
:10310000046E800E056087EF18F089EF18F0B5EFB8
:1031100018F0070E03648FEF18F091EF18F095EF99
:1031200018F0B5EF18F0B5EF18F005C03FF003C088
:103130003EF03F0E05649FEF18F0A1EF18F0A7EFE7
:1031400018F0400E055E010E046EA7EF18F08A9489
:1031500005504009016E04502AEC18F00350B809DC
:10316000016E04502AEC18F08A841200066E000EDC
:10317000836E8A9A210EE82EFED700F08A8A8A98FA
:103180008A908A928A9400D0C00E016E000E2AECBA
:1031900018F0C00E016E010E2AEC18F0400E016E00
:1031A000000E2AEC18F0400E016E010E2AEC18F009
:1031B000B80E016E000E2AEC18F0B80E016E010E6A
:1031C0002AEC18F00604D8A4E8EF18F0EAEF18F09B
:1031D000F6EF18F03F0E016E000E2AEC18F03F0ECD
:1031E000016E010E2AEC18F002EF19F03E0E016E8E
:1031F000000E2AEC18F03E0E016E010E2AEC18F0BB
:1032000002EF19F0000E57EC19F01200000E846E58
:10321000000E3B6E000E3A6E000E3D6E000E3C6ED0
:1032200011EC18F0010EB6EC18F0010E036E0A0E48
:103230007EEC18F0E60E0C6E7F0E0D6E010E0E6E1B
:10324000010E0F6E47EC18F0080E396E1B0E386E2B
:10325000270EE82EFED7382EFCD7392EFAD700F0ED
:10326000030E036E0A0E7EEC18F0F40E0C6E7F0E49
:103270000D6E010E0E6E010E0F6E47EC18F01F0E54
:10328000396E710E386E1E0EE82EFED7382EFCD722
:10329000392EFAD700D0000EB6EC18F0010EB6ECBD
:1032A00018F0EBEC1AF053EF19F000EF00F0036E9A
:1032B000000E056E070E056460EF19F062EF19F05D
:1032C00066EF19F0B2EF19F0B2EF19F08A94400EE0
:1032D000016E000E2AEC18F0400E016E010E2AEC71
:1032E00018F00550B809016E000E2AEC18F00550D0
:1032F000B809016E010E2AEC18F08A84000E046EE3
:103300003F0E046486EF19F088EF19F08CEF19F086
:10331000A7EF19F0A7EF19F00350010DF3500008C3
:10332000016E000E2AEC18F00350010DF350000856
:10333000016E010E2AEC18F0042A3F0E0464A3EF7C
:1033400019F0A5EF19F08CEF19F0A7EF19F0052A85
:10335000070E0564AEEF19F0B0EF19F066EF19F043
:10336000B2EF19F01200086E000E0B6E0A0E08186C
:10337000D8A4BDEF19F0BFEF19F0C6EF19F0000E99
:103380003F6E3E2A48EF1AF048EF1AF03F0E3F64B6
:10339000CCEF19F0CEEF19F0D5EF19F0010E0B6E4E
:1033A0003F50C00F096ED9EF19F03FC009F0D9EFB7
:1033B00019F00850080DF3CF06F0F4CF07F0000E17
:1033C0000A6E070E0A64E7EF19F0E9EF19F0EDEF66
:1033D00019F046EF1AF046EF1AF03F0E0964F3EFCA
:1033E00019F0F5EF19F009EF1AF0400E095E010E21
:1033F0000B6E8A9409504009016E0B502AEC18F0AC
:103400003E50B809016E0B502AEC18F08A8409EF7F
:103410001AF00350D8B40FEF1AF011EF1AF025EF9D
:103420001AF00A500624046E000E0720056E230EC3
:103430000424F66E6B0E0520F76E0800F5CF01F040
:103440000B502AEC18F03AEF1AF00A500624046EDA
:10345000000E0720056E230E0424F66E6B0E052069
:10346000F76E0800F550FF0A016E0B502AEC18F0B9
:103470003AEF1AF0092A0A2A070E0A6442EF1AF0F4
:1034800044EF1AF0EDEF19F046EF1AF0080E3F2660
:103490001200076E000E096E0A0E0718D8A453EF2B
:1034A0001AF055EF1AF05CEF1AF0000E3F6E3E2A4C
:1034B000EAEF1AF0EAEF1AF03F0E3F6462EF1AF0FB
:1034C00064EF1AF06BEF1AF0010E096E3F50C00F57
:1034D000066E6FEF1AF03FC006F06FEF1AF0200E85
:1034E000075E000E086E020E086479EF1AF07BEF9B
:1034F0001AF07FEF1AF0E8EF1AF0E8EF1AF03F0E3B
:10350000066485EF1AF087EF1AF09BEF1AF0400E71
:10351000065E010E096E8A9406504009016E09503C
:103520002AEC18F03E50B809016E09502AEC18F048
:103530008A849BEF1AF00350D8B4A1EF1AF0A3EFDE
:103540001AF0BFEF1AF00750030D230E046E7F0E22
:10355000056EF3500426F45005220850010DF35077
:103560000426F450052204C0F6FF05C0F7FF08004A
:10357000F5CF01F009502AEC18F0DCEF1AF00750F3
:10358000030D230E046E7F0E056EF3500426F450D7
:1035900005220850010DF3500426F450052204C002
:1035A000F6FF05C0F7FF0800F550FF0A016E09504D
:1035B0002AEC18F0DCEF1AF0062A082A020E08643A
:1035C000E4EF1AF0E6EF1AF07FEF1AF0E8EF1AF0E6
:1035D000050E3F261200030E356EE80E346E000E07
:1035E0002F6E050E2E6E000E376EFC0E366E000E20
:1035F000316E7B0E306E000E336E850E326E000E15
:10360000126E000E116E000E146E000E136E000E80
:10361000166E000E156E000E186E000E176E000E60
:103620001A6E000E196E000E1C6E000E1B6E000E40
:10363000256E000E246E010E2B6EA20E2A6E000E59
:103640001E6E000E1D6E000E206E000E1F6E000E10
:10365000296E000E286E000E226E000E216E000EE6
:103660002E24D96E040E2F20DA6E3C0EDF6E010E72
:103670002E24036E000E2F20046E000E0324D96E3C
:10368000040E0420DA6EB40EDF6EFF0E056EFF0E20
:10369000066E2EC007F02FC008F005500726065012
:1036A0000822000E0724E16E040E0820E26EDFCF30
:1036B000E7FF020E2E24036E000E2F20046E000E74
:1036C0000324D96E040E0420DA6ECA0EDF6EFE0EDD
:1036D000056EFF0E066E2EC007F02FC008F00550D5
:1036E000072606500822000E0724E16E040E08206B
:1036F000E26EDFCFE7FF030E2E24036E000E2F20B5
:10370000046E000E0324D96E040E0420DA6E190E26
:10371000DF6EFD0E056EFF0E066E2EC007F02FC089
:1037200008F00550072606500822000E0724E16E17
:10373000040E0820E26EDFCFE7FF000E3624D96EBC
:10374000040E3720DA6E3C0EDF6E010E3624036E57
:10375000000E3720046E000E0324D96E040E0420E0
:10376000DA6EB40EDF6EFF0E056EFF0E066E36C00B
:1037700007F037C008F00550072606500822000E53
:103780000724E16E040E0820E26EDFCFE7FF020E91
:103790003624036E000E3720046E000E0324D96E0B
:1037A000040E0420DA6ECA0EDF6EFE0E056EFF0EEA
:1037B000066E36C007F037C008F0055007260650E1
:1037C0000822000E0724E16E040E0820E26EDFCF0F
:1037D000E7FF030E3624036E000E3720046E000E42
:1037E0000324D96E040E0420DA6E190EDF6EFD0E6E
:1037F000056EFF0E066E36C007F037C008F00550A4
:10380000072606500822000E0724E16E040E082049
:10381000E26EDFCFE7FF000E3024D96E040E3120B8
:10382000DA6E3C0EDF6E010E3024036E000E312086
:10383000046E000E0324D96E040E0420DA6EB40E5A
:10384000DF6EFF0E056EFF0E066E30C007F031C052
:1038500008F00550072606500822000E0724E16EE6
:10386000040E0820E26EDFCFE7FF020E3024036E65
:10387000000E3120046E000E0324D96E040E0420C5
:10388000DA6ECA0EDF6EFE0E056EFF0E066E30C0DB
:1038900007F031C008F00550072606500822000E38
:1038A0000724E16E040E0820E26EDFCFE7FF030E6F
:1038B0003024036E000E3120046E000E0324D96EF6
:1038C000040E0420DA6E190EDF6EFD0E056EFF0E7B
:1038D000066E30C007F031C008F0055007260650CC
:1038E0000822000E0724E16E040E0820E26EDFCFEE
:1038F000E7FF000E3224D96E040E3320DA6E3C0E40
:10390000DF6E010E3224036E000E3320046E000EB3
:103910000324D96E040E0420DA6EB40EDF6EFF0E9F
:10392000056EFF0E066E32C007F033C008F005507A
:10393000072606500822000E0724E16E040E082018
:10394000E26EDFCFE7FF020E3224036E000E33205B
:10395000046E000E0324D96E040E0420DA6ECA0E23
:10396000DF6EFE0E056EFF0E066E32C007F033C02E
:1039700008F00550072606500822000E0724E16EC5
:10398000040E0820E26EDFCFE7FF030E3224036E41
:10399000000E3320046E000E0324D96E040E0420A2
:1039A000DA6E190EDF6EFD0E056EFF0E066E32C06A
:1039B00007F033C008F00550072606500822000E15
:1039C0000724E16E040E0820E26EDFCFE7FF000E51
:1039D0003424D96E040E3520DA6EFF0EDF6E010E30
:1039E0003424036E000E3520046E000E0324D96EBD
:1039F000040E0420DA6EFC0EDF6EFF0E056EFF0E65
:103A0000066E34C007F035C008F005500726065092
:103A10000822000E0724E16E040E0820E26EDFCFBC
:103A2000E7FF020E3424036E000E3520046E000EF4
:103A30000324D96E040E0420DA6EF00EDF6EFE0E43
:103A4000056EFF0E066E34C007F035C008F0055055
:103A5000072606500822000E0724E16E040E0820F7
:103A6000E26EDFCFE7FF35EF1DF0000E106E000EA7
:103A70000F6E000E266E070E266441EF1DF043EF19
:103A80001DF047EF1DF09CEF1DF09CEF1DF0000EA8
:103A9000276E010E27644FEF1DF051EF1DF055EF1B
:103AA0001DF093EF1DF093EF1DF08A94400E016E10
:103AB00027502AEC18F02650B809016E27502AEC3E
:103AC00018F08A84000E236E3F0E23646AEF1DF007
:103AD0006CEF1DF070EF1DF088EF1DF088EF1DF00A
:103AE000000E0F24D96E040E1020DA6EDF50016E26
:103AF00027502AEC18F00F4A102A232A3F0E23647D
:103B000084EF1DF086EF1DF070EF1DF088EF1DF0C3
:103B1000272A010E27648FEF1DF091EF1DF055EF5E
:103B20001DF093EF1DF0262A070E26649AEF1DF074
:103B30009CEF1DF047EF1DF08A908A92BD0E32185F
:103B40003310D8A4A6EF1DF0A8EF1DF0AEEF1DF0C6
:103B5000000E1A6E010E196EAEEF1DF0840E3218B3
:103B60003310D8A4B6EF1DF0B8EF1DF0BEEF1DF076
:103B7000000E1A6E000E196EBEEF1DF019501A10CD
:103B8000D8A4C5EF1DF0C7EF1DF0A7EF1EF0030E80
:103B90003224036E000E3320046E000E0324D96E0F
:103BA000040E0420DA6E040E3224056E000E33205B
:103BB000066E000E0524E16E040E0620E26EDFCFD5
:103BC000E7FF020E3224036E000E3320046E000E57
:103BD0000324D96E040E0420DA6E030E3224056E1F
:103BE000000E3320066E000E0524E16E040E062042
:103BF000E26EDFCFE7FF010E3224036E000E3320AA
:103C0000046E000E0324D96E040E0420DA6E020E38
:103C10003224056E000E3320066E000E0524E16E80
:103C2000040E0620E26EDFCFE7FF000E3224D96ECD
:103C3000040E3320DA6E010E3224036E000E3320A0
:103C4000046E000E0324E16E040E0420E26EDFCF4A
:103C5000E7FFFF0E036EFF0E046E32C005F033C0A7
:103C600006F00350052604500622000E0524D96EE6
:103C7000040E0620DA6E000E3224E16E040E3320AC
:103C8000E26EDFCFE7FFFE0E036EFF0E046E32C062
:103C900005F033C006F00350052604500622000E3E
:103CA0000524D96E040E0620DA6EFF0E076EFF0E95
:103CB000086E32C009F033C00AF0075009260850D8
:103CC0000A22000E0924E16E040E0A20E26EDFCF04
:103CD000E7FFFD0E036EFF0E046E32C005F033C029
:103CE00006F00350052604500622000E0524D96E66
:103CF000040E0620DA6EFE0E076EFF0E086E32C04E
:103D000009F033C00AF00750092608500A22000EB5
:103D10000924E16E040E0A20E26EDFCFE7FFFD0EFC
:103D2000036EFF0E046E32C005F033C006F0035080
:103D3000052604500622000E0524D96E040E062026
:103D4000DA6E000EDF6E324A332A8EEF1FF0FD0E60
:103D5000036EFF0E046E32C005F033C006F0035050
:103D6000052604500622000E0524D96E040E0620F6
:103D7000DA6EFC0E076EFF0E086E32C009F033C01B
:103D80000AF00750092608500A22000E0924E16EA5
:103D9000040E0A20E26EDFCFE7FFFE0E036EFF0E79
:103DA000046E32C005F033C006F0035005260450FF
:103DB0000622000E0524D96E040E0620DA6EFD0ED2
:103DC000076EFF0E086E32C009F033C00AF00750CC
:103DD000092608500A22000E0924E16E040E0A206A
:103DE000E26EDFCFE7FFFF0E036EFF0E046E32C000
:103DF00005F033C006F00350052604500622000EDD
:103E00000524D96E040E0620DA6EFE0E076EFF0E34
:103E1000086E32C009F033C00AF007500926085076
:103E20000A22000E0924E16E040E0A20E26EDFCFA2
:103E3000E7FF000E3224D96E040E3320DA6EFF0E37
:103E4000036EFF0E046E32C005F033C006F003505F
:103E5000052604500622000E0524E16E040E0620FD
:103E6000E26EDFCFE7FF010E3224036E000E332037
:103E7000046E000E0324D96E040E0420DA6E000EC8
:103E80003224E16E040E3320E26EDFCFE7FF020E34
:103E90003224036E000E3320046E000E0324D96E0C
:103EA000040E0420DA6E010E3224056E000E33205B
:103EB000066E000E0524E16E040E0620E26EDFCFD2
:103EC000E7FF030E3224036E000E3320046E000E53
:103ED0000324D96E040E0420DA6E020E3224056E1D
:103EE000000E3320066E000E0524E16E040E06203F
:103EF000E26EDFCFE7FF030E3224036E000E3320A5
:103F0000046E000E0324D96E040E0420DA6E000E37
:103F1000DF6E3206D8A033068EEF1FF0440E301845
:103F20003110D8A496EF1FF098EF1FF09EEF1FF00E
:103F3000000E186E010E176E9EEF1FF07C0E3018EB
:103F40003110D8A4A6EF1FF0A8EF1FF0AEEF1FF0BE
:103F5000000E186E000E176EAEEF1FF0170418104B
:103F6000D8A4B5EF1FF0B7EF1FF097EF20F0030EC6
:103F70003024036E000E3120046E000E0324D96E2F
:103F8000040E0420DA6E040E3024056E000E31207B
:103F9000066E000E0524E16E040E0620E26EDFCFF1
:103FA000E7FF020E3024036E000E3120046E000E77
:103FB0000324D96E040E0420DA6E030E3024056E3D
:103FC000000E3120066E000E0524E16E040E062060
:103FD000E26EDFCFE7FF010E3024036E000E3120CA
:103FE000046E000E0324D96E040E0420DA6E020E55
:103FF0003024056E000E3120066E000E0524E16EA1
:10400000040E0620E26EDFCFE7FF000E3024D96EEB
:10401000040E3120DA6E010E3024036E000E3120C2
:10402000046E000E0324E16E040E0420E26EDFCF66
:10403000E7FFFF0E036EFF0E046E30C005F031C0C7
:1040400006F00350052604500622000E0524D96E02
:10405000040E0620DA6E000E3024E16E040E3120CC
:10406000E26EDFCFE7FFFE0E036EFF0E046E30C080
:1040700005F031C006F00350052604500622000E5C
:104080000524D96E040E0620DA6EFF0E076EFF0EB1
:10409000086E30C009F031C00AF0075009260850F8
:1040A0000A22000E0924E16E040E0A20E26EDFCF20
:1040B000E7FFFD0E036EFF0E046E30C005F031C049
:1040C00006F00350052604500622000E0524D96E82
:1040D000040E0620DA6EFE0E076EFF0E086E30C06C
:1040E00009F031C00AF00750092608500A22000ED4
:1040F0000924E16E040E0A20E26EDFCFE7FFFD0E19
:10410000036EFF0E046E30C005F031C006F00350A0
:10411000052604500622000E0524D96E040E062042
:10412000DA6E000EDF6E304A312A7EEF21F0FD0E8E
:10413000036EFF0E046E30C005F031C006F0035070
:10414000052604500622000E0524D96E040E062012
:10415000DA6EFC0E076EFF0E086E30C009F031C03B
:104160000AF00750092608500A22000E0924E16EC1
:10417000040E0A20E26EDFCFE7FFFE0E036EFF0E95
:10418000046E30C005F031C006F00350052604501F
:104190000622000E0524D96E040E0620DA6EFD0EEE
:1041A000076EFF0E086E30C009F031C00AF00750EC
:1041B000092608500A22000E0924E16E040E0A2086
:1041C000E26EDFCFE7FFFF0E036EFF0E046E30C01E
:1041D00005F031C006F00350052604500622000EFB
:1041E0000524D96E040E0620DA6EFE0E076EFF0E51
:1041F000086E30C009F031C00AF007500926085097
:104200000A22000E0924E16E040E0A20E26EDFCFBE
:10421000E7FF000E3024D96E040E3120DA6EFF0E57
:10422000036EFF0E046E30C005F031C006F003507F
:10423000052604500622000E0524E16E040E062019
:10424000E26EDFCFE7FF010E3024036E000E312057
:10425000046E000E0324D96E040E0420DA6E000EE4
:104260003024E16E040E3120E26EDFCFE7FF020E54
:104270003024036E000E3120046E000E0324D96E2C
:10428000040E0420DA6E010E3024056E000E31207B
:10429000066E000E0524E16E040E0620E26EDFCFEE
:1042A000E7FF030E3024036E000E3120046E000E73
:1042B0000324D96E040E0420DA6E020E3024056E3B
:1042C000000E3120066E000E0524E16E040E06205D
:1042D000E26EDFCFE7FF030E3024036E000E3120C5
:1042E000046E000E0324D96E040E0420DA6E000E54
:1042F000DF6E3006D8A031067EEF21F0C00E3618F2
:104300003710D8A486EF21F088EF21F08EEF21F04E
:10431000000E166E010E156E8EEF21F0FC0E361893
:104320003710D8A496EF21F098EF21F09EEF21F0FE
:10433000000E166E000E156E9EEF21F0150416107D
:10434000D8A4A5EF21F0A7EF21F087EF22F0030E0C
:104350003624036E000E3720046E000E0324D96E3F
:10436000040E0420DA6E040E3624056E000E37208B
:10437000066E000E0524E16E040E0620E26EDFCF0D
:10438000E7FF020E3624036E000E3720046E000E87
:104390000324D96E040E0420DA6E030E3624056E53
:1043A000000E3720066E000E0524E16E040E062076
:1043B000E26EDFCFE7FF010E3624036E000E3720DA
:1043C000046E000E0324D96E040E0420DA6E020E71
:1043D0003624056E000E3720066E000E0524E16EB1
:1043E000040E0620E26EDFCFE7FF000E3624D96E02
:1043F000040E3720DA6E010E3624036E000E3720CD
:10440000046E000E0324E16E040E0420E26EDFCF82
:10441000E7FFFF0E036EFF0E046E36C005F037C0D7
:1044200006F00350052604500622000E0524D96E1E
:10443000040E0620DA6E000E3624E16E040E3720DC
:10444000E26EDFCFE7FFFE0E036EFF0E046E36C096
:1044500005F037C006F00350052604500622000E72
:104460000524D96E040E0620DA6EFF0E076EFF0ECD
:10447000086E36C009F037C00AF007500926085008
:104480000A22000E0924E16E040E0A20E26EDFCF3C
:10449000E7FFFD0E036EFF0E046E36C005F037C059
:1044A00006F00350052604500622000E0524D96E9E
:1044B000040E0620DA6EFE0E076EFF0E086E36C082
:1044C00009F037C00AF00750092608500A22000EEA
:1044D0000924E16E040E0A20E26EDFCFE7FFFD0E35
:1044E000036EFF0E046E36C005F037C006F00350B1
:1044F000052604500622000E0524D96E040E06205F
:10450000DA6E000EDF6E364A372A6EEF23F0FD0EAC
:10451000036EFF0E046E36C005F037C006F0035080
:10452000052604500622000E0524D96E040E06202E
:10453000DA6EFC0E076EFF0E086E36C009F037C04B
:104540000AF00750092608500A22000E0924E16EDD
:10455000040E0A20E26EDFCFE7FFFE0E036EFF0EB1
:10456000046E36C005F037C006F00350052604502F
:104570000622000E0524D96E040E0620DA6EFD0E0A
:10458000076EFF0E086E36C009F037C00AF00750FC
:10459000092608500A22000E0924E16E040E0A20A2
:1045A000E26EDFCFE7FFFF0E036EFF0E046E36C034
:1045B00005F037C006F00350052604500622000E11
:1045C0000524D96E040E0620DA6EFE0E076EFF0E6D
:1045D000086E36C009F037C00AF0075009260850A7
:1045E0000A22000E0924E16E040E0A20E26EDFCFDB
:1045F000E7FF000E3624D96E040E3720DA6EFF0E68
:10460000036EFF0E046E36C005F037C006F003508F
:10461000052604500622000E0524E16E040E062035
:10462000E26EDFCFE7FF010E3624036E000E372067
:10463000046E000E0324D96E040E0420DA6E000E00
:104640003624E16E040E3720E26EDFCFE7FF020E64
:104650003624036E000E3720046E000E0324D96E3C
:10466000040E0420DA6E010E3624056E000E37208B
:10467000066E000E0524E16E040E0620E26EDFCF0A
:10468000E7FF030E3624036E000E3720046E000E83
:104690000324D96E040E0420DA6E020E3624056E51
:1046A000000E3720066E000E0524E16E040E062073
:1046B000E26EDFCFE7FF030E3624036E000E3720D5
:1046C000046E000E0324D96E040E0420DA6E000E70
:1046D000DF6E3606D8A037066EEF23F0400E2E1898
:1046E0002F10D8A476EF23F078EF23F07EEF23F09D
:1046F000000E126E010E116E7EEF23F0040E2E18C6
:104700002F10D8A486EF23F088EF23F08EEF23F04C
:10471000000E126E000E116E8EEF23F0115012106B
:10472000D8A495EF23F097EF23F077EF24F0030E52
:104730002E24036E000E2F20046E000E0324D96E6B
:10474000040E0420DA6E040E2E24056E000E2F20B7
:10475000066E000E0524E16E040E0620E26EDFCF29
:10476000E7FF020E2E24036E000E2F20046E000EB3
:104770000324D96E040E0420DA6E030E2E24056E77
:10478000000E2F20066E000E0524E16E040E06209A
:10479000E26EDFCFE7FF010E2E24036E000E2F2006
:1047A000046E000E0324D96E040E0420DA6E020E8D
:1047B0002E24056E000E2F20066E000E0524E16EDD
:1047C000040E0620E26EDFCFE7FF000E2E24D96E26
:1047D000040E2F20DA6E010E2E24036E000E2F2001
:1047E000046E000E0324E16E040E0420E26EDFCF9F
:1047F000E7FFFF0E036EFF0E046E2EC005F02FC004
:1048000006F00350052604500622000E0524D96E3A
:10481000040E0620DA6E000E2E24E16E040E2F2008
:10482000E26EDFCFE7FFFE0E036EFF0E046E2EC0BA
:1048300005F02FC006F00350052604500622000E96
:104840000524D96E040E0620DA6EFF0E076EFF0EE9
:10485000086E2EC009F02FC00AF007500926085034
:104860000A22000E0924E16E040E0A20E26EDFCF58
:10487000E7FFFD0E036EFF0E046E2EC005F02FC085
:1048800006F00350052604500622000E0524D96EBA
:10489000040E0620DA6EFE0E076EFF0E086E2EC0A6
:1048A00009F02FC00AF00750092608500A22000E0E
:1048B0000924E16E040E0A20E26EDFCFE7FFFD0E51
:1048C000036EFF0E046E2EC005F02FC006F00350DD
:1048D000052604500622000E0524D96E040E06207B
:1048E000DA6E000EDF6E2E4A2F2A5EEF25F0FD0EE7
:1048F000036EFF0E046E2EC005F02FC006F00350AD
:10490000052604500622000E0524D96E040E06204A
:10491000DA6EFC0E076EFF0E086E2EC009F02FC077
:104920000AF00750092608500A22000E0924E16EF9
:10493000040E0A20E26EDFCFE7FFFE0E036EFF0ECD
:10494000046E2EC005F02FC006F00350052604505B
:104950000622000E0524D96E040E0620DA6EFD0E26
:10496000076EFF0E086E2EC009F02FC00AF0075028
:10497000092608500A22000E0924E16E040E0A20BE
:10498000E26EDFCFE7FFFF0E036EFF0E046E2EC058
:1049900005F02FC006F00350052604500622000E35
:1049A0000524D96E040E0620DA6EFE0E076EFF0E89
:1049B000086E2EC009F02FC00AF0075009260850D3
:1049C0000A22000E0924E16E040E0A20E26EDFCFF7
:1049D000E7FF000E2E24D96E040E2F20DA6EFF0E94
:1049E000036EFF0E046E2EC005F02FC006F00350BC
:1049F000052604500622000E0524E16E040E062052
:104A0000E26EDFCFE7FF010E2E24036E000E2F2093
:104A1000046E000E0324D96E040E0420DA6E000E1C
:104A20002E24E16E040E2F20E26EDFCFE7FF020E90
:104A30002E24036E000E2F20046E000E0324D96E68
:104A4000040E0420DA6E010E2E24056E000E2F20B7
:104A5000066E000E0524E16E040E0620E26EDFCF26
:104A6000E7FF030E2E24036E000E2F20046E000EAF
:104A70000324D96E040E0420DA6E020E2E24056E75
:104A8000000E2F20066E000E0524E16E040E062097
:104A9000E26EDFCFE7FF030E2E24036E000E2F2001
:104AA000046E000E0324D96E040E0420DA6E000E8C
:104AB000DF6E2E06D8A02F065EEF25F0000E2E2406
:104AC000D96E040E2F20DA6EDF50D8A46AEF25F0DD
:104AD0006CEF25F020EF2AF0030E2E24036E000E5B
:104AE0002F20046E000E0324D96E040E0420DA6E0B
:104AF000DF50D8A47EEF25F080EF25F020EF2AF0DC
:104B0000020E2E24036E000E2F20046E000E0324CE
:104B1000D96E040E0420DA6EDF50D8A492EF25F08F
:104B200094EF25F020EF2AF0010E2E24036E000EE4
:104B30002F20046E000E0324D96E040E0420DA6EBA
:104B4000DF50D8A4A6EF25F0A8EF25F020EF2AF03B
:104B5000FF0E036EFF0E046E2EC005F02FC006F090
:104B60000350052604500622000E0524D96E040EBB
:104B70000620DA6EDF50D8A4C0EF25F0C2EF25F092
:104B800020EF2AF0FE0E036EFF0E046E2EC005F01D
:104B90002FC006F00350052604500622000E0524FF
:104BA000D96E040E0620DA6EDF50D8A4DAEF25F0B5
:104BB000DCEF25F020EF2AF0FD0E036EFF0E046EF1
:104BC0002EC005F02FC006F0035005260450062223
:104BD000000E0524D96E040E0620DA6EDF50D8A42C
:104BE000F4EF25F0F6EF25F020EF2AF0000E362442
:104BF000D96E040E3720DA6EDF50D8A402EF26F00B
:104C000004EF26F020EF2AF0030E3624036E000E88
:104C10003720046E000E0324D96E040E0420DA6ED1
:104C2000DF50D8A416EF26F018EF26F020EF2AF078
:104C3000020E3624036E000E3720046E000E03248D
:104C4000D96E040E0420DA6EDF50D8A42AEF26F0C5
:104C50002CEF26F020EF2AF0010E3624036E000E12
:104C60003720046E000E0324D96E040E0420DA6E81
:104C7000DF50D8A43EEF26F040EF26F020EF2AF0D8
:104C8000FF0E036EFF0E046E36C005F037C006F04F
:104C90000350052604500622000E0524D96E040E8A
:104CA0000620DA6EDF50D8A458EF26F05AEF26F02F
:104CB00020EF2AF0FE0E036EFF0E046E36C005F0E4
:104CC00037C006F00350052604500622000E0524C6
:104CD000D96E040E0620DA6EDF50D8A472EF26F0EB
:104CE00074EF26F020EF2AF0FD0E036EFF0E046E27
:104CF00036C005F037C006F00350052604500622E2
:104D0000000E0524D96E040E0620DA6EDF50D8A4FA
:104D10008CEF26F08EEF26F020EF2AF0000E3024E4
:104D2000D96E040E3120DA6EDF50D8A49AEF26F047
:104D30009CEF26F020EF2AF0030E3024036E000EC5
:104D40003120046E000E0324D96E040E0420DA6EA6
:104D5000DF50D8A4AEEF26F0B0EF26F020EF2AF017
:104D6000020E3024036E000E3120046E000E032468
:104D7000D96E040E0420DA6EDF50D8A4C2EF26F0FC
:104D8000C4EF26F020EF2AF0010E3024036E000E4F
:104D90003120046E000E0324D96E040E0420DA6E56
:104DA000DF50D8A4D6EF26F0D8EF26F020EF2AF077
:104DB000FF0E036EFF0E046E30C005F031C006F02A
:104DC0000350052604500622000E0524D96E040E59
:104DD0000620DA6EDF50D8A4F0EF26F0F2EF26F0CE
:104DE00020EF2AF0FE0E036EFF0E046E30C005F0B9
:104DF00031C006F00350052604500622000E05249B
:104E0000D96E040E0620DA6EDF50D8A40AEF27F020
:104E10000CEF27F020EF2AF0FD0E036EFF0E046E5C
:104E200030C005F031C006F00350052604500622BC
:104E3000000E0524D96E040E0620DA6EDF50D8A4C9
:104E400024EF27F026EF27F020EF2AF0000E32247F
:104E5000D96E040E3320DA6EDF50D8A432EF27F07B
:104E600034EF27F020EF2AF0030E3224036E000EF9
:104E70003320046E000E0324D96E040E0420DA6E73
:104E8000DF50D8A446EF27F048EF27F020EF2AF0B4
:104E9000020E3224036E000E3320046E000E032433
:104EA000D96E040E0420DA6EDF50D8A45AEF27F032
:104EB0005CEF27F020EF2AF0010E3224036E000E83
:104EC0003320046E000E0324D96E040E0420DA6E23
:104ED000DF50D8A46EEF27F070EF27F020EF2AF014
:104EE000FF0E036EFF0E046E32C005F033C006F0F5
:104EF0000350052604500622000E0524D96E040E28
:104F00000620DA6EDF50D8A488EF27F08AEF27F06A
:104F100020EF2AF0FE0E036EFF0E046E32C005F085
:104F200033C006F00350052604500622000E052467
:104F3000D96E040E0620DA6EDF50D8A4A2EF27F057
:104F4000A4EF27F020EF2AF0FD0E036EFF0E046E93
:104F500032C005F033C006F0035005260450062287
:104F6000000E0524D96E040E0620DA6EDF50D8A498
:104F7000BCEF27F0BEEF27F020EF2AF0000E256EE1
:104F8000000E246E25BECCEF27F0040E255CD8A0C1
:104F9000CCEF27F0CEEF27F0D2EF27F0EAEF27F0A3
:104FA000EAEF27F0000E2424D96E040E2520DA6ED5
:104FB000000EDF6E244A252A25BEE6EF27F0040EF8
:104FC000255CD8A0E6EF27F0E8EF27F0D2EF27F036
:104FD000EAEF27F00E0E2A24036E000E2B20046E3B
:104FE000000E0324D96E040E0420DA6E1F0EDF6E4D
:104FF000070E2A24056E000E2B20066E000E0524D7
:10500000E16E040E0620E26EDFCFE7FF0D0E2A24CC
:10501000036E000E2B20046E000E0324D96E040EC6
:105020000420DA6E200EDF6E080E2A24056E000EB4
:105030002B20066E000E0524E16E040E0620E26EA3
:10504000DFCFE7FF0C0E2A24036E000E2B20046E28
:10505000000E0324D96E040E0420DA6E400EDF6EBB
:10506000090E2A24056E000E2B20066E000E052464
:10507000E16E040E0620E26EDFCFE7FF0B0E2A245E
:10508000036E000E2B20046E000E0324D96E040E56
:105090000420DA6E800EDF6E0A0E2A24056E000EE2
:1050A0002B20066E000E0524E16E040E0620E26E33
:1050B000DFCFE7FF110E2A24036E000E2B20046EB3
:1050C000000E0324D96E040E0420DA6EFF0EDF6E8C
:1050D000100E2A24056E000E2B20066E000E0524ED
:1050E000E16E040E0620E26EDFCFE7FF130E2A24E6
:1050F000036E000E2B20046E000E0324D96E040EE6
:105100000420DA6EFF0EDF6E170E2A24036E000EE7
:105110002B20046E000E0324D96E040E0420DA6ED8
:10512000810EDF6E160E2A24056E000E2B20066EF1
:10513000000E0524E16E040E0620E26EDFCFE7FFCD
:10514000150E2A24076E000E2B20086E000E072471
:10515000D96E040E0820DA6EE7CFDFFF140E2A2482
:10516000096E000E2B200A6E000E0924E16E040E5B
:105170000A20E26EDFCFE7FF1F0E2A24036E000E27
:105180002B20046E000E0324D96E040E0420DA6E68
:10519000010EDF6E1E0E2A24056E000E2B20066EF9
:1051A000000E0524E16E040E0620E26EDFCFE7FF5D
:1051B0001D0E2A24076E000E2B20086E000E0724F9
:1051C000D96E040E0820DA6EE7CFDFFF1B0E2A240B
:1051D000096E000E2B200A6E000E0924E16E040EEB
:1051E0000A20E26EDFCFE7FF1A0E2A240B6E000EB4
:1051F0002B200C6E000E0B24D96E040E0C20DA6EE0
:10520000E7CFDFFF190E2A240D6E000E2B200E6E45
:10521000000E0D24E16E040E0E20E26EDFCFE7FFDC
:105220001C0E2A24036E000E2B20046E000E032495
:10523000D96E040E0420DA6EFF0EDF6E040E2A24EF
:105240002A6E000E2B202B6E230E2A24036E000ED6
:105250002B20046E000E0324D96E040E0420DA6E97
:10526000FF0EDF6E1E0E2A24056E000E2B20066E2A
:10527000000E0524E16E040E0620E26EDFCFE7FF8C
:10528000220E2A24036E000E2B20046E000E03242F
:10529000D96E040E0420DA6E810EDF6E210E2A24F0
:1052A000056E000E2B20066E000E0524E16E040E26
:1052B0000620E26EDFCFE7FF200E2A24076E000EE5
:1052C0002B20086E000E0724D96E040E0820DA6E1B
:1052D000E7CFDFFF1F0E2A24096E000E2B200A6E77
:1052E000000E0924E16E040E0A20E26EDFCFE7FF14
:1052F000020E2A242A6E000E2B202B6E250E2A2445
:10530000036E000E2B20046E000E0324D96E040ED3
:105310000420DA6EFF0EDF6E240E2A24056E000EC6
:105320002B20066E000E0524E16E040E0620E26EB0
:10533000DFCFE7FF270E2A24036E000E2B20046E1A
:10534000000E0324D96E040E0420DA6EFF0EDF6E09
:10535000280E2A24036E000E2B20046E000E032458
:10536000D96E040E0420DA6E110EDF6E290E2A2487
:10537000036E000E2B20046E000E0324D96E040E63
:105380000420DA6E310EDF6E2A0E2A24036E000E20
:105390002B20046E000E0324D96E040E0420DA6E56
:1053A0004A0EDF6E2B0E2A24036E000E2B20046E95
:1053B000000E0324D96E040E0420DA6E840EDF6E14
:1053C0002D0E2A24036E000E2B20046E000E0324E3
:1053D000D96E040E0420DA6EFF0EDF6E300E2A2422
:1053E000036E000E2B20046E000E0324D96E040EF3
:1053F0000420DA6E910EDF6E2F0E2A24056E000E49
:105400002B20066E000E0524E16E040E0620E26ECF
:10541000DFCFE7FF2E0E2A24076E000E2B20086E2A
:10542000000E0724D96E040E0820DA6EE7CFDFFFE6
:1054300020EF2AF020EF2AF020EF2AF020EF2AF0C8
:10544000640E1D181E10D8A428EF2AF02AEF2AF0A7
:1054500038EF2AF0000E206E010E1F6E000E1E6E39
:10546000000E1D6E36C028F037C029F038EF2AF044
:105470001D4A1E2A1F042010D8A441EF2AF043EF32
:105480002AF058EF2BF0000E3624D96E040E372088
:10549000DA6EDF50D8A44FEF2AF051EF2AF0DFEF99
:1054A0002AF0030E3624036E000E3720046E000E21
:1054B0000324D96E040E0420DA6EDF50D8A463EF03
:1054C0002AF065EF2AF0DFEF2AF0020E3624036E91
:1054D000000E3720046E000E0324D96E040E042043
:1054E000DA6EDF50D8A477EF2AF079EF2AF0DFEFF9
:1054F0002AF0010E3624036E000E3720046E000ED3
:105500000324D96E040E0420DA6EDF50D8A48BEF8A
:105510002AF08DEF2AF0DFEF2AF0FF0E036EFF0E68
:10552000046E36C005F037C006F00350052604505F
:105530000622000E0524D96E040E0620DA6EDF5016
:10554000D8A4A5EF2AF0A7EF2AF0DFEF2AF0FE0E8D
:10555000036EFF0E046E36C005F037C006F0035030
:10556000052604500622000E0524D96E040E0620DE
:10557000DA6EDF50D8A4BFEF2AF0C1EF2AF0DFEFD8
:105580002AF0FD0E036EFF0E046E36C005F037C024
:1055900006F00350052604500622000E0524D96E9D
:1055A000040E0620DA6EDF50D8A4D9EF2AF0DBEF24
:1055B0002AF0DFEF2AF028EF2BF028EF2BF0800EF7
:1055C0002824036E000E2920046E000E0324D96ED9
:1055D000040E0420DA6EFF0EDF6E810E2824036EA7
:1055E000000E2920046E000E0324D96E040E042040
:1055F000DA6EFF0EDF6E13041410D8A402EF2BF046
:1056000004EF2BF01CEF2BF0000E2824D96E040EB3
:105610002920DA6E000EDF6E010E2824036E000EC4
:105620002920046E000E0324D96E040E0420DA6EC5
:10563000000EDF6E1CEF2BF0000E146E010E136EC9
:10564000800E2824286E000E2920296E28EF2BF0CA
:1056500029BE34EF2BF0810E285C030E2958D8A008
:1056600034EF2BF036EF2BF058EF2BF0000E282400
:10567000D96E040E2920DA6E000EDF6E010E28248A
:10568000036E000E2920046E000E0324D96E040E52
:105690000420DA6E000EDF6E000E206E000E1F6E0C
:1056A000000E146E000E136E58EF2BF058EF2BF017
:1056B00081AC5DEF2BF05FEF2BF069EF2BF0000E6C
:1056C0001C6E010E1B6E34C02CF035C02DF069EF3E
:1056D0002BF01B041C10D8A470EF2BF072EF2BF0F2
:1056E000BDEF32F02DBE80EF2BF02D5007E1810E83
:1056F0002C5CD8B07EEF2BF080EF2BF0B2EF2BF0CC
:10570000000E2C24D96E040E2D20DA6E000EDF6EF2
:10571000010E2C24036E000E2D20046E000E0324B7
:10572000D96E040E0420DA6E000EDF6EFF0E036EDB
:10573000FF0E046E2CC005F02DC006F003500526A8
:1057400004500622000E0524D96E040E0620DA6EDF
:10575000000EDF6E000E1C6E000E1B6E000E226E21
:10576000000E216E800E036EFF0E046E2CC005F03D
:105770002DC006F00350052604500622000E052415
:10578000D96E040E0620DA6EDF50D8A4CAEF2BF0D3
:10579000CCEF2BF03EEF2CF07F0E036EFF0E046E6D
:1057A0002CC005F02DC006F003500526045006223B
:1057B000000E0524D96E040E0620DA6EDF50D8A440
:1057C000E4EF2BF0E6EF2BF03EEF2CF0810E036EB2
:1057D000FF0E046E2CC005F02DC006F00350052608
:1057E00004500622000E0524D96E040E0620DA6E3F
:1057F000DF50D8A4FEEF2BF000EF2CF03EEF2CF0A2
:10580000800E036EFF0E046E2CC005F02DC006F056
:105810000350052604500622000E0524D96E040EFE
:105820000620DA6EFF0EDF6E7F0E036EFF0E046E33
:105830002CC005F02DC006F00350052604500622AA
:10584000000E0524D96E040E0620DA6EFF0EDF6E00
:10585000810E036EFF0E046E2CC005F02DC006F005
:105860000350052604500622000E0524D96E040EAE
:105870000620DA6EFF0EDF6E30EF32F0800E036E20
:10588000FF0E046E2CC005F02DC006F00350052657
:1058900004500622000E0524D96E040E0620DA6E8E
:1058A000DE28D8A456EF2CF058EF2CF0F4EF2CF0B3
:1058B0007F0E036EFF0E046E2CC005F02DC006F0A7
:1058C0000350052604500622000E0524D96E040E4E
:1058D0000620DA6EDE28D8A470EF2CF072EF2CF0E0
:1058E000F4EF2CF0810E036EFF0E046E2CC005F059
:1058F0002DC006F00350052604500622000E052494
:10590000D96E040E0620DA6EDE28D8A48AEF2CF0B9
:105910008CEF2CF0F4EF2CF0800E036EFF0E046E73
:105920002CC005F02DC006F00350052604500622B9
:10593000000E0524D96E040E0620DA6E000EDF6E0E
:105940007F0E036EFF0E046E2CC005F02DC006F016
:105950000350052604500622000E0524D96E040EBD
:105960000620DA6E000EDF6E810E036EFF0E046EEF
:105970002CC005F02DC006F0035005260450062269
:10598000000E0524D96E040E0620DA6E000EDF6EBE
:10599000000E2C24D96E040E2D20DA6E000EDF6E60
:1059A000010E2C24036E000E2D20046E000E032425
:1059B000D96E040E0420DA6E000EDF6EFF0E036E49
:1059C000FF0E046E2CC005F02DC006F00350052616
:1059D00004500622000E0524D96E040E0620DA6E4D
:1059E000000EDF6E30EF32F0800E036EFF0E046E9D
:1059F0002CC005F02DC006F00350052604500622E9
:105A0000030E2E24076E000E2F20086E0550075C33
:105A10000850800A096E0650800A0958D8A013EF72
:105A20002DF015EF2DF03EEF2DF0FD0E036EFF0E65
:105A3000046E2EC005F02FC006F00350052604505A
:105A40000622800E076EFF0E086E2CC009F02DC0D6
:105A50000AF00750092608500A220550095C0A502E
:105A6000800A0B6E0650800A0B58D8B03AEF2DF022
:105A70003CEF2DF0D2EF2DF03EEF2DF0810E036EB6
:105A8000FF0E046E2CC005F02DC006F00350052655
:105A900004500622030E2E24076E000E2F20086EDF
:105AA0000550075C0850800A096E0650800A0958A4
:105AB000D8A05DEF2DF05FEF2DF088EF2DF0FD0EFB
:105AC000036EFF0E046E2EC005F02FC006F00350CB
:105AD000052604500622810E076EFF0E086E2CC0AC
:105AE00009F02DC00AF00750092608500A22055077
:105AF000095C0A50800A0B6E0650800A0B58D8B019
:105B000084EF2DF086EF2DF0D2EF2DF088EF2DF001
:105B10007F0E036EFF0E046E2CC005F02DC006F044
:105B20000350052604500622030E2E24076E000E95
:105B30002F20086E0550075C0850800A096E065039
:105B4000800A0958D8A0A7EF2DF0A9EF2DF042EF59
:105B50002EF0FD0E036EFF0E046E2EC005F02FC05A
:105B600006F003500526045006227F0E076EFF0E36
:105B7000086E2CC009F02DC00AF007500926085005
:105B80000A220550095C0A50800A0B6E0650800AF2
:105B90000B58D8A0CEEF2DF0D0EF2DF042EF2EF025
:105BA000D2EF2DF0000E2E24D96E040E2F20DA6EC7
:105BB000000EDF6E010E2E24036E000E2F20046EE9
:105BC000000E0324D96E040E0420DA6E000EDF6E80
:105BD000020E2E24036E000E2F20046E000E0324EE
:105BE000D96E040E0420DA6E000EDF6E030E2E2432
:105BF000036E000E2F20046E000E0324D96E040ED7
:105C00000420DA6E000EDF6EFF0E036EFF0E046ED0
:105C10002EC005F02FC006F00350052604500622C2
:105C2000000E0524D96E040E0620DA6E000EDF6E1B
:105C3000FE0E036EFF0E046E2EC005F02FC006F0A0
:105C40000350052604500622000E0524D96E040ECA
:105C50000620DA6E000EDF6EFD0E036EFF0E046E80
:105C60002EC005F02FC006F0035005260450062272
:105C7000000E0524D96E040E0620DA6E000EDF6ECB
:105C800042EF2EF0800E036EFF0E046E2CC005F066
:105C90002DC006F00350052604500622030E3624BC
:105CA000076E000E3720086E0550075C0850800A0A
:105CB000096E0650800A0958D8A061EF2EF063EFF4
:105CC0002EF08CEF2EF0FD0E036EFF0E046E36C02C
:105CD00005F037C006F00350052604500622800E5A
:105CE000076EFF0E086E2CC009F02DC00AF0075099
:105CF000092608500A220550095C0A50800A0B6EDA
:105D00000650800A0B58D8B088EF2EF08AEF2EF09C
:105D100020EF2FF08CEF2EF0810E036EFF0E046E3D
:105D20002CC005F02DC006F00350052604500622B5
:105D3000030E3624076E000E3720086E0550075CF0
:105D40000850800A096E0650800A0958D8A0ABEFA7
:105D50002EF0ADEF2EF0D6EF2EF0FD0E036EFF0EFF
:105D6000046E36C005F037C006F003500526045017
:105D70000622810E076EFF0E086E2CC009F02DC0A2
:105D80000AF00750092608500A220550095C0A50FB
:105D9000800A0B6E0650800A0B58D8B0D2EF2EF056
:105DA000D4EF2EF020EF2FF0D6EF2EF07F0E036E03
:105DB000FF0E046E2CC005F02DC006F00350052622
:105DC00004500622030E3624076E000E3720086E9C
:105DD0000550075C0850800A096E0650800A095871
:105DE000D8A0F5EF2EF0F7EF2EF090EF2FF0FD0E8C
:105DF000036EFF0E046E36C005F037C006F0035088
:105E00000526045006227F0E076EFF0E086E2CC07A
:105E100009F02DC00AF00750092608500A22055043
:105E2000095C0A50800A0B6E0650800A0B58D8A0F5
:105E30001CEF2FF01EEF2FF090EF2FF020EF2FF040
:105E4000000E3624D96E040E3720DA6E000EDF6E97
:105E5000010E3624036E000E3720046E000E03245C
:105E6000D96E040E0420DA6E000EDF6E020E3624A8
:105E7000036E000E3720046E000E0324D96E040E4C
:105E80000420DA6E000EDF6E030E3624036E000E61
:105E90003720046E000E0324D96E040E0420DA6E3F
:105EA000000EDF6EFF0E036EFF0E046E36C005F0AF
:105EB00037C006F00350052604500622000E0524C4
:105EC000D96E040E0620DA6E000EDF6EFE0E036E33
:105ED000FF0E046E36C005F037C006F003500526ED
:105EE00004500622000E0524D96E040E0620DA6E38
:105EF000000EDF6EFD0E036EFF0E046E36C005F061
:105F000037C006F00350052604500622000E052473
:105F1000D96E040E0620DA6E000EDF6E90EF2FF0C1
:105F2000800E036EFF0E046E2CC005F02DC006F02F
:105F30000350052604500622030E3024076E000E7F
:105F40003120086E0550075C0850800A096E065023
:105F5000800A0958D8A0AFEF2FF0B1EF2FF0DAEF99
:105F60002FF0FD0E036EFF0E046E30C005F031C041
:105F700006F00350052604500622800E076EFF0E21
:105F8000086E2CC009F02DC00AF0075009260850F1
:105F90000A220550095C0A50800A0B6E0650800ADE
:105FA0000B58D8B0D6EF2FF0D8EF2FF06EEF30F0BF
:105FB000DAEF2FF0810E036EFF0E046E2CC005F099
:105FC0002DC006F00350052604500622030E30248F
:105FD000076E000E3120086E0550075C0850800ADD
:105FE000096E0650800A0958D8A0F9EF2FF0FBEF90
:105FF0002FF024EF30F0FD0E036EFF0E046E30C064
:1060000005F031C006F00350052604500622810E2B
:10601000076EFF0E086E2CC009F02DC00AF0075065
:10602000092608500A220550095C0A50800A0B6EA6
:106030000650800A0B58D8B020EF30F022EF30F035
:106040006EEF30F024EF30F07F0E036EFF0E046E23
:106050002CC005F02DC006F0035005260450062282
:10606000030E3024076E000E3120086E0550075CC9
:106070000850800A096E0650800A0958D8A043EFDC
:1060800030F045EF30F0DEEF30F0FD0E036EFF0E26
:10609000046E30C005F031C006F0035005260450F0
:1060A00006227F0E076EFF0E086E2CC009F02DC071
:1060B0000AF00750092608500A220550095C0A50C8
:1060C000800A0B6E0650800A0B58D8A06AEF30F099
:1060D0006CEF30F0DEEF30F06EEF30F0000E302479
:1060E000D96E040E3120DA6E000EDF6E010E302400
:1060F000036E000E3120046E000E0324D96E040ED0
:106100000420DA6E000EDF6E020E3024036E000EE5
:106110003120046E000E0324D96E040E0420DA6EC2
:10612000000EDF6E030E3024036E000E3120046E6D
:10613000000E0324D96E040E0420DA6E000EDF6E0A
:10614000FF0E036EFF0E046E30C005F031C006F086
:106150000350052604500622000E0524D96E040EB5
:106160000620DA6E000EDF6EFE0E036EFF0E046E6A
:1061700030C005F031C006F0035005260450062259
:10618000000E0524D96E040E0620DA6E000EDF6EB6
:10619000FD0E036EFF0E046E30C005F031C006F038
:1061A0000350052604500622000E0524D96E040E65
:1061B0000620DA6E000EDF6EDEEF30F0800E036E2A
:1061C000FF0E046E2CC005F02DC006F0035005260E
:1061D00004500622030E3224076E000E3320086E90
:1061E0000550075C0850800A096E0650800A09585D
:1061F000D8A0FDEF30F0FFEF30F028EF31F0FD0ECA
:10620000036EFF0E046E32C005F033C006F003507B
:10621000052604500622800E076EFF0E086E2CC065
:1062200009F02DC00AF00750092608500A2205502F
:10623000095C0A50800A0B6E0650800A0B58D8B0D1
:1062400024EF31F026EF31F0BCEF31F028EF31F0E0
:10625000810E036EFF0E046E2CC005F02DC006F0FB
:106260000350052604500622030E3224076E000E4A
:106270003320086E0550075C0850800A096E0650EE
:10628000800A0958D8A047EF31F049EF31F072EF9A
:1062900031F0FD0E036EFF0E046E32C005F033C008
:1062A00006F00350052604500622810E076EFF0EED
:1062B000086E2CC009F02DC00AF0075009260850BE
:1062C0000A220550095C0A50800A0B6E0650800AAB
:1062D0000B58D8B06EEF31F070EF31F0BCEF31F009
:1062E00072EF31F07F0E036EFF0E046E2CC005F0CE
:1062F0002DC006F00350052604500622030E32245A
:10630000076E000E3320086E0550075C0850800AA7
:10631000096E0650800A0958D8A091EF31F093EF2A
:1063200031F030EF32F0FD0E036EFF0E046E32C01E
:1063300005F033C006F003500526045006227F0EF8
:10634000076EFF0E086E2CC009F02DC00AF0075032
:10635000092608500A220550095C0A50800A0B6E73
:106360000650800A0B58D8A0B8EF31F0BAEF31F0E0
:1063700030EF32F0BCEF31F0000E3224D96E040E53
:106380003320DA6E000EDF6E010E3224036E000E33
:106390003320046E000E0324D96E040E0420DA6E3E
:1063A000000EDF6E020E3224036E000E3320046EE8
:1063B000000E0324D96E040E0420DA6E000EDF6E88
:1063C000030E3224036E000E3320046E000E0324ED
:1063D000D96E040E0420DA6E000EDF6EFF0E036E1F
:1063E000FF0E046E32C005F033C006F003500526E0
:1063F00004500622000E0524D96E040E0620DA6E23
:10640000000EDF6EFE0E036EFF0E046E32C005F04E
:1064100033C006F00350052604500622000E052462
:10642000D96E040E0620DA6E000EDF6EFD0E036ECE
:10643000FF0E046E32C005F033C006F0035005268F
:1064400004500622000E0524D96E040E0620DA6ED2
:10645000000EDF6E30EF32F030EF32F030EF32F01E
:1064600021042210D8A437EF32F039EF32F065EF73
:1064700032F0000E2C24D96E040E2D20DA6E000EA0
:10648000DF6E010E2C24036E000E2D20046E000E14
:106490000324D96E040E0420DA6E000EDF6EFF0EA8
:1064A000036EFF0E046E2CC005F02DC006F00350E5
:1064B000052604500622000E0524D96E040E06207F
:1064C000DA6E000EDF6E65EF32F0000E226E010E06
:1064D000216E800E2C242C6EFF0E2D202D6E000EB2
:1064E0003424D96E040E3520DA6EFF0EDF6E010EF5
:1064F0003424036E000E3520046E000E0324D96E82
:10650000040E0420DA6EFC0EDF6EFF0E056EFF0E29
:10651000066E34C007F035C008F005500726065057
:106520000822000E0724E16E040E0820E26EDFCF81
:10653000E7FF020E3424036E000E3520046E000EB9
:106540000324D96E040E0420DA6EF00EDF6EFE0E08
:10655000056EFF0E066E34C007F035C008F005501A
:10656000072606500822000E0724E16E040E0820BC
:10657000E26EDFCFE7FFBDEF32F084A0C2EF32F072
:10658000C4EF32F076EF33F035BED2EF32F0FD0ECD
:10659000345C030E3558D8B0D0EF32F0D2EF32F081
:1065A00076EF33F0020E3424036E000E3520046EB5
:1065B000000E0324D96E040E0420DA6E030E342478
:1065C000056E000E3520066E000E0524E16E040EE9
:1065D0000620E26EDFCFE7FF010E3424036E000ECB
:1065E0003520046E000E0324D96E040E0420DA6EEA
:1065F000020E3424056E000E3520066E000E0524B2
:10660000E16E040E0620E26EDFCFE7FF000E3424B9
:10661000D96E040E3520DA6EFF0EDF6E010E3424C3
:10662000036E000E3520046E000E0324E16E040E8E
:106630000420E26EDFCFE7FFFF0E036EFF0E046E55
:1066400034C005F035C006F003500526045006227C
:10665000000E0524D96E040E0620DA6E000E3424D6
:10666000E16E040E3520E26EDFCFE7FFFE0E036E13
:10667000FF0E046E34C005F035C006F00350052649
:1066800004500622000E0524D96E040E0620DA6E90
:10669000FF0E076EFF0E086E34C009F035C00AF019
:1066A0000750092608500A22000E0924E16E040E44
:1066B0000A20E26EDFCFE7FFFE0E036EFF0E046ED0
:1066C00034C005F035C006F00350052604500622FC
:1066D000000E0524D96E040E0620DA6E000EDF6E61
:1066E000344A352A76EF33F076EF33F084A27BEF2D
:1066F00033F07DEF33F036EF34F035BE89EF33F011
:10670000810E345C030E3558D8A089EF33F08BEF3F
:1067100033F036EF34F0FE0E036EFF0E046E34C01D
:1067200005F035C006F00350052604500622000E81
:106730000524D96E040E0620DA6EFD0E076EFF0EDC
:10674000086E34C009F035C00AF007500926085019
:106750000A22000E0924E16E040E0A20E26EDFCF49
:10676000E7FFFF0E036EFF0E046E34C005F035C068
:1067700006F00350052604500622000E0524D96EAB
:10678000040E0620DA6EFE0E076EFF0E086E34C091
:1067900009F035C00AF00750092608500A22000EF9
:1067A0000924E16E040E0A20E26EDFCFE7FF000E3F
:1067B0003424D96E040E3520DA6EFF0EDF6EFF0E24
:1067C000036EFF0E046E34C005F035C006F00350B2
:1067D000052604500622000E0524E16E040E062054
:1067E000E26EDFCFE7FF010E3424036E000E35208A
:1067F000046E000E0324D96E040E0420DA6E000E1F
:106800003424E16E040E3520E26EDFCFE7FF020E86
:106810003424036E000E3520046E000E0324D96E5E
:10682000040E0420DA6E010E3424056E000E3520AD
:10683000066E000E0524E16E040E0620E26EDFCF28
:10684000E7FF020E3424036E000E3520046E000EA6
:106850000324D96E040E0420DA6E000EDF6E3406B7
:10686000D8A0350636EF34F036EF34F084A43BEF91
:1068700034F03DEF34F0E0EF34F0A9EF34F0A9EF5D
:1068800034F0000E3424D96E040E3520DA6E010E79
:10689000DF6EE0EF34F0000E3424D96E040E3520A4
:1068A000DA6E020EDF6EE0EF34F0000E3424D96EA3
:1068B000040E3520DA6E040EDF6EE0EF34F0000EC9
:1068C0003424D96E040E3520DA6E080EDF6EE0EF48
:1068D00034F0000E3424D96E040E3520DA6E100E1A
:1068E000DF6EE0EF34F0000E3424D96E040E352054
:1068F000DA6E200EDF6EE0EF34F0000E3424D96E35
:10690000040E3520DA6E400EDF6EE0EF34F0000E3C
:106910003424D96E040E3520DA6E800EDF6E000E40
:106920003424D96E040E3520DA6E000EDF6E800E30
:106930003424346E000E3520356E000E3424D96EAA
:10694000040E3520DA6E010EDF6EE0EF34F0E0EF7A
:1069500034F0000E3424D96E040E3520DA6EDF5088
:10696000036E046A0450000AD8B4B9EF34F0E0EFC3
:1069700034F00350000AD8B441EF34F0010AD8B41F
:106980004BEF34F0030AD8B455EF34F0060AD8B40C
:106990005FEF34F00C0AD8B469EF34F0180AD8B4B9
:1069A00073EF34F0300AD8B47DEF34F0600AD8B415
:1069B00087EF34F0C00AD8B48FEF34F0E0EF34F052
:1069C00081AEE5EF34F0E7EF34F035EF1DF053EF33
:1069D00035F053EF35F0000E3424D96E040E352017
:1069E000DA6E800EDF6E35EF1DF0000E3424D96EA6
:1069F000040E3520DA6E400EDF6E35EF1DF0000E0E
:106A00003424D96E040E3520DA6E200EDF6E35EF99
:106A10001DF0000E3424D96E040E3520DA6E100EEF
:106A2000DF6E35EF1DF0000E3424D96E040E3520D4
:106A3000DA6E080EDF6E35EF1DF0000E3424D96ECD
:106A4000040E3520DA6E040EDF6E35EF1DF0000EF9
:106A50003424D96E040E3520DA6E020EDF6E35EF67
:106A60001DF0000E3424D96E040E3520DA6E010EAE
:106A7000DF6E000E3424D96E040E3520DA6E000E5F
:106A8000DF6E800E3424346EFF0E3520356E000E1E
:106A90003424D96E040E3520DA6E800EDF6E35EFA9
:106AA0001DF035EF1DF0000E3424D96E040E352094
:106AB000DA6EDF50036E046A0450000AD8B463EF44
:106AC00035F035EF1DF00350000AD8B4EBEF34F089
:106AD000010AD8B439EF35F0030AD8B431EF35F0F4
:106AE000060AD8B427EF35F00C0AD8B41DEF35F0FC
:106AF000180AD8B413EF35F0300AD8B409EF35F0DE
:106B0000600AD8B4FFEF34F0C00AD8B4F5EF34F01F
:106B100035EF1DF035EF1DF035EF1DF035EF1DF0B1
:106B20001200000000000000000000000000000053
:106B30000000000000000000000000000000000055
:106B40000000000000000000000000000000000045
:106B50000000000000000000000000000000000035
:106B60000000000000000000000000000000000025
:106B70000000000000000000000000000000000015
:106B80000000000000000000000000000000000005
:106B900000000000000000000000000000000000F5
:106BA00000000000000000000000000000000000E5
:106BB00000000000000000000000000000000000D5
:106BC00000000000000000000000000000000000C5
:106BD00000000000000000000000000000000000B5
:106BE00000000000000000000000000000000000A5
:106BF0000000000000000000000000000000000095
:106C00000000000000000000000000000000000084
:106C10000000000000000000000000000000000074
:106C2000000000000000000000000000065F5F069A
:106C30000000000007070007070000147F7F147F93
:106C40007F1400242E6B6B3A120000466630180C3D
:106C5000666200307A4F5D377A480004070300000F
:106C6000000000001C3E63410000000041633E1C28
:106C7000000000082A3E1C1C3E2A0808083E3E0868
:106C80000800000080E06000000000080808080814
:106C900008000000006060000000006030180C0672
:106CA0000301003E7F71594D7F3E0040427F7F408F
:106CB000400000627359496F660000226349497FB2
:106CC000360000181C16537F7F5000276745457D0E
:106CD0003900003C7E4B4979300000030371790F85
:106CE000070000367F49497F360000064F49693F5B
:106CF0001E000000006666000000000080E66600DE
:106D0000000000081C3663410000002424242424D1
:106D1000240000004163361C080000020351590F93
:106D20000600003E7F415D5D1F1E007C7E13137ECA
:106D30007C0000417F7F49497F36001C3E63414112
:106D4000632200417F7F41633E1C00417F7F495D9C
:106D5000416300417F7F491D0103001C3E63415197
:106D60007372007F7F08087F7F000000417F7F41B2
:106D7000000000307040417F3F0100417F7F081CD0
:106D8000776300417F7F41406070007F7F0E1C0E63
:106D90007F7F007F7F060C187F7F001C3E6341636E
:106DA0003E1C00417F7F49090F06001E3F21717F75
:106DB0005E0000417F7F09197F6600266F4D597381
:106DC00032000003417F7F410300007F7F40407F0E
:106DD0007F00001F3F60603F1F00007F7F30183042
:106DE0007F7F0043673C183C674300074F78784F2C
:106DF000070000476371594D677300007F7F414171
:106E00000000000103060C183060000041417F7F44
:106E1000000000080C0603060C08008080808080BB
:106E20008080800000030704000000207454543C5C
:106E3000784000417F3F4848783000387C44446CBB
:106E4000280000307848493F7F4000387C54545C2B
:106E5000180000487E7F490302000098BCA4A4F8F3
:106E60007C0400417F7F08047C780000447D7D40E5
:106E700000000060E08080FD7D0000417F7F1038D1
:106E80006C440000417F7F400000007C7C18381C6F
:106E90007C78007C7C04047C780000387C44447C52
:106EA00038000084FCF8A4243C1800183C24A4F802
:106EB000FC8400447C784C041C1800485C545474D6
:106EC00024000000043E7F442400003C7C40403C01
:106ED0007C40001C3C60603C1C00003C7C703870B6
:106EE0007C3C00446C3810386C44009CBCA0A0FC76
:106EF0007C00004C64745C4C64000008083E7741E0
:106F000041000000000077770000004141773E0813
:106F1000080000020301030203010070784C464C94
:106F20007870000E9F91B1FB4A00003A7A40407A97
:106F30007A4000387C54555D190000022375555580
:106F40007D7B42217554547D794000217555547CD8
:106F5000784000207457577C784000183CA4A4E483
:106F6000400000023B7D55555D1B02397D54545D48
:106F7000190000397D55545C18000001457C7C41A6
:106F80000100000203457D7D43020001457D7C40F8
:106F9000000000797D1612167D790070782B2B7811
:106FA000700000447C7C5555450000207454547C8E
:106FB0007C54547C7E0B097F7F4900327B49497B9E
:106FC000320000327A48487A320000327A4A4878F1
:106FD0003000003A7B41417B7A40003A7A42407867
:106FE0007840009ABAA0A0FA7A000001193C6666BF
:106FF0003C19013D7D40407D3D0000183C24E7E701
:10700000242400687E7F49436620002B2FFCFC2F40
:107010002B0000FFFF09092FF6F8A040C088FE7F73
:10702000090302207454557D79400000447D7D4160
:107030000000003078484A7A320000387840427ABE
:107040007A40007A7A0A0A7A7000007D7D19317DD3
:107050007D000000262F292F2F280000262F292F02
:1070600026000030784D45602000003838080808B8
:1070700008000008080808383800004F6F3018CCA6
:10708000EEBB914F6F30186C76FBF90000007B7BF4
:10709000000000081C3622081C362222361C08225A
:1070A000361C08AA005500AA005500AA55AA55AAE0
:1070B00055AA55DDFFAA77DDAAFF77000000FFFF84
:1070C000000000101010FFFF000000141414FFFF58
:1070D0000000001010FFFF00FFFF001010F0F01084
:1070E000F0F000141414FCFC0000001414F7F70076
:1070F000FFFF000000FFFF00FFFF001414F4F40482
:10710000FCFC0014141717101F1F0010101F1F1075
:107110001F1F001414141F1F000000101010F0F0A7
:107120000000000000001F1F1010101010101F1F83
:10713000101010101010F0F0101010000000FFFFE1
:107140001010101010101010101010101010FFFF61
:10715000101010000000FFFF1414140000FFFF00C7
:10716000FFFF1000001F1F101717140000FCFC0485
:10717000F4F41414141717101717141414F4F40457
:10718000F4F4140000FFFF00F7F71414141414149F
:107190001414141414F7F700F7F714141414171731
:1071A00014141410101F1F101F1F10141414F4F4C3
:1071B0001414141010F0F010F0F01000001F1F1045
:1071C0001F1F100000001F1F141414000000FCFCFF
:1071D0001414140000F0F010F0F0101010FFFF1065
:1071E000FFFF10141414FFFF1414141010101F1FAD
:1071F000000000000000F0F0101010FFFFFFFFFF84
:10720000FFFFFFF0F0F0F0F0F0F0F0FFFFFFFF0005
:1072100000000000000000FFFFFFFF0F0F0F0F0F27
:107220000F0F0F387C446C386C4400FCFE2A2A3E59
:107230001400007E7E020206060000027E7E027EB0
:107240007E020063775D4963630000387C447C3CC8
:1072500004040080FE7E20203E1E000406027E7C88
:1072600006020099BDE7E7BD9900001C3E6B496B23
:107270003E1C004C7E7301737E4C0030784A4F7D7B
:10728000390000183C243C3C243C1898FC643C3EEB
:10729000273D180000000000000000000000000072
:1072A00000000000000000000000000000000000DE
:1072B00000000000000000000000000000000000CE
:1072C00000000000000000000000000000000000BE
:1072D00000000000000000000000000000000000AE
:1072E000000000000000000000000000000000009E
:1072F000000000000000000000000000000000008E
:10730000000000000000000000000000000000007D
:10731000000000000000000000000000000000006D
:10732000000000000000000000000000000000005D
:10733000000000000000000000000000000000004D
:10734000000000000000000000000000000000003D
:10735000000000000000E0F0C8CCC4C2E2E2F2FE8F
:10736000FEFEFCB000000000000000000000000075
:10737000000000000000000000000000000000000D
:1073800000000000000000000000000000000000FD
:1073900000000000000000000000000000000000ED
:1073A00000000000000000000000000000000000DD
:1073B00000000000000000000000000000000000CD
:1073C00000000000000000000000000000000000BD
:1073D000000000000083CF5F3F3F3F3F3F3F3F3F04
:1073E0001F3F3F3F7F78800000000000000000004A
:1073F000000000000000000000000000000000008D
:10740000000000000000000000000000000000007C
:10741000000000000000000000000000000000006C
:10742000000000000000000000000000000000005C
:10743000000000000000000000000000000000004C
:10744000000000000000000000000000000000003C
:107450000080C0884261F042800008000060220085
:107460000800000000000103BC0080E0F0F8FCFC14
:10747000ECF6F07838381818180800000000000002
:1074800000000000000000000000000000000000FC
:1074900000000000000000000000000000000000EC
:1074A00000000000000000000000000000000000DC
:1074B00000000000000000000000000000000000CC
:1074C000000000000000000000000000000000FCC0
:1074D000038382C6FAFAFCFCFAFFE2010000000115
:1074E00000000000000000F00708FFFFFFFFFFFFA3
:1074F000FFDFCFCF8F0F0F0F0E1C183000000000E2
:10750000000000000000000000000000000000007B
:10751000000000000000000000000000000000006B
:10752000000000000000000000000000000000005B
:10753000000000000000000000000000000000004B
:10754000000000000000000000000000608E010448
:107550000F1F1F0F0F1F3F3F3F3F1F030000000083
:107560000020001000080808090A082B2B3337FFF9
:10757000030303071F7F100000000000000000004D
:1075800000000000000000000000000000000000FB
:1075900000000000000000000000000000000000EB
:1075A00000000000000000000000000000000000DB
:1075B00000000000000000000000000000000000CB
:1075C000000000000000000000000000000708307C
:1075D00060C080000000000000000000000000000B
:1075E00040800000000000008080C060341A050365
:1075F000000000000000000000000000000000008B
:10760000000000000000000000000000000000007A
:10761000000000000000000000000000000000006A
:10762000000000000000000000000000000000005A
:10763000000000000000000000000000000000004A
:10764000000000000000000000000000000000003A
:107650000000008182868C9C1428E8F8102040C02D
:10766000C0402011090505050201000000000000CE
:10767000000000000000000000000000000000000A
:1076800000000000000000000000000000000000FA
:1076900000000000000000000000000000000000EA
:1076A00000000000000000000000000000000000DA
:1076B00000000000000000000000000000000000CA
:1076C00000000000000000000000000000000000BA
:1076D0000000030207050404050D0E1B3B6B476306
:1076E00063263A12121C0000000000000000000097
:1076F000000000000000000000000000000000008A
:107700000000000000000000000000000000000079
:107710000000000000000000000000000000000069
:107720000000000000000000000000000000000059
:107B2000000000FFFFFFFFFFFFFFFFFFFFFFFFFF62
:107B3000FFFFFFFFFFFFFFFFFFFFFFFFFFFFFFFF55
:107B4000FFFFFFFFFFFFFFFFFFFFFFFFFFFFFFFF45
:107B5000FFFFFFFFFFFFFFFFFFFFFFFFFFFFFFFF35
:107B6000FFFFFFFFFFFFFFFFFFFFFFFFFFFFFFFF25
:107F1000FFFFFF0000000000000000000000000064
:107F2000000000000000005C000C000C7C287C7C41
:107F3000447C241048285408000C0038440044387D
:107F40000020100810381080400010101000400071
:107F5000201008384438007C006454484454281CDD
:107F6000107C4C542438542004740C285428085491
:107F70003800500080500010284428282844281039
:107F8000045408384C5C7814787C54283844447C79
:107F900044387C54447C14043844347C107C007C89
:107FA0000020403C7C106C7C40407C087C7C047C45
:107FB0007C447C7C14083844787C1468485424043D
:107FC0007C047C407C3C403C7C207C6C106C1C60C5
:107FD0001C64544C7C4400081020447C00080408B5
:107FE000808080040800537061636520496E76616B
:107FF000646572004C6574277320504C4159000031
:020000040020DA
:08000000FFFFFFFFFFFFFFFF00
:020000040030CA
:0E000000000C191EFF8381FF0FC00FE00F40A0
:00000001FF
