:020000040000FA
:04000000AAEF17F05C
:102F540004EE00F014EE00F0EE6AE550E150FCE1FE
:102F6400E250FAE13F6A3E6A000EF86E0001A2EFF9
:102F740019F00F0EC16E000EC26E000E926E000E9E
:102F8400936E000E946E000E956E000E966E000EFB
:102F9400806E000E816E000E826E000E836E000E37
:102FA400846E1200026E0250D8B4DBEF17F0DDEF2E
:102FB40017F0E1EF17F08A808A92E5EF17F08A9212
:102FC4008A82E5EF17F0000E956E8A9601C08CFF99
:102FD4008A8800D08A9800D08A908A92120017EFCB
:102FE40018F00E50D8B4F9EF17F0FBEF17F007EF15
:102FF40018F00FC003F00CC0F6FF0DC0F7FF080077
:10300400F5500CEC19F013EF18F00FC003F00CC0DE
:10301400F6FF0DC0F7FF0800F55038EC1AF013EF77
:1030240018F00C4A0D2A17EF18F00CC0F6FF0DC06B
:10303400F7FF0800F5500009D8A423EF18F025EF96
:1030440018F0F3EF17F027EF18F01200056E000EDA
:10305400046E800E056031EF18F033EF18F05FEF67
:1030640018F0070E036439EF18F03BEF18F03FEF48
:1030740018F05FEF18F05FEF18F005C03FF003C0E1
:103084003EF03F0E056449EF18F04BEF18F051EF96
:1030940018F0400E055E010E046E51EF18F08A948C
:1030A40005504009016E0450D4EC17F00350B809E0
:1030B400016E0450D4EC17F08A841200066E000EE0
:1030C400836E8A9A210EE82EFED700F08A8A8A98A7
:1030D4008A908A928A9400D0C00E016E000ED4ECBD
:1030E40017F0C00E016E010ED4EC17F0400E016E05
:1030F400000ED4EC17F0400E016E010ED4EC17F064
:10310400B80E016E000ED4EC17F0B80E016E010E6D
:10311400D4EC17F00604D8A492EF18F094EF18F04A
:10312400A0EF18F03F0E016E000ED4EC17F03F0E26
:10313400016E010ED4EC17F0ACEF18F03E0E016EE8
:10314400000ED4EC17F03E0E016E010ED4EC17F015
:10315400ACEF18F0000EB0EC18F01200036E000E85
:10316400056E070E0564B9EF18F0BBEF18F0BFEF5A
:1031740018F00BEF19F00BEF19F08A94400E016E62
:10318400000ED4EC17F0400E016E010ED4EC17F0D3
:103194000550B809016E000ED4EC17F00550B809BB
:1031A400016E010ED4EC17F08A84000E046E3F0EFB
:1031B4000464DFEF18F0E1EF18F0E5EF18F000EF2A
:1031C40019F000EF19F00350010DF3500008016EDF
:1031D400000ED4EC17F00350010DF3500008016EFB
:1031E400010ED4EC17F0042A3F0E0464FCEF18F02F
:1031F400FEEF18F0E5EF18F000EF19F0052A070EBE
:10320400056407EF19F009EF19F0BFEF18F00BEFA1
:1032140019F01200086E000E0B6E0A0E0818D8A4DE
:1032240016EF19F018EF19F01FEF19F0000E3F6EAA
:103234003E2AA1EF19F0A1EF19F03F0E3F6425EFEC
:1032440019F027EF19F02EEF19F0010E0B6E3F5015
:10325400C00F096E32EF19F03FC009F032EF19F0D8
:103264000850080DF3CF06F0F4CF07F0000E0A6EF5
:10327400070E0A6440EF19F042EF19F046EF19F017
:103284009FEF19F09FEF19F03F0E09644CEF19F00E
:103294004EEF19F062EF19F0400E095E010E0B6E4D
:1032A4008A9409504009016E0B50D4EC17F03E503B
:1032B400B809016E0B50D4EC17F08A8462EF19F050
:1032C4000350D8B468EF19F06AEF19F07EEF19F0E3
:1032D4000A500624046E000E0720056E010E042415
:1032E400F66E6B0E0520F76E0800F5CF01F00B505B
:1032F400D4EC17F093EF19F00A500624046E000E74
:103304000720056E010E0424F66E6B0E0520F76E81
:103314000800F550FF0A016E0B50D4EC17F093EF40
:1033240019F0092A0A2A070E0A649BEF19F09DEF87
:1033340019F046EF19F09FEF19F0080E3F2612001E
:10334400000E846E000E3B6E000E3A6E000E3D6E53
:10335400000E3C6EBBEC17F0010E60EC18F0010E91
:10336400036E0A0E28EC18F0D30E0C6E7F0E0D6E51
:10337400010E0E6E010E0F6EF1EC17F0060E396E93
:10338400130E386EAE0EE82EFED7382EFCD7392E2B
:10339400FAD7030E036E1E0E28EC18F0F60E0C6E10
:1033A4007F0E0D6E010E0E6E010E0F6EF1EC17F016
:1033B400050E036E0A0E28EC18F0340E386EF20E69
:1033C400E82EFED7382EFCD7C40E0C6E7F0E0D6E81
:1033D400010E0E6E010E0F6EF1EC17F0070E036E68
:1033E4001E0E28EC18F0EC0E0C6E7F0E0D6E010E06
:1033F4000E6E010E0F6EF1EC17F0070E396E170EFC
:10340400386E6A0EE82EFED7382EFCD7392EFAD73E
:1034140000D0000E60EC18F0010E60EC18F0040E01
:10342400036E140E28EC18F0E10E0C6E7F0E0D6E78
:10343400010E0E6E010E0F6EF1EC17F0050E396ED3
:103444000F0E386EF10EE82EFED7382EFCD7392E2B
:10345400FAD700F0000E60EC18F0010E60EC18F0E2
:10346400DAEC1AF034EF1AF000EF00F0076E000EF9
:10347400096E0A0E0718D8A442EF1AF044EF1AF0A6
:103484004BEF1AF0000E3F6E3E2AD9EF1AF0D9EF37
:103494001AF03F0E3F6451EF1AF053EF1AF05AEF4F
:1034A4001AF0010E096E3F50C00F066E5EEF1AF05F
:1034B4003FC006F05EEF1AF0200E075E000E086EA5
:1034C400020E086468EF1AF06AEF1AF06EEF1AF051
:1034D400D7EF1AF0D7EF1AF03F0E066474EF1AF024
:1034E40076EF1AF08AEF1AF0400E065E010E096EAE
:1034F4008A9406504009016E0950D4EC17F03E50EE
:10350400B809016E0950D4EC17F08A848AEF1AF0D6
:103514000350D8B490EF1AF092EF1AF0AEEF1AF00D
:103524000750030D010E046E7F0E056EF350042642
:10353400F45005220850010DF3500426F4500522DE
:1035440004C0F6FF05C0F7FF0800F5CF01F00950ED
:10355400D4EC17F0CBEF1AF00750030D010E046EF4
:103564007F0E056EF3500426F45005220850010D19
:10357400F3500426F450052204C0F6FF05C0F7FFFB
:103584000800F550FF0A016E0950D4EC17F0CBEF98
:103594001AF0062A082A020E0864D3EF1AF0D5EFAF
:1035A4001AF06EEF1AF0D7EF1AF0050E3F2612004C
:1035B400030E356EE80E346E000E2F6E050E2E6E61
:1035C400000E376EFC0E366E000E316E7B0E306EC2
:1035D400000E336E850E326E000E126E000E116EEA
:1035E400000E146E000E136E000E166E000E156E95
:1035F400000E186E000E176E000E1A6E000E196E75
:10360400000E1C6E000E1B6E000E256E000E246E46
:10361400010E2B6EA20E2A6E000E1E6E000E1D6E83
:10362400000E206E000E1F6E000E296E000E286E16
:10363400000E226E000E216E000E2E24D96E040E92
:103644002F20DA6E3C0EDF6E010E2E24036E000E68
:103654002F20046E000E0324D96E040E0420DA6EAB
:10366400B40EDF6EFF0E056EFF0E066E2EC007F061
:103674002FC008F00550072606500822000E072424
:10368400E16E040E0820E26EDFCFE7FF020E2E2467
:10369400036E000E2F20046E000E0324D96E040E58
:1036A4000420DA6ECA0EDF6EFE0E056EFF0E066E85
:1036B4002EC007F02FC008F0055007260650082238
:1036C400000E0724E16E040E0820E26EDFCFE7FF50
:1036D400030E2E24036E000E2F20046E000E03240E
:1036E400D96E040E0420DA6E190EDF6EFD0E056E1F
:1036F400FF0E066E2EC007F02FC008F005500726F7
:1037040006500822000E0724E16E040E0820E26E23
:10371400DFCFE7FF000E3624D96E040E3720DA6EB1
:103724003C0EDF6E010E3624036E000E3720046E4D
:10373400000E0324D96E040E0420DA6EB40EDF6E7C
:10374400FF0E056EFF0E066E36C007F037C008F098
:103754000550072606500822000E0724E16E040EC9
:103764000820E26EDFCFE7FF020E3624036E000E60
:103774003720046E000E0324D96E040E0420DA6E82
:10378400CA0EDF6EFE0E056EFF0E066E36C007F023
:1037940037C008F00550072606500822000E0724FB
:1037A400E16E040E0820E26EDFCFE7FF030E36243D
:1037B400036E000E3720046E000E0324D96E040E2F
:1037C4000420DA6E190EDF6EFD0E056EFF0E066E16
:1037D40036C007F037C008F0055007260650082207
:1037E400000E0724E16E040E0820E26EDFCFE7FF2F
:1037F400000E3024D96E040E3120DA6E3C0EDF6EDA
:10380400010E3024036E000E3120046E000E0324DA
:10381400D96E040E0420DA6EB40EDF6EFF0E056E50
:10382400FF0E066E30C007F031C008F005500726C1
:1038340006500822000E0724E16E040E0820E26EF2
:10384400DFCFE7FF020E3024036E000E3120046E3A
:10385400000E0324D96E040E0420DA6ECA0EDF6E45
:10386400FE0E056EFF0E066E30C007F031C008F084
:103874000550072606500822000E0724E16E040EA8
:103884000820E26EDFCFE7FF030E3024036E000E44
:103894003120046E000E0324D96E040E0420DA6E67
:1038A400190EDF6EFD0E056EFF0E066E30C007F0BA
:1038B40031C008F00550072606500822000E0724E0
:1038C400E16E040E0820E26EDFCFE7FF000E322423
:1038D400D96E040E3320DA6E3C0EDF6E010E3224F4
:1038E400036E000E3320046E000E0324D96E040E02
:1038F4000420DA6EB40EDF6EFF0E056EFF0E066E48
:1039040032C007F033C008F00550072606500822DD
:10391400000E0724E16E040E0820E26EDFCFE7FFFD
:10392400020E3224036E000E3320046E000E0324B4
:10393400D96E040E0420DA6ECA0EDF6EFE0E056E1A
:10394400FF0E066E32C007F033C008F0055007269C
:1039540006500822000E0724E16E040E0820E26ED1
:10396400DFCFE7FF030E3224036E000E3320046E14
:10397400000E0324D96E040E0420DA6E190EDF6ED5
:10398400FD0E056EFF0E066E32C007F033C008F060
:103994000550072606500822000E0724E16E040E87
:1039A4000820E26EDFCFE7FF000E3424D96E040E48
:1039B4003520DA6EFF0EDF6E010E3424036E000E26
:1039C4003520046E000E0324D96E040E0420DA6E32
:1039D400FC0EDF6EFF0E056EFF0E066E34C007F0A0
:1039E40035C008F00550072606500822000E0724AB
:1039F400E16E040E0820E26EDFCFE7FF020E3424EE
:103A0400036E000E3520046E000E0324D96E040EDE
:103A14000420DA6EF00EDF6EFE0E056EFF0E066EEB
:103A240034C007F035C008F00550072606500822B8
:103A3400000E0724E16E040E0820E26EDFCFE7FFDC
:103A440024EF1DF0000E106E000E0F6E000E266E99
:103A5400070E266430EF1DF032EF1DF036EF1DF037
:103A64008BEF1DF08BEF1DF0000E276E010E276407
:103A74003EEF1DF040EF1DF044EF1DF082EF1DF00E
:103A840082EF1DF08A94400E016E2750D4EC17F09B
:103A94002650B809016E2750D4EC17F08A84000E22
:103AA400236E3F0E236459EF1DF05BEF1DF05FEFB3
:103AB4001DF077EF1DF077EF1DF0000E0F24D96E87
:103AC400040E1020DA6EDF50016E2750D4EC17F08C
:103AD4000F4A102A232A3F0E236473EF1DF075EF5B
:103AE4001DF05FEF1DF077EF1DF0272A010E27640C
:103AF4007EEF1DF080EF1DF044EF1DF082EF1DF00E
:103B0400262A070E266489EF1DF08BEF1DF036EF91
:103B14001DF08A908A92BD0E32183310D8A495EF06
:103B24001DF097EF1DF09DEF1DF0000E1A6E010EB3
:103B3400196E9DEF1DF0840E32183310D8A4A5EF32
:103B44001DF0A7EF1DF0ADEF1DF0000E1A6E000E74
:103B5400196EADEF1DF019501A10D8A4B4EF1DF072
:103B6400B6EF1DF096EF1EF0030E3224036E000E26
:103B74003320046E000E0324D96E040E0420DA6E82
:103B8400040E3224056E000E3320066E000E05244A
:103B9400E16E040E0620E26EDFCFE7FF020E322450
:103BA400036E000E3320046E000E0324D96E040E3F
:103BB4000420DA6E030E3224056E000E3320066EE6
:103BC400000E0524E16E040E0620E26EDFCFE7FF4F
:103BD400010E3224036E000E3320046E000E032403
:103BE400D96E040E0420DA6E020E3224056E000E25
:103BF4003320066E000E0524E16E040E0620E26EEC
:103C0400DFCFE7FF000E3224D96E040E3320DA6EC4
:103C1400010E3224036E000E3320046E000E0324C2
:103C2400E16E040E0420E26EDFCFE7FFFF0E036EA9
:103C3400FF0E046E32C005F033C006F003500526B3
:103C440004500622000E0524D96E040E0620DA6EF6
:103C5400000E3224E16E040E3320E26EDFCFE7FF64
:103C6400FE0E036EFF0E046E32C005F033C006F084
:103C74000350052604500622000E0524D96E040EB6
:103C84000620DA6EFF0E076EFF0E086E32C009F0D2
:103C940033C00AF00750092608500A22000E0924EE
:103CA400E16E040E0A20E26EDFCFE7FFFD0E036E25
:103CB400FF0E046E32C005F033C006F00350052633
:103CC40004500622000E0524D96E040E0620DA6E76
:103CD400FE0E076EFF0E086E32C009F033C00AF004
:103CE4000750092608500A22000E0924E16E040E2A
:103CF4000A20E26EDFCFE7FFFD0E036EFF0E046EB7
:103D040032C005F033C006F00350052604500622E5
:103D1400000E0524D96E040E0620DA6E000EDF6E46
:103D2400324A332A7DEF1FF0FD0E036EFF0E046E40
:103D340032C005F033C006F00350052604500622B5
:103D4400000E0524D96E040E0620DA6EFC0E076EF2
:103D5400FF0E086E32C009F033C00AF0075009267E
:103D640008500A22000E0924E16E040E0A20E26EB5
:103D7400DFCFE7FFFE0E036EFF0E046E32C005F0C8
:103D840033C006F00350052604500622000E052415
:103D9400D96E040E0620DA6EFD0E076EFF0E086E55
:103DA40032C009F033C00AF00750092608500A222D
:103DB400000E0924E16E040E0A20E26EDFCFE7FF55
:103DC400FF0E036EFF0E046E32C005F033C006F022
:103DD4000350052604500622000E0524D96E040E55
:103DE4000620DA6EFE0E076EFF0E086E32C009F072
:103DF40033C00AF00750092608500A22000E09248D
:103E0400E16E040E0A20E26EDFCFE7FF000E3224DB
:103E1400D96E040E3320DA6EFF0E036EFF0E046EAD
:103E240032C005F033C006F00350052604500622C4
:103E3400000E0524E16E040E0620E26EDFCFE7FFDC
:103E4400010E3224036E000E3320046E000E032490
:103E5400D96E040E0420DA6E000E3224E16E040ED4
:103E64003320E26EDFCFE7FF020E3224036E000E32
:103E74003320046E000E0324D96E040E0420DA6E7F
:103E8400010E3224056E000E3320066E000E05244A
:103E9400E16E040E0620E26EDFCFE7FF030E32244C
:103EA400036E000E3320046E000E0324D96E040E3C
:103EB4000420DA6E020E3224056E000E3320066EE4
:103EC400000E0524E16E040E0620E26EDFCFE7FF4C
:103ED400030E3224036E000E3320046E000E0324FE
:103EE400D96E040E0420DA6E000EDF6E3206D8A0FE
:103EF40033067DEF1FF0440E30183110D8A485EF3F
:103F04001FF087EF1FF08DEF1FF0000E186E010EEB
:103F1400176E8DEF1FF07C0E30183110D8A495EF7A
:103F24001FF097EF1FF09DEF1FF0000E186E000EAC
:103F3400176E9DEF1FF017041810D8A4A4EF1FF0FC
:103F4400A6EF1FF086EF20F0030E3024036E000E60
:103F54003120046E000E0324D96E040E0420DA6EA0
:103F6400040E3024056E000E3120066E000E05246A
:103F7400E16E040E0620E26EDFCFE7FF020E30246E
:103F8400036E000E3120046E000E0324D96E040E5D
:103F94000420DA6E030E3024056E000E3120066E06
:103FA400000E0524E16E040E0620E26EDFCFE7FF6B
:103FB400010E3024036E000E3120046E000E032423
:103FC400D96E040E0420DA6E020E3024056E000E43
:103FD4003120066E000E0524E16E040E0620E26E0A
:103FE400DFCFE7FF000E3024D96E040E3120DA6EE5
:103FF400010E3024036E000E3120046E000E0324E3
:10400400E16E040E0420E26EDFCFE7FFFF0E036EC5
:10401400FF0E046E30C005F031C006F003500526D3
:1040240004500622000E0524D96E040E0620DA6E12
:10403400000E3024E16E040E3120E26EDFCFE7FF84
:10404400FE0E036EFF0E046E30C005F031C006F0A4
:104054000350052604500622000E0524D96E040ED2
:104064000620DA6EFF0E076EFF0E086E30C009F0F0
:1040740031C00AF00750092608500A22000E09240C
:10408400E16E040E0A20E26EDFCFE7FFFD0E036E41
:10409400FF0E046E30C005F031C006F00350052653
:1040A40004500622000E0524D96E040E0620DA6E92
:1040B400FE0E076EFF0E086E30C009F031C00AF024
:1040C4000750092608500A22000E0924E16E040E46
:1040D4000A20E26EDFCFE7FFFD0E036EFF0E046ED3
:1040E40030C005F031C006F0035005260450062206
:1040F400000E0524D96E040E0620DA6E000EDF6E63
:10410400304A312A6DEF21F0FD0E036EFF0E046E6E
:1041140030C005F031C006F00350052604500622D5
:10412400000E0524D96E040E0620DA6EFC0E076E0E
:10413400FF0E086E30C009F031C00AF0075009269E
:1041440008500A22000E0924E16E040E0A20E26ED1
:10415400DFCFE7FFFE0E036EFF0E046E30C005F0E6
:1041640031C006F00350052604500622000E052433
:10417400D96E040E0620DA6EFD0E076EFF0E086E71
:1041840030C009F031C00AF00750092608500A224D
:10419400000E0924E16E040E0A20E26EDFCFE7FF71
:1041A400FF0E036EFF0E046E30C005F031C006F042
:1041B4000350052604500622000E0524D96E040E71
:1041C4000620DA6EFE0E076EFF0E086E30C009F090
:1041D40031C00AF00750092608500A22000E0924AB
:1041E400E16E040E0A20E26EDFCFE7FF000E3024FA
:1041F400D96E040E3120DA6EFF0E036EFF0E046ECC
:1042040030C005F031C006F00350052604500622E4
:10421400000E0524E16E040E0620E26EDFCFE7FFF8
:10422400010E3024036E000E3120046E000E0324B0
:10423400D96E040E0420DA6E000E3024E16E040EF2
:104244003120E26EDFCFE7FF020E3024036E000E52
:104254003120046E000E0324D96E040E0420DA6E9D
:10426400010E3024056E000E3120066E000E05246A
:10427400E16E040E0620E26EDFCFE7FF030E30246A
:10428400036E000E3120046E000E0324D96E040E5A
:104294000420DA6E020E3024056E000E3120066E04
:1042A400000E0524E16E040E0620E26EDFCFE7FF68
:1042B400030E3024036E000E3120046E000E03241E
:1042C400D96E040E0420DA6E000EDF6E3006D8A01C
:1042D40031066DEF21F0C00E36183710D8A475EFF3
:1042E40021F077EF21F07DEF21F0000E166E010E24
:1042F400156E7DEF21F0FC0E36183710D8A485EF2B
:1043040021F087EF21F08DEF21F0000E166E000EE4
:10431400156E8DEF21F015041610D8A494EF21F03A
:1043240096EF21F076EF22F0030E3624036E000E92
:104334003720046E000E0324D96E040E0420DA6EB6
:10434400040E3624056E000E3720066E000E05247A
:10435400E16E040E0620E26EDFCFE7FF020E362484
:10436400036E000E3720046E000E0324D96E040E73
:104374000420DA6E030E3624056E000E3720066E16
:10438400000E0524E16E040E0620E26EDFCFE7FF87
:10439400010E3624036E000E3720046E000E032433
:1043A400D96E040E0420DA6E020E3624056E000E59
:1043B4003720066E000E0524E16E040E0620E26E20
:1043C400DFCFE7FF000E3624D96E040E3720DA6EF5
:1043D400010E3624036E000E3720046E000E0324F3
:1043E400E16E040E0420E26EDFCFE7FFFF0E036EE2
:1043F400FF0E046E36C005F037C006F003500526E4
:1044040004500622000E0524D96E040E0620DA6E2E
:10441400000E3624E16E040E3720E26EDFCFE7FF94
:10442400FE0E036EFF0E046E36C005F037C006F0B4
:104434000350052604500622000E0524D96E040EEE
:104444000620DA6EFF0E076EFF0E086E36C009F006
:1044540037C00AF00750092608500A22000E092422
:10446400E16E040E0A20E26EDFCFE7FFFD0E036E5D
:10447400FF0E046E36C005F037C006F00350052663
:1044840004500622000E0524D96E040E0620DA6EAE
:10449400FE0E076EFF0E086E36C009F037C00AF034
:1044A4000750092608500A22000E0924E16E040E62
:1044B4000A20E26EDFCFE7FFFD0E036EFF0E046EEF
:1044C40036C005F037C006F0035005260450062216
:1044D400000E0524D96E040E0620DA6E000EDF6E7F
:1044E400364A372A5DEF23F0FD0E036EFF0E046E8D
:1044F40036C005F037C006F00350052604500622E6
:10450400000E0524D96E040E0620DA6EFC0E076E2A
:10451400FF0E086E36C009F037C00AF007500926AE
:1045240008500A22000E0924E16E040E0A20E26EED
:10453400DFCFE7FFFE0E036EFF0E046E36C005F0FC
:1045440037C006F00350052604500622000E052449
:10455400D96E040E0620DA6EFD0E076EFF0E086E8D
:1045640036C009F037C00AF00750092608500A225D
:10457400000E0924E16E040E0A20E26EDFCFE7FF8D
:10458400FF0E036EFF0E046E36C005F037C006F052
:104594000350052604500622000E0524D96E040E8D
:1045A4000620DA6EFE0E076EFF0E086E36C009F0A6
:1045B40037C00AF00750092608500A22000E0924C1
:1045C400E16E040E0A20E26EDFCFE7FF000E362410
:1045D400D96E040E3720DA6EFF0E036EFF0E046EE2
:1045E40036C005F037C006F00350052604500622F5
:1045F400000E0524E16E040E0620E26EDFCFE7FF15
:10460400010E3624036E000E3720046E000E0324C0
:10461400D96E040E0420DA6E000E3624E16E040E08
:104624003720E26EDFCFE7FF020E3624036E000E62
:104634003720046E000E0324D96E040E0420DA6EB3
:10464400010E3624056E000E3720066E000E05247A
:10465400E16E040E0620E26EDFCFE7FF030E362480
:10466400036E000E3720046E000E0324D96E040E70
:104674000420DA6E020E3624056E000E3720066E14
:10468400000E0524E16E040E0620E26EDFCFE7FF84
:10469400030E3624036E000E3720046E000E03242E
:1046A400D96E040E0420DA6E000EDF6E3606D8A032
:1046B40037065DEF23F0400E2E182F10D8A465EFB7
:1046C40023F067EF23F06DEF23F0000E126E010E5E
:1046D400116E6DEF23F0040E2E182F10D8A475EF71
:1046E40023F077EF23F07DEF23F0000E126E000E1F
:1046F400116E7DEF23F011501210D8A484EF23F033
:1047040086EF23F066EF24F0030E2E24036E000ED2
:104714002F20046E000E0324D96E040E0420DA6EDA
:10472400040E2E24056E000E2F20066E000E0524A6
:10473400E16E040E0620E26EDFCFE7FF020E2E24A8
:10474400036E000E2F20046E000E0324D96E040E97
:104754000420DA6E030E2E24056E000E2F20066E42
:10476400000E0524E16E040E0620E26EDFCFE7FFA3
:10477400010E2E24036E000E2F20046E000E03245F
:10478400D96E040E0420DA6E020E2E24056E000E7D
:104794002F20066E000E0524E16E040E0620E26E44
:1047A400DFCFE7FF000E2E24D96E040E2F20DA6E21
:1047B400010E2E24036E000E2F20046E000E03241F
:1047C400E16E040E0420E26EDFCFE7FFFF0E036EFE
:1047D400FF0E046E2EC005F02FC006F00350052610
:1047E40004500622000E0524D96E040E0620DA6E4B
:1047F400000E2E24E16E040E2F20E26EDFCFE7FFC1
:10480400FE0E036EFF0E046E2EC005F02FC006F0E0
:104814000350052604500622000E0524D96E040E0A
:104824000620DA6EFF0E076EFF0E086E2EC009F02A
:104834002FC00AF00750092608500A22000E092446
:10484400E16E040E0A20E26EDFCFE7FFFD0E036E79
:10485400FF0E046E2EC005F02FC006F0035005268F
:1048640004500622000E0524D96E040E0620DA6ECA
:10487400FE0E076EFF0E086E2EC009F02FC00AF060
:104884000750092608500A22000E0924E16E040E7E
:104894000A20E26EDFCFE7FFFD0E036EFF0E046E0B
:1048A4002EC005F02FC006F0035005260450062242
:1048B400000E0524D96E040E0620DA6E000EDF6E9B
:1048C4002E4A2F2A4DEF25F0FD0E036EFF0E046EC7
:1048D4002EC005F02FC006F0035005260450062212
:1048E400000E0524D96E040E0620DA6EFC0E076E47
:1048F400FF0E086E2EC009F02FC00AF007500926DB
:1049040008500A22000E0924E16E040E0A20E26E09
:10491400DFCFE7FFFE0E036EFF0E046E2EC005F020
:104924002FC006F00350052604500622000E05246D
:10493400D96E040E0620DA6EFD0E076EFF0E086EA9
:104944002EC009F02FC00AF00750092608500A2289
:10495400000E0924E16E040E0A20E26EDFCFE7FFA9
:10496400FF0E036EFF0E046E2EC005F02FC006F07E
:104974000350052604500622000E0524D96E040EA9
:104984000620DA6EFE0E076EFF0E086E2EC009F0CA
:104994002FC00AF00750092608500A22000E0924E5
:1049A400E16E040E0A20E26EDFCFE7FF000E2E2434
:1049B400D96E040E2F20DA6EFF0E036EFF0E046E06
:1049C4002EC005F02FC006F0035005260450062221
:1049D400000E0524E16E040E0620E26EDFCFE7FF31
:1049E400010E2E24036E000E2F20046E000E0324ED
:1049F400D96E040E0420DA6E000E2E24E16E040E2D
:104A04002F20E26EDFCFE7FF020E2E24036E000E8E
:104A14002F20046E000E0324D96E040E0420DA6ED7
:104A2400010E2E24056E000E2F20066E000E0524A6
:104A3400E16E040E0620E26EDFCFE7FF030E2E24A4
:104A4400036E000E2F20046E000E0324D96E040E94
:104A54000420DA6E020E2E24056E000E2F20066E40
:104A6400000E0524E16E040E0620E26EDFCFE7FFA0
:104A7400030E2E24036E000E2F20046E000E03245A
:104A8400D96E040E0420DA6E000EDF6E2E06D8A056
:104A94002F064DEF25F0000E2E24D96E040E2F2084
:104AA400DA6EDF50D8A459EF25F05BEF25F00FEF55
:104AB4002AF0030E2E24036E000E2F20046E000E27
:104AC4000324D96E040E0420DA6EDF50D8A46DEFEF
:104AD40025F06FEF25F00FEF2AF0020E2E24036E5F
:104AE400000E2F20046E000E0324D96E040E042041
:104AF400DA6EDF50D8A481EF25F083EF25F00FEFB5
:104B04002AF0010E2E24036E000E2F20046E000ED8
:104B14000324D96E040E0420DA6EDF50D8A495EF76
:104B240025F097EF25F00FEF2AF0FF0E036EFF0E2E
:104B3400046E2EC005F02FC006F003500526045065
:104B44000622000E0524D96E040E0620DA6EDF500C
:104B5400D8A4AFEF25F0B1EF25F00FEF2AF0FE0E49
:104B6400036EFF0E046E2EC005F02FC006F0035036
:104B7400052604500622000E0524D96E040E0620D4
:104B8400DA6EDF50D8A4C9EF25F0CBEF25F00FEF94
:104B94002AF0FD0E036EFF0E046E2EC005F02FC02A
:104BA40006F00350052604500622000E0524D96E93
:104BB400040E0620DA6EDF50D8A4E3EF25F0E5EF0B
:104BC40025F00FEF2AF0000E3624D96E040E37209C
:104BD400DA6EDF50D8A4F1EF25F0F3EF25F00FEFF4
:104BE4002AF0030E3624036E000E3720046E000EE6
:104BF4000324D96E040E0420DA6EDF50D8A405EF26
:104C040026F007EF26F00FEF2AF0020E3624036E8B
:104C1400000E3720046E000E0324D96E040E042007
:104C2400DA6EDF50D8A419EF26F01BEF26F00FEF51
:104C34002AF0010E3624036E000E3720046E000E97
:104C44000324D96E040E0420DA6EDF50D8A42DEFAD
:104C540026F02FEF26F00FEF2AF0FF0E036EFF0E63
:104C6400046E36C005F037C006F003500526045024
:104C74000622000E0524D96E040E0620DA6EDF50DB
:104C8400D8A447EF26F049EF26F00FEF2AF0FE0EE6
:104C9400036EFF0E046E36C005F037C006F00350F5
:104CA400052604500622000E0524D96E040E0620A3
:104CB400DA6EDF50D8A461EF26F063EF26F00FEF31
:104CC4002AF0FD0E036EFF0E046E36C005F037C0E9
:104CD40006F00350052604500622000E0524D96E62
:104CE400040E0620DA6EDF50D8A47BEF26F07DEFA9
:104CF40026F00FEF2AF0000E3024D96E040E312076
:104D0400DA6EDF50D8A489EF26F08BEF26F00FEF90
:104D14002AF0030E3024036E000E3120046E000EC0
:104D24000324D96E040E0420DA6EDF50D8A49DEF5C
:104D340026F09FEF26F00FEF2AF0020E3024036EC8
:104D4400000E3120046E000E0324D96E040E0420DC
:104D5400DA6EDF50D8A4B1EF26F0B3EF26F00FEFF0
:104D64002AF0010E3024036E000E3120046E000E72
:104D74000324D96E040E0420DA6EDF50D8A4C5EFE4
:104D840026F0C7EF26F00FEF2AF0FF0E036EFF0E9A
:104D9400046E30C005F031C006F0035005260450FF
:104DA4000622000E0524D96E040E0620DA6EDF50AA
:104DB400D8A4DFEF26F0E1EF26F00FEF2AF0FE0E85
:104DC400036EFF0E046E30C005F031C006F00350D0
:104DD400052604500622000E0524D96E040E062072
:104DE400DA6EDF50D8A4F9EF26F0FBEF26F00FEFD0
:104DF4002AF0FD0E036EFF0E046E30C005F031C0C4
:104E040006F00350052604500622000E0524D96E30
:104E1400040E0620DA6EDF50D8A413EF27F015EF46
:104E240027F00FEF2AF0000E3224D96E040E33203F
:104E3400DA6EDF50D8A421EF27F023EF27F00FEF2D
:104E44002AF0030E3224036E000E3320046E000E8B
:104E54000324D96E040E0420DA6EDF50D8A435EF93
:104E640027F037EF27F00FEF2AF0020E3224036EFB
:104E7400000E3320046E000E0324D96E040E0420A9
:104E8400DA6EDF50D8A449EF27F04BEF27F00FEF8D
:104E94002AF0010E3224036E000E3320046E000E3D
:104EA4000324D96E040E0420DA6EDF50D8A45DEF1B
:104EB40027F05FEF27F00FEF2AF0FF0E036EFF0ECF
:104EC400046E32C005F033C006F0035005260450CA
:104ED4000622000E0524D96E040E0620DA6EDF5079
:104EE400D8A477EF27F079EF27F00FEF2AF0FE0E22
:104EF400036EFF0E046E32C005F033C006F003509B
:104F0400052604500622000E0524D96E040E062040
:104F1400DA6EDF50D8A491EF27F093EF27F00FEF6C
:104F24002AF0FD0E036EFF0E046E32C005F033C08E
:104F340006F00350052604500622000E0524D96EFF
:104F4400040E0620DA6EDF50D8A4ABEF27F0ADEFE5
:104F540027F00FEF2AF0000E256E000E246E25BEFA
:104F6400BBEF27F0040E255CD8A0BBEF27F0BDEF04
:104F740027F0C1EF27F0D9EF27F0D9EF27F0000E83
:104F84002424D96E040E2520DA6E000EDF6E244A26
:104F9400252A25BED5EF27F0040E255CD8A0D5EF31
:104FA40027F0D7EF27F0C1EF27F0D9EF27F00E0E47
:104FB4002A24036E000E2B20046E000E0324D96EE7
:104FC400040E0420DA6E1F0EDF6E070E2A24056E0F
:104FD400000E2B20066E000E0524E16E040E062042
:104FE400E26EDFCFE7FF0D0E2A24036E000E2B20A6
:104FF400046E000E0324D96E040E0420DA6E200E13
:10500400DF6E080E2A24056E000E2B20066E000E9D
:105014000524E16E040E0620E26EDFCFE7FF0C0EDE
:105024002A24036E000E2B20046E000E0324D96E76
:10503400040E0420DA6E400EDF6E090E2A24056E7B
:10504400000E2B20066E000E0524E16E040E0620D1
:10505400E26EDFCFE7FF0B0E2A24036E000E2B2037
:10506400046E000E0324D96E040E0420DA6E800E42
:10507400DF6E0A0E2A24056E000E2B20066E000E2B
:105084000524E16E040E0620E26EDFCFE7FF110E69
:105094002A24036E000E2B20046E000E0324D96E06
:1050A400040E0420DA6EFF0EDF6E100E2A24056E45
:1050B400000E2B20066E000E0524E16E040E062061
:1050C400E26EDFCFE7FF130E2A24036E000E2B20BF
:1050D400046E000E0324D96E040E0420DA6EFF0E53
:1050E400DF6E170E2A24036E000E2B20046E000EB2
:1050F4000324D96E040E0420DA6E810EDF6E160EC0
:105104002A24056E000E2B20066E000E0524E16E87
:10511400040E0620E26EDFCFE7FF150E2A24076E89
:10512400000E2B20086E000E0724D96E040E0820F2
:10513400DA6EE7CFDFFF140E2A24096E000E2B204F
:105144000A6E000E0924E16E040E0A20E26EDFCF1F
:10515400E7FF1F0E2A24036E000E2B20046E000EA0
:105164000324D96E040E0420DA6E010EDF6E1E0EC7
:105174002A24056E000E2B20066E000E0524E16E17
:10518400040E0620E26EDFCFE7FF1D0E2A24076E11
:10519400000E2B20086E000E0724D96E040E082082
:1051A400DA6EE7CFDFFF1B0E2A24096E000E2B20D8
:1051B4000A6E000E0924E16E040E0A20E26EDFCFAF
:1051C400E7FF1A0E2A240B6E000E2B200C6E000E25
:1051D4000B24D96E040E0C20DA6EE7CFDFFF190E14
:1051E4002A240D6E000E2B200E6E000E0D24E16E8F
:1051F400040E0E20E26EDFCFE7FF1C0E2A24036E9E
:10520400000E2B20046E000E0324D96E040E04201D
:10521400DA6EFF0EDF6E040E2A242A6E000E2B2097
:105224002B6E230E2A24036E000E2B20046E000E18
:105234000324D96E040E0420DA6EFF0EDF6E1E0EF8
:105244002A24056E000E2B20066E000E0524E16E46
:10525400040E0620E26EDFCFE7FF220E2A24036E3F
:10526400000E2B20046E000E0324D96E040E0420BD
:10527400DA6E810EDF6E210E2A24056E000E2B20BD
:10528400066E000E0524E16E040E0620E26EDFCFEA
:10529400E7FF200E2A24076E000E2B20086E000E56
:1052A4000724D96E040E0820DA6EE7CFDFFF1F0E45
:1052B4002A24096E000E2B200A6E000E0924E16ECA
:1052C400040E0A20E26EDFCFE7FF020E2A242A6EC4
:1052D400000E2B202B6E250E2A24036E000E2B208D
:1052E400046E000E0324D96E040E0420DA6EFF0E41
:1052F400DF6E240E2A24056E000E2B20066E000E8F
:105304000524E16E040E0620E26EDFCFE7FF270ED0
:105314002A24036E000E2B20046E000E0324D96E83
:10532400040E0420DA6EFF0EDF6E280E2A24036EAC
:10533400000E2B20046E000E0324D96E040E0420EC
:10534400DA6E110EDF6E290E2A24036E000E2B2056
:10535400046E000E0324D96E040E0420DA6E310E9E
:10536400DF6E2A0E2A24036E000E2B20046E000E1C
:105374000324D96E040E0420DA6E4A0EDF6E2B0E5F
:105384002A24036E000E2B20046E000E0324D96E13
:10539400040E0420DA6E840EDF6E2D0E2A24036EB2
:1053A400000E2B20046E000E0324D96E040E04207C
:1053B400DA6EFF0EDF6E300E2A24036E000E2B20F1
:1053C400046E000E0324D96E040E0420DA6E910ECE
:1053D400DF6E2F0E2A24056E000E2B20066E000EA3
:1053E4000524E16E040E0620E26EDFCFE7FF2E0EE9
:1053F4002A24076E000E2B20086E000E0724D96E97
:10540400040E0820DA6EE7CFDFFF0FEF2AF00FEF6C
:105414002AF00FEF2AF00FEF2AF0640E1D181E1069
:10542400D8A417EF2AF019EF2AF027EF2AF0000E7C
:10543400206E010E1F6E000E1E6E000E1D6E36C015
:1054440028F037C029F027EF2AF01D4A1E2A1F042E
:105454002010D8A430EF2AF032EF2AF047EF2BF0D7
:10546400000E3624D96E040E3720DA6EDF50D8A42D
:105474003EEF2AF040EF2AF0CEEF2AF0030E362456
:10548400036E000E3720046E000E0324D96E040E42
:105494000420DA6EDF50D8A452EF2AF054EF2AF039
:1054A400CEEF2AF0020E3624036E000E3720046E6F
:1054B400000E0324D96E040E0420DA6EDF50D8A443
:1054C40066EF2AF068EF2AF0CEEF2AF0010E3624B8
:1054D400036E000E3720046E000E0324D96E040EF2
:1054E4000420DA6EDF50D8A47AEF2AF07CEF2AF099
:1054F400CEEF2AF0FF0E036EFF0E046E36C005F0E9
:1055040037C006F00350052604500622000E052479
:10551400D96E040E0620DA6EDF50D8A494EF2AF078
:1055240096EF2AF0CEEF2AF0FE0E036EFF0E046E05
:1055340036C005F037C006F0035005260450062295
:10554400000E0524D96E040E0620DA6EDF50D8A4AE
:10555400AEEF2AF0B0EF2AF0CEEF2AF0FD0E036E84
:10556400FF0E046E36C005F037C006F00350052662
:1055740004500622000E0524D96E040E0620DA6EAD
:10558400DF50D8A4C8EF2AF0CAEF2AF0CEEF2AF0F1
:1055940017EF2BF017EF2BF0800E2824036E000E6C
:1055A4002920046E000E0324D96E040E0420DA6E42
:1055B400FF0EDF6E810E2824036E000E2920046E78
:1055C400000E0324D96E040E0420DA6EFF0EDF6E83
:1055D40013041410D8A4F1EF2AF0F3EF2AF00BEF20
:1055E4002BF0000E2824D96E040E2920DA6E000E4A
:1055F400DF6E010E2824036E000E2920046E000EB7
:105604000324D96E040E0420DA6E000EDF6E0BEF55
:105614002BF0000E146E010E136E800E2824286EDB
:10562400000E2920296E17EF2BF029BE23EF2BF053
:10563400810E285C030E2958D8A023EF2BF025EF08
:105644002BF047EF2BF0000E2824D96E040E2920EE
:10565400DA6E000EDF6E010E2824036E000E292080
:10566400046E000E0324D96E040E0420DA6E000EBC
:10567400DF6E000E206E000E1F6E000E146E000E04
:10568400136E47EF2BF047EF2BF081AC4CEF2BF070
:105694004EEF2BF058EF2BF0000E1C6E010E1B6E1C
:1056A40034C02CF035C02DF058EF2BF01B041C1027
:1056B400D8A45FEF2BF061EF2BF0ACEF32F02DBEEE
:1056C4006FEF2BF02D5007E1810E2C5CD8B06DEFFD
:1056D4002BF06FEF2BF0A1EF2BF0000E2C24D96EE2
:1056E400040E2D20DA6E000EDF6E010E2C24036EE4
:1056F400000E2D20046E000E0324D96E040E042027
:10570400DA6E000EDF6EFF0E036EFF0E046E2CC009
:1057140005F02DC006F00350052604500622000EA5
:105724000524D96E040E0620DA6E000EDF6E000E1C
:105734001C6E000E1B6E000E226E000E216E800E7B
:10574400036EFF0E046E2CC005F02DC006F003504E
:10575400052604500622000E0524D96E040E0620E8
:10576400DA6EDF50D8A4B9EF2BF0BBEF2BF02DEF9E
:105774002CF07F0E036EFF0E046E2CC005F02DC0BE
:1057840006F00350052604500622000E0524D96EA7
:10579400040E0620DA6EDF50D8A4D3EF2BF0D5EF39
:1057A4002BF02DEF2CF0810E036EFF0E046E2CC037
:1057B40005F02DC006F00350052604500622000E05
:1057C4000524D96E040E0620DA6EDF50D8A4EDEF5E
:1057D4002BF0EFEF2BF02DEF2CF0800E036EFF0E6D
:1057E400046E2CC005F02DC006F0035005260450AD
:1057F4000622000E0524D96E040E0620DA6EFF0E72
:10580400DF6E7F0E036EFF0E046E2CC005F02DC0FC
:1058140006F00350052604500622000E0524D96E16
:10582400040E0620DA6EFF0EDF6E810E036EFF0E8D
:10583400046E2CC005F02DC006F00350052604505C
:105844000622000E0524D96E040E0620DA6EFF0E21
:10585400DF6E1FEF32F0800E036EFF0E046E2CC05D
:1058640005F02DC006F00350052604500622000E54
:105874000524D96E040E0620DA6EDE28D8A445EF7E
:105884002CF047EF2CF0E3EF2CF07F0E036EFF0EAD
:10589400046E2CC005F02DC006F0035005260450FC
:1058A4000622000E0524D96E040E0620DA6EDE28C8
:1058B400D8A45FEF2CF061EF2CF0E3EF2CF0810E15
:1058C400036EFF0E046E2CC005F02DC006F00350CD
:1058D400052604500622000E0524D96E040E062067
:1058E400DA6EDE28D8A479EF2CF07BEF2CF0E3EF0E
:1058F4002CF0800E036EFF0E046E2CC005F02DC03C
:1059040006F00350052604500622000E0524D96E25
:10591400040E0620DA6E000EDF6E7F0E036EFF0E9D
:10592400046E2CC005F02DC006F00350052604506B
:105934000622000E0524D96E040E0620DA6E000E2F
:10594400DF6E810E036EFF0E046E2CC005F02DC0B9
:1059540006F00350052604500622000E0524D96ED5
:10596400040E0620DA6E000EDF6E000E2C24D96EB3
:10597400040E2D20DA6E000EDF6E010E2C24036E51
:10598400000E2D20046E000E0324D96E040E042094
:10599400DA6E000EDF6EFF0E036EFF0E046E2CC077
:1059A40005F02DC006F00350052604500622000E13
:1059B4000524D96E040E0620DA6E000EDF6E1FEF8A
:1059C40032F0800E036EFF0E046E2CC005F02DC065
:1059D40006F00350052604500622030E2E24076EFB
:1059E400000E2F20086E0550075C0850800A096ECF
:1059F4000650800A0958D8A002EF2DF004EF2DF0CC
:105A04002DEF2DF0FD0E036EFF0E046E2EC005F07B
:105A14002FC006F00350052604500622800E076EA0
:105A2400FF0E086E2CC009F02DC00AF0075009269D
:105A340008500A220550095C0A50800A0B6E065071
:105A4400800A0B58D8B029EF2DF02BEF2DF0C1EFC1
:105A54002DF02DEF2DF0810E036EFF0E046E2CC081
:105A640005F02DC006F00350052604500622030E4F
:105A74002E24076E000E2F20086E0550075C085078
:105A8400800A096E0650800A0958D8A04CEF2DF000
:105A94004EEF2DF077EF2DF0FD0E036EFF0E046E2A
:105AA4002EC005F02FC006F0035005260450062230
:105AB400810E076EFF0E086E2CC009F02DC00AF08F
:105AC4000750092608500A220550095C0A50800A2A
:105AD4000B6E0650800A0B58D8B073EF2DF075EF9B
:105AE4002DF0C1EF2DF077EF2DF07F0E036EFF0E3A
:105AF400046E2CC005F02DC006F00350052604509A
:105B04000622030E2E24076E000E2F20086E055069
:105B1400075C0850800A096E0650800A0958D8A00C
:105B240096EF2DF098EF2DF031EF2EF0FD0E036E71
:105B3400FF0E046E2EC005F02FC006F0035005269C
:105B4400045006227F0E076EFF0E086E2CC009F06B
:105B54002DC00AF00750092608500A220550095C96
:105B64000A50800A0B6E0650800A0B58D8A0BDEF6D
:105B74002DF0BFEF2DF031EF2EF0C1EF2DF0000E20
:105B84002E24D96E040E2F20DA6E000EDF6E010E65
:105B94002E24036E000E2F20046E000E0324D96EF3
:105BA400040E0420DA6E000EDF6E020E2E24036E45
:105BB400000E2F20046E000E0324D96E040E042060
:105BC400DA6E000EDF6E030E2E24036E000E2F20FD
:105BD400046E000E0324D96E040E0420DA6E000E47
:105BE400DF6EFF0E036EFF0E046E2EC005F02FC095
:105BF40006F00350052604500622000E0524D96E33
:105C0400040E0620DA6E000EDF6EFE0E036EFF0E2B
:105C1400046E2EC005F02FC006F003500526045074
:105C24000622000E0524D96E040E0620DA6E000E3C
:105C3400DF6EFD0E036EFF0E046E2EC005F02FC046
:105C440006F00350052604500622000E0524D96EE2
:105C5400040E0620DA6E000EDF6E31EF2EF0800E99
:105C6400036EFF0E046E2CC005F02DC006F0035029
:105C7400052604500622030E3624076E000E372034
:105C8400086E0550075C0850800A096E0650800AA9
:105C94000958D8A050EF2EF052EF2EF07BEF2EF0E3
:105CA400FD0E036EFF0E046E36C005F037C006F01D
:105CB4000350052604500622800E076EFF0E086E60
:105CC4002CC009F02DC00AF00750092608500A22FA
:105CD4000550095C0A50800A0B6E0650800A0B5866
:105CE400D8B077EF2EF079EF2EF00FEF2FF07BEF97
:105CF4002EF0810E036EFF0E046E2CC005F02DC035
:105D040006F00350052604500622030E3624076EBF
:105D1400000E3720086E0550075C0850800A096E93
:105D24000650800A0958D8A09AEF2EF09CEF2EF066
:105D3400C5EF2EF0FD0E036EFF0E046E36C005F0A7
:105D440037C006F00350052604500622810E076E64
:105D5400FF0E086E2CC009F02DC00AF0075009266A
:105D640008500A220550095C0A50800A0B6E06503E
:105D7400800A0B58D8B0C1EF2EF0C3EF2EF00FEF0E
:105D84002FF0C5EF2EF07F0E036EFF0E046E2CC0B5
:105D940005F02DC006F00350052604500622030E1C
:105DA4003624076E000E3720086E0550075C085035
:105DB400800A096E0650800A0958D8A0E4EF2EF034
:105DC400E6EF2EF07FEF2FF0FD0E036EFF0E046E54
:105DD40036C005F037C006F00350052604500622ED
:105DE4007F0E076EFF0E086E2CC009F02DC00AF05E
:105DF4000750092608500A220550095C0A50800AF7
:105E04000B6E0650800A0B58D8A00BEF2FF00DEF45
:105E14002FF07FEF2FF00FEF2FF0000E3624D96E06
:105E2400040E3720DA6E000EDF6E010E3624036E88
:105E3400000E3720046E000E0324D96E040E0420D5
:105E4400DA6E000EDF6E020E3624036E000E37206B
:105E5400046E000E0324D96E040E0420DA6E000EC4
:105E6400DF6E030E3624036E000E3720046E000E20
:105E74000324D96E040E0420DA6E000EDF6EFF0ECA
:105E8400036EFF0E046E36C005F037C006F00350F3
:105E9400052604500622000E0524D96E040E0620A1
:105EA400DA6E000EDF6EFE0E036EFF0E046E36C059
:105EB40005F037C006F00350052604500622000EF4
:105EC4000524D96E040E0620DA6E000EDF6EFD0E78
:105ED400036EFF0E046E36C005F037C006F00350A3
:105EE400052604500622000E0524D96E040E062051
:105EF400DA6E000EDF6E7FEF2FF0800E036EFF0E62
:105F0400046E2CC005F02DC006F003500526045085
:105F14000622030E3024076E000E3120086E055051
:105F2400075C0850800A096E0650800A0958D8A0F8
:105F34009EEF2FF0A0EF2FF0C9EF2FF0FD0E036EB0
:105F4400FF0E046E30C005F031C006F00350052684
:105F540004500622800E076EFF0E086E2CC009F056
:105F64002DC00AF00750092608500A220550095C82
:105F74000A50800A0B6E0650800A0B58D8B0C5EF41
:105F84002FF0C7EF2FF05DEF30F0C9EF2FF0810E47
:105F9400036EFF0E046E2CC005F02DC006F00350F6
:105FA400052604500622030E3024076E000E31200D
:105FB400086E0550075C0850800A096E0650800A76
:105FC4000958D8A0E8EF2FF0EAEF2FF013EF30F0E4
:105FD400FD0E036EFF0E046E30C005F031C006F0F6
:105FE4000350052604500622810E076EFF0E086E2C
:105FF4002CC009F02DC00AF00750092608500A22C7
:106004000550095C0A50800A0B6E0650800A0B5832
:10601400D8B00FEF30F011EF30F05DEF30F013EF48
:1060240030F07F0E036EFF0E046E2CC005F02DC001
:1060340006F00350052604500622030E3024076E92
:10604400000E3120086E0550075C0850800A096E66
:106054000650800A0958D8A032EF30F034EF30F0FF
:10606400CDEF30F0FD0E036EFF0E046E30C005F070
:1060740031C006F003500526045006227F0E076E39
:10608400FF0E086E2CC009F02DC00AF00750092637
:1060940008500A220550095C0A50800A0B6E06500B
:1060A400800A0B58D8A059EF30F05BEF30F0CDEFF9
:1060B40030F05DEF30F0000E3024D96E040E312044
:1060C400DA6E000EDF6E010E3024036E000E3120F6
:1060D400046E000E0324D96E040E0420DA6E000E42
:1060E400DF6E020E3024036E000E3120046E000EAB
:1060F4000324D96E040E0420DA6E000EDF6E030E44
:106104003024036E000E3120046E000E0324D96E79
:10611400040E0420DA6E000EDF6EFF0E036EFF0E17
:10612400046E30C005F031C006F00350052604505B
:106134000622000E0524D96E040E0620DA6E000E27
:10614400DF6EFE0E036EFF0E046E30C005F031C02C
:1061540006F00350052604500622000E0524D96ECD
:10616400040E0620DA6E000EDF6EFD0E036EFF0EC7
:10617400046E30C005F031C006F00350052604500B
:106184000622000E0524D96E040E0620DA6E000ED7
:10619400DF6ECDEF30F0800E036EFF0E046E2CC068
:1061A40005F02DC006F00350052604500622030E08
:1061B4003224076E000E3320086E0550075C085029
:1061C400800A096E0650800A0958D8A0ECEF30F016
:1061D400EEEF30F017EF31F0FD0E036EFF0E046E9C
:1061E40032C005F033C006F00350052604500622E1
:1061F400800E076EFF0E086E2CC009F02DC00AF049
:106204000750092608500A220550095C0A50800AE2
:106214000B6E0650800A0B58D8B013EF31F015EF0F
:1062240031F0ABEF31F017EF31F0810E036EFF0E5A
:10623400046E2CC005F02DC006F003500526045052
:106244000622030E3224076E000E3320086E05501A
:10625400075C0850800A096E0650800A0958D8A0C5
:1062640036EF31F038EF31F061EF31F0FD0E036EAF
:10627400FF0E046E32C005F033C006F0035005264D
:1062840004500622810E076EFF0E086E2CC009F022
:106294002DC00AF00750092608500A220550095C4F
:1062A4000A50800A0B6E0650800A0B58D8B05DEF76
:1062B40031F05FEF31F0ABEF31F061EF31F07F0E91
:1062C400036EFF0E046E2CC005F02DC006F00350C3
:1062D400052604500622030E3224076E000E3320D6
:1062E400086E0550075C0850800A096E0650800A43
:1062F4000958D8A080EF31F082EF31F01FEF32F06F
:10630400FD0E036EFF0E046E32C005F033C006F0BE
:1063140003500526045006227F0E076EFF0E086EFA
:106324002CC009F02DC00AF00750092608500A2293
:106334000550095C0A50800A0B6E0650800A0B58FF
:10634400D8A0A7EF31F0A9EF31F01FEF32F0ABEF97
:1063540031F0000E3224D96E040E3320DA6E000EB2
:10636400DF6E010E3224036E000E3320046E000E25
:106374000324D96E040E0420DA6E000EDF6E020EC2
:106384003224036E000E3320046E000E0324D96EF3
:10639400040E0420DA6E000EDF6E030E3224036E48
:1063A400000E3320046E000E0324D96E040E042064
:1063B400DA6E000EDF6EFF0E036EFF0E046E32C047
:1063C40005F033C006F00350052604500622000EE3
:1063D4000524D96E040E0620DA6E000EDF6EFE0E62
:1063E400036EFF0E046E32C005F033C006F0035096
:1063F400052604500622000E0524D96E040E06203C
:10640400DA6E000EDF6EFD0E036EFF0E046E32C0F8
:1064140005F033C006F00350052604500622000E92
:106424000524D96E040E0620DA6E000EDF6E1FEF0F
:1064340032F01FEF32F01FEF32F021042210D8A403
:1064440026EF32F028EF32F054EF32F0000E2C2415
:10645400D96E040E2D20DA6E000EDF6E010E2C2490
:10646400036E000E2D20046E000E0324D96E040E5C
:106474000420DA6E000EDF6EFF0E036EFF0E046E54
:106484002CC005F02DC006F003500526045006224A
:10649400000E0524D96E040E0620DA6E000EDF6E9F
:1064A40054EF32F0000E226E010E216E800E2C2469
:1064B4002C6EFF0E2D202D6E000E3424D96E040E8A
:1064C4003520DA6EFF0EDF6E010E3424036E000EEB
:1064D4003520046E000E0324D96E040E0420DA6EF7
:1064E400FC0EDF6EFF0E056EFF0E066E34C007F065
:1064F40035C008F00550072606500822000E072470
:10650400E16E040E0820E26EDFCFE7FF020E3424B2
:10651400036E000E3520046E000E0324D96E040EA3
:106524000420DA6EF00EDF6EFE0E056EFF0E066EB0
:1065340034C007F035C008F005500726065008227D
:10654400000E0724E16E040E0820E26EDFCFE7FFA1
:10655400ACEF32F084A0B1EF32F0B3EF32F065EF7C
:1065640033F035BEC1EF32F0FD0E345C030E355806
:10657400D8B0BFEF32F0C1EF32F065EF33F0020E66
:106584003424036E000E3520046E000E0324D96EED
:10659400040E0420DA6E030E3424056E000E35203A
:1065A400066E000E0524E16E040E0620E26EDFCFB7
:1065B400E7FF010E3424036E000E3520046E000E36
:1065C4000324D96E040E0420DA6E020E3424056E00
:1065D400000E3520066E000E0524E16E040E062022
:1065E400E26EDFCFE7FF000E3424D96E040E3520AF
:1065F400DA6EFF0EDF6E010E3424036E000E3520BA
:10660400046E000E0324E16E040E0420E26EDFCF5C
:10661400E7FFFF0E036EFF0E046E34C005F035C0B5
:1066240006F00350052604500622000E0524D96EF8
:10663400040E0620DA6E000E3424E16E040E3520BA
:10664400E26EDFCFE7FFFE0E036EFF0E046E34C072
:1066540005F035C006F00350052604500622000E4E
:106664000524D96E040E0620DA6EFF0E076EFF0EA7
:10667400086E34C009F035C00AF0075009260850E6
:106684000A22000E0924E16E040E0A20E26EDFCF16
:10669400E7FFFE0E036EFF0E046E34C005F035C036
:1066A40006F00350052604500622000E0524D96E78
:1066B400040E0620DA6E000EDF6E344A352A65EFCA
:1066C40033F065EF33F084A26AEF33F06CEF33F00C
:1066D40025EF34F035BE78EF33F0810E345C030ED1
:1066E4003558D8A078EF33F07AEF33F025EF34F053
:1066F400FE0E036EFF0E046E34C005F035C006F0C6
:106704000350052604500622000E0524D96E040EFB
:106714000620DA6EFD0E076EFF0E086E34C009F017
:1067240035C00AF00750092608500A22000E092431
:10673400E16E040E0A20E26EDFCFE7FFFF0E036E68
:10674400FF0E046E34C005F035C006F00350052674
:1067540004500622000E0524D96E040E0620DA6EBB
:10676400FE0E076EFF0E086E34C009F035C00AF045
:106774000750092608500A22000E0924E16E040E6F
:106784000A20E26EDFCFE7FF000E3424D96E040E38
:106794003520DA6EFF0EDF6EFF0E036EFF0E046E01
:1067A40034C005F035C006F0035005260450062217
:1067B400000E0524E16E040E0620E26EDFCFE7FF33
:1067C400010E3424036E000E3520046E000E0324E3
:1067D400D96E040E0420DA6E000E3424E16E040E29
:1067E4003520E26EDFCFE7FF020E3424036E000E85
:1067F4003520046E000E0324D96E040E0420DA6ED4
:10680400010E3424056E000E3520066E000E05249C
:10681400E16E040E0620E26EDFCFE7FF020E3424A1
:10682400036E000E3520046E000E0324D96E040E90
:106834000420DA6E000EDF6E3406D8A0350625EF8C
:1068440034F025EF34F084A42AEF34F02CEF34F044
:10685400CFEF34F098EF34F098EF34F0000E342496
:10686400D96E040E3520DA6E010EDF6ECFEF34F0F0
:10687400000E3424D96E040E3520DA6E020EDF6E5B
:10688400CFEF34F0000E3424D96E040E3520DA6EC6
:10689400040EDF6ECFEF34F0000E3424D96E040EF4
:1068A4003520DA6E080EDF6ECFEF34F0000E34249C
:1068B400D96E040E3520DA6E100EDF6ECFEF34F091
:1068C400000E3424D96E040E3520DA6E200EDF6EED
:1068D400CFEF34F0000E3424D96E040E3520DA6E76
:1068E400400EDF6ECFEF34F0000E3424D96E040E68
:1068F4003520DA6E800EDF6E000E3424D96E040E5D
:106904003520DA6E000EDF6E800E3424346E000EF5
:106914003520356E000E3424D96E040E3520DA6E1F
:10692400010EDF6ECFEF34F0CFEF34F0000E3424DD
:10693400D96E040E3520DA6EDF50036E046A0450FB
:10694400000AD8B4A8EF34F0CFEF34F00350000AB3
:10695400D8B430EF34F0010AD8B43AEF34F0030A73
:10696400D8B444EF34F0060AD8B44EEF34F00C0A2D
:10697400D8B458EF34F0180AD8B462EF34F0300ABF
:10698400D8B46CEF34F0600AD8B476EF34F0C00AAF
:10699400D8B47EEF34F0CFEF34F081AED4EF34F0DE
:1069A400D6EF34F024EF1DF042EF35F042EF35F02E
:1069B400000E3424D96E040E3520DA6E800EDF6E9C
:1069C40024EF1DF0000E3424D96E040E3520DA6E47
:1069D400400EDF6E24EF1DF0000E3424D96E040E39
:1069E4003520DA6E200EDF6E24EF1DF0000E342405
:1069F400D96E040E3520DA6E100EDF6E24EF1DF012
:106A0400000E3424D96E040E3520DA6E080EDF6EC3
:106A140024EF1DF0000E3424D96E040E3520DA6EF6
:106A2400040EDF6E24EF1DF0000E3424D96E040E24
:106A34003520DA6E020EDF6E24EF1DF0000E3424D2
:106A4400D96E040E3520DA6E010EDF6E000E34248A
:106A5400D96E040E3520DA6E000EDF6E800E3424FB
:106A6400346EFF0E3520356E000E3424D96E040EBC
:106A74003520DA6E800EDF6E24EF1DF024EF1DF05A
:106A8400000E3424D96E040E3520DA6EDF50036E06
:106A9400046A0450000AD8B452EF35F024EF1DF014
:106AA4000350000AD8B4DAEF34F0010AD8B428EF5E
:106AB40035F0030AD8B420EF35F0060AD8B416EF3F
:106AC40035F00C0AD8B40CEF35F0180AD8B402EF3C
:106AD40035F0300AD8B4F8EF34F0600AD8B4EEEFE9
:106AE40034F0C00AD8B4E4EF34F024EF1DF024EFFE
:106AF4001DF024EF1DF024EF1DF012000000000033
:106B04000000000000000000000000000000000081
:106B14000000000000000000000000000000000071
:106B24000000000000000000000000000000000061
:106B34000000000000000000000000000000000051
:106B44000000000000000000000000000000000041
:106B54000000000000000000000000000000000031
:106B64000000000000000000000000000000000021
:106B74000000000000000000000000000000000011
:106B84000000000000000000000000000000000001
:106B940000000000000000000000000000000000F1
:106BA40000000000000000000000000000000000E1
:106BB40000000000000000000000000000000000D1
:106BC40000000000000000000000000000000000C1
:106BD40000000000000000000000000000000000B1
:106BE40000000000000000000000000000000000A1
:106BF4000000000000000000000000000000000091
:106C0400000000000000065F5F06000000000707A8
:106C14000007070000147F7F147F7F1400242E6B6D
:106C24006B3A120000466630180C666200307A4FE8
:106C34005D377A48000407030000000000001C3E92
:106C440063410000000041633E1C000000082A3E2E
:106C54001C1C3E2A0808083E3E080800000080E08C
:106C64006000000000080808080808000000006030
:106C740060000000006030180C060301003E7F71C4
:106C8400594D7F3E0040427F7F404000006273596F
:106C9400496F660000226349497F360000181C16BC
:106CA400537F7F5000276745457D3900003C7E4B6C
:106CB4004979300000030371790F070000367F49DA
:106CC400497F360000064F49693F1E0000000066F8
:106CD40066000000000080E66600000000081C3624
:106CE4006341000000242424242424000000416380
:106CF400361C080000020351590F0600003E7F4174
:106D04005D5D1F1E007C7E13137E7C0000417F7F2F
:106D140049497F36001C3E634141632200417F7F25
:106D240041633E1C00417F7F495D416300417F7F99
:106D3400491D0103001C3E6341517372007F7F08AB
:106D4400087F7F000000417F7F41000000307040D9
:106D5400417F3F0100417F7F081C776300417F7FB3
:106D640041406070007F7F0E1C0E7F7F007F7F0696
:106D74000C187F7F001C3E6341633E1C00417F7FF3
:106D840049090F06001E3F21717F5E0000417F7F8D
:106D940009197F6600266F4D597332000003417F45
:106DA4007F410300007F7F40407F7F00001F3F60E2
:106DB400603F1F00007F7F3018307F7F0043673CB7
:106DC400183C674300074F78784F0700004763710A
:106DD400594D677300007F7F4141000000010306A5
:106DE4000C183060000041417F7F000000080C0651
:106DF40003060C080080808080808080800000036F
:106E04000704000000207454543C784000417F3F44
:106E14004848783000387C44446C28000030784876
:106E2400493F7F4000387C54545C180000487E7F02
:106E3400490302000098BCA4A4F87C0400417F7FAD
:106E440008047C780000447D7D4000000060E08000
:106E540080FD7D0000417F7F10386C440000417F3D
:106E64007F400000007C7C18381C7C78007C7C040B
:106E7400047C780000387C44447C38000084FCF8AE
:106E8400A4243C1800183C24A4F8FC8400447C7816
:106E94004C041C1800485C54547424000000043E44
:106EA4007F442400003C7C40403C7C40001C3C600F
:106EB400603C1C00003C7C7038707C3C00446C38A6
:106EC40010386C44009CBCA0A0FC7C00004C647492
:106ED4005C4C64000008083E77414100000000005B
:106EE40077770000004141773E0808000002030163
:106EF400030203010070784C464C7870000E9F9199
:106F0400B1FB4A00003A7A40407A7A4000387C5417
:106F1400555D19000002237555557D7B422175543A
:106F2400547D794000217555547C78400020745775
:106F3400577C784000183CA4A4E4400000023B7D48
:106F440055555D1B02397D54545D190000397D553A
:106F5400545C18000001457C7C410100000203459B
:106F64007D7D43020001457D7C40000000797D1653
:106F740012167D790070782B2B78700000447C7C8D
:106F84005555450000207454547C7C54547C7E0B2D
:106F9400097F7F4900327B49497B320000327A48BD
:106FA400487A320000327A4A48783000003A7B410D
:106FB400417B7A40003A7A4240787840009ABAA0FD
:106FC400A0FA7A000001193C66663C19013D7D4037
:106FD400407D3D0000183C24E7E7242400687E7FC0
:106FE40049436620002B2FFCFC2F2B0000FFFF09D8
:106FF400092FF6F8A040C088FE7F090302207454CC
:10700400557D79400000447D7D4100000030784882
:107014004A7A320000387840427A7A40007A7A0A12
:107024000A7A7000007D7D19317D7D000000262FD5
:10703400292F2F280000262F292F26000030784DD5
:1070440045602000003838080808080000080808CF
:1070540008383800004F6F3018CCEEBB914F6F30BA
:10706400186C76FBF90000007B7B000000081C36DE
:1070740022081C362222361C0822361C08AA005577
:1070840000AA005500AA55AA55AA55AA55DDFFAA7B
:1070940077DDAAFF77000000FFFF0000001010104A
:1070A400FFFF000000141414FFFF0000001010FF85
:1070B400FF00FFFF001010F0F010F0F000141414A3
:1070C400FCFC0000001414F7F700FFFF000000FFB1
:1070D400FF00FFFF001414F4F404FCFC0014141764
:1070E40017101F1F0010101F1F101F1F001414144F
:1070F4001F1F000000101010F0F00000000000003E
:107104001F1F1010101010101F1F1010101010103F
:10711400F0F0101010000000FFFF101010101010FD
:107124001010101010101010FFFF101010000000AD
:10713400FFFF1414140000FFFF00FFFF1000001FE6
:107144001F101717140000FCFC04F4F41414141793
:1071540017101717141414F4F404F4F4140000FFB3
:10716400FF00F7F71414141414141414141414F75B
:10717400F700F7F714141414171714141410101F2D
:107184001F101F1F10141414F4F41414141010F00E
:10719400F010F0F01000001F1F101F1F100000005F
:1071A4001F1F141414000000FCFC1414140000F03D
:1071B400F010F0F0101010FFFF10FFFF1014141463
:1071C400FFFF1414141010101F1F00000000000013
:1071D400F0F0101010FFFFFFFFFFFFFFFFF0F0F0D3
:1071E400F0F0F0F0F0FFFFFFFF00000000000000EF
:1071F40000FFFFFFFF0F0F0F0F0F0F0F0F387C441F
:107204006C386C4400FCFE2A2A3E1400007E7E0288
:107214000206060000027E7E027E7E020063775D27
:107224004963630000387C447C3C04040080FE7E97
:1072340020203E1E000406027E7C06020099BDE763
:10724400E7BD9900001C3E6B496B3E1C004C7E73ED
:1072540001737E4C0030784A4F7D390000183C247D
:107264003C3C243C1898FC643C3E273D180000003C
:10727400000000000000000000000000000000000A
:1072840000000000000000000000000000000000FA
:1072940000000000000000000000000000000000EA
:1072A40000000000000000000000000000000000DA
:1072B40000000000000000000000000000000000CA
:1072C40000000000000000000000000000000000BA
:1072D40000000000000000000000000000000000AA
:1072E400000000000000000000000000000000009A
:1072F400000000000000000000000000000000008A
:107304000000000000000000000000000000000079
:107314000000000000000000000000000000000069
:107324000000000000000000000000000000000059
:10733400E0F0C8CCC4C2E2E2F2FEFEFEFCB0000003
:107344000000000000000000000000000000000039
:107354000000000000000000000000000000000029
:107364000000000000000000000000000000000019
:107374000000000000000000000000000000000009
:1073840000000000000000000000000000000000F9
:1073940000000000000000000000000000000000E9
:1073A4000000000000000000000000000000008356
:1073B400CF5F3F3F3F3F3F3F3F3F1F3F3F3F7F78D0
:1073C4008000000000000000000000000000000039
:1073D40000000000000000000000000000000000A9
:1073E4000000000000000000000000000000000099
:1073F4000000000000000000000000000000000089
:107404000000000000000000000000000000000078
:107414000000000000000000000000000000000068
:10742400000000000000000000000080C0884261ED
:10743400F042800008000060220008000000000004
:107444000103BC0080E0F0F8FCFCECF6F07838387E
:1074540018181808000000000000000000000000D8
:107464000000000000000000000000000000000018
:107474000000000000000000000000000000000008
:1074840000000000000000000000000000000000F8
:1074940000000000000000000000000000000000E8
:1074A400000000000000000000FC038382C6FAFA1A
:1074B400FCFCFAFFE20100000001000000000000F3
:1074C40000F00708FFFFFFFFFFFFFFDFCFCF8F0FA5
:1074D4000F0F0E1C18300000000000000000000018
:1074E4000000000000000000000000000000000098
:1074F4000000000000000000000000000000000088
:107504000000000000000000000000000000000077
:107514000000000000000000000000000000000067
:10752400000000000000608E01040F1F1F0F0F1FDA
:107534003F3F3F3F1F0300000000002000100008F1
:107544000808090A082B2B3337FF030303071F7F9F
:107554001000000000000000000000000000000017
:107564000000000000000000000000000000000017
:107574000000000000000000000000000000000007
:1075840000000000000000000000000000000000F7
:1075940000000000000000000000000000000000E7
:1075A4000000000000000007083060C080000000F8
:1075B4000000000000000000000040800000000007
:1075C40000008080C060341A050300000000000041
:1075D40000000000000000000000000000000000A7
:1075E4000000000000000000000000000000000097
:1075F4000000000000000000000000000000000087
:107604000000000000000000000000000000000076
:107614000000000000000000000000000000000066
:1076240000000000000000000000000000818286CD
:107634008C9C1428E8F8102040C0C0402011090593
:107644000505020100000000000000000000000029
:107654000000000000000000000000000000000026
:107664000000000000000000000000000000000016
:107674000000000000000000000000000000000006
:1076840000000000000000000000000000000000F6
:1076940000000000000000000000000000000000E6
:1076A40000000000000000000000000003020705C5
:1076B4000404050D0E1B3B6B476363263A12121C30
:1076C40000000000000000000000000000000000B6
:1076D40000000000000000000000000000000000A6
:1076E4000000000000000000000000000000000096
:1076F4000000000000000000000000000000000086
:107AF40000000000000000000000000000FFFFFF85
:107B0400FFFFFFFFFFFFFFFFFFFFFFFFFFFFFFFF81
:107B1400FFFFFFFFFFFFFFFFFFFFFFFFFFFFFFFF71
:107B2400FFFFFFFFFFFFFFFFFFFFFFFFFFFFFFFF61
:107B3400FFFFFFFFFFFFFFFFFFFFFFFFFFFFFFFF51
:107EE400FFFFFFFFFFFFFFFFFFFFFFFFFF0000009B
:107EF400000000000000000000000000000000007E
:107F0400005C000C000C7C287C7C447C24104828F9
:107F14005408000C0038440044380020100810387D
:107F24001080400010101000400020100838443821
:107F3400007C006454484454281C107C4C5424385D
:107F4400542004740C2854280854380050008050DD
:107F540000102844282828442810045408384C5C6D
:107F64007814787C54283844447C44387C54447CC9
:107F740014043844347C107C007C0020403C7C1089
:107F84006C7C40407C087C7C047C7C447C7C1408B5
:107F94003844787C1468485424047C047C407C3C39
:107FA400403C7C207C6C106C1C601C64544C7C44F5
:107FB40000081020447C0008040880808004080025
:107FC40044616E69656C2C4761627269656C00532B
:107FD4007061636520496E7661646572004C6574F6
:107FE400277320504C41590065742054686F6D61AB
:0B7FF40073004D61646520627900009D
:020000040020DA
:08000000FFFFFFFFFFFFFFFF00
:020000040030CA
:0E000000000C191EFF8381FF0FC00FE00F40A0
:00000001FF
